:100000000100000000000000000200000447BA08E0
:1000100018F09FE518F09FE518F09FE518F09FE5B0
:1000200018F09FE518F09FE518F09FE518F09FE5A0
:10003000DC6C0100B86C0100BC6C0100C06C0100FC
:10004000C46C0100C86C0100CC6C01007C6D010027
:10005000C4808FE2030098E8080080E0081081E087
:1000600001B040E2010050E11300000A7000B0E866
:10007000050054E1FAFFFF0A010014E30B4084106D
:10008000010015E30B508510020015E3095085109F
:100090000350C5E3106056E28C10B4288C10A528DC
:1000A000FBFFFF8A866EB0E10C00B4280C00A52887
:1000B0000470944404708544E9FFFFEA082098E541
:1000C0000C3098E5082082E0083083E001C042E26D
:1000D0000070A0E30000A0E30060A0E300B0A0E394
:1000E000030052E18A59000B3000B2E8010014E32A
:1000F0000C408410020014E3094084100340C4E360
:10010000105055E2C108A428FCFFFF8A855EB0E1CB
:100110004100A42804708444F0FFFFEA307301001A
:10012000C0730100C0730100E873010080B480BC9B
:10013000014802497047000018E801000000020071
:10014000F74A00205168002904D0052903D1F54859
:10015000006800E0F448013151607047002102E07E
:100160000131421E10400028FAD1081C7047FEB52C
:10017000EB4800210022143006C006C0FF21EB4EE0
:100180004131301C16F050F901A902A814F0E9FC25
:1001900000AB187A351C2035687118792871187AE7
:1001A0000DF032FF311C403101278F720A2051229D
:1001B0009055DB48341C2430306008200883072029
:1001C0004883062088830820C8830A206034208062
:1001D0000C2060800E20A0801023E380122020815C
:1001E00014206081CA888020824340208243CA80D4
:1001F000F18B2022394311438143F183311C0020CC
:10020000F0751A31062016F073FA0220C9DBDC21E2
:1002100001000000FC01000000020000C092652304
:10022000B075311C26312F716F71032016F06AFAF8
:100230000020A873708D0221B8430843042188432D
:10024000FF21F9318843603070852B7BE87A0621E5
:100250001B0218438843E872030A2B730DF0DBFE80
:100260002B7BE97A80071B02194318229143C00EA9
:100270000843E872030A2B730DF0CDFE311C8A8D02
:100280004007C00F10239A430001104388852B7B41
:10029000EE7A60221B021E43964380208643EE7254
:1002A000330A2B730023A373E373A24B002514338B
:1002B0000C27A61A4B607068AC0001194B780878BF
:1002C00002221B021843400840000870030A4B70CA
:1002D0007168904309190870030A4B707168042310
:1002E00098430A19011C11700B0A5370FF23381C24
:1002F0008006F9339943C00D7268084312191070D3
:10030000030A53707068013F001983784178062210
:100310001B021943914341700B0A83700DF07BFE61
:100320007168800709198B784A78C00E1B021A433E
:1003300018239A4310434870030A8B700DF06BFE2C
:10034000716840070919CB788A78C00F1B021A43DD
:1003500010239A43000110438870030ACB70706821
:10036000602201198B78487801351B0218439043AD
:100370004870030A8B707168802290430919487095
:10038000030A8B70706800190379C1781B02194346
:100390000909090102310B0AC1700371042D8AD3C6
:1003A000674E012172680425537810781B021843A8
:1003B00008432843041CFF20F93084437834147028
:1003C000230A53701379D4781B021C432409240197
:1003D0006418D470230A1371537914791B021C43D7
:1003E0000C43231C2B431C1C844368341471230AC4
:1003F0005371137AD4791B021C432409240102345B
:10040000D471230A1372537A147A1B021C430C43CF
:10041000231C2B431C1C84431472230AC8FA1F1884
:1004200001000000F803000000020000347ADB9EA7
:100430005372137BD47A1B021C4324092401063413
:10044000D472230A1373537B147B1B021C43231C9B
:100450008B43AB438343181C28301073030A537338
:100460001379D078D4791B021843137AD57B1B02F9
:100470001C430019137BD47A1B021C4303190F2061
:10048000C41A137C04401B021D432B1C83431C43D2
:10049000D473230A13740E2232610022F160002407
:1004A00080251027B2600DF0C0FD274AA1000C3254
:1004B0008E18B378717880071B021943182399436B
:1004C000C00E08437070030AB3700DF0AEFDF378F0
:1004D000B17840071B021943C00F0001B94308431C
:1004E000B070030AF3707378307802211B0218434E
:1004F000884340084000042188433070030A737029
:10050000B37870780F211B021843A8437070030A58
:10051000B3703379F07801341B0218430843030A9F
:10052000F0703371022CBED30A4E3821306BC008F4
:10053000C00005300843C9008843FF308130306374
:10054000301C3130041C07E0344D00C0801800C05E
:10055000000000C01418000416F00AFD0221084330
:100560000C218843083030218843FF21C1312030DD
:10057000884300AB197A4907C90D0843211C16F0BE
:10058000CBF8301C3230041C16F0F2FC00AB1979A9
:100590000E2290434907090F08431027B8436022F1
:1005A0001043211C16F0B8F8301C3330071C16F02D
:1005B000DFFC0221084304210843082108431021DD
:1005C000884320221043391C16F0A6F8201C16F090
:1005D000CFFC2843211C16F09FF8381C16F0C8FCED
:1005E00001242043391C16F097F8343600210022EC
:1005F00006C606C600AB187A0025FFF7C3FDFF212B
:10060000443E03E072193032117101358542F9D34D
:1006100038208455301CA03000220272FF3631365B
:100620000271B271402009F005FD0020C0AACB166E
:1006300001000000F4050000000200002D8205EE1C
:10064000FEBD10B515F065FBB34C002807D1201C8A
:1006500016F098FC01210843211C16F067F815F0EC
:10066000C7FB002807D1201C16F08CFC0221084390
:10067000211C16F05BF84C2007F04AF9103007F007
:1006800047F90002000E0107090FA44A0006000FF7
:1006900051701070002010BDFEB500260AF091FCCC
:1006A0009F4A106801218906084310609C499439CB
:1006B00008680822104308600DF045FEFF21994D9F
:1006C0004131281C15F0CEFE0220532148550AF076
:1006D0009DF83043011C029193480AF0E8F99249D1
:1006E00001200860FFF7ADFF904FBE6AF86A000472
:1006F000000C0190FFF759FD0299084302908A48C7
:100700000068002804D0002029680DF073FD041C47
:1007100014F03BFA6C21485514F01AFA296B400783
:10072000C908C900400F084328630120606021699F
:100730000320088021697E480861281C1A3016F0C1
:1007400021FCAA7D031C201CE97D0DF0CAFD0128B7
:1007500069D175480068002801D0764800E07648E5
:100760007861724A443210685107084310602120B2
:100770007249C00208620025BD6138693D61A06808
:100780006F4A011C443111606E4A6F4B1060021CAD
:100790000A321A606D4A60301060BE62019800042F
:1007A000000CF8620E60888007F05EFB6848056008
:1007B0006749012240310A600D610D6245604A605F
:1007C0004D614D6285608A608D618D62C560CA60D1
:1007D000CD61CD625F490D62016A02060A430321C1
:1007E000C9068A4311430162062014F01EF84C4CDE
:1007F000A03CE06804218843E06013F0B1FC564D52
:10080000A88A13280AD14D48C03001690522120573
:10081000114301610168514A1143016015F064F907
:100820000298002801D00120FEBD07F0A1F807F0D2
:10083000B7F84B4A10680B21C9010843E2AA9DC0D2
:1008400001000000F007000000020000D96ABB535D
:1008500010604949086808221043086034490020A4
:1008600088604648D102016134490968002903D0F3
:100870007969D205114379612E4B7C3B19680F22AF
:10088000120511431960E16AFF2212029143E162ED
:10089000AA8A3A49C039132A05D165224A62C5227B
:1008A0008A62272104E060224A62C0228A621421FF
:1008B000C1610020C2E71F4A603A90680121C90463
:1008C000884390601B4A583A106805214902084342
:1008D00010602B49D01788802A481D49086170474D
:1008E000144A603A90680121C90488439060114A13
:1008F000583A106809210902084310602049D017AE
:1009000088800C492048A03908631C4A403210688E
:10091000890288431060704780B5044816F03CFB9C
:10092000002800D180BD012080BD00004B190004CB
:10093000344D00C0A02000801418000408000004FA
:1009400000A500803101000082A80294BFA8020621
:1009500000A8008088FD03C08CFD03C090FD03C08B
:1009600094FD03C040E800800002008098E601008A
:10097000FF0100000828008028300080C0A200800D
:10098000200200901C1C00002839000080B516F0E1
:1009900033FB16F035FB002080BDE44880B5416A8A
:1009A00049084900416216F033FB012080BDFFB5C4
:1009B000099E062801D2122902D3982004B0F0BD66
:1009C000DB4D8200AC58002C01D09720F6E7D84FC1
:1009D0000401603FE419AC502160AF58029C8900CB
:1009E0007C60AC58A360AA58D660D14A18325050E7
:1009F000D049C8680130C8600020DFE798B5CD4C09
:100A000000212060E16000F0BDFA00220092E06861
:100A1000C94B021C0421FFF7CAFFE0680130E06007
:100A200098BDC648C34A80B5C54950609160C54A63
:100A3000EF2115F0ABFD002080BDFFB587B0041C91
:100A4000062C1198109D96469C4602D3877B1692E1
:100A500001000000EC090000000200001E73B90E46
:100A600098200BB0F0BDBA49A60018398959002961
:100A700001D09720F5E70221049100220592B24FA0
:100A8000021C03907868B0490090942060431831AC
:100A900044180292089A201C61460195734616F08C
:100AA000C9FA002807D17868A9494019786018392F
:100AB0008C510020D5E70120D3E780B5062805D268
:100AC000A34980001839085816F0BCFA80BD80B5DB
:100AD000062805D29E4980001839085816F0BAFA3F
:100AE00080BDB0B506280AD2994D8400183D28591A
:100AF00016F0B8FA285916F0BDFA00202851B0BDFA
:100B000080B516F0BFFA80BD80B516F0C3FA80BD7F
:100B100038B50C1C051C16F0C5FA6A46291C16F0DF
:100B2000C9FA002C01D00098206038BDF8B5022821
:100B300001D39820F8BD844E8500103671590029E4
:100B400001D09720F6E73823FF2282492932584303
:100B50000092703944187C4F00210122201CBB6890
:100B600016F0B0FA002806D17451B868FF30293069
:100B7000B8600020DEE70120DCE7B0B5022807D22C
:100B8000714D84001035285916F0A4FA0020285120
:100B9000B0BD08B502280BD26B498000103108584F
:100BA0006946002216F09EFA002801D1009808BD7F
:100BB0000020FCE780B5022809D2634A8000103289
:100BC0001058002216F08EFA002800D180BD0120B6
:100BD00080BD80B5022809D25B4A800010321058CF
:100BE000002216F087FA002800D180BD012080BDC8
:100BF00083B502280AD2544980001031085801A94F
:100C0000002216F077FA002800D18CBD0120FCE705
:100C100000B5031C022889B013D204A905A80090CE
:100C200001914949980003AA02921031085808A975
:100C300007AA06AB16F066FA002802D1079809B099
:100C400000BD0020FBE7704780B5802016F062FAF7
:100C500080BD80B5002016F05DFA80BD2A148AD6CA
:100C600001000000E80B000000020000EA9B07B34F
:100C700070477047704780B5802016F055FA80BDE8
:100C800080B516F051FA80BD80B5052808D21C2326
:100C9000314A5843603280180A1C002116F04CFA81
:100CA00080BD80B5052806D21C232B4958436031EE
:100CB000401816F049FA80BD80B5052808D21C23DB
:100CC00025495843603140180021C94316F044FAC1
:100CD00080BD80B5052806D21C231F4958436031CA
:100CE000401816F041FA80BD80B5062806D21A4990
:100CF0004001EC314018002116F03EFA80BD80B56D
:100D0000062806D2144A4001EC328018002216F060
:100D10003BFA80BD1CB5141C06280ED20022D2431B
:100D200000920D4A4001EC328018221C01AB16F0F3
:100D300033FA002801D101981CBD0020FCE780B5E2
:100D4000062805D204494001EC31401816F02CFA6F
:100D500080BD000000300080E8140004380000046A
:100D60003B090000E003000438120004E80D000015
:100D700080B5062805D2894A40018018022216F063
:100D800003FA80BD00B587B0062810D203A90091F0
:100D9000824902AA40014018019205AA06A904ABA3
:100DA00016F00AFA002802D1059807B000BD00200D
:100DB000FBE710B5041C04280DD21C2077496043C2
:100DC000D03140180122002116F0B6F9734A0020F4
:100DD000A100C032505010BD80B5042808D21C2399
:100DE0006E495843D03140180021C94316F0B4F978
:100DF00080BD80B504280DD2684B01218200C0332C
:100E000099501C2365495843D03140180021C943EB
:100E100016F0A2F980BD80B504280ED25F4B810088
:100E2000C0335A58012A08D100225A501C235B496A
:100E30005843D031401816F097F980BD80B504288A
:100E400006D21C2355495843D031401816F08CF96E
:100E500080BD80B5C168021C0068926816F0B4F9C4
:100E600080BDF0B5042801D39820F0BD380CC2FA3B
:100E700001000000E40D000000020000F363D9C38C
:100E80004C4D84002B59002B01D09720F0BD2C2312
:100E9000484E4343B03E9B19464F2B510601103735
:100EA000B851F0198160C260002141604249196166
:100EB000295948610020F0BDFEB50B1C111C042807
:100EC00016D23C4C0201103415196A688400002ABD
:100ED000384E0ED101220292009301913059002127
:100EE0000269436916F082F9002801D10120686087
:100EF000FEBD351C0A1C191C305916F07FF9285903
:100F000016F084F9F4E7B0B5042806D2294D840020
:100F1000285916F083F900202851B0BD80B5042867
:100F200004D224498000085816F070F980BD80B5BD
:100F3000042804D21F498000085816F077F980BDB4
:100F400010B5041C16F07AF9206010BD002302E0F1
:100F50000170013001339342FAD37047F8B5174856
:100F600000680568002D21D0114F0024EC3F0120BE
:100F7000A040284017D00E49A000D4390858860058
:100F8000B95900290FD008688A68291C16F026F97B
:100F9000022808D1B859C368002B04D02A1C0121AB
:100FA000006816F053F90134122CE0DB0020F8BD84
:100FB000D4150004C4170004CB0D00000000000489
:100FC00070B500250024154E07E08019406816F022
:100FD00045F9002800D001250134E00031580029EE
:100FE000F3D1002D0CD10D4D0024483504E04019FB
:100FF000406816F033F90134E00029580029F6D191
:1010000070BD0021C94380B5002007F067F90028B2
:1010100001D0012080BD002080BD0000001200C072
:1010200080B5FF21032012F077FB05F000FB80BDA7
:1010300070B5F3480469006BF24D0026696CA1425B
:1010400006D1F1498C4203D0E98A0131E98201E0FD
:10105000EE826C64AA6C01031203120B090B91421D
:101060001ED101031CD0298B01310904090C2983ED
:101070000A290CD9E24A403A11695269D333D03275
:1010800001000000E00F000000020000078B677EF7
:10109000114306D12E832865A86D0130A865FFF79E
:1010A000C9FFE88A0A2804D9EE82EC64686D013031
:1010B000686570BD2E83A864F3E770470120704710
:1010C000012070470020704780B5002805D0011C22
:1010D0000020FFF728FE002080BD012080BDD04801
:1010E000072101621F2242628162C2620163426380
:1010F0008163C263CB492420086048608860C8606F
:10110000C949012008707047F8B5AB23DB00041C07
:10111000C64958434718201C07F017FC8500201CBF
:1011200007F01DFC2E18BC486830005D01282AD04D
:1011300000250CE00020009001301428FCD3211C75
:10114000684608F0C4FB0098002802D00135B5427B
:10115000F0D3281C1525AD01B04215D1B44908685B
:10116000013008600120A040C1010320FFF7DBFD32
:101170007D19E88A012803D90021201C08F0D0FB42
:10118000E88A0130E882F8BDAA49086801300860A1
:101190000121201C08F0C4FB00207919C882F2E765
:1011A000704780B54B780A781B021A430123DB0392
:1011B0001A430A70130A4B7000228A71CA710822FE
:1011C00006F0B5FB80BDF8B5FFF769FD051C09F019
:1011D000C4F9994E1BE000988068410517D00003C0
:1011E000840E201C0CF0C9FED02060438019103002
:1011F000037CC07B1B0218430007800F02D1012231
:10120000002101E001220121201C0CF07AFE684639
:1012100009F0A9F90128DED0281CFFF745FDF8BD2B
:1012200080B54B780A781B021A430123DB031A436B
:101230000A70130A4B7000228A71CA718A78CB78BF
:101240001B021A4306F073FB80BDB0B54B78041C3B
:1012500008781B020D1C18436378217880071B0255
:101260001943C00F02229143400008432070030A33
:1012700063700CF016FFA378617880071B02194396
:1012800018229143C00E08436070030A20B288639D
:1012900001000000DC110000000200007990C0CEC7
:1012A000A3700CF008FFE378A17840071B021943F4
:1012B00010229143C00F00010843A070030AE3709D
:1012C000AB78687861781B021843A3784006800FDA
:1012D0001B02194360229143400108436070030AD6
:1012E000A370EB78A878A2781B021843E378000675
:1012F000C10F1B021A4380208243C9011143A17010
:101300000B0A5349E37089684031C97A012908D131
:10131000A37861781B02194308436070030AA37025
:10132000B0BDA37861781B021943814361700B0A39
:10133000A370B0BD70B547480024051C2A35061DB2
:10134000301C15F05BFEA1004018291CFFF787FF39
:101350000134042CF4D370BD10B50BF0C1F93C4935
:1013600000068968000EC96D002903D12F494A7D06
:10137000012A05D100200DF02CFA041C002011E0F8
:10138000022801D0032805D105200DF022FA041C03
:10139000052007E0487B0028F6D005200DF019FA5B
:1013A000041C09200DF086FA2248C03084632A48C4
:1013B00084602A48846010BD80B54B780A781B028F
:1013C0001A430123DB031A430A70130A4B700122EC
:1013D0008A71130ACB71082206F0B3FA80BD30B5CA
:1013E00000201F4902224B2353435B1840331B7AD2
:1013F000012B02D101300006000E01321206120E3E
:10140000072AF0D3012400230128164A164D05D8D7
:1014100001282BD1D031887B012827D01470286B6C
:10142000002800D02B6330BD80A80080B02600C00B
:1014300042C0020080A0008080A60080701200C020
:10144000B87E0100405400C0485400C0701A000427
:1014500098E601001418000440AA008040AB008008
:10146000507C01002178010040A200801370286B9D
:101470000028D8D16620286330BDB0B50C1C151CDF
:10148000012108F0A2FF002800D1B0BD81686205EB
:10149000C90AC902520D114381604168C2D91F1B9C
:1014A00001000000D8130000000200008D787E7358
:1014B0007F22520591436A06120911434160B0BD73
:1014C000F8B50F1C051C002874D0281D009015F0DD
:1014D0009FFDD022F6497A435618002818D00721DC
:1014E000B069C9028843012149034018F149B0613C
:1014F000C8690130C86101280AD1EF48EF49808AE4
:101500000F2801D10C2002E0132801D105204863E7
:10151000341C1B34281C15F07BFD211C393115F0BF
:101520004BF9009815F074FD211C3D3115F044F97C
:10153000EB7AA87A21791B0218436379C007C00FA0
:101540001B0219434908490008432071030A6371CB
:10155000EB7AA97A02221B0219438907C90F90432B
:101560004900014321710B0A6371EB7AA87A2022AA
:101570001B0218438006C00F9143400108432071AD
:10158000030A6371EB7AA97A40221B0219434906C8
:10159000C90F8901904308432071030A281C0830B1
:1015A000637115F035FD6178A3788006C00F1B02CA
:1015B000194300E079E02022914340010843607024
:1015C000030AA370687B412110220855287BA07173
:1015D000EB7AA87A21791B0218436379C006C00F01
:1015E0001B0219439143000108432071030A6371F0
:1015F0002B7BE87A61791B021843A3798007800F5F
:101600001B0219438908890008436071030AA3710A
:10161000EB7AA87AB1181B0218430B7CCA7B00072F
:101620001B021A430C23800F80009A431043C87397
:10163000030A0007800F012401280B7402D19D4981
:101640004C7302E09B4900204873FFF78FFEA87A95
:10165000EB7A1B0218430007800F02D10022002101
:1016600001E000220121381C0CF05FFC9248808AC6
:101670000F281AD1924A101CA0308178022901D07B
:10168000032912D18379002B06D1917D022901D043
:1016900003290AD1C47003E0937D012B05D1C170E9
:1016A000C0789075012003F0A6FCF8BDFA8F99412F
:1016B00001000000D4150000000200009480A00387
:1016C000FFB5B3B0071C161C062201A834993D9D36
:1016D00014F046FF03987105C00AC002490D084383
:1016E000039002980121090588430290039807217D
:1016F000C9028843039029A8418BBA068909890148
:10170000920E1143418301A808F071FD041C002EC4
:1017100001D1002100E008210907090B32913E990F
:10172000C907C90D3191012830D1029801AB0001E0
:10173000420E03984105490D381C0DF0FDFF002DA8
:1017400011D00398D0230003800E5E4958432A78B5
:101750004018C8210A54C0300189FF220132914348
:10176000319A114301810398564A0003810ED0201B
:101770004843801842690F231B049A43329B1A4343
:101780004261021CB832C030C2603BE0072C3CD141
:10179000349808F0CDFE062802D10A2037B0F0BDFB
:1017A00001A808F024FD041C01282ED1029801ABE9
:1017B0000001420E03984105490D381C0DF0BCFF95
:1017C000002D11D00398D0230003800E3D495843CB
:1017D0002A784018C8210A54C0300189FF220132FA
:1017E0009143319A114301810398364A0003810ED7
:1017F000D0204843801842690F231B049A43329B30
:101800001A4342613C98FFF765FE201CC6E710B5FD
:10181000314C002208E0834205D150000019407885
:101820000870012010BD01325300E35CFF2BF2D1A0
:10183000002010BDF8B5051C503528796979254C74
:10184000FF26F93604276034002951D16946FFF795
:10185000DEFF00AB18781F4B2049A0734B780A7845
:101860001B021A4302239A4352085200BA430A70D9
:10187000130A4B70174BDB7D002B03D1B24380065C
:10188000800E06E00523032800D3031CB24398060C
:10189000800EC00010430870030A4B70A879694697
:1018A000FFF7B5FF00AB18780A49E073C97D00293E
:1018B00033D10A4980060A794B791B020CEC9EC988
:1018C00001000000D01700000002000060681EBE8A
:1018D0001A43B243C00D0DE0701A0004B02600C0D8
:1018E00098E6010040A6008014180004A41200C06D
:1018F000404D00C01043030A0871002410260F1C3D
:101900004B711AE0EC49A0734B780A781B021A431A
:1019100002239A4301231A43E84BBA439F7ADB7AA6
:101920001B021F437B07DB0F9B001A43B0E7052117
:10193000032800D3011C081CC5E7A000C51928789E
:101940006B781B021843C105890EC007C00F11F048
:1019500035FFAB78697880071B0219431822914341
:10196000C00E08436870030AAB7028786B781B02BE
:101970001843C105890EC007C00F11F01FFFEB7897
:10198000A97840071B021943C00F0001B143084367
:1019900001342406030A240EA870EB70022CCCD369
:1019A000F8BDF8B5C54D071C00241C3D281C15F0DA
:1019B00043FBA6008019017843781B021943CA072C
:1019C00010D4042291430B0A01704370032F04D1F9
:1019D000281C15F031FB801908E0281C15F02CFBA1
:1019E00080190BE0490712D4032F07D1417883787F
:1019F00060221B0219439143203105E0417883782E
:101A000060221B021943914341700B0A8370013419
:101A1000042CCBD3F8BD38B5A84D203D2C1C103478
:101A2000A07BE37B1B021843C0072CD40FF0F4FE0D
:101A3000281C4030437A007A1B021843C10601205B
:101A400000290ADA9E4A9168323911609C49403176
:101A500008600A1D116801431160E37BA17B1B0232
:101A600019430843A073030A281C1A30E37315F0C6
:101A7000E3FA2421495D00230091AA7DEC7D011C3D
:101A8000201C11F080FE38BDF0B58C4EC9B001208D
:101A90002290203E301C10304890C37B807B1B027C
:101AA0001843C00704D487490868402210430860DF
:101AB00009F016F8041C09F033F8051C4898C37B9C
:101AC000807B1B021843C00709D420787B3943EB85
:101AD00001000000CC19000000020000A7711CE307
:101AE00063781B0218434004400C1C2801D0FFF708
:101AF0009CFF21786378764A203A161C0836479670
:101B0000161CA03646961B021943161C6032480468
:101B1000724B400C20369842459201D101F0D1FA27
:101B200071DC603A171C50371A32FF231433984285
:101B30004392449701D101F0BBFA65DCFF270137DE
:101B40001F2801D101F0EFFA62DC1A2801D101F05F
:101B50002CFD2DDC032801D101F005F9042801D169
:101B600001F079F9142801D101F04CFB192801D0BA
:101B700002F09CFC5A48806A002803D0211C281CD3
:101B8000FFF742FC207A637A0126F6071B0218430E
:101B9000002801D101F0D5FC201C0C3015F056FABC
:101BA000E37AA17A1B0219433143086002F054FC26
:101BB0001B2801D101F030FD1C2801D101F08EFA63
:101BC0001D28D5D14649886A002803D0211C281C2D
:101BD000FFF71AFCA07BE37B1B021843002801D10E
:101BE00001F0B9FC012801D101F0D4FC022801D098
:101BF00002F005FC201C083015F028FA011C201CFE
:101C00003A1C103001E028E176E005F0C2FEEFE773
:101C1000FF230B33984257D03FDC202801D101F03D
:101C2000BDF9502801D100F09DFFB842A0D1A078A5
:101C3000E3784B21C9001B0218431A388842294E09
:101C400001D902F0E8F9FFF75CF8071C607951232D
:101C5000DB005843801930301A22211C083114F05F
:101C600093FCE378A27860791B021A435123DB00CE
:101C70005843801950301A3A211C223114F084FC48
:101C80006079FF212631184A41438918174A80009C
:101C9000115009F0D4F801F020FCFF230E339842D4
:101CA00071D0013398426FD00133984200D05FE782
:101CB0000F480068002868D00E4A106A01300026DC
:101CC000271C08372090DAE3DAE30000404D00C01B
:101CD0003418000400A600800C2000805807B0983B
:101CE00001000000C81B0000000200005399A25E22
:101CF00003020000B02600C0C41604C0243B04C088
:101D0000640204C008000004C0A20080FF2327333F
:101D1000984271D055DCFF231E3398426DD028DCE9
:101D2000FF231633984269D00333984267D00133BA
:101D3000984265D001339842C3D1207AF849637A3A
:101D40000E1C0F1C1B02184394379836002873D1C1
:101D5000311C381C0EF0BEFF381C15F081F9010251
:101D60000F1A301C15F07CF9391C14F0EBFC02F052
:101D700079FBFF232133984272D00333984270D00D
:101D8000013398429DD1E748C463201C083015F008
:101D900067F9E3492631012802E07CE37CE37CE338
:101DA00064D1E06814F030FD201C0C3015F058F9B7
:101DB000800771D5B07AF37A02211B0218430843D9
:101DC000D5E3FF234133984201D102F087FA22DCA8
:101DD000FF232833984201D101F051FC013398428E
:101DE00001D102F02CF90133984200D0CAE6207AE2
:101DF000637A1B02184304E0BAE34FE36FE1E6E1C4
:101E0000F3E1012800D0DBE6A07AE37A1B02184355
:101E10000BF0EAFFD4E6FF234233984201D102F0EF
:101E200004FBC14B98426FD001339842DED1207A37
:101E3000637A1B02184300E099E2002865D1BB4E8B
:101E40000622211C0A31306814F0A8FB30680168B2
:101E500021910A1CB6498A62808820AB988001E0F3
:101E600091E230E12198C86202F0F5F981E3B14BCB
:101E7000984201D101F0C1FA71DCAE4B1E3B984291
:101E8000F2D06DDCAB4B2F3B98426AD03EDC812315
:101E90009B00984266D000E06CE30133984201D188
:101EA00000F0DEFF01339842DED011231B0298427E
:101EB0009CD10120C00308432070030A63700020F6
:101EC000A071E071201C261C083015F0C9F8082705
:101ED000012871D146980121437800781B021843EC
:101EE00008434699030A087093484B7063583F773C
:101EF00001000000C41D0000000200004A617C2EA9
:101F000000680CF0B9FD6079082871D2FF212631F4
:101F10008F4A414389180AF007FAF1E3D3E0F0E36E
:101F2000894B2D3B984264D0874B203B984267D029
:101F30000133984200D02FE6A07CE37C00261B02F0
:101F40001843002801D001F0E0FA2B20015D201C8D
:101F50002A300291211C163100910190637C277C6C
:101F6000227A1B021F43637A60791B021A430C39E1
:101F700003E060E00AE0C5E3F8E13B1CFFF7C8FBC3
:101F8000012801D101F0D3FA0126FBE76E4B0B3B90
:101F9000984201D101F091FB33DC6B4B1C3B984222
:101FA00001D101F0DDFA684B0F3B984201D101F0FD
:101FB000D8F901339842BED1FEF7B7FE071C261CA4
:101FC0001036201C083015F055F800E09BE30106A0
:101FD00001D001F071FA0121301C08F032FA00281A
:101FE00000D16CE6A030A17D07235B02028B01E0EB
:101FF0008AE38AE34907090D9A43114301835EE6A8
:1020000084E3514B0A3B984201D101F03CFB02337F
:10201000984201D101F0D7F9013398428BD14D4A52
:10202000176A0137201C083015F024F820AB98708F
:10203000002601F0E9F9444B0833984201D102F03F
:102040002FF910DC073BC01A072804D202A31B1883
:102050001B5A5B009F449FE5610268021D1023101C
:10206000B1101D0A1011384B1633984261D015DC9F
:10207000354B0933984201D101F004FA324B133346
:10208000984201D102F01EF901339842E3D1201C9D
:10209000083014F0EFFF30490860EFE62A4B1833A0
:1020A000984273D00133984201D102F0EEF9073320
:1020B0009842D0D1201C083014F0DCFF274908607A
:1020C0000FF071FBDAE6637A207A25491B02184388
:1020D00089680E2040318873D0E620892149002884
:1020E00002D001200870C9E600200870FFF73DF813
:1020F000C4E6607D01300606360E201C4AD9D82B76
:1021000001000000C01F000000020000BE89C29351
:102110001030071C667514F0B7FF011C301C0EF060
:10212000B9FD381C14F0B0FF617D1C23064F5943E4
:10213000C919AE3114F07CFB201C0C30061C14F0C5
:10214000A3FF011C1AE088E314180004B02600C0A5
:102150000102000088FD03C000A5008030110000CE
:1021600008000004243B04C0C0A200808475010064
:10217000A01300C098E601002C780100607D0EF0ED
:1021800094FD301C14F080FF617D1C235943C91954
:10219000B23114F04DFB207A637A1B02184300E041
:1021A0008EE3800711D5E37AA17A607D1B02194383
:1021B0000EF086FD607D1C235843C119A07AE37A96
:1021C000BE311B02184314F033FB207A637A1B02E2
:1021D000184340070BD5217D607D0EF077FD607DB3
:1021E0001C235843C119B631207D14F021FBEC4962
:1021F000012088704CE6207A637A1B02184300287D
:1022000000D0F1E4E74814F03FFF211C0A3102F04E
:102210003FF9E37AA07AE2491B0218430870E149CA
:10222000207A637A70390E1C9C311B021843903659
:102230000028429159D1271C0820209028370220DD
:1022400010F0D7FC0AE0429814F01EFF31680A0231
:10225000511A14F08BFA3860043F043E209801387C
:102260002090431CEFD1D048012601683143016022
:1022700080211F2011F0AAFAD0211B2011F0A6FA0C
:102280006021272011F0A2FA5021282011F09EFA97
:1022900028212B2011F09AFA4898C37B807B1B02DF
:1022A0001843800605D524212C2011F08FFA202117
:1022B00004E02F212C2011F089FA30213F2011F069
:1022C00085FA38212F2011F081FA7521CB2011F0E9
:1022D0007DFA3D21CD2011F079FA3F21CE2011F079
:1022E00075FAAF4900204870A0E4201C283008216E
:1022F000002203E0026032600438043E0139F9D262
:10230000101C429914F094FAA74908683830E6AED8
:1023100001000000BC21000000020000B656334E50
:1023200040084000086088211F2011F059FA002160
:102330001B2011F055FA3F21272011F051FA3F21BF
:10234000282011F04DFA29212B2011F049FA3621CD
:102350002C2011F045FA78212F2011F041FA3F216D
:102360003F2011F03DFA4521CB2011F039FA5D21D3
:10237000CD2011F035FABF21CE2011F031FA8D4970
:1023800001204870FF22F8320121022010F02AFCBF
:1023900001F06EFE002020AB1870672020A912F01B
:1023A00083FB20AB1878A07228E4391C0027381C66
:1023B00014F048FA311C381C14F044FA0EF09CFC5E
:1023C0001CE4207A637A1B02184300282DD00128D0
:1023D00042D0022819D0032800D063E5A17AE37A1D
:1023E000459A754F1B021943703F107B11F0E0FFB7
:1023F00070490120C870439814F050FE44998979BF
:102400000091BA7DFE7D00271EE06D49086801221B
:1024100012041043086001200EF0EEFC694A506976
:1024200030218843506111F0B3FF62490027CF701B
:1024300011F0E6FF604E4398703E14F02FFE449971
:1024400089790091B27DF67D011C301C3B1C11F096
:10245000CCF911F09DFF25E556490120C870A17AFD
:10246000E37A459A544F1B021943703F107B11F0D9
:1024700075FF439814F012FE449900238979009166
:10248000BA7DFE7D011C301C11F0AFF94C4920399A
:10249000086A01221204904308624949043108681D
:1024A00004221043086000200EF0A6FC45491431B8
:1024B000086830221043086011F055FFA17AE37AD2
:1024C000459A1B021943107B11F072FFEAE426E0E3
:1024D0004CE04CE106E025E03B48416849084900F2
:1024E0004160DFE400200CF0DBFA3849002008608E
:1024F00033494831086803221043086031494031AC
:102500000868402210430860CCE4381C14F0C6FD73
:10251000011C30060122000E08F0F8FCA60A4DABA3
:1025200001000000B82300000002000042BE8DF34D
:10253000013620988642F2D3201C083014F0B8FDF2
:10254000800701D5012000E0002026498968C86580
:10255000FEF75CFF26E7201C083014F0A9FD469921
:102560000872A9E41C4A176A0137002605E0300604
:10257000000E217A08F03DFD0136BE42F7D311E787
:10258000207A637A1B0218430128A9D1201C0B3042
:10259000071C14F08DFDC3071349144A2ED50B4BAD
:1025A0000020703BD875124B1870402010606420DA
:1025B0000860104A4B2111600F4908602FE0D2E0FB
:1025C000E4E0D4E0C9E00000B02600C084180004B4
:1025D00010E6010020A80080C0A2008040A6008074
:1025E00000A5008098E60100947501009075010037
:1025F0009B1300C0987501009C75010040070ED523
:10260000F34B0120D875F34B1870202010603C204C
:102610000860F14A5A201060F0484B210160381CD4
:1026200014F046FD4005C00E01280CD1E8490020F9
:102630008875F37AB07A04211B0218438843B0727C
:10264000030AF37251E0022815D1E149012088758F
:10265000F37AB07A04211B0218438843B072030A4C
:10266000F372337BF07A60211B0218438843F072C7
:10267000030A337339E0F37AB07A04211B0218435A
:102680000843B072030A201C0C30F3724190D04F03
:1026900014F00EFDC006800F3876419814F008FD46
:1026A000C006800F01280CD1337BF07A60211B0219
:1026B00018438843F072030A33730220B875002070
:1026C0000EE003280FD1337BF07A60211B02184300
:1026D00088432030F072030A33730320B875012059
:1026E000BF49087401E002203876A07A4399B84EB9
:1026F00014F0B2F8B07D469988704699C87003F01E
:1027000099FB0CF072F9439814F0D2FC449984467A
:10271000897900230091B27DF07D614611F06FF858
:102720000BF023FD011C0020B27D11F0CE502C23B4
:1027300001000000B4250000000200005B46538346
:10274000D7FAB07DFFF773F9AA490120487106E076
:10275000AEE205E275E2B8E2A6E200E35FE2886A73
:10276000002800D0C1E4B07D0AF0C0FFBDE4B07A1B
:10277000F37A02211B0218438843B072030AF372F2
:10278000B3E40028EED1081C14F09CFC211C0C3191
:1027900014F06CF8A9E4201C0A300CF001FBA4E44E
:1027A000FEF7EBFA1D9093488463201C083014F068
:1027B00089FC8C490C31409101286BD14698407AB4
:1027C00000281BD0874F381CFF30033014F07AFCF0
:1027D000011C02200EF07CFA381CFF30133014F07C
:1027E00071FC011C02200EF089FA381CFF300B30FE
:1027F00014F068FC011C02200EF086FA7D4FB86BC5
:10280000FFF768F8B86B3F900C3014F05BFC754F25
:102810000437012871D10020409914F027F83F981F
:10282000143014F04FFC3E90381C14F04BFC01782F
:1028300043783E9A1B0219434908D207D20F490038
:10284000114301700B0A43706A483D91806B1C3044
:1028500014F038FC0006000E1F90381C14F032FCF7
:102860003D99C90718D41EA91F98FFF720F8381CF6
:1028700014F028FC4378067804211B021E438E4383
:102880000670330A4370381C14F01CFC0222964375
:10289000311C24E048E194E11F9918AB1976437884
:1028A000017804221B0219439143F37AB27A1B0286
:1028B0001A435207D20F9200114301700B0A437062
:1028C0003C91381C14F0FEFB3C9902229143B27AF1
:1028D000F37A1B021A439207D20F52001143017080
:1028E0000B0A4370381C14F0EDFB01784378FF228B
:1028F0001B021943F932914301E017E046E118AB9E
:102900001A7E9206D20D114301700B0A4370381CD7
:1029100014F0D8FB0379C1780F221B02194311432D
:10292000C1700B0A037148990E20EDE00120409917
:1029300013F09CFF0020489913F098FF76CB14EC1D
:1029400001000000B027000000020000AFAEED3E25
:102950000021D3E02099080130993B903A9040182B
:10296000143014F0B9FB3990381C14F0B5FB2099E1
:10297000890038913791401801784378399A1B02C1
:1029800019434908D207D20F4900114301700B0ABD
:10299000437036911C493A98896B40181C3014F0EA
:1029A0009BFB0006000E1F90381C14F095FB379916
:1029B00040183699C90729D41EA91F98FEF781FF30
:1029C000381C14F089FB3899042241184B78087898
:1029D0001B02184390430870030A4B703590381C53
:1029E00014F07AFB38990222411835989043087008
:1029F000030A4B702AE00000141800049B1300C067
:102A0000987501009C750100B02600C01F9918AB95
:102A100019764378017804221B021943114301708F
:102A20000B0A43703491381C14F056FB389902227B
:102A300040183499F37A9143B27A1B021A439207F1
:102A4000D20F5200114301700B0A4370381C14F06E
:102A500043FB3899FF22401843780178F9321B0272
:102A60001943914318AB1A7E9206D20D114301709F
:102A70000B0A4370F7493B98896B40183390183024
:102A800014F02AFB002814D13398203014F024FBD2
:102A90003290381C14F020FB38994018C178037923
:102AA000329A1B021943090909011207120F114337
:102AB0000BE0381C14F010FB38994018C1780379EA
:102AC0001B021943090909010231C1700B0A037184
:102AD000489814F001FB3190381C14F0FDFA389935
:102AE00040180379C07831991B0218430007000F82
:102AF0000818489913F0C4FE20990131D548209157
:102B0000806B3090103014F0E7FA2099884200D999
:102B100020E7489814F0E0FA4899013813F0B0FE25
:102B200001200EF0CCF9FEF773FCCB4F0120479942
:102B300013F0A6FEB87DFEF784FF18E0C54E00280E
:102B400015D0022813D1201CFEF7CEFE7C55FA5179
:102B500001000000AC2900000002000068B7EF632C
:102B6000B06B0C3014F0C2FA012802D10020409959
:102B700001E04099012013F08DFE0020479913F0E9
:102B800089FE1D9801F0ABF9012808D16079B84998
:102B9000221C0A32085C01210EF087FC45E4022861
:102BA000FCD1201C0A30061C0CF00EF9301C0CF075
:102BB0003FF93AE4201C0830061C14F097FA00286C
:102BC0000CD0021C0121032010F034F8A64F012084
:102BD0003863301C14F08AFA386426E4032010F0BD
:102BE0003AF8A149002008631FE4201C083014F0C3
:102BF0007DFA002803D0012801D001F05CFA9D493C
:102C0000C86012E40120C00308432070030A637007
:102C10000020A071E071201C261C083014F066FA18
:102C200095490028627905D0012090400A78104328
:102C3000087004E0012090400A7882430A70087806
:102C40000CF0E8F89BE00120C00308432070030A61
:102C500063700020A071E071201C083014F046FA67
:102C600081490C22887101F07CFC6079FF232633B6
:102C7000824E584380191A1C211C083113F0D4FCD1
:102C80006378207801211B021843C9030843207090
:102C9000030A63700020A071E0714698C908437868
:102CA0000078FF221B02184308434699030A087064
:102CB0004B70211C2E32281C04F0BBFE6079FF21D2
:102CC0002631414389196E4A8000115001F0EEFB14
:102CD0006749085C0EF0EEF96A49086838430860F5
:102CE00003F0E3F800283CD05F49086A013008622D
:102CF00037E000280DD16079082805D20022002194
:102D000008F02CF9607901E05949085C0EF0EDF902
:102D100027E046990020087048705B498968C865BB
:102D2000FEF792FB6079082803D20022002108F008
:102D300015F90BF035FA554908680422104308606C
:102D400050490868B843086000200EF07DF8FEF78F
:102D5000F3F903F0AAF8002803D0434919A83DACC1
:102D600001000000A82B0000000200009C5F51DE63
:102D7000486A01304862424810224030437A017A62
:102D80001B021943C908C9000231914301720B0AA1
:102D900043720C22311C01F0EFFB211C414E083123
:102DA000271C0622301C13F049FC6378207801218F
:102DB0001B021843C90308432070030A63700020F4
:102DC000A071E07146984908437800781B021843C7
:102DD00008434699030A087033484B70006800287E
:102DE0000CD0307873781B021843002806D1607924
:102DF000224960314018017801310170B01C14F093
:102E00007FF97378317864791B021943021C201C06
:102E100009F049FA0E22391CBDE7A07BFF2807D133
:102E2000224E0622201C0E30316813F007FC11E000
:102E30001E4E0622211C0E31306813F0FFFB306855
:102E4000016821910A1C1A498A62808820AB988007
:102E50002198C86244990126C879094FA075030AD0
:102E6000E375330A2673201C1C30637307F0DFFD03
:102E7000072020724499C8781CE00000B02600C0EA
:102E8000141800047C1900C0701200C0701800C033
:102E9000243B04C0640204C000A3008098E6010043
:102EA00024A80080605004C00800000488FD03C00E
:102EB00000A500806072459A211C107B030A2075D2
:102EC0006375EF48183113F0EFFC211C38310320F3
:102ED00013F0EAFC211C4031022013F0E5FC489875
:102EE0000422C37B807B48991B02184330438873BC
:102EF000030ACB73391C3031201C3C3001F025FA19
:102F0000E049087820720020EAE0201C24302F904D
:102F1000071C14F0F5F8061C381F14F0F1F83A1DE0
:102F2000311C07F0A5FD381C14F0EAF8D64900263C
:102F3000C873201C5C302E9016E0B1000F192837A2
:102F4000381C2D9114F0DCF8D04A2D995050381CC3
:102F500014F0D6F8071C2E9814F0D2F84001381857
:102F6000CB4A2D99013650502F9814F0E401FCC043
:102F700001000000A42D00000002000085A78FAE14
:102F8000C9F8B042E3D8201C5830061C14F0C2F82F
:102F90000107C54AC90F1160459AC006517BFE233F
:102FA000C00F194001430F1C5773301C14F0B2F8C6
:102FB0008006C00F02218F4340000743459A301C12
:102FC000577314F0A7F84006C00F10218F4300017B
:102FD0000743459A301C577314F09CF80006C00F45
:102FE00020218F43400107433E1C459A201C593045
:102FF00056732C902B9014F08DF88007C10FAB48BE
:103000002A91071C14F086F840082A9940000843CA
:10301000391C13F053FC071C2B9814F07BF8A349C0
:103020004007C00FE4310873F807C027002803DB0E
:10303000459ABE43567308E02C9814F06BF8C0070D
:10304000400EBE43459A30435073984820224C3876
:10305000837D417D1B021943114341750B0A837522
:1030600001F031FA227A637A914892491B021A439D
:10307000092A04D203A39B189B5A5B009F4401F0CA
:103080004FFA0000500A22000B0016006D00500A93
:10309000500A500A7800A07AE37A44991B02184338
:1030A0000006000E48710BF095F8E8E7E37AA07A85
:1030B000814A1B0218430106090E11607F49000A6C
:1030C0000860DCE7A27AE37A1B021A437C4B9A423F
:1030D00012D14499C8790128D1D948981021C37BCD
:1030E000807B1B02184308434899030A8873CB73FB
:1030F000744900200870C2E7489F6E49FB7BBE7B85
:103100006A4A1B021E4310239E43BE73330AFB739D
:1031100000270F7044994C3A8979022901D1077030
:1031200000E00170A07AE37A44991B021843060676
:10313000360E8E71439813F0EDFF5C4900964C39C2
:103140008A7DCE7D011C301C3B1C10F08AFB594946
:10315000012009780EF08FFB91E70078022802D356
:103160000020C04300E00130A072030AE37286E74A
:1031700008780228F7D3F3E7E37AA07A0412379BA2
:1031800001000000A02F000000020000714F311369
:1031900052491B0289681843403188811CE5207A16
:1031A000637A1B021843012889D1A07AE37A1B02B3
:1031B00018430BF09DF86CE7207A637A1B021843E2
:1031C0000128EBD1A07AE37A1B021843012811D021
:1031D000032808D00528E1D140480121806840300B
:1031E000817200210BE03D480022806840308272ED
:1031F000012104E039480021806840308172C172A9
:10320000EAE4207B637B1B0218432090A07BE37BD6
:103210001B021843042809D1207C637C1B0218433D
:10322000012801D1022608E0032606E0022801D188
:10323000012602E0012800D10026A07AE37A1B02D1
:103240001843042801D1012702E0012800D10027FA
:10325000207A637A1B021843032807D1201C1230FE
:10326000391C331C209A10F098FF12E7012809D16D
:10327000201C123010F0C8FF321C381C209910F0AE
:1032800081FF05E0022803D1201C123010F0AEFFB0
:103290000B4E43984C3E13F047FF449989790091B7
:1032A000B27DF67D00F049FF11080205802700C0BD
:1032B000B02600C0F05300C0085400C0785004C0CD
:1032C000601800040DE601000CE60100AC1300C01C
:1032D000A81300C0FFFF000004E6010098E601000B
:1032E000607901282ED0022846D0032864D100211D
:1032F000201C083007F0FFF8071C201CBA210E30F4
:1033000013F05EF9002F58D0BA20C05BF223EE49CB
:103310008006800EA073B868E073B8680003800E62
:103320002074B8680003800E58434018E030007ADB
:1033300060747868C002C00FA07478680003000F42
:10334000E07497E6201C0830C021061C13F038F901
:103350000121301C07F04CF9201C44300BF09AFD81
:1033600000260620704301194A31301C0EF041F846
:103370000136102EF5DB7DE60021201C083007F019
:10338000BAF8061C201CBA210E3013F036A093CBDD
:10339000010000009C310000000200000F5496A3C1
:1033A00019F9002ED7D0301CA030018B0905490F28
:1033B000A173311C8031CA6B17688F629188B92262
:1033C0008181311C5831201C0F302BE026E0F37A2C
:1033D000B07AC34F1B0218434007C00F2074337BE1
:1033E000F07A1B0218434006800F6074459A507BA8
:1033F0008007C00FA074459A507BC007C00FE074CF
:1034000002F07DFC011C201C20304170B5490C22CB
:1034100009680171391C16310C3803E06C22B2497D
:10342000201C083013F028F92EE6B04A106A01304B
:103430001E90201C083013F081FE18ABD877201C9A
:103440000C3013F07BFE18AB9877201C103013F073
:1034500075FE20AB1870201C143029900026013016
:10346000289010E0289813F069FEC006870F29986D
:1034700013F064FE4005C20E3006000E3B1C1FA96F
:1034800009F0F4F801361E988642EBD3DEE3974A42
:10349000106A01300026271C083720900EE0381CE7
:1034A00013F04CFE002804D03006000E09F008F995
:1034B00003E03006000E09F01CF901362098864220
:1034C000EDD3C3E33006000E20A909F02AF9013636
:1034D000BE42F7D3BAE3854A176A0137201C083089
:1034E00013F02CFE002809D1002604E03006000E5F
:1034F00009F054F90136BE42F8D3A7E3072000AB28
:103500001871207B9871607BD871A07B1872E17C68
:1035100002A80130002905D003315971211C143152
:10352000E27C06E0E17B00AB03315971E27B211CB8
:10353000103113F0A1F8002605E03006000E01A9B5
:1035400009F01AF90136BE42F7D37FE3207A637A95
:10355000459A1B02184310736AE0207A637A211C93
:103560001B021843002804D160790A3109F028F9B8
:103570005EE001285CD160790A3109F036F957E044
:103580000006000E012801D1002115E0032817D103
:103590000121301C3A3006F0B8FFBA21015EFC8FE1
:1035A000010000009833000000020000FBBC281E50
:1035B000095A8906890E082903D2524AC900891876
:1035C00001E0011CA831BC221150011C301C04F088
:1035D00080FD04E0022802D1301C04F03DFD381CBF
:1035E000FDF716FC2EE0012812D1637C227C217AA3
:1035F0001B021A43637A201C1B0219430A30FDF791
:10360000E6FF002801D1FEF72DFD05F06FFB08E075
:10361000022806D1201C0A3007F020F8062800D125
:1036200001260021201C0A3006F079FF211C2C31D4
:1036300013F062F9002E00D13FE5D3E3207A31493F
:103640008039487503E1E37A211CA07A0C311B0212
:1036500018433043006800F07FFF207B637B1B0230
:103660001843402800D919E5201C083013F070FDDC
:10367000071C002609E0B00001193868103113F06A
:103680003BF9043701363606360E207B637B1B027E
:103690001843B042EFD801E5201C083013F058FD64
:1036A000061C201C103013F053FD3060F6E4154862
:1036B0008038806A002803D0211C281CFDF726FFD3
:1036C000207A637A1B02184300281FD0217BA07A3E
:1036D000E37A1B02184311F048FAA07AE37A1B023E
:1036E00018438428A8D10849207B89684872E4E4FB
:1036F00084A9010014180004A0FD03C0B4770100E0
:10370000C0A20080302700C098E60100A07AE37ACA
:1037100020A91B02184311F021FA1EE0F148806A2B
:10372000002803D0211C281CFDF7F0FE0AF041FE02
:10373000207A637A1B021843002807D0217BA07AE5
:10374000E37A1B0218430EF0D1F87FE0A07AE37A07
:1037500020A91B0218430EF0BEF820AB1878207386
:1037600074E0207A002871D010F010FE6EE0207A0C
:10377000637A1B021843012869D1E37AA07A211CDD
:103780001B0218430206D848120E02700C31013099
:1037900012F07CFF5BE0201C083013F0D9FC0028FD
:1037A0006AD12722211C0C3117A812F06C97330D17
:1037B000010000009435000000020000E244F66EB3
:1037C0006FFF17980021C007C00F169014A802C001
:1037D00002C0CB480068002803D014A80BF078FB87
:1037E00006E06079C74914AA095C00200DF08BFD42
:1037F00017981DAA02320007410F002927926CD1A9
:1038000014A917A806F035FC002804D1BA49C86AE3
:103810000130C862F0E206221FA80130269014A9E8
:1038200012F03EFFFDF7F9FA139018AB187D1BA9B3
:10383000259102286FD2187D2C23B3495843401894
:10384000FF3001304068B14E00280ED118AB187D12
:103850004B23AF49584340184278002A05D101E074
:10386000D9E3D9E38078002811D018AB187D012165
:1038700005308140A7480278114301700121A64814
:103880008903C162B0690130B0617AE0C9E218AB66
:10389000187D002804D19849487A002871D107E0A2
:1038A00018AB187D012803D19349C87A002868D144
:1038B00018AB187D04F08EFF002816D1F06918AB04
:1038C0000130F061187D05F0D9F818AB187D00289B
:1038D00004D189490120487253E08EE218AB187D6B
:1038E00001284ED18449C8724BE00121259806F089
:1038F00020FE18AB197D894A890089184861061C89
:103900003FD0187D002807D181489030C07800282A
:103910000DD1012009E069E118AB187D012806D11D
:103920007B484030007A002801D105F0F7F918AB48
:10393000187D05F0F3F918AB197D012005F0A0F909
:1039400018AB1A7D169817A904F0FDFF279912F0FD
:10395000DDFF18AB587D8208587D8107890F0D3136
:10396000012088406E4941186E48814200D9011CEF
:1039700018AB1F7DD87C4B237B43654FDB199871B7
:1039800000E059E15C480079002805D018AB187DAB
:10399000053010F01AFD04E018AB187D053010F06A
:1039A0006DFC479813F0DEFB012821D05E480068CB
:1039B000002816D10121269806F0BBFD319F3DA6B7
:1039C00001000000903700000002000016AC48D350
:1039D000071C10D018AB197DB8680003800E0AF0E0
:1039E000DDFC18AB197DB868554A0003800E8900CC
:1039F0008918486106E018AB197DB0680003800E95
:103A00000AF0CCFC18ABD87C4E491C23085C4E4F06
:103A10005843C019CA3013F0AFFB011C18AB187D16
:103A200005300DF0AFF918ABD87C46491C23085C73
:103A30005843C019CE3013F09FFB011C18AB187D02
:103A400005300DF0AAF918ABD87C3E491C23085C60
:103A50005843C019DA3013F08FFB011C18AB187DE6
:103A600005300DF0A5F918ABD87C36491C23085C4D
:103A70005843C019D23013F07FFB011C18AB187DDE
:103A800005300DF09BF92148C179002916D018ABFB
:103A9000D97C002912D1197D00290FD12B4B19781F
:103AA000002902D0006B002801D0802004E02849C2
:103AB000B06C884202D95E20264A506318AB197D4B
:103AC0004B23184F00205943C91917AA1218127C0A
:103AD0000A5401300628F8DB2598807B002807D09F
:103AE000706818AB0001420E0020D97C0BF079FC05
:103AF00018AB187D002833D1164A506B00282BD004
:103B0000144A80329069202132E00000B02600C0C3
:103B1000F54404C0785004C07C1900C0B8E6010028
:103B20006CFE03C0507C0100802700C0000C0080A8
:103B300094770100FFF7FFFFFFB7000084750100D5
:103B4000841200C010000004141800049B1300C06D
:103B5000FFFF000040A20080E74A906920210CE0AE
:103B6000E54A803A906B002804D0E34A90694021EE
:103B7000084303E0E04A906940218843906118AB14
:103B8000187D4B2301265843C01948210E5425990E
:103B9000897B002900D0C67118AB197D0120D64A57
:103BA0004002890089184860FDF7D7FC2598037CFE
:103BB000C07B1B021843411ECA17120D5218121364
:103BC0001203891A18AB1A7D0904090CE9CB0B5FA3
:103BD000010000008C39000000020000D1B54A8EBF
:103BE000002A02D10201CA4801E00201C94802626A
:103BF0000901416218AB187DC7494018467114A8E5
:103C00000BF066F918AB187D4B235843C0194030B0
:103C1000467201E1C1490120087218AB187D0628DF
:103C20001ED8187D05304607BC48760F6830805D89
:103C3000002815D12C20BA4970434018806A00280A
:103C400003D00120B040B74920E00121259806F0BB
:103C500084FCB100B44A249150501290002807D13E
:103C6000211C281CFDF770FC1398FDF7EFF82DE2DE
:103C700014AB321C17A9169804F050FF279912F0C4
:103C800059FE431C0BD10120A649B0400A781043CD
:103C900008700121A5488903C162E1E733E118AB4F
:103CA000587D197D8208D87C4B235943A04BC918F5
:103CB0008871A049301C10F0F5FA479813F066FAA5
:103CC00001281FD09C480068002813D101212698A4
:103CD00006F043FC071C0DD018AB197DB868000333
:103CE000800E0AF065FBB8682499944A0003800EA0
:103CF000505007E018AB197D129880680003800EC1
:103D00000AF056FB10AB998D18AB187D4B23884AEF
:103D10005843115210ABD98D80184180198E818083
:103D20002598807B002808D0129818AB4068D97C71
:103D30000001420E00200BF05EFB18ABD87C8049DE
:103D40001C23085C7F4F5843C019CA3013F01EFA79
:103D5000011C301C0DF020F818ABD87C78491C23CE
:103D6000085C5843C019CE3013F010FA011C301C07
:103D70000DF01DF818ABD87C71491C23085C584322
:103D8000C019DA3013F002FA011C301C0DF01AF8D9
:103D900018ABD87C6A491C23085C5843C019D23040
:103DA00013F0F4F9011C301C0DF012F818ABD87C9C
:103DB000042805D2554A24990020803A89180862BF
:103DC0002598807B002807D018AB197D4B23584AD3
:103DD000012059438918C87118AB197DEA9D1783D2
:103DE00001000000883B000000020000255DF43364
:103DF0004B23544A594389184031012008724872B4
:103E0000474A2499803A8818006A002805D0444A15
:103E100050690121090488435061414A01202499D5
:103E20004003403A89180863FDF7ABFB1398FDF790
:103E300017F80AE061E1400F012806D117A916988A
:103E400004F074FF279912F07FFD279813F0A8F96A
:103E5000FF2862D1211C281CFDF780FB7DE302288E
:103E60005CD10822211C0C311DA812F037FC1E98D1
:103E70000606360E701D4007400F1F90FCF7EBFF43
:103E800020904B202F4A704380180021002242547A
:103E900001310629FBDB0022403002721F988700A7
:103EA0002648C159002917D0294AD059FF2806D0E1
:103EB000311C0AF090FA264AFF20D05105E08868AC
:103EC0000003800E311C0AF086FA1C48C059406875
:103ED0000001400E0BF0A3FB022E45D20022174832
:103EE000002EC25104D11249487A002845D105E07C
:103EF000012E03D10E49C87A00283ED11F980DF03B
:103F0000FCFB1F9810F01AFA301C04F0D5FD002EAF
:103F100024D10749012048723AE0B6E03CE00000B5
:103F2000C0A2008040AA008040AB0080484F00043F
:103F3000B02600C0B8E60100802700C094770100D9
:103F4000000C0080507C0100FFB700008475010068
:103F5000841200C01000000414180004012E17D1B0
:103F6000EF490120C87213E0EE480022C251EC482C
:103F70001F996830415C002907D0211C281CFDF7DF
:103F8000ECF92098FCF76CFFE7E21F9A01218154BD
:103F90002098FCF765FF78E0012810D10A22211C47
:103FA0000C311EA812F09AFB1E981F99C007C00F73
:103FB00020AB0906090E1A8804F0BBFE65E0042850
:103FC00063D12722211C0C3117A812F087FB15A8FA
:103FD000002102C002C0D4480068002803D015A800
:103FE0000AF094FF06E06079D04915AAB9D00A5BBF
:103FF00001000000843D0000000200003CA52A43AF
:10400000095C00200DF0A7F917980007400F46D172
:1040100015A917A806F055F8002800D11EE418AB22
:10402000187D1BAE012866D8187D2C23C54958433E
:104030004018FF3001304068002868D118AB187D67
:104040004B23C14958434018417800295FD18078FB
:1040500000285CD118AB187D002806D1B549487AF4
:10406000002854D109E02FE19FE118AB187D012809
:1040700003D1B049C87A002849D118AB187D04F0A3
:10408000D1FB002810D118AB187D04F01FFD18AB30
:10409000187D002804D1A7490120487237E073E059
:1040A000A4490120C87232E00121301C06F069FAEF
:1040B00018AB197DA04A890089184861002826D0CC
:1040C00080680003800E0AF061F843780078994E0A
:1040D0001B021843C105890E7836012901D3C00798
:1040E0000AD4211C281CFDF743FA18AB197D0020C7
:1040F000890070503EE20BE018AB187D800031580B
:1041000001313150012902DB002232503CE036E01F
:1041100018AB187D062832D8187D0530470785482A
:104120007F0F6830C05D002829D12C208549784355
:104130004018806A00280AD0844901200A78B840D3
:1041400010430870012182488903C16217E00121F0
:10415000301C06F016FAB900774A002850500ED0ED
:1041600080680003800E0AF011F8437800781B0283
:104170001843C105890E012901D3C00704D4211CAD
:10418000281CFDF7F5F9F5E1211C281CFDF7EFF8D7
:10419000EDE1207A637A1B021843021C011C031C08
:1041A00010F078F86B4F439813F004F8011CBA7DB7
:1041B000F87D10F02DF8439812F0FCFF44998979AE
:1041C0000091BA7DFE7D0023011C301C0FF099FB8D
:1041D0007AE0207A469948725649C871E5E0227A19
:1041E00000215D481D2A5AD023DC112A49D010DC59
:1041F000002A29D00E2A33D00F2A39D023EBE83AEF
:1042000001000000803F000000020000C84D94FE45
:10421000102A63D1617A152960D274235943081892
:104220007721C9006EE0132A3ED0152A3FD0192A03
:1042300066D01A2A52D1617A03294FD224235943D6
:1042400008184B495EE01E3A082A5CD201A39B5C29
:104250005B009F44313A4405070A0D4C011C52E0B3
:1042600044494FE0434944314CE04249743149E00C
:10427000414947E0617A032930D25C235943091848
:10428000403140E0617A032928D2CC2359430918F0
:10429000FF31553137E0617A03291FD2302359436A
:1042A0000818334990392DE03149CC312AE033499F
:1042B00028E02F496C3125E0617A03290ED21823BA
:1042C00059430818E52109011CE0617A032905D248
:1042D0001423594308182949983113E074E0617A8E
:1042E000032971D249010818FB2109010AE0617A0A
:1042F000032969D25C23594308181F49403101E062
:10430000FFE71F49411800295ED0A0227FE0012766
:104310000121201C083006F03EF9061C4FD0A17B7D
:104320000C2000292ED0337CF27BE17B1B021A4348
:1043300082438807000F1043F073030A3374E07B55
:10434000002827D1002725E0B02600C0947701007F
:10435000785004C07C1900C0B8E60100507C010010
:10436000802700C0000C008014180004043A00C02C
:10437000CC0D00001010000024110000DC0E000025
:1043800078120000337CF17B1B0219430843F07361
:10439000030A3374F07B337C1B0218430007800F41
:1043A000012800D100E00020F0494873FDF7BAF879
:1043B000B06801220003800E391C09F092FE211C16
:1043C000281CFCF7DEFF00E079E0DDE00121201C85
:1043D000083006F0E0F8002871D08068F22300036E
:1043E000800EE34958434018011C6831201C72229A
:1043F0000E300EE0DF4801684B7808781B02184346
:104400002072030A63720A784B781B029034ED71B4
:10441000010000007C410000000200002D1AC9F9D3
:104420001A43201C0C3012F077F952E00121201CB5
:10443000083006F0BAF800284BD0A17B082948D2F2
:104440004068D24A0001400E000180184900405ADD
:10445000E073030A23743CE0201C083012F0BEFE17
:10446000012871D1201C0C3012F0B8FEB17B8842BB
:104470006BD00006000EB07306D0307B737B8021BA
:104480001B021843084305E0307B737B80211B022D
:10449000184388433073030A7373479812F09EFEE3
:1044A00000286AD1FCF7F5FC1F9006F050F95CE09B
:1044B0001E988068410558D00003800EF223B14950
:1044C00058434018209012F089FE30235843B049D9
:1044D00000E089E084468C44002080218200624410
:1044E000D378977801301B021F43B37B8F430006BC
:1044F000DB071B0E1F4397703B0AD370D37C977C5E
:10450000000E1B021F43B37B8F43DB071B0E1F43B1
:104510003B0A9774D3740328E0D3209800275830BF
:1045200023901DE078002099C01940186030017A6E
:10453000437A1B021943C9070FD5817AC37A8022B7
:104540001B021943914301E01AE020E0B27BD2073D
:10455000120E114381720B0AC37201373F063F0EE0
:10456000239812F03BFEB842DCD21EA806F0F5F804
:1045700001289DD01F98FCF791FCFCF7CBFF06E0CB
:10458000002804D1211C0C31B07B12F0FBF9211C56
:10459000281CFCF73FFF2298002802D07D48042108
:1045A000C16249B0F0BD201C083012F017FE7A4EEF
:1045B00001280ED1201C0C3012F010FE071C301CFC
:1045C00012F00CFE80218843F907090E0843311CC4
:1045D00008E0002808D1301C12F000FE0006C00FD1
:1045E000211C0C3112F0CEF9211C281CFCF712FF03
:1045F000D4E76A4A106A01302090002705E03806A7
:10460000000E217A06F0F6FD013720988742F6D396
:10461000207A002806D1B07AF37A0421FAF86BEEFA
:10462000010000007843000000020000D9F2774446
:104630001B021843884305E0B07AF37A04211B0279
:1046400018430843B072030AF372FCF7C0FEB9E5E1
:104650000120C00308432070030A63700220030A8C
:10466000A071E3710822211C281C03F064FA9FE763
:10467000F8B5484CE16D0131E165002871D10BF0CE
:1046800069F8607A002600281BD0A07A411CA1722C
:10469000012816D9FCF707FC051CA6720121002091
:1046A000667205F07BFC05200DF08BF801F0B6FC7E
:1046B000052001F094FB05200DF07BF8281CFCF789
:1046C000F7FB344CE07A00281CD0251C287B411CC9
:1046D0002973012816D9FCF7E6FB041C2E7301216F
:1046E0000120EE7205F05AFC06200DF06AF801F088
:1046F00095FC062001F073FB06200DF05AF8201CF3
:10470000FCF7D6FB234F0024703722486830005D49
:10471000002822D0385D411C395500281DD0FCF7F7
:10472000C2FB051C201C0DF010F8201C0FF02EFE03
:10473000201C0DF046F801F071FC201C04F013F968
:10474000201C01F04CFB13483E5568300655201CD8
:104750000DF02FF8281CFCF7ABFB0134082CD4DB40
:1047600000E08BE00B4C607C411C61740A283AD954
:1047700010480D4D01686F0C00291FD1002004F076
:104780006FF800281BD10C482022017811430170DA
:10479000EF6214E0B02600C084A901007C1800C0BC
:1047A00040780100BC2700C0000C008046180004BF
:1047B000C0A20080404F0004802700C006609848D7
:1047C000016800290BD1012004F04AF8002807D124
:1047D00094484022017811430170EF6200E00660C6
:1047E00001F055FB6674E07C411CE174042819D982
:1047F00000218D4B002082009A58642A02D9013191
:104800000906090E01300828F5DB0020820001307E
:1048100008289E50FADB022902D90120207500E009
:104820002675E674814CA07C411CA174832AF05744
:10483000010000007445000000020000C00AA93415
:10484000052825D900247F4D03E0052C1BD0062C1C
:1048500019D0A0002958002914D1201C04F074F9A3
:10486000002810D0FCF729FB071C01F0E1FB201CFD
:1048700004F03EF87449486901304861381CFCF77F
:1048800021FB00E02E500134082CDEDB6C4CA674BA
:10489000F8BDF8B506F041FA09F0B0FF7921C90179
:1048A0006A4811F01FFF6A4E012200206949FCF797
:1048B00053FB041CF8D0E00402D50020FFF7E2FE11
:1048C000A00701D5FDF7C6F9E00521D562480768C4
:1048D00000250DE069460020FCF798FA002809D170
:1048E0000098082804DA00980006000EFCF71AFD6C
:1048F000B542EFD3B54203D300210B200AF043FCAD
:10490000554800684E4AC01B516B884200D950631D
:104910002004C9D5514A10680107400000201060EA
:10492000C2E71CB50020FCF701FB4D4803F093FBE8
:104930004C4C002803D041682161002101607D2199
:10494000C90009220192002200914949022046A390
:10495000FCF7A9F900280FD1FCF7CFFC384901205A
:10496000887364226421206903F096FB0020FCF721
:1049700009FA606000201CBD0120FCE780B5022020
:10498000FCF7D1F980BD2E49C8690138C8610BD147
:1049900038483149808A40310F2801D1082002E08F
:1049A000132801D10520486370472548806A704765
:1049B0003148007B704780B5304803F04CFB00283D
:1049C00004D0284A416891600021016080BD002226
:1049D000011C244880B5806803F05EFB80BD21483F
:1049E00080B5806803F060FB80BD10B51D4CA068E9
:1049F000002807DB03F058FBA06803F059FB0020F8
:104A0000C043A06010BD011C012088400A490A78FB
:104A10001043087001201A498003C862704780B5AE
:104A200001200003FCF75EFC80BD80B50FF079FF2C
:104A300080BD0000444F0004802700C0011191E8B0
:104A400001000000704700000002000034E21789F6
:104A5000704F0004B02600C0504F0004B47701002E
:104A600084A9010040420F00FFFF000000A6008063
:104A7000A8FD03C053470000701200C043422050FD
:104A8000726F6300C745000098E6010074180004C7
:104A90005F470000000C0080B0B5EA4803F049FD14
:104AA000E94C606003F035FEE84DE861E5482030F0
:104AB00003F03FFDA06003F02CFE2862E148403087
:104AC00003F037FDE060B0BDFEB50021DE4A029183
:104AD0001178FF23C9335943DD4BDE4DCE18311C0D
:104AE000FF3181318E625278FF20013093005A19D4
:104AF000403AD46B4C62D84C1C19403CE46BD26BEE
:104B0000A21A1204120C0024824202D30862CC6260
:104B100010E0801A0863D048371CFF37183818187F
:104B2000B1370A62CF624038C06B4863886A801828
:104B30008863CC63301CFF30C849A130086335203E
:104B4000C649000240310860C4488030016AC90784
:104B5000FCD50462FCF7BBF9371CFF37C137019065
:104B6000BC8052E014214143400184198D19FF3566
:104B70002068013500284BDA61790020082901D12D
:104B800001206071B04A5178062900D10130617965
:104B90001F22125D01F0EAF9002804D101F01AFA8F
:104BA00001F050FA34E0011C30314B7809781B02D7
:104BB00019430C2904D8011C02200AF0EEFA27E060
:104BC000483028602168A04A49004908216052788D
:104BD000A04B61699200D218403AD163A189E86084
:104BE0006960A068A86000202861A0890299411826
:104BF0000291B888012805D314235843801904353D
:104C0000C030C563B8880130B880B8880828A9D3F7
:104C10000198FCF761F9B88800280DD08C49002074
:104C2000083948608E498B4B08608748407880007F
:104C3000C0184038C06B38600298FEBD8248FF2320
:104C40000078C933824958434018FF30B3432A9D46
:104C5000010000006C49000000020000F3FB15D4C5
:104C600083490530086382498348403108607047B2
:104C70007F498031086AC007FCD500200862704770
:104C80007648F0B50178FF23C933764A59438D1829
:104C90002F1CFF37C137B988002485B0002972D096
:104CA000391C40393B684A6A0026934205D9981A54
:104CB0000862486A88624D6212E08A624D624078FA
:104CC0006A4B3A68183B8000C0184038C06B82427B
:104CD00006D9101A0863486B8A6B88634A6346E0FA
:104CE000CE6244E014206043401961014919FF304D
:104CF000013002910668002E38D0311C48390091ED
:104D00000021B01D05F079FC019000282ED0B0786C
:104D1000F37800991B0218430007800F4431039079
:104D20000020049111F056FE039802281ED1B0789D
:104D3000F3781B0218430006000F042816D1012047
:104D4000049911F047FE0199A031488B420507D51F
:104D500000050BD50299086840084000086005E08E
:104D60000122920210435200104348830134B88854
:104D7000A042B7D8FF353E48A135056335203C49F0
:104D80000002403100E010E0086039498031086AD3
:104D9000C007FCD500200862384A0121D162384A98
:104DA000B9881368C9181160B88005B0F0BD2B4AE6
:104DB00010B511692D4C01311161C3788178183417
:104DC0001B021943C907C91701312160403012F095
:104DD0002DFA0422211C02F0CCFE10BD1F490869E7
:104DE000002805D00020086101202449C003C862C2
:104DF0007047F8B5171C0E1C1D1C041C043012F063
:104E000015FA8178C3781B0219430807800F04D173
:104E10000A06120F0D2A00D00126042E05D80228FA
:104E20003CD10806000F082838D1002D02D0B82048
:104E300043590093201C2030002D25D0A9688904F7
:104E4000490F042920D0437800780E491B021843EB
:104E50000007000F095C1DE0001800C05105C925BE
:104E600001000000684B0000000200000713AB695E
:104E700054190004A05200C0284F00C0981000C070
:104E8000085400C000E800807C2700C00035840082
:104E9000000C0080C81000C01000000443780078A7
:104EA0001B0218430107090F3A1C201C0AF005FBDE
:104EB0003A1C311C201C009B0BF091FBF8BD10B577
:104EC000012801D0022802D10EF031F901E00EF0E4
:104ED00021F9F74C2078002808D00EF0AEFB21789D
:104EE000012901D1F34908600020207010BD028023
:104EF00000228270202289011143C17043607047F3
:104F0000FFB50F1C141C043089B0089012F098F9FA
:104F1000E949051C497B890606D58178C3781B02BF
:104F200019430907890F6CD0002C6AD0211CA031CD
:104F30000791098BE14A0905490F1170082904D22C
:104F400002A35B185B5A5B009F447EE00800FD00F3
:104F5000160116012800160128002800261C4036DC
:104F6000308B810771D5C004800E211C03F081FABB
:104F7000002846D00220FFF7A2FF089812F060F93F
:104F800043780078318B1B021843CA0408380004A8
:104F9000920E000C4904CB0F0092E4E08079C60722
:104FA0003806000E0690201C271C80375030F60F64
:104FB000002E02D1817A022902D0C17A02294BD176
:104FC000211C301C03F072FA0590002819D0BA4851
:104FD000143812F035F9C00724D5002E12D0F86B22
:104FE0000430018801310180F86B8188002902D1E9
:104FF000016801310160F86BB0342179828803685F
:105000000CE0A0E00799088801300204120C0A8025
:1050100002D1F8690130F861FB690021281C2030B9
:10502000FFF765FF089812F00BF9437800780C9AA7
:105030001B0218431038040406980121240C2B1C71
:10504000283301910292009000E095E0211C281C79
:10505000059A0DF0BBFE8FE0002E02D1807A012868
:1050600003D0002E62D0012960D102201BED466AD8
:1050700001000000644D0000000200001EEB7519E5
:10508000FFF727FF002E07D0089812F0E3F80C3046
:10509000012105F0C6FA041C221C0121301C03F07A
:1050A0002FFA002859D0002E13D0B420015D012022
:1050B00003900698049101210291019029786B7860
:1050C0001B02194314390091BC20005983880268DF
:1050D00010E00120039006980021049102910190B4
:1050E00029786B78A0201B02194314390091035BC7
:1050F0009C200259291C2031281C0EF0E7F90220BF
:105100007049002E08700ED0211C8031C86B04300D
:10511000028801320280C86B8188002936D101687B
:105120000131016032E0201CA03001880131090406
:10513000090C01802AD18034E0690130E06125E06A
:10514000002E23D0002921D10220FFF7C2FE211C0E
:10515000002003F07CF9002802D100200DB0F0BD42
:10516000089812F077F8437800781B021843083843
:105170000004000C00220092FB7A291C2431021C3E
:10518000081F0EF0D4F84F49022008700120E5E70F
:10519000FFB51F1C051C0024002881B00CD0FBF7B4
:1051A000B4FE061C3B1C281C0299039AFFF7B2FEB2
:1051B000041C301CFBF7AEFE201C05B0F0BDB0B5E2
:1051C000051C043012F046F88178C3782C1C2C346E
:1051D0001B0219430907890F02293E4A05D180792C
:1051E000C00702D5211C101C01E0211C101D11F06C
:1051F00005FC39480178002906D0384B196801228E
:105200001143196000210170201C12F023F80130B5
:105210004378017860221B021943914301700B0A05
:105220004370281C1C30041C12F014F801210903DF
:105230008843211C11F0E2FBB0BD2949086070478A
:10524000274800687047F0B5B3B000200C901F48A5
:10525000002310383290363831901C480893D030F3
:105260003090D0382F9058382E9008302D90043838
:105270002C9026302B901238144D2A90D51E77C8CA
:1052800001000000604F000000020000EA03CBA410
:105290005C3D012203201849FBF790FE041C04F03A
:1052A0002CFC002801D000F0F5FE201C01F0B8F81D
:1052B0002D980B4EC37B807B603E1B021843C007BA
:1052C000E7D5707DB37D1B0218438006E1D50B49FD
:1052D00001200876062113E02D78010030780100C6
:1052E0007418000404000004404D00C0B52600C03E
:1052F00094A10080204F00C0FFFF0000A05200C01A
:10530000F748417000210791002700240B94FFF714
:10531000A1FF00281BD004F0BCFD002870D0FFF7CF
:1053200076FB002813D1EF4E319811F09DFF844693
:105330003298002381790091B27DF07D61460EF0B4
:105340003AFBB07DFCF745FCE74800230360079873
:1053500000282ED10C98012809D100F09BFEE049CD
:10536000012208785040087000200C900FE000F0F7
:1053700091FEFFF7D1FB021C71D0FFF787FCFF20E5
:105380000130824201D300F085FEFFF78FFCD44943
:10539000FF230878C933D449584308314018049092
:1053A00000200B9004980023FF30C13008938188BF
:1053B00000E0CE490020069004980591FF30C130EE
:1053C000299086E30798002600286CD106981423BC
:1053D000049958434018FF30013000680E90069839
:1053E00040014718C248007800280ED078790F9005
:1053F000F8884006800F04D000211F20C15508E026
:10540000F2E304201F21C85503E00020F8800120AA
:105410000F900E9C4821483C201C11F071F9211D71
:105420000E9811F0F5FA2890B86900210090309894
:105430000191007B002836D02898C37880781B0221
:1054400018430007800F02282DD1AAA00CC800A97C
:1054500003C910F045FF26D003A902A800E0C4E369
:105460000BF088FD00A903C9211C103111F0D0FAFE
:1054700000A903C9039A002310F032FF04D9211CAC
:1054800002981431013802E0211C02986FF1B867CC
:10549000010000005C5100000002000094186C1430
:1054A000143111F0BFFAE378A07801211B021843F0
:1054B000C9030843A070030AE37095488068403030
:1054C000807B013020700F9804280AD8201D11F02D
:1054D000D5FE062109588A4A914202D14089FF2807
:1054E00001D0F88800E0002020840F98052802D021
:1054F0000F98062803D10F98864980000E581F2068
:10550000C05D400703D500213220015502E0012291
:10551000322002550F9805280AD2201D11F0AEFE48
:10552000C37880781B0218430007800F022807D138
:10553000201D279011F0A2FE26908079C00772D519
:10554000201CFFF750FE201D259011F097FE81785A
:10555000C3781B0219430A07920F65D10906090F88
:10556000052961D16C4902900968002905D1011C07
:10557000123100200BF036F803902F98407B800703
:105580001CD465490868002803D002992031002006
:1055900009E0259811F072FE011C123100200BF079
:1055A00021F80299203105F045FC0190259811F071
:1055B00065FE019901700B0A437012E0259811F005
:1055C0005DFE017843781B0219430C390191011CDF
:1055D000123100200BF006F80299019A2C3107F0E5
:1055E000CCF802224D4822708069211C039A1031A8
:1055F0008002504311F016FA211C1431002011F0E2
:1056000011FA201C1C30249011F038FE01214906AB
:105610000843249911F006FAA078E37801211B02CF
:105620001843C90301E005E05CE20843A070030AE7
:10563000E37057E22E9811F021FE012858D1281C62
:1056400011F01CFE211C2C31239111F0EBF90021EB
:105650000391B869012803D0022801D0082871D12C
:10566000002000AB1872387902A9FCF7FCF9281C5D
:1056700011F004FE0399FF22890022912191411823
:105680004B780878F9321B021843904300AB1A7A22
:105690009206D20D10430870030A4B70601E2A7FD9
:1056A00001000000585300000002000060F0D2A981
:1056B0002090281C11F0ECFD2199411820984008F9
:1056C00040000870030A4B701F90281C11F0E0FD89
:1056D0002199042241181F9890430870030A4B70C7
:1056E00000AB197A00200EF095F98207920F019213
:1056F000281C11F0CDFD21994018417883781B02B8
:10570000194317E08FE10000541900041418000435
:10571000204F00C0FFFF00002C78010000000000B7
:105720000000000098E6010094770100785004C062
:1057300000A6008018229143019AD20011434170C3
:105740000B0A837000AB197A00200EF063F9400752
:10575000C20F0192281C00E051E011F099FD22993E
:10576000102240188178C3781B0219439143019A93
:10577000D207D20E114381700B0AC370281C11F09E
:1057800087FD229960224018837841781B021943D3
:10579000914341700B0A8370B869012804D100ABB2
:1057A000187A012808D003E000AB187A042803D047
:1057B00000AB187AFF301872039901310906090EFF
:1057C0000391042900D25CE7B86901280BD1281C99
:1057D00011F05EFD017B437BFF22F9321B0219436E
:1057E00091430831C7E0281C11F052FD017B437B37
:1057F000FF22F9321B02194391432831BBE00428F0
:1058000071D13A79002E029211D1269806300021EA
:1058100004F025FF061C0AD12A98C37A807A1B025D
:1058200018434107C90F8007C00F01910EE0B0680F
:105830000003800E04F0FCFF0106090E0191B06820
:105840000003800E05F00BF80006000E0199C0075A
:10585000C9074A0F1E92820F1D92281C11F018FDD5
:105860000399012289001C911B9141184B780878FB
:105870001B02184310430870030A4B701A90281C2F
:1058800011F006FD1B99022241181A9890431D9AA7
:1058900010430870030A4B701990281C11F0F8FC93
:1058A0001B99FF2241181998F9329043294FDF06BE
:1058B00001000000545500000002000079080CD9D6
:1058C000029A9206D20D10430870030A4B7018908A
:1058D000281C11F0E7FC1B990422411818989043EA
:1058E0001E9A10430870030A4B70029901200EF0B3
:1058F0009BF88207920F009200E049E0281C11F00B
:10590000D1FC1B9918224018417883781B02194357
:105910009143009AD200114341700B0A837002999F
:1059200001200EF081F84007C00F0090281C11F0F4
:10593000B9FC1C99102240188178C3781B021943C6
:105940009143009AD207D20E114381700B0AC370A3
:10595000029A002A07D0029A202A04D0029AFF3223
:105960001206120E0292039901310906090E0391E3
:10597000042900D27BE7281C11F094FC017B437BB7
:10598000FF221B021943F932914301730B0A43733F
:105990002C9811F087FC002813D0B889E849884278
:1059A0000FD92D9811F07EFC1790281C11F07AFC6D
:1059B000037CC07B17991B0218430007000F081ACD
:1059C00002E02D9811F06EFC01302070201C1C307C
:1059D000169011F067FC012109038843169911F014
:1059E00035F8D8490868012210430860239811F05F
:1059F00059FC011C201C0322283010F0F1FE0F98E6
:105A0000042808D2281C11F04DFC011C381C03226C
:105A10001C3010F0E5FE279811F044FCC1780379A2
:105A20001B021943890771D4C749096800296DD140
:105A30000C3004F01EFE061C68E026980379C0783E
:105A40001B021843800706D4BF490868002802D10A
:105A500026980C3003E0002E1BD12698063000213A
:105A600004F007FE061C14D1201C30300021817187
:105A7000017843781B0219430C2906D83B21017099
:105A80000B0A4370201C02F032FE386801221043DA
:105A900011E1B068F2210003800EAC4A414389183D
:105AA000E031097A002907D1211C20314B7809788F
:105AB0001B021943090602D508F0E0FB3D2792744A
:105AC0000100000050570000000200008DE0B264A9
:105AD0000FE0201C1C30159011F0EEFB0121490352
