:100000000000000F0000000000013404941540209F
:10001000651A0100D51A0100FD1A01004BF300001A
:10002000ABF3000043F30000FFFFFFFFFFFFFFFF04
:10003000FFFFFFFFFFFFFFFF47320100211B010011
:10004000FFFFFFFF5D140100FFFFFFFFF9F300005A
:1000500075320100ADF30000ADF30000ADF3000018
:10006000ADF30000ADF30000ADF30000ADF3000010
:10007000ADF30000000000000000000000000000E0
:100080000000000000000000000000000000000070
:100090000000000000000000000000000000000060
:1000A00000000000000000000000000010B5044641
:1000B000207808F1F7FC894A617802F830100120B5
:1000C00010BD10B50446207807F172FD007830F0BD
:1000D000040012D1207808F1E5FC8049891E01EB6B
:1000E000C00061780170017809B1A17841710121E6
:1000F0000171417909B900210171012010BD10B5CC
:100100000069ADF1200D00F1100401A9143007F0D1
:10011000C1FE0022032001A9134607F0BFFE68B10B
:1001200001A86946032207F0F1FE20689DF802103D
:1001300000F0FF00884218BF002000D1012008B065
:1001400010BD0169097D21F00301502918BF8029E4
:1001500001D1FFF7D4BF012070474A1150F8222087
:1001600001F01F010120884010407047A24B024659
:1001700010B5B42000FB013191F88C30002001E073
:10018000401CC0B28342D8BFFF2004DD0C1894F895
:1001900040409442F4D110BD4A1110B59300C458A8
:1001A00001F01F0101228A402243C25010BD70B5E8
:1001B0000D46164604461146FFF7D8FF8E4A014603
:1001C000B420FF2900FB062210461CBF0A4482F817
:1001D000505012D190F88C10411881F8404090F89E
:1001E0008C10411881F8505090F88C10491C80F800
:1001F0008C1021469030FFF7CFFF70BD2DE9F04FF6
:100200008346BBF1FF0F04D008F14CFC814601206E
:1002100002E04FF000090220774AB42100244FF099
:10022000FF0A804601FB09273D4685F8844007F117
:10023000900185F88540082085F88C40401E41F8E3
:10024000044BFBD105F140005146102212F0CCFCCA
:1002500005F150005146102212F0C6FC50467F2195
:100260004A46FFF7A4FF05F165060620401E06F882
:1002700006ABFBD109F10100B8F1010885F8B040E7
:1002800007F1B4075FFA80F9CED1BBF1050F04DAAC
:1002900005F18601584613F0A9F8BDE8F08F00B5C6
:1002A00008F100FC8B490122C91C01F8302000BD77
:1002B00010B5044607F17CFC007830F004000BD147
:1002C000204608F1EFFB834901EBC0014878002884
:1002D0000CBF02200020C87010BDC046EECA4020EE
:1002E000F0B57D4C064668223146204612F058FA99
:1002F0006078351D102806DC307807F159FC00784D
:1003000030F0040001D00E20F0BD3078FFF776FF0A
:10031000307808F1C7FB38496D1E00278446B420A9
:1003200000FB0C1637E06D1C15F8010BDD280BD017
:10033000297801292AD0032908BF9F2127D0022923
:100340000CBF8F21FF2122E096F88510480000EBBA
:100350008100691C0A6830186030026089888180D9
:100360002978401D012908D0032908BF9F2105D005
:1003700002290CBF8F21FF2100E07F21017096F838
:100380008500AD1D401C86F88500DD207F2162467A
:10039000FFF70DFF7F1C6078B842C4D80120F0BD84
:1003A00010B508F17FFB4B4C04EBC00401206070DA
:1003B0004948FFF795FFE078022804BF0020E0706D
:1003C00010BD10B50C46FFF7D1FEFF2808BFFF2077
:1003D00004D0B42101FB04009549085C10BD00B5B0
:1003E00008F160FB3B4901EBC00000214170C1787E
:1003F00009B90221C17000BD388A40202DE9F041C1
:100400008846A8490A788A49B423ADF5807D103121
:1004100003FB02154FF48072694607F077FD854FA4
:10042000FF26002402E0641CAD1DE4B2386890F899
:100430008500A04209DD28466946052212F032FFF8
:100440000028F0D16E7988F80040304640B0BDE811
:10045000F081F0B544784FF48072ADF5807D694647
:1004600007F054FDDFF864C2A41C00206946A2080E
:10047000064618D01546091F11F8043F1F024B7895
:100480005CF826603B431F028B783B431F02CB780E
:100490006D1E43EA070386EA030686EA000006F0BB
:1004A0000F06E9D1091DB4EB820210D0D30000255C
:1004B000083B11F8014B521E04FA03F4A3F10803A0
:1004C00044EA0505F5D15CF826106940484040B083
:1004D000F0BDC046ECCA402080B240202DE9F04F6C
:1004E00000698B46ADF12C0D03A9143007F0D2FC46
:1004F0006C484FF000080125C246B422744B4D4CA5
:1005000001780A9502FB013121605FE00025282A6D
:1005100004D103A801A9082207F0F8FCBBF1000FE1
:1005200054D09DF80C90B9F1DD0F0DD05D480378E3
:10053000206849469030FFF710FE002846D0194643
:100540004846FFF73EFF03E003A86946FFF756FF62
:100550000646FF2E3AD02068310A32D203A8FFF7B0
:1005600078FF074620687F2E05D0B1004258BA4276
:100570002CD0475028E04B4926680978B9F1DD0FA7
:100580000BD19DF80020510001EB82012268521826
:1005900096F8841082F8651009E04846FFF7E6FDFA
:1005A0002168401896F8841080F85010206896F85A
:1005B000841040F8217096F88400401C86F884006E
:1005C00002E00A9980F8B010DDF8288003A807F04F
:1005D000BBFBA8B19DF80D0018B99DF80C2012B115
:1005E0000BE09DF80C205046411C24285FFA81FA4C
:1005F00003DC002A8BD1002D88D1BAF1260FE5DB70
:100600002068BBF1000F0FD090F8B010022904D180
:100610000021DDF8288080F8B01090F8B010012992
:1006200004BF022180F8B01040460BB0BDE8F08F47
:10063000888A402008CB402070B505462969087D8E
:100640000C1D20F00300802816D1086910F07F4FA0
:1006500012D0204A000E94210C2801FB002134BF47
:1006600091F87460FF26304607F1A2FA1A49086033
:10067000007830F0040001D0012070BD304608F150
:1006800011FA08490870164901EBC00013490860C7
:100690000178012681B12168C90D14D3C07858B9F9
:1006A00002E0C04600CB402028463146FFF716FF47
:1006B000012818BF002606E02068C00D03D3284695
:1006C0000021FFF70BFF304670BDC046A0BE4020A2
:1006D000388A4020FC604020FCCA402004CB4020E7
:1006E000ECCA402008210170002141707047D021E0
:1006F000017003210176022141760021417070478B
:10070000C0210170002141707047C4210170002197
:1007100041707047D021017003210176002141769C
:1007200041707047A02101700021417070472DE990
:10073000F0474FF0000A074688465546C7F800A024
:10074000F1B12E464FF080494446B4F5867FC8BFCC
:100750004FF486742021201D1AF189F965192D1D89
:10076000002808BF55460BD0B8F58678D8BFC0F82A
:10077000009006B93E463060B8F1000F0646E3DC53
:100780002846BDE8F087052800B500DB01BE07F16B
:100790000FFA07F1E0FD0CF09DFF10F00F0F14BFF2
:1007A0000020042000BD10B50C468E4909780129AF
:1007B00008BF6FF0404012D078B920461CF1CFFC42
:1007C00041420840B0FA80F11F29C1F11F0006D153
:1007D000607808F10BF8082010BD4142084010BDB8
:1007E00000B507F1E5F907F1B6FD0CF073FFB0FABB
:1007F00080F0C0F11F00C0B200BD7EB516460446B1
:100800001D460AB202A8231D1946009001AB2046DE
:100810000EF0A0FA00208DF80000ADF80250019A09
:100820000123314620460EF0BBFA28467EBD7EB538
:1008300006460C461D4602A812B2211D01AB0090CF
:1008400020460EF087FA01208DF80000ADF8025026
:1008500001990023324620460EF0A2FA28467EBDBA
:100860002DE9F04F00289B4615460F46ADF5FE7D5D
:10087000ADF1040D32D0017E00F1180401B101BECA
:100880006178B7F9002088460646A0F1040961188E
:10089000891C531AC318891B1FFA83FA1FFA81FC9B
:1008A0004846521A93B261466A46FFF7A6FF657042
:1008B00025B1A01C59462A4611F072FF6078241811
:1008C00049465346A41C6846A41BA2B2FFF7AFFFDB
:1008D000B7F90000A0EB08002D183D807FB001B0F3
:1008E000BDE8F08F30B504460D46104607F17EFF97
:1008F00058B1017831F0040107D190F82A2000F1B5
:100900002B0329462046FFF7ABFF30BD70B50C46E0
:10091000ADF1300D1546039005A9ADF8104003A8C0
:1009200007F0B4FA0022DD2005A9134607F0B6FA55
:1009300020B30998201A86B208986A4609233146DE
:10094000FFF75BFF9DF802000028EBD19DF8030044
:100950005028E7D19DF80400F228E3D19DF8050066
:100960000828DFD19DF806000028DBD108998DF812
:100970000750684632460923FFF759FF0CB070BD97
:1009800010B5ADF1240D00901446ADF80410684682
:1009900002A907F07BFA0022032002A9134607F000
:1009A0007DFA08B10398847009B010BD2DE9F041BB
:1009B00015460F4606464FF000080EE02C46B4F5EB
:1009C000867FC8BF4FF48674381D311D224611F052
:1009D000E7FE36683F68A0442D1B002DEEDC404644
:1009E000BDE8F08160B840202DE9F04306467088EC
:1009F00000283ED03078FF2800F0A9807178554A51
:100A0000002408462746A1460A2811DC09281BDADB
:100A1000002800F09C80801E022815D9C01E0128E5
:100A200040F29580801E21D0401E00F0908020E092
:100A30000B3800F08C80801E022805D9C01E00F003
:100A40008680801E022814D81046455C0F2904D0E9
:100A50000D2916D101F05AFE13E0317801201FF163
:100A600082F8708846280CDD01BE0AE0307904283F
:100A700002DB0E20BDE8F08373781146C95C401894
:100A8000C5B27388202D26DD292D0ADB302D22DD0D
:100A9000352D20DA3179904C880000EBC100241804
:100AA00018E0213D072D16D8DFE805F013110F0DD2
:100AB0000A080604894C0DE0894C0BE0894F00E0E0
:100AC000894FB94607E0894C04E0894C02E0894C23
:100AD00000E0894CA146D9F80000800A13D399F8A8
:100AE0000000012805D0B87C401CC5B205F0010506
:100AF00000E0BD7CB7F9100007EB450107EB85046A
:100B000001F10C0803E0B4F90A0004F10808616877
:100B10008342A1F1040100DD01BE06F110000022B4
:100B2000FFF785FE7088A8F80000022089F8000011
:100B3000072010F08CFBD9F80010890A28BFBD747B
:100B400010F08DFB7078317899F8002004DF0120D7
:100B5000BDE8F083ECA640202DE9FC4F00260146BD
:100B6000B44616601029A3F800C074DD1B2967DBAA
:100B7000202970DD292910DB30296CDD35296ADA5E
:100B80005E4C880000EBC100011911F8085C022DD1
:100B900061D151F8046C205A5BE0564C5348544FD5
:100BA00094F800E04E4DCDF804E090F8009097F8EE
:100BB00000A0DFF844E195F800809EF800B02139EC
:100BC0000729CDF800B046D8DFE801F0322B262106
:100BD000130E0904414D287802283CD102E0B8F1F7
:100BE000020F38D1284615E03E480178022932D15B
:100BF00003E03D48017802292DD1817C00EB810181
:100C00004E681660817C00EB4100808922E0B9F1DA
:100C1000020F20D1074602E0BAF1020F1BD13C4679
:100C200002E00198022816D166681660208911E05A
:100C3000009802280FD1704646681660008909E0C6
:100C4000880000EBC1002E49081850F8C86C30F835
:100C5000C40C166018802EB1B3F90000002818BF2C
:100C6000012001D101BE6046BDE8FC8F30B50D46C4
:100C7000244901EBC000046804B901BE8188204604
:100C800015F142F92570204630BD10B50024E0B2C0
:100C90000AF15EF9641C082CF9DB10BDFCB51A489A
:100CA000184D03C84FF0804600246F468DE80300BE
:100CB000A88820213422001D80B219F12DFC011DCD
:100CC00045F8081B17F8011B0660E0B2FFF7CEFFDE
:100CD000641C082CECD3FCBDA8C5402074A74020A0
:100CE00080A7402024A7402010A740205CA74020D8
:100CF00068A7402044A7402050A7402064C340205C
:100D00008CAE4020E0BE40204021402030B50C4653
:100D1000054605F031FD2846214617F189FB284696
:100D200021461DF1D7FF30BD30B50546012A4FF0F1
:100D3000000008BF012004462146284605F034FD86
:100D40002878042803D12846214615F17EF830BDC5
:100D500010B5044694F841001CF1F1F928B9A08EB1
:100D600020F4F86040F4687004E0A08E20F4FC6089
:100D700040F44070A08610BD042830B521D108464B
:100D800008F097F8054695F8410006F111FF044672
:100D900095F8410007F186FE864DA47A002105EB07
:100DA0000010C175072010F052FA95F8302001218B
:100DB000A140114385F8301010F051FA102012F0C4
:100DC00003F930BD30B5C8B206F1F2FE0446A07A90
:100DD00007F168FE054605F06AFD10B1284605F0EA
:100DE00060FD284605F063FD18B1284605F059FD61
:100DF000C0B17048290100251A3045542046012110
:100E000000F011F8204605F03DFCA17A042004F121
:100E1000F0FBA07A294606F179FD014611B128467A
:100E200006F1B6F830BD2DE9FC4F0446A07A0D4618
:100E300007F138FE4FF001096FF4700B03214FEA00
:100E4000001A8DF80010DFF86C818DF803500AEB62
:100E50000800A17A019000278DF802100AEB08041F
:100E60001434B81D4546C6B20AEB07002818007DA9
:100E700021688DF8010009FA07F000EA114212F02A
:100E80000F0F22D000EA115010F00F0F1DD0019863
:100E9000807E05EBC70540B12879B0B9072010F076
:100EA000D6F9B61F09FA06F105E0072010F0CFF9D0
:100EB000B61F4946B14022686BEA015111402160DA
:100EC00010F0CDF92968684688477F1C022FC8D3E7
:100ED000BDE8FC8FF0B5012A0E460546ADF11C0DAC
:100EE0000DD0002B37D0A97A022004F182FB2846CE
:100EF0000022FFF719FFA87A06F122FB2BE0E3B1ED
:100F000005F0C5FC2B4C07460122284604EB0614CD
:100F1000A276FFF709FF039705208DF81800072038
:100F20000090A87A019000200290AB48032204F1BF
:100F300010010590684606F14FF828460121FFF799
:100F400072FFA64800EB0610017821B9012101705B
:100F50002846FFF7DBFE07B0F0BD3EB5807A0D46B0
:100F600006F1A7FE9D4C0146641F04EB0514207892
:100F700068B9012020709A48002507220095994BF6
:100F80000190122002950BF06AFA00B925703EBD5F
:100F90002DE9FE4F072010F05AF9064C4FF00009DA
:100FA00094F8307084F8309010F059F9002F6FD019
:100FB00002E0C04608C4402078423840B0FA80F0D1
:100FC000C0F11F00C5B20120A8408743284606F1A2
:100FD000EFFD06460296284607F164FD82467078CA
:100FE00001283FD14FEA0A100619001941694D4600
:100FF00011F4702F02D0C07E00B101250298D0F804
:10100000140100F001000090954896F819800068DE
:10101000000902D210F03CF90190914896F818B0FE
:10102000006886F81890000902D2019810F054F96F
:101030003DB9307F28B1029886F81C904946FFF7E9
:1010400065FEA84509D10098A84206D102984246FB
:101050005B465146FFF73EFF18E002985146FFF706
:101060007CFF13E030464946FFF7DDFE4FEA0A15E4
:1010700028190169072005F18BFF30464946FFF723
:1010800045FE28191021103014F13EFF002F93D196
:10109000BDE8FE8F2DE9F04391460D46064606F168
:1010A00087FD304607F1FEFC0446072010F0CFF81C
:1010B0002701904C84463B19143318684FF00108FF
:1010C000AA1F08FA02F101F00F0E143701F00F0108
:1010D000D21940EA0E5040EA01401860604604F818
:1010E000029010F0BCF8062D02D1304602F009FD46
:1010F000072010F0ACF8303422784146B14011435B
:10110000217010F0ACF8102011F05EFFBDE8F08304
:1011100030B5407807F16AFB847A204607F1C2FCBB
:10112000744D05EB0010007E70B1072010F08FF8B1
:1011300095F830200121A140114385F8301010F0BE
:101140008EF8102011F040FF30BD30B50446A07A73
:1011500007F1A8FC674DA47A002105EB0010C176C9
:10116000072010F074F895F830200121A1401143B8
:1011700085F8301010F073F8102011F025FF30BD05
:10118000F0B50546A87A144607F18CFC2169496838
:10119000584A49790401A018A41804F119073A78AB
:1011A000C1F300166AB948090ED3FF200EF0F3FC14
:1011B000012020762878042806D1284614F108FE5C
:1011C00002E00EB901210176D5F814013E7066F3F4
:1011D0000000C5F81401F0BDB90D000024C4402082
:1011E0006D0D0000450D000070B50C4607F1FEFACC
:1011F0000646B07A07F156FC3E4D032C0CD0022C6B
:101200001ED1B47A072010F022F830352A78012157
:10121000A140114329700EE005EB00100124B67ABD
:10122000C476072010F013F895F830202146B1401D
:10123000114385F8301010F012F8102011F0C4FEA0
:1012400070BD10B50446A07A07F12CFC2A490001B4
:101250000958072005F19CFEA17AFFF7B3FD10BDE8
:1012600000E300E02DE9F0410D46064606F1A0FC42
:10127000304607F117FC804607200FF0E8FF1F4FAC
:1012800001248446A81F04FA00F207EB0810436902
:101290006FF4700161EA0251120482F47022194065
:1012A0006FF4702313430B40436160460FF0D7FF88
:1012B000062D02D1304602F044FD07200FF0C7FF93
:1012C00030373978B4400C433C700FF0C8FF102021
:1012D00011F07AFEBDE8F0810849143101EB0011EC
:1012E0000A68002012F4702F02D0C97901B10120E0
:1012F0007047C04608C4402018C4402008C440209D
:101300002DE9F04307465948007828B1584800783D
:10131000C00838BF02204CD3564EBC687069D6F85E
:101320006490000D0DD39748016897480268914278
:1013300002D8C068814204D205204FF4002104F194
:1013400039FF3868F9697D68204330EA0104F8689C
:1013500045EA0005B8697F6925EA000528D0DFF86D
:101360002C8215B940460078F8B12046494605F16F
:101370002DF904463946284605F154F807464046FB
:10138000007850B18248007890B935B901F1D4FAAB
:1013900018B1306E10F0030F0AD0A74205DBA74248
:1013A00006DC97480078BDE8F0830020BDE8F083B4
:1013B0000120BDE8F0839249754A087840B1A14BFD
:1013C000186820F00300186000230B7010460370AB
:1013D00010460121401E01707047894A014613786A
:1013E000984823B921B9016841F0030103E029B10C
:1013F000016821F003010160012010709249012071
:101400000870704710B5FFF77BFF7D4C21780228EC
:1014100007D010B9FFF7CFFF10BD0020FFF7DDFFA9
:1014200010BD012904D041B90120FFF7D6FF04E027
:101430008449086820F0030008600220207010BD75
:1014400000210160416070479F49A04A0978B0FAC5
:1014500080F0C0F11F0029B9002111549C480522D9
:1014600011F0C2BB815C491C8154704765A84020C3
:101470000CC04020ECA9402044482DE9FE4F0078E4
:1014800000287CD001F162FA00280CBF0121042160
:10149000A148DFF888B210F801A09BF80F100629C8
:1014A000ACBF884610F80180A0490C78062CB8BF64
:1014B000045D9F480578002D61D09F4E4FF00109D3
:1014C000B5FA85F0C0F11F00C7B2052F09FA07F081
:1014D00025EA000551DA3946022004F01EFF0028F3
:1014E00034D13946042004F018FF002845D078484C
:1014F000C15D90480078884210DC304600680009E1
:1015000002D20FF0C5FE01902149484608703046CE
:101510000068000902D201980FF0DEFE9BF80E0071
:1015200000092AD3A24528DA444526DD3046006862
:10153000000902D20FF0ACFE02901549484608702F
:1015400030460068000918D2029814E09BF80E009B
:10155000000912D3A24510DA44450EDD30680009B7
:1015600002D20FF095FE0090094880F80090306894
:10157000000902D200980FF0AFFE002DA0D1BDE807
:10158000FE8FC0464454818044A84020A5CB402013
:1015900063A840209D492DE9F04706460A68B368D4
:1015A0003068DFF8A490DFF82081496882EA0305FB
:1015B00005EA030781EA000417F0030F04EA000AB2
:1015C00005EA020504EA01040ED00D490A7897499C
:1015D00010F0030F0A704FF000014A46117004BF6B
:1015E00040460170FFF748FF4A46117815F00303A3
:1015F00008D114F0030F11D004F003000CE0C04632
:1016000084C54020326819B940460178491C0170F0
:1016100012F0030F02D11846FFF716FF4AEA07003F
:10162000400C04D305F110F9814A82E80300E80870
:1016300006D301F181F918B124490878401C0870DB
:10164000BDE8F087F02080807AC54020F0B53A4CA4
:1016500005462068000901D20FF01AFE92498A1C43
:10166000127832B92168090901D20FF035FE002045
:10167000F0BD4B789A0002EB43128A18121DC8CABB
:10168000C8C5C8CAC8C54CCA85E84C008A78521E6D
:101690008A704A78521C4A704A780A2A04BF00228B
:1016A0004A702168090901D20FF016FE0120F0BD31
:1016B00000B508B104F108FE7C48007810B17C49FF
:1016C0008020086000BDC0467BC5402080C540200A
:1016D0005CA8402030B5774C217881421AD0207028
:1016E00005200FF0B4FD05467048001F017971B167
:1016F000217839B190F82C00C00808D20120FFF7FA
:101700006CFE04E0FFF757FE0120FFF7D1FF2846EB
:101710000FF0A5FD30BDC046980C100094CB4020C2
:1017200065490978002001B101207047C4BA402002
:1017300066A84020FDBF402000E300E05C4800B503
:101740008021ADF1200D80300160684604F1F4FD88
:101750005A4903985A4A086002991160534929313D
:101760000978012906D054490978012902D1019943
:10177000084322D101F1F6F878B1524955480A6878
:101780000068824207D2504B821A934205D84F4BD1
:1017900040221A8000E0002008606846FFF7FAFE49
:1017A0006846FFF72FFE4A49039808600198486091
:1017B0000298164908600098486008B000BD464984
:1017C00000B54FF00070ADF1240D086006E09DF803
:1017D0002100082802D10C2011F0F6FB6846FFF723
:1017E00035FF0028F3D109B000BD30B52E4C0020E4
:1017F000207060700A25A070241D2046242114F159
:1018000083FB24346D1EF8D130BDC04688C540200E
:1018100000B50020FFF7E1FDFFF7E7FF2F48FFF7D6
:101820000FFE2B48FFF70CFE00BDC0467CC54020D4
:1018300048A84020F0B52A4C05462068000901D28E
:101840000FF026FD18498A780A2A25DA05222A7718
:101850000B788A78521C8A709A0002EB4312C8CD2A
:101860008A18121DC8C2C8CDC8C268CD82E86800F7
:101870000A78521C0A700A780A2A04BF00220A70E9
:101880002168090901D20FF027FD13484FF00071BC
:10189000083001600120F0BD2168090901D20FF074
:1018A0001BFD0020F0BDC046CC884020E4BF402096
:1018B00000E200E065A8402084C54020A0C540208B
:1018C000A4C5402074C5402040420F000CE8A08011
:1018D00094C54020445481807050808088C5402049
:1018E00000E300E010B5044604F1AEFF844232BFCD
:1018F000001B001B401E10BD2DE9F043DFF8608285
:101900000024A1462646A8F1040757F8040F40B169
:101910004068C068FFF7E6FF814502D23546814640
:101920000124761C082EF0DB7CB1AE0058F80600CE
:1019300014F148FD9F494A5D087A801A0872002018
:1019400048F806004855784948552046BDE8F083D8
:101950000068764908600120704760B1401E08D0D9
:10196000C01E04D0801E012801D901BE704740204E
:10197000704701207047002070470068C0F3426044
:10198000FFF7EBBF0268406800230100184680188B
:1019900041EB03017047F0B54068051D00F11404E8
:1019A00000690E46ADF1300D10F07F4F66D0904AC1
:1019B000000E94210C2801FB002134BF91F87470B3
:1019C000FF27002030602078802818BF502855D18C
:1019D000A0690090E06987490190A86851F8042C3B
:1019E000029082422EBF08680868401E0390284675
:1019F00000F086FA01B202A80FF059FA384607F152
:101A0000A7F80A900AAA081C0B9002A904A80FF0D4
:101A1000BCF906A8694604AA0FF005FAE868000EAA
:101A200007F182F8042804D0E868000E07F17CF87A
:101A300020BB2078802821D1384608A911F0D6FC97
:101A400004F1100008A90FF066FCB8B10120306065
:101A50000AA906AA0AA80FF098F90AA8FFF792FFA8
:101A600003460A463846194606F18EFE38460521D9
:101A70000EF118FD012801D005F156FD0CB0F0BDA6
:101A8000F0B540680F4600F11405297900F1100601
:101A9000490800D20FB90020F0BDB0F92A40007DFE
:101AA00020F07300882818BF082002D1284611F0C2
:101AB000EDF907EB400707F158023368B2F900105F
:101AC0000020DB0A0BD24FF6FF768BB29E4206D087
:101AD000A14204D16B781B0928BF012009D2631AE7
:101AE0001BB2002B04DC4FF6FF7389B28B4200D18E
:101AF0001480F0BD10B50446082C09D0D08A10F02F
:101B00000F0F05D1164840F824100748035510BDA3
:101B1000084614F157FC27490A5D087A801A0872B2
:101B20000020085510BDC046C4B64020ECB6402089
:101B30002DE9F04104460A480D4600EB84006B682D
:101B4000D18AD0F800C08046664677681B6938693C
:101B500001F00F0103F4807303433B61002306E0AF
:101B6000A4B6402006467068438D03F00F0330682A
:101B70000028F7D10F4F581C884227D08B421BD129
:101B800068688688284614F11DFC10360121B6F5D8
:101B9000867F05D9A6F58676491CB6F5867FF9D8E5
:101BA00007F108021078401A1070385D401A385555
:101BB000BDE8F08198B64020604614F103FC284649
:101BC00014F100FC00204FF6FF7105E035605078FD
:101BD000C0080AD2002001463B5D3A7AD21A3A7216
:101BE0003855C8F80010A1490855BDE8F081C04635
:101BF000FC604020B04D81802DE9F84381469C4D2A
:101C0000D9F81470002101202A887C680091502A9C
:101C100004F1140604F104041CBF802A081C804649
:101C20000C200EF18BFBE06810F4702F44D1287A61
:101C300030F0040034D1AA7A3046214604F07CFE0C
:101C40006A7AAB7A304621461DF1A0FA288800F066
:101C50000C00082802D13079400836D3304621469E
:101C60000DF190F9B8F1000F2FD038466946FFF713
:101C700092FE009818B13046214605F197FE28885B
:101C8000802822D13046214600F000F929783846D4
:101C900014F124F83046214605F0BCF9BDE8F8837C
:101CA00074480078012810D16A7AAB7A3046214610
:101CB0001DF16CFABDE8F883B8F1000F05D0484675
:101CC00010F1F8FA304617F103FEBDE8F88330B59D
:101CD0001D460446D38AC88A1B11B3EB201F0CD1C2
:101CE00001F10A0002F10A010FF015FB28B15F486B
:101CF000005DA84208BF012000D0002030BD2DE9C2
:101D0000FF4F00900191084611F0C0F800244FF0F9
:101D10000109A046594D584FDFF864B1DFF84CA1D6
:101D200003900820029057F8046FFEB17068C068F5
:101D3000FFF7D8FDDBF80010814208D37168019AE3
:101D4000039BE0B21431FFF7C2FF68B113E03046E5
:101D500014F138FBC7F80080295D0AF80480287A5E
:101D600005F80480401A2872464600E00294641C7C
:101D7000082CD8D33F1D0098406880884946103011
:101D8000B0F5867F05D9A0F58670491CB0F5867F31
:101D9000F9D8287A081828727EB1285D0918019AA6
:101DA000295500992046FFF7C3FE38684FF6FF71AA
:101DB000814204BF46463E6006E002982954039BD8
:101DC000019A0099FFF796FE083502E0FFF794FDAF
:101DD00081462878182802DBB9F1000FF6D1304689
:101DE0000090BDE8FF8F01460A681E20C2F34262E0
:101DF000072A1CD0062A1AD0042A10D009790A39D9
:101E00000BD00A3907D0233903D0373908BF032054
:101E10007047022070470120704700207047097901
:101E2000102912DA0829A4BF1648405C70470A79C5
:101E30005210102A09DA14484968805C890B04D3CF
:101E4000082A00DA01BE0930C0B2704700B5034667
:101E500058694168091D0846FFF78FFD83F8230084
:101E60000846FFF7C0FF987100BDC046C4B64020C9
:101E7000B4CB4020B1B94020A0B6402098B6402055
:101E8000ECB64020DCB64020CCB6402070B50C4605
:101E90000646E068000E22D0A04A94210C2801FBDF
:101EA000002134BF91F87450FF25284606F1E2FD69
:101EB000042803D0284606F1DDFD80B9284606F146
:101EC000F1FD317821F00301802908D12168C90D85
:101ED00005D3704A4101A1EB80000021115470BD6F
:101EE0009B4908706D486C490860704700B506F161
:101EF000D9FD4101A1EB80006649C91D085C00BD08
:101F00000168674AC1F34261012912D9091F2ED124
:101F1000007908282BDB102829DA6249085C04289C
:101F200014BF04210721604B33F91000401A143804
:101F300019E000790A380BD00A3807D0233803D0CB
:101F4000373814D1032004E0022002E0012000E031
:101F5000002021B1554931F91000623803E054499D
:101F600031F91000C23801B211F5004F00DC104603
:101F7000704702684068002301001846801841EB52
:101F800003017047F0B50C28ADF1380D53D2942100
:101F9000484348490E5CFF2E4DD0304606F182FD85
:101FA0007F4C454D4101A1EB80002418D5F8340742
:101FB0000890D5F830070990304606F1C9FD049025
:101FC000081C099A059068680027091C521AD5F860
:101FD000A8300190121A0093002AB8BF5242022A78
:101FE00029DA296899423CBF401E0190207BA17BE1
:101FF0008DF82C000A98490621F0704120F06060AD
:1020000001430A910AA8FFF77BFF01B268460EF070
:102010004EFF02A8694604AA0EF0B7FE06A808A95A
:1020200002AA0EF000FF069D3D4328460028B8BFD7
:102030004042402801DD022019E0089820600998FC
:1020400004A906AA606004A80EF09FFE002DB8BF88
:102050006D42062D0ADB04A8FFF78BFF03460A46F4
:102060003046194606F190FB05F15EFA00200EB0ED
:10207000F0BD00B516F150FD93490868401C08609A
:1020800000BDA44A5170914910704FF08040086023
:102090007047C0464EC14020F4488180FE011400C4
:1020A0000080FFFFDCB64020A41D40208C1D402096
:1020B000741D402070614020AC4D81802DE9FF4FA0
:1020C000834ED6F8700C800020F07C4040F0004039
:1020D00000F1140900F10408D6F89C0C039009F1F2
:1020E0000A000BF1C6FD00280CBFFF2590F87550C3
:1020F0000A4894210C2D01FB050034BF90F8744070
:10210000FF24D6F8940C5FFA80FB3068C0F34207D6
:102110000F480078022804D002E0C046FC6040204E
:1021200001BEFF2C00F0C680204606F1A3FC042867
:1021300006D0FFE7204606F19DFC002840F0BA805B
:1021400099F8000020F00300802840F0B38001E0FF
:102150005DCD4020204606F1A5FC114C4101A1EBCC
:102160008001002064186074A748006890F931016C
:102170005946042FA0744FF6FF700BD00A3907D0D0
:102180000A3903D0233908BF06200CE002200AE0F8
:10219000012008E00B3905D0091F08BF0B2002E021
:1021A00044C14020072082464FF6FF70504500F0A2
:1021B000818084F80CB0F8B2FFF7CFFBA77360738F
:1021C000B9F816000011208390480078002871D0DB
:1021D00003985FFA90F78F4894210C2D01FB0500BE
:1021E00034BF90F87400FF2006F1EAFCB84261DDCC
:1021F000D6F8140C69460122A8F80000484605F0FC
:102200009DFE002856D0D6F88C0C9DF8011080B2A7
:10221000401A616988424CD19DF80410D8F800003A
:1022200061F3DF70C8F80000794801789DF8040078
:1022300040082BD2208900283CD1E07AA17A88423C
:1022400038DDE8B2FFF79EFE022833D09DF80A1071
:10225000D8F80000890720F0804021F000410143B8
:10226000C8F80010C80F25D2D6F8141CD6F88C0C6C
:102270002774401A80B282451CDC0126A07A66745D
:10228000401CA072FFF7F5FE304604E039B9E8B211
:10229000FFF778FE02202946FFF7F3FE0AE0E8B2D6
:1022A000FFF770FEA07A401CA072FFF7E2FE01204B
:1022B000F1E760610090BDE8FF8F57494FF400706F
:1022C0000860FFF7FBBEC0464C01100078508080CC
:1022D000384881802DE9F0410E4E7178ADF1280D1E
:1022E0000C294DD2942048434D490F5CFF2F47D015
:1022F000384606F1D7FB4B4C804601464801A0EB1F
:10230000810024183078012806D0022808BF022056
:1023100003E0C0465BCD40200120228B39460CF102
:1023200013FF01282CD1227C3846214605F15AFBA7
:10233000217B627B20463B4604F0C2FD374D288856
:10234000401C80B22880D8B194F912008DF81E008C
:1023500010F1220FDABF1F3840007E208DF81F00D9
:10236000099970783A46434660F31F6109918020CD
:102370008DF8000006A968461CF108FF002028809F
:102380000AB0BDE8F081274B10B50222194601F1D1
:102390001C0308310C88521E40EA04040C80F5D15D
:1023A00010BD204A10B5C3430221104600F11C02A3
:1023B00008300488491E03EA04040480F5D110BDE6
:1023C00010B50446207805F1F3FB007830F00400E6
:1023D00018BF0E2016D1207806F164FB4101A1EB55
:1023E0008001104840186178002904BF018941F03C
:1023F000010103D002894FF6FE7111400181A178DD
:10240000C172012010BDC046E4C7402076CA4020FA
:102410005ACD4020FC6040206C5080805ECD402032
:102420007061402044C140202DE9F041ADF13C0DE8
:10243000DDF854800D461F46164608A905F02AFD12
:1024400001242BE09DF820002A3815D0C01E11D0A1
:10245000103823D108A869461E2205F057FDBDF8A3
:102460000400214600F0030001281CBF03280021BE
:10247000297013E03C7011E088F8004008A8694614
:102480001E2205F043FD9DF80200002100F002022B
:1024900000F00100104318BF211C317008A805F09E
:1024A00053FC012807D19DF821000028CAD19DF8CE
:1024B00020000028C8D00FB0BDE8F0813CB50D4623
:1024C000984909780446262001AB6A46FEF744FB8A
:1024D0006846294605F0DAFC0022204629461346C4
:1024E00005F0DCFC002808BF00200DD09149B4F1B4
:1024F0002A0004D0133806D1091D182200E0032257
:10250000284605F003FD01203CBDF0B50021ADF1EA
:10251000240D8DF804100E468DF8056095498DF850
:10252000066009688DF807604A421140B1FA81F1EE
:10253000C1F11F01CFB2FF2F00F086800DF107011E
:1025400000910DF105020DF1060301A9FFF76CFFE3
:102550002D2002A9FFF7B2FF884D874C10B19DF8DE
:10256000061099B99DF80520A17D012A0ED1286891
:102570000129A06008BFA675607C002864D10121F4
:1025800038460A461AF1E5FB01205CE048B99DF89F
:102590000700617C28B92A682046826009B90121B8
:1025A00041759DF80600B0B99DF80710207E91B9DD
:1025B00029680128E1601ABF286860602676A07C3F
:1025C000002841D10121384632460B461AF19CFBC6
:1025D0000120E07538E09DF80400012803D19DF842
:1025E0000600012811D09DF8060070B19DF8050085
:1025F000012829D1607C002826D12868A17DA0600F
:1026000001294FF001001ED11CE028686060207D88
:10261000012808BF2675207C38B90121384632468A
:102620000B461AF171FB0120E0749DF80510607CE7
:10263000012909D140B92868A17DA06001294FF086
:10264000010000D1A675607509B0F0BD00B53D2050
:10265000ADF1240D02A9FFF731FFB8B1354A108959
:1026600000F00300032811D08A4901200870108966
:1026700040F001001081002000908DF804009DF8CA
:1026800009303D21921D02A805F086FB09B000BD6E
:1026900000B52A20ADF1240D02A9FFF70FFFA0B16C
:1026A0007C48244A0121401C0170911C087840F0AC
:1026B00002000870002000908DF804009DF8093099
:1026C000921C2A2102A805F067FB09B000BD10B5D5
:1026D0003D20ADF11C0D6946FFF7F0FEA0B1924917
:1026E0000888254C40F01000088001202349A07480
:1026F000086860600868A060207C08B9FFF7A6FF42
:10270000607C08B9FFF7C4FF07B010BD1A4900206C
:1027100008744874887448758875C8740875C875D5
:1027200008767047B1BD402041785A481038017092
:1027300001207047E8C2402000B52A20ADF1240DE9
:1027400002A9FFF7BBFE98B18D4A52480021931CA5
:10275000401C0170187800F0FD00187000918DF891
:1027600004109DF80930921C02A82A2105F014FBE0
:1027700009B000BDE4BC4020CCC24020445481805C
:1027800010B53D20ADF1240D02A9FFF797FEA8B1C9
:10279000654A40480021083A02F108031C8801708C
:1027A0004FF6FE702040188000918DF804109DF8BF
:1027B0000930921D02A83D2105F0EEFA09B010BDC6
:1027C000704900B50020ADF11C0D08703D20694630
:1027D000FFF774FE38B154490A884FF6EF70104085
:1027E0000880FFF7CDFF07B000BD10B5654C123C67
:1027F000607D012807D0A07D012808D10020A075A8
:10280000FFF79AFF03E000206075FFF741FFE07CCF
:10281000012807D0207D012808D100202075FFF76E
:10282000AFFF03E00020E074FFF710FFE07D012818
:1028300007D0207E012808D100202076FFF7C0FFB6
:1028400010BD0020E075FFF742FF10BD30B54D4CC4
:102850000546123C207CD8B14B4861680068401A9C
:10286000B0F5801F14D90021284601230A461AF129
:102870004BFA28461AF15AFC20B128461AF156FCA8
:10288000022805D12848008840093CBF0120207556
:1028900030BDC046DCC2402030B53A4C0546123C43
:1028A000607CADF11C0DD0B13748A1680068401ABA
:1028B000B0F5801F13D92846002101221AF149FAE8
:1028C00028461AF13CFC50B93D206946FFF7F6FD59
:1028D00018B115480088400901D20120A07507B041
:1028E00030BD28481238817C41B12749C268096847
:1028F000891AB1F5801F84BF0121017670472348F2
:1029000010B5006841420840B0FA80F0C0F11F00E5
:10291000C4B2FF2C07D02046FFF798FF2046FFF7F0
:10292000BBFFFFF7DEFF10BDF0C240207CB504699D
:102930001648006804F11005143440B1207820F0E6
:102940000300802803D10D480078012801D0012020
:102950007CBD0F4E717C01AB26206A46FEF7FCF869
:1029600031680A7C296801F0FF018A4203D110B165
:102970002046FFF7CAFD00207CBDC046CCC24020E7
:10298000E8C24020DEC2402044548180E4BC4020A4
:10299000A0BD402070B516460C46054603F154FF15
:1029A0009C4A2EB902EB8401B4310B68C01807E0D1
:1029B000E86902EB840140F48070B431E8610020E2
:1029C000A86010464A6A6A61896CE960A10001EB5F
:1029D00004114018A149827C0323284609F0E2F93A
:1029E00006206876E86920F03800E86170BD70B5AF
:1029F00005461120294609F0B7FA1120287602F081
:102A000094FE0124002124EA902422462846FFF760
:102A1000C1FF00F145F800F5FA6600F145F8401CE9
:102A20007043286168614CB141F288310818E86050
:102A3000E86920F0100040F00800E86170BD10B5B2
:102A400004461020214609F08FFA102002210022AE
:102A500020762046FFF79EFF00F11CF8E060206121
:102A600010BD70B504461120214609F07DFA1120F1
:102A7000207602F05AFE012121EA504632462046D5
:102A8000FFF788FF00F11CF800F5FA6500F10CF87B
:102A9000401C6843206160614EB141F288310818E2
:102AA000E060E06920F0100040F00800E06170BDD7
:102AB00010B504461020214609F056FA10200321D3
:102AC000002220762046FFF765FFFFF0FDFFE06063
:102AD000206110BD624909684E49C1F8380191F87A
:102AE0004001401C81F840010E2010F06DBA5C4995
:102AF00009684849C1F83C0191F84001401C81F83F
:102B000040010E2010F060BA70B5A74C054685EA6A
:102B1000010606EA0100044201D0FFF7DBFF06EAE6
:102B20000500044201D0FFF7E2FF70BD70B5072039
:102B300016460C460EF08BFB012E05D1494A136850
:102B40000121A14019431160324D022E06D1D5F862
:102B500034210121A1401143C5F834110EF07FFB4F
:102B600095F84201401C85F842010E2010F02CFA25
:102B700070BD10B504461220214609F0F5F9122067
:102B80000421002220762046FFF704FF072060760C
:102B9000FFF0F2FE00280CBF44F620604FF4FA501C
:102BA0002061606110BD10B504461420214609F073
:102BB000DBF914200521012220762046FFF7EAFEEA
:102BC000A648206110BD10B504461820214609F022
:102BD000CBF918200821002220762046FFF7DAFEE4
:102BE000FFF096FF00F5FA60206110BD10B50446B5
:102BF0001720214609F0B8F9172007210022207676
:102C00002046FFF7C7FEFFF065FF00F5FA60206180
:102C100010BDC0464C8E402010B50446FFF052FD5A
:102C200068B91620214609F09FF9162006210022D6
:102C300020762046FFF7AEFE41F270700CE01520C2
:102C4000214609F091F91520062100222076204620
:102C5000FFF7A0FE9A48E060206110BD212B000024
:102C6000445481807C8F40202DE9F04F0720ADF146
:102C70003C0D0EF0ECFA954C94F8429194F8431107
:102C8000894504BF4FF00008CDF8288009D0D4F85A
:102C900030810022C4F83021D4F834110A91C4F8EC
:102CA000342194F8401194F841210891914204BFD5
:102CB00000270B9709D0D4F83C11D4F838710B9148
:102CC0000021C4F83811C4F83C11D4F82411364D51
:102CD00005EA010A0EF0C3FA0020099001200D90C8
:102CE000099883460E9085E0764800684FF47A7123
:102CF000A4F114050926B0FBF1F00C9014350D98E1
:102D0000A97C88401AEA000F07D1288A002834D00D
:102D100009F0BBF8584628822DE0298A61B9296854
:102D200000292AD068468847686805F11001A86024
:102D3000684609F043F91EE010EA080F11D10A991C
:102D4000084209D1384218D00B99084215D0296899
:102D50006868A86089B106E029686868A86061B100
:102D600001E0296849B168468847288A05F11002C0
:102D7000694609F0B8F80C98E860761EBED1C4F830
:102D80002CA184F84391089884F8410107200EF0A3
:102D90005EFA94F8429194F84311894506D1594658
:102DA000D8460A910CE0C046C0B6C001D4F83081C4
:102DB000C4F830B1D4F834110A915946C4F834112A
:102DC00094F840110891089A94F841118A4207BF7B
:102DD0005F46391CD4F83871D4F83C11DFF8F0A004
:102DE0000B91D4F824110AEA010A0EF038FA099876
:102DF000401C0990D4F82C01824508D194F8410177
:102E00000899814203D194F84301814503D0099880
:102E10000528FFF469AFD4F82401000C09D294F816
:102E2000440101280ED118200DF180FACDF834B0FC
:102E300005E094F8440128B918200DF17FFA0D98A7
:102E400084F8440120490C980FB00860BDE8F08F69
:102E5000820002EB00121D4881507047A0860100DD
:102E600010B51A4C830003EB0013E418A174E0744E
:102E70001146FFF7EDFF10BD144BC20A02D31A46EC
:102E8000121D1160820A02D31A4618321160820B99
:102E900002D31A462C321160420B02D31A4640323A
:102EA0001160020C02D31A4654321160000E02D394
:102EB0001A46683211607047064908607047C0467C
:102EC00000404B4CAC4D818074CD40204C8E402056
:102ED000C0B6C001708F40202DE9FC4F0546A349C4
:102EE00095F84200A24A51F82010342000FB01243A
:102EF00028694168498B00894FEA21190B3020F07D
:102F0000030A28460AF0C4FB834668780BF1F0FAFE
:102F1000019095F8421068780BF1B6FA0090E07CC9
:102F20000026012840F086806878A1680D2202FB07
:102F3000101195F8440088427CD1584605F0D8FF1E
:102F4000002877D1E0680069002873D00189208AC1
:102F50000B3121F0030188428CBFA0EB0108B04681
:102F6000206840F2FF71A0EB09006FF31F3081422F
:102F70004CD9A07C04EB4000808A40440AEB00015D
:102F80006068884242D9584605F09EFF00283DD02F
:102F900029690868002839D1A27C95F85000904230
:102FA00034DD7448EB780068002B2FD1E3681B698F
:102FB0001E690B693768181A6FF309073760070530
:102FC000306840EA9750306001980E89407940EAB5
:102FD000C6008002186048686FF35F4040EAC9404D
:102FE000586000984BEA002000059860E06800698E
:102FF00080F80BB004EB4201E560888A40445044FD
:10300000C882A07C0126401CA07413E05A495B4D85
:103010000868401C08602868000901D20EF038F9E1
:10302000E17C012904BF0221E1742968090901D268
:103030000EF052F93046BDE8FC8F2DE9FC4F1F46DB
:1030400090460E46054601900AF022FB0446002EEB
:103050002DD04FF0120A4FF0000B40F2FF792A6991
:103060000094B8F1000F506885F802A000F1040048
:1030700007BF417801F0EF01417841F01001417044
:10308000E96A85F851B041F48071E962C08A0111A2
:103090003868081A6FF31F30814584BF39602A6988
:1030A000D47A204605F005FF761E0546D7D1009C50
:1030B000204605F0FEFE054601980AF0E9FA296966
:1030C000C872012085F851002046BDE8FC8F2DE92B
:1030D000F04105460C4695F8450095F8281040004B
:1030E00000EB8100A149174631F800801F4995F88F
:1030F0004200234A51F82010342000FB012000F543
:10310000E87690F8E30100282BD0687895F8441011
:103110000AF130FB28B3688F241A143C4FF00000EA
:1031200058BF0120604308FB00F00109B07C06EBAA
:103130004002928A03E0401E06EB4002928A9142CE
:1031400001D20128F7D830F001010AD03A60A34A31
:1031500002EB8002D2F83C13C0B2491CC2F83C1307
:1031600000E0FF200021F174BDE8F08184C8402018
:10317000EC744020F8C640203C00100000E300E062
:103180001C7340202DE9F04F0646757896F84210E2
:1031900096F84480ADF1340D28460BF175F9009096
:1031A00030460AF075FA049096F828700897284679
:1031B0000BF19EF996F8453096F8282009905900B1
:1031C00001EB8201694A4079545A854931F810105F
:1031D000580000EB8700105A4843801183490A9039
:1031E00096F84200824A51F82010342000FB012951
:1031F000284641460AF1BEFA002800F0E78038462A
:103200000C28C0F2E3801E2880F2E0800098C10004
:1032100001EB401173484018018E408E4018401E4B
:1032200080B2019042F2107060430209099801795E
:10323000039201200D318840401E824288BF0390D6
:103240004FF00008002089F81300414602910B91CD
:1032500096F85000079101210C918FE00499FF2905
:1032600000F08A80084605F024FE05462869048996
:103270000769416801F1040BA878498B0B3424F0ED
:1032800003040B284FEA2111059103D0122818BF1F
:103290000D286DD1049805F017FE002868D001981C
:1032A0000599401A6FF31F3040F2FF7181425FD9D8
:1032B0002869006800285BD19BF8000020F07300AB
:1032C000882855D1029803992018814250D9E8786E
:1032D00000284DD10B9802994018211808F10100DF
:1032E0005FFA80F809EB48008182089885F8280089
:1032F0004048029101680098B8F1020F4FEA00229D
:103300000DDBDAF800006FF30900CAF80000781A44
:103310000105DAF8000040EA9150CAF80000286977
:1033200001890998407940EAC10080023860286923
:10333000059B4168BA466FF35F4141EAC341049B74
:10334000796043EA02010905B9600A990693A1422E
:103350008CBF091B00210B91234909681A46515C57
:10336000C17296F85000049108E0C046081B402046
:10337000022196F850000C9101210791404503DD90
:10338000079900293FF46AAFB8F1000F04D14FF05C
:10339000000840460C9015E0707896F844200D2106
:1033A00001FB0020C9F80800069805F082FDC9F865
:1033B0000C000198C9F800000398C9F804000A98A5
:1033C000A9F8100089F812800C9802E0002089F812
:1033D000120089F813000DB0BDE8F08F0000100056
:1033E0000021402098854020ACC4402084C8402063
:1033F000EC744020F8C6402010B57E4C04EBC000B1
:1034000000EB410001884FF6FF748C4208D193B164
:1034100002EBD2724FF4007101EB62018A1209E0F3
:10342000018802F5007201EBA22142F210728A4279
:10343000C8BF8AB20280B0F9000010BDF0B50546E1
:1034400010469C46401C42B20C2A18DA694F900084
:1034500000EBC200C419C619153414F80C3F9D4284
:1034600008D196F82030994204D1C0198CF8002078
:103470002030F0BD521C0C300C360C2AEDDB002045
:10348000F0BD30B504460D463CB1032D05DA0720EA
:103490000DF0DDFE25710DF0E2FE30BD70B5044685
:1034A000FF2C00D101BE05F113FB062800DD01BE93
:1034B000204605F10DFB032800D101BE07200DF0C9
:1034C000C6FE4C49064601F1B0000078012505FA18
:1034D00004F3034212D001F1B00210781531984381
:1034E0001070FF200C2211F80C3F9C4208BF08709E
:1034F000521EF8D103F1A8F9214603DF30460DF042
:10350000AEFE284670BD30B50446207A05F192FA29
:1035100005460121204600F0E0F8FF2D06D0217A73
:10352000984A0120884011788143117030BD30B530
:103530000446207A05F17EFAFF281BD02D48227A16
:1035400090F8B050012101FA02F32B4212D09140C1
:1035500090F8B420114394E80C0080F8B41000F106
:10356000180191E83000AB4208BFA24284BF183076
:1035700080E80C0030BD10B50446E078032800DB7D
:1035800001BE04F10C00012100F0A7F8204609F06B
:10359000DAFA10BD10B50446207A05F14BFA617ACB
:1035A000042900DB01BE217A01228A407549091FE6
:1035B00009780A420AD0FF2808D02046002100F0EE
:1035C0008CF8207A617A002200F058F810BD30B5EE
:1035D0000446207AFFF762FF064B03F1B405207A18
:1035E0002A78012181408A432A70617AD3F8D42055
:1035F000904730BD389D4020F0B50646307A05F141
:1036000019FA0746307AFF2800D101BEC0B205F191
:103610005FFA062800DD01BE307A05F159FA032869
:1036200000D101BE574D00241C3555F8041B307ADB
:103630008847641CE4B2002CF7D09348337A00F139
:10364000B40422780121002699408A43227000F1B7
:1036500024010C2200F1210414F80C5BAB4208BFDA
:103660000E700C31521EF7D142F2107200EBC700FF
:103670000421491E20F8022BFBD1F0BDF8B5074606
:103680004FF0FF3014460E468DF800001AE02879FE
:10369000401E0DD0401E15D1B5F90200844211DB49
:1036A00028460021FFF7EDFEAB685BB1002206E083
:1036B00028460221FFF7E5FEAB681BB10122384620
:1036C000314698479DF90020384631466B46FFF752
:1036D000B5FE0546002DDAD1F8BD2DE9F0470028EA
:1036E000894637D090E86000674C036804F1180100
:1036F00006C99642A3EB010808BF8D4205D990E8A0
:10370000060004F1180080E8060000260127F0B248
:1037100005F190F994F8B410824607FA06F00842D1
:1037200015D094F8B010084211D0BAF1FF0F0ED0A6
:103730000025E9B2504642464B46FFF75DFE024681
:10374000E9B2F0B2FFF79AFF6D1C042DF1DB761C95
:10375000052EDCDBBDE8F08770B54B4C064604F166
:10376000D900057805B101BE03F16EF8294603DFE3
:1037700004EB8500C0F8D46094F8D900401C84F8AC
:10378000D90070BDEC9D402070B53F4C064604F159
:10379000D800057805B101BE03F156F8294603DFCC
:1037A00004EB8500C0F8D06094F8D800401C84F881
:1037B000D80070BD2DE9F04307461E4615460C465D
:1037C000042F00DB01BEFF2C00D101BE084605F12D
:1037D0007FF9062800DD01BE204605F179F90328AE
:1037E00000D101BE002D00DC01BE07200DF02FFD31
:1037F000254B80460C21002003F1150212F80CCF56
:10380000BCF1FF0F05D0491E00F10100F6D1814641
:1038100017E08100814601EBC001581880F8214073
:10382000458480F82070866293F8B0100120A04093
:10383000084383F8B00003F107F821463A462B46C7
:1038400005DF40460DF00BFD0020B9F10C0FB8BFAD
:103850000120BDE8F08338B5054605F1EBF84FF0DF
:10386000FF30FF2D8DF800000CD00024E1B29DF94F
:10387000002028466B46FFF7E1FD0028F7D1641CC5
:10388000042CF3DB38BDC046389D4020F8B50F4608
:10389000044605F1CFF84FF0FF31042F8DF80010EA
:1038A00000DB01BE174991F8B0300126002506FA69
:1038B00004F21A421BD0FF2819D001EBC00101EB22
:1038C000470002884FF6FF71914210D0018005E059
:1038D000017919B93146FFF7D4FD35469DF900202D
:1038E000204639466B46FFF7A9FD0028F0D128464F
:1038F000F8BD00B504490278B83151F82210001D16
:10390000884700BD389D4020389D402010B505F106
:10391000C9F8A04C04EB8004216821B1072003F111
:1039200037FB0020206010BD30B5054605F1BAF820
:10393000A14C810001EB401024186078294600F06A
:10394000FE00607001200DF0E8FA0220A070002057
:10395000E070207120612846FFF7D8FF30BD0FB519
:103960008DF805008DF8041000228DF8062001A8BE
:1039700069461BF160FA00900FBD30B50C46054654
:1039800005F190F8810001EB40108B490918487847
:1039900000280CBF0120022014B98A7882420AD084
:1039A0008870087838B1487800280CBF01200220C0
:1039B00029460DF0B2FA30BD70B5064605F172F831
:1039C0000446304604F1F4F821468A0002EB411225
:1039D0008D49794C0968A418A160217941F0010151
:1039E0002171A178012910D0007830F004000CD1A9
:1039F00000253046E570FFF789FF6078294600F022
:103A0000FE0060703046FFF7B8FF70BD7FB5054619
:103A100014F1D3FD022835D1284605F143F8664C50
:103A2000810001EB40102418284614F1A2FD06463F
:103A3000284614F19EFD40423040B0FA80F0C0F1BB
:103A40001F00C2B2082A00DB01BE237F012000FA5A
:103A500002F1194216D119432177637F22764FF480
:103A60007A71618303B960778DF806008DF8045090
:103A70008DF80520ADF80810ADF80A1001A86946C8
:103A80001BF1D9F900907FBDF0B51046174605F13E
:103A900009F8494D00240126810001EB40102D1842
:103AA0006C77287F06FA04F1014205D08843287715
:103AB0003946E0B2FFF753FF641C082CF1DB3846AF
:103AC000FFF7A4FFF0BD70B51046164604F1EAFFFB
:103AD000394C0025810001EB4011641825612D4906
:103AE00041F820502079E57050B93246FFF7CCFFFD
:103AF0006078294640F0010060703046FFF73DFFD6
:103B000070BD10B5044604F1CDFF810001EB4011FA
:103B100029484018C17801290ED13B490A6801693A
:103B2000891A4269521802610169322904DB0221B3
:103B3000C1702046FFF7EAFE10BDF0B5074604F15C
:103B4000B1FF1D4C00260125810001EB4010241817
:103B5000207F05FA06F1014205D0884320773946D7
:103B6000F0B2FFF7FCFE761C082EF1DB0221A170FB
:103B7000257000206070E0702071A060206160619D
:103B800060772077206260834FF44841E16008212C
:103B90002176F0BD1CCD402030B50546ADF11C0DA1
:103BA00004F180FF044C810001EB4011641821698D
:103BB000322911DA02E0C046F8BB4020E07800BBB1
:103BC0002A46FFF761FF6078002140F00100607035
:103BD0002846FFF7D2FE14E003910721009100214F
:103BE0000291814905910121E17007490968032289
:103BF00061617E498DF8185001EB8001684603F140
:103C000072FC07B030BDC046445481802DE9F041BC
:103C1000064617460D46104604F144FF744C804694
:103C200046B93846FFF7B8FF4046810001EB401126
:103C3000641808E0810001EB401164180020E07076
:103C40003846FFF763FE002006B9012020706EB1F0
:103C5000304639460DF061F94FF44840022EE060DD
:103C60000AD13A46FFF710FFBDE8F081A802E060F4
:103C700001213846FFF781FEBDE8F0812DE9FF41C3
:103C800007468846084604F10DFF594C810001EBB8
:103C900040102418207F012505FA07F6064206D0B9
:103CA000207EB84226D1608BB0F57A7F22D1207E6B
:103CB000B84209D1608BB0F57A7F05D138464146CC
:103CC000FFF74DFE14206083207F617F0643267737
:103CD000142001B96577ADF808008DF804808DF8DF
:103CE00005708DF8065019206946ADF80A0001A844
:103CF0001BF1A1F80090BDE8FF8170B53C4C0E4669
:103D0000910001EB42116418217941F00201217107
:103D1000384909680828A16002DA3146FFF7AEFF8A
:103D2000A07801280CD000253046E570FFF7EEFDA5
:103D30006078294600F0FE0060703046FFF71DFEF7
:103D400070BD10B5044604F1ADFE810001EB4010DA
:103D50002749C91C085C022802D12046FFF71CFF36
:103D600010BD810001EB4010214909180A7801209B
:103D70001AB18978022918BF0020704700B504F1F4
:103D800091FE810001EB40101949085C00BDF0B5BF
:103D9000002004F139FF0446FF2C24D0164F154DA6
:103DA000002604F17FFE810001EB40103A18D07824
:103DB000022811D09078022802D1507880080BD3C5
:103DC000107948B11671D0682968401A91680918AD
:103DD00011612046FFF7E0FE641CE0B204F114FF1D
:103DE0000446FF2CDDD1F0BDBB3A00001CCD4020C5
:103DF000F8BB402044548180F8BB40207848854976
:103E0000008810F0070F08D0764A012012888870C9
:103E100012F00F0F08BF002001E0002088704870EA
:103E2000704730B500290CBF021C0022022909D1BD
:103E30006D4C042314F8025FA84202D05B1EF9D136
:103E400000E06278012914D1AB2804DBB828D8BF80
:103E5000A0F16E010CDD654D2123002115F8014F05
:103E6000A04204D05B1E01F10101F7D101E01C3139
:103E7000CAB2104630BD2DE9F04106AF3E780C467F
:103E800080461D4611462046FFF7CBFF0446002C16
:103E90004DD02846012807D9801E03D0401E46D1A8
:103EA000022502E0032500E001254FF4C07005F172
:103EB00035F88E49574A404600B3401E0ED0401E8A
:103EC0002DD10B884FF680700E32184004434EF20D
:103ED000FF70A3B2184040EAC5201DE0CB8A4CF227
:103EE0007F00184040EAC41080B2C8820B880D32AF
:103EF0004FF6FF10184040EA45200DE0CB8A4FF600
:103F0000807018400443A0B2C8820B880C324FF670
:103F10007F60184040EAC51080B2088016708D4955
:103F20004FF4806008804FF4C07004F1E1FFBDE8F9
:103F3000F08191482DE9F841006800B901BE354E85
:103F4000717801B101BEDFF83482B0FA80F1012747
:103F5000C1F11F01CDB231E06802A0EB051008EB02
:103F600000046078012800D001BEA07C6074E8B233
:103F700019F18CFC08F03BF8307BA8420CD0707B28
:103F8000A84207D0B07BA84202D001BEFF2004E0C7
:103F9000022002E0384600E000208DF80050217C2D
:103FA000E27A637CFFF767FFB06807FA05F18843A0
:103FB000B0FA80F1B060C1F11F01CDB20028CBD1C1
:103FC000BDE8F88131F0010107D1642808BF032062
:103FD00004D0682808BF022000D0FF207047C046E8
:103FE000A824A08080E3A08062CB4020B3C94020F9
:103FF00061482DE9F847001F046804B901BE054D6A
:10400000B4FA84F0002CC0F11F00C7B208BFAA6840
:1040100049D001E06CCB4020AA68DFF860A14FF0E6
:104020000109052F00DB01BE7802A0EB07100AEBA7
:1040300000067078012800D001BE09FA07F812EADC
:10404000080F27D1707CB074717C307CFFF7BAFF09
:10405000707448EA0200A860F8B219F117FC07F082
:10406000C6FF287BB8420CD0687BB84207D0A87B3B
:10407000B84202D001BEFF2004E0022002E0484620
:1040800000E000208DF80070317CF27A737CFFF73D
:10409000F2FEAA6834EA0804B4FA84F0C0F11F0002
:1040A000C7B2BED16C68944200D001BEBDE8F887AB
:1040B00010B5824C2078012800D001BEFFF79EFE8B
:1040C0006078012803D16168A268914205D130B9B6
:1040D000A06820B1FFF72DFF01E0FFF789FFA0786E
:1040E00010B109200EF070FF10BDC0466CE3A08037
:1040F00010B504464FF4C07004F110FF704821461B
:1041000091B1491E0AD0491E1BD102884FF6807119
:1041100011400B4666494EF2FF720EE065494CF2C3
:104120007F034FF6FF1204E04FF680734FF67F6275
:104130006149C48A2340C38203881A400280FF2059
:10414000087004494FF4806008804FF4C07004F197
:10415000CFFE10BDCCE8A0805A4A1188C1F30D01F2
:1041600041EA803188B21080B2F84A0540F480609C
:10417000A2F84A057047C04674CB4020F047402063
:104180002DE9F8430D468146FFF71CFF984614467B
:1041900006464FF4881004F1C1FEDFF830C14748ED
:1041A000FF2E16D18768FF2C2BD0012202FA04F1D2
:1041B0000F4207D0FFE761026346A1EB04115B18D1
:1041C000997C5974A240D14342680A404260394008
:1041D00016E04278FF2C01D14AB112E04368012178
:1041E000012A01FA04F141EA0303436001D0FF26EA
:1041F0000AE08268344B11436202A2EB04129D5420
:104200008160FF2E18BF351C027B4146002925D056
:10421000891E14D0491E3DD1A2420CD0417BA1423F
:1042200007D0807BA04202D001BEFF2004E0022024
:1042300002E0012000E00020FFF75AFF2AE06102BF
:104240006346FF2AA1EB04110B441BD0417BFF29DD
:1042500016D0807BFF2811D001BE0DE061026346BD
:10426000A242A1EB04110B440CD0417BA14207D028
:10427000807BA04202D001BEFF2004E0022002E0C9
:10428000012000E000208DF80040DA7A49462B46F4
:10429000FFF7F1FD4FF4881004F12AFE3046BDE827
:1042A000F8830246012103230020FFF769BFC046BF
:1042B0007ACB402079CB402078CB40206CCB40207B
:1042C0006CE3A08082E3A08002484020F0474020B9
:1042D0007D49006808600120704785490A680C28FC
:1042E00000DB01BE834B94210C2801FB00318A6066
:1042F00000DB01BE002081F8780070472DE9F0470F
:104300000746B8688846ADF12C0D20B197F84B6090
:10431000001D361802E038694668361D787804F1C9
:1043200065FA0146002900F0CC800878022818BF01
:10433000052840F0C6807878D1F8BC1101250246E6
:1043400005FA02F20A4200F0BC80794909680A4283
:1043500000F0B780317821F07301882905D1318BC5
:1043600001F06001202900F0AC80574C624AB8F19E
:10437000020F78D0B8F1000F40F0A3800C2803465C
:1043800000DB01BE94214B43D25A0C2802F10102FA
:1043900096B2C2B200DB01BEDFF85881894609FB44
:1043A0000281A1F86C606188B14200F38A80211813
:1043B000097C002925D10C28C1B200DB01BE09FB14
:1043C000018191F876A004F111FA00B901BE2189AA
:1043D00005FA0AF00843208178780C2800DB01BE3A
:1043E00009FB008100203246A1F86C002089618819
:1043F000089004DF4FF4805008A90AF08FF978780C
:104400005DE00C28C1B200DB01BE09FB0181002682
:104410002A46A1F86C60FF218DF800200B468240EF
:10442000032006F143F9854D7878FF22294604DF01
:10443000787821180C280E742EBFFF2109FB00810B
:1044400091F874108DF81C100721019104950290C9
:104450007B4903960322069104EB80011C3101A8DD
:1044600002F1BAFD2DE00C2800DB01BE94214FF0D3
:1044700000084143C0B222F80180FFF72EFF787890
:104480002018007CE8B91A4832780168FF2004DF60
:104490008DF800507878FF210B4605FA00F20320D2
:1044A00006F1F2FC787804EB8001C96919B10720A4
:1044B00002F16EFD787804EB80024146D161241848
:1044C00025740BB0BDE8F087D0BA4020724838B5EB
:1044D0000D46002440F82540084602DFFF21012256
:1044E00003208DF800400B46AA4006F1CDFC38BDF4
:1044F00044548180FC6040206861402066492DE979
:10450000F04F183909681046ADF1140D05280391D4
:1045100000DB01BE03F14CFB00B901BE0449D0F839
:10452000BC01DFF878910D68054079D002E0C04603
:10453000A851402000244FF0010A9426DFF8608142
:104540000494D3460AFA04F0054263D08148006817
:104550003A4F808B0C2C07FB00F702DB204602DF72
:1045600001BE304600FB0480816881480068401A23
:1045700087424FD20C2C00DB01BE304600FB04808A
:1045800090F8780010BB0C2C00DB01BE3046594679
:1045900000FB048080F87810204609F12CFA406D69
:1045A000407800F00F000F280CBF514604992046B8
:1045B00007F18EF800282DD10C2C00DB01BE30460F
:1045C00000FB0481049881F8780023E00C2C00DBC8
:1045D00001BE304600FB048090F87800012819D114
:1045E0000C2C00DB01BE06FB048090F876700C2CCE
:1045F00000DB01BE06FB0480022180F87810204613
:10460000514609F14BFAD9F804100AFA07F00843A9
:10461000C9F804000BFA04F0641C8543E4B291D19C
:10462000D9F804100398814205D000914FF48040DE
:1046300069460AF073F805B0BDE8F08F40420F00FC
:10464000C144000070B506460C2E00DB01BE49498E
:10465000494C94207043085C211D0A68012505FA25
:1046600000F0C04302400A6021890840208104EB29
:104670008600C16911B1072002F18AFCA0190574F6
:10468000A07A401EA072A07A18B9E168072002F152
:104690007FFC304602DF70BDECBA4020D0BA40202B
:1046A000FC60402070B50446ADF11C0D04F19EF88D
:1046B0000546204602DF002D58D02878022818BF72
:1046C000052853D1D5F8BC21012000FA04F111428C
:1046D0004CD02B4A1268114248D025490A680C2C4C
:1046E00000DB01BE234994230C2CA1F1760103FBCE
:1046F00004139A6000DB01BE00220C2CA3F86C208E
:1047000000DB01BE93F8761088401B490D1D2E6812
:10471000C04306402E600D8928400881887A401CDD
:104720008872887A012821D10A480068C58B90F8E0
:1047300021006843134DC002854288BF281C0C2C01
:1047400034BF93F87430FF238DF81830072300939B
:10475000019201E0A0BD40200290039007480C3177
:1047600003220590684602F137FCFFE707B070BDF1
:104770004454818072614020D0BA4020F14400004E
:10478000A851402040420F0070B56D4C216904F1E2
:10479000180004F11805884204D8A06820181830C1
:1047A000884200D801BE07200CF051FD0646E068A3
:1047B000D0B10DF006FFB8B110E0206900780DF01F
:1047C000DDFEE068401EE0602069401C2061A068BA
:1047D000216920181830884298BF25610DF0F1FE3C
:1047E00010B1E0680028E8D130460CF038FD70BD0B
:1047F0005348C1688068401A70470EB42DE9F04FE5
:1048000009AFADF1180D00900CF09BFD0646072096
:104810000CF01DFD0590AA4890F82010002940F0EA
:1048200057814FF0000A06250446CDF80CA0DFF8AA
:104830001081CDF810A0D34636B1102E04D34146D6
:104840004E600098086001BEE278012A04D1FFF7AB
:104850009BFF2046C01C02780098DFF8A0C2B0F190
:10486000FF3F04D0604610300168491C01603E1DC6
:1048700026F0030150460291091F3B78834200F362
:104880000D8141F2180919F8080000B12D1D012A07
:104890002BD0022A3BD16D1DE8B209F02DFA94F815
:1048A00021100546012907D1207828B941F00201DD
:1048B00084F8211009F0C1F98F4A1368022D00F025
:1048C000EA80A16880208847A24DA168287888479F
:1048D000A16868788847A168A8788847A168E878BF
:1048E0008847A1682879884711E062461368D2F8A2
:1048F00004C0FFF77DFF854200F2C680A1688020DA
:104900008847484610F80810002940F0AD803878F4
:10491000401E17D0401E0FD0401E0AD0401E15D199
:1049200026F00306D6F80CB0D6F808A070680490FC
:104930000AE026F00306F7E726F00306F6E7C0468E
:10494000A0214020B010860030680390039810F03A
:104950007F4F18BF03200AD110F47F0F18BF022029
:1049600005D10399002011F47F4F18BF01201BF0DF
:104970007F4F18BF4FF0FF310AD11BF47F0F18BFD4
:104980006FF0010104D100211BF47F4F18BF0121FA
:104990001AF07F4F18BF032209D11AF47F0F18BFF6
:1049A000022204D100221AF47F4F18BF0122049B77
:1049B00013F07F4F18BF03230AD113F47F0F18BFE2
:1049C000022305D1049D002315F47F4F18BF012356
:1049D00002EB8102A16803EB820300EB8300C0B20B
:1049E0008847A1689DF800008847A1689DF80100EC
:1049F0008847A1689DF802008847A1689DF80300D8
:104A00008847DDF808800026A8F104083878B0420D
:104A100008DC05980CF023FCE078012863D1FFF74F
:104A2000B3FE60E058F8040F0DF103090025019072
:104A300005E0A16819F8010F88476D1CEDB20199D6
:104A400011F07F4F0AD111F47F0F05D1002011F42E
:104A50007F4F18BF012002E0022000E00320A8429F
:104A6000E7DA761CF6B2D1E7514600F80810A168E3
:104A7000DD208847A168DD208847A168DD208847C0
:104A8000A168DD2088472BE00CF101000121506076
:104A9000484600F808105B1C136021E051F804EF51
:104AA0001EF07F4FCDF804E00CD11EF47F0F05D12E
:104AB00053461EF47F4F18BF012304E0022302E097
:104AC00090C9402003235B19401C5D1CC0B2D4E692
:104AD0000098B0F1FF3F03D007490868401C086008
:104AE00005980CF0BCFB06B0BDE8F04F03B0704772
:104AF0000021FFF782BEC0467CCB402080CB402007
:104B0000404910B58A68CB689A4200D201BE4C6910
:104B100001F11803A34203D852181832A24200D858
:104B200001BE20704869401C486188684A690818BD
:104B30001830904298BF4B61C868401CC86032482A
:104B4000C96882688A4204D2C26881608A4238BFDA
:104B5000C16010BDAC4D81802B48416809B1002176
:104B6000C160002181604160704728480C300068B6
:104B700070472DE9F043254C216904F1180004F138
:104B80001808884204D8A06820181830884200D835
:104B900001BE07200CF05BFB1F4D1E4F814622E03B
:104BA0002868001B864223DA01BE21E02E6804E05B
:104BB0002868801B874200DA01BE0DF002FD002844
:104BC000F6D0206900780DF0D9FCE068401EE06066
:104BD0002069401C2061A068216920181830884293
:104BE00098BFC4F81080E0680028DFD12C68084E18
:104BF0000DF0CFFC0028D3D048460CF030FBBDE8C8
:104C0000F083C046A021402080CB4020A02140203E
:104C1000C0D8A70080969800AC4D8180984A10B506
:104C2000815C491E8154974909680B4696490A6878
:104C3000964901EB80010C784878A04207D1FF2209
:104C40004A700A704FF6FF7143F8201010BD487883
:104C5000145C4C704FF6FF7143F82010FF21115483
:104C600010BD8A49491C11F8200070478449085C2E
:104C7000704710B5044604F01CF90146487891F8D5
:104C8000441006F0FFF87F4909687D4A41F8240086
:104C9000815C491C81547D4901EB8001204606F06E
:104CA0007EF810BD10B50C28144600DB01BE8D4AFD
:104CB000128823B906F0E6F88B4931F8202010015C
:104CC000E082E08A001110BD6E49096851F8202089
:104CD0008549891E01EB82016B4A1268805CFF28BE
:104CE000487004BFFF2008707047924800B5006804
:104CF000804700BD2DE9F0410746884607200CF0AB
:104D0000A6FA794C0D250126002105FB07F3A41E08
:104D10005A1804EB82025278FF2A03D1491C0D294C
:104D2000F6DB00E000268349C1F800800CF097FA1A
:104D3000002E18BF012010D1342000FB07440720AB
:104D40000CF085FA0646204606F076F830460CF060
:104D500086FA241D6D1EF2D10020BDE8F08110B549
:104D6000044604F0C5F84749096851F824204FF675
:104D7000FF7191420BD000281CBF5A49891E03D1F4
:104D80005949891E01EB8201204605F0D4FF00201D
:104D900010BD70B5054607200CF059FA524B01249E
:104DA00000210D225CB102FB05165C1E14F82640A2
:104DB000FF2C14BF00240124491C0D29F2DB0CF048
:104DC0004EFA002004B9012070BD0C2870B500DB3C
:104DD00001BE974A0D21342501FB00F40026A3B241
:104DE00005FB00259C2B00DB01BEE01A10F1080F2B
:104DF00005D1508C401C6FF31F30688000E06E803E
:104E0000491E05F1040503F10103EBD170BDF0B5B6
:104E100006460F460C2E00DB01BE324800888AB9D8
:104E2000834D304606F02EF805EB80004488394665
:104E3000304606F027F8641C6FF31F3405EB80053D
:104E4000284603E0401CC0F30B0491484480F0BDA9
:104E5000904B10B500221F281B780A6004D0012255
:104E600082401A4209D110BD012404FA02F018420E
:104E700003D1521C042AF8D310BD0120086010BDD4
:104E80008CA74020B4C44020ACC44020B47A402059
:104E900010B50124002904FA01F308BF4FF0FF32D6
:104EA00007D04A1E1F2A0CBF4FF0FF325A1EC2F114
:104EB000FF329A431F2908BF4FF0FF3402D0491C2C
:104EC0008C40641E02400CBF0440141C34B160428C
:104ED0000440B4FA84F0C0F11F0010BD4FF0FF3061
:104EE00010BDC046AAC440204678402010B50446F4
:104EF00004210A22A00080B215F164FA6649086014
:104F000034B14FF6FF722146491E40F8042BFBD105
:104F1000A0B204210B2215F155FA604908603CB19A
:104F2000FF2000220B68641ED05402F10102F9D167
:104F300010BDC046B0C440202DE9F043044603F044
:104F4000B8FF0746204603F0D3FF554E04463068AD
:104F5000000902D20CF09CF981460B20514DDFF87C
:104F60004881B870A4B9787897F8441006F00BF827
:104F70002C78787897F8441005F0A0FF43461A780B
:104F8000012101FA00F02B460443E1B2084607E094
:104F900005F0BCFE43462878197841F008010A461E
:104FA000024319703B4802703068000902D248463B
:104FB0000CF092F9BDE8F08330B5044603F098FF99
:104FC0000546204603F075FF014645B9487891F83B
:104FD000441005F057FF164901EB800101E0002065
:104FE0002B492D4A126842F82400204605F0D7FECE
:104FF0002046FFF7A1FF30BD30B5054603F059FF4D
:105000000446284603F074FF40B9607894F84410D1
:1050100005F038FF064901EB800101E000201C4942
:105020001D4A126842F82500284605F0EBFE30BD07
:10503000447840202DE9F041064603F03AFF05464A
:10504000304603F055FF164C80462068000902D216
:105050000CF01EF9074611480068305C03F029FF88
:1050600010B180780B280AD0B8F1000F05D168780C
:1050700095F8441005F03EFF01E005F039FE206888
:10508000000902D238460CF027F9BDE8F081C0468D
:10509000A8C44020A5C44020B4C44020ACC44020D3
:1050A00000E300E0A7C44020A6C4402001460A0651
:1050B00001F47F4042EA0022080A00F47F401043D6
:1050C00040EA1160704710B50446216821B190484C
:1050D0000DF0F1FB0020206010BD70B50446207873
:1050E0001D46401E52D0401E36D0401E53D10329CB
:1050F00007D1FF2A05D0042A12DA606800EB82008B
:105100000CE06068FFF7DFFF6068001DFFF7DBFF62
:1051100060680830FFF7D7FF60680C30FFF7D3FFF7
:10512000616848680B68984235D18A68CE689642B3
:1051300031D190422FD1002B2DD176480DF0BBFB01
:10514000002094212070744A606001FB052181F8E1
:105150007C00C1F8800070BD022905D1FF2A1CBF68
:10516000606800EB820004D16068FFF7ACFF606804
:10517000001DFFF7A8FF6168086860B9486850B96A
:1051800066480DF098FB0020606003E0201DFFF7EB
:105190009AFF0020207070BD70B50D46044603F0E4
:1051A00039FCE079401E00F09D80401E04D0401E76
:1051B00076D0401E37D070BD05F14A0004F10801D9
:1051C00010220DF0EDFA04F118010A68281D0260A2
:1051D0004968416004F120010A6805F10C00026091
:1051E00049684160208D08B9216B19B1A5F86000AC
:1051F000206BE8654FF6FF7605F138024FF0FF337C
:1052000005F11401092022F8026B401E41F8043B0D
:10521000F9D1A078424985F8C800086820F020003C
:10522000086002203AE06069FFF740FF686020698B
:10523000FFF73CFFA860E068FFF738FFE860A06870
:10524000FFF734FF2861606AFFF730FF6861206A6A
:10525000FFF72CFFA861E069FFF728FFE861A0696C
:10526000FFF724FF2862A0782E4985F87C00881C6F
:1052700068620846A86205F13003E86209222863E3
:10528000491E43F8041F521E5862FAD16078012863
:105290000CBF0020012085F87D000420287070BD1F
:1052A00005F13803002005F11402092123F8020B4F
:1052B000491E42F8040BF9D1208D08B9216B19B1B0
:1052C000A5F85000206BE864A078291D173485F8F4
:1052D0005200102014F80129401E01F8012BF9D1C9
:1052E0000320DBE7A07968606A6804F1080105F132
:1052F0000B000DF055FA6868C01C6860A0786968FA
:1053000085F8280001202870284603DF70BDC046BC
:1053100088BC402098BC4020FC604020C0BC40209D
:1053200018308080365C365C2DE9F04707467648B9
:105330000078002817D038780C2800DB01BE7349AC
:105340000D5C284608F157FB0446284603F1ECFBA8
:10535000804639787A78BB78F87905DFBA882046B4
:10536000294604DF14B90120BDE8F087F87904F17B
:105370007C06012808D0022806D0032804D004287F
:1053800018BF0E2040F0BE8038F0040805D17878B0
:10539000012814BF022804F1840607200BF057FFF0
:1053A0008246DFF86C917878002800F09280401EE9
:1053B00050D0401E40F0A180B888401E0FD0401E43
:1053C00040D0401E40F099803078032801D001DFA2
:1053D0003EE0B87871680874B87802DF38E0307859
:1053E000032810D030460321FF222B46FFF775FE1D
:1053F0000320307047480DF021FA7060706800217A
:1054000014220DF0F1FBB878716851F8201061B9E1
:1054100048460DF013FAB978726842F82100B8785E
:10542000716851F8201001B901BE3846FFF7B4FE8B
:10543000B8F1000F0CD1032084F87C007068C4F828
:10544000800005E0BA78032130462B46FFF745FE81
:10545000012453E0B888012838D13078022811D0CF
:1054600030460121FF222B46FFF737FE2A480DF078
:10547000E5F9706002203070706800240460706884
:10548000446009E07068847A02212B46C4F101046B
:1054900030462246FFF721FE70684FEA840858F82C
:1054A000000000B101BE48460DF0C8F9716848F827
:1054B000010070682118B8780872706858F80010F8
:1054C0003846FFF769FE70688472C1E70221FF2247
:1054D000BAE730460121FF222B46FFF7FEFDB888D0
:1054E0000128B5D10120307048460DF0A7F9706051
:1054F00071683846FFF750FEAAE70E2450460BF0BD
:10550000AEFE2046BDE8F08700B740202CC040200A
:1055100088BC402098BC4020C0BC40202DE9F0470A
:1055200000291D46904600F0A080521E0AD0521E4F
:1055300005D0521E40F099801E220A2604E00A225D
:105540001E2601E00A221646022927D000EB800021
:1055500041F288342418A01A401E0DF0B4FE0FF258
:10556000242A574697E80C000CF008F987A7BC4698
:105570009CE80C000BF06EFB0CF0E2FE0DF001FE5F
:1055800081463019401C0DF09EFE9AE80C000CF08C
:10559000F5F897E80C000BF05DFB1BE000EB8000DA
:1055A00041F28834241AA01AC01E0DF08CFE79A78F
:1055B000BC469CE80C000CF0E1F80CF0C1FE0DF0CC
:1055C000E0FD81463019C01C0DF07DFE97E80C000F
:1055D0000CF0D4F80CF014FF0DF0D3FDB9F51B6FEF
:1055E00003463FD840F6621098423BD8484528BF52
:1055F0008146581CB0F51B6F2CBF4FF41B635B1C1E
:1056000041464A462046A3F6621705DFA9F6621610
:1056100016F0070F09D0F208AB5C06F00700FF2177
:10562000C0F1080001411940A95417F0070F07D035
:10563000F9086A5C07F00703FF209840104068549F
:10564000FF1FF8084F2810D2F61DF20890420CD325
:10565000801A0021AD18401C401E05F8011BFBD12B
:10566000BDE8F0874846194603DFBDE8F08710B56E
:1056700003F113FA05200BF0EAFD044681480168A6
:1056800069B9017B59B9806848B97F48006810F44E
:10569000012F0CBF4FF4A04145F2040101E045F297
:1056A00015014FF2A81003F172FC20460BF0D7FD54
:1056B00076494020088010BDF0B507467448006860
:1056C00008B107F4004705200BF0C1FD0646B9B24A
:1056D0004FF2AC1003F15BFC6E4D2C684FF2AE1034
:1056E00067F31E04210C03F152FC30462C600BF0D2
:1056F000B6FDF0BD30B5044605200BF0A8FD664AA6
:105700001168E4432140116062490D680BF0A7FD68
:1057100004EA0500FFF7D0FF30BD00B56FF0004090
:10572000FFF7E8FFFBF747FE00BD5A4800687047E7
:10573000844800B5006802DF00BD10B5874C2068C2
:1057400010F0030F0DD10DF08BFC2068844940F060
:10575000030020604FF4004008604FF4107003F124
:10576000C7FB10BD10B577487E4C0168206803DF89
:105770000020FDF7A1FB20680021FDF7C5F90020FE
:10578000206010BD000008400000000000001C4028
:10579000000000000000E03F000000002DE9F041A3
:1057A000074605200BF053FD804670496E48098876
:1057B00005790024C1F30011012908BF012490F8E4
:1057C0002D20A24209D1012D03D1012901D1FFF7DA
:1057D000B4FF40460BF043FD36E00646CCB1012D48
:1057E00086F82D400DD103F101FA002620B960485A
:1057F0000078400828BF01263046FFF043FFFFF73E
:105800009CFF40460BF02BFD5A490978284603DFE0
:105810001AE00020FFF036FF86F82D4000F113FD5E
:10582000FEF003FA00200146FBF742FF40460BF072
:1058300016FDFFF797FFFEF0D9F94FF2E7000021C0
:1058400003F18DFC284602DF204639462A4604DF54
:10585000012C02D10D49402008802046BDE8F0818E
:1058600070B5064600244FF2B01536F8021B281911
:1058700003F18DFBA41C0A2CF7D3044940200880B7
:1058800070BDC046E4BC402000AA40200CE8A080C7
:1058900088A8402070CC402070A84020FEB5324D32
:1058A000281D007800284CD06846FF210A220DF000
:1058B0009BF907200BF0CBFC304907460C7B0868AE
:1058C000044314D0FFE70126B4FA84F0C0F11F00AE
:1058D000C0B206FA00F18C4302F16AF90246D17AAD
:1058E000107C527C6B46FFF719FE002CECD1224C49
:1058F00069460A2220460DF0D5FC20B938460BF047
:10590000AEFC01DFFEBD6846FFF7AAFF68460268ED
:1059100021460A6042684A600089088138460BF0D7
:105920009EFC6B7E0199029A0020012B08BF01208A
:105930002B7943EA002395F82D0043EA00430098B1
:1059400005DFFEBD445481800EB5FF210A22684662
:105950000DF04AF96846FFF783FF0EBDCC2080802A
:105960007050808038A84020E0BF40200A24A080EA
:1059700066A840207BC4402074CC4020E4BC40207A
:105980002DE9F84F05469848984BAA0002EB000B0A
:1059900014189A58D4F848319A43A36F1340626C94
:1059A0001A40D4F8AC301340D4F8E0201A40D4F8B0
:1059B0001431FF274FF0010A134001EA03043EE0CF
:1059C000894805EB000898F800102046FFF760FAB8
:1059D0000BF11009C6B20C2E00DD01BE0AFA06F06A
:1059E00084432946304605F04DFA814901EB800099
:1059F0004778384603F05DFA00B901BE016990F8B6
:105A00004100D9F800204968091D00910AFA00F107
:105A1000114203D1FF2801D086B10DE0082D0EDA26
:105A20003046294607F1A6FE48B1009A304629467D
:105A3000FBF01AFF18B90EB188F80060FF270CB10F
:105A4000FF2FBDD03846BDE8F88F30B504469748E3
:105A5000005D0D46FFF794FFFF2804D1A148005DCB
:105A60002946FFF78DFF30BD10B504464FF0FF31DA
:105A70000B20FFF785FFFF280CD108F102FD04EA97
:105A800000010820FFF77CFFFF2803D103202146F7
:105A9000FFF7DBFF10BD01460220FFF7D6BF09204C
:105AA0004FF0FF31FFF76CBF01460120FFF7CDBF7C
:105AB00010B504460C202146FFF762FFFF283ED1B7
:105AC0009E480078032827D0012811D000202146C5
:105AD000FFF7BBFFFF2832D108F106FD04EA000101
