:100000000000021700000000000001340000700032
:10001000000001D8000001FC00000340000002E4E1
:1000200000007518000000000000769C000004A984
:10003000000004E90002625A000001000000000014
:1000400000000064000000C8000000010000000083
:10005000000000000000000000000000000000019F
:1000600000005B8D000000000000000000000000A8
:10007000000000000000013C00001E840000001091
:10008000000000000000000100000000000000006F
:10009000000000000000000000000001000000005F
:1000A000000000000000001A0000000000002CE02A
:1000B000000000000003FFFF00000000000000003F
:1000C00000000000000000AA000229E000000698DD
:1000D0000000000000000000000000280040006D4B
:1000E0000010003000210001000300040005001E84
:1000F000000000000009896800890000000000017C
:1001000000000002000000030000000400000005E1
:1001100000000006000077770000888800000700D4
:100120000000000703E8006900000010047E006979
:100130000000002004E200690000003007D00069E0
:100140000000004000050069000000500006006942
:1001500000000060000700690000007000080069EE
:10016000000000800000000000000000000000000F
:10017000000000000000000000000000000000007F
:10018000000000000000000000000000000000006F
:10019000000000000000000000000000000000005F
:1001A000000000000000000000000000000000004F
:1001B000000000000000000000000000000000003F
:1001C000000000000000000000000000000000002F
:1001D000000000000000000000000000000000001F
:1001E000000000000000000000000000000000000F
:1001F00000000000000000000000000000000000FF
:1002000000000000000000000000000000000000EE
:1002100000000000000000000000000000000000DE
:1002200000000000000000000000000000000000CE
:1002300000000000000000000000000000000000BE
:1002400000000000000000000000000000000000AE
:10025000000000000000000000000000000000009E
:10026000000000000000000000000000000000008E
:10027000000000000000000000000000000000007E
:10028000000000000000000000000000000000006E
:10029000000000000000000000000000000000005E
:1002A000000000000000000000000000000000004E
:1002B000000000000000000000000000000000003E
:1002C000000000000000000000000000000000002E
:1002D000000000000000000000000000000000001E
:1002E000000000000000000000000000000000000E
:1002F00000000000000000000000000000000000FE
:1003000000000000000000000000000000000000ED
:1003100000000000000000000000000000000000DD
:1003200000000000000000000000000000000000CD
:1003300000000000000000000000000000000000BD
:1003400000000000000000000000000000000000AD
:10035000000000000000000000000000000000009D
:10036000000000000001000000000000000000008C
:10037000000000000000000C5440F615E8417A43EC
:10038000BA0C960CB70CD80CF90D1A0D3B0D5C335A
:100390009733F60D7D1061116F11BA11E70C7512CC
:1003A00061520312821193111E0000000000000030
:1003B000000000000000000000000000000000003D
:1003C000000000000000000000000000000000002D
:1003D000000000000000000000000000000000001D
:1003E000000000000000000000000000000000000D
:1003F00000000000000000000000000000000004F9
:10040000000000000000000000008E6FFCBD0961CC
:10041000CE001818CE00002008A60018A700081863
:10042000088C001825F3CC00BF270BCE62076F00A5
:100430000883000126F8BD096DBD5FF320FB0510A0
:100440000526DE0E3C9F0E4FF6045B38DF0E39DECC
:100450000E3C9F0E4FF6045C38DF0E39DE0E3C9FDB
:100460000E4FF6045B0505C3014E8FEC00C300017F
:10047000ED0038DF0E39DE0E3C349F0EBD380EDE47
:100480000EE701BD35E7DE0E4FE6013138DF0E39EC
:10049000DE0E3C349F0EDE0EE701BD3794CE0458CD
:1004A00018DE0E18E6013A6D00263BF7045CC65CC8
:1004B00018A6013DC30344FD04628DBA5D27274F92
:1004C000F6045CF7045B05050505C304A9CE00101E
:1004D0003C3736CC04E9BD5CDABD54C0BD055CCC0C
:1004E000000138382003CC00FF3138DF0E39DE0E32
:1004F0003C9F0E8D81CC000138DF0E39DE0E3C9F13
:100500000EF6045BC1012305CC000220045C8D8043
:100510004F38DF0E39DE0E3C9F0EF6045B2605CC0D
:10052000000220055ABD05904F38DF0E39DE0E3C23
:100530009F0EC602CE045A6D0027076F00CC000143
:1005400020085A095D2AF0CC000238DF0E39DE0E91
:100550003C3C9F0EC60218CE045ADE0E1AEF01DE96
:100560000EEE016D00261EF1045B26098DA7C10168
:1005700027034F2021C60118DE0E18EE0118E700F0
:10058000CC000120115ADE0E1AEE0118091AEF01F3
:100590005D26CCCC00023838DF0E39DE0E3C9F0ED3
:1005A000DE103CDE123C7F00137D045F26107D04CC
:1005B0005E2713F60340C501260CC602200FCC00AF
:1005C000FF20584F20557D04612704C601D713F63C
:1005D000045DD1132302D7137F0011CE04585FE7C7
:1005E000007C001108D611C10223F35FD711D1138B
:1005F000240FBD064E5D2BC67C0011D611D11325EC
:10060000F1F6045BF10460240FBD05FCC10126B3C3
:10061000F6045BF1046025F1CC000138DF1238DF0D
:100620001038DF0E39DE0E3C9F0EDE103CDE123C31
:10063000DE143CDE163C18DF0C18CEE66CCE000053
:100640004F18DF0A18DE0C18CE001ABD5D6B4F5F25
:100650008F840CC4008FDD16DF1418DF0C18DE0A3F
:1006600018EC02DD1218EC00DD10DC12DE108F84B5
:10067000F3C4FF8FDF10DC16DE149A12DA138F9AA0
:1006800010DA118F18ED02CDEF0018DE0C38DF16EE
:1006900038DF1438DF1238DF1038DF0E39DE0E3C59
:1006A0003C9F0EDE0EED01C603BD072518CE0118D6
:1006B000183CDE0EEE013CCC0340BD5CDA18CE00E7
:1006C00040183CDE0EEE073CCC04A9BD5CDA7F048A
:1006D0005CCC0344FD0462BD05EE18DE0E18E60A8C
:1006E000BD07257F045BCE00103C18CE04A9183C42
:1006F000CC04E9BD5CDABD069B30C60C3A35CC00B3
:10070000013838DF0E39DE0E3C9F0EC1022305CCC6
:1007100000FF2007F7045DBD069B4F38DF0E39DE72
:100720000E3C9F0EF6045D5C8DDC4F38DF0E39DE2B
:100730000E3C9F0EBD41FCBD069B4F38DF0E39DEDF
:100740000E3C9F0E8F8FC1018F2305CC00FF200D23
:10075000C602DF08D009F70460BD069B4F38DF0EE4
:1007600039DE0E3C349F0E8F8FC1018F2305CC00E4
:10077000FF2033C602DF08D00918DE0E18E701F7A4
:100780000460F6045B18E1012505CC00012017CEBA
:10079000045818DE0E18E6013A6D002605BD0590D6
:1007A0002003BD069B4F3138DF0E39DE0E3C3C3452
:1007B0009F0EDE0EE7032608F70460BD069B200BA4
:1007C000DE0EE6035A6D09270A8D9618DE0E18E72D
:1007D000012007BD083FDE0EE701F6045B18DE0EC0
:1007E00018E7024FCE005CBD5D91DD0ADE0A8FC3C3
:1007F000034C8F18E6023734EC02EE00BD3351187B
:10080000DE0E4F18E6013131383138DF0E39DE0E99
:100810003C349F0E7F01837F01827F01817F0180B5
:100820005FF7045CF7045BCE01183C18CE70B81873
:100830003CCC0340BD5CDAF6045C18DE0E18E70120
:10084000C65C18A6013DC30344FD0462CE005C3CB7
:100850003736CC02E4BD5CDA383838383138DF0E50
:1008600039DE0E3C9F0E0F4F5F38DF0E39DE0E3C37
:10087000308FC3FFF08F359F0EDE103CDE123CDE62
:10088000143CDE163CDE0E18CE00001AEF031AEF01
:1008900001C67E18E700CE0001CC15F6ED00CC6253
:1008A000C984FFC4FCDD10FD046BCC67FC9310C34E
:1008B000FFDC18DF0C18DE0E18ED09CE0018028FD1
:1008C00018ED0B18DE0CDD0AC30001DE10ED041874
:1008D000DE0E18EC0904040404C30001ED06FF0158
:1008E0002618DF0A18DE0C188FE700E701188F1AA8
:1008F000EF0ACEE603E60018DE0A18E70A8400C411
:10090000F018ED090404040418E706CEE662E600D8
:100910008F4F18E6068FC5022717088FCE00004DAF
:100920002A010918CE9000183C18CE0001183C206E
:1009300019088FCE00004D2A0109DD0CCCC97B3788
:1009400036DC0CCC00053736DC0CBD5D0B183818D6
:1009500038FD621CFF621ADD128FDD10DC1205DE2D
:10096000108F59498FD3128FD91199108F18DE0E1D
:1009700018ED0FCDEF0DFD6216FF621418EC0FD3CA
:10098000128FD91199108FFD6220FF621E18EC0F93
:1009900005FD621018EC0D5949FD620EBD52D507D8
:1009A000843F84BF067F62137F62127F6219BD0994
:1009B0000EBD3E43F67001C5112707CEE248C6853D
:1009C000E700CEE20EC602E700F67000C1FF271A6C
:1009D0005D261018DE0E4F5F18ED03CC020018EDF7
:1009E000012007CEE249C691E70018CEE208DE0EEC
:1009F000EC03EE018AE7CA018F8A78CAB08FBD5D29
:100A0000DA18ED02CDEF0018EC02FD046918EC00D5
:100A1000FD0467188FF6045B188F18DF127F001231
:100A20007F00117F0010DC12DE1018CE0004BD5DC7
:100A30006BD3128FD91199108FDD12DF10BD0542D3
:100A4000CE00004F18CE0008BD5D6BD3128FD911B8
:100A500099108FDD12DF10BD0542CE00004F18CE79
:100A6000000CBD5D6BD3128FD91199108FDD12DF91
:100A700010BD0542CE00004FDD147F00177F001629
:100A8000DC12DE10D3168FD91599148FDD12DF100A
:100A9000BD0542CE00004F18CE0015BD5D6BD312D0
:100AA0008FD91199108FDD12DF10BD0542CE0000E5
:100AB0004F18CE001CBD5D6BD3128FD91199108FCA
:100AC000DD12DF10BD0542CE00004F18CE001EBD66
:100AD0005D6BD3128FD91199108FDF10CEE66CEDBC
:100AE00002DC10ED00C601BD0725FC01CEDD12FCC5
:100AF00001CCDD10DC12DE1018CE0003BD5D6B18DA
:100B0000CEE23818ED02CDEF00CEE23CC610E70091
:100B10000ECF20FCDE0E3CDE083CDE0A3CDE0C3C48
:100B20009F0E38DF0C38DF0A38DF0838DF0E3BDE77
:100B30000E3CDE083CDE0A3CDE0C3C9F0ECEE21989
:100B40006F0007BA00800638DF0C38DF0A38DF088C
:100B500038DF0E3BDE0E3C9F0ECEE84C4F5FED02C1
:100B6000CC0100ED00CEE2044F5FED02CC0100EDC0
:100B70000038DF0E39DE0E3C9F0ECEE84CCC08006C
:100B8000ED024F5FED00CEE204CC0800ED024F5FB6
:100B9000ED0038DF0E39DE0E3C9F0ECEE84C4F5F85
:100BA000ED02CC2000ED00CEE2044F5FED02CC2040
:100BB00000ED0038DF0E39DE0E3C9F0ECEE84C4FC4
:100BC0005FED02CC4000ED00CEE2044F5FED02CCC1
:100BD0004000ED0038DF0E39DE0E3C9F0ECEE84CB3
:100BE0004F5FED02CC8000ED00CEE2044F5FED02DE
:100BF000CC8000ED0038DF0E39DE0E3C9F0ECEE8D3
:100C00004C4F5FED02CC0001ED00CEE2044F5FEDF2
:100C100002CC0001ED0038DF0E39DE0E3C9F0ECE17
:100C2000E84C4F5FED02CC0002ED00CEE2044F5FD6
:100C3000ED02CC0002ED0038DF0E39DE0E3C9F0ED7
:100C4000CEE84C4F5FED02CC0004ED00CEE2044F45
:100C50005FED02CC0004ED0038DF0E39DE0E3C9F64
:100C60000ECEE84C4F5FED02CC0008ED00CEE20462
:100C70004F5FED02CC0008ED0038DF0E39DE0E3C90
:100C80009F0ECEE84C4F5FED02CC0040ED00CEE26F
:100C9000044F5FED02CC0040ED0038DF0E39DE0E70
:100CA0003C9F0E7F0466BD54C0BD558FCEE66CE6FA
:100CB0000054544FC403CE000026061A83000127B7
:100CC00014C601373418CE76C0183CCC70B8BD07B6
:100CD0009D18381838C602BD0806BD51ACBD31FE9E
:100CE000CC000138DF0E39DE0E3C3C349F0EDE10A6
:100CF0003CDE123CDE0EE701EC0ADD12F60475E77D
:100D0000024F1A8300F823037E104D05C35FF718C6
:100D10008FCDEE006E00CEE246C602E700BD169211
:100D20007E1052F66218CEE246E7007E1052CEE206
:100D300046C6FFE700BD14567E1052CEE246C604FA
:100D4000E700BD14727E1052CEE246C605E700BD34
:100D500014E17E1052CEE246C606E700BD1B6BBD15
:100D60003397BD3397BD3397BD3397BD3397BD33AD
:100D700097BD33977E1052CEE246C609E700BD15F7
:100D8000087E1052CEE246C60AE700BD148E7E10E1
:100D900052CEE208EC02FD0469EC00FD0467CCFFD2
:100DA000FFED02CCFF7F200BCEE208FC0469ED02D0
:100DB000FC0467ED007E1052BD062D7E103418DE57
:100DC0000E18E602CBEDBD08067E103418DE0E18B4
:100DD000E601CBBF18E7035F373418E6032006C6E9
:100DE000013734D613BD08AB4F31317E1055F67044
:100DF00000C1FF270B5D2605BD415F2003BD4240BA
:100E0000FC01C2DD12FC01C0DD10DC12DE1084FF2B
:100E1000C4FEFD01C2FF01C07E1052BD082F7E102E
:100E200034BD05FC7E1034BD06157E10344F5FFDC9
:100E3000014EFD014CFD0152FD0150FD0156FD0129
:100E400054FD015AFD01587E10527F045FC60237DF
:100E50003418CE7740183CCC72E820107F045FC66F
:100E600001373418CE76C0183CCC70B8BD079D4F02
:100E7000183818387E10557F045FBD48407E1052E8
:100E80007F045FBD484E7E1052FE046B6D01270645
:100E90006F0B6F0A6F01FE046BC601E7002028FE8E
:100EA000046B6F007E1052BD52157E1052BD521E53
:100EB0007E1052FE046B6D0027066F0B6F0A6F00E9
:100EC000FE046BC601E701FE046B6F096F087E101C
:100ED00052FE046B6F01207AFC769EDD12FC769C3C
:100EE000DD10DC12DE108A00CA012012FC769EDDC5
:100EF00012FC769CDD10DC12DE1084FFC4FEFD7651
:100F00009EFF769C204CBD2A352047BD2A61204299
:100F10007F0465203DC601F704652036C601F7044D
:100F200066BD54C0202C7F0466BD54C0BD558F20C3
:100F300021BD0D9E4F201ED613BD30B52014CEE22C
:100F4000044F5FED02CC0080ED003F2005CC00FE99
:100F50002003CC000138DF1238DF10383138DF0EC3
:100F600039DE0E3C349F0ECEE84C4F5FED02CC00D4
:100F700080ED00CEE244E60018DE0E18E701F7042B
:100F800075CEE81CEC02FD046FEC00FD046DCEE8AC
:100F90004718E601E700FE046F3CFE046D3C18E6CE
:100FA00001BD0DE7CEE245E700CEE2044F5FED0262
:100FB000CC0080ED0038383138DF0E39DE0E3C9F32
:100FC0000E4F1A83005427452E0CDD0827491A833B
:100FD00000532734203C1A83005527081A830056F3
:100FE000271F202EFE046B6D0127066F0B6F0A6F03
:100FF00001FE046BC601E700FE046B6F096F082059
:1010000016FE046B6F00200FBD5215200ABD521E44
:101010002005CC00FE2003CC000138DF0E39DE0EA7
:101020003C349F0ECEE84CCC0001ED024F5FED004A
:10103000CEE268E60018DE0E18E701F70476CEE887
:1010400020EC02FD0473EC00FD0471FE04733C8F80
:101050003C18E601BD10BCCEE269E700CEE204CC4C
:101060000001ED024F5FED0038383138DF0E39DE18
:101070000E3C9F0ECEE84CCC0100ED024F5FED0020
:10108000CEE204CC0100ED024F5FED00BD288938AF
:10109000DF0E39DE0E3C9F0ECEE84CCC8000ED0218
:1010A0004F5FED007C6212BD5475CEE204CC80002F
:1010B000ED024F5FED0038DF0E39DE0E3C9F0ECEA5
:1010C000E84CCC0200ED024F5FED00CEE204CC0212
:1010D00000ED024F5FED00F66219CEE246E7005CDC
:1010E000F7621938DF0E39DE0E3C9F0ECEE63FE682
:1010F00000C5012750CEE801E6004F1A83000627FD
:10110000232E081A8300042710203A1A8300082788
:101110001E1A83000A2723202CCEE800C604E7000D
:10112000C605201FCEE800C606E700C6072014CE7D
:10113000E800C608E700C6092009CEE800C60AE7AD
:1011400000C60BE700CEE204CC0400ED024F5FEDD9
:1011500000CEE84CCC0400ED024F5FED0038DF0E0E
:1011600039DE0E3C9F0ECEE84CCC1000ED024F5FF6
:10117000ED00CEE204CC1000ED024F5FED0038DF51
:101180000E39DE0E3C9F0ECEE84CCC4000ED024FF7
:101190005FED00CEE204CC4000ED024F5FED00CEEB
:1011A000E246C6AEE70038DF0E39DE0E3CDE083C14
:1011B000DE0A3CDE0C3C9F0EDE103CDE123CDE14F0
:1011C0003CDE163CCEE208EC02DD12EC00DD10CE77
:1011D000E204EC02DD16EC00DD14DC12DE10BD5D75
:1011E000DA9416D4178F9414D4158FDD16DF144FAC
:1011F0005F8F8410C4008F8C00002604DD08270355
:10120000BD43BACEE208EC02DD12EC00DD10DC12C8
:10121000DE10BD5DDA9416D4178F9414D4158FDDCB
:1012200016DF144F5F8F8402C4008F8C00002604E9
:10123000DD082703BD40F6DE144F5F8F8408C4002D
:101240008F8C00002604DD082703BD417ADC16845C
:1012500004C400CE00002604DD082703BD11E7DC2E
:10126000168401C400CE00002604DD082703BD114A
:101270006FDC1685802703BD1193DC168402C40041
:10128000CE00002604DD082703BD11BADE144F5F2F
:101290008F8400C4108F8C00002604DD082703BD56
:1012A0003397DE144F5F8F8400C4208F8C0000269C
:1012B00004DD082703BD33F6DE144F5F8F8440C47E
:1012C000008F8C00002604DD082703BD0CB7DE1458
:1012D0004F5F8F8404C4008F8C00002604DD082734
:1012E00003BD15E8DE144F5F8F8420C4008F8C008F
:1012F000002604DD082703BD562EDC168420C4001A
:10130000CE00002604DD082703BD5203DC1684400E
:10131000C400CE00002604DD082703BD1282DC16BF
:10132000C5012703BD111EDE144F5F8F8400C480EA
:101330008F8C00002604DD082703BD106138DF16FE
:1013400038DF1438DF1238DF1038DF0C38DF0A38A6
:10135000DF0838DF0E3BDE0E3C9F0ECEE234CC00C1
:1013600064ED024F5FED00CEE23CC602E70038DFDD
:101370000E39DE0E3C9F0ECEE238CC0032ED024F2D
:101380005FED00CEE23CC610E70038DF0E39DE0E1E
:101390003C9F0EDE103CDE123CDE143CDE163C7F31
:1013A00000177F00167F00157F0014CEE84CDC1676
:1013B000ED02DC14ED00CEE244E6007F0012D7130C
:1013C0007F00117F0010CEE848DC12ED02DC10ED4A
:1013D00000DC16DE14C30001240108DD16DF142032
:1013E000CADE0E3C9F0ECC001037364F5F3736CC2E
:1013F0000180BD40ACCC0180BD40DFCEE246C6AA34
:10140000E700383838DF0E39DE0E3C3C9F0EDE1028
:101410003CDE123CDE143CDE163CCC0212BD40DF4A
:10142000DD16DF14C41F18DE0E18E701DC16840079
:10143000C460CE000018CE0005BD5D7E18DE0E181B
:10144000E702DC16DE1418CE0007BD5D7E8C0000BE
:1014500026061A83000127358C000026061A830011
:101460000125188C000026061A83000227348C0000
:101470000026581A830003273B2050DE0E4FE60259
:10148000050505050505EA01CEE248203A18DE0EFD
:101490004F18E60205050505050518EA01CEE249E3
:1014A0002025DE0E4FE602050505050505EA01CEFD
:1014B000E24A201318DE0E4F18E602050505050561
:1014C0000518EA01CEE24BCA20E700CEE8484F5F9C
:1014D000ED02CC0800ED0038DF1638DF1438DF12DB
:1014E00038DF103838DF0E39DE0E3C9F0E38DF0E45
:1014F00039DE0E3C9F0EBFE836FEE83626FB3B3851
:10150000DF0E39DE0E3C9F0EDE103CDE123C188FE3
:10151000DE0EEC07DD12EC05DD10CEE2221AEF0044
:10152000CEE228DC12ED02DC10ED00CEE22118DE66
:101530000E18E60AE700CEE210C601E700CEE22070
:10154000C603E700CEE210E600C50127F7C601E7B3
:101550000038DF1238DF1038DF0E39DE0E3C9F0E08
:10156000CEE222ED00CEE221C60FE700CEE210C6A9
:1015700001E700CEE220E700CEE210E600C5012739
:10158000F7C601E700CEE224EC02EE00183818DFBF
:101590000E39DE0E3C3C9F0EDE103CDE123CDE14AB
:1015A0003CDE163C7F00177F00167F00157F00147D
:1015B000CC0208DE0EED01DC1605DE148F59498FD2
:1015C000C30001240108DD16DF14C60F373418DE0E
:1015D00016183C18DE14183CDE0EEC01BD1603385C
:1015E0003838DE0E1AEE0118081AEF01188C0213B3
:1015F00023C57F00177F00167F00157F0014CE02E1
:101600000818DE0ECDEF0118DE0E18EC01BD165BDA
:10161000DD12DF10DC1605DE148F59498FC300017F
:10162000240108DD16DF14DE109C142607DC121AD4
:1016300093162707CEE246C6FFE70018DE0ECDEE72
:101640000108CDEF018C021323BDCEE246C6AAE706
:101650000038DF1638DF1438DF1238DF103838DF93
:101660000E39DE0E3C9F0ECEE60FE600544FC4014D
:10167000CE00002604DD0827EE38DF0E39DE0E3CF2
:101680009F0EDE103CDE123C18CEE60018EC02DDA8
:101690001218EC00DD10DC12DE1084FFC4FE18ED21
:1016A00002CDEF0018CEE61018EC02DD1218EC00A7
:1016B000DD10DC12DE1084FFC4FE18ED02CDEF0059
:1016C00038DF1238DF1038DF0E39DE0E3C9F0EDEB9
:1016D000103CDE123CDE143CDE163CDD08270B4FCE
:1016E0005FDD16CC0080DD14200C7F00177F001614
:1016F0007F00157F001418CEE60418EC02DD1218E6
:10170000EC00DD10DC12DE108F84FFC47F8F9A1690
:10171000DA178F9A14DA158F18ED02CDEF0038DF43
:101720001638DF1438DF1238DF1038DF0E39DE0EDE
:101730003C9F0EDE103CDE123CDE143CDE163CDD2F
:1017400008270B4F5FDD16CC0100DD14200C7F0055
:10175000177F00167F00157F001418CEE60418ECE2
:1017600002DD1218EC00DD10DC12DE108F84FEC4E6
:10177000FF8F9A16DA178F9A14DA158F18ED02CDAB
:10178000EF0038DF1638DF1438DF1238DF1038DFAB
:101790000E3918DE0E183C9F0E18DE10183C18DEAD
:1017A00012183C18DE14183C18DE16183C8F8403FF
:1017B000C4FF8FDD16DF1418CEE60818EC02CDEE5C
:1017C000004F5F8F84FCC4008FDD12DF10DC16DE5B
:1017D000149A12DA138F9A10DA118F18ED02CDEFE6
:1017E00000CEE604EC02DD12EC00DD10DC12DE10AF
:1017F0008F8A02CA008FDF10CEE604ED02DC10ED06
:1018000000BD1762CEE604EC02DD12EC00DD10DC58
:1018100012DE108F84FDC4FF8FDF10CEE604ED02D0
:10182000DC10ED0038DF1638DF1438DF1238DF1037
:1018300038DF0E39DE0E3C9F0ECC0001BD17CABD4D
:1018400017624F5FBD17CA38DF0E3918DE0E183C1D
:101850009F0E18DE10183C18DE12183C18DE141803
:101860003C18DE16183C8401C4FFCE0000DD16DFF4
:101870001418CEE60418EC02DD1218EC00DD10DCC2
:1018800012DE1084FEC400DD12DC16DE149A12DAB9
:10189000138F9A10DA118F18ED02CDEF0018EC02B9
:1018A000DD1218EC00DD10DC12DE108F8A04CA0095
:1018B0008F18ED02CDEF00BD176218CEE60418ECCC
:1018C00002DD1218EC00DD10DC12DE108F84FBC488
:1018D000FF8F18ED02CDEF0038DF1638DF1438DF48
:1018E0001238DF1038DF0E3918DE0E183C3C3C9FF2
:1018F0000E18DE10183C18DE12183C18DE14183CC6
:1019000018DE16183CDD1218DE0E18EC0BDD16186A
:10191000EC09DD14DC1218CE0004BD5D6B8403C439
:10192000F0CE000018DE0E18ED03CDEF0118DF0A2F
:1019300018CEE60018EC02DD1218EC00DD10DC1207
:10194000DE1084FCC40F18DF0C18DE0A18AA031876
:10195000EA048F18AA0118EA028F18DE0C18ED02AB
:10196000CDEF00DC16DE148F8403C4FF8F18DE0A6F
:1019700018ED03CDEF0118CEE60818EC02CDEE000D
:101980004F5F8F84FCC4008F18DF0C18DE0A18AA82
:101990000318EA048F18AA0118EA028F18DE0C183F
:1019A000ED02CDEF0038DF1638DF1438DF1238DFF4
:1019B00010383838DF0E3918DE0E183C9F0E18DE4E
:1019C00010183C18DE12183C18DE14183C18DE16ED
:1019D000183C8C00002604DD08270BCC0008DD161F
:1019E0004F5FDD14200C7F00177F00167F00157FEE
:1019F000001418CEE60018EC02DD1218EC00DD1021
:101A0000DC12DE1084FFC4F79A16DA178F9A14DA04
:101A1000158F18ED02CDEF00CEE604EC02DD12ECDE
:101A200000DD10DC12DE108F8A00CA808FDF10CE3E
:101A3000E604ED02DC10ED00BD1762CEE604EC0218
:101A4000DD12EC00DD10DC12DE108F84FFC47F8F0E
:101A5000DF10CEE604ED02DC10ED0038DF1638DFD3
:101A60001438DF1238DF1038DF0E39DE0E3C9F0EDF
:101A7000DE103CDE123CDE143CDE163CBD177D4F12
:101A80005FBD1934CC0001CE0000BD194BC6FF1854
:101A9000CEE24618E700CC0002CE0000BD194BC6CE
:101AA000FE18CEE24618E700CC0004CE0000BD19B7
:101AB0004BC6FD18CEE24618E700CC0008CE000069
:101AC000BD194BC6FC18CEE24618E700CC0040CE4C
:101AD0000000BD194BC6FB18CEE24618E700CC004B
:101AE00080CE0000BD194BC6FA18CEE24618E700BA
:101AF0007F00137F00127F00117F0010CC0001CE09
:101B00000000BD194BCC0001CE0000BD1AB7DE129B
:101B10003C3CCCC0003736CC00053736CC0001BD8C
:101B200019E8CC0001BD182EBD17624F5FBD182EFD
:101B3000DC12DE10BD1AB7CC0002CE0000BD194B7E
:101B4000C6F818CEE24618E700CC0001CE0000BD72
:101B5000194BCC0001CE0000BD1AB7CC0001BD1856
:101B60002EBD17624F5FBD182EBD1762DC12DE104E
:101B7000BD1AB7BD1762CC0002CE0000BD194BCC18
:101B80000001CE0000BD194B3838383818CEE610A9
:101B9000DC16DE14BD5DDADD12DF1018EC02CDEECE
:101BA000009412D4138F9410D4118F18ED02CDEF3E
:101BB00000BD1762CC0002CE0000BD194BCC000165
:101BC000BD1934CC0001BD17CABD17624F5FBD17E8
:101BD000CAC6F618CEE24618E700CC0001BD17CA07
:101BE000BD17624F5FBD17CAC6F518CEE24618E7AB
:101BF0000038DF1638DF1438DF1238DF1038DF0E18
:101C000039DE0E3C9F0ECEE60FE600C40227F73801
:101C1000DF0E39DE0E3C9F0EC601CEE604E7008DD6
:101C2000E0CEE6046F0038DF0E39DE0E3C9F0ECEAC
:101C3000E607E700C604CEE604E7008DC4CEE6045E
:101C40006F0038DF0E39DE0E3C9F0EDE103CDE12D8
:101C50003CCEE604EC02DD12EC00DD10DC12DE10FE
:101C60008F8A00CA808FDF10CEE604ED02DC10ED13
:101C7000008D8ECEE604EC02DD12EC00DD10DC12ED
:101C8000DE108F84FFC47F8FDF10CEE604ED02DC10
:101C900010ED0038DF1238DF1038DF0E39DE0E3C71
:101CA0003C9F0ECEE603585858C40818DE0E18E7BD
:101CB00002E600C4F718E70118E60218EA01E70097
:101CC0008D843838DF0E39DE0E3C3C9F0ECEE61395
:101CD0001C0001CEE603585858C40818DE0E18E759
:101CE00002E600C4F718E70118E60218EA01E70067
:101CF000CEE6061C0008FC017EFE017CBD485C1897
:101D0000CEE60F18E600C5012609CEE206E600C5BC
:101D10000227EC18E600C50127035F2002C601CEAA
:101D2000E6061D0008CEE6131D00014F3838DF0E11
:101D300039DE0E3C9F0ECEE6031C0001CC0006CE21
:101D40000000BD48A8CEE6031D000138DF0E39DED5
:101D50000E3C3C3C9F0EDE103CDE123CDE143CDEB2
:101D6000163CBD054FCE00004F18CE0015BD5D6B73
:101D70004F5F8F8403C4E08FDD16DF1418CEE66C4E
:101D800018EC02DD1218EC00DD10DC12DE108F847E
:101D9000FCC41F8FDF10DC16DE149A12DA138F9A40
:101DA00010DA118F18ED02CDEF00C601BD1D2A1803
:101DB000DE0E186F0118CEE60318E600544FC4017A
:101DC000CE0000262FDD08262B18E6004FC401CEDA
:101DD00000002620DD08261CFC0196FE0194260446
:101DE000DD08270BC60FBD1DC7DE0EE7012005C6A7
:101DF0000FBD1D9D18DE0E186D0127037E20C7FE46
:101E00000462EC128403C4F2CE0000DD16DF141865
:101E1000CEE60018EC02DD1218EC00DD10DC12DE5C
:101E20001084FCC40D8F84F8C40F8FDD12DF10DC2A
:101E300016DE149A12DA138F9A10DA118F18ED0247
:101E4000CDEF00FC01A6FE01A4BD48A818FE046267
:101E500018EC128400C401CE0000DD1618DF0A1849
:101E6000CEE60018EC02DD1218EC00DD10DC12DE0C
:101E70001084FFC4FEDD12DC16DE149A12DA138F12
:101E80009A10DA118F18ED02CDEF00DE0AEC16DDA4
:101E900012EC14DD1018CEE604DC12DE1084F0C45F
:101EA000008F8400C43F8FDD16DF1418EC02DD12B2
:101EB00018EC00DD10DC12DE10840FC4FF8F84FFED
:101EC000C4C08FDD12DF10DC16DE149A12DA138F15
:101ED0009A10DA118F18ED02CDEF00CEE60818DE69
:101EE0000A18EC1AED0218EC18ED00CEE851E600E5
:101EF0005418DE0E18E702DE0AEC1ADD12EC18DDCB
:101F000010DE108F8403C4FF8F18E602C40137343B
:101F1000DC12BD212318FE0462CEE79018EC1EED02
:101F20000218EC1CED00CEE79418EC22ED0218EC40
:101F300020ED00BD1D133131FE0462EE104F5F8FA6
:101F40008407C4F08FDD16DF1418CEE60018EC020B
:101F5000DD1218EC00DD10DC12DE108F84F8C40FE7
:101F60008FDF10DC16DE149A12DA138F9A10DA1152
:101F70008F18ED02CDEF0018CEE60318E600544F9F
:101F8000C401CE0000263ADD08263618E6004FC40C
:101F900001CE0000262BDD082627BD1D46FC01963C
:101FA000FE01942604DD08270F18DE0E18E601BD99
:101FB0001DC7DE0EE701200918DE0E18E601BD1D63
:101FC0009DDE0E6D0127044F5F2046FE0462E6177A
:101FD000BD1D2ABD054FC41F18DE0E18E70418CE1C
:101FE000E66D18E600C4E018DE0E18E70318E604F4
:101FF00018EA03CEE66DE700FC0462C3001018CEB9
:102000000018183C3736CC02F4BD5CDACC0001383D
:102010003838DF1638DF1438DF1238DF1038383838
:10202000DF0E3918DE0E183C3C3C3C9F0E18DE10CB
:10203000183C18DE12183C18DE14183C18DE0E1876
:10204000ED04CDEF027F0015FC6216DD12FC621478
:10205000CDA30225092246DC12CDA304223FFC6257
:1020600020DD12FC621E18DE0ECDA30225092225FA
:10207000DC12CDA304221EFC6210DD12FC620E18DD
:10208000DE0ECDA302250E2207DC12CDA30423050C
:102090007F00152008188FC601D715188FD6151880
:1020A000DE0E18E10C2718CEE851E600C4FD18E753
:1020B00006D6155818E70118E60618EA01E7004F9A
:1020C000D61538DF1438DF1238DF1038383838DFEB
:1020D0000E39DE0E3C9F0ECEE6041C0002BD1D0133
:1020E000CEE6041D000238DF0E39DE0E3C308FC311
:1020F000FFE68F359F0EDE103CDE123CDE143CDE28
:10210000163CBD054FCE00004F18CE0015BD5D6BCF
:102110004F5F8F8403C4E08FDD16DF1418CEE66CAA
:1021200018EC02DD1218EC00DD10DC12DE108F84DA
:10213000FCC41F8FDF10DC16DE149A12DA138F9A9C
:1021400010DA118F18ED02CDEF00F6045CD711F60E
:10215000045BD111240CD709DE088F4F8FCC00010E
:102160002011188FD611188F8F18DF08D6094F8FBE
:10217000CC0010BD5DE1CE00004D2A010918DE0E35
:1021800018ED13CDEF11FC01A2DD12FC01A0DD1052
:10219000DC12DE1018A41318E4148F18A41118E42C
:1021A000128F8C00002604DD08272B18CE0008189B
:1021B0003C18CE0000183CCC000837367F000B7F5F
:1021C000000ADC0A37363734BD4E2B1830188FC35F
:1021D000000A188F183518CEE60018EC02CDEE0074
:1021E0004F5F8F8407C4F08F18DE0E18ED17CDEF08
:1021F00015DD0CDC0EDD0ADC0C18CE0014BD5D7E96
:1022000018DF0C18DE0A18ED17CDEF1518E70E18B9
:10221000DE0CC107225018CEE60018EC02DD1218C1
:10222000EC00DD10DC12DE108F84F8C40F8FDF109D
:10223000CE0001DF0CDE0AE60EDE0C3A8FCE000087
:1022400018CE0014BD5D6B4F5F8F8407C4F08F9A6A
:1022500012DA138F9A10DA118F18CEE60018ED02F9
:10226000CDEF00BD1D4618CEE79018EC02DD121828
:10227000EC00DC128400C40ECE000018ED02CDEF9D
:102280000018CEE79418EC02CDEE004F5F8F84FC6F
:10229000C4008F18ED02CDEF0018DE0E18E60EC157
:1022A00007224A18CEE60018EC02DD1218EC00DD19
:1022B00010DC12DE108F84F8C40F8FDF1018DE0ED2
:1022C000CE00004F18E60E18CE0014BD5D6B4F5FB8
:1022D0008F8407C4F08F9A12DA138F9A10DA118F55
:1022E00018CEE60018ED02CDEF00BD1D46BD21D28F
:1022F000CEE608EC02DD16EC00DD1418FE046218D0
:10230000EC1ADD1218EC18DD10DC12DE108F8403DD
:10231000C4FF8F18DF0A18DE0E18ED03CDEF01DEC3
:10232000144F5F8F8410C4008F18ED0BCDEF09DCC4
:1023300016DE148F8403C4FF8FDF1484C0C4008FA3
:102340008403C4FF8F18ED07CDEF05DE0AEE104FB2
:102350005F8F8407C4F08F18CE0014BD5D7E18DF38
:102360000C18DE0E18E70F18E61818E70DCEE85126
:10237000E60054C40118E71018E60D18DF0A18DE4D
:102380000C3CDE0AE10F38246418DE0E186C0D18C0
:10239000CEE60018EC02DD1218EC00DD10DC12DED7
:1023A000108F84F8C40F8FDF1018DE0ECE00004FA0
:1023B00018E60D18CE0014BD5D6B4F5F8F8407C407
:1023C000F08F9A12DA138F9A10DA118F18CEE60076
:1023D00018ED02CDEF00BD1D46CC0004CE0000BDBF
:1023E00048A818DE0E18E60D18E10F259CDC14181D
:1023F000DE0ECDA30123037E258C250ADC16CDA39A
:102400000325037E258C18DE0E18EC07CDEE05C3E0
:102410002000240108DD16DF14DC14CDA301250FF4
:1024200023037E2607DC16CDA30325037E2607DCC7
:1024300016DE1418DE0E18AA0B18EA0C8F18AA095B
:1024400018EA0A8F18CEE60818ED02CDEF0018DE64
:102450000E18E6103734DC16DE14BD2123DE0EE73D
:1024600010BD21D2DC16DE14C32000240108DD16C5
:10247000DF143131DC1418DE0ECDA30125B12303A6
:102480007E2607DC16CDA30325A5207B18DE0E18BB
:10249000EC07CDEE05832000240109DD16DF14DCF6
:1024A00014CDA3012209255FDC16CDA3032358DC3C
:1024B00016DE1418DE0E18AA0B18EA0C8F18AA09DB
:1024C00018EA0A8F18CEE60818ED02CDEF0018DEE4
:1024D0000E18E6103734DC16DE14BD2123DE0EE7BD
:1024E00010BD21D2DC16DE14832000240109DD1684
:1024F000DF143131DC1418DE0ECDA30122B1250723
:10250000DC16CDA30322A818FE0462CEE60818EC60
:102510001AED0218EC18ED0018DE0E18E61037342C
:1025200018EC03CDEE01BD2123BD21D218DE0E181B
:10253000E60E18E70D313118E10F236418DE0E188E
:102540006A0D18CEE60018EC02DD1218EC00DD1062
:10255000DC12DE108F84F8C40F8FDF1018DE0ECE71
:1025600000004F18E60D18CE0014BD5D6B4F5F8F55
:102570008407C4F08F9A12DA138F9A10DA118F1829
:10258000CEE60018ED02CDEF00BD1D46CC0004CE16
:102590000000BD48A818DE0E18E60D18E10F229CB9
:1025A00018FE046218EC1EDD1218EC1CDD10DC12A3
:1025B000DE1084FFC4FE18DF0C18CEE79018ED0281
:1025C000CDEF0018DE0CCEE79418EC22ED0218ECEB
:1025D00020ED00BD21D2FE046218CEE790EC1E185B
:1025E000ED02EC1C18ED00BD21D2FC01A2DD12FCB5
:1025F00001A0DD10DC12DE1018DE0E18A41318E4A2
:10260000148F18A41118E4128F8C00002604DD0822
:102610002720CC000837367F000B7F000ADC0A3702
:1026200036CE00003C3C3734BD4E2B308FC3000A01
:102630008F35BD054FC41FDE0EE71A18CEE66D18A4
:10264000E600C4E0E719E61AEA1918E700FC04629C
:10265000C30010CE00183C3736CC02F4BD5CDA382B
:102660003838DF1638DF1438DF1238DF10308FC308
:10267000001A8F3538DF0E39DE0E3C349F0EDE1027
:102680003CDE123CDE0E6F01FC0196FE0194260F2B
:10269000DD0827132009BD1E31C601DE0EE701BD8E
:1026A0001E4F5D27F12003BD1E4FDE0E6D01271E5C
:1026B000FC0192DD12FC0190DD10DC12DE10C30083
:1026C00001240108DF10FD0192DC10FD019038DFCC
:1026D0001238DF103138DF0E39DE0E3C3C349F0EED
:1026E000DE103CDE123CCE0000DF0ADE0EDD0CDC2C
:1026F0000AE701DC0CCEE760EC02DD12EC00DC1234
:102700008403C4FFDE0ADD088FD3088F18DE0E189D
:102710006C0118E601DF0AC10723DACEE72CEC02D0
:10272000DD12EC00DC12843FC4E0CE000018CE00C5
:1027300005BD5D7E3736381A8300FF2F2D18DE0E5B
:10274000DF0CDE0ACDEF028FDE0CDD082A06C300A7
:102750000F18ED0218DE0E18EC0247564756475682
:102760004756DF08D3088BFE2013DC0A2A03C30078
:102770000F4756475647564756DF08D30838DF12EB
:1027800038DF10383138DF0E39DE0E3C3C3C3C3C43
:102790009F0EDE103CDE123CCEE230FC01F6ED0274
:1027A000FC01F4ED00CEE23CC601E700F601D8C121
:1027B0000127037E2A27BD27D9DD0AFE01EEDF08A7
:1027C0009308DD122A064F5F9312DD129C0A2C0B30
:1027D000DC121AB301E62C157E2A279C0A2E037EF2
:1027E0002A27DC121AB301E82C037E2A2718FE01DF
:1027F000EC18DF10DC121A93102F1C9C0A2C0D18F9
:10280000DF0ADC0ADF08D308DD0A200BDF0A18DF45
:10281000088F93088FDF0AFE01DADF10DC0A1A93B3
:10282000102C1118DE0E186F02186F01FE01E4DF84
:10283000107E29CE18FE01DC189C0A2F26FE01E02E
:1028400018DE0ECDEF01DC10BD5D91DD082A03C35B
:10285000000F4756475647564756DD10FC01E49394
:10286000102069DC0A1AB301DE2C58FC01E2DE0EEE
:10287000ED0118DF08DC089310ED05FC01E0ED0721
:10288000EC05EE07BD5D91DD082A03C3000F475636
:10289000475647564756DE0EED03EC01183C38BD4F
:1028A0005D91DD082A03C3000F4756475647564738
:1028B00056DD1018DE0E18EC03931018ED05F30129
:1028C000E42009DE0E6F026F01FC01F8DD1018DE56
:1028D0000E18EC011AB301F0270FDC121AB301EA4B
:1028E0002D4518EE0118FF01F0FC01F0DE0ABD5D78
:1028F00091DD082A03C3000F4756475647564756EF
:10290000D310FE01E4DF081A93082D0AFE01F8DF58
:10291000081A93082F018FFD01F2F601F3CEE76F3D
:10292000E700DC0AFD01EE38DF1238DF10383838F6
:102930003838DF0E39DE0E3C9F0EC601F701D8BDD8
:1029400027D98FFC01E605F301E62A03C3000147FE
:1029500056DD088F93088FFF01EEBD288938DF0E02
:1029600039DE0E3C9F0E7F01D838DF0E39DE0E3C7B
:102970003C3C349F0EDE103CDE123CDE143CDE0E8E
:10298000E7014FE60B050505050505C3755CDD147C
:102990006F025FF17518247F18DE0E18E602186FBB
:1029A0000418E7055C18E70318E601270A18EC0489
:1029B0000505C3751E200818EC040505C3751C1811
:1029C0008FCDEE0018DE0E4F18E6020505DF0CDE97
:1029D00014DD088FD3088FEC02DD12EC00DE0CDD75
:1029E000108FCE000018CE000DBD5D6B8A00CA0F9F
:1029F00037363CCC0829BD3FB9DE123CDE103CCC5A
:102A00000A21BD3FB93838383818DE0E18E60318E9
:102A1000E702F17518258138DF1438DF1238DF102E
:102A200038383138DF0E39DE0E3C9F0ECEE61E1DE3
:102A3000000118FE0462CEE62418EC2AED0218EC20
:102A400028ED00CEE62818EC2EED0218EC2CED0057
:102A5000CEE62C18EC32ED0218EC30ED00CEE6306C
:102A600018EC36ED0218EC34ED0038DF0E39DE0ECE
:102A70003C9F0EDE103CDE123CDE143CDE163CCEEB
:102A8000E61C1D000218FE0462CEE85C18EC42ED64
:102A90000218EC40ED00CEE86018EC46ED0218ECB0
:102AA00044ED00CEE61E1D00081C0040CEE648188E
:102AB000EC3ADD1218EC38DD10DC12DF0ADE10848F
:102AC000FFC41F8F8400C4FF8FDD16DF1418DF0CD6
:102AD00018DE0A18EC02DD1218EC00DD10DC12DE44
:102AE000108400C4E08F84FFC4008FDD12DF10DC8F
:102AF00016DE149A12DA138F9A10DA118F18ED027B
:102B0000CDEF0018DE0CCE00004F18E63C18CEE6E4
:102B10004C18E700CEE61DE600C50127F7CEE61EFD
:102B20001C000838DF1638DF1438DF1238DF1038A1
:102B3000DF0E39DE0E3C3C9F0ECEE61E1C00011D52
:102B40000040BD054FC40FDE0EE70218CEE66E183A
:102B5000E600C4F0E701E602EA0118E700FC0462BF
:102B6000C30028CE00243C3736CC030CBD5CDA38D9
:102B7000383838DF0E39DE0E3C308FC3FFE78F3533
:102B80009F0EDE103CDE123CDE143CDE163CDE0EF8
:102B90006F14BD054F5858585818DE0E18E719180D
:102BA000CEE66E18E600C40F18DE0E18E71518E61C
:102BB0001918EA15CEE66EE700BD2B27F602E526CA
:102BC00007FE0462E601274ECC0A7DBD400D4F5F33
:102BD0008F8400C4018F8C00002604DD08270E7F3F
:102BE000019B7F019A7F01997F0198200BCC000106
:102BF000FD019A4F5FFD0198FC019ADD12FC0198DE
:102C0000FE0462E6013734D613BD2A6DFE0462E687
:102C100001F702E53131FE0462E60618DE0E186F98
:102C20001618E71718EC1604040404C40118E71377
:102C3000F67001C504270B18EC168400C410DD08DB
:102C40002705C60118DE0E18E711F6045CD711F649
:102C5000045BD111240CD709DE088F4F8FCC010003
:102C60002011188FD611188F8F18DF08D6094F8FB3
:102C7000CC1000BD5DE1CE00004D2A0109DD16DF5C
:102C80001418DE0E186F12FC01A2DD12FC01A0DD8B
:102C900010DC169412D4138F9410D4118F8C000072
:102CA0002604DD082708C60118DE0E18E712CEE25A
:102CB000646F00CEE66CE60054544FC403CE0000AF
:102CC00026061A83000327057D04642708C6011819
:102CD000DE0E18E714BD3CF05D2706DE0EE6142775
:102CE00003BD53FFCEE264C607E7001D000118DEF6
:102CF0000E18E612271DCE00103CCE00003CCC0082
:102D00001037364F5F37363734BD4E2B308FC30008
:102D10000A8F35CEE211C6F0E70018CE400F183CFE
:102D200018CE0153183CCC0829BD3FB93838CE0025
:102D3000043CCE00003CCC0A21BD3FB93838CEE27D
:102D400011E6008400C4F01A8300F026F1C6F0E713
:102D500000CC0004CE0000BD4BC2BD511DFC019E45
:102D6000FE019CBD485C18DE0E186D112708CEE6EA
:102D70001E1C00042006CEE61E1D0004CEE61EE644
:102D800000C4DF18DE0E18E71918E6135858585813
:102D90005818E71818E61918EA18E700BD2B6EBD99
:102DA0004A51BD4B52CEE648E600C50127F7CEE2B8
:102DB00006E600C50227F7CEE20A1C0002CEE84074
:102DC000FC019AED02FC0198ED00FE0462188FE60A
:102DD00006188F18DF167F00167F00157F0014DCA1
:102DE00016DE1418CE0018BD5D6BDD16DF14FC0175
:102DF0009ADD12FC01982604DC12270ADC16DE1488
:102E00008A00CA062008DC16DE148A00CA05DD1214
:102E1000DF10CC400F3736CC01533736CC0829BDF4
:102E20003FB93838DE123CDE103CCC0A21BD3FB938
:102E30003838CE00013CCE00003CCC082BBD3FB959
:102E40003838FE04624FE606CE000018CE0018BDEA
:102E50005D6B8A00CA0ADD12DF10CE400F3CCE0146
:102E6000533CCC0829BD3FB93838DE123CDE103C5B
:102E7000CC0A21BD3FB93838CC000ACE0000BD4B8A
:102E8000C2CC0A9ABD400DCEE211C6F0E700CEE2F8
:102E900011E6008400C4F01A8300F026F1C6F0E7C2
:102EA00000FE04624FE606CE000018CE0018BD5D9D
:102EB0006B8A00CA10DD12DF10CE400F3CCE0153EA
:102EC0003CCC0829BD3FB93838DE123CDE103CCC82
:102ED0000A21BD3FB93838CEE61C1C0002CE0000E6
:102EE0003C3CCC082BBD3FB93838CEE2641C00080E
:102EF00018CEE26018EC02DD1618EC00DD14FC01BF
:102F0000AADD12FC01A8DD10DE149C102515220795
:102F1000DC161A9312230C18EC02FD01AA18EC001F
:102F2000FD01A818DE0E186D12271ACE00103CCE37
:102F300000003C4F5F373637363734BD4E2B308F6D
:102F4000C3000A8F35CEE260EC02DD16EC00DD1422
:102F5000FC01AEDD12FC01ACDD1018DE14189C1073
:102F600025292206DE169C122321FC01B2DD12FC6B
:102F700001B0DD10DC12DE10C30001240108DF10F7
:102F8000FD01B2DC10FD01B0BD53FFBD2C33FE04CA
:102F900062E606F702EAE607F702EBCC000138DF4B
:102FA0001638DF1438DF1238DF10308FC300198F66
:102FB0003538DF0E39DE0E3C3C3C3C9F0EDE103CCB
:102FC000DE123CDE0EE701CC40003736CC01533731
:102FD00036CC0829BD3FB93838CC0A21BD400DDDBB
:102FE00012DF1018CEE61C18E600DE0EE70354E7E9
:102FF00004C401E70218CEE211C6F018E700DC12A3
:10300000DE1084FFC4008A00CA04DD12CC400F37F2
:1030100036CC01533736CC0829BD3FB93838DE12DB
:103020003CDE103CCC0A21BD3FB93838CEE211E677
:10303000008400C4F01A8300F026F1C6F0E700CC4B
:103040000004CE0000BD4BC2CEE61C1D000218DEFF
:103050000E186D012703BD31ECCE00013CCE0000FF
:103060003CCC082BBD3FB93838DC12DE1084FFC4DD
:10307000008A00CA0ADD12CC400F3736CC01533724
:1030800036CC0829BD3FB93838DE123CDE103CCCC6
:103090000A21BD3FB93838CEE211E6008400C4F001
:1030A0001A8300F026F1C6F0E700CC000ACE00003B
:1030B000BD4BC2CEE61CE600C4FD18DE0E18E706C6
:1030C00018E6025818E70518E60618EA05E700189A
:1030D000CE0000183C183CCC082BBD3FB93838381E
:1030E000DF1238DF1038383838DF0E39DE0E3C9FFB
:1030F0000EBD2B27BD2B6EBD2C3338DF0E39DE0EF7
:103100003C9F0EDE103CDE123CCC0A7DBD400D4FD4
:103110005F8F8400C4018F8C000027037E3347DD5E
:103120000827037E3347CC0001FD019A4F5FFD0164
:1031300098FC019ADD12FC0198FE0462E601373426
:10314000D613BD2A6DCEE8C21D00013131BD53FF3B
:10315000BD3CF0CEE211C6F0E70018CE400F183C9F
:1031600018CE0153183CCC0829BD3FB93838CC00E3
:103170000437364F5F3736CC0A21BD3FB93838CED9
:10318000E211E6008400C4F01A8300F026F1C6F0D4
:10319000E700FC019ADD12FC0198CEE840D613E767
:1031A00000FE04624FE606CE000018CE0018BD5D9A
:1031B0006B8A00CA06DD12DF10CC400F3736CC0117
:1031C000533736CC0829BD3FB93838DC123736DCE6
:1031D000103736CC0A21BD3FB93838CEE211E600AF
:1031E0008400C4F01A8300F026F1C6F0E700FE0464
:1031F000624FE606CE000018CE0018BD5D6B8A0057
:10320000CA0ADD12DF10CC400F3736CC01533736F7
:10321000CC0829BD3FB93838DC123736DC103736D8
:10322000CC0A21BD3FB93838CEE211E6008400C493
:10323000F01A8300F026F1C6F0E700FC01CAFE0197
:10324000C8BD48A8BD541338DF1238DF1038DF0E70
:103250003918DE0E183C9F0E18DE10183C18DE12CE
:10326000183CDD12DF1018CEE647181C0010F604DB
:1032700060DE0EE1062507DC12CE0000DF10CEE690
:10328000D4DC12ED02DC10ED00181D001038DF1246
:1032900038DF1038DF0E39DE0E3C349F0ECEE84C9E
:1032A0004F5FED02CC0010ED00CEE63FE600C50119
:1032B0002733F6045FDE0EE701262AF76208F604DC
:1032C0005BC10122207C6207F66207F1033C230CFC
:1032D000BD05FCDE0EE601F762072009CEE6471CBD
:1032E00000101D0010CEE2044F5FED02CC0030ED67
:1032F000003138DF0E39DE0E3C349F0ECEE84C4FE5
:103300005FED02CC0020ED00CEE63FE600C50127D0
:1033100034F6045FDE0EE701262BF76207F6045B46
:10332000F1046023207C6208F66208F1033D230C5F
:10333000BD0615DE0EE601F762082009CEE6471C41
:1033400000101D0010CEE2044F5FED02CC0030ED06
:10335000003138DF0E39DE0E3C9F0EDE103CDE12EF
:103360003CDE143CDE163CCEE647E600C5012703F2
:103370007E355018FE046218EC26DD1618EC24DDAC
:1033800014FC030ADD12FC0308DD10DE149C102679
:103390000ADC161A931226037E3550DE149C102286
:1033A0005E2507DC161A931224558F18E6008FDF6E
:1033B000127F00127F00117F0010CC400F3736CCF7
:1033C000013F3736CC0829BD3FB93838DE123CDE24
:1033D000103CCC0A21BD3FB93838F602E6C10126BF
:1033E0001EFE0462E6022617CEE7FFC608E700CEFF
:1033F000E211E600C50427F7C604E7007F02E6BD38
:1034000049CAFC01C6FE01C4BD48A8F67001C50842
:103410002705BD1E4F2003BD21EABD4A0FCEE20A9B
:103420001C000218CEE206C60218E7001C0002F6D5
:1034300002E6261CFE0462E602C1012613CEE7FF67
:10344000C609E700CEE211C604E700C601F702E6AE
:10345000FE0462188FE600188F18DF127F00127FBB
:1034600000117F0010CE400F3CCE013F3CCC08291C
:10347000BD3FB93838DE123CDE103CCC0A21BD3FDE
:10348000B93838FE0462EC16DD12EC14DD1018CEEB
:10349000E604DC12DE1084F0C4008F8400C41F8FA9
:1034A000DD16DF1418EC02DD1218EC00DD10DC1262
:1034B000DE10840FC4FF8F84FFC4E08FDD12DF10A5
:1034C000DC16DE149A12DA138F9A10DA118F18EDC7
:1034D00002CDEF00CC000138DF1638DF1438DF12E0
:1034E00038DF1038DF0E39DE0E3C3C3C3C3C9F0E92
:1034F000DE103CDE123C18FE046B186D0026037EC5
:10350000376FCEE2641C000818EC0A0518E30A05C0
:10351000050518DF08D308C3000CDE0EED07CEE268
:1035200060DD0AEC0218DF0C18DE0A18ED02EC0070
:1035300018ED0018DE0C18EC0A0518E30A0505055D
:10354000DD08188FD308188FF6045C18E714CEE84E
:10355000BCEC02DD12EC00DD1018FE046B18EC0A66
:103560000518E30A050505DD0ADE0A18DF088FD312
:10357000088FDC128403ED1818EC0A0518E30A051D
:103580000505DD0ADE0A18DF088FD3088FCC03FF9C
:103590009410D411ED1A18EC0A0518E30A05050574
:1035A000DD0A18DF08D308CEE740DD0AEC02EC00A4
:1035B000DD10CC07FF9410D411DE0AED1CCEE744D9
:1035C000EC02DD12EC00DD1018EC0A0518E30A0528
:1035D0000505DD0ADE0A18DF088FD3088FDC1284A8
:1035E00007ED1E18EC0A0518E30A050505DD0ADFDC
:1035F0000CDE0A18DF088FD3088FCC07FF9410D495
:1036000011ED20DE0C18EC0A0518E30A0505051873
:10361000DF08D308C3001018DE0E18ED01BD5227D5
:1036200018DE0E18EE0118ED02CDEF00CEE73E1CBD
:1036300000041D00041C00021D0002FC046BDE0ED1
:10364000ED03188F18EC08CEFFFF3C8D3018DE0E0E
:1036500018EE0318ED08FE046B18DE0ECDEF05EC36
:103660000AEE04093C8D16DE0EEE05ED0A383838F8
:10367000DF1238DF103838383838DF0E39DE0E3CCC
:103680009F0EDE0E1AA30526044F5F2003C3000120
:1036900038DF0E39DE0E3C9F0EDE103CDE123C1889
:1036A000FE046B186D00275CCEE668EC02DD12ECC0
:1036B00000DD1018EC0A0518E30A05050518DF08F7
:1036C000D308DE12DD0A18DF0C18DE0ACDEF16185B
:1036D000DE0C18EC0A0518E30A050505DD08188F4D
:1036E000D308188FCC00019410D41118E715C60721
:1036F000CEE264E700CC0001CE0000BD48A8CEE2D7
:10370000641D000138DF1238DF1038DF0E39DE0E9D
:103710003C308FC3FFF28F359F0EDE103CDE123C33
:10372000DE143CDE163CDE0E6F03FC01D2FE01D03F
:103730002604DD08271BCC3DAFBD400D8400C4022C
:10374000CE00002604DD082708C60118DE0E18E7A3
:1037500003BD3D54DE0EED0426136D0326037E3CAF
:103760008EBD3E0E18DE0E18EC047E3C8ECEE66F4B
:10377000F6045CC40F18DE0E18E70CE600C4F0185F
:10378000E70618E60C18EA06E700FE0462E64EF1CA
:1037900003322510E656F1033A2509BD4D9E5D26FC
:1037A000037E3BC1FE0462E603F102E7240BC6017F
:1037B000BD4CAE5D26037E3BC1CEE8C21D000118A4
:1037C000CEA000183C18CE0146183CCC0829BD3FBD
:1037D000B93838CC0A21BD400D84BFC4FFDD12DFEB
:1037E00010CEA00F3CCE01463CCC0829BD3FB938D5
:1037F00038DE123CDE103CCC0A21BD3FB93838CE51
:10380000400F3CCE013F3CCC0829BD3FB93838CEF3
:1038100000083CCE00003CCC0A21BD3FB93838FE40
:103820000462FC032EDD16FC032CDD14EC4ADD12D1
:10383000EC48DD1018DE14189C10251A2206DE163E
:103840009C122312BD2C765D26037E3BC1CC210049
:10385000CE0000BD48A8CEE647E60018DE0E18E709
:103860000E8400C40118ED07267EFE0462EC26DDFE
:1038700016EC24DD14FC030ADD12FC0308DD10182D
:10388000DE14189C1022612506DE169C122459189D
:10389000DE0E186D032716BD3D791A830001270D32
:1038A000BD3E0EBD3DDBDE0EEC077E3C8EF67001AC
:1038B000C5082703BD49CABD345618DE0E18E701F6
:1038C000F67001C5082703BD4A0F18DE0E186D03F8
:1038D000270DBD3E0EBD3DDBDD0826037E3C8EDEA2
:1038E0000E6D0126037E3BC1F6033E8400C4101812
:1038F0008FFE0462E65A8400C410DD08189C082775
:103900004DDD08273818CEE8CA18E6005454545440
:10391000C401DE0EE7022704181D0010BD567DBD50
:103920005918F6033ECA10F7033EBD5BD718DE0EEA
:10393000186D022719CEE8CA1C00102011BD567D53
:10394000BD5BA5F6033EC4EFF7033EBD5BD7CEE6F5
:1039500047E60018DE0E18E70E8400C40118ED09D2
:10396000267EFE0462EC26DD16EC24DD14FC030A40
:10397000DD12FC0308DD1018DE14189C10256122EE
:1039800006DE169C12235918DE0E186D032716BD8D
:103990003D791A830001270DBD3E0EBD3DDBDE0ED5
:1039A000EC097E3C8EF67001C5082703BD49CABDEF
:1039B000345618DE0E18E701F67001C5082703BD5E
:1039C0004A0F18DE0E186D03270DBD3E0EBD3DDB00
:1039D000DD0826037E3C8EDE0E6D0126037E3BC194
:1039E000FE0462FC032EDD16FC032CDD14EC4ADD24
:1039F00012EC48DD1018DE14189C1022112506DE8A
:103A0000169C122409BD2C765D26037E3BC1FE0464
:103A100062E603F102E7230BC601BD4CAE5D26034F
:103A20007E3BC118CE400F183C18CE013F183CCC4D
:103A30000829BD3FB93838CE00093CCE00003CCC47
:103A40000A21BD3FB93838FE0462E607C5082720C1
:103A500018CEA000183C18CE0146183CCC0829BD51
:103A60003FB93838CC0A21BD400D8A40CA00201A1F
:103A7000CEA0003CCE01463CCC0829BD3FB9383829
:103A8000CC0A21BD400D84BFC4FFDD12DF10CEA0E3
:103A90000F3CCE01463CCC0829BD3FB93838DE1278
:103AA0003CDE103CCC0A21BD3FB93838FE0462E64A
:103AB0005AC5012706CEE8C21C0001BD4D9E5D26F9
:103AC000054F5F7E3C8ECEE66FF6045C5858585822
:103AD00018DE0E18E70DE600C40F18E70B18E60D08
:103AE00018EA0BE700CEE6471C001018FE0462FC43
:103AF00002F2DD16FC02F0DD1418EC0EDD1218ECFB
:103B00000CDD10DE149C102607DC161A9312271702
:103B1000CEE6D0DC12ED02DC10ED0018EC0EFD025A
:103B2000F218EC0CFD02F0BD054FFE0462F10460DA
:103B3000220E1AEE0A18DF127F00117F00102008F3
:103B4000EC0ADD12EC08DD10CEE6D4DC12ED02DC6E
:103B500010ED00CEE6471D0010CEE6EEE600BD05F6
:103B60004FCEE7F3E700BD0542CEE7F2E700CEE730
:103B7000EFC6F9E700CEE7EEC601E7006F00FE04EE
:103B800062E658F7033CE659F7033DCC000138DF05
:103B90001638DF1438DF1238DF10308FC3000E8F75
:103BA0003538DF0E39DE0E3C3C3C9F0EF67003C507
:103BB000082735CEE208E60018DE0E18E701CEE24F
:103BC00004E60018E70418E6015318E70218E604B3
:103BD00018E40218E704C508270ECEE24CE600C53B
:103BE000012705CC000120024F5F383838DF0E393D
:103BF000DE0E3C9F0E7D046426547D0465274FFC39
:103C00000136FE0134BD485C2007C608CEE210E74D
:103C100000CEE210E600C508270ECEE206E600C59B
:103C20000226058D805D27E2CEE210E600C508265B
:103C30000FCEE206E600C5022606BD3CA55D27E8DC
:103C4000CEE210E6000404048400C40120024F5FA9
:103C500038DF0E39DE0E3C3C9F0EDE0E6F026F0128
:103C6000CC3D34BD400D5D2607CC0001DE0EED01DC
:103C7000DE0EEC013838DF0E39DE0E3C9F0E4F5F52
:103C800037363736CC3D35BD3FB918CE0001183C2C
:103C900018CE0000183CCC3D31BD3FB9383838381B
:103CA0002020CC3DAFBD400D8400C402CE000026D4
:103CB00008DD0826044F5F201CCC0001CE0000BDAB
:103CC00048A8CC3D34BD400DCE00004F8C000026EE
:103CD00004DD0827CD183818DF0E39DE0E3C9F0EA4
:103CE000201CCC3DAFBD400D8400C402CE00002698
:103CF00004DD082715CC061ACE0000BD48A8CC3D2F
:103D000034BD400D5D26DBCC000138DF0E39DE0E00
:103D10003C9F0ECC000137364F5F3736CC3D35BD6A
:103D20003FB918CE0000183C183CCC3D31BD3FB91E
:103D30003838383838DF0E3918DE0E183C9F0E3808
:103D4000DF0E39DE0E3C9F0ECE00403C18CE76C012
:103D5000183CCC04A9BD5CDA4FF6045C05050505EA
:103D6000C304A9CE00103C3736CC04E9BD5CDA3878
:103D700038383838DF0E39DE0E3C9F0EDE103CDE60
:103D8000123C188FDE0EEC07DD12EC05DD10CEE2E2
:103D9000221AEF00CEE228DC12ED02DC10ED00CE9C
:103DA000E22118DE0E18E60AE700CEE210C601E7AF
:103DB00000CEE220C603E700CEE210E600C50127F0
:103DC000F7C601E70038DF1238DF1038DF0E39DEC2
:103DD0000E3C9F0ECEE222ED00CEE22818DE0E1839
:103DE000E606E700CEE221C608E700CEE210C601F3
:103DF000E700CEE220C603E700CEE210E600C501F0
:103E000027F7C601E70038DF0E39DE0E3C9F0ECEE5
:103E1000E222ED00CEE22918DE0E18E606E700CE1B
:103E2000E221C604E700CEE210C601E700CEE220A0
:103E3000C603E700CEE210E600C50127F7C601E79A
:103E40000038DF0E39DE0E3C9F0ECEE222ED00CEB2
:103E5000E22A18DE0E18E606E700CEE221C602E7E7
:103E600000CEE210C601E700CEE220C603E700CE96
:103E7000E210E600C50127F7C601E70038DF0E397A
:103E8000DE0E3C9F0ECEE222ED00CEE22B18DE0EBF
:103E900018E606E700CEE221C601E700CEE210E711
:103EA00000CEE220C603E700CEE210E600C50127FF
:103EB000F7C601E70038DF0E39DE0E3C9F0EDE103C
:103EC0003CDE123C188FDE0EEC07DD12EC05DD1037
:103ED000CEE2221AEF00CEE228DC12ED02DC10ED79
:103EE00000CEE221C60FE700CEE210C601E700CE09
:103EF000E220C603E700CEE210E600C50127F7C6C0
:103F000001E70038DF1238DF1038DF0E39DE0E3CF3
:103F10009F0ECEE222ED00CEE221C60FE700CEE2F8
:103F200010C601E700CEE220E700CEE210E600C5B1
:103F30000127F7C601E700CEE224EC02EE001838B4
:103F400018DF0E39DE0E3C9F0ECEE222ED00CEE2EF
:103F500021C60FE700CEE210C601E700CEE220E75F
:103F600000CEE210E600C50127F7C601E700CEE269
:103F700024E6004F38DF0E39DE0E3C9F0ECEE222E3
:103F8000ED00CEE221C60FE700CEE210C601E70049
:103F9000CEE220E700CEE210E600C50127F7C60119
:103FA000E700CEE226E6004F38DF0E39DE0E3C9FFA
:103FB0000EDE103CDE123C188FDE0EEC07DD12EC3C
:103FC00005DD10188F05058BE0188FDC1218ED0247
:103FD000DC1018ED0038DF1238DF1038DF0E39DE64
:103FE0000E3C9F0E05058BE0188F18EC02CDEE00FD
:103FF000183818DF0E39DE0E3C349F0EDE103CDE22
:10400000123CC6FFDE0EE701CEE84C4F5FED02CC5E
:104010000200ED00CEE63FE600C504261FFC01C20B
:10402000DD12FC01C0DD10DC12DE108A00CA01FDC9
:1040300001C2FF01C0BD081FDE0EE701DE0E6D01EB
:104040002B06CEE2081C0002CEE2044F5FED02CC4C
:104050000200ED0038DF1238DF103138DF0E39DEB4
:104060000E3C9F0ECEE2044F5FED02CC0200ED004D
:10407000CEE2081D000238DF0E39DE0E3C9F0EDE58
:10408000103CDE123CCEE84C4F5FED02CC0800ED58
:1040900000CEE24CE600C501270FF67001C51027DF
:1040A00005BD43012003BD4256CEE24CE600C502E9
:1040B0002734CEE63FE600C504262BFC01C2DD1204
:1040C000FC01C0DD10DC12DE108A00CA01FD01C255
:1040D000FF01C0BD081F5D2B0DCEE2491D00C0C60B
:1040E00002CEE24CE700CEE2044F5FED02CC0800C6
:1040F000ED0038DF1238DF1038DF0E39DE0E3C9F5E
:104100000EDE103CDE123C7F045EFC01C2DD12FCC0
:1041100001C0DD10DC12DE1084FFC4FBFD01C2FF14
:1041200001C0F67001C501270DCEE24CC601E700C3
:10413000CEE2481C008038DF1238DF1038DF0E393D
:10414000DE0E3C9F0ECEE24CC602E700CEE2491CDA
:10415000008038DF0E39DE0E3C3C349F0EDE103C12
:10416000DE123CC6FF18DE0E18E701C601F7045E3A
:10417000FC01C2DD12FC01C0DD10DC12DE108A0081
:10418000CA04FD01C2FF01C0F67003186F0218E7F0
:104190000318EC02C5082705C601F70464CEE63F04
:1041A000E600C5012730F60340C501262218DE0EC1
:1041B00018EC028400C4071A8300012612C60137D6
:1041C0003418CE76C0183CCC70B8BD079D3838BDC9
:1041D000069BDE0EE70118DE0E186D012B0DCEE2F8
:1041E000481D00C0CEE24CC601E700F67003C508CA
:1041F00027037F046438DF1238DF10383138DF0ED0
:1042000039DE0E3C3C3C9F0EDE103CDE123CC6010B
:1042100018DE0E18E701CEE248E60018E703C4DF17
:1042200018E70418E603C5202624C601F70461FC3C
:1042300001C2DD12FC01C0DD10DC12DE108A00CAF2
:1042400002FD01C2FF01C018E604CA2020217F043C
:1042500061FC01C2DD12FC01C0DD10DC12DE108445
:10426000FFC4FDFD01C2FF01C018DE0E18E60418F0
:10427000E703CEE63FE600C5012707BD069BDE0E3D
:10428000E70118DE0E186D012B0FCEE24CC601E7D8
:1042900000CEE24818E603E70038DF1238DF1038B6
:1042A0003838DF0E39DE0E3C9F0ECEE63FE600CEFC
:1042B000E7F4C60CE70038DF0E39DE0E3C9F0ECE69
:1042C000E84C4F5FED02CC1000ED00CEE63FE6007B
:1042D000C5012703BD46E1CEE2044F5FED02CC10DD
:1042E00000ED0038DF0E39DE0E3C3C3C3C3C9F0EBE
:1042F000DE103CDE123CDE0EE701C601F70500FCD5
:1043000001D6FE01D4260C1A8300012606CEE8C28F
:104310001D000118DE0E18E601186F0718E708CD1A
:10432000EE078C000627232E088C000427187E46F3
:10433000D318DE0E18EC071A83000827111A830021
:104340000A270F7E46D3C604200AC6052006C606E5
:104350002002C60718DE0E18E70218E601F104FF76
:1043600026037E46C7CDEE078C000626037E45E277
:104370002E088C0004271E7E46C718DE0E18EC0798
:104380001A83000826037E45E21A83000A26037E6C
:1043900045E27E46C718CEE64418EC02DD1218EC62
:1043A00000DD10DC12DE1084FDC4FF18ED02CDEF3D
:1043B0000018EC02DD1218EC00DD10DC12DE108AB1
:1043C00001CA0018ED02CDEF0018EC02DD1218EC66
:1043D00000DD10DC12DE1084FEC4FF18ED02CDEF0C
:1043E00000C603BD072518CE0118183CCE70B83C96
:1043F000CC0340BD5CDA18CE0040183CCE76C03C01
:10440000CC04A9BD5CDA7F045CCC0344FD0462BD2E
:10441000054FC40F18DE0E18E70718CEE66F18E632
:1044200000C4F018DE0E18E70318E60718EA03CEFA
:10443000E66FE7004F5FBD4D9EF6033E8400C4105B
:10444000DD10FE0462E65A8400C410383838381A89
:1044500093102709BD567DBD5BA5BD5BD7C601BDC9
:104460004CAEBD2778BD511DBD31EC7F045BCE0045
:10447000103C18CE04A9183CCC04E9BD5CDABD059B
:104480004258585858DE0EE70718CEE66F18E60077
:10449000C40FE704E607EA0418E700C601BD0725D4
:1044A000DE0EE602BD476EFC017AFE0178BD48A82B
:1044B00018FE0462CEE6D418EC0AED0218EC08ED02
:1044C000003838FC04FDDD12FC04FBDD102607DC9F
:1044D0001226037E46C7CEE208DC12ED02DC107E17
:1044E00046C5FC0162FE0160BD48A8CEE644EC0270
:1044F000EC0018DE0E18E602BD476EF604FFC1049C
:1045000027037E46C7C603BD072518CE0118183CF1
:10451000CE71D03CCC0340BD5CDA18CE0040183CD4
:10452000CE77003CCC04A9BD5CDA7F045CCC0344AC
:10453000FD0462BD054FC40F18DE0E18E70718CE44
:10454000E66F18E600C4F018DE0E18E70518E60757
:1045500018EA05CEE66FE700BD2778BD511DBD31D5
:10456000ECC601BD4CAEF6033E8400C410DD10FE67
:104570000462E65A8400C410383838381A93102779
:1045800009BD567DBD5918BD5BD74F5FBD4D9EBD62
:10459000054258585858DE0EE70718CEE66F18E661
:1045A00000C40FE706E607EA0618E7005FBD072527
:1045B000CEE208EC02FD04FDEC00FD04FBCCFBFFA9
:1045C000ED02CCEF7FED007F050018DE0E18E6014E
:1045D000F704FF38DF1238DF103838383838DF0E8C
:1045E00039DE0E3C349F0EDE103CCEE7F5E600D7F8
:1045F00011CCFFFCDB1189001A830008226805C377
:1046000061E9188FCDEE006E00BD43A52058CEE7BE
:10461000F4C604E700C605201FCEE7F4C606E7008F
:10462000C6072014CEE7F4C608E700C6092009CE65
:10463000E7F4C60AE700C60B18DE0E18E701CEE65F
:104640003FE600C502260ACEE7F418E601E700209F
:1046500015D611BD43E7CEE7F418DE0E18E601E7E4
:1046600000D611F704FF38DF103138DF0E39DE0EC7
:104670003C9F0EDE103CDE123CDE143CDE163CD7C6
:1046800011C60F373418CE000F183C18CE00001892
:104690003CCC0829BD3E77C60718CEE26418E70077
:1046A0003838388FD6118FDF127F00127F00117FCC
:1046B0000010CC400F3736CC013F3736CC0829BD2F
:1046C0003FB93838DE123CDE103CCC0A21BD3FB980
:1046D0003838CEE2641D0001CEE211E6008400C449
:1046E000F01A8300F026F1CC1F40CE0000BD48A890
:1046F000CEE2641C000818CEE26018EC02DD161849
:10470000EC00DD14FC018EDD12FC018CDD10DE14EA
:104710009C1025152207DC161A9312230C18EC02A4
:10472000FD018E18EC00FD018CCEE211C6F0E70011
:1047300038DF1638DF1438DF1238DF1038DF0E3973
:10474000DE0E3C9F0EC60ABD43E738DF0E39DE0E93
:104750003C9F0EC604BD43E738DF0E3918DE0E1845
:104760003C9F0E18DE10183C18DE12183CDD12DFDC
:1047700010260DDD082609CC0001DD124F5FDD108B
:10478000CEE234DC12ED02DC10ED00CEE23C1C0087
:1047900002CEE206C602E700CEE20A1D000238DFC2
:1047A0001238DF1038DF0E3918DE0E183C349F0E39
:1047B00018DE10183C18DE12183CDD12DF107D05E3
:1047C00000274418CE0004BD5D6BDD12DF1018DE3B
:1047D0000E186F01CEE264C607E70018DE0E186CF3
:1047E0000118E601C10423ECC606E700CEE264C668
:1047F0000EE700CEE260EC02EE009C1025EE2238BF
:104800001A931225E72031CEE206C602E700CEE277
:1048100034DC12ED02DC10ED00CEE23C1C0002CED6
:10482000E20A1D0002CEE206E600C50227F7C60234
:10483000E700CEE20A1C000238DF1238DF10313800
:10484000DF0E39DE0E3C9F0EDE103CD711CC40004F
:104850003736CC013F3736CC0829BD3FB93838CC84
:104860000A21BD4078D11126F6CC41003736CC0163
:104870003F3736CC0829BD3FB918381838CC0A2143
:10488000BD4078D11126F6CC42003736CC013F37F7
:1048900036CC0829BD3FB918381838CC0A21BD409C
:1048A00078D11126F6CC43003736CC013F3736CCD1
:1048B0000829BD3FB918381838CC0A21BD4078D135
:1048C0001126F638DF1038DF0E39DE0E3C9F0ECC95
:1048D000000437364F5F3736CC082BBD3FB9CC08C4
:1048E0005BBD400D8A00CA0837363CCC085BBD3F33
:1048F000B9CC0879BD400D8A00CA0837363CCC08CF
:1049000079BD3FB9308FC3000C8F3538DF0E39DEEB
:104910000E3C9F0E4F5F37363736CC082BBD3FB964
:10492000CC085BBD400D84FFC4F737363CCC085B38
:10493000BD3FB9CC0879BD400D84FFC4F737363C84
:10494000CC0879BD3FB9308FC3000C8F3538DF0EEE
:1049500039DE0E3C9F0EDE103CDE123CCE60003C89
:10496000CE013E3CCC0829BD3FB93838CC0A21BD28
:10497000400DDD12DF1018FE046218E607C501279E
:1049800008DC128A00CA012008DC12DE1084FFC491
:10499000FEDD1218E607C5022708DC128A00CA02EB
:1049A0002006DC1284FFC4FDDD12DF10CC600F375F
:1049B00036CC013E3736CC0829BD3FB93838DE1237
:1049C0003CDE103CCC0A21BD3FB93838CE60003CFB
:1049D000CE013E3CCC0829BD3FB93838CC0A21BDB8
:1049E000400D9C1026E61A931226E1CE61003CCEC3
:1049F000013E3CCC0829BD3FB93838CC0A21BD4026
:104A00000D9C1026E61A931226E1CE62003CCE01E0
:104A10003E3CCC0829BD3FB93838CC0A21BD400DF9
:104A20009C1026E61A931226E1CE63003CCE013E8E
:104A30003CCC0829BD3FB93838CC0A21BD400D9C7B
:104A40001026E61A931226E138DF1238DF1038DF1D
:104A50000E39DE0E3C9F0EDE103CDE123CCE000016
:104A60003CCE013A3CCC0829BD3FB93838CC0A21AC
:104A7000BD400D84FFC4FEDD12DF10FE04624FE670
:104A80000704048400C401CE00009A12DA138F9A3E
:104A900010DA118FDD12DF10CC000F3736CC013A5F
:104AA0003736CC0829BD3FB93838DE123CDE103C21
:104AB000CC0A21BD3FB9383838DF1238DF1038DF73
:104AC0000E39DE0E3C349F0EDE103CDE123CDE0E54
:104AD000E701CC40003736CC01533736CC0829BD2E
:104AE0003FB918381838CC0A21BD400D18CE00083F
:104AF000BD5D7E8400C4FFCE000018DE0E3718E6D0
:104B000001D70918DE083318DF127F00127F001169
:104B10007F00109C1026BB1A931226B6CE41003C93
:104B2000CE01533CCC0829BD3FB93838CC0A21BD51
:104B3000400D18CE0008BD5D7E8400C4FFCE00008D
:104B40009C1026D81A931226D3CE42003CCE015395
:104B50003CCC0829BD3FB93838CC0A21BD400D18DE
:104B6000CE0008BD5D7E8400C4FFCE00009C1026F0
:104B7000D81A931226D3CE43003CCE01533CCC0826
:104B800029BD3FB93838CC0A21BD400D18CE0008E8
:104B9000BD5D7E8400C4FFCE00009C1026D81A9311
:104BA0001226D338DF1238DF103138DF0E39DE0E2F
:104BB0003C3C3C9F0EDE0EE701CEE8D0E600C40F81
:104BC000DE0EE703BD054F58585858DE0EEA03CEF7
:104BD000E8D0E700FE0462E603F102E7277F5D26E6
:104BE0007CCEE7F7C60DE700C601DE0EE702C6027F
:104BF000CEE206E700CEE20A1C0002DE0EE6012746
:104C000009FC013AFE0138BD485CCEE206E600C56B
:104C1000022620CEE211E600C5012708C601E70002
:104C2000DE0E6F02DE0E6D022709CEE206E600C53B
:104C30000227E0CEE206C602E700CEE20A1C00022E
:104C4000DE0EE6022709CEE7F76F004F5F2049CE60
:104C5000E7F4C60EE700DE0EE602F702E7FE0462A6
:104C6000E603F102E72715C1012611CEE7F4C60CD1
:104C7000E700CEE7F76F00C601F702E7CEE8D0E61F
:104C800000C4F0DE0EE704BD054FC40FDE0EEA04DB
:104C9000CEE8D0E700CC0001383838DF0E39DE0E20
:104CA0003C349F0ECEE63EE600C5042728FE046293
:104CB000E64EF10332271ECEE8D1E600C40FDE0E29
:104CC000E701BD054F58585858DE0EEA01CEE8D12D
:104CD000E700BD502EC601BD4F6ECC00013138DF5C
:104CE0000E39DE0E3C3C9F0E18FE046218E605F1FC
:104CF00002E92732CEE63D585858C40818DF0C1890
:104D0000DE0E18E702E600C4F718E70118E60218FD
:104D1000EA0118DE0CE70018E605F702E9FC01429B
:104D2000FE0140BD48A83838DF0E39DE0E3C3C3C61
:104D30003C3C3C9F0EDE103CDE123CDE143CDE169A
:104D40003CDE0EE70A18DE0EEC13DD12EC11DD106E
:104D5000F66209E702EC17EE15BD5DDADD16DF1429
:104D600018E6105318E704DC12DE1018A41718E434
:104D7000188F18A41518E4168F18ED07CDEF051835
:104D8000E60A18E41018E70918E6022751CEE67C77
:104D9000EC02DD12EC00DD10DC12DE109416D417EC
:104DA0008F9414D4158FDD12DF0CCEE68BE6005401
:104DB000545418E40418E701DC1218AA0718EA088A
:104DC000DF0ADE0C8F18AA0518EA068F18CEE678DF
:104DD00018ED02CDEF00DE0EE601EA092052CEE624
:104DE00078EC02DD12EC00DD10DC12DE109416D43B
:104DF000178F9414D4158FDD12DF0CCEE68BE600EE
:104E000018DE0E18E40418E701DC1218AA0718EAE5
:104E100008DF0ADE0C8F18AA0518EA068F18CEE6FE
:104E20007C18ED02CDEF00DE0EE601EA0958585875
:104E3000DE0AE70018DE0E18E602C801F76209CEA6
:104E4000E63F565656C4C018E70AE600C43F18E7C6
:104E50000318E60A18EA03E70038DF1638DF1438CB
:104E6000DF1238DF10383838383838DF0E39DE0EC8
:104E70003C3C349F0EDE0EE701FE0462F6033AE18D
:104E80005626037E502818CEE8D318E600C40F1823
:104E9000DE0E18E702BD054F58585858DE0EEA02DC
:104EA00018CEE8D318E700FE046218CE7004E65668
:104EB000183AFC70B23736FC70B037364FE65605FC
:104EC00005DD0A18DF0C18DE0A188FC37024188F4E
:104ED000CDEE023CCDEE0018DE0C3CF670A6373469
:104EE00018E600BD4E2B18CEE8D318E600C4F01823
:104EF000DE0E18E703BD054FC40FDE0EEA0318CE21
:104F0000E8D318E70030C60A3A35FE0462EC56FDD5
:104F1000033AEC54FD033818DE0E18E6012709FCAD
:104F20000146FE0144BD48A8383138DF0E39DE0E97
:104F30003C3C3C349F0EF6033218DE0E18E701FEAF
:104F40000462E14E26037E50EAFE0462F670A41865
:104F5000DE0E18E703F67001C502271218E601E11C
:104F60004E24035C200D18DE0E186A012008E64E60
:104F700018DE0E18E70118DE0E18E601186F041887
:104F8000E705CDEE048FC370048FFC70AA3736FCA2
:104F900070A8373618EC040505DD0ADF0CDE0A8F31
:104FA000C370248FEC023736EC00DE0C373618E67F
:104FB000033734E600BD4E2BFE04621830C60A18D3
:104FC0003A183518DE0E18E601E14E26045FBD4F93
:104FD0006EFC0146FE0144BD48A8FE046218DE0EC8
:104FE00018E601E14E27037E504918CEE8D118E6B5
:104FF00000C4F018DE0E18E702BD054FC40FDE0E28
:10500000EA0218CEE8D118E700FE0462EC4EFD0378
:1050100032EC4CFD033038383138DF0E39DE0E3CCF
:105020003C3C9F0ECEE63EE600C5042779FE0462B6
:10503000F60336E152276F18CEE8D218E600C40F07
:1050400018DE0E18E701BD054F58585858DE0EEA15
:105050000118CEE8D218E700FE0462E652CEE63D23
:10506000585858C40818DE0E18E704E600C4F718AC
:10507000E70218E60418EA02E70018CEE8D218E6BC
:1050800000C4F018DE0E18E703BD054FC40FDE0E96
:10509000EA0318CEE8D218E700FE0462EC52FD03E2
:1050A00036EC50FD0334383838DF0E39DE0E3C3430
:1050B0009F0EDE103CDE123C7D6209273BCEE67C73
:1050C000EC02DD12EC00DD1018CEE68B18E6005481
:1050D0005454C407DE0EE701CEE678DC12ED02DCA4
:1050E00010ED0018E600C438DE0EEA0118E7007F74
:1050F0006209CEE63F1D00C038DF1238DF103138BC
:10510000DF0E39DE0E3C9F0E38DF0E39DE0E3C9F7F
:105110000E38DF0E39DE0E3C9F0E38DF0E39DE0E04
:105120003C9F0E38DF0E39DE0E3C3C3C9F0EDE10FD
:105130003CDE123CDE143CDE163CCEE8B4EC02DD74
:1051400012EC00DD1018CEE8B0DF0CDE0E18EC0219
:10515000ED0318EC00ED01DE0CEC02DD16EC00DDD9
:1051600014DE109C142607DC121A93162710DF0C8D
:10517000DE0E18EC02ED0318EC00ED01DE0CDC1283
:10518000DE1018CE001CBD5D6BDD16DF1418DE0EC0
:1051900018EC03DD1218EC01DD10DC12DE1018CE65
:1051A0000004BD5D7EDD12DF10DC16DE149A12DA1B
:1051B000138F9A10DA118F183818DF16183818DF85
:1051C00014183818DF12183818DF10183818381863
:1051D0003818DF0E39DE0E3C3C3C3C9F0EDE103CA6
:1051E000DE123C7F0011DE0E6F046F03CC61FBED1D
:1051F0000518DE0E18EC03DB118900C3622218EDDE
:1052000001CDEE05EC00BD400D18DE0E18EE0118C4
:10521000ED02CDEF007C0011DE0EEC05C30002EDC7
:1052200005EC03C30003ED03D611C10523C3FC0144
:10523000CEDD12FC01CCDD10DC12DE1018CE000336
:10524000BD5D6BDD12DF10FC01CAFE01C8D3128FF9
:10525000D91199108F83000124010918DE12183C1E
:1052600018DE10183CBD5DF33838F7050938DF1239
:1052700038DF1038383838DF0E39DE0E3C3C3C9FC2
:105280000EDE103CDE123CDE143CF605072661D72C
:1052900015DE0E6F026F01CC61FBED0318DE0E18F8
:1052A000EC01DB158900C36222188F18EC02DD12B5
:1052B00018EC00DD10DC12DE1084FFC4FC8A00CA8A
:1052C0000137363C18DE0E18EE0318EC00BD3FB96E
:1052D00038387C0015DE0EEC03C30002ED03EC0150
:1052E000C30003ED01D615C10523B1C601F70507BB
:1052F00038DF1438DF1238DF10383838DF0E39DE87
:105300000E3C9F0EBD537AF60509CB02F70508380F
:10531000DF0E39DE0E3C3C3C9F0EDE103C7F001160
:10532000DE0E6F026F01CC61FBED0318DE0E18EC90
:1053300001DB118900C36222188FCDEE023CCDEE55
:10534000003C18DE0E18EE0318EC00BD3FB93838EB
:105350007C0011DE0EEC03C30002ED03EC01C30080
:1053600003ED01D611C10523C27F050738DF1038D0
:105370003838DF0E39DE0E3C9F0EF6050827085A36
:10538000F7050826028D8C38DF0E39DE0E3C9F0EA5
:10539000CEE8CB1C0001CEE8C9E600C580270ECEC2
:1053A000E2044F5FED02CC2000ED008D2C38DF0EC3
:1053B00039DE0E3C9F0ECEE8CB1D000138DF0E39E2
:1053C000DE0E3C9F0E7D045B26097D046627048D5E
:1053D000BA20028DDC38DF0E39DE0E3C349F0EDE43
:1053E000103CDE123CCEE8CBE6004FC401CE0000FC
:1053F0002607DD0826037E558418CEE8C8181C0051
:1054000080CEE8C9E60059C60059DE0EE701CEE7B6
:1054100000E60059C60059DE0E6D0127035D270620
:10542000181D0080205ECEE66CE6005454C403379D
:105430003418CE7780183CCC7400BD079D18CEE29E
:105440000818EC02DD1218EC00DD10DC12DE108F03
:105450008A00CA308F18ED02CDEF00FC01BADD12D0
:10546000FC01B8DD10DC12DE10C30001240108DFEE
:1054700010FD01BADC10FD01B8BD5227FD620CFF22
:10548000620A383838DF1238DF103138DF0E39DE83
:105490000E3C9F0EDE103CDE123CDE143CDE163C61
:1054A000CEE66CE6005454C403C101260FC6013792
:1054B0003418CE76C0183CCC70B8200DC6023734F4
:1054C00018CE7740183CCC72E8BD079D3838CEE83E
:1054D000C81D008018CEE20818EC02DD1218EC009E
:1054E000DD10DC12DE108F84FFC4CF8F18ED02CDEB
:1054F000EF00BD5227B3620C8FF2620BB2620A8FCB
:10550000DD16DF14FC01BEDD12FC01BCDD10DC1673
:10551000D3128FD91199108FFD01BEFF01BC38DF66
:105520001638DF1438DF1238DF1038DF0E39DE0EA0
:105530003C3C9F0ECEE84C4F5FED02CC2000ED00CE
:10554000CEE8C9E60059C60059DE0EE701CEE8C82C
:10555000E60059C60059DE0EE702CEE2044F5FEDC9
:1055600002CC2000ED00DE0EE6022609E601270847
:10557000BD54D92003BD558F3838DF0E39DE0E3CBF
:105580009F0EDE103CDE123CCC1512BD400DFD62BC
:1055900088FF62868F8AC0CA008FDD12FD6240FFDD
:1055A000623E18DE12183C3CCC1512BD3FB9CC153A
:1055B00079BD400DFD628CFF628A8F8AFFCA008F21
:1055C000DD12FD6244FF624218DE12183C3CCC152D
:1055D00079BD3FB9CC0583BD400DFD6290FF628E61
:1055E0008F8AC0CA008FDD12FD6248FF624618DE56
:1055F00012183C3CCC0583BD3FB9CC0C33BD400DEB
:10560000FD6294FF62928F8AC0CA008FDD12FD6234
:105610004CFF624A18DE12183C3CCC0C33BD3FB93B
:10562000CC3430BD400DFD6298FF62968F8AFFCA70
:10563000008FDD12FD6250FF624E18DE12183C3CF6
:10564000CC3430BD3FB9CC0570BD400DFD629CFF30
:10565000629A8F84FFC4FB8FDD12FD6254FF625299
:1056600018DE12183C3CCC0570BD3FB9CC082EBDED
:10567000400DFD62A0FF629E8F84FFC4FB8FDD1290
:10568000FD6258FF625618DE12183C3CCC082EBD55
:105690003FB9CC082FBD400DFD62A4FF62A28F84EC
:1056A000FFC4FB8FDD12FD625CFF625A18DE121828
:1056B0003C3CCC082FBD3FB930C6203A35CC083031
:1056C000BD400DFD62A8FF62A68F84FFC4FB8FDD85
:1056D00012FD6260FF625E18DE12183C3CCC08309E
:1056E000BD3FB9CC0992BD400DFD62ACFF62AA8FEF
:1056F00084FFC4FB8FDD12FD6264FF626218DE125C
:10570000183C3CCC0992BD3FB9CC0993BD400DFD7E
:1057100062B0FF62AE8F84FFC4FB8FDD12FD626852
:10572000FF626618DE12183C3CCC0993BD3FB9CC31
:105730000994BD400DFD62B4FF62B28F84FFC4FBCB
:105740008FDD12FD626CFF626A18DE12183C3CCCE1
:105750000994BD3FB9CC3059BD400DFD62B8FF6220
:10576000B68F8AC0CA008FDD12FD6270FF626E18AC
:10577000DE12183C3CCC3059BD3FB9CC0FE0BD40E7
:105780000DFD62BCFF62BA8F8AC0CA008FDD12FDB8
:105790006274FF627218DE12183C3CCC0FE0BD3F11
:1057A000B9CC091EBD400DFD62C0FF62BE8F84FFF3
:1057B000C4FB8FDD12FD6278FF627618DE12183CA2
:1057C0003CCC091EBD3FB9CC3D2CBD400DFD62C493
:1057D000FF62C284FFC4FEDD12FD627CFF627A18A4
:1057E000DE12183C3CCC3D2CBD3FB930C6203A35CA
:1057F000CC0134BD400DFD6284FF6282CCFFFF37D7
:1058000036CC00013736CC0134BD3FB9383838DFEB
:105810001238DF1038DF0E39DE0E3C3C3C9F0EDEC6
:10582000103CDE123CDE143CDE163CCC005ABD407F
:105830000DFD6280FF627ECC005BBD400DFD623CD1
:10584000FF623AFC01B6DD12FC01B4DC12C501278F
:1058500016FC6280DD12FC627EDD10DC12DE108A36
:1058600000CA04DD16DF14FC01B6DD12FC01B4DC55
:10587000128400C402CE00002604DD08270ADC16CC
:10588000DE148A00CA20DD16FC01B6DD12FC01B46C
:10589000DC128400C404CE00002604DD08270ADCE4
:1058A00016DE148A01CA00DD16FC01B6DD12FC0109
:1058B000B4DC128400C408CE00002604DD08270AE8
:1058C000DC16DE148A08CA00DD16FC01B6DD12FC07
:1058D00001B4DC128400C410CE00002604DD0827C9
:1058E0000ADC16DE148A40CA00DD16FC01B6DD12A1
:1058F000FC01B4DC128400C420CE00002604DD08C4
:10590000270CDC16DE148F8A00CA028FDF14FC011C
:10591000B6DD12FC01B4DC128400C440CE000026C7
:1059200004DD08270CDC16DE148F8A00CA108FDF16
:1059300014FC01B6DD12FC01B4D613C580270CDCC3
:1059400016DE148F8A00CA808FDF14FC01B6DD12C8
:10595000FC01B4DC128401C400CE00002604DD0882
:10596000270CDC16DE148F8A04CA008FDF14DC16C5
:10597000DE148F8A08CA008F37363CCC005ABD3FF0
:10598000B9FC01B6DD12FC01B4DC128402C400CE05
:105990000000183818382604DD08271BFC623CDD9F
:1059A00012FC623ADD10DC12DE108A00CA0418DE36
:1059B0000E18ED03CDEF01FC01B6DD12FC01B4DCE5
:1059C000128404C400CE00002604DD08271018DE6F
:1059D0000E18EC03CDEE018A00CA2018ED03FC017D
:1059E000B6DD12FC01B4DC128408C400CE0000262F
:1059F00004DD08271018DE0E18EC03CDEE018A0135
:105A0000CA0018ED03FC01B6DD12FC01B4DC1285FE
:105A100080271218DE0E18EC03CDEE018F8A00CA23
:105A2000108FCDEF01FC01B6FE01B44F5F8F8400F3
:105A3000C4018F8C00002604DD08271218DE0E1822
:105A4000EC03CDEE018F8A00CA808FCDEF01FC01FF
:105A5000B6FE01B44F5F8F8400C4028F8C00002615
:105A600004DD08271218DE0E18EC03CDEE018F8A34
:105A700004CA008FCDEF0118DE0ECDEE033CCDEE53
:105A8000013CCC005BBD3FB9CC0002CE0000BD485C
:105A9000A8383838DF1638DF1438DF1238DF10380E
:105AA0003838DF0E39DE0E3C9F0EFE62803CFE620F
:105AB0007E3CCC005ABD3FB9FE623C3CFE623A3CA3
:105AC000CC005BBD3FB9CC0002CE0000BD48A83879
:105AD00038383838DF0E39DE0E3C9F0EFE62883CC7
