:100000000000012F0000000000000134000070001B
:10001000000001D0000001F400000338000002DC01
:1000200000007518000000000000769C0000049895
:10003000000004D80002625A000001000000000025
:1000400000000064000000C8000000010000000083
:10005000000000000000000000000000000000019F
:1000600000005B8D000000000000000000000000A8
:10007000000000000000013C00001E840000001091
:10008000000000000000000100000000000000006F
:10009000000000000000000000000001000000005F
:1000A000000000000000001A000000000000000036
:1000B0000000000000000000000000000000000040
:1000C0000000000000000000000000000000000030
:1000D000000000280040006D0010003000210001E9
:1000E000000300040005001E0000000000098968EC
:1000F0000089000000000000000000000000000077
:1001000000000000000000000000000000000000EF
:1001100000000000000000000000000000000000DF
:1001200000000000000000000000000000000000CF
:1001300000000000000000000000000000000000BF
:10035000000000000000000000000000000100009C
:100360000000000000000B45427D14BD42DD4474D6
:100370000B870BA80BC90BEA0C0B0C2C0C4D34682B
:1003800034C70C6E0C8F0FE2106C10990B661113B2
:1003900051E111341006115C000000000000000063
:1003A000000000000000000000000000000000004D
:1003B000000000000000000000000000000000003D
:1003C000000000000000000000000000000000002D
:1003D000000000000000000000000000000000001D
:1003E0000000000000000000000000000000040009
:1003F0000000000000008E6FFCBD089CCE001018AD
:10040000CE00002008A60018A7000818088C0010CD
:1004100025F3CC0017270BCE62F76F00088300018D
:1004200026F8BD08A8BD622320FB04FC0512DE06E9
:100430003C9F064FF6045338DF0639DE063C9F0624
:100440004FF6045438DF0639DE063C9F064FF604AB
:10045000530505C3014E8FEC00C30001ED0038DFEA
:100460000639DE063C349F06BD390ADE06E701BDCB
:1004700036E3DE064FE6013138DF0639DE063C346E
:100480009F06DE06E701BD3890CE045018DE061840
:10049000E6013A6D002637F70454C65C18A6013D04
:1004A000C3033CFD045A8DBA5D27234FF60454F76D
:1004B000045305050505C30498CE00103C3736CC1F
:1004C00004D8BD610A8D81CC000138382003CC00EE
:1004D000FF3138DF0639DE063C9F068D85CC0001F2
:1004E00038DF0639DE063C9F06F60453C1012305BA
:1004F000CC000220045C8D844F38DF0639DE063CD8
:100500009F06F604532605CC000220055ABD057C43
:100510004F38DF0639DE063C9F06C602CE04526D18
:100520000027076F00CC000120085A095D2AF0CC93
:10053000000238DF0639DE063C3C9F06C60218CEB4
:100540000452DE061AEF01DE06EE016D00261EF1F2
:10055000045326098DA7C10127034F2021C6011886
:10056000DE0618EE0118E700CC000120115ADE0665
:100570001AEE0118091AEF015D26CCCC00023838BA
:10058000DF0639DE063C9F06DE083CDE0A3C7F00C3
:100590000B7D045726107D04562713F60338C5013A
:1005A000260CC602200FCC00FF20584F20557D049A
:1005B000592704C601D70BF60455D10B2302D70BDC
:1005C0007F0009CE04505FE7007C000908D609C10E
:1005D0000223F35FD709D10B240FBD06365D2BC66E
:1005E0007C0009D609D10B25F1F60453F1045824F7
:1005F0000FBD05E4C10126B3F60453F1045825F1FB
:10060000CC000138DF0A38DF0838DF0639DE063C67
:100610009F06DE083CDE0A3CDE0C3CDE0E3C18DFAA
:100620000418CEE66CCE00004F18DF0218DE041866
:10063000CE001ABD619B4F5F8F840CC4008FDD0E0E
:10064000DF0C18DF0418DE0218EC02DD0A18EC00DB
:10065000DD08DC0ADE088F84F3C4FF8FDF08DC0EC0
:10066000DE0C9A0ADA0B8F9A08DA098F18ED02CDA0
:10067000EF0018DE0438DF0E38DF0C38DF0A38DF11
:100680000838DF0639DE063C3C9F06DE06ED01C673
:1006900003BD070D18CE0118183CDE06EE013CCC58
:1006A0000338BD610A18CE0040183CDE06EE073C58
:1006B000CC0498BD610A7F0454CC033CFD045ABDB0
:1006C00005D618DE0618E60ABD070D7F0453CE00D6
:1006D000103C18CE0498183CCC04D8BD610ABD0665
:1006E0008330C60C3A35CC00013838DF0639DE06D7
:1006F0003C9F06C1022305CC00FF2007F70455BD2F
:1007000006834F38DF0639DE063C9F06F604555C4B
:100710008DDC4F38DF0639DE063C9F06BD433ABD0F
:1007200006834F38DF0639DE063C9F068F8FC101F6
:100730008F2305CC00FF200DC602DF00D001F70497
:1007400058BD06834F38DF0639DE063C349F067FEE
:1007500001837F01827F01817F01805FF70454F76D
:100760000453CE01183C18CE70B8183CCC0338BDE9
:10077000610AF6045418DE0618E701C65C18A601E3
:100780003DC3033CFD045ACE005C3C3736CC02DC52
:10079000BD610A383838383138DF0639DE063C9F0B
:1007A000060F4F5F38DF0639DE063C308FC3FFF29D
:1007B0008F359F06DE083CDE0A3CDE0C3CDE0E3C3C
:1007C000DE066F046F036F026F016F06CC63118446
:1007D000FFC4FCDD08FD0462CC67FC9308C3FFDCAA
:1007E000ED09CE0018028FDE06188F1808DF02DE32
:1007F000081AEF0418DE0218EC0904040404C3000C
:1008000001ED06FF01265FE700E7016F0B6F0ACEDF
:10081000E603E60018E70A8400C4F018ED090404B2
:10082000040418E706CEE662E6008F4F18E6068F4E
:10083000C5022717088FCE00004D2A010918CE9057
:1008400000183C18CE0001183C2019088FCE00007B
:100850004D2A0109DD04CCC97B3736DC04CC000508
:100860003736DC04BD613B18381838FD6308FF6378
:1008700006DD0A8FDD08DC0A05DE088F59498FD3B3
:100880000A8FD90999088F18DE0618ED0DCDEF0BE8
:10089000FD6302FF630018EC0DD30A8FD909990894
:1008A0008FFD630CFF630A18EC0D05FD62FC18EC6C
:1008B0000B5949FD62FA07843F84BF067F62FF7FC0
:1008C00062FE7F6305BD0849BD3FCAF67001C511D0
:1008D0002707CEE248C685E700CEE20EC602E70053
:1008E000F67000C1FF271A5D261018DE064F5F184C
:1008F000ED03CC020018ED012007CEE249C691E7D6
:100900000018CEE208DE06EC03EE018AE7CA018F8A
:100910008A58CAB08FBD620A18ED02CDEF0018ECFC
:1009200002FD046018EC00FD045E188FF6045318F5
:100930008F18DF0A7F000A7F00097F0008DC0ADECB
:100940000818CE0004BD619BD30A8FD90999088F7E
:10095000DD0ADF08BD052ECE00004F18CE0008BD11
:10096000619BD30A8FD90999088FDD0ADF08BD057D
:100970002ECE00004F18CE000CBD619BD30A8FD93C
:100980000999088FDD0ADF08BD052ECE00004FDD76
:100990000C7F000F7F000EDC0ADE08D30E8FD90D0E
:1009A000990C8FDD0ADF08BD052ECE00004F18CE52
:1009B0000015BD619BD30A8FD90999088FDD0ADF25
:1009C00008BD052ECE00004F18CE001CBD619BD384
:1009D0000A8FD90999088FDD0ADF08BD052ECE00E0
:1009E000004F18CE001EBD619BD30A8FD90999080C
:1009F0008FDF08CEE66CED02DC08ED00C601BD0716
:100A00000D0ECF20FCDE063CDE003CDE023CDE04A8
:100A10003C9F0638DF0438DF0238DF0038DF063B52
:100A2000DE063CDE003CDE023CDE043C9F06CEE2FD
:100A3000196F0007BA00800638DF0438DF0238DF9C
:100A40000038DF063BDE063C9F06CEE84C4F5FEDEC
:100A500002CC0100ED00CEE2044F5FED02CC0100BC
:100A6000ED0038DF0639DE063C9F06CEE84CCC08A8
:100A700000ED024F5FED00CEE204CC0800ED024F26
:100A80005FED0038DF0639DE063C9F06CEE84C4FAE
:100A90005FED02CC2000ED00CEE2044F5FED02CC12
:100AA0002000ED0038DF0639DE063C9F06CEE84C1C
:100AB0004F5FED02CC4000ED00CEE2044F5FED024F
:100AC000CC4000ED0038DF0639DE063C9F06CEE85C
:100AD0004C4F5FED02CC8000ED00CEE2044F5FEDA5
:100AE00002CC8000ED0038DF0639DE063C9F06CEE2
:100AF000E84C4F5FED02CC0001ED00CEE2044F5F09
:100B0000ED02CC0001ED0038DF0639DE063C9F0621
:100B1000CEE84C4F5FED02CC0002ED00CEE2044F78
:100B20005FED02CC0002ED0038DF0639DE063C9FA7
:100B300006CEE84C4F5FED02CC0004ED00CEE2049F
:100B40004F5FED02CC0004ED0038DF0639DE063CD5
:100B50009F06CEE84C4F5FED02CC0008ED00CEE2E0
:100B6000044F5FED02CC0008ED0038DF0639DE06E9
:100B70003C9F06CEE84C4F5FED02CC0040ED00CE2E
:100B8000E2044F5FED02CC0040ED0038DF0639DEB5
:100B9000063C349F06DE083CDE0A3CCEE84C4F5F44
:100BA000ED02CC0080ED00CEE244E600F7046427BD
:100BB0001ACEE847E700C601373418CE0000183CCB
:100BC000183CCC0083BD3FFE383838F6046418DE8C
:100BD0000618E7014F1A83005E23037E0FC405C386
:100BE0006227188FCDEE006E00CEE246C602E70007
:100BF000CEE2044F5FED02CC0080ED00BD15557EC6
:100C00000FCBF66304CEE246E700CEE2044F5FED81
:100C100002CC0080ED007E0FCBCEE246C6FFE7009F
:100C2000CEE2044F5FED02CC0080ED00BD132B7EC1
:100C30000FCBCEE246C604E700CEE2044F5FED02E2
:100C4000CC0080ED00BD13477E0FCBCEE246C6053B
:100C5000E700CEE2044F5FED02CC0080ED00BD1353
:100C6000B67E0FCBCEE246C606E700CEE2044F5F6B
:100C7000ED02CC0080ED00BD1A2EBD3468BD346895
:100C8000BD3468BD3468BD3468BD3468BD34687E29
:100C90000FCBCEE246C609E700CEE2044F5FED027D
:100CA000CC0080ED00BD13DD7E0FCBCEE246C60A40
:100CB000E700CEE2044F5FED02CC0080ED00BD13F3
:100CC000637E0FCBCEE208EC02FD0460EC00FD0475
:100CD0005ECCFFFFED02CCFF7F200BCEE208FC04D0
:100CE00060ED02FC045EED00CEE245C6017E0FC958
:100CF000BD0615200B18DE0618E601CBEDBD07EE8C
:100D0000CEE2457E0FC97F0458BD068320DA18DE87
:100D10000618E601CBBEBD082720E5F67000C1FF2E
:100D200027C65D2605BD42C220BEBD435A20B9BDBF
:100D3000081720CCBD05E420C7BD05FD20C24F5FCC
:100D4000FD014EFD014CFD0152FD0150FD0156FD1E
:100D50000154FD015AFD0158208E7F0457C6023709
:100D60003418CE7740183CCC72E820107F0457C668
:100D700001373418CE76C0183CCC70B8BD0785CE8C
:100D8000E245E70038387E0FCB7F0457BD49307EFF
:100D90000DE87F0457BD493E7E0DE8CEE2044F5F6B
:100DA000ED02CC0080ED00FE0462E60127066F0B29
:100DB0006F0A6F01FE0462C601E7002058CEE2040C
:100DC0004F5FED02CC0080ED00FE04626F007E0DEF
:100DD000E8CEE2044F5FED02CC0080ED00BD5D89FE
:100DE0007E0DE8CEE2044F5FED02CC0080ED00BD49
:100DF000601B7E0DE8CEE2044F5FED02CC0080ED7B
:100E000000FE0462E60027066F0B6F0A6F00FE0407
:100E100062C601E701FE04626F096F087E0E00CE14
:100E2000E2044F5FED02CC0080ED00FE04626F0132
:100E30007E0DE8CEE2044F5FED02CC0080ED00FCB9
:100E4000769EDD0AFC769CDD08DC0ADE088A00CA94
:100E500001201ECEE2044F5FED02CC0080ED00FCCD
:100E6000769EDD0AFC769CDD08DC0ADE0884FFC481
:100E7000FEFD769EFF769C7E0DE8CEE2044F5FED90
:100E800002CC0080ED00BD28F47E0DE8CEE2044FD8
:100E90005FED02CC0080ED00BD29207E0DE8CEE2A2
:100EA000044F5FED02CC0080ED007F045D7E0DE815
:100EB000CEE2044F5FED02CC0080ED00C601F704E6
:100EC0005D7E0E00CEE245C6FEE700CEE2044F5F37
:100ED000ED02CC0080ED0038DF0A38DF083138DF62
:100EE0000639DE063C9F06CEE84CCC0100ED024FF1
:100EF0005FED00CEE204CC0100ED024F5FED00BDDE
:100F0000274838DF0639DE063C349F06DE083CDE23
:100F10000A3CCEE84CCC8000ED024F5FED00CEE203
:100F200004CC8000ED024F5FED00F662FE18DE0695
:100F300018E701CEE246CA30E70018E6015CF76226
:100F4000FEC109261C18CEE20818EC02DD0A18ECD6
:100F500000DD08DC0ADE088A80CA0018ED02CDEF49
:100F60000038DF0A38DF083138DF0639DE063C9FFB
:100F700006CEE84CCC0200ED024F5FED00CEE2045D
:100F8000CC0200ED024F5FED00F66305CEE246E7CE
:100F9000005CF7630538DF0639DE063C9F06CEE6C7
:100FA0003FE600C5012750CEE801E6004F1A830056
:100FB0000627232E081A8300042710203A1A8300DC
:100FC00008271E1A83000A2723202CCEE800C60417
:100FD000E700C605201FCEE800C606E700C60720CA
:100FE00014CEE800C608E700C6092009CEE800C60E
:100FF0000AE700C60BE700CEE204CC0400ED024F86
:101000005FED00CEE84CCC0400ED024F5FED003800
:10101000DF0639DE063C9F06CEE84CCC1000ED0220
:101020004F5FED00CEE204CC1000ED024F5FED000B
:1010300038DF0639DE063C9F06CEE84CCC4000ED9A
:10104000024F5FED00CEE204CC4000ED024F5FEDB9
:1010500000CEE246C6AEE70038DF0639DE063C9F2A
:1010600006CEE84CCC0001ED024F5FED00CEE26809
:10107000E600F7046553CEE269E700CEE204CC0057
:1010800001ED024F5FED0038DF0639DE063CDE0081
:101090003CDE023CDE043C9F06DE083CDE0A3CDE11
:1010A0000C3CDE0E3CCEE208EC02DD0AEC00DD0872
:1010B000CEE204EC02DD0EEC00DD0CDC0ADE08BD45
:1010C000620A940ED40F8F940CD40D8FDD0EDF0CBA
:1010D0004F5F8F8410C4008F8C00002604DD002732
:1010E00003BD4474CEE208EC02DD0AEC00DD08DC4E
:1010F0000ADE08BD620A940ED40F8F940CD40D8FB3
:10110000DD0EDF0C4F5F8F8402C4008F8C00002641
:1011100004DD002703BD427DDE0C4F5F8F8408C4D1
:10112000008F8C00002604DD002703BD42DDDC0EAD
:101130008404C400CE00002604DD002703BD1099FE
:10114000DC0E8401C400CE00002604DD002703BDB0
:101150000FE2DC0E85802703BD1006DC0E8402C47E
:1011600000CE00002604DD002703BD106CDE0C4F0E
:101170005F8F8400C4108F8C00002604DD002703DD
:10118000BD3468DE0C4F5F8F8400C4208F8C00005C
:101190002604DD002703BD34C7DE0C4F5F8F84407B
:1011A000C4008F8C00002604DD002703BD0BA8DEE1
:1011B0000C4F5F8F8404C4008F8C00002604DD0078
:1011C0002703BD14BDDC0E8420C400CE000026041D
:1011D000DD002703BD51E1DC0E8440C400CE0000D9
:1011E0002604DD002703BD1134DC0EC5012703BD35
:1011F000115CDE0C4F5F8F8400C4808F8C00002652
:1012000004DD002703BD0C8FCEE244E6002703BDBA
:101210000C8F38DF0E38DF0C38DF0A38DF0838DF94
:101220000438DF0238DF0038DF063BDE063C9F066D
:10123000CEE234CC0064ED024F5FED00CEE23CC65E
:1012400002E70038DF0639DE063C9F06CEE238CCE6
:101250000032ED024F5FED00CEE23CC610E70038F1
:10126000DF0639DE063C9F06DE083CDE0A3CDE0C6B
:101270003CDE0E3C7F000F7F000E7F000D7F000CD8
:10128000CEE84CDC0EED02DC0CED00CEE244E600D4
:101290007F000AD70B7F00097F0008CEE848DC0AF0
:1012A000ED02DC08ED00DC0EDE0CC30001240108B9
:1012B000DD0EDF0C20CADE063C9F06CC0010373660
:1012C0004F5F3736CC0180BD4233CC0180BD4266D2
:1012D000CEE246C6AAE700383838DF0639DE063CDB
:1012E0003C9F06DE083CDE0A3CDE0C3CDE0E3CCCBD
:1012F0000212BD4266DD0EDF0CC41F18DE0618E7C1
:1013000001DC0E8400C460CE000018CE0005BD6173
:10131000AE18DE0618E702DC0EDE0C18CE0007BDA4
:1013200061AE8C000026061A83000127358C000070
:1013300026061A83000125188C000026061A830051
:101340000227348C000026581A830003273B2050C4
:10135000DE064FE602050505050505EA01CEE24871
:10136000203A18DE064F18E60205050505050518A2
:10137000EA01CEE2492025DE064FE6020505050515
:101380000505EA01CEE24A201318DE064F18E602F0
:1013900005050505050518EA01CEE24BCA20E70060
:1013A000CEE8484F5FED02CC0800ED0038DF0E3884
:1013B000DF0C38DF0A38DF083838DF0639DE063C54
:1013C0009F0638DF0639DE063C9F06DE083CDE0A53
:1013D0003C188FDE06EC07DD0AEC05DD08CEE222C4
:1013E0001AEF00CEE228DC0AED02DC08ED00CEE2C6
:1013F0002118DE0618E60AE700CEE210C601E70073
:10140000CEE220C603E700CEE210E600C50127F7D2
:10141000C601E70038DF0A38DF0838DF0639DE06A4
:101420003C9F06CEE222ED00CEE221C60FE700CEC1
:10143000E210C601E700CEE220E700CEE210E600AF
:10144000C50127F7C601E700CEE224EC02EE001842
:101450003818DF0639DE063C3C9F06DE083CDE0A13
:101460003CDE0C3CDE0E3C7F000F7F000E7F000D4B
:101470007F000CCC0208DE06ED01DC0E05DE0C8FD1
:1014800059498FC30001240108DD0EDF0CC60F3758
:101490003418DE0E183C18DE0C183CDE06EC01BDDC
:1014A00014C6383838DE061AEE0118081AEF01188B
:1014B0008C021323C57F000F7F000E7F000D7F007D
:1014C0000CCE020818DE06CDEF0118DE0618EC017E
:1014D000BD151EDD0ADF08DC0E05DE0C8F59498FB5
:1014E000C30001240108DD0EDF0CDE089C0C26077A
:1014F000DC0A1A930E2707CEE246C6FFE70018DE85
:1015000006CDEE0108CDEF018C021323BDCEE246DD
:10151000C6AAE70038DF0E38DF0C38DF0A38DF08EC
:101520003838DF0639DE063C9F06CEE60FE600546B
:101530004FC401CE00002604DD0027EE38DF063957
:10154000DE063C9F06DE083CDE0A3C18CEE60018AC
:10155000EC02DD0A18EC00DD08DC0ADE0884FFC4BA
:10156000FE18ED02CDEF0018CEE61018EC02DD0AF1
:1015700018EC00DD08DC0ADE0884FFC4FE18ED026A
:10158000CDEF0038DF0A38DF0838DF0639DE063CE9
:101590009F06DE083CDE0A3CDE0C3CDE0E3CDD0035
:1015A000270B4F5FDD0ECC0080DD0C200C7F000F81
:1015B0007F000E7F000D7F000C18CEE60418EC02B1
:1015C000DD0A18EC00DD08DC0ADE088F84FFC47F2A
:1015D0008F9A0EDA0F8F9A0CDA0D8F18ED02CDEF7D
:1015E0000038DF0E38DF0C38DF0A38DF0838DF0656
:1015F00039DE063C9F06DE083CDE0A3CDE0C3CDEA3
:101600000E3CDD00270B4F5FDD0ECC0100DD0C2012
:101610000C7F000F7F000E7F000D7F000C18CEE6C0
:101620000418EC02DD0A18EC00DD08DC0ADE088F85
:1016300084FEC4FF8F9A0EDA0F8F9A0CDA0D8F1882
:10164000ED02CDEF0038DF0E38DF0C38DF0A38DF6F
:101650000838DF063918DE06183C9F0618DE081821
:101660003C18DE0A183C18DE0C183C18DE0E183C3C
:101670008F8403C4FF8FDD0EDF0C18CEE60818EC54
:1016800002CDEE004F5F8F84FCC4008FDD0ADF08BF
:10169000DC0EDE0C9A0ADA0B8F9A08DA098F18ED45
:1016A00002CDEF00CEE604EC02DD0AEC00DD08DC42
:1016B0000ADE088F8A02CA008FDF08CEE604ED0238
:1016C000DC08ED00BD1625CEE604EC02DD0AEC00D8
:1016D000DD08DC0ADE088F84FDC4FF8FDF08CEE65C
:1016E00004ED02DC08ED0038DF0E38DF0C38DF0ACD
:1016F00038DF0838DF0639DE063C9F06CC0001BD26
:10170000168DBD16254F5FBD168D38DF063918DEE4
:1017100006183C9F0618DE08183C18DE0A183C180C
:10172000DE0C183C18DE0E183C8401C4FFCE00000D
:10173000DD0EDF0C18CEE60418EC02DD0A18EC0012
:10174000DD08DC0ADE0884FEC400DD0ADC0EDE0CE7
:101750009A0ADA0B8F9A08DA098F18ED02CDEF009A
:1017600018EC02DD0A18EC00DD08DC0ADE088F8ABE
:1017700004CA008F18ED02CDEF00BD162518CEE685
:101780000418EC02DD0A18EC00DD08DC0ADE088F24
:1017900084FBC4FF8F18ED02CDEF0038DF0E38DF79
:1017A0000C38DF0A38DF0838DF063918DE06183C47
:1017B0003C3C9F0618DE08183C18DE0A183C18DE70
:1017C0000C183C18DE0E183CDD0A18DE0618EC0B6F
:1017D000DD0E18EC09DD0CDC0A18CE0004BD619B9F
:1017E0008403C4F0CE000018DE0618ED03CDEF012F
:1017F00018DF0218CEE60018EC02DD0A18EC00DD56
:1018000008DC0ADE0884FCC40F18DF0418DE0218A6
:10181000AA0318EA048F18AA0118EA028F18DE0436
:1018200018ED02CDEF00DC0EDE0C8F8403C4FF8FB9
:1018300018DE0218ED03CDEF0118CEE60818EC0211
:10184000CDEE004F5F8F84FCC4008F18DF0418DEDC
:101850000218AA0318EA048F18AA0118EA028F18BE
:10186000DE0418ED02CDEF0038DF0E38DF0C38DF74
:101870000A38DF08383838DF063918DE06183C9F8A
:101880000618DE08183C18DE0A183C18DE0C183C56
:1018900018DE0E183C8C00002604DD00270BCC005F
:1018A00008DD0E4F5FDD0C200C7F000F7F000E7FE8
:1018B000000D7F000C18CEE60018EC02DD0A18ECD3
:1018C00000DD08DC0ADE0884FFC4F79A0EDA0F8F09
:1018D0009A0CDA0D8F18ED02CDEF00CEE604EC0283
:1018E000DD0AEC00DD08DC0ADE088F8A00CA808F82
:1018F000DF08CEE604ED02DC08ED00BD1625CEE6DD
:1019000004EC02DD0AEC00DD08DC0ADE088F84FF4F
:10191000C47F8FDF08CEE604ED02DC08ED0038DF7F
:101920000E38DF0C38DF0A38DF0838DF0639DE060C
:101930003C9F06DE083CDE0A3CDE0C3CDE0E3CBD75
:1019400016404F5FBD17F7CC0001CE0000BD180E4A
:10195000C6FF18CEE24618E700CC0002CE0000BD5C
:10196000180EC6FE18CEE24618E700CC0004CE00E2
:1019700000BD180EC6FD18CEE24618E700CC0008E0
:10198000CE0000BD180EC6FC18CEE24618E700CC0B
:101990000040CE0000BD180EC6FB18CEE24618E788
:1019A00000CC0080CE0000BD180EC6FA18CEE2466C
:1019B00018E7007F000B7F000A7F00097F0008CC3A
:1019C0000001CE0000BD180ECC0001CE0000BD19F4
:1019D0007ADE0A3C3CCCC0003736CC00053736CC2A
:1019E0000001BD18ABCC0001BD16F1BD16254F5F3F
:1019F000BD16F1DC0ADE08BD197ACC0002CE00006B
:101A0000BD180EC6F818CEE24618E700CC0001CE8D
:101A10000000BD180ECC0001CE0000BD197ACC002C
:101A200001BD16F1BD16254F5FBD16F1BD1625DCB3
:101A30000ADE08BD197ABD1625CC0002CE0000BD15
:101A4000180ECC0001CE0000BD180E3838383818FA
:101A5000CEE610DC0EDE0CBD620ADD0ADF0818ECF3
:101A600002CDEE00940AD40B8F9408D4098F18EDA0
:101A700002CDEF00BD1625CC0002CE0000BD180E31
:101A8000CC0001BD17F7CC0001BD168DBD16254F4A
:101A90005FBD168DC6F618CEE24618E700CC0001F1
:101AA000BD168DBD16254F5FBD168DC6F518CEE24D
:101AB0004618E70038DF0E38DF0C38DF0A38DF0859
:101AC00038DF0639DE063C9F06CEE60FE600C4028C
:101AD00027F738DF0639DE063C9F06C601CEE6044E
:101AE000E7008DE0CEE6046F0038DF0639DE063C05
:101AF0009F06CEE607E700C604CEE604E7008DC4E5
:101B0000CEE6046F0038DF0639DE063C9F06DE08AD
:101B10003CDE0A3CCEE604EC02DD0AEC00DD08DC2B
:101B20000ADE088F8A00CA808FDF08CEE604ED0245
:101B3000DC08ED008D8ECEE604EC02DD0AEC00DD63
:101B400008DC0ADE088F84FFC47F8FDF08CEE6043E
:101B5000ED02DC08ED0038DF0A38DF0838DF06392F
:101B6000DE063C3C9F06CEE603585858C40818DEF3
:101B70000618E702E600C4F718E70118E60218EABB
:101B800001E7008D843838DF0639DE063C3C9F06CD
:101B9000CEE6131C0001CEE603585858C40818DEE0
:101BA0000618E702E600C4F718E70118E60218EA8B
:101BB00001E700CEE6061C0008FC017EFE017CBDAC
:101BC000494C18CEE60F18E600C5012609CEE206FC
:101BD000E600C50227EC18E600C50127035F2002D6
:101BE000C601CEE6061D0008CEE6131D00014F38E3
:101BF00038DF0639DE063C9F06CEE6031C0001CC2A
:101C00000006CE0000BD4998CEE6031D000138DF76
:101C10000639DE063C3C3C3C9F06DE083CDE0A3CC6
:101C2000DE0C3CDE0E3CBD053BCE00004F18CE0066
:101C300015BD619B4F5F8F8403C4E08FDD0EDF0C09
:101C400018CEE66C18EC02DD0A18EC00DD08DC0AA0
:101C5000DE088F84FCC41F8FDF08DC0EDE0C9A0ABE
:101C6000DA0B8F9A08DA098F18ED02CDEF00C60162
:101C7000BD1BED18DE06186F01CEE603E600C503B6
:101C80002620FC0196FE01942604DD00270FC60FD6
:101C9000BD1C8ADF04DE06E701DE042005C60FBD99
:101CA0001C60DE066D0127037E1F7018FE045A18A3
:101CB000EC12DD0A18EC10DD08DC0ADE088403C42F
:101CC000F08F8407C4F08FDD0EDF0C18DF0418CE10
:101CD000E60018EC02DD0A18EC00DD08DC0ADE087C
:101CE00084FCC40F8F84F8C40F8FDD0ADF08DC0E7C
:101CF000DE0C9A0ADA0B8F9A08DA098F18ED02CDFA
:101D0000EF0018DE0418EC128400C402CE0000DDDF
:101D10000EDF0C18CEE60018EC02DD0A18EC00DD30
:101D200008DC0ADE0884FFC4FDDD0ADC0EDE0C9A46
:101D30000ADA0B8F9A08DA098F18ED02CDEF00FC52
:101D400001A6FE01A4BD499818FE045A18EC12849D
:101D500000C401CE0000DD0E18DF0418CEE6001826
:101D6000EC02DD0A18EC00DD08DC0ADE0884FFC4A2
:101D7000FEDD0ADC0EDE0C9A0ADA0B8F9A08DA090D
:101D80008F18ED02CDEF0018DE0418EC16DD0A18EE
:101D9000EC14DD0818CEE604DC0ADE0884F0C4008A
:101DA0008F8400C43F8FDD0EDF0C18EC02DD0A18B3
:101DB000EC00DD08DC0ADE08840FC4FF8F84FFC45A
:101DC000C08FDD0ADF08DC0EDE0C9A0ADA0B8F9A70
:101DD00008DA098F18ED02CDEF0018DE04CEE60810
:101DE00018EC1AED0218EC18ED0018EC1ADD0A18C0
:101DF000EC18DD08DE088F8403C4FF8F18CEE8518D
:101E000018E600C4013734DC0ABD1FC118FE045AAD
:101E1000CEE79018EC1EED0218EC1CED00CEE79416
:101E200018EC22ED0218EC20ED00BD1BD6CEE60327
:101E3000E60018DE0618E7068400C40318ED023138
:101E4000312625FC0196FE01942604DD0027131897
:101E5000DE0618E603BD1C8ADF04DE06E701DE04A9
:101E6000200618E603BD1C6018DE06186D01270465
:101E70004F5F203AFE045AE617BD1BEDBD053BC47B
:101E80001FDE06E70518CEE66D18E600C4E0E7049D
:101E9000E605EA0418E700FC045AC30010CE001857
:101EA0003C3736CC02ECBD610ACC0001383838DF53
:101EB0000E38DF0C38DF0A38DF0838383838DF06EC
:101EC0003918DE06183C3C3C3C9F0618DE08183CDE
:101ED00018DE0A183C18DE0C183C18DE0618ED0453
:101EE000CDEF027F000DFC6302DD0AFC6300CDA391
:101EF0000225092246DC0ACDA304223FFC630CDD47
:101F00000AFC630A18DE06CDA30225092225DC0A95
:101F1000CDA304221EFC62FCDD0AFC62FA18DE0678
:101F2000CDA302250E2207DC0ACDA30423057F00E2
:101F30000D2008188FC601D70D188FD60D18DE0694
:101F400018E10C2716CEE8515818E706E600C4FD44
:101F500018E70118E60618EA01E7004FD60D38DF4A
:101F60000C38DF0A38DF0838383838DF0639DE0643
:101F70003C9F06CEE6041C0002BD1BC4CEE6041D39
:101F8000000238DF0639DE063C308FC3FFE78F35AD
:101F90009F06DE083CDE0A3CDE0C3CDE0E3CBD0546
:101FA0003BCE00004F18CE0015BD619B4F5F8F8464
:101FB00003C4E08FDD0EDF0C18CEE66C18EC02DDFA
:101FC0000A18EC00DD08DC0ADE088F84FCC41F8FD1
:101FD000DF08DC0EDE0C9A0ADA0B8F9A08DA098F1A
:101FE00018ED02CDEF00F60454D709F60453D109D9
:101FF000240CD701DE008F4F8FCC00012011188FE9
:10200000D609188F8F18DF00D6014F8FCC0010BD76
:102010006211CE00004D2A010918DE0618ED12CD1E
:10202000EF10FC01A2DD0AFC01A0DD08DC0ADE08DD
:1020300018A41218E4138F18A41018E4118F8C0040
:10204000002604DD00272B18CE0008183C18CE000F
:1020500000183CCC000837367F00037F0002DC020A
:1020600037363734BD4EE71830188FC3000A188F43
:10207000183518CEE60018EC02CDEE004F5F8F84C5
:1020800007C4F08F18CE0014BD61AED70DC1072272
:1020900056CE00013A8FCE000018CE0014BD619BD1
:1020A0004F5F8F8407C4F08F18DE0618ED17CDEF51
:1020B0001518DF0218CEE60018EC02DD0A18EC0055
:1020C000DD08DC0ADE088F84F8C40F8FDF08DE022B
:1020D0004F5FEE159A0ADA0B8F9A08DA098F18ED1E
:1020E00002CDEF00BD1C0918CEE79018EC02DD0A06
:1020F00018EC00DC0A8400C40ECE000018ED02CDFE
:10210000EF0018CEE79418EC02CDEE004F5F8F84FD
:10211000FCC4008F18ED02CDEF00D60DC107224A96
:10212000CE00004FD60D18CE0014BD619B4F5F8FBF
:102130008407C4F08FDD0EDF0C18CEE60018EC0229
:10214000DD0A18EC00DD08DC0ADE088F84F8C40F15
:102150008FDF08DC0EDE0C9A0ADA0B8F9A08DA0998
:102160008F18ED02CDEF00BD1C09BD206ECEE60834
:10217000EC02DD0EEC00DD0C18FE045A18EC1ADD42
:102180000A18EC18DD08DC0ADE088F8403C4FF8F10
:1021900018DF0218DE0618ED03CDEF01DE0C4F5FED
:1021A0008F8410C4008F18ED0BCDEF09DC0EDE0C10
:1021B0008F8403C4FF8FDF0C84C0C4008F8403C4EA
:1021C000FF8F18ED07CDEF05DE02EE104F5F8F8415
:1021D00007C4F08F18CE0014BD61AEDE06E70E18FE
:1021E000CEE60018EC0218EC00DF028F4F5F8F8400
:1021F00007C4F08F18CE0014BD61AE18DF0418DEDE
:102200000218E70DCEE851E600C40118E70F18E602
:102210000D18DE043CDE02E10E38247518DE0618C7
:102220006C0DCE00004F18E60D18CE0014BD619B5A
:1022300018CEE6004F5F8F8407C4F08F18DF0418B4
:10224000DE0618ED17CDEF1518DF0218DE0418ECC6
:1022500002DD0A18EC00DD08DC0ADE088F84F8C411
:102260000F8FDF08DE024F5FEE159A0ADA0B8F9AA6
:1022700008DA098F18ED02CDEF00BD1C09CC00046F
:10228000CE0000BD499818DE0618E60D18E10E25AF
:102290008BDC0C18DE06CDA30123037E2430250A37
:1022A000DC0ECDA30325037E243018DE0618EC07D0
:1022B000CDEE05C32000240108DD0EDF0CDC0CCDC3
:1022C000A301250F23037E24ABDC0ECDA30325033E
:1022D0007E24ABDC0EDE0C18DE0618AA0B18EA0C06
:1022E0008F18AA0918EA0A8F18CEE60818ED02CD51
:1022F000EF0018DE0618E60F3734DC0EDE0CBD1FCB
:10230000C1DE06E70FBD206EDC0EDE0CC32000240C
:102310000108DD0EDF0C3131DC0C18DE06CDA30127
:1023200025B123037E24ABDC0ECDA30325A5207BA2
:1023300018DE0618EC07CDEE05832000240109DD28
:102340000EDF0CDC0CCDA3012209255FDC0ECDA332
:10235000032358DC0EDE0C18DE0618AA0B18EA0C54
:102360008F18AA0918EA0A8F18CEE60818ED02CDD0
:10237000EF0018DE0618E60F3734DC0EDE0CBD1F4A
:10238000C1DE06E70FBD206EDC0EDE0C83200024CC
:102390000109DD0EDF0C3131DC0C18DE06CDA301A6
:1023A00022B12507DC0ECDA30322A818FE045ACEC5
:1023B000E60818EC1AED0218EC18ED0018DE061805
:1023C000E60F373418EC03CDEE01BD1FC1BD206E02
:1023D000CEE600EC02EE004F5F8F8407C4F08F184A
:1023E000CE0014BD61AEDF04DE06E70D3131DF0241
:1023F000DE043CDE02E10E38236518DE06186A0DA5
:10240000CE00004F18E60D18CE0014BD619B18CE0B
:10241000E6004F5F8F8407C4F08FDD0EDF0C18ECF1
:1024200002DD0A18EC00DD08DC0ADE088F84F8C43F
:102430000F8FDF08DC0EDE0C9A0ADA0B8F9A08DAAF
:10244000098F18ED02CDEF00BD1C09CC0004CE00B1
:1024500000BD499818DE0618E60D18E10E229B18FB
:10246000FE045A18EC1EDD0A18EC1CDD08DC0ADE3E
:102470000884FFC4FE18DF0418CEE79018ED02CDE3
:10248000EF0018DE04CEE79418EC22ED0218EC20E1
:10249000ED00BD206EFE045A18CEE790EC1E18ED3C
:1024A00002EC1C18ED00BD206EFC01A2DD0AFC014F
:1024B000A0DD08DC0ADE0818DE0618A41218E413F2
:1024C0008F18A41018E4118F8C00002604DD00275B
:1024D00020CC000837367F00037F0002DC0237364D
:1024E000CE00003C3C3734BD4EE7308FC3000A8F2E
:1024F00035BD053BC41FDE06E71918CEE66D18E6AC
:1025000000C4E0E714E619EA1418E700FC045AC313
:102510000010CE00183C3736CC02ECBD610A3838CA
:1025200038DF0E38DF0C38DF0A38DF08308FC300A1
:10253000198F3538DF0639DE063C349F06DE083C4D
:10254000DE0A3CDE066F01FC0196FE0194260FDDDB
:102550000027132009BD1CF4C601DE06E701BD1DDE
:10256000125D27F12003BD1D12DE066D01271EFC42
:102570000192DD0AFC0190DD08DC0ADE08C30001DF
:10258000240108DF08FD0192DC08FD019038DF0A14
:1025900038DF083138DF0639DE063C3C349F06DE82
:1025A000083CDE0A3CCE0000DF02DE06DD04DC0271
:1025B000E701DC04CEE760EC02DD0AEC00DC0A8413
:1025C00003C4FFDE02DD008FD3008F18DE06186C17
:1025D0000118E601DF02C10723DACEE72CEC02DDA9
:1025E0000AEC00DC0A843FC4E0CE000018CE0005EF
:1025F000BD61AE3736381A8300FF2F2D18DE06DF97
:1026000004DE02CDEF028FDE04DD002A06C3000FD8
:1026100018ED0218DE0618EC024756475647564793
:1026200056DF00D3008BFE2013DC022A03C3000F09
:102630004756475647564756DF00D30038DF0A381B
:10264000DF08383138DF0639DE063C3C3C3C3C9F35
:1026500006DE083CDE0A3CCEE230FC01EEED02FC78
:1026600001ECED00CEE23CC601E700F601D0C1016D
:1026700027037E28E6BD2698DD02FE01E6DF0093F3
:1026800000DD0A2A064F5F930ADD0A9C022C0BDC50
:102690000A1AB301DE2C157E28E69C022E037E2842
:1026A000E6DC0A1AB301E02C037E28E618FE01E4FA
:1026B00018DF08DC0A1A93082F1C9C022C0D18DF67
:1026C00002DC02DF00D300DD02200BDF0218DF0096
:1026D0008F93008FDF02FE01D2DF08DC021A93081D
:1026E0002C1118DE06186F02186F01FE01DCDF08DE
:1026F0007E288D18FE01D4189C022F26FE01D818C2
:10270000DE06CDEF01DC08BD61C1DD002A03C30098
:102710000F4756475647564756DD08FC01DC9308DD
:102720002069DC021AB301D62C58FC01DADE06ED72
:102730000118DF00DC009308ED05FC01D8ED07EC83
:1027400005EE07BD61C1DD002A03C3000F475647F0
:102750005647564756DE06ED03EC01183C38BD617E
:10276000C1DD002A03C3000F475647564756475658
:10277000DD0818DE0618EC03930818ED05F301DCFC
:102780002009DE066F026F01FC01F0DD0818DE068D
:1027900018EC011AB301E8270FDC0A1AB301E22D85
:1027A0004518EE0118FF01E8FC01E8DE02BD61C139
:1027B000DD002A03C3000F4756475647564756D3F6
:1027C00008FE01DCDF001A93002D0AFE01F0DF0095
:1027D0001A93002F018FFD01EAF601EBCEE76FE7B8
:1027E00000DC02FD01E638DF0A38DF083838383807
:1027F00038DF0639DE063C9F06C601F701D0BD264C
:10280000988FFC01DE05F301DE2A03C30001475661
:10281000DD008F93008FFF01E6BD274838DF0639C2
:10282000DE063C9F067F01D038DF0639DE063C3CE1
:102830003C349F06DE083CDE0A3CDE0C3CDE06E74C
:10284000014FE60B050505050505C3755CDD0C6F3D
:10285000025FF17518247F18DE0618E602186F046F
:1028600018E7055C18E70318E601270A18EC0405C9
:1028700005C3751E200818EC040505C3751C188FC8
:10288000CDEE0018DE064F18E6020505DF04DE0C6B
:10289000DD008FD3008FEC02DD0AEC00DE04DD08E2
:1028A0008FCE000018CE000DBD619B8A00CA0F3785
:1028B000363CCC0829BD4140DE0A3CDE083CCC0A4F
:1028C00021BD41403838383818DE0618E60318E7CD
:1028D00002F17518258138DF0C38DF0A38DF083837
:1028E000383138DF0639DE063C9F06CEE61E1D0075
:1028F0000118FE045ACEE62418EC2AED0218EC2842
:10290000ED00CEE62818EC2EED0218EC2CED00CEF2
:10291000E62C18EC32ED0218EC30ED00CEE6301863
:10292000EC36ED0218EC34ED0038DF0639DE063CFB
:102930009F06DE083CDE0A3CDE0C3CDE0E3CCEE6AA
:102940001C1D000218FE045ACEE85C18EC42ED0291
:1029500018EC40ED00CEE86018EC46ED0218EC44AF
:10296000ED00CEE61E1D00081C0040CEE64818EC27
:102970003ADD0A18EC38DD08DC0ADF02DE0884FFE5
:10298000C41F8F8400C4FF8FDD0EDF0C18DF041816
:10299000DE0218EC02DD0A18EC00DD08DC0ADE08B5
:1029A0008400C4E08F84FFC4008FDD0ADF08DC0EE2
:1029B000DE0C9A0ADA0B8F9A08DA098F18ED02CD2D
:1029C000EF0018DE04CE00004F18E63C18CEE64CAF
:1029D00018E700CEE61DE600C50127F7CEE61E1C6F
:1029E000000838DF0E38DF0C38DF0A38DF0838DF40
:1029F0000639DE063C3C9F06CEE61E1C00011D008B
:102A000040BD053BC40FDE06E70218CEE66E18E6B1
:102A100000C4F0E701E602EA0118E700FC045AC32B
:102A20000028CE00243C3736CC0304BD610A383878
:102A30003838DF0639DE063C308FC3FFC88F359F3C
:102A400006DE083CDE0A3CDE0C3CDE0E3CCC0A997D
:102A5000BD41CBC408DE06E714BD053B58585858A5
:102A600018DE0618E73218CEE66E18E600C40F1816
:102A7000DE0618E72B18E63218EA2BCEE66EE700E2
:102A8000BD29E6F602DD2607FE045AE6012734FCDE
:102A9000019ADD0AFC0198DD08DC0ADE08C801FDA8
:102AA000019AFF0198FC019ADD0AFC0198FE045A84
:102AB000E6013734D60BBD292CFE045AE601F70295
:102AC000DD313118DE06186D1426037E2F27FE0433
:102AD0005AE606186F3318E73418EC33040404047C
:102AE00018ED33C40118E71518E634C801C40118FD
:102AF000E716FC019AFE01982607DD0026037E2CCE
:102B0000B918CEE000183C18CE0145183CCC082975
:102B1000BD414018381838CC0A21BD41948F84DF5C
:102B2000C4FF8FDD0ADF0818DE0618E615188F18B7
:102B3000DF0E7F000E7F000D7F000CDC0EDE0C1818
:102B4000CE001DBD619B4F5F8F8420C4008FDD0EC2
:102B5000DF0CDC0ADE089A0EDA0F8F9A0CDA0D8F82
:102B6000DD0ADF08CCE00F3736CC01453736CC081C
:102B700029BD41403838DE0A3CDE083CCC0A21BD84
:102B800041403838CE00003CCE01463CCC0829BD3F
:102B900041403838CC0A21BD41948F84DFC4FF8F77
:102BA0009A0EDA0F8F9A0CDA0D8FDD0ADF08CC004F
:102BB0000F3736CC01467E2D68CEE0003CCE015367
:102BC0003CCC0829BD41403838CC0A21BD41948F06
:102BD00084DFC4FF8FDD0ADF0818DE0618E615184B
:102BE0008F18DF0E7F000E7F000D7F000CDC0EDEE5
:102BF0000C18CE001DBD619B4F5F8F8420C4008FD9
:102C0000DD0EDF0CDC0ADE089A0EDA0F8F9A0CDA82
:102C10000D8FDD0ADF08CCE00F3736CC0153373695
:102C2000CC0829BD41403838DE0A3CDE083CCC0ADD
:102C300021BD41403838CE00003CCE01543CCC0888
:102C400029BD41403838CC0A21BD41948F84DFC46E
:102C5000FF8F9A0EDA0F8F9A0CDA0D8FDD0ADF08DC
:102C6000CC000F3736CC01543736CC0829BD414053
:102C70003838DE0A3CDE083CCC0A21BD41403838F9
:102C8000CEE0003CCE01443CCC0829BD4140383860
:102C9000CC0A21BD419484FFC4F718DE0618ED3735
:102CA000CDEF358F18E6158FDF0E7F000E7F000DFC
:102CB0007F000CDC0EDE0C18CE0003BD619B84008F
:102CC000C408CE0000DD0ADF0818DE0618EC37CD98
:102CD000EE359A0ADA0B8F9A08DA098F18ED19CDBA
:102CE000EF17CE60003CCE01493CCC0829BD4140E5
:102CF0003838CC0A21BD419484FFC4DFDD0ADF08E7
:102D0000DC0EDE0C18CE0005BD619B8400C420CE15
:102D10000000DD0EDC0ADE089A0EDA0F8F9A0CDA5C
:102D20000D8F18DE0618ED1DCDEF1BCE20003CCE1A
:102D3000014A3CCC0829BD41403838CC0A21BD416C
:102D40009484FFC4DF9A0EDA0F8F9A0CDA0D8F1875
:102D5000DE0618ED21CDEF1F186F114F5FDD0E1845
:102D6000ED30DE06EC30D30E18DE061808DD001854
:102D70008FD300188F1AEF2CDC0EDE0C18CE000853
:102D8000BD619B8AE0CA008F8A01CA4A8F37363CF0
:102D9000CC0829BD41403838CC0A21BD41948F84EC
:102DA000FFC4F38F18DE0618ED37CDEF358F18E628
:102DB000168FDF0A7F000A7F00097F0008DC0ADE29
:102DC0000818CE0012BD619BDD0ADF0818DE061868
:102DD000EC37CDEE359A0ADA0B8F9A08DA098F189C
:102DE000EE2C18ED02CDEF00DE066C11EC30C300C6
:102DF00003ED30DC0EDE0CC30001240108DD0EDF24
:102E00000C18DE0618E611C10322037E2E6218E6B6
:102E1000152705CC0101200618DE06CC030318EDAA
:102E200025CC010118ED23FE045AE607C50827202A
:102E300018CEA000183C18CE0146183CCC0829BD7D
:102E400041403838CC0A21BD41948A40CA00201A3A
:102E5000CEA0003CCE01463CCC0829BD41403838CC
:102E6000CC0A21BD419484BFC4FF18DE0618ED29A9
:102E7000CDEF27F67001C504270DFE045AE606843F
:102E800000C410DD002705C60118DE0618E712F69B
:102E90000454D709F60453D109240CD701DE008F5E
:102EA0004F8FCC01002011188FD609188F8F18DF93
:102EB00000D6014F8FCC1000BD6211CE00004D2A0C
:102EC0000109DD0EDF0C18DE06186F13FC01A2DD10
:102ED0000AFC01A0DD08DC0E940AD40B8F9408D400
:102EE000098F8C00002604DD002708C60118DE06C5
:102EF00018E713C60718CEE26418E700BD3BD8CE2A
:102F0000E2641D000118DE0618E613271DCE00102E
:102F10003CCE00003CCC001037364F5F373637349C
:102F2000BD4EE7308FC3000A8F35CEE211C6F0E701
:102F30000018CE400F183C18CE0153183CCC08297D
:102F4000BD41403838CE00043CCE00003CCC0A21C4
:102F5000BD41403838CEE211E6008400C4F01A8347
:102F600000F026F1C6F0E700CC0004CE0000BD4C16
:102F7000AEBD5188FC019EFE019CBD494C18DE0689
:102F8000186D122708CEE61E1C00042006CEE61E91
:102F90001D0004DE066D1426037E321DCEE61EE6FD
:102FA00000C4DF18DE0618E72E18E61558585858E2
:102FB00058C42018EA2EE700CEE00F3CCE01443C76
:102FC000CC0829BD4140383818DE06CDEE193CCD7D
:102FD000EE173CCC0A21BD41403838CE600F3CCEC4
:102FE00001493CCC0829BD4140383818DE06CDEEF9
:102FF0001D3CCDEE1B3CCC0A21BD41403838CE20D3
:103000000F3CCE014A3CCC0829BD4140383818DE7F
:1030100006CDEE213CCDEE1F3CCC0A21BD4140380F
:1030200038DE066F117F000D7F000C18DE068F4F13
:1030300018E6118FCC0001DF02BD621118E72FDC0A
:103040000CD3021808DD00188FD300188F18EC027B
:10305000DD0A18EC00DD08DE06E62F86E0CE014A28
:1030600018DE0618ED37CDEF3537363CCC0829BDD4
:1030700041403838DE0A3CDE083CCC0A21BD4140E4
:103080003838DE066C11DC0CC30003DD0CE611C120
:1030900003239818CE200F183C18CE0152183CCCB0
:1030A0000829BD41403838CE00CE3CCE00003CCC93
:1030B0000A21BD41403838CE400F3CCE01523CCCB5
:1030C0000829BD4140383818DE06CDEE253CCDEE4E
:1030D000233CCC0A21BD41403838CE200F3CCE01E4
:1030E000523CCC0829BD41403838CE00DE3CCE00F1
:1030F000003CCC0A21BD41403838CE400F3CCE01C7
:10310000523CCC0829BD4140383818DE06CDEE25AA
:103110003CCDEE233CCC0A21BD41403838BD2A2DA0
:10312000BD4B3DBD4C3ECEE648E600C50127F7CE7F
:10313000E206E600C50227F7CEE20A1C0002CEE84E
:1031400040FC019AED02FC0198ED00FE045A188F34
:10315000E606188F18DF0E7F000E7F000D7F000C33
:10316000DC0EDE0C18CE0018BD619BDD0EDF0CFC02
:10317000019ADD0AFC01982604DC0A270ADC0EDE2F
:103180000C8A00CA062008DC0EDE0C8A00CA05DDA7
:103190000ADF08CC400F3736CC01533736CC08292C
:1031A000BD41403838DE0A3CDE083CCC0A21BD4136
:1031B000403838CEA00F3CCE01463CCC0829BD415A
:1031C00040383818DE06CDEE293CCDEE273CCC0A3F
:1031D00021BD41403838CE00013CCE00003CCC0837
:1031E0002BBD41403838FE045A4FE606CE00001889
:1031F000CE0018BD619B8A00CA0ADD0ADF08CE40F6
:103200000F3CCE01533CCC0829BD41403838DE0A82
:103210003CDE083CCC0A21BD41403838CC000ACE07
:103220000000BD4CAECC0A9ABD4194CEE211C6F06E
:10323000E700CEE211E6008400C4F01A8300F02615
:10324000F1C6F0E700FE045A4FE606CE000018CEA5
:103250000018BD619B8A00CA10DD0ADF08CE400F4E
:103260003CCE01533CCC0829BD41403838DE0A3CF5
:10327000DE083CCC0A21BD41403838CEE61C1C009B
:1032800002CE00003C3CCC082BBD41403838CEE299
:10329000641C000818CEE26018EC02DD0E18EC0089
:1032A000DD0CFC01AADD0AFC01A8DD08DE0C9C088F
:1032B00025152207DC0E1A930A230C18EC02FD01D7
:1032C000AA18EC00FD01A8CEE260EC02DD0EEC00D5
:1032D000DD0CFC01AEDD0AFC01ACDD0818DE0C18CB
:1032E0009C0825262206DE0E9C0A231EFC01B2DD68
:1032F0000AFC01B0DD08DC0ADE08C3000124010875
:10330000DF08FD01B2DC08FD01B018DE06186D1300
:10331000271ACE00103CCE00003C4F5F37363736C0
:103320003734BD4EE7308FC3000A8F35BD2AF2FE19
:10333000045AE606F702E2E607F702E3CC0001389A
:10334000DF0E38DF0C38DF0A38DF08308FC3003873
:103350008F3538DF0639DE063C9F06BD29E6BD2ADB
:103360002DBD2AF238DF0639DE063C349F06CEE852
:103370004C4F5FED02CC0010ED00CEE63FE600C5FD
:10338000012733F60457DE06E701262AF762F8F62E
:103390000453C10122207C62F7F662F7F103342363
:1033A0000CBD05E4DE06E601F762F72009CEE6472C
:1033B0001C00101D0010CEE2044F5FED02CC003067
:1033C000ED003138DF0639DE063C349F06CEE84C8E
:1033D0004F5FED02CC0020ED00CEE63FE600C501D8
:1033E0002734F60457DE06E701262BF762F7F604CA
:1033F00053F1045823207C62F8F662F8F103352378
:103400000CBD05FDDE06E601F762F82009CEE647B1
:103410001C00101D0010CEE2044F5FED02CC003006
:10342000ED003138DF0639DE063C9F06DE083CDE63
:103430000A3CDE0C3CDE0E3CCEE647E600C501272A
:10344000037E362718FE045A18EC26DD0E18EC24ED
:10345000DD0CFC0302DD0AFC0300DD08DE0C9C0829
:10346000260ADC0E1A930A26037E3627DE0C9C08F9
:10347000225E2507DC0E1A930A24558F18E6008F6A
:10348000DF0A7F000A7F00097F0008CC400F373633
:10349000CC013F3736CC0829BD41403838DE0A3CE4
:1034A000DE083CCC0A21BD41403838F602DEC101BD
:1034B000261EFE045AE6022617CEE7FFC608E700DE
:1034C000CEE211E600C50427F7C604E7007F02DE5E
:1034D000CEE6461D0080BD4AB6CC1E84CE0000BD9F
:1034E0004998F67001C5082705BD1D122003BD20AF
:1034F00086BD4AFBCEE20A1C000218CEE206C602D6
:1035000018E7001C0002F602DE261CFE045AE60242
:10351000C1012613CEE7FFC609E700CEE211C604BB
:10352000E700C601F702DEFE045A188FE600188F86
:1035300018DF0A7F000A7F00097F0008CE400F3C99
:10354000CE013F3CCC0829BD41403838DE0A3CDE84
:10355000083CCC0A21BD41403838FE045AEC16DD47
:103560000AEC14DD0818CEE604DC0ADF02DE08846B
:10357000F0C4008F8400C41F8FDD0EDF0C18EC0236
:10358000DD0A18EC00DD08DC0ADE08840FC4FF8FBA
:1035900084FFC4E08FDD0ADF08DC0EDE0C9A0ADA55
:1035A0000B8F9A08DA098F18ED02CDEF00CEE605F1
:1035B0001C0040CEE60FE600C50227F7CEE6051D4B
:1035C0000040DE02E65AC5012706CEE6461C008012
:1035D000CC000138DF0E38DF0C38DF0A38DF08385E
:1035E000DF0639DE063C3C3C3C3C9F06DE083CDE08
:1035F0000A3C18FE0462186D0026037E386BCEE28A
:10360000641C000818EC0A0518E30A05050518DF14
:1036100000D300C3000CDE06ED07CEE260DD02EC55
:103620000218DF0418DE0218ED02EC0018ED001895
:10363000DE0418EC0A0518E30A050505DD00188FFD
:10364000D300188FF6045418E714CEE8BCEC02DD62
:103650000AEC00DD0818FE046218EC0A0518E30AFB
:10366000050505DD02DE0218DF008FD3008FDC0ABE
:103670008403ED1818EC0A0518E30A050505DD02B8
:10368000DE0218DF008FD3008FCC03FF9408D4092B
:10369000ED1A18EC0A0518E30A050505DD0218DF26
:1036A00000D300CEE740DD02EC02EC00DD08CC07E1
:1036B000FF9408D409DE02ED1CCEE744EC02DD0ADB
:1036C000EC00DD0818EC0A0518E30A050505DD0223
:1036D000DE0218DF008FD3008FDC0A8407ED1E188E
:1036E000EC0A0518E30A050505DD02DF04DE021811
:1036F000DF008FD3008FCC07FF9408D409ED20DEC4
:103700000418EC0A0518E30A05050518DF00D300C4
:10371000C3001018DE0618ED01BD605C18DE061847
:10372000EE0118ED02CDEF00CEE73E1C00041D00B7
:10373000041C00021D0002FC0462DE06ED03188F6B
:1037400018EC08CEFFFF3C8D3018DE0618EE03188B
:10375000ED08FE046218DE06CDEF05EC0AEE040962
:103760003C8D16DE06EE05ED0A383838DF0A38DF04
:10377000083838383838DF0639DE063C9F06DE0662
:103780001AA30526044F5F2003C3000138DF063962
:10379000DE063C9F06DE083CDE0A3C18FE0462188A
:1037A0006D00275CCEE668EC02DD0AEC00DD08184F
:1037B000EC0A0518E30A05050518DF00D300DE0A48
:1037C000DD0218DF0418DE02CDEF1618DE0418EC57
:1037D0000A0518E30A050505DD00188FD300188FC8
:1037E000CC00019408D40918E715C607CEE264E7B7
:1037F00000CC0001CE0000BD4998CEE2641D00015E
:1038000038DF0A38DF0838DF0639DE063C3C3C3C4E
:103810003C9F06DE083CDE0A3CDE0C3CDE0E3CCE65
:10382000E66FF60454C40F18DE0618E706E600C477
:10383000F018E70218E60618EA02E700FE045AE666
:103840004EF1032A2510E656F103322509BD4E55E7
:103850005D26037E3ACBFE045AE603F102DF230B1A
:10386000C601BD4D9B5D26037E3ACB18CE400F1896
:103870003C18CE013F183CCC0829BD41403838CE19
:1038800000083CCE00003CCC0A21BD41403838FE47
:10389000045AFC0326DD0EFC0324DD0CEC4ADD0A91
:1038A000EC48DD0818DE0C189C0825112206DE0EF7
:1038B0009C0A2309BD2B355D26037E3ACBCEE64715
:1038C000E60018DE0618E7088400C40118ED032698
:1038D0004EFE045AEC26DD0EEC24DD0CFC0302DD6A
:1038E0000AFC0300DD0818DE0C189C082606DE0E14
:1038F0009C0A272BF67001C5082703BD4AB6BD35C3
:103900002718DE0618E701F67001C5082703BD4A2F
:10391000FB18DE06186D01260618EC037E3B7918AD
:10392000FE045AFC0326DD0EFC0324DD0C18EC4AD1
:10393000DD0A18EC48DD08DE0C9C08254C2207DC6B
:103940000E1A930A2543FC031EDD0EFC031CDD0C3E
:1039500018EC42DD0A18EC40DD08DE0C9C08262934
:10396000DC0E1A930A2622FC0322DD0EFC0320DD66
:103970000C18EC46DD0A18EC44DD0818DE0C189C27
:10398000082606DE0E9C0A2706BD2B355D273CFE69
:10399000045AE603F102DF2408C601BD4D9B5D27F2
:1039A0002A18CE400F183C18CE013F183CCC0829ED
:1039B000BD41403838CE00093CCE00003CCC0A2145
:1039C000BD41403838BD4E555D26054F5F7E3B7981
:1039D000CEE66FF604545858585818DE0618E70714
:1039E000E600C40F18E70518E60718EA05E700CE59
:1039F000E6471C001018FE045AFC02EADD0EFC0229
:103A0000E8DD0C18EC0EDD0A18EC0CDD08DE0C9C71
:103A1000082607DC0E1A930A2717CEE6D0DC0AED3B
:103A200002DC08ED0018EC0EFD02EA18EC0CFD02B9
:103A3000E8CEE6D418EC0AED0218EC08ED00CEE66C
:103A4000471D0010CEE6EEE600BD053BCEE7F3E7EE
:103A500000BD052ECEE7F2E700CEE7EFC6F9E7009E
:103A6000CEE7EEC601E7006F00FE045AE658F70302
:103A700034E659F70335CC000138DF0E38DF0C3857
:103A8000DF0A38DF083838383838DF0639DE063CD8
:103A90003C3C9F06F67003C5082735CEE208E600D9
:103AA00018DE0618E701CEE204E60018E70418E67F
:103AB000015318E70218E60418E40218E704C508E1
:103AC000270ECEE24CE600C5012705CC00012002FE
:103AD0004F5F383838DF0639DE063C9F067D045CD0
:103AE00026467D045D2741FC0136FE0134BD494C6C
:103AF0002007C608CEE210E700CEE210E600C508B7
:103B0000270ECEE206E600C50226058D805D27E27F
:103B1000CEE210E600C508260FCEE206E600C5029A
:103B20002606BD3B8D5D27E838DF063918DE06180E
:103B30003C3C349F0618DE08183C18DE0A183C1876
:103B4000DE0C183C18DE0E183CDD0A18DE0618ECF8
:103B50000EDD0E18EC0CDD0CDC0A18A30A8F18E23F
:103B60000918A2088FDD0ADF08CC010018E01182D5
:103B70000018ED0118CE0000DE06188FE703188F3D
:103B8000DC0A05DE088F59498FDD0ADF08DF04DE15
:103B90000664016602DE049C0C251F22051A930EA2
:103BA0002318DF04DE06188FE301188FDE04930E5E
:103BB0008FD20D920C8FDD0ADF08DE066C03E60360
:103BC000C10223BC188C0000260418CE0001188FF7
:103BD000504F38DF0E38DF0C38DF0A38DF08383155
:103BE00038DF063918DE06183C9F0618DE08183C38
:103BF00018DE0A183C8C00002604DD00275FCC018B
:103C00000018DE0618E0068200DD0218CEE6041871
:103C1000EC02DD0A18EC00DD08DC0ADE08840FC4C3
:103C2000FF8F84FFC4E08FDD0ADF08DC02CE0000D6
:103C300018CE000CBD619B84F0C4008F8400C41FAB
:103C40008F9A0ADA0B8F9A08DA098F18CEE60418D1
:103C5000ED02CDEF00CEE6051C00202006CEE605E5
:103C60001D0020CEE6051C0040BD1BC418CEE60595
:103C7000181D004038DF0A38DF0838DF0639DE0655
:103C80003C3C3C9F06DE083CD709F676ACD10926C1
:103C9000037E3E20D109243A4FF676AC8F4FF604CE
:103CA000E08F3CBD3E8BDE06ED01E6023131D109ED
:103CB000245A3734CC0001CE0000BD3CE4DE06E6D9
:103CC00002F776ACCE00004FF604E1BD49983131E1
:103CD00020C64FF676AC8F4FF604E08F3CBD3EB960
:103CE000DE06ED03E6043131D10923203734CC0060
:103CF00001CE0000BD3CE4DE06E604F776ACCE0063
:103D0000004FF604E1BD4998313120C6D609373459
:103D1000CC0001CE0000BD3CE4D609F776AC3131D1
:103D200038DF08383838DF0639DE063C9F06F104F4
:103D3000D82338CEE63FE600C501272CF60453F120
:103D4000045823244F05050505C304888FE600BDEC
:103D50003D7EBD05FD5FBD3D7E5F37344F5FCE00CC
:103D600000BD3CE431312006F604D8BD3D7E7D76B1
:103D7000B02706BD59587F76B038DF0639DE063CDD
:103D80009F06F676AE8DA238DF0639DE063C3C9FF4
:103D900006D70318DE0618E608186F0118E70218A0
:103DA000EC01DE02DF00DB0189001A8300FF230340
:103DB000CC00FF4F3838DF0639DE063C9F06DE08B0
:103DC0003CDE0637E606D701DE00338FD7098FD1F8
:103DD0000925074FD009820020024F5F4F38DF08C6
:103DE00038DF063918DE06183C9F0618DE08183C36
:103DF00018DE0A183C18DE0C183C18DE0E183CDDE4
:103E00000EDF0CFC76A2DD0AFC76A0DD0818DE06CB
:103E1000CDA30922352507DC0ACDA30B222CF6768B
:103E2000AC373418DE06CDEE073CCDEE053CDE0E99
:103E30003CDE0C3CDC0ADE08BD3C2CF776AEC6014D
:103E4000F776B030C60A3A35206DFC76A6DD0AFC5E
:103E500076A418DE06CDA30922162507DC0ACDA319
:103E60000B240DF604DD3734F676ACBD3E8B2042D4
:103E7000FC76AADD0AFC76A818DE06CDA309222767
:103E80002507DC0ACDA30B241EFC76A6DD0AFC76F2
:103E9000A418DE06CDA309250E2207DC0ACDA30B4C
:103EA0002305F604DE2003F604DF3734F676ACBDD6
:103EB0003EB93131F776AEBD3E7D38DF0E38DF0CCE
:103EC00038DF0A38DF0838DF0639DE063C9F06CEC9
:103ED00000403C18CE76C0183CCC0498BD610A4F17
:103EE000F6045405050505C30498CE00103C37368A
:103EF000CC04D8BD610A3838383838DF0639DE06D8
:103F00003C9F06DE083CDE0A3C188FDE06EC07DD2F
:103F10000AEC05DD08CEE2221AEF00CEE228DC0A28
:103F2000ED02DC08ED00CEE22118DE0618E60AE715
:103F300000CEE210C601E700CEE220C603E700CEC5
:103F4000E210E600C50127F7C601E70038DF0A38AE
:103F5000DF0838DF0639DE063C9F06CEE222ED00A0
:103F6000CEE22818DE0618E606E700CEE221C608F3
:103F7000E700CEE210C601E700CEE220C603E7006C
:103F8000CEE210E600C50127F7C601E70038DF06DC
:103F900039DE063C9F06CEE222ED00CEE22918DE95
:103FA0000618E606E700CEE221C604E700CEE210DE
:103FB000C601E700CEE220C603E700CEE210E6002D
:103FC000C50127F7C601E70038DF0639DE063C9F4A
:103FD00006CEE222ED00CEE22A18DE0618E606E75B
:103FE00000CEE221C602E700CEE210C601E700CE15
:103FF000E220C603E700CEE210E600C50127F7C6BF
:1040000001E70038DF0639DE063C9F06CEE222EDEE
:1040100000CEE22B18DE0618E606E700CEE221C647
:1040200001E700CEE210E700CEE220C603E700CEB3
:10403000E210E600C50127F7C601E70038DF0639C0
:10404000DE063C9F06DE083CDE0A3C188FDE06ECEE
:1040500007DD0AEC05DD08CEE2221AEF00CEE228E9
:10406000DC0AED02DC08ED00CEE221C60FE700CE4F
:10407000E210C601E700CEE220C603E700CEE21060
:10408000E600C50127F7C601E70038DF0A38DF0878
:1040900038DF0639DE063C9F06CEE222ED00CEE296
:1040A00021C60FE700CEE210C601E700CEE220E70E
:1040B00000CEE210E600C50127F7C601E700CEE218
:1040C00024EC02EE00183818DF0639DE063C9F06A5
:1040D000CEE222ED00CEE221C60FE700CEE210C60E
:1040E00001E700CEE220E700CEE210E600C501279E
:1040F000F7C601E700CEE224E6004F38DF0639DEDE
:10410000063C9F06CEE222ED00CEE221C60FE7007C
:10411000CEE210C601E700CEE220E700CEE210E6D4
:1041200000C50127F7C601E700CEE226E6004F38BA
:10413000DF0639DE063C9F06DE083CDE0A3C188FAF
:10414000DE06EC07DD0AEC05DD08188F05058BE0BF
:10415000188FDC0A18ED02DC0818ED0038DF0A3889
:10416000DF0838DF0639DE063C9F0605058BE018C0
:104170008F18EC02CDEE00183818DF0639DE063C49
:10418000349F06C6FFDE06E701CEE84C4F5FED0226
:10419000CC0200ED00CEE63FE600C5042607BD08D0
:1041A00007DE06E701DE066D012B06CEE2081C00E5
:1041B00002CEE2044F5FED02CC0200ED003138DFA9
:1041C0000639DE063C9F06CEE2044F5FED02CC02CC
:1041D00000ED00CEE2081D000238DF0639DE063CA5
:1041E0009F06CEE84C4F5FED02CC0800ED00CEE21A
:1041F0004CE600C501270EF67001C5102705BD432A
:10420000F720028D6BCEE24CE600C502271CCEE6FD
:104210003FE600C5042613BD08075D2B0DCEE2491D
:104220001D00C0C602CEE24CE700CEE2044F5FEDB7
:1042300002CC0800ED0038DF0639DE063C9F067F21
:104240000456F67001C501270DCEE24CC601E70009
:10425000CEE2481C008038DF0639DE063C9F06CEE1
:10426000E24CC602E700CEE2491C008038DF063986
:10427000DE063C3C349F06C6FF18DE0618E701C682
:1042800001F70456F67003186F0218E70318EC02E2
:10429000C5082705C601F7045CCEE63FE600C50168
:1042A0002730F60338C501262218DE0618EC0284F2
:1042B00000C4071A8300012612C601373418CE76CF
:1042C000C0183CCC70B8BD07853838BD0683DE0603
:1042D000E70118DE06186D012B0DCEE2481D00C067
:1042E000CEE24CC601E700F67003C50827037F0441
:1042F0005C383138DF0639DE063C3C3C9F06C6019F
:1043000018DE0618E701CEE248E60018E703C4DF2E
:1043100018E70418E603C520260CC601F70459184F
:10432000E604CA2020097F045918DE0618E604189E
:10433000E703CEE63FE600C5012707BD0683DE069C
:10434000E70118DE06186D012B0FCEE24CC601E71F
:1043500000CEE24818E603E700383838DF0639DED9
:10436000063C9F06CEE63FE600CEE7F4C60CE7002B
:1043700038DF0639DE063C9F06CEE84C4F5FED0283
:10438000CC1000ED00CEE63FE600C5012703BD4797
:1043900090CEE2044F5FED02CC1000ED0038DF0656
:1043A00039DE063C3C3C3C3C3C9F06DE083CDE0AD9
:1043B0003CDE06E701C601F704EFE6016F09E70AF4
:1043C000EE098C0006271F2E088C000427147E4758
:1043D00081DE06EE098C000827168C000A27157E60
:1043E0004781C6042002C60518DE0618E702200E23
:1043F000C6062002C60718DE0618E702C60518E73B
:104400000318E70418DE0618E601F104EE26037E21
:104410004775CDEE098C000626037E468F2E088C4C
:104420000004271E7E477518DE0618EC091A830063
:104430000826037E468F1A83000A26037E468F7E57
:10444000477518CEE64418EC02DD0A18EC00DD08CA
:10445000DC0ADE0884FDC4FF18ED02CDEF0018EC85
:1044600002DD0A18EC00DD08DC0ADE088A01CA0059
:1044700018ED02CDEF0018EC02DD0A18EC00DD08A3
:10448000DC0ADE0884FEC4FF18ED02CDEF00C6038F
:10449000BD070D18CE0118183CCE70B83CCC0338BF
:1044A000BD610A18CE0040183CCE76C03CCC0498C2
:1044B000BD610A7F0454CC033CFD045ABD053BC4D6
:1044C0000F18DE0618E70918CEE66F18E600C4F0EC
:1044D00018DE0618E70518E60918EA05CEE66FE7C4
:1044E000004F5FBD4E55C601BD4D9BBD2637BD512A
:1044F00088BD34567F045318CE0010183CCE049863
:104500003CCC04D8BD610ABD052E5858585818DE59
:104510000618E70918CEE66F18E600C40F18DE0685
:1045200018E70618E60918EA06CEE66FE700C601A6
:10453000BD070D18DE0618E604373418E603BD483B
:104540001DDE06E602BD485EFC017AFE0178BD492B
:104550009818FE045ACEE6D418EC0AED0218EC08BE
:10456000ED00CEE7FFC606E70030C60E3A35FC0484
:10457000ECDD0AFC04EADD082607DC0A26037E4798
:1045800075CEE208DC0AED02DC08ED007E4775FC22
:104590000162FE0160BD4998CEE644EC02EC0018D1
:1045A000DE0618E604373418E603BD481DCEE7FFE3
:1045B000C607E70018DE0618E602BD485E3131F690
:1045C00004EEC10427037E4775C603BD070D18CE50
:1045D0000118183CCE71D03CCC0338BD610A18CE0E
:1045E0000040183CCE77003CCC0498BD610A7F04A3
:1045F00054CC033CFD045ABD053BC40F18DE06181D
:10460000E70918CEE66F18E600C4F018DE0618E7D2
:104610000718E60918EA07CEE66FE700BD2637BDA2
:104620005188BD3456C601BD4D9B4F5FBD4E55BD33
:10463000052E5858585818DE0618E70918CEE66FA8
:1046400018E600C40F18DE0618E70818E60918EA8D
:1046500008CEE66FE7005FBD070DCEE208EC02FD75
:1046600004ECEC00FD04EACCFBFFED02CCEF7FEDA7
:1046700000383838387F04EF18DE0618E601F704F2
:10468000EE38DF0A38DF08383838383838DF06398E
:10469000DE063C349F06DE083CCEE7F5E600D7098F
:1046A000CCFFFCDB0989001A830008226805C3627D
:1046B000E5188FCDEE006E00BD445F2058CEE7F4C4
:1046C000C604E700C605201FCEE7F4C606E700C60D
:1046D000072014CEE7F4C608E700C6092009CEE794
:1046E000F4C60AE700C60B18DE0618E701CEE63F5F
:1046F000E600C502260ACEE7F418E601E700201519
:10470000D609BD44A1CEE7F418DE0618E601E7009D
:10471000D609F704EE38DF083138DF0639DE063C0B
:10472000349F06DE083CDE06E701E607D709CEE245
:1047300011C604E700CEE7FF18DE0618E601E70021
:10474000CEE211E600C50427F7C604E700CEE7FE77
:10475000E600D10926DF38DF083138DF0639DE060A
:104760003C9F06DE083CDE0A3CDE0C3CDE0E3CD7FD
:1047700009C60F373418CE000F183C18CE000018A9
:104780003CCC0829BD3FFEC60718CEE26418E700FE
:104790003838388FD6098FDF0A7F000A7F00097FFB
:1047A0000008CC400F3736CC013F3736CC0829BD46
:1047B00041403838DE0A3CDE083CCC0A21BD41408D
:1047C0003838CEE2641D0001CEE211E6008400C458
:1047D000F01A8300F026F1CC1F40CE0000BD4998AE
:1047E000CEE2641C000818CEE26018EC02DD0E1860
:1047F000EC00DD0CFC018EDD0AFC018CDD08DE0C1A
:104800009C0825152207DC0E1A930A230C18EC02CB
:10481000FD018E18EC00FD018CCEE211C6F0E70020
:1048200038DF0E38DF0C38DF0A38DF0838DF0639AA
:10483000DE063C9F06C60ABD44A138DF0639DE0607
:104840003C9F06C604BD44A138DF063918DE0618B1
:104850003C9F0618DE08183C18DE0A183CDD0ADF0B
:1048600008260DDD002609CC0001DD0A4F5FDD08BA
:10487000CEE234DC0AED02DC08ED00CEE23C1C00A6
:1048800002CEE206C602E700CEE20A1D000238DFD1
:104890000A38DF0838DF063918DE06183C349F0670
:1048A00018DE08183C18DE0A183CDF087D04EF27E4
:1048B0004418CE0004BD619BDD0ADF0818DE06182F
:1048C0006F01CEE264C607E70018DE06186C011817
:1048D000E601C10423ECC606E700CEE264C60EE79B
:1048E00000CEE260EC02EE009C0825EE22361A9320
:1048F0000A25E7202FCEE234ED02DC08ED00CEE2FF
:104900003C1C0002CEE206C602E700CEE20A1D0011
:1049100002CEE206E600C50227F7C602E700CEE2B5
:104920000A1C000238DF0A38DF083138DF0639DEBA
:10493000063C9F06DE083CD709CC40003736CC0148
:104940003F3736CC0829BD41403838CC0A21BD411B
:10495000FFD10926F6CC41003736CC013F3736CCA3
:104960000829BD414018381838CC0A21BD41FFD173
:104970000926F6CC42003736CC013F3736CC082921
:10498000BD414018381838CC0A21BD41FFD1092655
:10499000F6CC43003736CC013F3736CC0829BD4131
:1049A0004018381838CC0A21BD41FFD10926F63805
:1049B000DF0838DF0639DE063C9F06CC00043736B8
:1049C0004F5F3736CC082BBD4140CC085BBD4194CE
:1049D0008A00CA0837363CCC085BBD4140CC087918
:1049E000BD41948A00CA0837363CCC0879BD4140A5
:1049F000308FC3000C8F3538DF0639DE063C9F064A
:104A00004F5F37363736CC082BBD4140CC085BBDF5
:104A1000419484FFC4F737363CCC085BBD4140CCA1
:104A20000879BD419484FFC4F737363CCC0879BD82
:104A30004140308FC3000C8F3538DF0639DE063C2D
:104A40009F06DE083CDE0A3CCE60003CCE013E3CC8
:104A5000CC0829BD41403838CC0A21BD4194DD0A3B
:104A6000DF0818FE045A18E607C5012708DC0A8A81
:104A700000CA012008DC0ADE0884FFC4FEDD0A1833
:104A8000E607C5022708DC0A8A00CA022006DC0AFB
:104A900084FFC4FDDD0ADF08CC600F3736CC013E51
:104AA0003736CC0829BD41403838DE0A3CDE083CA8
:104AB000CC0A21BD41403838CE60003CCE013E3C9E
:104AC000CC0829BD41403838CC0A21BD41949C080E
:104AD00026E61A930A26E1CE61003CCE013E3CCC8C
:104AE0000829BD41403838CC0A21BD41949C082694
:104AF000E61A930A26E1CE62003CCE013E3CCC0889
:104B000029BD41403838CC0A21BD41949C0826E695
:104B10001A930A26E1CE63003CCE013E3CCC082924
:104B2000BD41403838CC0A21BD41949C0826E61A84
:104B3000930A26E138DF0A38DF0838DF0639DE0657
:104B40003C9F06DE083CDE0A3CCE00003CCE013A2B
:104B50003CCC0829BD41403838CC0A21BD41948461
:104B6000FFC4FEDD0ADF08FE045A4FE60704048492
:104B700000C401CE00009A0ADA0B8F9A08DA098F76
:104B8000DD0ADF08CC000F3736CC013A3736CC08C7
:104B900029BD41403838DE0A3CDE083CCC0A21BD44
:104BA0004140383838DF0A38DF0838DF0639DE069A
:104BB0003C349F06DE083CDE0A3CDE06E701CC40C2
:104BC000003736CC01533736CC0829BD4140183860
:104BD0001838CC0A21BD419418CE0008BD61AEDD65
:104BE0000A18DE0618E601C1FF2706DC0AC5012601
:104BF000CD18CE4100183C18CE0153183CCC0829E2
:104C0000BD414018381838CC0A21BD419418CE0057
:104C100008BD61AEDD0A18DE0618E601C1FF2706F1
:104C2000DC0AC50126CB18CE4200183C18CE015331
:104C3000183CCC0829BD414018381838CC0A21BD91
:104C4000419418CE0008BD61AEDD0A18DE0618E6F4
:104C500001C1FF2706DC0AC50126CB18CE43001888
:104C60003C18CE0153183CCC0829BD4140183818D7
:104C700038CC0A21BD419418CE0008BD61AEDD0AD2
:104C800018DE0618E601C1FF2706DC0AC50126CB9F
:104C900038DF0A38DF083138DF0639DE063C3C9F52
:104CA00006DE06E701FE045AE603F102DF277F5D18
:104CB000267CCEE7F7C60DE700C601DE06E702C692
:104CC00002CEE206E700CEE20A1C0002DE06E601A2
:104CD0002709FC013AFE0138BD494CCEE206E60048
:104CE000C5022620CEE211E600C5012708C601E76D
:104CF00000DE066F02DE066D022709CEE206E60040
:104D0000C50227E0CEE206C602E700CEE20A1C009A
:104D100002DE06E6022709CEE7F76F004F5F20307C
:104D2000CEE7F4C60EE700DE06E602F702DFFE0479
:104D30005AE603F102DF2715C1012611CEE7F4C6BA
:104D40000CE700CEE7F76F00C601F702DFCC0001E9
:104D50003838DF0639DE063C3C9F06CEE63EE600EC
:104D6000C504272DFE045AE64EF1032A2723BD056C
:104D70003B565656C4C0DE06E702CEE66CE600C4DB
:104D80003FDE06E701E602EA01CEE66CE700BD5031
:104D900099C601BD502ACC00013838DF0639DE063D
:104DA0003C3C9F0618FE045A18E605F102E1273242
:104DB000CEE63D585858C40818DF0418DE0618E738
:104DC00002E600C4F718E70118E60218EA0118DE47
:104DD00004E70018E605F702E1FC0142FE0140BDD0
:104DE00049983838DF0639DE063C3C3C3C3C3C9F69
:104DF00006DE083CDE0A3CDE0C3CDE0E3CDE06E74E
:104E00000A18DE06EC13DD0AEC11DD08F662F9E79C
:104E100002EC17EE15BD620ADD0EDF0C18E610532A
:104E200018E704DC0ADE0818A41718E4188F18A481
:104E30001518E4168F18ED07CDEF0518E60A18E4EB
:104E40001018E70918E6022751CEE67CEC02DD0ACD
:104E5000EC00DD08DC0ADE08940ED40F8F940CD42D
:104E60000D8FDD0ADF04CEE68BE60054545418E4BF
:104E70000418E701DC0A18AA0718EA08DF02DE04B2
:104E80008F18AA0518EA068F18CEE67818ED02CD1D
:104E9000EF00DE06E601EA092052CEE678EC02DDFC
:104EA0000AEC00DD08DC0ADE08940ED40F8F940CA7
:104EB000D40D8FDD0ADF04CEE68BE60018DE06187F
:104EC000E40418E701DC0A18AA0718EA08DF02DE82
:104ED000048F18AA0518EA068F18CEE67C18ED0292
:104EE000CDEF00DE06E601EA09585858DE02E70079
:104EF00018DE0618E602C801F762F9CEE63F5656FC
:104F000056C4C018E70AE600C43F18E70318E60ACB
:104F100018EA03E70038DF0E38DF0C38DF0A38DF25
:104F200008383838383838DF0639DE063C349F0612
:104F3000DE06E70118FE045A18E656F1033227543C
:104F4000CE70043AFC70B23736FC70B037364F186A
:104F5000E6560505DD02DF04DE028FC370248FEC08
:104F6000023736EC00DE043736F670A63734E6003A
:104F7000BD4EE7FE045AEC56FD0332EC54FD0330FF
:104F800030C60A3A35DE06E6012709FC0146FE0175
:104F900044BD49983138DF0639DE063C3C3C349F3D
:104FA00006F6032A18DE0618E701FE045AE14E262B
:104FB000037E5155FE045AF670A418DE0618E70366
:104FC000F67001C502271218E601E14E24035C20A9
:104FD0000D18DE06186A012008E64E18DE0618E7EE
:104FE0000118DE0618E601186F0418E705CDEE0477
:104FF0008FC370048FFC70AA3736FC70A837361840
:10500000EC040505DD02DF04DE028FC370248FECA3
:10501000023736EC00DE04373618E6033734E60094
:10502000BD4EE7FE045A1830C60A183A183518DE85
:105030000618E601E14E26045FBD502AFC0146FE3B
:105040000144BD4998FE045A18DE0618E601E14EF7
:1050500027037E50B4BD053B58585858C430DE066F
:10506000E70418CEE66C18E600C4CFE702E604EACF
:105070000218E700FE045AEC4EFD032AEC4CFD0337
:105080002838383138DF0639DE063C3C3C349F0690
:10509000CEE63EE60018DE0618E702C504273B18F8
:1050A000FE045A18E652F1032E272FCEE63D58583B
:1050B0005818DF0418DE0618E703C40818E704E6EA
:1050C00000C4F718EA0418E70518DE04E70018EC36
:1050D00052FD032E18EC50FD032C38383138DF0612
:1050E00039DE063C308FC3FFB48F359F06DE083CA7
:1050F000DE0A3CDE0C3CDE0E3CDE066F017F000B60
:105100007F000A7F00097F00085FE716DC0AED1BBD
:10511000ED19EC1BED1F4F5FED1DCEE84CCC2000D0
:10512000ED024F5FED0018CE000F183C18CE0000C6
:10513000183CCC096FBD4140CC000F37367F0003CF
:105140007F0002DC023736CC0829BD4140C611374A
:1051500034CC09FABD410730C60A3A35CEE8A3E699
:10516000002706BD59587E5941CEE8BC18DE06EC32
:105170000218ED33EC0018ED31CEE73E1C00041DA3
:10518000000418CEE8A8181D0001CEE888EC02DD66
:105190000EEC00DD0CCEE88CEC02DD0AEC00DD0844
:1051A000CEE89418DF0418DE06EC0218ED2BEC00B4
:1051B00018ED29CEE898EC0218ED2FEC0018ED2D33
:1051C00018DF0218DE04F602D82720CEE890EC02A1
:1051D00018DE0218ED1BEC0018ED19CEE89CEC026D
:1051E00018ED1FEC0018ED1D18DE04181C0001CE90
:1051F00000013CCE00003CCC0829BD4140CC09D484
:10520000BD419484FFC4E08F843FC4FF8F18DE0645
:1052100018ED08CDEF06CC010237367F00037F0082
:1052200002DC023736CC0829BD4140CC09D4BD414F
:105230009484FFC4E08F843FC4FF8F18DE0618ED0E
:105240000CCDEF0ACC020437367F00037F0002DC6E
:10525000023736CC0829BD4140CC09D4BD419484E5
:10526000FFC4E08F843FC4FF8F18DE0618ED10CD19
:10527000EF0ECC030837367F00037F0002DC0237D5
:1052800036CC0829BD4140CC09D4BD419484FFC42B
:10529000E08F843FC4FF8F18DE0618ED14CDEF12A7
:1052A000CC000F37367F00037F0002DC023736CC9C
:1052B0000829BD4140CE000F3CCE00003CCC096F18
:1052C000BD4140C6103734CC09FABD4107CC013787
:1052D000BD419418DE0618ED04CDEF0230C61A3A2F
:1052E00035F602D97D02D826037E54DD18DF041876
:1052F000DE06186F4718E748DC0EDE0C183C18EE87
:1053000047BD61AE1838DD0EDF0CDC0ADE08183C44
:1053100018EE47BD61AE1838DD0ADF08CC00201852
:10532000A34718ED3518EC1BCE0000183C18EE35DD
:10533000BD619B18389A0EDA0F8F9A0CDA0D8F1810
:10534000ED23CDEF21CC001018A34718ED37CDEE9B
:10535000194F5F183C18EE37BD619B18389A0ADA6E
:105360000B8F9A08DA098F18ED27CDEF2518EC2B53
:10537000CDEE29183C18EE47BD61AE183818ED2B5C
:10538000CDEF2918EC2FCDEE2D183C18EE47BD615E
:10539000AE183818ED2FCDEF2D18EC1FCE000018E9
:1053A0003C18EE35BD619B183818AA2B18EA2C8FD3
:1053B00018AA2918EA2A8FDD0EDF0CCDEE1D4F5FEB
:1053C000183C18EE37BD619B183818AA2F18EA3020
:1053D0008F18AA2D18EA2E8F18DE04206518DE0615
:1053E000186F4718E748DC0EDE0C183C18EE47BD76
:1053F00061AE183818ED23CDEF21DC0ADE08183C29
:1054000018EE47BD61AE183818ED27CDEF2518EC22
:105410002BDD0E18EC29DD0CDC0EDE0C183C18EE32
:1054200047BD61AE1838DD0EDF0C18EC2FDD0A1811
:10543000EC2DDD08DC0ADE08183C18EE47BD61AE35
:105440001838DD0ADF0818DE0618EC23CDEE211827
:10545000E3278F18E92618A9258FD30E8FD90D9928
:105460000C8FD30A8FD90999088FDD0EDF0CCDEE92
:10547000083CCDEE063C5FBD5B4838385D26037EB8
:10548000565F4F0505C301F4188F18EC26CDEE24A6
:1054900018E3228F18E92118A9208FDD0ADF08DC24
:1054A0000804DD08DC0A4656DD0A18DE06CDEE0CDF
:1054B0003CCDEE0A3C5FBD5B4838385D26037E5626
:1054C0005F4F0505C301F4188F18EC26CDEE2418A4
:1054D000E3228F18E92118A9208F18DF0418DE06AF
:1054E00018ED4BCDEF4918EC4904CDEE4B8F4656E5
:1054F000D30A8FD90999088FDD0ADF08CDEE103C59
:10550000CDEE0E18DE043C5FBD5B4838385D274F9A
:105510004F0505C301F4188F18EC26CDEE2418E3CF
:10552000228F18E92118A9208F18DF0418DE061829
:10553000ED4BCDEF4918EC4904CDEE4B8F4656D3D9
:105540000A8FD90999088FDD0ADF08CDEE143CCD0A
:10555000EE1218DE043C5FBD5B4838385D26221829
:10556000DE06CDEE333CCDEE313C7F00037F000202
:10557000DD04DC023736DC04DC023736DC047E581E
:10558000294F0505C301F4188F18EC26CDEE241819
:10559000E3228F18E92118A9208F18DF0418DE06EE
:1055A00018ED4BCDEF4918EC4904CDEE4B8F465624
:1055B000D30A8FD90999088FDD0ADF0818EC04CDCA
:1055C000EE0218DE04BD59C24F0505C301F4188F61
:1055D000DC0EDE0CD30A8FD90999088F18E3028FED
:1055E00018E90118A9008FDD0EDF0CFE0462E60148
:1055F0002759EC0A05050505DF00D300C30014DEBA
:1056000006ED39BD605C18DE0618EE3918ED02CDE6
:10561000EF00FE0462EC0A05050505DD0218DE0256
:10562000DF00188FD300188FDC0E18ED12DC0C1879
:10563000ED10EC0A05050505188FDF00188FD30063
:10564000188FDE06EC33840318ED18FC0328DE0601
:10565000ED3B04040404ED17DC0EED4BDC0CED49CE
:1056600018DF0418DE06DC0EDE0C18DF0218DE047C
:1056700018CE0006BD61AE18DE0218ED4BCDEF4925
:1056800018EC17CDEE17BD61C118ED3DDD0018DE39
:1056900000164F5454188F7F00097F0008183CDC17
:1056A000083736DE02EC4BEE49BD613B183818383E
:1056B00018DF0418DE0618ED41CDEF3F18E6161886
:1056C000DE04C116224918DE064F18E61605050548
:1056D000C301F48FEC28CDA33B260FEC2A1A8300DC
:1056E000692607C60118E701200918DE06186F01B0
:1056F000186C16DD04DC06DD02DC043CDE026D0104
:1057000038260CDF04DE02E616DE04C11623B718C5
:10571000DE06186D012629CDEE333CCDEE313C1866
:10572000DE0E183C18DE0C183C4F5FCE0000BD5C4E
:105730006DCEE204CC2000ED024F5FED007E5939C2
:105740004F18E616050505C302208FEC02DD0CDCC0
:105750000C18E341CDEE3F240108F302D68FF90285
:10576000D5B902D48FDD0ADF08FE0462E601260304
:105770007E5900EC0A05050505DD0218DF0418DE78
:1057800002DF00188FD300188FDC0A18ED0EDC083A
:1057900018ED0C18DE04EC0A05050505DF00D30042
:1057A000C3001A8F7D04532704C6032002C601E7F5
:1057B00000FE0462EC0A05050505188FDF00188F4E
:1057C000D300188FF676AC18E71BFE046218DE06CD
:1057D000CDEF43EC0818CEFFFF183CBD3879DE064C
:1057E000EE43ED08FC0462DE06ED45188F18EC0A66
:1057F000CDEE06093CBD3879DE06EE45ED0A3838B7
:10580000CEE204CC2000ED024F5FED00FC769EC599
:1058100001272E18DE0C18DF0E7F000D7F000CDC38
:105820000A3736DC08373618DE06CDEE413CCDEEC1
:105830003F3CDC0EDE0CBD3EE41838183818381832
:105840003838DF0E38DF0C38DF0A38DF08308FC316
:10585000004C8F3538DF0639DE063C9F06CEE8A9BE
:105860001C0040CC000F37364F5F3736CC0829BDBF
:10587000414018CE000F183C18CE0000183CCC094F
:105880006FBD4140C6103734CC09FABD410718CE70
:10589000E8A9181D0040CEFFFF3CCE00003CCCFF25
:1058A000FF37364F5F3736CCFFFFBD5C6DCEE2046D
:1058B000CC2000ED024F5FED0030C6123A3538DFE4
:1058C000063918DE06183C1830188FC3FFE4188F0D
:1058D00018359F0618DE08183C18DE0A183C18DE3A
:1058E0000C183C18DE0E183C18DE0618ED1BCDEF28
:1058F000198401C400CE0000DD0ADF0818EC1B8407
:1059000002C40018ED03CDEF01CDEE194F5F8F8477
:1059100000C4018FDD0EDF0CCDEE198F8400C402B0
:105920008F18ED07CDEF05CDEE198F8400C4048FDD
:1059300018ED0BCDEF09CDEE198F8400C4088F1838
:10594000ED0FCDEF0DCDEE198F8400C4208F18ED33
:1059500013CDEF11CDEE198F8400C4408F18ED17D1
:10596000CDEF1518EC1B8400C403CE000026061AE8
:10597000830001275A8C000027037E5B2F1A8300C7
:105980000327037E5B2FDE082604DC0A2713DE06CE
:10599000EE01260818DE0618EC032705C6077E5B15
:1059A00030DE082604DC0A270CDE0C2604DC0E2779
:1059B00004C606207BDE0C2604DC0E2772DE06EE13
:1059C0000D260818DE0618EC0F2764C6052061DED8
:1059D000082604DC0A2720DE06EE11260818DE065B
:1059E00018EC132712DE06EE15260818DE0618EC52
:1059F000172704C6042039DE082604DC0A2704C65B
:105A000003202DDE06EE05260818DE0618EC072713
:105A100012DE06EE09260818DE0618EC0B2704C66F
:105A200002200DDE0C2604DC0E2704C60120015FD7
:105A30004F38DF0E38DF0C38DF0A38DF08308FC30D
:105A4000001C8F3538DF0639DE063C3C3C3C9F06A7
:105A5000DE083CDE0A3CDE0C3CDE06E7017F000D82
:105A60006F03E704EC030505C30214188F18EC025A
:105A7000DD0A18EC001AA30B25222207DC0A1AA360
:105A80000D251918DE0618EC0DCDEE0B18CE001DF5
:105A9000BD61AE8C00002604DD0027044F5F20703E
:105AA000DE06EE038C0001276018DE064F18E601C3
:105AB000DB0D8900475618ED0518E7020505C302FE
:105AC00014188F18EC02DD0A18EC0018DE06CDA3BE
:105AD0000B221E2507DC0ACDA30D241518DE063780
:105AE00018E606D70118DE0033188FD70D188F205F
:105AF0000918DE0618E60218E701DE064FE601D0B7
:105B00000D82001A83000126A018DE064F18E60158
:105B100038DF0C38DF0A38DF0838383838DF063924
:105B200018DE06183C349F0618DE08183C18DE0AFA
:105B3000183CDD0ADF08DE066F01DC082607DE0AF6
:105B40008C00012318DE066C01DC0804DE0A8F4697
:105B500056DD0ADF0826EE1A83000122E8DE064F32
:105B6000E60138DF0A38DF083138DF063918DE068B
:105B7000183C3C3C9F0618DE08183C18DE0A183C0E
:105B800018DE0C183C18DE0E183CDD0ADF0818DEA3
:105B90000618EC0BDD0E18EC09DD0CFE0462E601C4
:105BA00026037E5D74EC0A05050505DF00D300C3FE
:105BB000001418ED01BD605C18DE0618EE0118ED4A
:105BC00002CDEF00FE0462EC0A05050505DD0218B2
:105BD000DE02DF00188FD300188FDC0A18ED0EDC10
:105BE0000818ED0CEC0A05050505DD0218DE02DFDC
:105BF00000188FD300188FDC0E18ED12DC0C18ED96
:105C000010EC0A05050505DF00D300188F186F1A80
:105C100018FE046218DF0818EC0A05050505DD000A
:105C2000188FD300188FDE06EC0F840318ED18DEF2
:105C300008EC0818CEFFFF183CBD3879DE08ED08E7
:105C4000FC0462DE06ED03188F18EC0ACDEE06099F
:105C50003CBD3879DE06EE03ED0AFC04F4C3000116
:105C6000FD04F47F00097F0008CEE844ED02DC0863
:105C7000ED003838CC000138DF0E38DF0C38DF0A91
:105C800038DF08383838DF0639DE063C9F06DE0884
:105C90003CDE0A3CDE0C3CDE0E3CCC022ABD4266F9
:105CA000DD0EDF0C4F5F8F8402C4008F18CE001909
:105CB000BD61AEF702D8DC0EDE0C84C0C4008F8458
:105CC00000C4038F18CE000EBD61AE58F702D9D6BE
:105CD0000F4F1AB302DA2758FD02DACE0025BD6154
:105CE000C1DD08C6053734C601BD5E7418DE08186C
