:10000000D8400021D80003F6D80003F5D80003F447
:10001000D80003F3D80003F2D80003F1D80003F0AE
:10002000D80003EFD80003EE7C4080018800000078
:10003000DC810000DCC10000DD010000DD410000CA
:10004000C4140012D8000001C40C000418D001FC34
:10005000CD0000031CCC001C94C0000604CC00188A
:1000600084C0000080000021800000228000002366
:10007000C0080001C00C4000D8000015CCC9304AAF
:1000800080000024800000248000002480000024E0
:10009000CD400004C40800041C88001CDC140000CF
:1000A000DC100000DC0C0000CC800002DC0800004A
:1000B00090000000D880002B8000002ED440007FEC
:1000C0007C40800188000000C420000CC60C0006A3
:1000D00094C0001F2450000F311400039540016AA2
:1000E000CC400028CC4000298000000A7C4100015F
:1000F000505400207C418001C420000C19A4003E13
:100100007D15001A199C003FC62C00060628000128
:1001100019B001F895C0000496C0000DD860000B1E
:100120008000004AD8200009CE800000CF20000EB9
:100130009A400006D8200034CDA00010D12000073E
:10014000CDA00007800001BF800001BFC0120040A9
:10015000D8000015D840000BCD01304A8000005770
:10016000C424000C0A600001C60C001894C00001F1
:100170007C4180019640FFADC6140009C6180006F8
:1001800098C0FFAA7D59800ACE0000009580000328
:10019000D860000B8000000AD82000098000000A07
:1001A0007C40C00114D0001E31140002954001367D
:1001B00018D001E818D4003018D80034052800738E
:1001C0007C4200017C4240019500000986800000CD
:1001D000800001C3800001C3800001C3800001C30F
:1001E00080000083800001C3800001C3115400100F
:1001F0007E16000ACD400015D46100009580FF8B6B
:10020000C439C0407C4080018800000011540010B7
:1002100052640020295400017E26001ACD400015AA
:10022000D46200009580FF81C420000F9A00FFFF78
:100230007C408001880000007C40C00118E000295B
:10024000960001117C410001505400207C41800146
:100250007C41C0017C4200013A30000312200002C0
:100260009B00000204200008042400018000009D7F
:100270007E0240010A640001CC00007F9A40FFFE2C
:1002800024EC00109AC0000AC428000CC6AC00067A
:1002900096800002D868000BC5310000970000016D
:1002A00096800002CEE8000B800000AD7D15001A9C
:1002B000C532000024F40007077800B17F1F000951
:1002C00087800000800000CE800000B9800000BC64
:1002D000800000BF800000C5800000C8800000CB07
:1002E000800000CE7F1B800F9780FF50800000D0E1
:1002F0007F1B800E9780FF4D800000D07F1B800CFD
:100300009780001097C00003D8000015CD91000021
:100310008000000A7F1B800D9B80FF44800000D07E
:100320007F1B800F9B80FF41800000D07F1B800ED1
:100330009B80FF3E800000D09700FF3C9B00FF3B6E
:100340007E0240018000009D7C40C00114D0001E50
:1003500031140002954000CC18D4003018D001E8C8
:1003600018FC003424CC000F04E800DE7C4180013E
:100370007C41C00194C0001286800000800000E82B
:10038000800001C3800001C3800001C3800000E53C
:10039000800001C351DC00207D9E001A800000F522
:1003A00051DC00207D9D801A99400003C5A2000009
:1003B000800000F5C9A20000800000F5C5A1000082
:1003C0009540000505980001C5A500005264002075
:1003D0007E26001A052800F97C4180017C41C0017D
:1003E0009500000786800000800001C3800001C3E3
:1003F000800001C3800001C380000109D8000015FE
:10040000CE190000954000040598000156200020F8
:10041000CE19000097C0FF05C439C0407C40800160
:100420008800000051DC00207D9D801AD840001516
:10043000CE1A0000954000040598000456200020C4
:10044000CE1A00009BC0FF797C408001880000002C
:10045000D440007F8000000A7C40C0015050002042
:100460008C00013F7CD0C01A7C418001C420000C6C
:10047000C4D60000C62C000696000002D860000B0F
:10048000C41D30B30428000195C0000204280000F8
:100490007D694009960000039AC00002D820000937
:1004A0007C438001C42400149A000009D86403F43A
:1004B000C66B03F19A80FFFFC66B03EE06A800012E
:1004C000CEA403EECD6403EBD82403F499400009D5
:1004D000DF830000CFA000128C000143D440007FD6
:1004E0009A00FED2C67303EE9B00FFFF8000000A55
:1004F0008C0001437C40800188000000D800000689
:10050000C43C000E9BC0008290000000D840000652
:10051000C43C000E97C0007E90000000D80000167A
:100520007C40C001505000207C414001C43C00117F
:1005300027FC000197C0FFFE7CD0C01AD0C0001875
:10054000CD400019C41000217C50C001CCC0001A5D
:10055000D80000178000000AC41000217C50C001A0
:10056000CCC0001BD440001C8000000AC410002135
:100570007C50C001CCC0001ECC40001F7C40C0019C
:10058000505000207CD0C01AD0C000208000000A4B
:10059000CC400025D80000268000000A7C40C00125
:1005A000C810001EC814001F7D15800E9980000F12
:1005B000D840002BC810001E7D5180127D8DC00FC9
:1005C00099C0FFFDD800002B50E000017E16400EC0
:1005D0009A4000047D628012D28000278000000AC9
:1005E000D00000278000000AD880002BC43C007F88
:1005F00097C000018000017DCC000024D840002A73
:10060000C40C001D98C0FFFFD800002AD0000022B3
:10061000D0000023D000002CD84000217C410001F4
:100620008000000A7C40C0017C41800114D0001E83
:100630003110000224D400FF9500FE7CCD9403000D
:100640008000000AC42000147C40C001C4D3030011
:10065000D8000015CD21C0418000000AC420000C44
:1006600018901FF0311000FF95000007189007F850
:100670003110003F95000004DC030000CC20001284
:100680008000000AD440007F8000000A046801A5B1
:1006900086800000800001B1800001B1800001B1BE
:1006A000800001B1800001B3800001B9800001B970
:1006B000800001B9800001B9800001B9800001BB50
:1006C000800001BDD440007F8000000A7C42000110
:1006D000506400207E26400AD8400015CE26000037
:1006E0008000000AD440007F8000000AD440007FD0
:1006F0008000000AD440007F8000000AC424007EED
:10070000964000037C40800188000000800001C307
:1007100000000000000000000000000000000000D9
:1007200000000000000000000000000000000000C9
:1007300000000000000000000000000000000000B9
:1007400000000000000000000000000000000000A9
:102000000001002D000401A300100197001100320F
:10201000001900580033003B008001470081015641
:102020000083015B00370068003C008E004000D256
:10203000004401140084016400880167007D018967
:10204000007E019100220116008B017E0000002F0E
:102050000000002F0000002F0000002F0000002FC4
:102060000000002F0000002F0000002F0000002FB4
:102070000000002F0000002F0000002F0000002FA4
:102080000000002F0000002F0000002F0000002F94
:102090000000002F0000002F0000002F0000002F84
:1020A0000000002F0000002F0000002F0000002F74
:1020B0000000002F0000002F0000002F0000002F64
:1020C0000000002F0000002F0000002F0000002F54
:1020D0000000002F0000002F0000002F0000002F44
:1020E0000000002F0000002F0000002F0000002F34
:1020F0000000002F0000002F0000002F0000002F24
:102100000000002F0000002F0000002F0000002F13
:102110000000002F0000002F0000002F0000002F03
:102120000000002F0000002F0000002F0000002FF3
:102130000000002F0000002F0000002F0000002FE3
:102140000000002F0000002F0000002F0000002FD3
:102150000000002F0000002F0000002F0000002FC3
:102160000000002F0000002F0000002F0000002FB3
:102170000000002F0000002F0000002F0000002FA3
:00000001FF
