:100000000000012F0000000000000134000070001B
:10001000000001D0000001F400000338000002DC01
:1000200000007518000000000000769C0000049895
:10003000000004D80002625A000001000000000025
:1000400000000064000000C8000000010000000083
:10005000000000000000000000000000000000019F
:1000600000005B8D000000000000000000000000A8
:10007000000000000000013C00001E840000001091
:10008000000000000000000100000000000000006F
:10009000000000000000000000000001000000005F
:1000A000000000000000001A000000000000000036
:1000B0000000000000000000000000000000000040
:1000C0000000000000000000000000000000000030
:1000D000000000280040006D0010003000210001E9
:1000E000000300040005001E0000000000098968EC
:1000F0000089000000000000000000000000000077
:1001000000000000000000000000000000000000EF
:1001100000000000000000000000000000000000DF
:1001200000000000000000000000000000000000CF
:1001300000000000000000000000000000000000BF
:10035000000000000000000000000000000100009C
:100360000000000000000B45427A14BD42DA4471DF
:100370000B870BA80BC90BEA0C0B0C2C0C4D34652E
:1003800034C40C6E0C8F0FE2106C10990B661113B5
:10039000512611341006115C00000000000000001E
:1003A000000000000000000000000000000000004D
:1003B000000000000000000000000000000000003D
:1003C000000000000000000000000000000000002D
:1003D000000000000000000000000000000000001D
:1003E0000000000000000000000000000000040009
:1003F0000000000000008E6FFCBD089CCE001018AD
:10040000CE00002008A60018A7000818088C0010CD
:1004100025F3CC0017270BCE600A6F00088300017C
:1004200026F8BD08A8BD5F3620FB04FC0512DE06D9
:100430003C9F064FF6045338DF0639DE063C9F0624
:100440004FF6045438DF0639DE063C9F064FF604AB
:10045000530505C3014E8FEC00C30001ED0038DFEA
:100460000639DE063C349F06BD3907DE06E701BDCE
:1004700036E0DE064FE6013138DF0639DE063C3471
:100480009F06DE06E701BD388DCE045018DE061843
:10049000E6013A6D002637F70454C65C18A6013D04
:1004A000C3033CFD045A8DBA5D27234FF60454F76D
:1004B000045305050505C30498CE00103C3736CC1F
:1004C00004D8BD5E1D8D81CC000138382003CC00DE
:1004D000FF3138DF0639DE063C9F068D85CC0001F2
:1004E00038DF0639DE063C9F06F60453C1012305BA
:1004F000CC000220045C8D844F38DF0639DE063CD8
:100500009F06F604532605CC000220055ABD057C43
:100510004F38DF0639DE063C9F06C602CE04526D18
:100520000027076F00CC000120085A095D2AF0CC93
:10053000000238DF0639DE063C3C9F06C60218CEB4
:100540000452DE061AEF01DE06EE016D00261EF1F2
:10055000045326098DA7C10127034F2021C6011886
:10056000DE0618EE0118E700CC000120115ADE0665
:100570001AEE0118091AEF015D26CCCC00023838BA
:10058000DF0639DE063C9F06DE083CDE0A3C7F00C3
:100590000B7D045726107D04562713F60338C5013A
:1005A000260CC602200FCC00FF20584F20557D049A
:1005B000592704C601D70BF60455D10B2302D70BDC
:1005C0007F0009CE04505FE7007C000908D609C10E
:1005D0000223F35FD709D10B240FBD06365D2BC66E
:1005E0007C0009D609D10B25F1F60453F1045824F7
:1005F0000FBD05E4C10126B3F60453F1045825F1FB
:10060000CC000138DF0A38DF0838DF0639DE063C67
:100610009F06DE083CDE0A3CDE0C3CDE0E3C18DFAA
:100620000418CEE66CCE00004F18DF0218DE041866
:10063000CE001ABD5EAE4F5F8F840CC4008FDD0EFE
:10064000DF0C18DF0418DE0218EC02DD0A18EC00DB
:10065000DD08DC0ADE088F84F3C4FF8FDF08DC0EC0
:10066000DE0C9A0ADA0B8F9A08DA098F18ED02CDA0
:10067000EF0018DE0438DF0E38DF0C38DF0A38DF11
:100680000838DF0639DE063C3C9F06DE06ED01C673
:1006900003BD070D18CE0118183CDE06EE013CCC58
:1006A0000338BD5E1D18CE0040183CDE06EE073C48
:1006B000CC0498BD5E1D7F0454CC033CFD045ABDA0
:1006C00005D618DE0618E60ABD070D7F0453CE00D6
:1006D000103C18CE0498183CCC04D8BD5E1DBD0655
:1006E0008330C60C3A35CC00013838DF0639DE06D7
:1006F0003C9F06C1022305CC00FF2007F70455BD2F
:1007000006834F38DF0639DE063C9F06F604555C4B
:100710008DDC4F38DF0639DE063C9F06BD4337BD12
:1007200006834F38DF0639DE063C9F068F8FC101F6
:100730008F2305CC00FF200DC602DF00D001F70497
:1007400058BD06834F38DF0639DE063C349F067FEE
:1007500001837F01827F01817F01805FF70454F76D
:100760000453CE01183C18CE70B8183CCC0338BDE9
:100770005E1DF6045418DE0618E701C65C18A601D3
:100780003DC3033CFD045ACE005C3C3736CC02DC52
:10079000BD5E1D383838383138DF0639DE063C9FFB
:1007A000060F4F5F38DF0639DE063C308FC3FFF29D
:1007B0008F359F06DE083CDE0A3CDE0C3CDE0E3C3C
:1007C000DE066F046F036F026F016F06CC60248436
:1007D000FFC4FCDD08FD0462CC67FC9308C3FFDCAA
:1007E000ED09CE0018028FDE06188F1808DF02DE32
:1007F000081AEF0418DE0218EC0904040404C3000C
:1008000001ED06FF01265FE700E7016F0B6F0ACEDF
:10081000E603E60018E70A8400C4F018ED090404B2
:10082000040418E706CEE662E6008F4F18E6068F4E
:10083000C5022717088FCE00004D2A010918CE9057
:1008400000183C18CE0001183C2019088FCE00007B
:100850004D2A0109DD04CCC97B3736DC04CC000508
:100860003736DC04BD5E4E18381838FD601BFF605B
:1008700019DD0A8FDD08DC0A05DE088F59498FD3A0
:100880000A8FD90999088F18DE0618ED0DCDEF0BE8
:10089000FD6015FF601318EC0DD30A8FD909990874
:1008A0008FFD601FFF601D18EC0D05FD600F18EC3B
:1008B0000B5949FD600D07843F84BF067F60127F9E
:1008C00060117F6018BD0849BD3FC7F67001C511B2
:1008D0002707CEE248C685E700CEE20EC602E70053
:1008E000F67000C1FF271A5D261018DE064F5F184C
:1008F000ED03CC020018ED012007CEE249C691E7D6
:100900000018CEE208DE06EC03EE018AE7CA018F8A
:100910008A58CAB08FBD5F1D18ED02CDEF0018ECEC
:1009200002FD046018EC00FD045E188FF6045318F5
:100930008F18DF0A7F000A7F00097F0008DC0ADECB
:100940000818CE0004BD5EAED30A8FD90999088F6E
:10095000DD0ADF08BD052ECE00004F18CE0008BD11
:100960005EAED30A8FD90999088FDD0ADF08BD056D
:100970002ECE00004F18CE000CBD5EAED30A8FD92C
:100980000999088FDD0ADF08BD052ECE00004FDD76
:100990000C7F000F7F000EDC0ADE08D30E8FD90D0E
:1009A000990C8FDD0ADF08BD052ECE00004F18CE52
:1009B0000015BD5EAED30A8FD90999088FDD0ADF15
:1009C00008BD052ECE00004F18CE001CBD5EAED374
:1009D0000A8FD90999088FDD0ADF08BD052ECE00E0
:1009E000004F18CE001EBD5EAED30A8FD9099908FC
:1009F0008FDF08CEE66CED02DC08ED00C601BD0716
:100A00000D0ECF20FCDE063CDE003CDE023CDE04A8
:100A10003C9F0638DF0438DF0238DF0038DF063B52
:100A2000DE063CDE003CDE023CDE043C9F06CEE2FD
:100A3000196F0007BA00800638DF0438DF0238DF9C
:100A40000038DF063BDE063C9F06CEE84C4F5FEDEC
:100A500002CC0100ED00CEE2044F5FED02CC0100BC
:100A6000ED0038DF0639DE063C9F06CEE84CCC08A8
:100A700000ED024F5FED00CEE204CC0800ED024F26
:100A80005FED0038DF0639DE063C9F06CEE84C4FAE
:100A90005FED02CC2000ED00CEE2044F5FED02CC12
:100AA0002000ED0038DF0639DE063C9F06CEE84C1C
:100AB0004F5FED02CC4000ED00CEE2044F5FED024F
:100AC000CC4000ED0038DF0639DE063C9F06CEE85C
:100AD0004C4F5FED02CC8000ED00CEE2044F5FEDA5
:100AE00002CC8000ED0038DF0639DE063C9F06CEE2
:100AF000E84C4F5FED02CC0001ED00CEE2044F5F09
:100B0000ED02CC0001ED0038DF0639DE063C9F0621
:100B1000CEE84C4F5FED02CC0002ED00CEE2044F78
:100B20005FED02CC0002ED0038DF0639DE063C9FA7
:100B300006CEE84C4F5FED02CC0004ED00CEE2049F
:100B40004F5FED02CC0004ED0038DF0639DE063CD5
:100B50009F06CEE84C4F5FED02CC0008ED00CEE2E0
:100B6000044F5FED02CC0008ED0038DF0639DE06E9
:100B70003C9F06CEE84C4F5FED02CC0040ED00CE2E
:100B8000E2044F5FED02CC0040ED0038DF0639DEB5
:100B9000063C349F06DE083CDE0A3CCEE84C4F5F44
:100BA000ED02CC0080ED00CEE244E600F7046427BD
:100BB0001ACEE847E700C601373418CE0000183CCB
:100BC000183CCC0083BD3FFB383838F6046418DE8F
:100BD0000618E7014F1A83005E23037E0FC405C386
:100BE0005F3A188FCDEE006E00CEE246C602E700F7
:100BF000CEE2044F5FED02CC0080ED00BD15557EC6
:100C00000FCBF66017CEE246E700CEE2044F5FED71
:100C100002CC0080ED007E0FCBCEE246C6FFE7009F
:100C2000CEE2044F5FED02CC0080ED00BD132B7EC1
:100C30000FCBCEE246C604E700CEE2044F5FED02E2
:100C4000CC0080ED00BD13477E0FCBCEE246C6053B
:100C5000E700CEE2044F5FED02CC0080ED00BD1353
:100C6000B67E0FCBCEE246C606E700CEE2044F5F6B
:100C7000ED02CC0080ED00BD1A2EBD3465BD34659B
:100C8000BD3465BD3465BD3465BD3465BD34657E38
:100C90000FCBCEE246C609E700CEE2044F5FED027D
:100CA000CC0080ED00BD13DD7E0FCBCEE246C60A40
:100CB000E700CEE2044F5FED02CC0080ED00BD13F3
:100CC000637E0FCBCEE208EC02FD0460EC00FD0475
:100CD0005ECCFFFFED02CCFF7F200BCEE208FC04D0
:100CE00060ED02FC045EED00CEE245C6017E0FC958
:100CF000BD0615200B18DE0618E601CBEDBD07EE8C
:100D0000CEE2457E0FC97F0458BD068320DA18DE87
:100D10000618E601CBBEBD082720E5F67000C1FF2E
:100D200027C65D2605BD42BF20BEBD435720B9BDC5
:100D3000081720CCBD05E420C7BD05FD20C24F5FCC
:100D4000FD014EFD014CFD0152FD0150FD0156FD1E
:100D50000154FD015AFD0158208E7F0457C6023709
:100D60003418CE7740183CCC72E820107F0457C668
:100D700001373418CE76C0183CCC70B8BD0785CE8C
:100D8000E245E70038387E0FCB7F0457BD49597ED6
:100D90000DE87F0457BD49677E0DE8CEE2044F5F42
:100DA000ED02CC0080ED00FE0462E60127066F0B29
:100DB0006F0A6F01FE0462C601E7002058CEE2040C
:100DC0004F5FED02CC0080ED00FE04626F007E0DEF
:100DD000E8CEE2044F5FED02CC0080ED00BD5A9CEE
:100DE0007E0DE8CEE2044F5FED02CC0080ED00BD49
:100DF0005D2E7E0DE8CEE2044F5FED02CC0080ED6B
:100E000000FE0462E60027066F0B6F0A6F00FE0407
:100E100062C601E701FE04626F096F087E0E00CE14
:100E2000E2044F5FED02CC0080ED00FE04626F0132
:100E30007E0DE8CEE2044F5FED02CC0080ED00FCB9
:100E4000769EDD0AFC769CDD08DC0ADE088A00CA94
:100E500001201ECEE2044F5FED02CC0080ED00FCCD
:100E6000769EDD0AFC769CDD08DC0ADE0884FFC481
:100E7000FEFD769EFF769C7E0DE8CEE2044F5FED90
:100E800002CC0080ED00BD28F47E0DE8CEE2044FD8
:100E90005FED02CC0080ED00BD29207E0DE8CEE2A2
:100EA000044F5FED02CC0080ED007F045D7E0DE815
:100EB000CEE2044F5FED02CC0080ED00C601F704E6
:100EC0005D7E0E00CEE245C6FEE700CEE2044F5F37
:100ED000ED02CC0080ED0038DF0A38DF083138DF62
:100EE0000639DE063C9F06CEE84CCC0100ED024FF1
:100EF0005FED00CEE204CC0100ED024F5FED00BDDE
:100F0000274838DF0639DE063C349F06DE083CDE23
:100F10000A3CCEE84CCC8000ED024F5FED00CEE203
:100F200004CC8000ED024F5FED00F6601118DE0684
:100F300018E701CEE246CA30E70018E6015CF76028
:100F400011C109261C18CEE20818EC02DD0A18ECC3
:100F500000DD08DC0ADE088A80CA0018ED02CDEF49
:100F60000038DF0A38DF083138DF0639DE063C9FFB
:100F700006CEE84CCC0200ED024F5FED00CEE2045D
:100F8000CC0200ED024F5FED00F66018CEE246E7BE
:100F9000005CF7601838DF0639DE063C9F06CEE6B7
:100FA0003FE600C5012750CEE801E6004F1A830056
:100FB0000627232E081A8300042710203A1A8300DC
:100FC00008271E1A83000A2723202CCEE800C60417
:100FD000E700C605201FCEE800C606E700C60720CA
:100FE00014CEE800C608E700C6092009CEE800C60E
:100FF0000AE700C60BE700CEE204CC0400ED024F86
:101000005FED00CEE84CCC0400ED024F5FED003800
:10101000DF0639DE063C9F06CEE84CCC1000ED0220
:101020004F5FED00CEE204CC1000ED024F5FED000B
:1010300038DF0639DE063C9F06CEE84CCC4000ED9A
:10104000024F5FED00CEE204CC4000ED024F5FEDB9
:1010500000CEE246C6AEE70038DF0639DE063C9F2A
:1010600006CEE84CCC0001ED024F5FED00CEE26809
:10107000E600F7046553CEE269E700CEE204CC0057
:1010800001ED024F5FED0038DF0639DE063CDE0081
:101090003CDE023CDE043C9F06DE083CDE0A3CDE11
:1010A0000C3CDE0E3CCEE208EC02DD0AEC00DD0872
:1010B000CEE204EC02DD0EEC00DD0CDC0ADE08BD45
:1010C0005F1D940ED40F8F940CD40D8FDD0EDF0CAA
:1010D0004F5F8F8410C4008F8C00002604DD002732
:1010E00003BD4471CEE208EC02DD0AEC00DD08DC51
:1010F0000ADE08BD5F1D940ED40F8F940CD40D8FA3
:10110000DD0EDF0C4F5F8F8402C4008F8C00002641
:1011100004DD002703BD427ADE0C4F5F8F8408C4D4
:10112000008F8C00002604DD002703BD42DADC0EB0
:101130008404C400CE00002604DD002703BD1099FE
:10114000DC0E8401C400CE00002604DD002703BDB0
:101150000FE2DC0E85802703BD1006DC0E8402C47E
:1011600000CE00002604DD002703BD106CDE0C4F0E
:101170005F8F8400C4108F8C00002604DD002703DD
:10118000BD3465DE0C4F5F8F8400C4208F8C00005F
:101190002604DD002703BD34C4DE0C4F5F8F84407E
:1011A000C4008F8C00002604DD002703BD0BA8DEE1
:1011B0000C4F5F8F8404C4008F8C00002604DD0078
:1011C0002703BD14BDDC0E8420C400CE000026041D
:1011D000DD002703BD5126DC0E8440C400CE000094
:1011E0002604DD002703BD1134DC0EC5012703BD35
:1011F000115CDE0C4F5F8F8400C4808F8C00002652
:1012000004DD002703BD0C8FCEE244E6002703BDBA
:101210000C8F38DF0E38DF0C38DF0A38DF0838DF94
:101220000438DF0238DF0038DF063BDE063C9F066D
:10123000CEE234CC0064ED024F5FED00CEE23CC65E
:1012400002E70038DF0639DE063C9F06CEE238CCE6
:101250000032ED024F5FED00CEE23CC610E70038F1
:10126000DF0639DE063C9F06DE083CDE0A3CDE0C6B
:101270003CDE0E3C7F000F7F000E7F000D7F000CD8
:10128000CEE84CDC0EED02DC0CED00CEE244E600D4
:101290007F000AD70B7F00097F0008CEE848DC0AF0
:1012A000ED02DC08ED00DC0EDE0CC30001240108B9
:1012B000DD0EDF0C20CADE063C9F06CC0010373660
:1012C0004F5F3736CC0180BD4230CC0180BD4263D8
:1012D000CEE246C6AAE700383838DF0639DE063CDB
:1012E0003C9F06DE083CDE0A3CDE0C3CDE0E3CCCBD
:1012F0000212BD4263DD0EDF0CC41F18DE0618E7C4
:1013000001DC0E8400C460CE000018CE0005BD5E76
:10131000C118DE0618E702DC0EDE0C18CE0007BD91
:101320005EC18C000026061A83000127358C000060
:1013300026061A83000125188C000026061A830051
:101340000227348C000026581A830003273B2050C4
:10135000DE064FE602050505050505EA01CEE24871
:10136000203A18DE064F18E60205050505050518A2
:10137000EA01CEE2492025DE064FE6020505050515
:101380000505EA01CEE24A201318DE064F18E602F0
:1013900005050505050518EA01CEE24BCA20E70060
:1013A000CEE8484F5FED02CC0800ED0038DF0E3884
:1013B000DF0C38DF0A38DF083838DF0639DE063C54
:1013C0009F0638DF0639DE063C9F06DE083CDE0A53
:1013D0003C188FDE06EC07DD0AEC05DD08CEE222C4
:1013E0001AEF00CEE228DC0AED02DC08ED00CEE2C6
:1013F0002118DE0618E60AE700CEE210C601E70073
:10140000CEE220C603E700CEE210E600C50127F7D2
:10141000C601E70038DF0A38DF0838DF0639DE06A4
:101420003C9F06CEE222ED00CEE221C60FE700CEC1
:10143000E210C601E700CEE220E700CEE210E600AF
:10144000C50127F7C601E700CEE224EC02EE001842
:101450003818DF0639DE063C3C9F06DE083CDE0A13
:101460003CDE0C3CDE0E3C7F000F7F000E7F000D4B
:101470007F000CCC0208DE06ED01DC0E05DE0C8FD1
:1014800059498FC30001240108DD0EDF0CC60F3758
:101490003418DE0E183C18DE0C183CDE06EC01BDDC
:1014A00014C6383838DE061AEE0118081AEF01188B
:1014B0008C021323C57F000F7F000E7F000D7F007D
:1014C0000CCE020818DE06CDEF0118DE0618EC017E
:1014D000BD151EDD0ADF08DC0E05DE0C8F59498FB5
:1014E000C30001240108DD0EDF0CDE089C0C26077A
:1014F000DC0A1A930E2707CEE246C6FFE70018DE85
:1015000006CDEE0108CDEF018C021323BDCEE246DD
:10151000C6AAE70038DF0E38DF0C38DF0A38DF08EC
:101520003838DF0639DE063C9F06CEE60FE600546B
:101530004FC401CE00002604DD0027EE38DF063957
:10154000DE063C9F06DE083CDE0A3C18CEE60018AC
:10155000EC02DD0A18EC00DD08DC0ADE0884FFC4BA
:10156000FE18ED02CDEF0018CEE61018EC02DD0AF1
:1015700018EC00DD08DC0ADE0884FFC4FE18ED026A
:10158000CDEF0038DF0A38DF0838DF0639DE063CE9
:101590009F06DE083CDE0A3CDE0C3CDE0E3CDD0035
:1015A000270B4F5FDD0ECC0080DD0C200C7F000F81
:1015B0007F000E7F000D7F000C18CEE60418EC02B1
:1015C000DD0A18EC00DD08DC0ADE088F84FFC47F2A
:1015D0008F9A0EDA0F8F9A0CDA0D8F18ED02CDEF7D
:1015E0000038DF0E38DF0C38DF0A38DF0838DF0656
:1015F00039DE063C9F06DE083CDE0A3CDE0C3CDEA3
:101600000E3CDD00270B4F5FDD0ECC0100DD0C2012
:101610000C7F000F7F000E7F000D7F000C18CEE6C0
:101620000418EC02DD0A18EC00DD08DC0ADE088F85
:1016300084FEC4FF8F9A0EDA0F8F9A0CDA0D8F1882
:10164000ED02CDEF0038DF0E38DF0C38DF0A38DF6F
:101650000838DF063918DE06183C9F0618DE081821
:101660003C18DE0A183C18DE0C183C18DE0E183C3C
:101670008F8403C4FF8FDD0EDF0C18CEE60818EC54
:1016800002CDEE004F5F8F84FCC4008FDD0ADF08BF
:10169000DC0EDE0C9A0ADA0B8F9A08DA098F18ED45
:1016A00002CDEF00CEE604EC02DD0AEC00DD08DC42
:1016B0000ADE088F8A02CA008FDF08CEE604ED0238
:1016C000DC08ED00BD1625CEE604EC02DD0AEC00D8
:1016D000DD08DC0ADE088F84FDC4FF8FDF08CEE65C
:1016E00004ED02DC08ED0038DF0E38DF0C38DF0ACD
:1016F00038DF0838DF0639DE063C9F06CC0001BD26
:10170000168DBD16254F5FBD168D38DF063918DEE4
:1017100006183C9F0618DE08183C18DE0A183C180C
:10172000DE0C183C18DE0E183C8401C4FFCE00000D
:10173000DD0EDF0C18CEE60418EC02DD0A18EC0012
:10174000DD08DC0ADE0884FEC400DD0ADC0EDE0CE7
:101750009A0ADA0B8F9A08DA098F18ED02CDEF009A
:1017600018EC02DD0A18EC00DD08DC0ADE088F8ABE
:1017700004CA008F18ED02CDEF00BD162518CEE685
:101780000418EC02DD0A18EC00DD08DC0ADE088F24
:1017900084FBC4FF8F18ED02CDEF0038DF0E38DF79
:1017A0000C38DF0A38DF0838DF063918DE06183C47
:1017B0003C3C9F0618DE08183C18DE0A183C18DE70
:1017C0000C183C18DE0E183CDD0A18DE0618EC0B6F
:1017D000DD0E18EC09DD0CDC0A18CE0004BD5EAE8F
:1017E0008403C4F0CE000018DE0618ED03CDEF012F
:1017F00018DF0218CEE60018EC02DD0A18EC00DD56
:1018000008DC0ADE0884FCC40F18DF0418DE0218A6
:10181000AA0318EA048F18AA0118EA028F18DE0436
:1018200018ED02CDEF00DC0EDE0C8F8403C4FF8FB9
:1018300018DE0218ED03CDEF0118CEE60818EC0211
:10184000CDEE004F5F8F84FCC4008F18DF0418DEDC
:101850000218AA0318EA048F18AA0118EA028F18BE
:10186000DE0418ED02CDEF0038DF0E38DF0C38DF74
:101870000A38DF08383838DF063918DE06183C9F8A
:101880000618DE08183C18DE0A183C18DE0C183C56
:1018900018DE0E183C8C00002604DD00270BCC005F
:1018A00008DD0E4F5FDD0C200C7F000F7F000E7FE8
:1018B000000D7F000C18CEE60018EC02DD0A18ECD3
:1018C00000DD08DC0ADE0884FFC4F79A0EDA0F8F09
:1018D0009A0CDA0D8F18ED02CDEF00CEE604EC0283
:1018E000DD0AEC00DD08DC0ADE088F8A00CA808F82
:1018F000DF08CEE604ED02DC08ED00BD1625CEE6DD
:1019000004EC02DD0AEC00DD08DC0ADE088F84FF4F
:10191000C47F8FDF08CEE604ED02DC08ED0038DF7F
:101920000E38DF0C38DF0A38DF0838DF0639DE060C
:101930003C9F06DE083CDE0A3CDE0C3CDE0E3CBD75
:1019400016404F5FBD17F7CC0001CE0000BD180E4A
:10195000C6FF18CEE24618E700CC0002CE0000BD5C
:10196000180EC6FE18CEE24618E700CC0004CE00E2
:1019700000BD180EC6FD18CEE24618E700CC0008E0
:10198000CE0000BD180EC6FC18CEE24618E700CC0B
:101990000040CE0000BD180EC6FB18CEE24618E788
:1019A00000CC0080CE0000BD180EC6FA18CEE2466C
:1019B00018E7007F000B7F000A7F00097F0008CC3A
:1019C0000001CE0000BD180ECC0001CE0000BD19F4
:1019D0007ADE0A3C3CCCC0003736CC00053736CC2A
:1019E0000001BD18ABCC0001BD16F1BD16254F5F3F
:1019F000BD16F1DC0ADE08BD197ACC0002CE00006B
:101A0000BD180EC6F818CEE24618E700CC0001CE8D
:101A10000000BD180ECC0001CE0000BD197ACC002C
:101A200001BD16F1BD16254F5FBD16F1BD1625DCB3
:101A30000ADE08BD197ABD1625CC0002CE0000BD15
:101A4000180ECC0001CE0000BD180E3838383818FA
:101A5000CEE610DC0EDE0CBD5F1DDD0ADF0818ECE3
:101A600002CDEE00940AD40B8F9408D4098F18EDA0
:101A700002CDEF00BD1625CC0002CE0000BD180E31
:101A8000CC0001BD17F7CC0001BD168DBD16254F4A
:101A90005FBD168DC6F618CEE24618E700CC0001F1
:101AA000BD168DBD16254F5FBD168DC6F518CEE24D
:101AB0004618E70038DF0E38DF0C38DF0A38DF0859
:101AC00038DF0639DE063C9F06CEE60FE600C4028C
:101AD00027F738DF0639DE063C9F06C601CEE6044E
:101AE000E7008DE0CEE6046F0038DF0639DE063C05
:101AF0009F06CEE607E700C604CEE604E7008DC4E5
:101B0000CEE6046F0038DF0639DE063C9F06DE08AD
:101B10003CDE0A3CCEE604EC02DD0AEC00DD08DC2B
:101B20000ADE088F8A00CA808FDF08CEE604ED0245
:101B3000DC08ED008D8ECEE604EC02DD0AEC00DD63
:101B400008DC0ADE088F84FFC47F8FDF08CEE6043E
:101B5000ED02DC08ED0038DF0A38DF0838DF06392F
:101B6000DE063C3C9F06CEE603585858C40818DEF3
:101B70000618E702E600C4F718E70118E60218EABB
:101B800001E7008D843838DF0639DE063C3C9F06CD
:101B9000CEE6131C0001CEE603585858C40818DEE0
:101BA0000618E702E600C4F718E70118E60218EA8B
:101BB00001E700CEE6061C0008FC017EFE017CBDAC
:101BC000497518CEE60F18E600C5012609CEE206D3
:101BD000E600C50227EC18E600C50127035F2002D6
:101BE000C601CEE6061D0008CEE6131D00014F38E3
:101BF00038DF0639DE063C9F06CEE6031C0001CC2A
:101C00000006CE0000BD49C1CEE6031D000138DF4D
:101C10000639DE063C3C3C3C9F06DE083CDE0A3CC6
:101C2000DE0C3CDE0E3CBD053BCE00004F18CE0066
:101C300015BD5EAE4F5F8F8403C4E08FDD0EDF0CF9
:101C400018CEE66C18EC02DD0A18EC00DD08DC0AA0
:101C5000DE088F84FCC41F8FDF08DC0EDE0C9A0ABE
:101C6000DA0B8F9A08DA098F18ED02CDEF00C60162
:101C7000BD1BED18DE06186F01CEE603E600C503B6
:101C80002620FC0196FE01942604DD00270FC60FD6
:101C9000BD1C8ADF04DE06E701DE042005C60FBD99
:101CA0001C60DE066D0127037E1F7018FE045A18A3
:101CB000EC12DD0A18EC10DD08DC0ADE088403C42F
:101CC000F08F8407C4F08FDD0EDF0C18DF0418CE10
:101CD000E60018EC02DD0A18EC00DD08DC0ADE087C
:101CE00084FCC40F8F84F8C40F8FDD0ADF08DC0E7C
:101CF000DE0C9A0ADA0B8F9A08DA098F18ED02CDFA
:101D0000EF0018DE0418EC128400C402CE0000DDDF
:101D10000EDF0C18CEE60018EC02DD0A18EC00DD30
:101D200008DC0ADE0884FFC4FDDD0ADC0EDE0C9A46
:101D30000ADA0B8F9A08DA098F18ED02CDEF00FC52
:101D400001A6FE01A4BD49C118FE045A18EC128474
:101D500000C401CE0000DD0E18DF0418CEE6001826
:101D6000EC02DD0A18EC00DD08DC0ADE0884FFC4A2
:101D7000FEDD0ADC0EDE0C9A0ADA0B8F9A08DA090D
:101D80008F18ED02CDEF0018DE0418EC16DD0A18EE
:101D9000EC14DD0818CEE604DC0ADE0884F0C4008A
:101DA0008F8400C43F8FDD0EDF0C18EC02DD0A18B3
:101DB000EC00DD08DC0ADE08840FC4FF8F84FFC45A
:101DC000C08FDD0ADF08DC0EDE0C9A0ADA0B8F9A70
:101DD00008DA098F18ED02CDEF0018DE04CEE60810
:101DE00018EC1AED0218EC18ED0018EC1ADD0A18C0
:101DF000EC18DD08DE088F8403C4FF8F18CEE8518D
:101E000018E600C4013734DC0ABD1FC118FE045AAD
:101E1000CEE79018EC1EED0218EC1CED00CEE79416
:101E200018EC22ED0218EC20ED00BD1BD6CEE60327
:101E3000E60018DE0618E7068400C40318ED023138
:101E4000312625FC0196FE01942604DD0027131897
:101E5000DE0618E603BD1C8ADF04DE06E701DE04A9
:101E6000200618E603BD1C6018DE06186D01270465
:101E70004F5F203AFE045AE617BD1BEDBD053BC47B
:101E80001FDE06E70518CEE66D18E600C4E0E7049D
:101E9000E605EA0418E700FC045AC30010CE001857
:101EA0003C3736CC02ECBD5E1DCC0001383838DF43
:101EB0000E38DF0C38DF0A38DF0838383838DF06EC
:101EC0003918DE06183C3C3C3C9F0618DE08183CDE
:101ED00018DE0A183C18DE0C183C18DE0618ED0453
:101EE000CDEF027F000DFC6015DD0AFC6013CDA371
:101EF0000225092246DC0ACDA304223FFC601FDD37
:101F00000AFC601D18DE06CDA30225092225DC0A85
:101F1000CDA304221EFC600FDD0AFC600D18DE0656
:101F2000CDA302250E2207DC0ACDA30423057F00E2
:101F30000D2008188FC601D70D188FD60D18DE0694
:101F400018E10C2716CEE8515818E706E600C4FD44
:101F500018E70118E60618EA01E7004FD60D38DF4A
:101F60000C38DF0A38DF0838383838DF0639DE0643
:101F70003C9F06CEE6041C0002BD1BC4CEE6041D39
:101F8000000238DF0639DE063C308FC3FFE78F35AD
:101F90009F06DE083CDE0A3CDE0C3CDE0E3CBD0546
:101FA0003BCE00004F18CE0015BD5EAE4F5F8F8454
:101FB00003C4E08FDD0EDF0C18CEE66C18EC02DDFA
:101FC0000A18EC00DD08DC0ADE088F84FCC41F8FD1
:101FD000DF08DC0EDE0C9A0ADA0B8F9A08DA098F1A
:101FE00018ED02CDEF00F60454D709F60453D109D9
:101FF000240CD701DE008F4F8FCC00012011188FE9
:10200000D609188F8F18DF00D6014F8FCC0010BD76
:102010005F24CE00004D2A010918DE0618ED12CD0E
:10202000EF10FC01A2DD0AFC01A0DD08DC0ADE08DD
:1020300018A41218E4138F18A41018E4118F8C0040
:10204000002604DD00272B18CE0008183C18CE000F
:1020500000183CCC000837367F00037F0002DC020A
:1020600037363734BD4E2C1830188FC3000A188FFE
:10207000183518CEE60018EC02CDEE004F5F8F84C5
:1020800007C4F08F18CE0014BD5EC1D70DC1072262
:1020900056CE00013A8FCE000018CE0014BD5EAEC1
:1020A0004F5F8F8407C4F08F18DE0618ED17CDEF51
:1020B0001518DF0218CEE60018EC02DD0A18EC0055
:1020C000DD08DC0ADE088F84F8C40F8FDF08DE022B
:1020D0004F5FEE159A0ADA0B8F9A08DA098F18ED1E
:1020E00002CDEF00BD1C0918CEE79018EC02DD0A06
:1020F00018EC00DC0A8400C40ECE000018ED02CDFE
:10210000EF0018CEE79418EC02CDEE004F5F8F84FD
:10211000FCC4008F18ED02CDEF00D60DC107224A96
:10212000CE00004FD60D18CE0014BD5EAE4F5F8FAF
:102130008407C4F08FDD0EDF0C18CEE60018EC0229
:10214000DD0A18EC00DD08DC0ADE088F84F8C40F15
:102150008FDF08DC0EDE0C9A0ADA0B8F9A08DA0998
:102160008F18ED02CDEF00BD1C09BD206ECEE60834
:10217000EC02DD0EEC00DD0C18FE045A18EC1ADD42
:102180000A18EC18DD08DC0ADE088F8403C4FF8F10
:1021900018DF0218DE0618ED03CDEF01DE0C4F5FED
:1021A0008F8410C4008F18ED0BCDEF09DC0EDE0C10
:1021B0008F8403C4FF8FDF0C84C0C4008F8403C4EA
:1021C000FF8F18ED07CDEF05DE02EE104F5F8F8415
:1021D00007C4F08F18CE0014BD5EC1DE06E70E18EE
:1021E000CEE60018EC0218EC00DF028F4F5F8F8400
:1021F00007C4F08F18CE0014BD5EC118DF0418DECE
:102200000218E70DCEE851E600C40118E70F18E602
:102210000D18DE043CDE02E10E38247518DE0618C7
:102220006C0DCE00004F18E60D18CE0014BD5EAE4A
:1022300018CEE6004F5F8F8407C4F08F18DF0418B4
:10224000DE0618ED17CDEF1518DF0218DE0418ECC6
:1022500002DD0A18EC00DD08DC0ADE088F84F8C411
:102260000F8FDF08DE024F5FEE159A0ADA0B8F9AA6
:1022700008DA098F18ED02CDEF00BD1C09CC00046F
:10228000CE0000BD49C118DE0618E60D18E10E2586
:102290008BDC0C18DE06CDA30123037E2430250A37
:1022A000DC0ECDA30325037E243018DE0618EC07D0
:1022B000CDEE05C32000240108DD0EDF0CDC0CCDC3
:1022C000A301250F23037E24ABDC0ECDA30325033E
:1022D0007E24ABDC0EDE0C18DE0618AA0B18EA0C06
:1022E0008F18AA0918EA0A8F18CEE60818ED02CD51
:1022F000EF0018DE0618E60F3734DC0EDE0CBD1FCB
:10230000C1DE06E70FBD206EDC0EDE0CC32000240C
:102310000108DD0EDF0C3131DC0C18DE06CDA30127
:1023200025B123037E24ABDC0ECDA30325A5207BA2
:1023300018DE0618EC07CDEE05832000240109DD28
:102340000EDF0CDC0CCDA3012209255FDC0ECDA332
:10235000032358DC0EDE0C18DE0618AA0B18EA0C54
:102360008F18AA0918EA0A8F18CEE60818ED02CDD0
:10237000EF0018DE0618E60F3734DC0EDE0CBD1F4A
:10238000C1DE06E70FBD206EDC0EDE0C83200024CC
:102390000109DD0EDF0C3131DC0C18DE06CDA301A6
:1023A00022B12507DC0ECDA30322A818FE045ACEC5
:1023B000E60818EC1AED0218EC18ED0018DE061805
:1023C000E60F373418EC03CDEE01BD1FC1BD206E02
:1023D000CEE600EC02EE004F5F8F8407C4F08F184A
:1023E000CE0014BD5EC1DF04DE06E70D3131DF0231
:1023F000DE043CDE02E10E38236518DE06186A0DA5
:10240000CE00004F18E60D18CE0014BD5EAE18CEFB
:10241000E6004F5F8F8407C4F08FDD0EDF0C18ECF1
:1024200002DD0A18EC00DD08DC0ADE088F84F8C43F
:102430000F8FDF08DC0EDE0C9A0ADA0B8F9A08DAAF
:10244000098F18ED02CDEF00BD1C09CC0004CE00B1
:1024500000BD49C118DE0618E60D18E10E229B18D2
:10246000FE045A18EC1EDD0A18EC1CDD08DC0ADE3E
:102470000884FFC4FE18DF0418CEE79018ED02CDE3
:10248000EF0018DE04CEE79418EC22ED0218EC20E1
:10249000ED00BD206EFE045A18CEE790EC1E18ED3C
:1024A00002EC1C18ED00BD206EFC01A2DD0AFC014F
:1024B000A0DD08DC0ADE0818DE0618A41218E413F2
:1024C0008F18A41018E4118F8C00002604DD00275B
:1024D00020CC000837367F00037F0002DC0237364D
:1024E000CE00003C3C3734BD4E2C308FC3000A8FE9
:1024F00035BD053BC41FDE06E71918CEE66D18E6AC
:1025000000C4E0E714E619EA1418E700FC045AC313
:102510000010CE00183C3736CC02ECBD5E1D3838BA
:1025200038DF0E38DF0C38DF0A38DF08308FC300A1
:10253000198F3538DF0639DE063C349F06DE083C4D
:10254000DE0A3CDE066F01FC0196FE0194260FDDDB
:102550000027132009BD1CF4C601DE06E701BD1DDE
:10256000125D27F12003BD1D12DE066D01271EFC42
:102570000192DD0AFC0190DD08DC0ADE08C30001DF
:10258000240108DF08FD0192DC08FD019038DF0A14
:1025900038DF083138DF0639DE063C3C349F06DE82
:1025A000083CDE0A3CCE0000DF02DE06DD04DC0271
:1025B000E701DC04CEE760EC02DD0AEC00DC0A8413
:1025C00003C4FFDE02DD008FD3008F18DE06186C17
:1025D0000118E601DF02C10723DACEE72CEC02DDA9
:1025E0000AEC00DC0A843FC4E0CE000018CE0005EF
:1025F000BD5EC13736381A8300FF2F2D18DE06DF87
:1026000004DE02CDEF028FDE04DD002A06C3000FD8
:1026100018ED0218DE0618EC024756475647564793
:1026200056DF00D3008BFE2013DC022A03C3000F09
:102630004756475647564756DF00D30038DF0A381B
:10264000DF08383138DF0639DE063C3C3C3C3C9F35
:1026500006DE083CDE0A3CCEE230FC01EEED02FC78
:1026600001ECED00CEE23CC601E700F601D0C1016D
:1026700027037E28E6BD2698DD02FE01E6DF0093F3
:1026800000DD0A2A064F5F930ADD0A9C022C0BDC50
:102690000A1AB301DE2C157E28E69C022E037E2842
:1026A000E6DC0A1AB301E02C037E28E618FE01E4FA
:1026B00018DF08DC0A1A93082F1C9C022C0D18DF67
:1026C00002DC02DF00D300DD02200BDF0218DF0096
:1026D0008F93008FDF02FE01D2DF08DC021A93081D
:1026E0002C1118DE06186F02186F01FE01DCDF08DE
:1026F0007E288D18FE01D4189C022F26FE01D818C2
:10270000DE06CDEF01DC08BD5ED4DD002A03C30088
:102710000F4756475647564756DD08FC01DC9308DD
:102720002069DC021AB301D62C58FC01DADE06ED72
:102730000118DF00DC009308ED05FC01D8ED07EC83
:1027400005EE07BD5ED4DD002A03C3000F475647E0
:102750005647564756DE06ED03EC01183C38BD5E81
:10276000D4DD002A03C3000F475647564756475645
:10277000DD0818DE0618EC03930818ED05F301DCFC
:102780002009DE066F026F01FC01F0DD0818DE068D
:1027900018EC011AB301E8270FDC0A1AB301E22D85
:1027A0004518EE0118FF01E8FC01E8DE02BD5ED429
:1027B000DD002A03C3000F4756475647564756D3F6
:1027C00008FE01DCDF001A93002D0AFE01F0DF0095
:1027D0001A93002F018FFD01EAF601EBCEE76FE7B8
:1027E00000DC02FD01E638DF0A38DF083838383807
:1027F00038DF0639DE063C9F06C601F701D0BD264C
:10280000988FFC01DE05F301DE2A03C30001475661
:10281000DD008F93008FFF01E6BD274838DF0639C2
:10282000DE063C9F067F01D038DF0639DE063C3CE1
:102830003C349F06DE083CDE0A3CDE0C3CDE06E74C
:10284000014FE60B050505050505C3755CDD0C6F3D
:10285000025FF17518247F18DE0618E602186F046F
:1028600018E7055C18E70318E601270A18EC0405C9
:1028700005C3751E200818EC040505C3751C188FC8
:10288000CDEE0018DE064F18E6020505DF04DE0C6B
:10289000DD008FD3008FEC02DD0AEC00DE04DD08E2
:1028A0008FCE000018CE0006BD5EAE8A00CA0F377C
:1028B000363CCC096FBD413DDE0A3CDE083CCC0A0B
:1028C00021BD413D3838383818DE0618E60318E7D0
:1028D00002F17518258138DF0C38DF0A38DF083837
:1028E000383138DF0639DE063C9F06CEE61E1D0075
:1028F0000118FE045ACEE62418EC2AED0218EC2842
:10290000ED00CEE62818EC2EED0218EC2CED00CEF2
:10291000E62C18EC32ED0218EC30ED00CEE6301863
:10292000EC36ED0218EC34ED0038DF0639DE063CFB
:102930009F06DE083CDE0A3CDE0C3CDE0E3CCEE6AA
:102940001C1D000218FE045ACEE85C18EC42ED0291
:1029500018EC40ED00CEE86018EC46ED0218EC44AF
:10296000ED00CEE61E1D00081C0040CEE64818EC27
:102970003ADD0A18EC38DD08DC0ADF02DE0884FFE5
:10298000C41F8F8400C4FF8FDD0EDF0C18DF041816
:10299000DE0218EC02DD0A18EC00DD08DC0ADE08B5
:1029A0008400C4E08F84FFC4008FDD0ADF08DC0EE2
:1029B000DE0C9A0ADA0B8F9A08DA098F18ED02CD2D
:1029C000EF0018DE04CE00004F18E63C18CEE64CAF
:1029D00018E700CEE61DE600C50127F7CEE61E1C6F
:1029E000000838DF0E38DF0C38DF0A38DF0838DF40
:1029F0000639DE063C3C9F06CEE61E1C00011D008B
:102A000040BD053BC40FDE06E70218CEE66E18E6B1
:102A100000C4F0E701E602EA0118E700FC045AC32B
:102A20000028CE00243C3736CC0304BD5E1D383868
:102A30003838DF0639DE063C308FC3FFD08F359F34
:102A400006DE083CDE0A3CDE0C3CDE0E3CCC0A997D
:102A5000BD41C8C408DE06E70CBD053B58585858B0
:102A600018DE0618E72A18CEE66E18E600C40F181E
:102A7000DE0618E72318E62A18EA23CEE66EE700FA
:102A8000BD29E6F602DD2607FE045AE6012734FCDE
:102A9000019ADD0AFC0198DD08DC0ADE08C801FDA8
:102AA000019AFF0198FC019ADD0AFC0198FE045A84
:102AB000E6013734D60BBD292CFE045AE601F70295
:102AC000DD313118DE06186D0C26037E2F22FE0440
:102AD0005AE606186F2B18E72C18EC2B0404040494
:102AE00018ED2BC40118E70D18E62CC801C4011815
:102AF000E70EFC019AFE01982607DD0026037E2CD6
:102B0000B418CE8BC0183C18CE0002183CCC096F0C
:102B1000BD413D18381838CC0A21BD41918F84DF62
:102B2000C4FF8FDD0ADF0818DE0618E60D188F18BF
:102B3000DF0E7F000E7F000D7F000CDC0EDE0C1818
:102B4000CE001DBD5EAE4F5F8F8420C4008FDD0EB2
:102B5000DF0CDC0ADE089A0EDA0F8F9A0CDA0D8F82
:102B6000DD0ADF08CC8BCF3736CC00023736CC09F4
:102B70006FBD413D3838DE0A3CDE083CCC0A21BD41
:102B8000413D3838CE8C003CCE00023CCC096FBDB4
:102B9000413D3838CC0A21BD41918F84DFC4FF8F7D
:102BA0009A0EDA0F8F9A0CDA0D8FDD0ADF08CC8CC3
:102BB0000F7E2D5ECEA7C03CCE00023CCC096FBD7F
:102BC000413D3838CC0A21BD41918F84DFC4FF8F4D
:102BD000DD0ADF0818DE0618E60D188F18DF0E7FF5
:102BE000000E7F000D7F000CDC0EDE0C18CE001DE9
:102BF000BD5EAE4F5F8F8420C4008FDD0EDF0CDC26
:102C00000ADE089A0EDA0F8F9A0CDA0D8FDD0ADFD2
:102C100008CCA7CF3736CC00023736CC096FBD4180
:102C20003D3838DE0A3CDE083CCC0A21BD413D3847
:102C300038CEA8003CCE00023CCC096FBD413D38E7
:102C400038CC0A21BD41918F84DFC4FF8F9A0EDA00
:102C50000F8F9A0CDA0D8FDD0ADF08CCA80F3736FC
:102C6000CC00023736CC096FBD413D3838DE0A3C16
:102C7000DE083CCC0A21BD413D3838CE89C03CCE6F
:102C800000023CCC096FBD413D3838CC0A21BD4122
:102C90009184FFC4F718DE0618ED2FCDEF2D8F18A5
:102CA000E60D8FDF0E7F000E7F000D7F000CDC0E27
:102CB000DE0C18CE0003BD5EAE8400C408CE00005A
:102CC000DD0ADF0818DE0618EC2FCDEE2D9A0ADAA1
:102CD0000B8F9A08DA098F18ED11CDEF0FCE92C045
:102CE0003CCE00023CCC096FBD413D3838CC0A21B6
:102CF000BD419184FFC4DFDD0ADF08DC0EDE0C1865
:102D0000CE0005BD5EAE8400C420CE0000DD0EDC2A
:102D10000ADE089A0EDA0F8F9A0CDA0D8F18DE068B
:102D200018ED15CDEF13CE94403CCE00023CCC09FB
:102D30006FBD413D3838CC0A21BD419184FFC4DFCD
:102D40009A0EDA0F8F9A0CDA0D8F18DE0618ED192D
:102D5000CDEF17186F094F5FDD0E18ED28DE06EC7A
:102D600028D30E18DE061808DD00188FD300188F40
:102D70001AEF24DC0EDE0C18CE0004BD5EAE8A9580
:102D8000CAC08F8A00CA028F37363CCC096FBD415A
:102D90003D3838CC0A21BD41918F84FFC4F38F1890
:102DA000DE0618ED2FCDEF2D8F18E60E8FDF0A7F90
:102DB000000A7F00097F0008DC0ADE0818CE001236
:102DC000BD5EAEDD0ADF0818DE0618EC2FCDEE2D55
:102DD0009A0ADA0B8F9A08DA098F18EE2418ED0296
:102DE000CDEF00DE066C09EC28C30003ED28DC0EF5
:102DF000DE0CC30001240108DD0EDF0C18DE06180E
:102E0000E609C10122037E2E5D18E60D2705CC01DF
:102E100001200618DE06CC030318ED1DCC010118B5
:102E2000ED1BFE045AE607C508272018CE8D401872
:102E30003C18CE0002183CCC096FBD413D3838CC5F
:102E40000A21BD41918A40CA00201ACE8D403CCE55
:102E500000023CCC096FBD413D3838CC0A21BD4150
:102E60009184BFC4FF18DE0618ED21CDEF1FF67068
:102E700001C504270DFE045AE6068400C410DD00D7
:102E80002705C60118DE0618E70AF60454D709F626
:102E90000453D109240CD701DE008F4F8FCC0100E1
:102EA0002011188FD609188F8F18DF00D6014F8F89
:102EB000CC1000BD5F24CE00004D2A0109DD0EDFDD
:102EC0000C18DE06186F0BFC01A2DD0AFC01A0DD68
:102ED00008DC0E940AD40B8F9408D4098F8C000060
:102EE0002604DD002708C60118DE0618E70BC60712
:102EF00018CEE26418E700BD3BD5CEE2641D0001A8
:102F000018DE0618E60B271DCE00103CCE00003C54
:102F1000CC001037364F5F37363734BD4E2C308FEC
:102F2000C3000A8F35CEE211C630E70018CEA68F57
:102F3000183C18CE0002183CCC096FBD413D383812
:102F4000CE00043CCE00003CCC0A21BD413D3838C7
:102F5000CEE211E6008400C4301A83003026F1C6A8
:102F600030E700CC0004CE0000BD4C5DBD50CDFC70
:102F7000019EFE019CBD497518DE06186D0A2708E2
:102F8000CEE61E1C00042006CEE61E1D0004DE0652
:102F90006D0C26037E321ACEE61EE600C4DF18DE74
:102FA0000618E72618E60D5858585858C42018EA4D
:102FB00026E700CE89CF3CCE00023CCC096FBD4154
:102FC0003D383818DE06CDEE113CCDEE0F3CCC0A74
:102FD00021BD413D3838CE92CF3CCE00023CCC09D9
:102FE0006FBD413D383818DE06CDEE153CCDEE13F1
:102FF0003CCC0A21BD413D3838CE944F3CCE000236
:103000003CCC096FBD413D383818DE06CDEE193C89
:10301000CDEE173CCC0A21BD413D3838DE066F09A4
:103020007F000D7F000C18DE068F4F18E6098FCC4D
:103030000001DF02BD5F2418E727DC0CD30218086B
:10304000DD00188FD300188F18EC02DD0A18EC0091
:10305000DD08DE06E6278695CAC0CE000218DE0629
:1030600018ED2FCDEF2D37363CCC096FBD413D38E3
:1030700038DE0A3CDE083CCC0A21BD413D3838DE52
:10308000066C09DC0CC30003DD0CE609C1012396C4
:1030900018CEA44F183C18CE0002183CCC096FBDC6
:1030A000413D3838CE00CE3CCE00003CCC0A21BD9C
:1030B000413D3838CEA48F3CCE00023CCC096FBDD8
:1030C000413D383818DE06CDEE1D3CCDEE1B3CCC24
:1030D0000A21BD413D3838CEA44F3CCE00023CCC45
:1030E000096FBD413D3838CE00DE3CCE00003CCCFF
:1030F0000A21BD413D3838CEA48F3CCE00023CCCE5
:10310000096FBD413D383818DE06CDEE1D3CCDEED1
:103110001B3CCC0A21BD413D3838BD2A2DBD4B2A70
:10312000BD4BEDCEE648E600C50127F7CEE206E648
:1031300000C50227F7CEE20A1C0002CEE840FC01DF
:103140009AED02FC0198ED00FE045A188FE606186D
:103150008F18DF0E7F000E7F000D7F000CDC0EDE6F
:103160000C18CE0018BD5EAEDD0EDF0CFC019ADD42
:103170000AFC01982604DC0A270ADC0EDE0C8A0011
:10318000CA062008DC0EDE0C8A00CA05DD0ADF084C
:10319000CCA68F3736CC00023736CC096FBD413D07
:1031A0003838DE0A3CDE083CCC0A21BD413D3838C7
:1031B000CE8D4F3CCE00023CCC096FBD413D38382E
:1031C00018DE06CDEE213CCDEE1F3CCC0A21BD41E0
:1031D0003D3838CE00013CCE00003CCC082BBD4130
:1031E0003D3838FE045A4FE606CE000018CE0018CF
:1031F000BD5EAE8A00CA0ADD0ADF08CEA68F3CCECD
:1032000000023CCC096FBD413D3838DE0A3CDE0887
:103210003CCC0A21BD413D3838CC000ACE0000BD6F
:103220004C5DCC0A9ABD4191CEE211C630E700CE8A
:10323000E211E6008400C4301A83003026F1C63063
:10324000E700FE045A4FE606CE000018CE0018BD77
:103250005EAE8A00CA10DD0ADF08CEA68F3CCE0023
:10326000023CCC096FBD413D3838DE0A3CDE083CEB
:10327000CC0A21BD413D3838CEE61C1C0002CE00F0
:10328000003C3CCC082BBD413D3838CEE2641C00EC
:103290000818CEE26018EC02DD0E18EC00DD0CFC24
:1032A00001AADD0AFC01A8DD08DE0C9C0825152218
:1032B00007DC0E1A930A230C18EC02FD01AA18EC85
:1032C00000FD01A8CEE260EC02DD0EEC00DD0CFC9E
:1032D00001AEDD0AFC01ACDD0818DE0C189C0825E7
:1032E000262206DE0E9C0A231EFC01B2DD0AFC012A
:1032F000B0DD08DC0ADE08C30001240108DF08FD98
:1033000001B2DC08FD01B018DE06186D0B271ACEDD
:1033100000103CCE00003C4F5F373637363734BDA7
:103320004E2C308FC3000A8F35BD2AF2FE045AE6B8
:1033300006F702E2E607F702E3CC000138DF0E38B9
:10334000DF0C38DF0A38DF08308FC300308F3538A4
:10335000DF0639DE063C9F06BD29E6BD2A2DBD2AC3
:10336000F238DF0639DE063C349F06CEE84C4F5F6C
:10337000ED02CC0010ED00CEE63FE600C50127339C
:10338000F60457DE06E701262AF7600BF60453C160
:103390000122207C600AF6600AF10334230CBD058B
:1033A000E4DE06E601F7600A2009CEE6471C0010BD
:1033B0001D0010CEE2044F5FED02CC0030ED003175
:1033C00038DF0639DE063C349F06CEE84C4F5FED11
:1033D00002CC0020ED00CEE63FE600C5012734F622
:1033E0000457DE06E701262BF7600AF60453F104C2
:1033F0005823207C600BF6600BF10335230CBD05D0
:10340000FDDE06E601F7600B2009CEE6471C001042
:103410001D0010CEE2044F5FED02CC0030ED003114
:1034200038DF0639DE063C9F06DE083CDE0A3CDE5D
:103430000C3CDE0E3CCEE647E600C50127037E3697
:103440002418FE045A18EC26DD0E18EC24DD0CFCC2
:103450000302DD0AFC0300DD08DE0C9C08260ADC02
:103460000E1A930A26037E3624DE0C9C08225E2563
:1034700007DC0E1A930A24558F18E6008FDF0A7FA7
:10348000000A7F00097F0008CC7E8F3736CC00020F
:103490003736CC096FBD413D3838DE0A3CDE083C8A
:1034A000CC0A21BD413D3838F602DEC101261EFEA0
:1034B000045AE6022617CEE7FFC608E700CEE2115F
:1034C000E600C50427F7C604E7007F02DECEE64625
:1034D0001D0080BD4AA3CC1E84CE0000BD49C1F6AC
:1034E0007001C5082705BD1D122003BD2086BD4AF9
:1034F000E8CEE20A1C000218CEE206C60218E70077
:103500001C0002F602DE261CFE045AE602C1012659
:1035100013CEE7FFC609E700CEE211C604E700C6F6
:1035200001F702DEFE045A188FE600188F18DF0A32
:103530007F000A7F00097F0008CE7E8F3CCE00020C
:103540003CCC096FBD413D3838DE0A3CDE083CCC3E
:103550000A21BD413D3838FE045AEC16DD0AEC1450
:10356000DD0818CEE604DC0ADF02DE0884F0C400C1
:103570008F8400C41F8FDD0EDF0C18EC02DD0A18EB
:10358000EC00DD08DC0ADE08840FC4FF8F84FFC472
:10359000E08FDD0ADF08DC0EDE0C9A0ADA0B8F9A68
:1035A00008DA098F18ED02CDEF00CEE6051C0040C9
:1035B000CEE60FE600C50227F7CEE6051D0040DE89
:1035C00002E65AC5012706CEE6461C0080CC000163
:1035D00038DF0E38DF0C38DF0A38DF0838DF06390D
:1035E000DE063C3C3C3C3C9F06DE083CDE0A3C18C8
:1035F000FE0462186D0026037E3868CEE2641C006B
:103600000818EC0A0518E30A05050518DF00D300C1
:10361000C3000CDE06ED07CEE260DD02EC0218DF2F
:103620000418DE0218ED02EC0018ED0018DE041894
:10363000EC0A0518E30A050505DD00188FD300180C
:103640008FF6045418E714CEE8BCEC02DD0AEC0057
:10365000DD0818FE046218EC0A0518E30A050505E2
:10366000DD02DE0218DF008FD3008FDC0A8403ED59
:103670001818EC0A0518E30A050505DD02DE021834
:10368000DF008FD3008FCC03FF9408D409ED1A1804
:10369000EC0A0518E30A050505DD0218DF00D30072
:1036A000CEE740DD02EC02EC00DD08CC07FF940819
:1036B000D409DE02ED1CCEE744EC02DD0AEC00DDAD
:1036C0000818EC0A0518E30A050505DD02DE0218F4
:1036D000DF008FD3008FDC0A8407ED1E18EC0A058B
:1036E00018E30A050505DD02DF04DE0218DF008F9E
:1036F000D3008FCC07FF9408D409ED20DE0418EC2A
:103700000A0518E30A05050518DF00D300C30010F9
:1037100018DE0618ED01BD5D6F18DE0618EE011803
:10372000ED02CDEF00CEE73E1C00041D00041C009E
:10373000021D0002FC0462DE06ED03188F18EC087F
:10374000CEFFFF3C8D3018DE0618EE0318ED08FEA4
:10375000046218DE06CDEF05EC0AEE04093C8D1676
:10376000DE06EE05ED0A383838DF0A38DF0838386B
:10377000383838DF0639DE063C9F06DE061AA30518
:1037800026044F5F2003C3000138DF0639DE063C04
:103790009F06DE083CDE0A3C18FE0462186D002716
:1037A0005CCEE668EC02DD0AEC00DD0818EC0A05E8
:1037B00018E30A05050518DF00D300DE0ADD02184C
:1037C000DF0418DE02CDEF1618DE0418EC0A051827
:1037D000E30A050505DD00188FD300188FCC000122
:1037E0009408D40918E715C607CEE264E700CC00B8
:1037F00001CE0000BD49C1CEE2641D000138DF0AE0
:1038000038DF0838DF0639DE063C3C3C3C3C9F068E
:10381000DE083CDE0A3CDE0C3CDE0E3CCEE66FF6FB
:103820000454C40F18DE0618E706E600C4F018E7D3
:103830000218E60618EA02E700FE045AE64EF10313
:103840002A2510E656F103322509BD4D9A5D26035F
:103850007E3AC8FE045AE603F102DF230BC601BD1F
:103860004CE05D26037E3AC818CE7E8F183C18CEF9
:103870000002183CCC096FBD413D3838CE00083CF1
:10388000CE00003CCC0A21BD413D3838FE045AFC34
:103890000326DD0EFC0324DD0CEC4ADD0AEC48DDDA
:1038A0000818DE0C189C0825112206DE0E9C0A233F
:1038B00009BD2B355D26037E3AC8CEE647E60018E3
:1038C000DE0618E7088400C40118ED03264EFE0446
:1038D0005AEC26DD0EEC24DD0CFC0302DD0AFC03B1
:1038E00000DD0818DE0C189C082606DE0E9C0A2750
:1038F0002BF67001C5082703BD4AA3BD352418DE89
:103900000618E701F67001C5082703BD4AE818DE6E
:1039100006186D01260618EC037E3B7618FE045A45
:10392000FC0326DD0EFC0324DD0C18EC4ADD0A182E
:10393000EC48DD08DE0C9C08254C2207DC0E1A93AF
:103940000A2543FC031EDD0EFC031CDD0C18EC42B3
:10395000DD0A18EC40DD08DE0C9C082629DC0E1A76
:10396000930A2622FC0322DD0EFC0320DD0C18EC5A
:1039700046DD0A18EC44DD0818DE0C189C08260603
:10398000DE0E9C0A2706BD2B355D273CFE045AE659
:1039900003F102DF2408C601BD4CE05D272A18CEE2
:1039A0007E8F183C18CE0002183CCC096FBD413DFB
:1039B0003838CE00093CCE00003CCC0A21BD413D48
:1039C0003838BD4D9A5D26054F5F7E3B76CEE66F5B
:1039D000F604545858585818DE0618E707E600C48D
:1039E0000F18E70518E60718EA05E700CEE6471CBA
:1039F000001018FE045AFC02EADD0EFC02E8DD0CA1
:103A000018EC0EDD0A18EC0CDD08DE0C9C0826070D
:103A1000DC0E1A930A2717CEE6D0DC0AED02DC088A
:103A2000ED0018EC0EFD02EA18EC0CFD02E8CEE603
:103A3000D418EC0AED0218EC08ED00CEE6471D00A4
:103A400010CEE6EEE600BD053BCEE7F3E700BD0590
:103A50002ECEE7F2E700CEE7EFC6F9E700CEE7EEBD
:103A6000C601E7006F00FE045AE658F70334E65932
:103A7000F70335CC000138DF0E38DF0C38DF0A38A9
:103A8000DF083838383838DF0639DE063C3C3C9FE2
:103A900006F67003C5082735CEE208E60018DE06F4
:103AA00018E701CEE204E60018E70418E60153180F
:103AB000E70218E60418E40218E704C508270ECE4A
:103AC000E24CE600C5012705CC000120024F5F381B
:103AD0003838DF0639DE063C9F067D045C26467DCD
:103AE000045D2741FC0136FE0134BD49752007C63F
:103AF00008CEE210E700CEE210E600C508270ECEA1
:103B0000E206E600C50226058D805D27E2CEE210C2
:103B1000E600C508260FCEE206E600C5022606BD71
:103B20003B8A5D27E838DF063918DE06183C3C344E
:103B30009F0618DE08183C18DE0A183C18DE0C1820
:103B40003C18DE0E183CDD0A18DE0618EC0EDD0E01
:103B500018EC0CDD0CDC0A18A30A8F18E20918A275
:103B6000088FDD0ADF08CC010018E011820018ED93
:103B70000118CE0000DE06188FE703188FDC0A0557
:103B8000DE088F59498FDD0ADF08DF04DE06640195
:103B90006602DE049C0C251F22051A930E2318DFF3
:103BA00004DE06188FE301188FDE04930E8FD20D0A
:103BB000920C8FDD0ADF08DE066C03E603C10223E8
:103BC000BC188C0000260418CE0001188F504F3806
:103BD000DF0E38DF0C38DF0A38DF08383138DF060F
:103BE0003918DE06183C9F0618DE08183C18DE0A55
:103BF000183C8C00002604DD00275FCC010018DE95
:103C00000618E0068200DD0218CEE60418EC02DD9C
:103C10000A18EC00DD08DC0ADE08840FC4FF8F847C
:103C2000FFC4E08FDD0ADF08DC02CE000018CE0002
:103C30000CBD5EAE84F0C4008F8400C41F8F9A0A4E
:103C4000DA0B8F9A08DA098F18CEE60418ED02CD48
:103C5000EF00CEE6051C00202006CEE6051D002064
:103C6000CEE6051C0040BD1BC418CEE605181D009D
:103C70004038DF0A38DF0838DF0639DE063C3C3CD6
:103C80009F06DE083CD709F676ACD10926037E3EB6
:103C90001DD109243A4FF676AC8F4FF604E08F3CE5
:103CA000BD3E88DE06ED01E6023131D109245A37E6
:103CB00034CC0001CE0000BD3CE1DE06E602F77622
:103CC000ACCE00004FF604E1BD49C1313120C64FF2
:103CD000F676AC8F4FF604E08F3CBD3EB6DE06EDC7
:103CE00003E6043131D10923203734CC0001CE0062
:103CF00000BD3CE1DE06E604F776ACCE00004FF6F0
:103D000004E1BD49C1313120C6D6093734CC0001A8
:103D1000CE0000BD3CE1D609F776AC313138DF0882
:103D2000383838DF0639DE063C9F06F104D82338E0
:103D3000CEE63FE600C501272CF60453F1045823D4
:103D4000244F05050505C304888FE600BD3D7BBDF6
:103D500005FD5FBD3D7B5F37344F5FCE0000BD3C4E
:103D6000E131312006F604D8BD3D7B7D76B02706D3
:103D7000BD56807F76B038DF0639DE063C9F06F6FA
:103D800076AE8DA238DF0639DE063C3C9F06D703AF
:103D900018DE0618E608186F0118E70218EC01DEB5
:103DA00002DF00DB0189001A8300FF2303CC00FF40
:103DB0004F3838DF0639DE063C9F06DE083CDE065B
:103DC00037E606D701DE00338FD7098FD1092507E3
:103DD0004FD009820020024F5F4F38DF0838DF06DE
:103DE0003918DE06183C9F0618DE08183C18DE0A53
:103DF000183C18DE0C183C18DE0E183CDD0EDF0CEB
:103E0000FC76A2DD0AFC76A0DD0818DE06CDA3094B
:103E100022352507DC0ACDA30B222CF676AC3734ED
:103E200018DE06CDEE073CCDEE053CDE0E3CDE0C8A
:103E30003CDC0ADE08BD3C29F776AEC601F776B059
:103E400030C60A3A35206DFC76A6DD0AFC76A41849
:103E5000DE06CDA30922162507DC0ACDA30B240D0F
:103E6000F604DD3734F676ACBD3E882042FC76AAF7
:103E7000DD0AFC76A818DE06CDA30922272507DC7B
:103E80000ACDA30B241EFC76A6DD0AFC76A418DE60
:103E900006CDA309250E2207DC0ACDA30B2305F6C8
:103EA00004DE2003F604DF3734F676ACBD3EB631CF
:103EB00031F776AEBD3E7A38DF0E38DF0C38DF0AD8
:103EC00038DF0838DF0639DE063C9F06CE00403C6E
:103ED00018CE76C0183CCC0498BD5E1D4FF6045435
:103EE00005050505C30498CE00103C3736CC04D830
:103EF000BD5E1D3838383838DF0639DE063C9F068F
:103F0000DE083CDE0A3C188FDE06EC07DD0AEC0515
:103F1000DD08CEE2221AEF00CEE228DC0AED02DC58
:103F200008ED00CEE22118DE0618E60AE700CEE230
:103F300010C601E700CEE220C603E700CEE210E69D
:103F400000C50127F7C601E70038DF0A38DF083867
:103F5000DF0639DE063C9F06CEE222ED00CEE228E7
:103F600018DE0618E606E700CEE221C608E700CE16
:103F7000E210C601E700CEE220C603E700CEE21061
:103F8000E600C50127F7C601E70038DF0639DE067F
:103F90003C9F06CEE222ED00CEE22918DE0618E6AE
:103FA00006E700CEE221C604E700CEE210C601E734
:103FB00000CEE220C603E700CEE210E600C50127EE
:103FC000F7C601E70038DF0639DE063C9F06CEE281
:103FD00022ED00CEE22A18DE0618E606E700CEE261
:103FE00021C602E700CEE210C601E700CEE220C6FD
:103FF00003E700CEE210E600C50127F7C601E7009F
:1040000038DF0639DE063C9F06CEE222ED00CEE226
:104010002B18DE0618E606E700CEE221C601E7000F
:10402000CEE210E700CEE220C603E700CEE210E6C3
:1040300000C50127F7C601E70038DF0639DE063C78
:104040009F06DE083CDE0A3C188FDE06EC07DD0A20
:10405000EC05DD08CEE2221AEF00CEE228DC0AED04
:1040600002DC08ED00CEE221C60FE700CEE210C66A
:1040700001E700CEE220C603E700CEE210E600C56D
:104080000127F7C601E70038DF0A38DF0838DF0606
:1040900039DE063C9F06CEE222ED00CEE221C60FBD
:1040A000E700CEE210C601E700CEE220E700CEE254
:1040B00010E600C50127F7C601E700CEE224EC02B6
:1040C000EE00183818DF0639DE063C9F06CEE222E5
:1040D000ED00CEE221C60FE700CEE210C601E700F8
:1040E000CEE220E700CEE210E600C50127F7C601C8
:1040F000E700CEE224E6004F38DF0639DE063C9FBB
:1041000006CEE222ED00CEE221C60FE700CEE2109D
:10411000C601E700CEE220E700CEE210E600C501CE
:1041200027F7C601E700CEE226E6004F38DF063962
:10413000DE063C9F06DE083CDE0A3C188FDE06ECFD
:1041400007DD0AEC05DD08188F05058BE0188FDC0C
:104150000A18ED02DC0818ED0038DF0A38DF0838ED
:10416000DF0639DE063C9F0605058BE0188F18EC4C
:1041700002CDEE00183818DF0639DE063C349F0603
:10418000C6FFDE06E701CEE84C4F5FED02CC020031
:10419000ED00CEE63FE600C5042607BD0807DE06B3
:1041A000E701DE066D012B06CEE2081C0002CEE21E
:1041B000044F5FED02CC0200ED003138DF0639DE3E
:1041C000063C9F06CEE2044F5FED02CC0200ED00FC
:1041D000CEE2081D000238DF0639DE063C9F06CE1F
:1041E000E84C4F5FED02CC0800ED00CEE24CE6005B
:1041F000C501270EF67001C5102705BD43F4200246
:104200008D6BCEE24CE600C502271CCEE63FE600F1
:10421000C5042613BD08075D2B0DCEE2491D00C065
:10422000C602CEE24CE700CEE2044F5FED02CC08BE
:1042300000ED0038DF0639DE063C9F067F0456F6A7
:104240007001C501270DCEE24CC601E700CEE24861
:104250001C008038DF0639DE063C9F06CEE24CC6E5
:1042600002E700CEE2491C008038DF0639DE063C5A
:104270003C349F06C6FF18DE0618E701C601F704A6
:1042800056F67003186F0218E70318EC02C50827EA
:1042900005C601F7045CCEE63FE600C5012730F60F
:1042A0000338C501262218DE0618EC028400C40774
:1042B0001A8300012612C601373418CE76C0183C86
:1042C000CC70B8BD07853838BD0683DE06E7011817
:1042D000DE06186D012B0DCEE2481D00C0CEE24C6B
:1042E000C601E700F67003C50827037F045C383178
:1042F00038DF0639DE063C3C3C9F06C60118DE0668
:1043000018E701CEE248E60018E703C4DF18E70427
:1043100018E603C520260CC601F7045918E604CA9E
:104320002020097F045918DE0618E60418E703CE9A
:10433000E63FE600C5012707BD0683DE06E7011854
:10434000DE06186D012B0FCEE24CC601E700CEE26F
:104350004818E603E700383838DF0639DE063C9FA8
:1043600006CEE63FE600CEE7F4C60CE70038DF06EF
:1043700039DE063C9F06CEE84C4F5FED02CC1000C4
:10438000ED00CEE63FE600C5012703BD47B9CEE20A
:10439000044F5FED02CC1000ED0038DF0639DE0679
:1043A0003C3C3C3C3C3C9F06DE083CDE0A3CDE06D6
:1043B000E701C601F704EFE6016F09E70AEE098C91
:1043C0000006271F2E088C000427147E47AADE064D
:1043D000EE098C000827168C000A27157E47AAC60E
:1043E000042002C60518DE0618E702200EC60620C5
:1043F00002C60718DE0618E702C60518E70318E725
:104400000418DE0618E601F104EE26037E479ECD71
:10441000EE098C000626037E468C2E088C000427AD
:104420001E7E479E18DE0618EC091A830008260334
:104430007E468C1A83000A26037E468C7E479E1891
:10444000CEE64418EC02DD0A18EC00DD08DC0ADEDA
:104450000884FDC4FF18ED02CDEF0018EC02DD0A60
:1044600018EC00DD08DC0ADE088A01CA0018ED023B
:10447000CDEF0018EC02DD0A18EC00DD08DC0ADEE6
:104480000884FEC4FF18ED02CDEF00C603BD070D82
:1044900018CE0118183CCE70B83CCC0338BD5E1D58
:1044A00018CE0040183CCE76C03CCC0498BD5E1DB2
:1044B0007F0454CC033CFD045ABD053BC40F18DEF9
:1044C0000618E70918CEE66F18E600C4F018DE06F5
:1044D00018E70518E60918EA05CEE66FE7004F5F12
:1044E000BD4D9AC601BD4CE0BD2637BD50CDBD3493
:1044F000537F045318CE0010183CCE04983CCC04D3
:10450000D8BD5E1DBD052E5858585818DE0618E750
:104510000918CEE66F18E600C40F18DE0618E70685
:1045200018E60918EA06CEE66FE700C601BD070DDA
:1045300018DE0618E604373418E603BD4846DE06E2
:10454000E602BD4887FC017AFE0178BD49C118FE2C
:10455000045ACEE6D418EC0AED0218EC08ED00CEB1
:10456000E7FFC606E70030C60E3A35FC04ECDD0A6C
:10457000FC04EADD082607DC0A26037E479ECEE21D
:1045800008DC0AED02DC08ED007E479EFC0162FEBD
:104590000160BD49C118CEE64418EC02DD0A18ECF2
:1045A00000DC0A8438C400CE00002604DD00271891
:1045B00018EC02DD0A18EC00DD08DC0ADE088A02CD
:1045C000CA0018ED02CDEF0018DE0618E6043734F5
:1045D00018E603BD4846CEE7FFC607E70018DE062B
:1045E00018E602BD48873131F604EEC10427037E88
:1045F000479EC603BD070D18CE0118183CCE71D0DA
:104600003CCC0338BD5E1D18CE0040183CCE770070
:104610003CCC0498BD5E1D7F0454CC033CFD045A81
:10462000BD053BC40F18DE0618E70918CEE66F1863
:10463000E600C4F018DE0618E70718E60918EA07CE
:10464000CEE66FE700BD2637BD50CDBD3453C60161
:10465000BD4CE04F5FBD4D9ABD052E5858585818B7
:10466000DE0618E70918CEE66F18E600C40F18DE5C
:104670000618E70818E60918EA08CEE66FE7005FB3
:10468000BD070DCEE208EC02FD04ECEC00FD04EAEF
:10469000CCFBFFED02CCEF7FED00383838387F04DB
:1046A000EF18DE0618E601F704EE38DF0A38DF08F7
:1046B000383838383838DF0639DE063C349F06DEB5
:1046C000083CCEE7F5E600D709CCFFFCDB09890002
:1046D0001A830008226805C35FF8188FCDEE006EBC
:1046E00000BD445C2058CEE7F4C604E700C60520B0
:1046F0001FCEE7F4C606E700C6072014CEE7F4C6CF
:1047000008E700C6092009CEE7F4C60AE700C60B91
:1047100018DE0618E701CEE63FE600C502260ACEFF
:10472000E7F418E601E7002015D609BD449ECEE760
:10473000F418DE0618E601E700D609F704EE38DFC4
:10474000083138DF0639DE063C349F06DE083CDEE1
:1047500006E701E607D709CEE211C604E700CEE777
:10476000FF18DE0618E601E700CEE211E600C504F8
:1047700027F7C604E700CEE7FEE600D10926DF38BA
:10478000DF083138DF0639DE063C9F06DE083CDEF6
:104790000A3CDE0C3CDE0E3CD709C60F373418CE7F
:1047A000000F183C18CE0000183CCC096FBD3FFB31
:1047B000C60718CEE26418E7003838388FD6098F5C
:1047C000DF0A7F000A7F00097F0008CC7E8F373622
:1047D000CC00023736CC096FBD413D3838DE0A3C8B
:1047E000DE083CCC0A21BD413D3838CEE2641D00D4
:1047F00001CEE211E6008400C4301A83003026F1B5
:10480000CC1F40CE0000BD49C1CEE2641C00081898
:10481000CEE26018EC02DD0E18EC00DD0CFC018E1F
:10482000DD0AFC018CDD08DE0C9C0825152207DC66
:104830000E1A930A230C18EC02FD018E18EC00FDF1
:10484000018CCEE211C630E70038DF0E38DF0C38BD
:10485000DF0A38DF0838DF0639DE063C9F06C60A65
:10486000BD449E38DF0639DE063C9F06C604BD44C3
:104870009E38DF063918DE06183C9F0618DE081839
:104880003C18DE0A183CDD0ADF08260DDD0026098B
:10489000CC0001DD0A4F5FDD08CEE234DC0AED0218
:1048A000DC08ED00CEE23C1C0002CEE206C602E7C8
:1048B00000CEE20A1D000238DF0A38DF0838DF06C2
:1048C0003918DE06183C349F0618DE08183C18DE3E
:1048D0000A183CDF087D04EF274418CE0004BD5EB3
:1048E000AEDD0ADF0818DE06186F01CEE264C607E7
:1048F000E70018DE06186C0118E601C10423ECC6B7
:1049000006E700CEE264C60EE700CEE260EC02EEFF
:10491000009C0825EE22361A930A25E7202FCEE2C6
:1049200034ED02DC08ED00CEE23C1C0002CEE206D3
:10493000C602E700CEE20A1D0002CEE206E600C58E
:104940000227F7C602E700CEE20A1C000238DF0A9F
:1049500038DF083138DF0639DE063C9F06DE083CCA
:10496000D709CC7E803736CC00023736CC096FBDF4
:10497000413D3838CC0A21BD41FCD10926F6CC7E18
:10498000903736CC00023736CC096FBD413D183820
:104990001838CC0A21BD41FCD10926F638DF083889
:1049A000DF0639DE063C9F06CC000437364F5F3702
:1049B00036CC082BBD413DCC085BBD41918A00CA75
:1049C0000837363CCC085BBD413DCC0879BD4191F0
:1049D0008A00CA0837363CCC0879BD413D308FC3C8
:1049E000000C8F3538DF0639DE063C9F064F5F37F7
:1049F000363736CC082BBD413DCC085BBD41918498
:104A0000FFC4F737363CCC085BBD413DCC0879BDCF
:104A1000419184FFC4F737363CCC0879BD413D3025
:104A20008FC3000C8F3538DF0639DE063C9F06DE6B
:104A3000083CDE0A3CCE7CC03CCE00023CCC096F78
:104A4000BD413D3838CC0A21BD4191DD0ADF08184F
:104A5000FE045A18E607C5012708DC0A8A00CA01C5
:104A60002008DC0ADE0884FFC4FEDD0A18E607C55C
:104A7000022708DC0A8A00CA022006DC0A84FFC476
:104A8000FDDD0ADF08CC7CCF3736CC00023736CCD0
:104A9000096FBD413D3838DE0A3CDE083CCC0A21B6
:104AA000BD413D3838CE7CC03CCE00023CCC096FC5
:104AB000BD413D3838CC0A21BD41919C0826E61AFB
:104AC000930A26E1CE7CD03CCE00023CCC096FBDDF
:104AD000413D3838CC0A21BD41919C0826E61A9305
:104AE0000A26E138DF0A38DF0838DF0639DE063CFF
:104AF0009F06DE083CDE0A3CCE74003CCE00023C41
:104B0000CC096FBD413D3838CC0A21BD419184FFAD
:104B1000C4FEDD0ADF08FE045A4FE60704048400E1
:104B2000C401CE00009A0ADA0B8F9A08DA098FDDE9
:104B30000ADF08CC740F3736CC00023736CC096F49
:104B4000BD413D3838DE0A3CDE083CCC0A21BD417F
:104B50003D383838DF0A38DF0838DF0639DE063CF2
:104B6000349F06DE083CDE0A3CDE06E701CCA68068
:104B70003736CC00023736CC096FBD413D183818A6
:104B800038CC0A21BD419118CE0008BD5EC1DD0AB6
:104B900018DE0618E601C1FF2706DC0AC50126CD8E
:104BA00018CEA690183C18CE0002183CCC096FBD58
:104BB000413D18381838CC0A21BD419118CE000863
:104BC000BD5EC1DD0A18DE0618E601C1FF2706DC5E
:104BD0000AC50126CB38DF0A38DF083138DF06394D
:104BE000DE063C3C9F06DE06E701FE045AE603F1C2
:104BF00002DF277F5D267CCEE7F7C60DE700C60102
:104C0000DE06E702C602CEE206E700CEE20A1C009C
:104C100002DE06E6012709FC013AFE0138BD4975AE
:104C2000CEE206E600C5022620CEE211E600C5016E
:104C30002708C601E700DE066F02DE066D022709BF
:104C4000CEE206E600C50227E0CEE206C602E70095
:104C5000CEE20A1C0002DE06E6022709CEE7F76F65
:104C6000004F5F2030CEE7F4C60EE700DE06E60216
:104C7000F702DFFE045AE603F102DF2715C1012621
:104C800011CEE7F4C60CE700CEE7F76F00C601F7D8
:104C900002DFCC00013838DF0639DE063C3C9F06D7
:104CA000CEE63EE600C504272DFE045AE64EF1038B
:104CB0002A2723BD053B565656C4C0DE06E702CE62
:104CC000E66CE600C43FDE06E701E602EA01CEE656
:104CD0006CE700BD4FDEC601BD4F6FCC0001383818
:104CE000DF0639DE063C3C9F0618FE045A18E6052E
:104CF000F102E12732CEE63D585858C40818DF04C7
:104D000018DE0618E702E600C4F718E70118E60205
:104D100018EA0118DE04E70018E605F702E1FC01D5
:104D200042FE0140BD49C13838DF0639DE063C3C51
:104D30003C3C3C3C9F06DE083CDE0A3CDE0C3CDE94
:104D40000E3CDE06E70A18DE06EC13DD0AEC11DD88
:104D500008F6600CE702EC17EE15BD5F1DDD0EDFF7
:104D60000C18E6105318E704DC0ADE0818A417181C
:104D7000E4188F18A41518E4168F18ED07CDEF0569
:104D800018E60A18E41018E70918E6022751CEE6DB
:104D90007CEC02DD0AEC00DD08DC0ADE08940ED4AF
:104DA0000F8F940CD40D8FDD0ADF04CEE68BE60066
:104DB00054545418E40418E701DC0A18AA0718EA46
:104DC00008DF02DE048F18AA0518EA068F18CEE65F
:104DD0007818ED02CDEF00DE06E601EA092052CE9A
:104DE000E678EC02DD0AEC00DD08DC0ADE08940E51
:104DF000D40F8F940CD40D8FDD0ADF04CEE68BE642
:104E00000018DE0618E40418E701DC0A18AA0718DF
:104E1000EA08DF02DE048F18AA0518EA068F18CE0A
:104E2000E67C18ED02CDEF00DE06E601EA095858EF
:104E300058DE02E70018DE0618E602C801F7600C2B
:104E4000CEE63F565656C4C018E70AE600C43F18DF
:104E5000E70318E60A18EA03E70038DF0E38DF0C2C
:104E600038DF0A38DF08383838383838DF0639DEB6
:104E7000063C349F06DE06E70118FE045A18E65683
:104E8000F103322754CE70043AFC70B23736FC700E
:104E9000B037364F18E6560505DD02DF04DE028F17
:104EA000C370248FEC023736EC00DE043736F67020
:104EB000A63734E600BD4E2CFE045AEC56FD0332F4
:104EC000EC54FD033030C60A3A35DE06E601270908
:104ED000FC0146FE0144BD49C13138DF0639DE061A
:104EE0003C3C3C349F06F6032A18DE0618E701FE18
:104EF000045AE14E26037E509AFE045AF670A41816
:104F0000DE0618E703F67001C502271218E601E174
:104F10004E24035C200D18DE06186A012008E64EB8
:104F200018DE0618E70118DE0618E601186F0418E7
:104F3000E705CDEE048FC370048FFC70AA3736FCF2
:104F400070A8373618EC040505DD02DF04DE028F99
:104F5000C370248FEC023736EC00DE04373618E6D7
:104F6000033734E600BD4E2CFE045A1830C60A182A
:104F70003A183518DE0618E601E14E26045FBD4FEB
:104F80006FFC0146FE0144BD49C1FE045A18DE060D
:104F900018E601E14E27037E4FF9BD053B585858EE
:104FA00058C430DE06E70418CEE66C18E600C4CF1D
:104FB000E702E604EA0218E700FE045AEC4EFD039D
:104FC0002AEC4CFD032838383138DF0639DE063C40
:104FD0003C3C349F06CEE63EE60018DE0618E702AB
:104FE000C504273B18FE045A18E652F1032E272F5A
:104FF000CEE63D58585818DF0418DE0618E703C4FB
:105000000818E704E600C4F718EA0418E70518DEF4
:1050100004E70018EC52FD032E18EC50FD032C3869
:10502000383138DF0639DE063C308FC3FFD28F358A
:105030009F06DE083CDE0A3CDE0C3CDE0E3CDE0653
:105040006F015FE70E6F146F136F126F11CEE84C94
:10505000CC2000ED024F5FED0018CE000F183C1879
:10506000CE0000183CCC096FBD413DCC000F373657
:105070007F00037F0002DC023736CC0829BD413DAA
:10508000C6113734CC09FABD410430C60A3A35CED0
:10509000E8A3E6002706BD56807E5669CEE8BC1818
:1050A000DE06EC0218ED17EC0018ED15CEE73E1CFD
:1050B00000041D000418CEE8A8181D0001CEE888E1
:1050C000EC02DD0AEC00DD08CEE88CEC02DD0EEC33
:1050D00000DD0CF602D82716CEE89018DF0418DEA3
:1050E00006EC0218ED13EC0018ED1118DE04181C84
:1050F0000001CE00013CCE00003CCC096FBD413D1B
:10510000CC09D4BD419184FFC4E08F843FC4FF8F9C
:1051100018DE0618ED08CDEF06CC001237367F00FA
:10512000037F0002DC023736CC096FBD413DCC095C
:10513000D4BD419184FFC4E08F843FC4FF8F18DE4B
:105140000618ED0CCDEF0ACC000F37367F00037F39
:105150000002DC023736CC0829BD413DCE000F3CB1
:10516000CE00003CCC096FBD413DC6103734CC09A0
:10517000FABD4104CC0137BD419118DE0618ED049B
:10518000CDEF0230C6123A35F602D97D02D8277229
:10519000D70118DE00188F4F188FDC0ADE0818DFE1
:1051A00002BD5EC1DD0ADF08DC0EDE0C18DE02BDCA
:1051B0005EC1DD0EDF0CCC0020930218DE0618ED78
:1051C0001918EC13CE0000183C18EE19BD5EAE188D
:1051D000389A0ADA0B8F9A08DA098FDD0ADF081885
:1051E000CE0010DE02DF00188F9300188FDE06EE6F
:1051F000114F5FBD5EAE9A0EDA0F8F9A0CDA0D8FEB
:105200002029DE066F29E72ADC0ADE0818DE0618E8
:105210003C18EE29BD5EC11838DD0ADF08DC0EDE61
:105220000C183C18EE29BD5EC11838D30A8FD90975
:1052300099088FDD0EDF0C18DE06CDEE083CCDEEB2
:10524000063C5FBD587038385D273C4F0505C301EB
:10525000F4188F18EC26CDEE2418E3228F18E921DC
:1052600018A9208FDD0ADF08DC0804DD08DC0A4607
:1052700056DD0A18DE06CDEE0C3CCDEE0A3C5FBDD5
:10528000587038385D262218DE06CDEE173CCDEE7C
:10529000153C7F00037F0002DD04DC023736DC04AE
:1052A000DC023736DC047E55514F0505C301F41886
:1052B0008F18EC26CDEE2418E3228F18E92118A9C7
:1052C000208F18DF0418DE0618ED2DCDEF2B18EC1B
:1052D0002B04CDEE2D8F4656D30A8FD90999088F0E
:1052E000DD0ADF0818EC04CDEE0218DE04BD56EA34
:1052F0004F0505C301F4188FDC0EDE0CD30A8FD9DD
:105300000999088F18E3028F18E90118A9008FDDA9
:105310000EDF0CFE0462E6012759EC0A05050505BF
:10532000DF00D300C30014DE06ED1BBD5D6F18DE89
:105330000618EE1B18ED02CDEF00FE0462EC0A0524
:10534000050505DD0218DE02DF00188FD300188F77
:10535000DC0E18ED12DC0C18ED10EC0A0505050545
:10536000188FDF00188FD300188FDE06EC17840328
:1053700018ED18FC0328DE06ED1D04040404ED0FEF
:10538000DC0EED2DDC0CED2B18DF0418DE06DC0E38
:10539000DE0C18DF0218DE0418CE0006BD5EC11850
:1053A000DE0218ED2DCDEF2B18EC0FCDEE0FBD5E0C
:1053B000D418ED1FDD0018DE00164F5454188F7FEF
:1053C00000097F0008183CDC083736DE02EC2DEEC1
:1053D0002BBD5E4E1838183818DF0418DE0618ED9D
:1053E00023CDEF2118E60E18DE04C116224918DE7F
:1053F000064F18E60E050505C301F48FEC28CDA372
:105400001D260FEC2A1A8300692607C60118E7013A
:10541000200918DE06186F01186C0EDD04DC06DDAD
:1054200002DC043CDE026D0138260CDF04DE02E6FD
:105430000EDE04C11623B718DE06186D012629CD2D
:10544000EE173CCDEE153C18DE0E183C18DE0C189D
:105450003C4F5FCE0000BD5995CEE204CC2000ED5C
:10546000024F5FED007E56614F18E60E050505C33D
:1054700002208FEC02DD0CDC0C18E323CDEE21249E
:105480000108F302D68FF902D5B902D48FDD0ADF05
:1054900008FE0462E60126037E5628EC0A0505058F
:1054A00005DD0218DF0418DE02DF00188FD30018B4
:1054B0008FDC0A18ED0EDC0818ED0C18DE04EC0A7F
:1054C00005050505DF00D300C3001A8F7D045327AF
:1054D00004C6032002C601E700FE0462EC0A0505CB
:1054E0000505188FDF00188FD300188FF676AC18DB
:1054F000E71BFE046218DE06CDEF25EC0818CEFF90
:10550000FF183CBD3876DE06EE25ED08FC0462DEB1
:1055100006ED27188F18EC0ACDEE06093CBD38764B
:10552000DE06EE27ED0A3838CEE204CC2000ED028C
:105530004F5FED00FC769EC501272E18DE0C18DFAC
:105540000E7F000D7F000CDC0A3736DC083736187A
:10555000DE06CDEE233CCDEE213CDC0EDE0CBD3E66
:10556000E1183818381838183838DF0E38DF0C389A
:10557000DF0A38DF08308FC3002E8F3538DF063959
:10558000DE063C9F06CEE8A91C0040CC000F373653
:105590004F5F3736CC0829BD413D18CE000F183C6F
:1055A00018CE0000183CCC096FBD413DC610373401
:1055B000CC09FABD410418CEE8A9181D0040CEFF61
:1055C000FF3CCE00003CCCFFFF37364F5F3736CC78
:1055D000FFFFBD5995CEE204CC2000ED024F5FEDF8
:1055E0000030C6123A3538DF063918DE06183C1886
:1055F00030188FC3FFE4188F18359F0618DE08187F
:105600003C18DE0A183C18DE0C183C18DE0E183C5C
:1056100018DE0618ED1BCDEF198401C400CE000082
:10562000DD0ADF0818EC1B8402C40018ED03CDEF7F
:1056300001CDEE194F5F8F8400C4018FDD0EDF0CAA
:10564000CDEE198F8400C4028F18ED07CDEF05CD84
:10565000EE198F8400C4048F18ED0BCDEF09CDEE49
:10566000198F8400C4088F18ED0FCDEF0DCDEE1902
:105670008F8400C4208F18ED13CDEF11CDEE198F5C
:105680008400C4408F18ED17CDEF1518EC1B840073
:10569000C403CE000026061A830001275A8C00009E
:1056A00027037E58571A83000327037E5857DE08C6
:1056B0002604DC0A2713DE06EE01260818DE06188B
:1056C000EC032705C6077E5858DE082604DC0A27A7
:1056D0000CDE0C2604DC0E2704C606207BDE0C261E
:1056E00004DC0E2772DE06EE0D260818DE0618EC26
:1056F0000F2764C6052061DE082604DC0A2720DEA9
:1057000006EE11260818DE0618EC132712DE06EE48
:1057100015260818DE0618EC172704C6042039DE03
:10572000082604DC0A2704C603202DDE06EE052623
:105730000818DE0618EC072712DE06EE0926081800
:10574000DE0618EC0B2704C602200DDE0C2604DC56
:105750000E2704C60120015F4F38DF0E38DF0C38FA
:10576000DF0A38DF08308FC3001C8F3538DF063979
:10577000DE063C3C3C3C9F06DE083CDE0A3CDE0C80
:105780003CDE06E7017F000D6F03E704EC0305052F
:10579000C30214188F18EC02DD0A18EC001AA30BD0
:1057A00025222207DC0A1AA30D251918DE0618EC9B
:1057B0000DCDEE0B18CE001DBD5EC18C0000260481
:1057C000DD0027044F5F2070DE06EE038C0001270A
:1057D0006018DE064F18E601DB0D8900475618ED0C
:1057E0000518E7020505C30214188F18EC02DD0A3C
:1057F00018EC0018DE06CDA30B221E2507DC0ACD0F
:10580000A30D241518DE063718E606D70118DE00AA
:1058100033188FD70D188F200918DE0618E60218E6
:10582000E701DE064FE601D00D82001A8300012653
:10583000A018DE064F18E60138DF0C38DF0A38DF23
:105840000838383838DF063918DE06183C349F0629
:1058500018DE08183C18DE0A183CDD0ADF08DE06F0
:105860006F01DC082607DE0A8C00012318DE066CB7
:1058700001DC0804DE0A8F4656DD0ADF0826EE1A30
:1058800083000122E8DE064FE60138DF0A38DF0830
:105890003138DF063918DE06183C3C3C3C9F0618C0
:1058A000DE08183C18DE0A183C18DE0C183C18DE1E
:1058B0000E183CDD0ADF0818DE0618EC0DDD0E18A8
:1058C000EC0BDD0CFE0462E60126037E5A86EC0A30
:1058D00005050505DF00D300C3001418ED01BD5D0B
:1058E0006F18DE0618EE0118ED02CDEF00FE04621F
:1058F000EC0A05050505DD0218DE02DF00188FD36E
:1059000000188FDC0A18ED0EDC0818ED0CEC0A0507
:10591000050505DD0218DE02DF00188FD300188FA1
:10592000DC0E18ED12DC0C18ED10EC0A050505056F
:10593000DF00D300188F186F1AFE046218DE06CD40
:10594000EF03EC08CEFFFF3CBD387618DE0618EEFC
:105950000318ED08FE046218DE06CDEF05EC0AEE32
:1059600006093CBD3876DE06EE05ED0AFC04F4C3FC
:105970000001FD04F47F00097F0008CEE844ED0239
:10598000DC08ED003838CC000138DF0E38DF0C3889
:10599000DF0A38DF0838383838DF0639DE063C9F42
:1059A00006DE083CDE0A3CDE0C3CDE0E3CCC022A65
:1059B000BD4263DD0EDF0C4F5F8F8402C4008F1881
:1059C000CE0019BD5EC1F702D8DC0EDE0C84C0C467
:1059D000008F8400C4038F18CE000EBD5EC158F73F
:1059E00002D9D60F4F1AB302DA2758FD02DACE00D9
:1059F00025BD5ED4DD08C6053734C601BD5B8718FA
:105A0000DE08183CC601BD5BE6DE083CC608BD5C8E
:105A10005318DE08183CC617BD5CC0DE08DF0A7FDD
:105A200000097F0008FC02D6FE02D418DE0A183CEA
:105A300018DE08183CBD5E4EFD02D6FF02D430C60B
:105A40000C3A35CEE8A91D0020CE000F3CCE000058
:105A50003CCC0829BD413DCC000F37364F5F37366F
:105A6000CC096FBD413DC6103734CC09FABD4104A5
:105A7000308FC3000A8F3538DF0E38DF0C38DF0A6D
:105A800038DF0838DF0639DE063C3C3C9F06DE0680
:105A9000E702E701274718DE064F18E6010505C3B0
:105AA000021018ED03DD02DE02EC02EE00DD04DC84
:105AB000063718E60AD70118DE0033DD02DC04BD24
:105AC0005EAEDF04DE021AEE0318ED02DE04CDEF57
:105AD00000DE026A013CDE02E6013826B9CC000194
:105AE000383838DF0639DE063C3C349F06DE083C99
:105AF000DE0A3CDE0C3CDE06EE08DF0C18DE061883
:105B0000E701273DDE064FE6010505C30214ED025D
:105B10007F00097F0008188F18EC02CDEE0018DE18
:105B20000C183C18DE08183CBD5E4E1838183818A2
:105B3000DE0618EE0218ED02CDEF00DE066A012641
:105B4000C3CC000138DF0C38DF0A38DF08383138C1
:105B5000DF0639DE063C3C349F06DE083CDE0A3CAC
:105B6000DE0C3CDE06EE08DF0C18DE0618E7012727
:105B70003DDE064FE6010505C301F0ED027F000999
:105B80007F0008188F18EC02CDEE0018DE0C183CD0
:105B900018DE08183CBD5E4E1838183818DE061896
:105BA000EE0218ED02CDEF00DE066A0126C3CC003E
:105BB0000138DF0C38DF0A38DF08383138DF0639C2
:105BC000DE063C3C349F06DE083CDE0A3CDE0C3C34
:105BD000DE06EE08DF0C18DE0618E701273EDE06BB
:105BE0004FE601050505C30218ED027F00097F009D
:105BF00008188F18EC02CDEE0018DE0C183C18DEE9
:105C000008183CBD5E4E1838183818DE0618EE022B
:105C100018ED02CDEF00DE066A0126C2CC00013885
:105C2000DF0C38DF0A38DF08383138DF0639DE06A6
:105C30003C9F06CEE8A91C0020CC000F37364F5FF2
:105C40003736CC0829BD413D18CE000F183C18CE80
:105C50000000183CCC096FBD413DC6113734CC095A
:105C6000FABD4104308FC3000A8F3538DF0639DEB4
:105C7000063C3C3C9F06DE083CDE0A3CDE0C3CDE7B
:105C80000E3CCEE8B4EC02DD0AEC00DD0818CEE8EC
:105C9000B0DF04DE0618EC02ED0318EC00ED01DEC7
:105CA00004EC02DD0EEC00DD0CDE089C0C2607DCAB
:105CB0000A1A930E2710DF04DE0618EC02ED031813
:105CC000EC00ED01DE04DC0ADE0818CE001CBD5E2F
:105CD000AEDD0EDF0C18DE0618EC03DD0A18EC0151
:105CE000DD08DC0ADE0818CE0004BD5EC1DD0ADF77
