:10000000000000420002625A0000010000000002ED
:1000100000000064000000C80000000100000000B3
:1000200000000000000000000000000000000001CF
:1000300000005B8D000000000000000000000000D8
:10004000000000000000013C00001E8400000010C1
:10005000000000000000000100000000000000009F
:10006000000000000000000100000000000000008F
:100070000000000000000000000000000000000080
:100080000000000000000000000000000000000070
:100090000000000000000000000000000000000060
:1000A0000000000000000000000000000000000050
:1000B0000000000000000000000000000000000040
:1000C0000000000000000000000000000000000030
:1000D0000000000000000000000000000000000020
:1000E0000000000000000000000000000000000010
:1000F0000000000000000000000000000000000000
:1001000000000000000000000000000000000000EF
:1001100000000000000000000000000000000000DF
:1001200000000000000000000000000000000000CF
:1001300000000000000000000000000000000000BF
:1001400000000000000000000000000000000000AF
:10015000000000000000000000000000000000009F
:10016000000000000000000000000000000000008F
:10017000000000000000000000000000000000007F
:10018000000000000000000000000000000000006F
:10019000000000000000000000000000000000005F
:1001A000000000000000000000000000000000004F
:1001B000000000000000000000000000000000003F
:1001C000000000000000000000000000000000002F
:1001D000000000000000000000000000000000001F
:1001E000000000000000000000000000000000000F
:1001F00000000000000000000000000000000000FF
:1002000000000000000000000000000000000000EE
:1002100000000000000000000000000000000000DE
:1002200000000000000844316A086531CA32E7085E
:10023000A708CB08EC090D092E094F0970260726DF
:1002400040099109B20BAA0C030C30000000000415
:10025000008EAFFCBD0699CE001018CE000020081D
:10026000A60018A7000818088C001025F3CC00047D
:10027000270BCE401F6F000883000126F8BD06A59E
:10028000BD3F6320FB0357036DDE063C9F064FF620
:10029000031738DF0639DE063C9F064FF603183891
:1002A000DF0639DE063C9F064FF603170505C3013E
:1002B0001E8FEC00C30001ED0038DF0639DE063C7E
:1002C0009F06BD28364F38DF0639DE063C349F06D0
:1002D000DE06E701CE03143A6D00262418DE06F789
:1002E0000318C65C18A6013DC30200FD031D8DCD99
:1002F0005D270DF60318F703178DA8CC0001200326
:10030000CC00FF3138DF0639DE063C9F068DAECCCF
:10031000000138DF0639DE063C9F06F60317C101EF
:100320002305CC000220045C8DA04F38DF0639DEA7
:10033000063C9F06F603172605CC000220045A8DC2
:10034000894F38DF0639DE063C9F06C602CE03160B
:100350006D0027076F00CC000120085A095D2AF0C4
:10036000CC000238DF0639DE063C3C9F06C6021888
:10037000CE0316DE061AEF01DE06EE016D00261E24
:10038000F1031726098DA8C10127034F2021C601BB
:1003900018DE0618EE0118E700CC000120115ADE25
:1003A000061AEE0118091AEF015D26CCCC000238BE
:1003B00038DF0639DE063C9F06DE083CDE0A3C7D5F
:1003C000031B26107D031A2713F601FCC501260C1A
:1003D000C602200BCC00FF204B4F2048F60319D754
:1003E0000B7F0009CE03145FE7007C000908D609E3
:1003F000C10223F35FD709D10B240FBD04675D2B26
:10040000D37C0009D609D10B25F1F60317F1031CA3
:10041000240FBD0416C10126C0F60317F1031C25E5
:10042000F1CC000138DF0A38DF0838DF0639DE0694
:100430003C9F06DE083CDE0A3CDE0C3CDE0E3C182F
:10044000DF0418CEE66CCE00004F18DF0218DE0481
:1004500018CE001ABD3F174F5F8F840CC4008FDD8C
:100460000EDF0C18DF0418DE0218EC02DD0A18ECAF
:1004700000DD08DC0ADE088F84F3C4FF8FDF08DCB0
:100480000EDE0C9A0ADA0B8F9A08DA098F18ED0241
:10049000CDEF0018DE0438DF0E38DF0C38DF0A3805
:1004A000DF0838DF0639DE063C3C9F06DE06ED013C
:1004B000C603BD052E18CE0118183CDE06EE013C21
:1004C000CC01FCBD3EE67F0318CC0200FD031DBD40
:1004D000040818DE0618E608BD052E7F0317BD04C4
:1004E000B43838CC00013838DF0639DE063C9F06C8
:1004F000C1022305CC00FF2007F70319BD04B44F48
:1005000038DF0639DE063C9F06F603195C8DDC4FAA
:1005100038DF0639DE063C9F06BD321BBD04B44FF2
:1005200038DF0639DE063C9F068F8FC1018F230519
:10053000CC00FF200DC602DF00D001F7031CBD0474
:10054000B44F38DF0639DE063C349F067F01537F07
:1005500001527F01517F01505FF70318F70317CE57
:1005600001183C18CEB0B8183CCC01FCBD3EE6F6F4
:10057000031818DE0618E701C65C18A6013DC30281
:1005800000FD031DCE005C3C3736CC01A0BD3EE62D
:10059000383838383138DF0639DE063C9F060F4FD1
:1005A0005F38DF0639DE063C9F06DE083CDE0A3C8B
:1005B000DE0C3CDE0E3C7F000B7F000A7F00097FD3
:1005C000000807843F84BF067F40207F4022BD068D
:1005D00046F6B001C5012707CEE248C685E700CE42
:1005E000E20EC602E700F6B000C1FF27155D260B3C
:1005F0004F5FDD0ACC0200DD082007CEE249C6913C
:10060000E70018CEE208DC0ADE088A07CA008F8AF3
:1006100058CAB08FBD3F5C18ED02CDEF0018EC0258
:10062000FD032218EC00FD0320188FF60317188F26
:1006300018DF0A7F000A7F00097F0008DC0ADE0855
:1006400018CE0004BD3F17D30A8FD90999088FDD52
:100650000ADF08BD0389CE00004F18CE0008BD3F59
:1006600017D30A8FD90999088FDD0ADF08BD0389DE
:10067000CE00004F18CE000CBD3F17D30A8FD9090A
:1006800099088FDD0ADF08BD0389CE00004FDD0C1D
:100690007F000F7F000EDC0ADE08D30E8FD90D9984
:1006A0000C8FDD0ADF08BD0389CE00004F18CE0095
:1006B00015BD3F17D30A8FD90999088FDD0ADF08C6
:1006C000BD0389CE00004F18CE001CBD3F17D30AD2
:1006D0008FD90999088FDD0ADF08BD0389CE000094
:1006E0004F18CE001EBD3F17D30A8FD90999088F26
:1006F000DF08CEE66CED02DC08ED00C601BD052E7C
:100700000ECF20FCDE063CDE003CDE023CDE043C7C
:100710009F0638DF0438DF0238DF0038DF063BDEB3
:10072000063CDE003CDE023CDE043C9F06CEE219C5
:100730006F0007BA00800638DF0438DF0238DF00B8
:1007400038DF063BDE063C9F06CEE84C4F5FED02ED
:10075000CC0100ED00CEE2044F5FED02CC0100EDD4
:100760000038DF0639DE063C9F06CEE84C4F5FEDD1
:1007700002CC0400ED00CEE2044F5FED02CC040099
:10078000ED0038DF0639DE063C9F06CEE84CCC088B
:1007900000ED024F5FED00CEE204CC0800ED024F09
:1007A0005FED0038DF0639DE063C9F06CEE84C4F91
:1007B0005FED02CC2000ED00BD32DECEE2044F5FE3
:1007C000ED02CC2000ED0038DF0639DE063C9F0646
:1007D000CEE84C4F5FED02CC4000ED00CEE2044F7E
:1007E0005FED02CC4000ED0038DF0639DE063C9FAD
:1007F00006CEE84C4F5FED02CC8000ED00CEE20467
:100800004F5FED02CC8000ED0038DF0639DE063C9C
:100810009F06CEE84C4F5FED02CC0001ED00CEE22A
:10082000044F5FED02CC0001ED0038DF0639DE0633
:100830003C9F06CEE84C4F5FED02CC0002ED00CEAF
:10084000E2044F5FED02CC0002ED0038DF0639DE36
:10085000063C9F06CEE84C4F5FED02CC0004ED0055
:10086000CEE2044F5FED02CC0004ED0038DF063924
:10087000DE063C9F06CEE84C4F5FED02CC0008ED53
:1008800000CEE2044F5FED02CC0008ED0038DF0639
:1008900039DE063C9F06CEE84C4F5FED02CC0040AF
:1008A000ED00CEE2044F5FED02CC0040ED0038DFFA
:1008B0000639DE063C349F06CEE84C4F5FED02CC95
:1008C0000080ED00CEE244E600F70324271ACEE8CC
:1008D00047E700C601373418CE0000183C183CCC5E
:1008E0000083BD2DBF383838F6032418DE0618E71C
:1008F000014F1A83005223037E0B9205C33F6718F2
:100900008FCDEE006E00CEE246C602E700CEE204D6
:100910004F5FED02CC0080ED00BD10037E0B99F619
:100920004021CEE246E700CEE2044F5FED02CC006C
:1009300080ED007E0B99CEE246C6FFE700CEE204D2
:100940004F5FED02CC0080ED00BD0E357E0B99CEE1
:10095000E246C604E700CEE2044F5FED02CC008021
:10096000ED00BD0E517E0B99CEE246C605E700CEE6
:10097000E2044F5FED02CC0080ED00BD0E6D7E0BFA
:1009800099CEE246C606E700CEE2044F5FED02CC08
:100990000080ED00BD1414BD2607BD2607BD260747
:1009A000BD2607BD2607BD2607BD26077E0B99CEAF
:1009B000E246C609E700CEE2044F5FED02CC0080BC
:1009C000ED00BD0E947E0B99CEE208EC02FD0322F1
:1009D000EC00FD0320CCFFFFED02CCFF7F200BCE0F
:1009E000E208FC0322ED02FC0320ED00CEE245C646
:1009F000017E0B97BD0446200B18DE0618E601CBDE
:100A0000EDBD05EBCEE2457E0B977F031CBD04B424
:100A100020DA18DE0618E601CBBEBD062420E5F676
:100A2000B000C1FF27C65D2605BD31AF20BEBD3277
:100A30003B20B9BD061420CCBD041620C7BD042F31
:100A400020C24F5FFD011EFD011CFD0122FD0120A2
:100A5000FD0126FD0124FD012AFD0128208E7F03D2
:100A60001BC6023734CCB2E8200A7F031BC601370D
:100A700034CCB0B8BD05A6CEE245E700313120192F
:100A80007F031BBD37D47E0AEC7F031BBD37E27E9C
:100A90000AECCEE245C6FEE700CEE2044F5FED026F
:100AA000CC0080ED003138DF0639DE063C9F06DEE3
:100AB000083CDE0A3CCEE84CCC0100ED024F5FED75
:100AC00000CEE204CC0100ED024F5FED00F64020C5
:100AD000CEE246E7005CF74020C106261C18CEE2B5
:100AE0000818EC02DD0A18EC00DD08DC0ADE088AD2
:100AF00001CA0018ED02CDEF0038DF0A38DF0838F0
:100B0000DF0639DE063C9F06CEE84CCC0200ED0243
:100B10004F5FED00CEE204CC0200ED024F5FED002E
:100B2000F64022CEE246E7005CF7402238DF063985
:100B3000DE063C9F06CEE63FE600C5012750CEE824
:100B400001E6004F1A83000627232E081A830004AB
:100B50002710203A1A830008271E1A83000A272329
:100B6000202CCEE800C604E700C605201FCEE80012
:100B7000C606E700C6072014CEE800C608E700C690
:100B8000092009CEE800C60AE700C60BE700CEE25E
:100B900004CC0400ED024F5FED00CEE84CCC040025
:100BA000ED024F5FED0038DF0639DE063C9F06CED2
:100BB000E84CCC1000ED024F5FED00CEE204CC100B
:100BC00000ED024F5FED0038DF0639DE063CDE0047
:100BD0003CDE023CDE043C9F06DE083CDE0A3CDED6
:100BE0000C3CDE0E3CCEE208EC02DD0AEC00DD0837
:100BF000CEE204EC02DD0EEC00DD0CDC0ADE08BD0A
:100C00003F5C940ED40F8F940CD40D8FDD0EDF0C4F
:100C10004F5F8F8410C4008F8C00002604DD0027F6
:100C200003BD32E7CEE208EC02DD0AEC00DD08DCB1
:100C30000ADE08BD3F5C940ED40F8F940CD40D8F48
:100C4000DD0EDF0C4F5F8F8402C4008F8C00002606
:100C500004DD002703BD316ADE0C4F5F8F8408C4BA
:100C6000008F8C00002604DD002703BD31CADC0E96
:100C70008404C400CE00002604DD002703BD0C3030
:100C8000DC0E8401C400CE00002604DD002703BD75
:100C90000BAADC0E8402C400CE00002604DD00276F
:100CA00003BD0C03DE0C4F5F8F8400C4108F8C00DB
:100CB000002604DD002703BD2607DE0C4F5F8F846E
:100CC00000C4208F8C00002604DD002703BD2640D1
:100CD000DE0C4F5F8F8440C4008F8C00002604DD43
:100CE000002703BD08CBDE0C4F5F8F8404C4008F48
:100CF0008C00002604DD002703BD0865DE0C4F5F75
:100D00008F8400C4808F8C00002604DD002703BD83
:100D100009B2CEE244E6002703BD09B238DF0E383F
:100D2000DF0C38DF0A38DF0838DF0438DF0238DF4D
:100D30000038DF063BDE063C9F06CEE234CC006482
:100D4000ED024F5FED00CEE23CC602E70038DF0661
:100D500039DE063C9F06CEE230CC000AED024F5F42
:100D6000ED00CEE23CC601E70038DF0639DE063C86
:100D70009F06CC001037364F5F3736CC0180BD2F31
:100D8000F4CC0180BD309CCEE246C6AAE7003838DC
:100D900038DF0639DE063C3C9F06DE083CDE0A3CB6
:100DA000DE0C3CDE0E3CCC0212BD309CDD0EDF0CB6
:100DB000C41F18DE0618E701DC0E8400C460CE00F4
:100DC0000018CE0005BD3F3E18DE0618E702DC0E17
:100DD000DE0C18CE0007BD3F3E8C000026061A83AD
:100DE000000127358C000026061A83000125188C87
:100DF000000026061A83000227348C000026581AA9
:100E0000830003273B2050DE064FE602050505055B
:100E10000505EA01CEE248203A18DE064F18E60240
:100E200005050505050518EA01CEE2492025DE067F
:100E30004FE602050505050505EA01CEE24A201345
:100E400018DE064F18E60205050505050518EA0136
:100E5000CEE24BCA20E700CEE8484F5FED02CC0857
:100E600000ED0038DF0E38DF0C38DF0A38DF0838D5
:100E700038DF0639DE063C9F06DE083CDE0A3C18F9
:100E80008FDE06EC07DD0AEC05DD08CEE2221AEF64
:100E900000CEE228DC0AED02DC08ED00CEE22118EB
:100EA000DE0618E60AE700CEE210C601E700CEE251
:100EB00020C603E700CEE210E600C50127F7C60111
:100EC000E70038DF0A38DF0838DF0639DE063C9FE6
:100ED00006CEE222ED00CEE221C60FE700CEE21000
:100EE000C601E700CEE220E700CEE210E600C50131
:100EF00027F7C601E700CEE224EC02EE001838180E
:100F0000DF0639DE063C3C9F06DE083CDE0A3CDE9E
:100F10000C3CDE0E3CCC0001DD0E4F5FDD0CCE0242
:100F20000818DE06CDEF01DC0E05DE0C8F59498F67
:100F3000C30001240108DD0EDF0CC60F373418DEB4
:100F40000E183C18DE0C183CDE06EC01BD0F7438A0
:100F50003838DE061AEE0118081AEF01188C021351
:100F600023C57F000F7F000E7F000D7F000CCE0297
:100F70000818DE06CDEF0118DE0618EC01BD0FCC17
:100F8000DD0ADF08DC0E05DE0C8F59498FC3000136
:100F9000240108DD0EDF0CDE089C0C2607DC0A1A93
:100FA000930E2707CEE246C6FFE70018DE06CDEE19
:100FB0000108CDEF018C021323BDCEE246C6AAE79D
:100FC0000038DF0E38DF0C38DF0A38DF083838DF4A
:100FD0000639DE063C9F06CC0183BD309C8400C4EC
:100FE00002CE000018CE0001BD3F2A8C000026E78B
:100FF0001A83000126E138DF0639DE063C9F06CC65
:10100000000137364F5F373618CE0000183C183CC9
:10101000CC0180BD3027CC000137364F5F37361802
:10102000CE0018183C18CE0000183CCC0184BD300E
:1010300027308FC300108F3538DF0639DE063C9F1E
:1010400006DE083CDE0A3CDD00270B4F5FDD0ACCE4
:101050000080DD08200C7F000B7F000A7F00097FE5
:10106000000818CE0000183C18CE0080183CDC0A9E
:101070003736DC083736CC0181BD30273838383870
:1010800038DF0A38DF0838DF0639DE063C9F06DE27
:10109000083CDE0A3CDD00270B4F5FDD0ACC010077
:1010A000DD08200C7F000B7F000A7F00097F00080D
:1010B00018CE0000183C18CE0100183CDC0A373668
:1010C000DC083736CC0181BD30273838383838DF76
:1010D0000A38DF0838DF063918DE06183C9F068F0D
:1010E0008403C4FF8F18CEFFFF183C18CE03FF18EF
:1010F0003C37363CCC0182BD30274F5F3736CC02BF
:1011000000373618CE0000183C18CE0200183CCC30
:101110000181BD3027BD10D24F5F3736CC0200377A
:101120003618CEFFFF183C18CEFDFF183CCC0181CD
:10113000BD3027308FC300188F3538DF0639DE0603
:101140003C9F06DE083CDE0A3CDD00270BCC000499
:10115000DD0A4F5FDD08200C7F000B7F000A7F0057
:10116000097F000818CE0004183C18CE0000183C77
:10117000DC0A3736DC083736CC0180BD3027CC009E
:1011800001BD113CBD10D24F5FBD113C383838381D
:1011900038DF0A38DF0838DF063918DE06183C9FCA
:1011A000068401C4FFCE000018CE01FF183C18CE03
:1011B0000000183C37363CCC0181BD30274F5F37EB
:1011C00036CC0400373618CE0000183C18CE040088
:1011D000183CCC0181BD3027BD10D24F5F3736CCD3
:1011E0000400373618CE0000183C183CCC0181BDF5
:1011F0003027308FC300188F3538DF063918DE06E8
:10120000183C9F0618DE08183C18DE0A183C18DE49
:101210000C183C18DE0E183CDD0E18DE0618EC0724
:10122000DD0A18EC05DD08DC0E18CE0004BD3F1702
:101230008403C4F0CE000018CE03F0183C18CE0092
:1012400000183C37363CCC0180BD3027DC0ADE0874
:101250008F8403C4FF8F18CEFFFF183C18CE03FF06
:10126000183C37363CCC0182BD3027308FC300108C
:101270008F3538DF0E38DF0C38DF0A38DF0838DF0B
:10128000063918DE06183C9F0618DE08183C18DEE2
:101290000A183C8C00002604DD00270BCC0008DD7A
:1012A0000A4F5FDD08200C7F000B7F000A7F0009DA
:1012B0007F000818CE0008183C18CE0000183CDC4F
:1012C0000A3736DC083736CC0180BD302718CE000F
:1012D00000183C18CE0080183C4F5F3736CC008099
:1012E0003736CC0181BD3027BD10D218CE00001892
:1012F0003C18CE0080183C4F5F37363736CC018122
:10130000BD3027308FC300188F3538DF0A38DF082B
:1013100038DF0639DE063C9F06DE083CDE0A3CBDAF
:1013200010FA4F5FBD123ECC0001CE0000BD129AF4
:10133000C6FF18CEE24618E700CC0002CE0000BD82
:10134000129AC6FE18CEE24618E700CC0004CE0082
:1013500000BD129AC6FD18CEE24618E700CC000880
:10136000CE0000BD129AC6FC18CEE24618E700CCAB
:101370000040CE0000BD129AC6FB18CEE24618E728
:1013800000CC0080CE0000BD129AC6FA18CEE2460C
:1013900018E7007F000B7F000A7F00097F0008CC60
:1013A0000001CE0000BD129ACC0001CE0000BD139A
:1013B00082DE0A3C3CCCC0003736CC00053736CC48
:1013C0000001BD12FDCC0001BD118ABD10D24F5FDE
:1013D000BD118ADC0ADE08BD1382CC0002CE0000FB
:1013E000BD129AC6F818CEE24618E700CC0001CE2E
:1013F0000000BD129ACC0001CE0000BD1382CC00CB
:1014000001BD118ABD10D24F5FBD118ABD10D2DC63
:101410000ADE08BD1382BD10D2CC0002CE0000BD92
:10142000129ACC0001CE0000BD129ACE00023CCE32
:1014300000003CDC0A37363736CC0184BD3027BD8E
:1014400010D2CC0002CE0000BD129ACC0001BD1219
:101450003E18CEF000183C18CE000F183CCE3000DD
:101460003CCE00043CCC0180BD3027CC0001BD1136
:101470003CBD10D24F5FBD113CC6F618CEE24618F7
:10148000E700CEF0003CCE000F3CCC50003736CC0D
:1014900000023736CC0180BD302730C6203A35CC2B
:1014A0000001BD113CBD10D24F5FBD113CC6F51807
:1014B000CEE24618E70038DF0A38DF0838DF0639A1
:1014C000DE063C9F06CEE60FE600C40227F738DFB3
:1014D0000639DE063C9F06C601CEE604E7008DE035
:1014E000CEE6046F0038DF0639DE063C9F06CEE606
:1014F00007E700C604CEE604E7008DC4CEE6046F1D
:101500000038DF0639DE063C9F064F5F3736CC00D9
:1015100080373618CE0000183C18CE0080183CCC1E
:101520000181BD30278D994F5F3736CC008037362B
:1015300018CE0000183C183CCC0181BD3027308FFC
:10154000C300108F3538DF0639DE063C3C9F06CEDF
:10155000E603585858C40818DE0618E702E600C427
:10156000F718E70118E60218EA01E7008D97383806
:10157000DF0639DE063C3C9F06CEE6131C0001CE9A
:10158000E603585858C40818DE0618E702E600C4F7
:10159000F718E70118E60218EA01E700CEE6061C94
:1015A0000008FC014EFE014CBD37F018CEE60F18C6
:1015B000E600C5012609CEE206E600C50227EC18C2
:1015C000E600C50127035F2002C601CEE6061D0026
:1015D00008CEE6131D00014F3838DF0639DE063C21
:1015E0009F06CEE6031C0001CC0006CE0000BD38ED
:1015F00018CEE6031D000138DF0639DE063C3C3C10
:101600003C9F06DE083CDE0A3CDE0C3CDE0E3CBDA8
:101610000396CE00004F18CE0015BD3F174F5F8FC9
:101620008403C4E08FDD0EDF0C18CEE66C18EC02EC
:10163000DD0A18EC00DD08DC0ADE088F84FCC41F1C
:101640008FDF08DC0EDE0C9A0ADA0B8F9A08DA09B3
:101650008F18ED02CDEF00C601BD15E918DE0618A2
:101660006F01CEE603E600C503261CFC0166FE0101
:10167000642604DD00270BC60FBD1673DE06E701E6
:101680002005C60FBD164918DE06186D0127037E1A
:10169000183BCEF3F73CCE000F3CFE031DEC123797
:1016A00036EE103CCC0180BD302718CEF000183C3F
:1016B00018CE003F183CFE031DEC163736EE143CE6
:1016C000CC0181BD302718FE031DCEE60818EC1AA8
:1016D000ED0218EC18ED00CEE79018EC1EED0218A4
:1016E000EC1CED00CEE79418EC22ED0218EC20ED96
:1016F00000BD15D2CEE603E60018DE0618E7068424
:1017000000C40318ED02308FC300108F35DD0026B2
:1017100024FC0166FE01642604DD00270F18DE06A6
:1017200018E603BD1673DE06E701200918DE061869
:10173000E603BD1649DE066D0127044F5F2046FE15
:10174000031DE617BD15E9BD0396C41F18DE061874
:10175000E70518CEE66D18E600C4E018DE0618E7C7
:101760000418E60518EA04CEE66DE700FC031DC385
:10177000001018CE0018183C3736CC01B0BD3EE63C
:10178000CC0001383838DF0E38DF0C38DF0A38DF9C
:101790000838383838DF0639DE063C9F06CEE604C6
:1017A0001C0002BD15C0FC010EFE010CBD37F0CEC1
:1017B000E6041D0002CEE206E600C50227F7C602D7
:1017C000E700CEE20A1C000238DF0639DE063C30B4
:1017D0008FC3FFDA8F359F06DE083CDE0A3CDE0C45
:1017E0003CDE0E3CBD0396CE00004F18CE0015BD6A
:1017F0003F174F5F8F8403C4E08FDD0EDF0C18CEE0
:10180000E66C18EC02DD0A18EC00DD08DC0ADE08E4
:101810008F84FCC41F8FDF08DC0EDE0C9A0ADA0B03
:101820008F9A08DA098F18ED02CDEF00CEE7931DED
:101830000001CEE60818DE06EC0218ED0FEC0018E9
:10184000ED0DFE031DCDEF1FEC1ADD0AEC18DD08CF
:10185000DC0ADE088F8403C4FF8F18ED0BCDEF097F
:10186000CDEE0D4F5F8F8410C4008F18ED13CDEFB8
:101870001118EC0FCDEE0D8F8403C4FF8FCDEF0D4B
:1018800018ED03CDEF01DE0618EC03DF02CDEE010B
:1018900018CE0003BD3F3E18DF0418DE0218ED032A
:1018A000CDEF01DC0A18ED0718EC0918ED05DC0A8C
:1018B000CDEE0518DE0418CE0005BD3F3E18DF044E
:1018C00018DE0218ED07CDEF0518EE1F18EC12DD3B
:1018D0000A84F0C400CE000018CE000CBD3F3ED7F5
:1018E0000DDC0A8400C404CE000018CE0002BD3F07
:1018F0003E18DF0418DE0218ED1ACDEF1818E717AE
:10190000CEE600EC02DD0AEC00DD08CEE603E600E0
:101910008400C4044756475618ED1C18E71618EE05
:101920001F18E6118400C40FDB0D8900CE00004DA6
:101930002A0109DD0EDF0CDC0A84F0C400CE0000B1
:1019400018CE000CBD3F3E18DF0418DE0218ED2350
:10195000CDEF21CC000F9408D409CE0000DD0ADFC2
:101960000818EC23CDEE2118DE04D30A8FD909998B
:10197000088FDD0ADF08DC0C1A93082522220818DC
:10198000DE0E189C0A2318DD04DC06DD02DC043CB4
:10199000DE026D1B3827083CDE026D1D38260ADE8C
:1019A000066D17273D6D16263918DE0618E617183E
:1019B000E1162705C601BD15E9CCF0043736CC0089
:1019C0000F3736FE031DEC123736EE103CCC01808B
:1019D000BD3027BD1605FE031DE617BD15E93838D5
:1019E000383818DE0618EC0DCDA30923037E1C271A
:1019F000250B18EC0FCDA30B25037E1C2718DE0644
:101A000018EC0705DD0A18EC055949DD08DC0ADE8B
:101A10000818A30B8F18E20A18A2098FBD3F51DDE9
:101A20000ADF0818EC0FCDEE0D18E3038F18E9025A
:101A300018A9018F18ED0FCDEF0DDC08CDA30D22F5
:101A4000092555DC0ACDA30F234E18DE0618EC0F2E
:101A5000CDEE0D18AA1318EA148F18AA1118EA125D
:101A60008F18CEE60818ED02CDEF00BD189818DEED
:101A70000618EC0FCDEE0D18E3038F18E90218A934
:101A8000018F18ED0FCDEF0DDC08CDA30D22BB2586
:101A900007DC0ACDA30F22B218DE0618EC0FCDEE3C
:101AA0000D18A3038F18E20218A2018F18E3078F05
:101AB00018E90618A9058F18ED0FCDEF0D8FCDA3EE
:101AC00009251023037E1D3C18EC0FCDA30B250325
:101AD0007E1D3C18DE0618EC0FCDEE0D18AA13186B
:101AE000EA148F18AA1118EA128F18CEE60818ED1A
:101AF00002CDEF00BD189818DE0618EC0FCDEE0DE4
:101B000018E3078F18E90618A9058F18ED0FCDEF18
:101B10000D8FCDA30925BC23037E1D3C18EC0FCDF2
:101B2000A30B25AF7E1D3C18DE0618EC0705CDEE95
:101B3000058F59498F18E30B8F18E90A18A9098FE7
:101B4000DD0ADF0818EC0FCDEE0D18A3038F18E2A5
:101B50000218A2018F18ED0FCDEF0DDC08CDA30DFB
:101B600025092255DC0ACDA30F244E18DE0618ECF9
:101B70000FCDEE0D18AA1318EA148F18AA1118EA3F
:101B8000128F18CEE60818ED02CDEF00BD18981898
:101B9000DE0618EC0FCDEE0D18A3038F18E2021825
:101BA000A2018F18ED0FCDEF0DDC08CDA30D25BBE5
:101BB0002207DC0ACDA30F25B218DE0618EC0FCDE4
:101BC000EE0D18E3038F18E90218A9018F18A30777
:101BD0008F18E20618A2058F18ED0FCDEF0D8FCDEF
:101BE000A309220A255618EC0FCDA30B234E18DEAD
:101BF0000618EC0FCDEE0D18AA1318EA148F18AAC8
:101C00001118EA128F18CEE60818ED02CDEF00BDCC
:101C1000189818DE0618EC0FCDEE0D18A3078F18D4
:101C2000E20618A2058F18ED0FCDEF0D8FCDA30999
:101C300022BC250818EC0FCDA30B22B218FE031D01
:101C4000CEE60818EC1AED0218EC18ED00BD189855
:101C5000CEE603E60018DE0618E7268400C4041862
:101C6000ED25040418E71618E61718E1162705C62F
:101C700001BD15E918CEF004183C18CE000F183C31
:101C8000FE031DEC123736EE103CCC0180BD302730
:101C9000BD1605FE031DE617BD15E9CEE79018FE3B
:101CA000031D18EC1EDD0A18EC1CDD08DC0ADF023F
:101CB000DE0884FFC4FE18DF0418DE0218ED02CD32
:101CC000EF00CEE79418DE0418EC22ED0218EC20A9
:101CD000ED0018EC1EDE02ED0218EC1CED00BD1844
:101CE00098BD0396C41F18DE0618E72518CEE66DCA
:101CF00018E600C4E018DE0618E71E18E62518EA04
:101D00001ECEE66DE700FC031DC30010CE00183C9C
:101D10003736CC01B0BD3EE6308FC3000C8F35386E
:101D2000DF0E38DF0C38DF0A38DF08308FC30026BB
:101D30008F3538DF0639DE063C349F06DE083CDE90
:101D40000A3CDE066F01FC0166FE0164260FDD0021
:101D500027132009BD16DDC601DE06E701BD16FB0F
:101D60005D27F12003BD16FBDE066D01271EFC0179
:101D700062DD0AFC0160DD08DC0ADE08C300012424
:101D80000108DF08FD0162DC08FD016038DF0A3868
:101D9000DF083138DF0639DE063C3C349F06DE08BA
:101DA0003CDE0A3CDE0C3CDE0E3CBD039658585827
:101DB00058DE06E70318CEE66E18E600C40FE7010A
:101DC000E603EA0118E70018CEE64818DF0418FE1B
:101DD000031D18EC2ADD0A18EC28DD08DC0ADE08F1
:101DE00084FFC4008F8400C4FF8FDD0EDF0C18DF7A
:101DF0000218DE0418EC02DD0A18EC00DD08DC0A2B
:101E0000DE088400C4FF8F84FFC4008FDD0ADF0872
:101E1000DC0EDE0C9A0ADA0B8F9A08DA098F18EDBD
:101E200002CDEF00DE024FE62CCE000018CEE64CCD
:101E300018E70018CEE61C181D0002C601BD23CA13
:101E4000CEE627E600C5032605C60FBD2341CCF329
:101E5000F73736CC000F3736FE031DEC323736EE3F
:101E6000303CCC0189BD302718FE031DCEE62C186E
:101E7000EC3AED0218EC38ED00CEE63418EC3EED0D
:101E80000218EC3CED00CEE63818EC42ED0218ECFE
:101E900040ED00BD23AC18CEE62718E6008400C450
:101EA0000338383838DD002603BD2341FE031DE624
:101EB00037BD23CACEE61C1C0002BD0396C40F1812
:101EC000DE0618E70318CEE66E18E600C4F018DE4A
:101ED0000618E70218E60318EA02CEE66EE700FCF1
:101EE000031DC3002818CE0024183C3736CC01C887
:101EF000BD3EE6383838DF0E38DF0C38DF0A38DF11
:101F000008383138DF0639DE063C3C3C9F06DE08E7
:101F10003CDE0A3CDE0C3CDE0E3CDE066F01BD03FF
:101F2000965858585818DE0618E70418CEE66E186A
:101F3000E600C40F18DE0618E70218E60418EA02E5
:101F4000CEE66EE700C601BD23CA18CEE61C181DFA
:101F5000000218CEE64818DF0418FE031D18EC2A0C
:101F6000DD0A18EC28DD08DC0ADE0884FFC4008FD7
:101F70008400C4FF8FDD0EDF0C18DF0218DE0418AA
:101F8000EC02DD0A18EC00DD08DC0ADE088400C47F
:101F9000FF8F84FFC4008FDD0ADF08DC0EDE0C9AA1
:101FA0000ADA0B8F9A08DA098F18ED02CDEF00DEFE
:101FB000024FE62CCE000018CEE64C18E70018CEF3
:101FC000E61F181C0001CEE627E600C503260BC657
:101FD0000FBD23ED18DE0618E701CEE61F1D000138
:101FE00018DE06186D012674CEF3F73CCE000F3CC8
:101FF000FE031DEC323736EE303CCC0189BD302774
:1020000018FE031DCEE62C18EC3AED0218EC38ED64
:1020100000CEE63418EC3EED0218EC3CED00CEE6C6
:102020003818EC42ED0218EC40ED00BD23AC18CEA0
:10203000E61F181C0001CEE627E6008400C4033822
:10204000383838DD002607BD23EDDE06E70118CE5F
:10205000E61F181D0001DE066D0127044F5F2042B8
:10206000FE031DE637BD23CA18CEE61C181C00026D
:10207000BD0396C40FDE06E70418CEE66E18E60030
:10208000C4F0E703E604EA0318E700FC031DC300FD
:1020900028CE00243C3736CC01C8BD3EE6CC00013A
:1020A000383838DF0E38DF0C38DF0A38DF083838C8
:1020B00038DF0639DE063C349F06DE083CDE0A3C8B
:1020C000DE066F01C60F373418CE000F183C18CE4D
:1020D0000000183CCC096FBD2DBFC601373418CEA7
:1020E0000004183C18CE0000183CCC0A9ABD2DBF45
:1020F000308FC3000C8F35CEE211E600C51027F7F4
:10210000C610E700FC0156FE01542604DD00271B23
:1021100018DE06186F01200BBD244BC60118DE0621
:1021200018E701BD20075D27EF2003BD1E97DE06DF
:102130006D01271EFC0152DD0AFC0150DD08DC0A9E
:10214000DE08C30001240108DF08FD0152DC08FDA0
:102150000150CEE848FC0152ED02FC0150ED00BDFB
:102160002469C6013734FE031D4FE601CE00003757
:10217000363CCC0A9ABD2DBFCC0A9ABD2F55CC0057
:1021800001CE0000BD3818C604373418CE00301810
:102190003C18CE0000183CCE00013CCE00003CCCE8
:1021A0000A44BD30B3C604373418CE0030183C188A
:1021B000CE0000183CCE00013CCE00003CCC0A45CD
:1021C000BD30B3C604373418CE0030183C18CE00EA
:1021D00000183CCE00003C3CCC0A44BD30B330C6B5
:1021E000243A35C604373418CE0030183C18CE00D7
:1021F00000183CCE00003C3CCC0A45BD30B3C601C3
:10220000373418CE000A183C18CE0000183CCC0A0F
:102210009ABD2DBFCEE211C610E7001830C61018C7
:102220003A1835E600C510270DCEE211C610E700BA
:10223000E600C51026F338DF0A38DF083138DF063C
:1022400039DE063C3C9F06CEE627585858C408188D
:10225000DE0618E702E600C4F718E70118E60218E0
:10226000EA01E70018CE0000183C18CE0080183CA8
:102270004F5F3736CC00803736CC018ABD302738E7
:10228000383838CEE633E600C50227F74F5F3736D9
:10229000CC0080373618CE0000183C183CCC018AA0
:1022A000BD3027383838383838DF0639DE063C9FED
:1022B00006CEE628C601E700CEE633E600C50227D3
:1022C000F7CEE6286F0038DF0639DE063C9F06CEE3
:1022D000E62BE700CEE628C604E700CEE633E600AC
:1022E000C50227F7CEE6286F0038DF0639DE063C48
:1022F0003C9F06CEE627585858C40818DE0618E753
:1023000002E600C4F718E70118E60218EA01E70040
:10231000CEE62A1C0008FC014EFE014CBD37F01829
:10232000CEE63318E600C5012609CEE206E600C572
:102330000227EC18E600C50127035F2002C601CE84
:10234000E62A1D00084F3838DF0639DE063C9F06B6
:10235000CEE6271C0001CC0006CE0000BD3818CE0A
:10236000E6271D000138DF0639DE063C9F0638DF10
:102370000639DE063C349F06DE083CDE0A3CDE06FB
:102380006F01FC0156FE0154260EDD0027122008C5
:102390008DB9C601DE06E701BD20075D27F22003E7
:1023A000BD1E97DE066D01271EFC0152DD0AFC01F1
:1023B00050DD08DC0ADE08C30001240108DF08FD47
:1023C0000152DC08FD0150CEE848FC0152ED02FC50
:1023D0000150ED0038DF0A38DF083138DF0639DE1A
:1023E000063C9F06C60F373418CE000F183C18CE97
:1023F0000000183CCC096FBD2DBFC601373418CE84
:102400000004183C18CE0000183CCC0A9ABD2DBF21
:10241000308FC3000C8F35CEE211E600C51027F7D0
:10242000C610E700BD1E97BD2469C6013734FE0300
:102430001D4FE601CE000037363CCC0A9ABD2DBFB9
:10244000CC0A9ABD2F55CC0001CE0000BD3818BD76
:1024500026CCC604373418CE0030183C18CE000005
:10246000183CCE00013CCE00003CCC0A44BD30B349
:10247000C604373418CE0030183C18CE0000183C83
:10248000CE00013CCE00003CCC0A45BD30B3C604B2
:10249000373418CE0030183C18CE0000183CCE005F
:1024A000003C3CCC0A44BD30B330C6243A35C604A7
:1024B000373418CE0030183C18CE0000183CCE003F
:1024C000003C3CCC0A45BD30B3C601373418CE00C1
:1024D0000A183C18CE0000183CCC0A9ABD2DBFC685
:1024E0001018CEE21118E70030C6103A35CEE211CE
:1024F000E600C510270DCEE211C610E700E600C5C4
:102500001026F338DF0639DE063C9F06CEE84C4F36
:102510005FED02CC0010ED00CEE63FE600C50127DE
:102520000FF6031B260AF60317C1012203BD04168A
:10253000CEE2044F5FED02CC0030ED0038DF06390B
:10254000DE063C9F06CEE84C4F5FED02CC0020ED4E
:1025500000CEE63FE600C5012710F6031B260BF66A
:102560000317F1031C2303BD042FCEE2044F5FEDDC
:1025700002CC0030ED0038DF0639DE063C9F06CE87
:10258000E648E6004F5F270CC6083734CC09FABD91
:102590002EC83131BD2B85BD3D0FBD21B4CEE20A21
:1025A0001C0002C6093734CC09FABD2EC8CEE2069B
:1025B000C602E700CEE20A1C0002FC012EFE012C3E
:1025C000BD38183131CC000138DF0639DE063C9FBA
:1025D00006DE083CDE0A3CDE0C3CDE0E3CCEE64766
:1025E000E600C50127037E279EFE031DEC26DD0EB7
:1025F000EC24DD0CFC01C6DD0AFC01C4DD0818DE9C
:102600000C189C08260ADC0E1A930A26037E279EC5
:1026100018DE0C189C0822502507DC0E1A930A2499
:102620004718CE000F183C18CE0000183CCC096F9C
:10263000BD2F01FE031DE6003734CC09FABD2EC8BC
:10264000383838F601A2C101261EFE031DE6022617
:1026500017CEE7FFC608E700CEE211E600C5042763
:10266000F7C604E7007F01A2BD18CCCEE20A1C0029
:102670000218CEE206C60218E7001C0002F601A20C
:10268000261CFE031DE602C1012613CEE7FFC60984
:10269000E700CEE211C604E700C601F701A2C60FAB
:1026A000373418CE000F183C18CE0000183CCC0967
:1026B0006FBD2DBFC6013734FE031D4FE600CE00AF
:1026C0000037363CCC09FABD2DBF30C60C3A35CCAC
:1026D000000138DF0E38DF0C38DF0A38DF0838DF5A
:1026E0000639DE063C9F06DE083C188FFE031DE619
:1026F0004EF101EE2314E60318E703FE031DE60482
:1027000018E704FE031DE605200FF601A318E703F2
:10271000F601A418E704F601A518E705FE031DF667
:10272000B002D709E64ED1092402D60918E74E387F
:10273000DF0838DF0639DE063C308FC3FF998F355E
:102740009F06DE083CDE0A3CDE0C3CDE0E3CCEE69C
:102750006FF60318C40F18DE0618E765E600C4F02C
:1027600018E75F18E66518EA5FE70018FE031D1812
:10277000EC26DD0E18EC24DD0CFC01C6DD0AFC01A4
:10278000C4DD08DE0C9C082629DC0E1A930A2622DA
:10279000FC01E6DD0EFC01E4DD0C18EC46DD0A1858
:1027A000EC44DD0818DE0C189C082606DE0E9C0A98
:1027B0002728DC06C30001BD27E2FE031D18DE0644
:1027C000CDEF5DDC06C30001FD031DC601BD393739
:1027D00018DE0618EE5D18FF031DCEE64BE6001866
:1027E000DE0618E7678400C42018ED602634FE0377
:1027F0001DFC01E6DD0EFC01E4DD0CEC46DD0AEC1F
:1028000044DD0818DE0C189C0825172206DE0E9CF5
:102810000A230FBD267A5D260918DE0618EC607EB5
:102820002B23CEE647E600C50127037E29F4FE03ED
:102830001DEC26DD0EEC24DD0CFC01C6DD0AFC01DE
:10284000C4DD0818DE0C189C082609DE0E9C0A263A
:10285000037E29F4DC0C1A93082260250818DE0E8A
:10286000189C0A2456C60F373418CE000F183C188F
:10287000CE0000183CCC096FBD2DBFC6013734FE19
:10288000031D4FE600CE000037363CCC09FABD2DC3
:10289000BF30C60C3A35F601A2C101261EFE031D4B
:1028A000E6022617CEE7FFC608E700CEE211E600F3
:1028B000C50427F7C604E7007F01A2BD2B85BD181C
:1028C000CCCEE20A1C000218CEE206C60218E700CF
:1028D0001C0002F601A2261CFE031DE602C1012611
:1028E00013CEE7FFC609E700CEE211C604E700C633
:1028F00001F701A2C60F373418CE000F183C18CECE
:102900000000183CCC096FBD2DBFC6013734FE0353
:102910001D4FE600CE000037363CCC09FABD2DBF76
:10292000FC012EFE012CBD3818CEE64BE60018DE69
:102930000618E7678400C42018ED62308FC3000CCE
:102940008F35DD002634FE031DFC01E6DD0EFC01A3
:10295000E4DD0CEC46DD0AEC44DD0818DE0C189CC6
:102960000822172506DE0E9C0A240FBD267A5D2656
:102970000918DE0618EC627E2B23C601BD39375DCF
:1029800026054F5F7E2B23CEE66FF6031858585866
:102990005818DE0618E766E600C40F18E76418E664
:1029A0006618EA64E700CEE6471C001018FE031D17
:1029B000FC01AEDD0EFC01ACDD0C18EC0EDD0A18DE
:1029C000EC0CDD08DE0C9C082607DC0E1A930A27A7
:1029D00017CEE6D0DC0AED02DC08ED0018EC0EFDA7
:1029E00001AE18EC0CFD01ACCEE6D418EC0AED02F9
:1029F00018EC08ED00CEE6471D0010CEE6EEE6002E
:102A0000BD0396CEE7F3E700BD0389CEE7F2E7000A
:102A1000CEE7EFC6F9E700CEE7EEC601E7006F00AC
:102A2000CC000138DF0E38DF0C38DF0A38DF083021
:102A30008FC300678F3538DF0639DE063C3C3C9F8C
:102A400006F6B003C5082735CEE208E60018DE0614
:102A500018E701CEE204E60018E70418E60153186F
:102A6000E70218E60418E40218E704C508270ECEAA
:102A7000E24CE600C5012705CC000120024F5F387B
:102A80003838DF0639DE063C9F067D031F2627CE39
:102A9000E210C608E700FC0106FE0104BD37F0CED7
:102AA000E210E600C508260ECEE206E600C50226C4
:102AB000058D875D27E938DF0639DE063C9F06CEA7
:102AC000E648E6004F5F2719C601373418CE0008E4
:102AD000183C18CE0000183CCC09FABD2DBF383880
:102AE000388DA2BD3D0FBD24DFCEE20A1C0002C618
:102AF00001373418CE0009183C18CE0000183CCC21
:102B000009FABD2DBFCEE206C602E70018CEE20AE2
:102B1000181C0002FC012EFE012CBD381838383874
:102B2000CC000138DF0639DE063C3C3C3C3C349F9F
:102B300006DE083CDE0A3CDE0C3CDE0E3CCEE66FD8
:102B4000F60318C40F18DE0618E707E600C4F018ED
:102B5000E70118E60718EA01E700FE031DE64EF15B
:102B600001EE2305C601BD3937CEE64BE60018DE7F
:102B70000618E7098400C42018ED022632FE031D62
:102B8000FC01E6DD0EFC01E4DD0CEC46DD0AEC4464
:102B9000DD0818DE0C189C082606DE0E9C0A270F9E
:102BA000BD2BBA5D260918DE0618EC027E2DAACED2
:102BB000E647E60018DE0618E7098400C40118EDB0
:102BC00004263EFE031DEC26DD0EEC24DD0CFC018C
:102BD000C6DD0AFC01C4DD0818DE0C189C082606B8
:102BE000DE0E9C0A271BBD2B85FC0146FE0144BD61
:102BF0003818BD26CC5D260918DE0618EC047E2D9B
:102C0000AAC601BD39375D26054F5F7E2DAACEE6E7
:102C10006FF603185858585818DE0618E708E600EB
:102C2000C40F18E70618E60818EA06E700CEE647DC
:102C30001C001018FE031DFC01AEDD0EFC01ACDD16
:102C40000C18EC0EDD0A18EC0CDD08DE0C9C0826D6
:102C500007DC0E1A930A2717CEE6D0DC0AED02DC59
:102C600008ED0018EC0EFD01AE18EC0CFD01ACCE29
:102C7000E6D418EC0AED0218EC08ED00CEE6471D8C
:102C80000010CEE6EEE600BD0396CEE7F3E700BD0A
:102C90000389CEE7F2E700CEE7EFC6F9E700CEE71B
:102CA000EEC601E7006F00CC000138DF0E38DF0C04
:102CB00038DF0A38DF08383838383138DF0639DE8F
:102CC000063C9F06DE083CDE0A3C188FDE06EC0759
:102CD000DD0AEC05DD08CEE2221AEF00CEE228DCA8
:102CE0000AED02DC08ED00CEE22118DE0618E60A45
:102CF000E700CEE210C601E700CEE220C603E700FF
:102D0000CEE210E600C50127F7C601E70038DF0A6A
:102D100038DF0838DF0639DE063C9F06CEE222EDBA
:102D200000CEE22818DE0618E606E700CEE221C64D
:102D300008E700CEE210C601E700CEE220C603E7B6
:102D400000CEE210E600C50127F7C601E70038DF34
:102D50000639DE063C9F06CEE222ED00CEE22918BF
:102D6000DE0618E606E700CEE221C604E700CEE262
:102D700010C601E700CEE220C603E700CEE210E66F
:102D800000C50127F7C601E70038DF0639DE063C3B
:102D90009F06CEE222ED00CEE22A18DE0618E606F5
:102DA000E700CEE221C602E700CEE210C601E7004E
:102DB000CEE220C603E700CEE210E600C50127F709
:102DC000C601E70038DF0639DE063C9F06CEE22268
:102DD000ED00CEE22B18DE0618E606E700CEE22173
:102DE000C601E700CEE210E700CEE220C603E7000E
:102DF000CEE210E600C50127F7C601E70038DF067E
:102E000039DE063C9F06DE083CDE0A3C188FDE06F3
:102E1000EC07DD0AEC05DD08CEE2221AEF00CEE277
:102E200028DC0AED02DC08ED00CEE221C60FE70047
:102E3000CEE210C601E700CEE220C603E700CEE2F4
:102E400010E600C50127F7C601E70038DF0A38DFC2
:102E50000838DF0639DE063C9F06CEE222ED00CEC2
:102E6000E221C60FE700CEE210C601E700CEE22065
:102E7000E700CEE210E600C50127F7C601E700CE65
:102E8000E224EC02EE00183818DF0639DE063C9F1B
:102E900006CEE222ED00CEE221C60FE700CEE21020
:102EA000C601E700CEE220E700CEE210E600C50151
:102EB00027F7C601E700CEE224E6004F38DF0639E7
:102EC000DE063C9F06CEE222ED00CEE221C60FE7F1
:102ED00000CEE210C601E700CEE220E700CEE2100D
:102EE000E600C50127F7C601E700CEE226E6004F5F
:102EF00038DF0639DE063C9F06DE083CDE0A3C1859
:102F00008FDE06EC07DD0AEC05DD08188F05058B62
:102F1000E0188FDC0A18ED02DC0818ED0038DF0A33
:102F200038DF0838DF0639DE063C9F06DE083CDE67
:102F30000A3CDE0C3CDE0E3C05058BE0188F18DFEA
:102F40000418DE0618EC07CDEE0518A40B18E40CE7
:102F50008F18A40918E40A8FDD0EDF0C18EC0BCDD6
:102F6000EE0918DE04BD3F5CDD0ADF0818EC02CD77
:102F7000EE00940AD40B8F9408D4098F9A0EDA0FBE
:102F80008F9A0CDA0D8F18ED02CDEF0038DF0E3876
:102F9000DF0C38DF0A38DF0838DF0639DE063C9FF1
:102FA0000605058BE0188F18EC02CDEE00183818D6
:102FB000DF063918DE06183C9F0618DE08183C1894
:102FC000DE0A183C18DE0C183C18DE0E183CDD0E2C
:102FD00018DE0618EC0BDD0A18EC09DD08C60F3701
:102FE00034DC0E18CE0006BD3F178A00CA0F3736F4
:102FF0003CCC096FBD2DBF18DE0618EC07CDEE05E1
:103000003718E60ED70118DE0033BD3F17940AD4F7
:103010000B8F9408D4098FDD0EDF0CCC0A21BD2F55
:103020005573000B73000A730009730008940AD4E7
:103030000B8F9408D4098F9A0EDA0F8F9A0CDA0D41
:103040008FDD0EC60F373418DE0E183C3CCC0A213B
:10305000BD2DBF308FC3000C8F3538DF0E38DF0C2D
:1030600038DF0A38DF0838DF0639DE063C349F06D1
:10307000C6FFDE06E701CEE84C4F5FED02CC020052
:10308000ED00CEE63FE600C5042607BD0604DE06D9
:10309000E701DE066D012B06CEE2081C0002CEE23F
:1030A000044F5FED02CC0200ED003138DF0639DE5F
:1030B000063C9F06CEE2044F5FED02CC0200ED001D
:1030C000CEE2081D000238DF0639DE063C9F06CE40
:1030D000E84C4F5FED02CC0800ED00CEE24CE6007C
:1030E000C50127028D6BCEE24CE600C502271CCE3F
:1030F000E63FE600C5042613BD06045D2B0DCEE2B7
:10310000491D00C0C602CEE24CE700CEE2044F5F8C
:10311000ED02CC0800ED0038DF0639DE063C9F06E4
:103120007F031AF6B001C501270DCEE24CC601E7B8
:1031300000CEE2481C008038DF0639DE063C9F06E0
:10314000CEE24CC602E700CEE2491C008038DF0622
:1031500039DE063C3C349F06C6FFDE06E701C601A9
:10316000F7031AF6B0036F02E703EC02C508270560
:10317000C601F7031FCEE63FE600C5012728F6018A
:10318000FCC501261ADE06EC028400C4071A83007F
:1031900001260CC6013734CCB0B8BD05A63131BD0F
:1031A00004B4DE06E701DE066D012B0DCEE2481DFC
:1031B00000C0CEE24CC601E700F6B003C508270305
:1031C0007F031F383138DF0639DE063C9F06CEE626
:1031D0003FE600CEE7F4C60CE70038DF0639DE062E
:1031E0003C9F0638DF0639DE063C9F06CEE84C4F92
:1031F0005FED02CC1000ED00CEE63FE600C50127F2
:1032000003BD3654CEE2044F5FED02CC1000ED005A
:1032100038DF0639DE063C3C3C3C3C3C9F06DE0881
:103220003CDE0A3CDE06E701C601F70350E6016F0B
:1032300009E70AEE098C0006271F2E088C000427D8
:10324000147E3645DE06EE098C000827168C000A2F
:1032500027157E3645C6042002C60518DE0618E787
:1032600002200EC6062002C60718DE0618E702C6B0
:103270000518E70318E70418DE0618E601F1034F06
:1032800026037E3639CDEE098C000626037E353FB7
:103290002E088C0004271E7E363918DE0618EC092D
:1032A0001A83000826037E353F1A83000A26037E10
:1032B000353F7E363918CEE64418EC02DD0A18ECAC
:1032C00000DD08DC0ADE0884FDC4FF18ED02CDEF46
:1032D0000018EC02DD0A18EC00DD08DC0ADE088AC2
:1032E00001CA0018ED02CDEF0018EC02DD0A18EC5F
:1032F00000DD08DC0ADE0884FEC4FF18ED02CDEF15
:1033000000C603BD052E18CE0118183CCEB0B83C3F
:10331000CC01FCBD3EE67F0318CC0200FD031DBDC1
:103320000396C40F18DE0618E70918CEE66F18E6F4
:1033300000C4F018DE0618E70518E60918EA05CEFD
:10334000E66FE7005FBD3937BD1E36BD3D0FBD24BA
:1033500072C604373418CE0030183C18CE0000185E
:103360003CCE00013CCE00003CCC0A44BD30B3C68C
:1033700004373418CE0030183C18CE0000183CCE6C
:1033800000013CCE00003CCC0A45BD30B3C604373A
:103390003418CE0030183C18CE0000183CCE000087
:1033A0003C3CCC0A44BD30B330C6223A35C6043763
:1033B0003418CE0030183C18CE0000183CCE000067
:1033C0003C3CCC0A45BD30B3BD0389585858581809
:1033D000DE0618E70918CEE66F18E600C40F18DEFF
:1033E0000618E70618E60918EA06CEE66FE700C6F3
:1033F00001BD052E18DE0618E604373418E603BDB5
:1034000036E1DE06E602BD3722FC014AFE0148BD78
:103410003818CEE7FFC606E70030C60C3A35FC0385
:103420004DDD0AFC034BDD082607DC0A26037E3649
:1034300039CEE208DC0AED02DC08ED007E3639FC0C
:103440000132FE0130BD381818CEE64418EC02DD1A
:103450000A18EC00DC0A8438C400CE00002604DD23
:1034600000271818EC02DD0A18EC00DD08DC0ADE83
:10347000088A02CA0018ED02CDEF0018DE0618E631
:1034800004373418E603BD36E1CEE7FFC607E70090
:1034900018DE0618E602BD37223131F6034FC104AB
:1034A00027037E3639C603BD052E18CE0118183CF9
:1034B000CEB1D03CCC01FCBD3EE67F0318CC02006F
:1034C000FD031DBD0396C40F18DE0618E70918CECC
:1034D000E66F18E600C4F018DE0618E70718E609DC
:1034E00018EA07CEE66FE700BD1E36BD3D0FBD24CE
:1034F000725FBD3937BD03895858585818DE061811
:10350000E70918CEE66F18E600C40F18DE0618E7C4
:103510000818E60918EA08CEE66FE7005FBD052E39
:10352000CEE208EC02FD034DEC00FD034BCCFFFFA7
:10353000ED02CCEF7FED0038387F035018DE06181F
:10354000E601F7034F38DF0A38DF083838383838F3
:1035500038DF0639DE063C349F06DE083CCEE7F550
:10356000E600D709CCFFFCDB0989001A830008229A
:103570006805C3400D188FCDEE006E00BD32C92026
:1035800058CEE7F4C604E700C605201FCEE7F4C610
:1035900006E700C6072014CEE7F4C608E700C60910
:1035A0002009CEE7F4C60AE700C60B18DE0618E7C6
:1035B00001CEE63FE600C502260ACEE7F418E60192
:1035C000E7002015D609BD3314CEE7F418DE06183F
:1035D000E601E700D609F7034F38DF083138DF0688
:1035E00039DE063C349F06DE083CDE06E701E607CE
:1035F000D709CEE211C604E700CEE7FF18DE0618B1
:10360000E601E700CEE211E600C50427F7C604E7AD
:1036100000CEE7FEE600D10926DF38DF083138DFCB
:103620000639DE063C9F06DE083CDE0A3CDE0C3C2A
:10363000DE0E3CD709C60F373418CE000F183C18E1
:10364000CE0000183CCC096FBD2DBFC60718CEE2D6
:103650006418E700C6013734CE00004FD60937366C
:103660003CCC09FABD2DBF18CEE264181D00013014
:103670008FC3000C8F35CEE211E600C51027F7D6B8
:1036800009BD38FECEE2641C000818CEE26018ECDA
:1036900002DD0E18EC00DD0CFC015EDD0AFC015CB5
:1036A000DD08DE0C9C0825152207DC0E1A930A2380
:1036B0000C18EC02FD015E18EC00FD015CCEE2117D
:1036C000C610E70038DF0E38DF0C38DF0A38DF08B5
:1036D00038DF0639DE063C9F06C60ABD331438DFE4
:1036E0000639DE063C9F06C604BD331438DF0639B2
:1036F00018DE06183C9F0618CEE23418ED02CDEF16
:1037000000CEE23C1C0002CEE206C602E700CEE29A
:103710000A1D000238DF063918DE06183C9F06181D
:10372000DE08183C18DE0A183CDF087D03502731FC
:1037300018CE0004BD3F17DD0ADF08CEE264C601E3
:10374000E700C606E700CEE264C60EE700CEE26000
:10375000EC02EE009C0825EE22361A930A25E7209B
:103760002FCEE234ED02DC08ED00CEE23C1C00027C
:10377000CEE206C602E700CEE20A1D0002CEE20655
:10378000E600C50227F7C602E700CEE20A1C0002E7
:1037900038DF0A38DF0838DF063918DE06183C9FA4
:1037A0000618DE08183C18DE0A183CDD0ADF08C6D9
:1037B0000F373418CE000F183C18CE0000183CCC40
:1037C000096FBD2DBFCC0A9ABD2F5538383884FFFC
:1037D000C400CE00009C0826051A930A2716CC0ABE
:1037E0009ABD2F5584FFC400CE00009C0826EF1A16
:1037F000930A26EA38DF0A38DF0838DF0639DE06A2
:103800003C9F06DE083CD709C60F3734CC096FBD94
:103810002EC83131CC09FABD2FC0D10926F638DFC8
:103820000838DF0639DE063C9F0638DF0639DE063B
:103830003C9F0638DF0639DE063C3C3C349F06DE02
:10384000083CDE0A3CDE06E701CEE63EE600C504A3
:1038500026037E3AC5FE031DE64EF101EE25037EEA
:103860003A6BBD0396565656C4C018DE0618E705D7
:1038700018CEE66C18E600C43F18DE0618E70318F9
:10388000E60518EA03CEE66CE700FE031DE603F149
:1038900001A327115D260ECEE7F7C60DE700C6018E
:1038A00018E702200618DE06186F02C60218CEE2DC
:1038B0000618E700CEE20A1C0002DE06E601270930
:1038C000FC010AFE0108BD37F018DE06186D02275C
:1038D0002BCEE206E600C5022622CEE211E600C5A6
:1038E00001270AC601E70018DE06186F02DE066D22
:1038F000022709CEE206E600C50227DE18DE06181A
:103900006D012709FC010AFE0108BD37F0CEE20671
:10391000C602E700CEE20A1C0002FE031D188FF665
:1039200001A3D709188F18DE06186D022713E603C6
:10393000D10927085D2605CEE7F7E7004F5F7E3AFD
:10394000C8E603D70B188FD609D10B188F270F5D48
:10395000260CCEE7F4C60EE700D60BF701A3BD3B5D
:103960001E8D72FE031DE64EF701EEFE031DE64EB0
:10397000F101EE2350BD0396565656C4C018DE061C
:1039800018E70518CEE66C18E600C43F18DE0618E6
:10399000E70418E60518EA04CEE66CE7008D368DDC
:1039A0007DFE031DE64EF701EEE603F101A32715A8
:1039B000C1012611CEE7F4C60CE700CEE7F76F0091
:1039C000C601F701A3CC000138DF0A38DF08383818
:1039D0003138DF0639DE063C3C9F0618FE031D1811
:1039E000E605F101A52732CEE63D585858C408181F
:1039F000DF0418DE0618E702E600C4F718E701182E
:103A0000E60218EA0118DE04E70018E605F701A54A
:103A1000FC0112FE0110BD38183838DF0639DE0609
:103A20003C308FC3FFEE8F359F06DE083CDE0A3C3C
:103A3000DE0C3CDE0E3CF601EE18DE0618E701FE59
:103A4000031DE14E26037E3CD3FE031DF6B0A418F1
:103A5000DE0618E705FCB0AA18ED08FCB0A818EDC2
:103A600006F6401F18E70AF6B001C502271218E64D
:103A700001E14E24035C200D18DE06186A012008BF
:103A8000E64E18DE0618E701DE064FE601DD0218F5
:103A9000DE02188FC3B004188F0505C3B024ED11E2
:103AA00018DF02188F18EC02DD0A18EC00DD081888
:103AB000DE06EC08EE06BD3F5CDD0EDF0C18E60509
:103AC0005318E70BDC0ADE0818A40818E4098F185D
:103AD000A40618E4078F18ED0ECDEF0CDE02E60009
:103AE00018E40518E71018E60A2754CEE67CEC0225
:103AF000DD0AEC00DD08DC0ADE08940ED40F8F949A
:103B00000CD40D8FDD0ADF04CEE68BE6005454544E
:103B100018E40B18E702DC0A18AA0E18EA0FDF02F5
:103B2000DE048F18AA0C18EA0D8F18CEE67818ED6F
:103B300002CDEF0018DE0618E60218EA102052CE79
:103B4000E678EC02DD0AEC00DD08DC0ADE08940E03
:103B5000D40F8F940CD40D8FDD0ADF04CEE68BE6F4
:103B60000018DE0618E40B18E702DC0A18AA0E1883
:103B7000EA0FDF02DE048F18AA0C18EA0D8F18CEA8
:103B8000E67C18ED02CDEF00DE06E602EA1058589A
:103B900058DE02E70018DE0618E60AC801F7401FE3
:103BA000CEE63F565656C4C018E711E600C43F188B
:103BB000E70318E61118EA03E700FC0116FE0114FA
:103BC000BD3818FE031D18DE0618E601E14E270376
:103BD0007E3B49BD039658585858C430DE06E7115D
:103BE00018CEE66C18E600C4CFE704E611EA041824
:103BF000E700FE031DE64EF701EE38DF0E38DF0C5E
:103C000038DF0A38DF0830C6123A3538DF0639DEC9
:103C1000063C308FC3FFDE8F359F06DE083CDE0A90
:103C20003CDE0C3CDE0E3CCEE63EE60018DE06181E
:103C3000E702C50426037E3ECFFE031DCDEF03E65B
:103C400052F101F226037E3ECF186F0518E706DE1B
:103C50000618EE05188FC3B004188FF6B0A5E70755
:103C6000EC050505ED08C3B024ED0ADD02DE02EC2B
:103C700002DD0AEC00DD08FCB0AEDD0EFCB0ACDD10
:103C80000CF6401F18DF0418DE0618E70DDC0EDE08
:103C90000CBD3F5C18ED1FCDEF1D18E6075318E76C
:103CA00021DC0ADE08940ED40F8F940CD40D8FDD26
:103CB0000EDF0C18DF0218DE0418E600DE02E4074F
:103CC000E7223CDE02E60D382766CEE67CEC02DD1C
:103CD0000AEC00DD08DC0ADE0818DE0618DF04182E
:103CE000A41F18E4208F18A41D18E41E8FDD0ADF1E
:103CF00004CEE68BE60018E70E54545418E421185D
:103D0000E70CDC0A9A0EDA0FDF02DE048F9A0CDA77
:103D10000D8F18ED11CDEF0F18CEE678DE06EC1101
:103D200018ED02EC0F18ED00E60CEA22E71320670D
:103D3000CEE678EC02DD0AEC00DD08DC0ADE0818CD
:103D4000DE0618DF0418DE0218A41F18E4208F18FE
:103D5000A41D18E41E8F18DE04DD0ADF04CEE68BF6
:103D6000E60018E42118E70CDC0A9A0EDA0FDF02ED
:103D7000DE048F9A0CDA0D8F18ED16CDEF1418CEE5
:103D8000E67CDE0618ED02EC1418ED00E60CEA22E3
:103D9000E718585858E719DE02E70018DE0618E65B
:103DA0000DC80118E71AF7401FCEE63F565656C415
:103DB000C018E71BE600C43F18EA1B18E71CE70021
:103DC00018EE0318EC52FD01F218EC50FD01F0382A
:103DD000DF0E38DF0C38DF0A38DF08308FC30022EF
:103DE0008F3538DF0639DE063C9F06188F18DF0452
:103DF00018DE06CDEE0518EC0718DE041A83000065
:103E0000270F36A60018A700081808328F098F263A
:103E1000F1188F38DF0639188F4FC41F188F270904
:103E2000058F59498F180926F739188F4FC41F1865
:103E30008F270A8F47568F4656180926F639188F4E
:103E40004FC41F188F27098F048F4656180926F76D
:103E50003953438F5343088F2601083953438F53F7
:103E6000438F390E3E20FC0B990A060A360A4F0A88
:103E7000680A810B990A1F0AAF0B920B920B920BE7
:103E8000920B920B920B920AC80ADF0AF40AF90A03
:103E9000F90AF90B1F0B330B380B3D0B420B920B3E
:103EA000920B920B920B920B5E0B920B920B920B5E
:103EB000920B920B920B920B920B920B920B920B1A
:103EC000920B920B920B920B920B920B920B920B0A
:103ED000920B920B920B920B920B920B920B920BFA
:103EE000920B920B920B920B6A0B0A0B120B120B9A
:103EF000920B920B920B920B920B920B920B920BDA
:103F0000920B920B920B920B920B800B893681369F
:103F1000D9368C36D9369736D936A236D9367C0082
:00000001FF
