:10000000000000420002625A0000010000000002ED
:1000100000000064000000C80000000100000000B3
:1000200000000000000000000000000000000001CF
:1000300000005B8D000000000000000000000000D8
:10004000000000000000013C00001E8400000010C1
:10005000000000000000000100000000000000009F
:10006000000000000000000100000000000000008F
:100070000000000000000000000000000000000080
:100080000000000000000000000000000000000070
:100090000000000000000000000000000000000060
:1000A0000000000000000000000000000000000050
:1000B0000000000000000000000000000000000040
:1000C0000000000000000000000000000000000030
:1000D0000000000000000000000000000000000020
:1000E0000000000000000000000000000000000010
:1000F0000000000000000000000000000000000000
:1001000000000000000000000000000000000000EF
:1001100000000000000000000000000000000000DF
:1001200000000000000000000000000000000000CF
:1001300000000000000000000000000000000000BF
:1001400000000000000000000000000000000000AF
:10015000000000000000000000000000000000009F
:10016000000000000000000000000000000000008F
:10017000000000000000000000000000000000007F
:10018000000000000000000000000000000000006F
:10019000000000000000000000000000000000005F
:1001A000000000000000000000000000000000004F
:1001B000000000000000000000000000000000003F
:1001C000000000000000000000000000000000002F
:1001D000000000000000000000000000000000001F
:1001E000000000000000000000000000000000000F
:1001F00000000000000000000000000000000000FF
:1002000000000000000000000000000000000000EE
:1002100000000000000000000000000000000000DE
:100220000000000000085531663F4331C632E30844
:100230009708BB08DC08FD091E093F096026032654
:100240003C098109A20B9A0BF30C2000000000046A
:100250000000559400008EAFFCBD069ECE00101825
:10026000CE00002008A60018A7000818088C00106F
:1002700025F3CC0004270BCE422C6F00088300012D
:1002800026F8BD06AABD417020FB035C0372DE06A2
:100290003C9F064FF6031738DF0639DE063C9F0603
:1002A0004FF6031838DF0639DE063C9F064FF6038B
:1002B000170505C3011E8FEC00C30001ED0038DFF8
:1002C0000639DE063C9F06BD28324F38DF0639DE90
:1002D000063C349F06DE06E701CE03143A6D002685
:1002E0002418DE06F70318C65C18A6013DC30200F9
:1002F000FD031D8DCD5D270DF60318F703178DA89F
:10030000CC00012003CC00FF3138DF0639DE063C8B
:100310009F068DAECC000138DF0639DE063C9F0615
:10032000F60317C1012305CC000220045C8DA04F09
:1003300038DF0639DE063C9F06F603172605CC009B
:100340000220045A8D894F38DF0639DE063C9F06AD
:10035000C602CE03166D0027076F00CC00012008EF
:100360005A095D2AF0CC000238DF0639DE063C3C33
:100370009F06C60218CE0316DE061AEF01DE06EE51
:10038000016D00261EF1031726098DA8C101270360
:100390004F2021C60118DE0618EE0118E700CC0038
:1003A0000120115ADE061AEE0118091AEF015D2626
:1003B000CCCC00023838DF0639DE063C9F06DE086A
:1003C0003CDE0A3C7D031B26107D031A2713F60131
:1003D000FCC501260CC602200BCC00FF204B4F2091
:1003E00048F60319D70B7F0009CE03145FE7007CA2
:1003F000000908D609C10223F35FD709D10B240FE6
:10040000BD046C5D2BD37C0009D609D10B25F1F618
:100410000317F1031C240FBD041BC10126C0F60302
:1004200017F1031C25F1CC000138DF0A38DF08384A
:10043000DF0639DE063C9F06DE083CDE0A3CDE0CA9
:100440003CDE0E3C18DF0418CEE66CCE00004F18E0
:10045000DF0218DE0418CE001ABD41244F5F8F84DE
:100460000CC4008FDD0EDF0C18DF0418DE0218EC60
:1004700002DD0A18EC00DD08DC0ADE088F84F3C414
:10048000FF8FDF08DC0EDE0C9A0ADA0B8F9A08DA8F
:10049000098F18ED02CDEF0018DE0438DF0E38DFCB
:1004A0000C38DF0A38DF0838DF0639DE063C3C9FAF
:1004B00006DE06ED01C603BD053318CE0118183C53
:1004C000DE06EE013CCC01FCBD40F37F0318CC02FC
:1004D00000FD031DBD040D18DE0618E608BD05333A
:1004E0007F0317BD04B93838CC00013838DF06392E
:1004F000DE063C9F06C1022305CC00FF2007F70360
:1005000019BD04B94F38DF0639DE063C9F06F603F5
:10051000195C8DDC4F38DF0639DE063C9F06BD32A4
:1005200017BD04B94F38DF0639DE063C9F068F8FB2
:10053000C1018F2305CC00FF200DC602DF00D001D2
:10054000F7031CBD04B94F38DF0639DE063C349F83
:10055000067F01537F01527F01517F01505FF703F6
:1005600018F70317CE01183C18CEB0B8183CCC01D0
:10057000FCBD40F3F6031818DE0618E701C65C1848
:10058000A6013DC30200FD031DCE005C3C3736CC06
:1005900001A0BD40F3383838383138DF0639DE067F
:1005A0003C9F060F4F5F38DF0639DE063C9F06DEB4
:1005B000083CDE0A3CDE0C3CDE0E3C7F000B7F007C
:1005C0000A7F00097F000807843F84BF067F422D11
:1005D0007F422FBD064BF6B001C5012707CEE2488A
:1005E000C685E700CEE20EC602E700CEE2044F5F0A
:1005F000ED02CC0400ED00F6B000C1FF27155D262A
:100600000B4F5FDD0ACC0200DD082007CEE249C6B1
:1006100091E70018CEE208DC0ADE088A07CA008FDC
:100620008A5CCAB08FBD416918ED02CDEF0018ECAD
:1006300002FD032218EC00FD0320188FF6031718A3
:100640008F18DF0A7F000A7F00097F0008DC0ADEBE
:100650000818CE0004BD4124D30A8FD90999088F08
:10066000DD0ADF08BD038ECE00004F18CE0008BDA6
:100670004124D30A8FD90999088FDD0ADF08BD0309
:100680008ECE00004F18CE000CBD4124D30A8FD966
:100690000999088FDD0ADF08BD038ECE00004FDD0B
:1006A0000C7F000F7F000EDC0ADE08D30E8FD90D01
:1006B000990C8FDD0ADF08BD038ECE00004F18CEE7
:1006C0000015BD4124D30A8FD90999088FDD0ADFAF
:1006D00008BD038ECE00004F18CE001CBD4124D3B0
:1006E0000A8FD90999088FDD0ADF08BD038ECE0075
:1006F000004F18CE001EBD4124D30A8FD909990896
:100700008FDF08CEE66CED02DC08ED00C601BD050A
:10071000330ECF20FCDE063CDE003CDE023CDE0475
:100720003C9F0638DF0438DF0238DF0038DF063B45
:10073000DE063CDE003CDE023CDE043C9F06CEE2F0
:10074000196F0007BA00800638DF0438DF0238DF8F
:100750000038DF063BDE063C9F06CEE84C4F5FEDDF
:1007600002CC0100ED00CEE2044F5FED02CC0100AF
:10077000ED0038DF0639DE063C9F06CEE84CCC089B
:1007800000ED024F5FED00CEE204CC0800ED024F19
:100790005FED0038DF0639DE063C9F06CEE84C4FA1
:1007A0005FED02CC2000ED00BD32DACEE2044F5FF7
:1007B000ED02CC2000ED0038DF0639DE063C9F0656
:1007C000CEE84C4F5FED02CC4000ED00CEE2044F8E
:1007D0005FED02CC4000ED0038DF0639DE063C9FBD
:1007E00006CEE84C4F5FED02CC8000ED00CEE20477
:1007F0004F5FED02CC8000ED0038DF0639DE063CAD
:100800009F06CEE84C4F5FED02CC0001ED00CEE23A
:10081000044F5FED02CC0001ED0038DF0639DE0643
:100820003C9F06CEE84C4F5FED02CC0002ED00CEBF
:10083000E2044F5FED02CC0002ED0038DF0639DE46
:10084000063C9F06CEE84C4F5FED02CC0004ED0065
:10085000CEE2044F5FED02CC0004ED0038DF063934
:10086000DE063C9F06CEE84C4F5FED02CC0008ED63
:1008700000CEE2044F5FED02CC0008ED0038DF0649
:1008800039DE063C9F06CEE84C4F5FED02CC0040BF
:10089000ED00CEE2044F5FED02CC0040ED0038DF0A
:1008A0000639DE063C349F06CEE84C4F5FED02CCA5
:1008B0000080ED00CEE244E600F70324271ACEE8DC
:1008C00047E700C601373418CE0000183C183CCC6E
:1008D0000083BD2DBB383838F6032418DE0618E730
:1008E000014F1A83005223037E0B8205C341741803
:1008F0008FCDEE006E00CEE246C602E700CEE204E7
:100900004F5FED02CC0080ED00BD0FF37E0B89F64A
:10091000422ECEE246E700CEE2044F5FED02CC006D
:1009200080ED007E0B89CEE246C6FFE700CEE204F2
:100930004F5FED02CC0080ED00BD0E257E0B89CE11
:10094000E246C604E700CEE2044F5FED02CC008031
:10095000ED00BD0E417E0B89CEE246C605E700CE16
:10096000E2044F5FED02CC0080ED00BD0E5D7E0B1A
:1009700089CEE246C606E700CEE2044F5FED02CC28
:100980000080ED00BD1404BD2603BD2603BD260373
:10099000BD2603BD2603BD2603BD26037E0B89CEDF
:1009A000E246C609E700CEE2044F5FED02CC0080CC
:1009B000ED00BD0E847E0B89CEE208EC02FD032221
:1009C000EC00FD0320CCFFFFED02CCFF7F200BCE1F
:1009D000E208FC0322ED02FC0320ED00CEE245C656
:1009E000017E0B87BD044B200B18DE0618E601CBF9
:1009F000EDBD05F0CEE2457E0B877F031CBD04B93B
:100A000020DA18DE0618E601CBBEBD062920E5F681
:100A1000B000C1FF27C65D2605BD31AB20BEBD328B
:100A20003720B9BD061920CCBD041B20C7BD043436
:100A300020C24F5FFD011EFD011CFD0122FD0120B2
:100A4000FD0126FD0124FD012AFD0128208E7F03E2
:100A50001BC6023734CCB2E8200A7F031BC601371D
:100A600034CCB0B8BD05ABCEE245E700313120193A
:100A70007F031BBD37D67E0ADC7F031BBD37E47EB8
:100A80000ADCCEE245C6FEE700CEE2044F5FED028F
:100A9000CC0080ED003138DF0639DE063C9F06DEF3
:100AA000083CDE0A3CCEE84CCC0100ED024F5FED85
:100AB00000CEE204CC0100ED024F5FED00F6422DC6
:100AC000CEE246E7005CF7422DC106261C18CEE2B6
:100AD0000818EC02DD0A18EC00DD08DC0ADE088AE2
:100AE00001CA0018ED02CDEF0038DF0A38DF083800
:100AF000DF0639DE063C9F06CEE84CCC0200ED0254
:100B00004F5FED00CEE204CC0200ED024F5FED003E
:100B1000F6422FCEE246E7005CF7422F38DF063977
:100B2000DE063C9F06CEE63FE600C5012750CEE834
:100B300001E6004F1A83000627232E081A830004BB
:100B40002710203A1A830008271E1A83000A272339
:100B5000202CCEE800C604E700C605201FCEE80022
:100B6000C606E700C6072014CEE800C608E700C6A0
:100B7000092009CEE800C60AE700C60BE700CEE26E
:100B800004CC0400ED024F5FED00CEE84CCC040035
:100B9000ED024F5FED0038DF0639DE063C9F06CEE2
:100BA000E84CCC1000ED024F5FED00CEE204CC101B
:100BB00000ED024F5FED0038DF0639DE063CDE0057
:100BC0003CDE023CDE043C9F06DE083CDE0A3CDEE6
:100BD0000C3CDE0E3CCEE208EC02DD0AEC00DD0847
:100BE000CEE204EC02DD0EEC00DD0CDC0ADE08BD1A
:100BF0004169940ED40F8F940CD40D8FDD0EDF0C51
:100C00004F5F8F8410C4008F8C00002604DD002706
:100C100003BD32E3CEE208EC02DD0AEC00DD08DCC5
:100C20000ADE08BD4169940ED40F8F940CD40D8F49
:100C3000DD0EDF0C4F5F8F8402C4008F8C00002616
:100C400004DD002703BD3166DE0C4F5F8F8408C4CE
:100C5000008F8C00002604DD002703BD31C6DC0EAA
:100C60008404C400CE00002604DD002703BD0C2050
:100C7000DC0E8401C400CE00002604DD002703BD85
:100C80000B9ADC0E8402C400CE00002604DD00278F
:100C900003BD0BF3DE0C4F5F8F8400C4108F8C00FC
:100CA000002604DD002703BD2603DE0C4F5F8F8482
:100CB00000C4208F8C00002604DD002703BD263CE5
:100CC000DE0C4F5F8F8440C4008F8C00002604DD53
:100CD000002703BD08BBDE0C4F5F8F8404C4008F68
:100CE0008C00002604DD002703BD3F43DE0C4F5F70
:100CF0008F8400C4808F8C00002604DD002703BD94
:100D000009A2CEE244E6002703BD09A238DF0E386F
:100D1000DF0C38DF0A38DF0838DF0438DF0238DF5D
:100D20000038DF063BDE063C9F06CEE234CC006492
:100D3000ED024F5FED00CEE23CC602E70038DF0671
:100D400039DE063C9F06CEE230CC000AED024F5F52
:100D5000ED00CEE23CC601E70038DF0639DE063C96
:100D60009F06CC001037364F5F3736CC0180BD2F41
:100D7000F0CC0180BD3098CEE246C6AAE7003838F4
:100D800038DF0639DE063C3C9F06DE083CDE0A3CC6
:100D9000DE0C3CDE0E3CCC0212BD3098DD0EDF0CCA
:100DA000C41F18DE0618E701DC0E8400C460CE0004
:100DB0000018CE0005BD414B18DE0618E702DC0E18
:100DC000DE0C18CE0007BD414B8C000026061A83AE
:100DD000000127358C000026061A83000125188C97
:100DE000000026061A83000227348C000026581AB9
:100DF000830003273B2050DE064FE602050505056C
:100E00000505EA01CEE248203A18DE064F18E60250
:100E100005050505050518EA01CEE2492025DE068F
:100E20004FE602050505050505EA01CEE24A201355
:100E300018DE064F18E60205050505050518EA0146
:100E4000CEE24BCA20E700CEE8484F5FED02CC0867
:100E500000ED0038DF0E38DF0C38DF0A38DF0838E5
:100E600038DF0639DE063C9F06DE083CDE0A3C1809
:100E70008FDE06EC07DD0AEC05DD08CEE2221AEF74
:100E800000CEE228DC0AED02DC08ED00CEE22118FB
:100E9000DE0618E60AE700CEE210C601E700CEE261
:100EA00020C603E700CEE210E600C50127F7C60121
:100EB000E70038DF0A38DF0838DF0639DE063C9FF6
:100EC00006CEE222ED00CEE221C60FE700CEE21010
:100ED000C601E700CEE220E700CEE210E600C50141
:100EE00027F7C601E700CEE224EC02EE001838181E
:100EF000DF0639DE063C3C9F06DE083CDE0A3CDEAF
:100F00000C3CDE0E3CCC0001DD0E4F5FDD0CCE0252
:100F10000818DE06CDEF01DC0E05DE0C8F59498F77
:100F2000C30001240108DD0EDF0CC60F373418DEC4
:100F30000E183C18DE0C183CDE06EC01BD0F6438C0
:100F40003838DE061AEE0118081AEF01188C021361
:100F500023C57F000F7F000E7F000D7F000CCE02A7
:100F60000818DE06CDEF0118DE0618EC01BD0FBC37
:100F7000DD0ADF08DC0E05DE0C8F59498FC3000146
:100F8000240108DD0EDF0CDE089C0C2607DC0A1AA3
:100F9000930E2707CEE246C6FFE70018DE06CDEE29
:100FA0000108CDEF018C021323BDCEE246C6AAE7AD
:100FB0000038DF0E38DF0C38DF0A38DF083838DF5A
:100FC0000639DE063C9F06CC0183BD30988400C400
:100FD00002CE000018CE0001BD41378C000026E78C
:100FE0001A83000126E138DF0639DE063C9F06CC75
:100FF000000137364F5F373618CE0000183C183CDA
:10100000CC0180BD3023CC000137364F5F37361816
:10101000CE0018183C18CE0000183CCC0184BD301E
:1010200023308FC300108F3538DF0639DE063C9F32
:1010300006DE083CDE0A3CDD00270B4F5FDD0ACCF4
:101040000080DD08200C7F000B7F000A7F00097FF5
:10105000000818CE0000183C18CE0080183CDC0AAE
:101060003736DC083736CC0181BD30233838383884
:1010700038DF0A38DF0838DF0639DE063C9F06DE37
:10108000083CDE0A3CDD00270B4F5FDD0ACC010087
:10109000DD08200C7F000B7F000A7F00097F00081D
:1010A00018CE0000183C18CE0100183CDC0A373678
:1010B000DC083736CC0181BD30233838383838DF8A
:1010C0000A38DF0838DF063918DE06183C9F068F1D
:1010D0008403C4FF8F18CEFFFF183C18CE03FF18FF
:1010E0003C37363CCC0182BD30234F5F3736CC02D3
:1010F00000373618CE0000183C18CE0200183CCC41
:101100000181BD3023BD10C24F5F3736CC0200379E
:101110003618CEFFFF183C18CEFDFF183CCC0181DD
:10112000BD3023308FC300188F3538DF0639DE0617
:101130003C9F06DE083CDE0A3CDD00270BCC0004A9
:10114000DD0A4F5FDD08200C7F000B7F000A7F0067
:10115000097F000818CE0004183C18CE0000183C87
:10116000DC0A3736DC083736CC0180BD3023CC00B2
:1011700001BD112CBD10C24F5FBD112C383838385D
:1011800038DF0A38DF0838DF063918DE06183C9FDA
:10119000068401C4FFCE000018CE01FF183C18CE13
:1011A0000000183C37363CCC0181BD30234F5F37FF
:1011B00036CC0400373618CE0000183C18CE040098
:1011C000183CCC0181BD3023BD10C24F5F3736CCF7
:1011D0000400373618CE0000183C183CCC0181BD05
:1011E0003023308FC300188F3538DF063918DE06FC
:1011F000183C9F0618DE08183C18DE0A183C18DE5A
:101200000C183C18DE0E183CDD0E18DE0618EC0734
:10121000DD0A18EC05DD08DC0E18CE0004BD412403
:101220008403C4F0CE000018CE03F0183C18CE00A2
:1012300000183C37363CCC0180BD3023DC0ADE0888
:101240008F8403C4FF8F18CEFFFF183C18CE03FF16
:10125000183C37363CCC0182BD3023308FC30010A0
:101260008F3538DF0E38DF0C38DF0A38DF0838DF1B
:10127000063918DE06183C9F0618DE08183C18DEF2
:101280000A183C8C00002604DD00270BCC0008DD8A
:101290000A4F5FDD08200C7F000B7F000A7F0009EA
:1012A0007F000818CE0008183C18CE0000183CDC5F
:1012B0000A3736DC083736CC0180BD302318CE0023
:1012C00000183C18CE0080183C4F5F3736CC0080A9
:1012D0003736CC0181BD3023BD10C218CE000018B6
:1012E0003C18CE0080183C4F5F37363736CC018132
:1012F000BD3023308FC300188F3538DF0A38DF0840
:1013000038DF0639DE063C9F06DE083CDE0A3CBDBF
:1013100010EA4F5FBD122ECC0001CE0000BD128A34
:10132000C6FF18CEE24618E700CC0002CE0000BD92
:10133000128AC6FE18CEE24618E700CC0004CE00A2
:1013400000BD128AC6FD18CEE24618E700CC0008A0
:10135000CE0000BD128AC6FC18CEE24618E700CCCB
:101360000040CE0000BD128AC6FB18CEE24618E748
:1013700000CC0080CE0000BD128AC6FA18CEE2462C
:1013800018E7007F000B7F000A7F00097F0008CC70
:101390000001CE0000BD128ACC0001CE0000BD13BA
:1013A00072DE0A3C3CCCC0003736CC00053736CC68
:1013B0000001BD12EDCC0001BD117ABD10C24F5F1E
:1013C000BD117ADC0ADE08BD1372CC0002CE00002B
:1013D000BD128AC6F818CEE24618E700CC0001CE4E
:1013E0000000BD128ACC0001CE0000BD1372CC00FB
:1013F00001BD117ABD10C24F5FBD117ABD10C2DCB4
:101400000ADE08BD1372BD10C2CC0002CE0000BDC2
:10141000128ACC0001CE0000BD128ACE00023CCE62
:1014200000003CDC0A37363736CC0184BD3023BDA2
:1014300010C2CC0002CE0000BD128ACC0001BD1249
:101440002E18CEF000183C18CE000F183CCE3000FD
:101450003CCE00043CCC0180BD3023CC0001BD114A
:101460002CBD10C24F5FBD112CC6F618CEE2461837
:10147000E700CEF0003CCE000F3CCC50003736CC1D
:1014800000023736CC0180BD302330C6203A35CC3F
:101490000001BD112CBD10C24F5FBD112CC6F51847
:1014A000CEE24618E70038DF0A38DF0838DF0639B1
:1014B000DE063C9F06CEE60FE600C40227F738DFC3
:1014C0000639DE063C9F06C601CEE604E7008DE045
:1014D000CEE6046F0038DF0639DE063C9F06CEE616
:1014E00007E700C604CEE604E7008DC4CEE6046F2D
:1014F0000038DF0639DE063C9F064F5F3736CC00EA
:1015000080373618CE0000183C18CE0080183CCC2E
:101510000181BD30238D994F5F3736CC008037363F
:1015200018CE0000183C183CCC0181BD3023308F10
:10153000C300108F3538DF0639DE063C3C9F06CEEF
:10154000E603585858C40818DE0618E702E600C437
:10155000F718E70118E60218EA01E7008D97383816
:10156000DF0639DE063C3C9F06CEE6131C0001CEAA
:10157000E603585858C40818DE0618E702E600C407
:10158000F718E70118E60218EA01E700CEE6061CA4
:101590000008FC014EFE014CBD37F218CEE60F18D4
:1015A000E600C5012609CEE206E600C50227EC18D2
:1015B000E600C50127035F2002C601CEE6061D0036
:1015C00008CEE6131D00014F3838DF0639DE063C31
:1015D0009F06CEE6031C0001CC0006CE0000BD38FD
:1015E0001ACEE6031D000138DF0639DE063C3C3C1E
:1015F0003C9F06DE083CDE0A3CDE0C3CDE0E3CBDB9
:10160000039BCE00004F18CE0015BD41244F5F8FC5
:101610008403C4E08FDD0EDF0C18CEE66C18EC02FC
:10162000DD0A18EC00DD08DC0ADE088F84FCC41F2C
:101630008FDF08DC0EDE0C9A0ADA0B8F9A08DA09C3
:101640008F18ED02CDEF00C601BD15D918DE0618C2
:101650006F01CEE603E600C503261CFC0166FE0111
:10166000642604DD00270BC60FBD1663DE06E70106
:101670002005C60FBD163918DE06186D0127037E3A
:10168000182BCEF3F73CCE000F3CFE031DEC1237B7
:1016900036EE103CCC0180BD302318CEF000183C53
:1016A00018CE003F183CFE031DEC163736EE143CF6
:1016B000CC0181BD302318FE031DCEE60818EC1ABC
:1016C000ED0218EC18ED00CEE79018EC1EED0218B4
:1016D000EC1CED00CEE79418EC22ED0218EC20EDA6
:1016E00000BD15C2CEE603E60018DE0618E7068444
:1016F00000C40318ED02308FC300108F35DD0026C3
:1017000024FC0166FE01642604DD00270F18DE06B6
:1017100018E603BD1663DE06E701200918DE061889
:10172000E603BD1639DE066D0127044F5F2046FE35
:10173000031DE617BD15D9BD039BC41F18DE06188F
:10174000E70518CEE66D18E600C4E018DE0618E7D7
:101750000418E60518EA04CEE66DE700FC031DC395
:10176000001018CE0018183C3736CC01B0BD40F33D
:10177000CC0001383838DF0E38DF0C38DF0A38DFAC
:101780000838383838DF0639DE063C9F06CEE604D6
:101790001C0002BD15B0FC010EFE010CBD37F2CEDF
:1017A000E6041D0002CEE206E600C50227F7C602E7
:1017B000E700CEE20A1C000238DF0639DE063C30C4
:1017C0008FC3FFDA8F359F06DE083CDE0A3CDE0C55
:1017D0003CDE0E3CBD039BCE00004F18CE0015BD75
:1017E00041244F5F8F8403C4E08FDD0EDF0C18CEE1
:1017F000E66C18EC02DD0A18EC00DD08DC0ADE08F5
:101800008F84FCC41F8FDF08DC0EDE0C9A0ADA0B13
:101810008F9A08DA098F18ED02CDEF00CEE7931DFD
:101820000001CEE60818DE06EC0218ED0FEC0018F9
:10183000ED0DFE031DCDEF1FEC1ADD0AEC18DD08DF
:10184000DC0ADE088F8403C4FF8F18ED0BCDEF098F
:10185000CDEE0D4F5F8F8410C4008F18ED13CDEFC8
:101860001118EC0FCDEE0D8F8403C4FF8FCDEF0D5B
:1018700018ED03CDEF01DE0618EC03DF02CDEE011B
:1018800018CE0003BD414B18DF0418DE0218ED032B
:10189000CDEF01DC0A18ED0718EC0918ED05DC0A9C
:1018A000CDEE0518DE0418CE0005BD414B18DF044F
:1018B00018DE0218ED07CDEF0518EE1F18EC12DD4B
:1018C0000A84F0C400CE000018CE000CBD414BD7F6
:1018D0000DDC0A8400C404CE000018CE0002BD4115
:1018E0004B18DF0418DE0218ED1ACDEF1818E717B1
:1018F000CEE600EC02DD0AEC00DD08CEE603E600F1
:101900008400C4044756475618ED1C18E71618EE15
:101910001F18E6118400C40FDB0D8900CE00004DB6
:101920002A0109DD0EDF0CDC0A84F0C400CE0000C1
:1019300018CE000CBD414B18DF0418DE0218ED2351
:10194000CDEF21CC000F9408D409CE0000DD0ADFD2
:101950000818EC23CDEE2118DE04D30A8FD909999B
:10196000088FDD0ADF08DC0C1A93082522220818EC
:10197000DE0E189C0A2318DD04DC06DD02DC043CC4
:10198000DE026D1B3827083CDE026D1D38260ADE9C
:10199000066D17273D6D16263918DE0618E617184E
:1019A000E1162705C601BD15D9CCF0043736CC00A9
:1019B0000F3736FE031DEC123736EE103CCC01809B
:1019C000BD3023BD15F5FE031DE617BD15D938380A
:1019D000383818DE0618EC0DCDA30923037E1C173A
:1019E000250B18EC0FCDA30B25037E1C1718DE0664
:1019F00018EC0705DD0A18EC055949DD08DC0ADE9C
:101A00000818A30B8F18E20A18A2098FBD415EDDEA
:101A10000ADF0818EC0FCDEE0D18E3038F18E9026A
:101A200018A9018F18ED0FCDEF0DDC08CDA30D2205
:101A3000092555DC0ACDA30F234E18DE0618EC0F3E
:101A4000CDEE0D18AA1318EA148F18AA1118EA126D
:101A50008F18CEE60818ED02CDEF00BD188818DE0D
:101A60000618EC0FCDEE0D18E3038F18E90218A944
:101A7000018F18ED0FCDEF0DDC08CDA30D22BB2596
:101A800007DC0ACDA30F22B218DE0618EC0FCDEE4C
:101A90000D18A3038F18E20218A2018F18E3078F15
:101AA00018E90618A9058F18ED0FCDEF0D8FCDA3FE
:101AB00009251023037E1D2C18EC0FCDA30B250345
:101AC0007E1D2C18DE0618EC0FCDEE0D18AA13188B
:101AD000EA148F18AA1118EA128F18CEE60818ED2A
:101AE00002CDEF00BD188818DE0618EC0FCDEE0D04
:101AF00018E3078F18E90618A9058F18ED0FCDEF29
:101B00000D8FCDA30925BC23037E1D2C18EC0FCD12
:101B1000A30B25AF7E1D2C18DE0618EC0705CDEEB5
:101B2000058F59498F18E30B8F18E90A18A9098FF7
:101B3000DD0ADF0818EC0FCDEE0D18A3038F18E2B5
:101B40000218A2018F18ED0FCDEF0DDC08CDA30D0B
:101B500025092255DC0ACDA30F244E18DE0618EC09
:101B60000FCDEE0D18AA1318EA148F18AA1118EA4F
:101B7000128F18CEE60818ED02CDEF00BD188818B8
:101B8000DE0618EC0FCDEE0D18A3038F18E2021835
:101B9000A2018F18ED0FCDEF0DDC08CDA30D25BBF5
:101BA0002207DC0ACDA30F25B218DE0618EC0FCDF4
:101BB000EE0D18E3038F18E90218A9018F18A30787
:101BC0008F18E20618A2058F18ED0FCDEF0D8FCDFF
:101BD000A309220A255618EC0FCDA30B234E18DEBD
:101BE0000618EC0FCDEE0D18AA1318EA148F18AAD8
:101BF0001118EA128F18CEE60818ED02CDEF00BDDD
:101C0000188818DE0618EC0FCDEE0D18A3078F18F4
:101C1000E20618A2058F18ED0FCDEF0D8FCDA309A9
:101C200022BC250818EC0FCDA30B22B218FE031D11
:101C3000CEE60818EC1AED0218EC18ED00BD188875
:101C4000CEE603E60018DE0618E7268400C4041872
:101C5000ED25040418E71618E61718E1162705C63F
:101C600001BD15D918CEF004183C18CE000F183C51
:101C7000FE031DEC123736EE103CCC0180BD302344
:101C8000BD15F5FE031DE617BD15D9CEE79018FE6C
:101C9000031D18EC1EDD0A18EC1CDD08DC0ADF024F
:101CA000DE0884FFC4FE18DF0418DE0218ED02CD42
:101CB000EF00CEE79418DE0418EC22ED0218EC20B9
:101CC000ED0018EC1EDE02ED0218EC1CED00BD1854
:101CD00088BD039BC41F18DE0618E72518CEE66DE5
:101CE00018E600C4E018DE0618E71E18E62518EA14
:101CF0001ECEE66DE700FC031DC30010CE00183CAD
:101D00003736CC01B0BD40F3308FC3000C8F35386F
:101D1000DF0E38DF0C38DF0A38DF08308FC30026CB
:101D20008F3538DF0639DE063C349F06DE083CDEA0
:101D30000A3CDE066F01FC0166FE0164260FDD0031
:101D400027132009BD16CDC601DE06E701BD16EB3F
:101D50005D27F12003BD16EBDE066D01271EFC0199
:101D600062DD0AFC0160DD08DC0ADE08C300012434
:101D70000108DF08FD0162DC08FD016038DF0A3878
:101D8000DF083138DF0639DE063C3C349F06DE08CA
:101D90003CDE0A3CDE0C3CDE0E3CBD039B58585832
:101DA00058DE06E70318CEE66E18E600C40FE7011A
:101DB000E603EA0118E70018CEE64818DF0418FE2B
:101DC000031D18EC2ADD0A18EC28DD08DC0ADE0801
:101DD00084FFC4008F8400C4FF8FDD0EDF0C18DF8A
:101DE0000218DE0418EC02DD0A18EC00DD08DC0A3B
:101DF000DE088400C4FF8F84FFC4008FDD0ADF0883
:101E0000DC0EDE0C9A0ADA0B8F9A08DA098F18EDCD
:101E100002CDEF00DE024FE62CCE000018CEE64CDD
:101E200018E70018CEE61C181D0002C601BD23C02D
:101E3000CEE627E600C5032605C60FBD2337CCF343
:101E4000F73736CC000F3736FE031DEC323736EE4F
:101E5000303CCC0189BD302318FE031DCEE62C1882
:101E6000EC3AED0218EC38ED00CEE63418EC3EED1D
:101E70000218EC3CED00CEE63818EC42ED0218EC0E
:101E800040ED00BD23A218CEE62718E6008400C46A
:101E90000338383838DD002603BD2337FE031DE63E
:101EA00037BD23C0CEE61C1C0002BD039BC40F1827
:101EB000DE0618E70318CEE66E18E600C4F018DE5A
:101EC0000618E70218E60318EA02CEE66EE700FC01
:101ED000031DC3002818CE0024183C3736CC01C897
:101EE000BD40F3383838DF0E38DF0C38DF0A38DF12
:101EF00008383138DF0639DE063C3C3C9F06DE08F8
:101F00003CDE0A3CDE0C3CDE0E3CDE066F01BD030F
:101F10009B5858585818DE0618E70418CEE66E1875
:101F2000E600C40F18DE0618E70218E60418EA02F5
:101F3000CEE66EE700C601BD23C018CEE61C181D14
:101F4000000218CEE64818DF0418FE031D18EC2A1C
:101F5000DD0A18EC28DD08DC0ADE0884FFC4008FE7
:101F60008400C4FF8FDD0EDF0C18DF0218DE0418BA
:101F7000EC02DD0A18EC00DD08DC0ADE088400C48F
:101F8000FF8F84FFC4008FDD0ADF08DC0EDE0C9AB1
:101F90000ADA0B8F9A08DA098F18ED02CDEF00DE0E
:101FA000024FE62CCE000018CEE64C18E70018CE03
:101FB000E61F181C0001CEE627E600C503260BC667
:101FC0000FBD23E318DE0618E701CEE61F1D000152
:101FD00018DE06186D012674CEF3F73CCE000F3CD8
:101FE000FE031DEC323736EE303CCC0189BD302388
:101FF00018FE031DCEE62C18EC3AED0218EC38ED75
:1020000000CEE63418EC3EED0218EC3CED00CEE6D6
:102010003818EC42ED0218EC40ED00BD23A218CEBA
:10202000E61F181C0001CEE627E6008400C4033832
:10203000383838DD002607BD23E3DE06E70118CE79
:10204000E61F181D0001DE066D0127044F5F2042C8
:10205000FE031DE637BD23C018CEE61C181C000287
:10206000BD039BC40FDE06E70418CEE66E18E6003B
:10207000C4F0E703E604EA0318E700FC031DC3000D
:1020800028CE00243C3736CC01C8BD40F3CC00013B
:10209000383838DF0E38DF0C38DF0A38DF083838D8
:1020A00038DF0639DE063C349F06DE083CDE0A3C9B
:1020B000DE066F01C60F373418CE000F183C18CE5D
:1020C0000000183CCC096FBD2DBBC601373418CEBB
:1020D0000004183C18CE0000183CCC0A9ABD2DBB59
:1020E000308FC3000C8F35CEE211E6008400C4307F
:1020F0001A83003026F1C630E700FC0156FE015479
:102100002604DD00271B18DE06186F01200BBD24F6
:1021100041C60118DE0618E701BD1FF75D27EF2055
:1021200003BD1E87DE066D01271EFC0152DD0AFC81
:102130000150DD08DC0ADE08C30001240108DF08C5
:10214000FD0152DC08FD0150CEE848FC0152ED02D1
:10215000FC0150ED00BD245FC6013734FE031D4F66
:10216000E601CE000037363CCC0A9ABD2DBBCC0A26
:102170009ABD2F51CC0001CE0000BD381AC60437DD
:102180003418CE0030183C18CE0000183CCE0001A8
:102190003CCE00003CCC0A44BD30AFC604373418F6
:1021A000CE0030183C18CE0000183CCE00013CCECA
:1021B00000003CCC0A45BD30AFC604373418CE0011
:1021C00030183C18CE0000183CCE00003C3CCC0A35
:1021D00044BD30AF30C6243A35C604373418CE007B
:1021E00030183C18CE0000183CCE00003C3CCC0A15
:1021F00045BD30AFC601373418CE000A183C18CEA2
:102200000000183CCC0A9ABD2DBBCEE211C630E7C7
:10221000001830C610183A1835E600C530270DCE24
:10222000E211C630E700E600C53026F338DF0A3891
:10223000DF083138DF0639DE063C3C9F06CEE62754
:10224000585858C40818DE0618E702E600C4F71804
:10225000E70118E60218EA01E70018CE0000183C72
:1022600018CE0080183C4F5F3736CC00803736CC14
:10227000018ABD302338383838CEE633E600C5024F
:1022800027F74F5F3736CC0080373618CE0000185E
:102290003C183CCC018ABD3023383838383838DF18
:1022A0000639DE063C9F06CEE628C601E700CEE6EC
:1022B00033E600C50227F7CEE6286F0038DF06397F
:1022C000DE063C9F06CEE62BE700CEE628C604E7F6
:1022D00000CEE633E600C50227F7CEE6286F0038C9
:1022E000DF0639DE063C3C9F06CEE627585858C428
:1022F0000818DE0618E702E600C4F718E70118E63A
:102300000218EA01E700CEE62A1C0008FC014EFE96
:10231000014CBD37F218CEE63318E600C501260998
:10232000CEE206E600C50227EC18E600C501270349
:102330005F2002C601CEE62A1D00084F3838DF06AE
:1023400039DE063C9F06CEE6271C0001CC0006CEF7
:102350000000BD381ACEE6271D000138DF0639DE41
:10236000063C9F0638DF0639DE063C349F06DE0851
:102370003CDE0A3CDE066F01FC0156FE0154260ECF
:10238000DD00271220088DB9C601DE06E701BD1F5A
:10239000F75D27F22003BD1E87DE066D01271EFCB8
:1023A0000152DD0AFC0150DD08DC0ADE08C3000131
:1023B000240108DF08FD0152DC08FD0150CEE84889
:1023C000FC0152ED02FC0150ED0038DF0A38DF0855
:1023D0003138DF0639DE063C9F06C60F373418CE8B
:1023E000000F183C18CE0000183CCC096FBD2DBB67
:1023F000C601373418CE0004183C18CE0000183C33
:10240000CC0A9ABD2DBB308FC3000C8F35CEE211A4
:10241000E6008400C4301A83003026F1C630E7009D
:10242000BD1E87BD245FC6013734FE031D4FE60184
:10243000CE000037363CCC0A9ABD2DBBCC0A9ABDE3
:102440002F51CC0001CE0000BD381ABD26C8C604ED
:10245000373418CE0030183C18CE0000183CCE009F
:10246000013CCE00003CCC0A44BD30AFC60437343A
:1024700018CE0030183C18CE0000183CCE00013CAD
:10248000CE00003CCC0A45BD30AFC604373418CE70
:102490000030183C18CE0000183CCE00003C3CCC6C
:1024A0000A44BD30AF30C6243A35C604373418CE9E
:1024B0000030183C18CE0000183CCE00003C3CCC4C
:1024C0000A45BD30AFC601373418CE000A183C1893
:1024D000CE0000183CCC0A9ABD2DBBC63018CEE207
:1024E0001118E70030C6103A35CEE211E600C530CB
:1024F000270DCEE211C630E700E600C53026F338DE
:10250000DF0639DE063C9F06CEE84C4F5FED02CC7D
:102510000010ED00CEE63FE600C501270FF6031BD5
:10252000260AF60317C1012203BD041BCEE2044FA5
:102530005FED02CC0030ED0038DF0639DE063C9F4F
:1025400006CEE84C4F5FED02CC0020ED00CEE63F1A
:10255000E600C5012710F6031B260BF60317F1034F
:102560001C2303BD0434CEE2044F5FED02CC0030E7
:10257000ED0038DF0639DE063C9F06CEE648E60071
:102580004F5F270CC6083734CC09FABD2EC4313151
:10259000BD2B81BD3D6CBD21A4CEE20A1C0002C64C
:1025A000093734CC09FABD2EC4CEE206C602E700D4
:1025B000CEE20A1C0002FC012EFE012CBD381A31AD
:1025C00031CC000138DF0639DE063C9F06DE083CD0
:1025D000DE0A3CDE0C3CDE0E3CCEE647E600C501E2
:1025E00027037E279AFE031DEC26DD0EEC24DD0C6E
:1025F000FC01C6DD0AFC01C4DD0818DE0C189C08CD
:10260000260ADC0E1A930A26037E279A18DE0C1877
:102610009C0822502507DC0E1A930A244718CE0086
:102620000F183C18CE0000183CCC096FBD2EFDFEE3
:10263000031DE6003734CC09FABD2EC4383838F60D
:1026400001A2C101261EFE031DE6022617CEE7FFEA
:10265000C608E700CEE211E600C50427F7C604E786
:10266000007F01A2BD18BCCEE20A1C000218CEE217
:1026700006C60218E7001C0002F601A2261CFE0393
:102680001DE602C1012613CEE7FFC609E700CEE230
:1026900011C604E700C601F701A2C60F373418CEF1
:1026A000000F183C18CE0000183CCC096FBD2DBBA4
:1026B000C6013734FE031D4FE600CE000037363C1E
:1026C000CC09FABD2DBB30C60C3A35CC000138DF41
:1026D0000E38DF0C38DF0A38DF0838DF0639DE064F
:1026E0003C9F06DE083C188FFE031DE64EF101EE0E
:1026F0002314E60318E703FE031DE60418E704FEAF
:10270000031DE605200FF601A318E703F601A41840
:10271000E704F601A518E705FE031DF6B002D70988
:10272000E64ED1092402D60918E74E38DF0838DF13
:102730000639DE063C308FC3FF998F359F06DE08D1
:102740003CDE0A3CDE0C3CDE0E3CCEE66FF60318A7
:10275000C40F18DE0618E765E600C4F018E75F1836
:10276000E66518EA5FE70018FE031D18EC26DD0E8B
:1027700018EC24DD0CFC01C6DD0AFC01C4DD08DE1A
:102780000C9C082629DC0E1A930A2622FC01E6DDA1
:102790000EFC01E4DD0C18EC46DD0A18EC44DD0803
:1027A00018DE0C189C082606DE0E9C0A2728DC067C
:1027B000C30001BD27DEFE031D18DE06CDEF5DDC84
:1027C00006C30001FD031DC601BD399418DE0618BD
:1027D000EE5D18FF031DCEE64BE60018DE0618E797
:1027E000678400C42018ED602634FE031DFC01E65A
:1027F000DD0EFC01E4DD0CEC46DD0AEC44DD0818DE
:10280000DE0C189C0825172206DE0E9C0A230FBD3D
:1028100026765D260918DE0618EC607E2B1FCEE6B4
:1028200047E600C50127037E29F0FE031DEC26DDE7
:102830000EEC24DD0CFC01C6DD0AFC01C4DD081829
:10284000DE0C189C082609DE0E9C0A26037E29F061
:10285000DC0C1A93082260250818DE0E189C0A2446
:1028600056C60F373418CE000F183C18CE0000188B
:102870003CCC096FBD2DBBC6013734FE031D4FE6AE
:1028800000CE000037363CCC09FABD2DBB30C60C5B
:102890003A35F601A2C101261EFE031DE6022617E7
:1028A000CEE7FFC608E700CEE211E600C50427F731
:1028B000C604E7007F01A2BD2B81BD18BCCEE20A91
:1028C0001C000218CEE206C60218E7001C0002F641
:1028D00001A2261CFE031DE602C1012613CEE7FF5E
:1028E000C609E700CEE211C604E700C601F701A25F
:1028F000C60F373418CE000F183C18CE0000183C15
:10290000CC096FBD2DBBC6013734FE031D4FE60059
:10291000CE000037363CCC09FABD2DBBFC012EFEA3
:10292000012CBD381ACEE64BE60018DE0618E76724
:102930008400C42018ED62308FC3000C8F35DD0099
:102940002634FE031DFC01E6DD0EFC01E4DD0CEC8B
:1029500046DD0AEC44DD0818DE0C189C0822172519
:1029600006DE0E9C0A240FBD26765D260918DE06BB
:1029700018EC627E2B1FC601BD39945D26054F5FA2
:102980007E2B1FCEE66FF603185858585818DE06EF
:1029900018E766E600C40F18E76418E66618EA64EC
:1029A000E700CEE6471C001018FE031DFC01AEDD5B
:1029B0000EFC01ACDD0C18EC0EDD0A18EC0CDD0889
:1029C000DE0C9C082607DC0E1A930A2717CEE6D0E9
:1029D000DC0AED02DC08ED0018EC0EFD01AE18EC8F
:1029E0000CFD01ACCEE6D418EC0AED0218EC08EDB3
:1029F00000CEE6471D0010CEE6EEE600BD039BCEFE
:102A0000E7F3E700BD038ECEE7F2E700CEE7EFC6BF
:102A1000F9E700CEE7EEC601E7006F00CC00013811
:102A2000DF0E38DF0C38DF0A38DF08308FC300676D
:102A30008F3538DF0639DE063C3C3C9F06F6B00396
:102A4000C5082735CEE208E60018DE0618E701CEF5
:102A5000E204E60018E70418E6015318E70218E656
:102A60000418E40218E704C508270ECEE24CE6007D
:102A7000C5012705CC000120024F5F383838DF063A
:102A800039DE063C9F067D031F2627CEE210C608CE
:102A9000E700FC0106FE0104BD37F2CEE210E600BD
:102AA000C508260ECEE206E600C50226058D875D26
:102AB00027E938DF0639DE063C9F06CEE648E60009
:102AC0004F5F2719C601373418CE0008183C18CEBE
:102AD0000000183CCC09FABD2DBB3838388DA2BD9A
:102AE0003D6CBD24D5CEE20A1C0002C60137341865
:102AF000CE0009183C18CE0000183CCC09FABD2DB8
:102B0000BBCEE206C602E70018CEE20A181C00029D
:102B1000FC012EFE012CBD381A383838CC000138A3
:102B2000DF0639DE063C3C3C3C3C349F06DE083C7C
:102B3000DE0A3CDE0C3CDE0E3CCEE66FF60318C42B
:102B40000F18DE0618E707E600C4F018E70118E6DC
:102B50000718EA01E700FE031DE64EF101EE23052A
:102B6000C601BD3994CEE64BE60018DE0618E7092B
:102B70008400C42018ED022632FE031DFC01E6DDB0
:102B80000EFC01E4DD0CEC46DD0AEC44DD0818DE49
:102B90000C189C082606DE0E9C0A270FBD2BB65D7E
:102BA000260918DE0618EC027E2DA6CEE647E600C2
:102BB00018DE0618E7098400C40118ED04263EFE5D
:102BC000031DEC26DD0EEC24DD0CFC01C6DD0AFC49
:102BD00001C4DD0818DE0C189C082606DE0E9C0ACF
:102BE000271BBD2B81FC0146FE0144BD381ABD26C2
:102BF000C85D260918DE0618EC047E2DA6C601BDA8
:102C000039945D26054F5F7E2DA6CEE66FF603183C
:102C10005858585818DE0618E708E600C40F18E799
:102C20000618E60818EA06E700CEE6471C0010186A
:102C3000FE031DFC01AEDD0EFC01ACDD0C18EC0E3C
:102C4000DD0A18EC0CDD08DE0C9C082607DC0E1AE9
:102C5000930A2717CEE6D0DC0AED02DC08ED001857
:102C6000EC0EFD01AE18EC0CFD01ACCEE6D418EC78
:102C70000AED0218EC08ED00CEE6471D0010CEE686
:102C8000EEE600BD039BCEE7F3E700BD038ECEE783
:102C9000F2E700CEE7EFC6F9E700CEE7EEC601E7C0
:102CA000006F00CC000138DF0E38DF0C38DF0A3847
:102CB000DF08383838383138DF0639DE063C9F0601
:102CC000DE083CDE0A3C188FDE06EC07DD0AEC0568
:102CD000DD08CEE2221AEF00CEE228DC0AED02DCAB
:102CE00008ED00CEE22118DE0618E60AE700CEE283
:102CF00010C601E700CEE220C603E700CEE210E6F0
:102D000000C50127F7C601E70038DF0A38DF0838B9
:102D1000DF0639DE063C9F06CEE222ED00CEE22839
:102D200018DE0618E606E700CEE221C608E700CE68
:102D3000E210C601E700CEE220C603E700CEE210B3
:102D4000E600C50127F7C601E70038DF0639DE06D1
:102D50003C9F06CEE222ED00CEE22918DE0618E600
:102D600006E700CEE221C604E700CEE210C601E786
:102D700000CEE220C603E700CEE210E600C5012740
:102D8000F7C601E70038DF0639DE063C9F06CEE2D3
:102D900022ED00CEE22A18DE0618E606E700CEE2B3
:102DA00021C602E700CEE210C601E700CEE220C64F
:102DB00003E700CEE210E600C50127F7C601E700F1
:102DC00038DF0639DE063C9F06CEE222ED00CEE279
:102DD0002B18DE0618E606E700CEE221C601E70062
:102DE000CEE210E700CEE220C603E700CEE210E616
:102DF00000C50127F7C601E70038DF0639DE063CCB
:102E00009F06DE083CDE0A3C188FDE06EC07DD0A72
:102E1000EC05DD08CEE2221AEF00CEE228DC0AED56
:102E200002DC08ED00CEE221C60FE700CEE210C6BC
:102E300001E700CEE220C603E700CEE210E600C5BF
:102E40000127F7C601E70038DF0A38DF0838DF0658
:102E500039DE063C9F06CEE222ED00CEE221C60F0F
:102E6000E700CEE210C601E700CEE220E700CEE2A6
:102E700010E600C50127F7C601E700CEE224EC0208
:102E8000EE00183818DF0639DE063C9F06CEE22237
:102E9000ED00CEE221C60FE700CEE210C601E7004A
:102EA000CEE220E700CEE210E600C50127F7C6011A
:102EB000E700CEE224E6004F38DF0639DE063C9F0D
:102EC00006CEE222ED00CEE221C60FE700CEE210F0
:102ED000C601E700CEE220E700CEE210E600C50121
:102EE00027F7C601E700CEE226E6004F38DF0639B5
:102EF000DE063C9F06DE083CDE0A3C188FDE06EC50
:102F000007DD0AEC05DD08188F05058BE0188FDC5E
:102F10000A18ED02DC0818ED0038DF0A38DF08383F
:102F2000DF0639DE063C9F06DE083CDE0A3CDE0C8E
:102F30003CDE0E3C05058BE0188F18DF0418DE061A
:102F400018EC07CDEE0518A40B18E40C8F18A40993
:102F500018E40A8FDD0EDF0C18EC0BCDEE0918DE3D
:102F600004BD4169DD0ADF0818EC02CDEE00940AC9
:102F7000D40B8F9408D4098F9A0EDA0F8F9A0CDA3B
:102F80000D8F18ED02CDEF0038DF0E38DF0C38DF83
:102F90000A38DF0838DF0639DE063C9F0605058B58
:102FA000E0188F18EC02CDEE00183818DF0639183B
:102FB000DE06183C9F0618DE08183C18DE0A183C8E
:102FC00018DE0C183C18DE0E183CDD0E18DE061854
:102FD000EC0BDD0A18EC09DD08C60F3734DC0E18DF
:102FE000CE0006BD41248A00CA0F37363CCC096F9B
:102FF000BD2DBB18DE0618EC07CDEE053718E60E22
:10300000D70118DE0033BD4124940AD40B8F9408F5
:10301000D4098FDD0EDF0CCC0A21BD2F5173000BBC
:1030200073000A730009730008940AD40B8F940884
:10303000D4098F9A0EDA0F8F9A0CDA0D8FDD0EC637
:103040000F373418DE0E183C3CCC0A21BD2DBB30A6
:103050008FC3000C8F3538DF0E38DF0C38DF0A38AD
:10306000DF0838DF0639DE063C349F06C6FFDE0681
:10307000E701CEE84C4F5FED02CC0200ED00CEE65A
:103080003FE600C5042607BD0609DE06E701DE06A9
:103090006D012B06CEE2081C0002CEE2044F5FED6C
:1030A00002CC0200ED003138DF0639DE063C9F0617
:1030B000CEE2044F5FED02CC0200ED00CEE2081D2F
:1030C000000238DF0639DE063C9F06CEE84C4F5F33
:1030D000ED02CC0800ED00CEE24CE600C50127026F
:1030E0008D6BCEE24CE600C502271CCEE63FE60023
:1030F000C5042613BD06095D2B0DCEE2491D00C097
:10310000C602CEE24CE700CEE2044F5FED02CC08EF
:1031100000ED0038DF0639DE063C9F067F031AF615
:10312000B001C501270DCEE24CC601E700CEE24852
:103130001C008038DF0639DE063C9F06CEE24CC616
:1031400002E700CEE2491C008038DF0639DE063C8B
:103150003C349F06C6FFDE06E701C601F7031AF6F8
:10316000B0036F02E703EC02C5082705C601F703A9
:103170001FCEE63FE600C5012728F601FCC5012663
:103180001ADE06EC028400C4071A830001260CC66E
:10319000013734CCB0B8BD05AB3131BD04B9DE0662
:1031A000E701DE066D012B0DCEE2481D00C0CEE228
:1031B0004CC601E700F6B003C50827037F031F389C
:1031C0003138DF0639DE063C9F06CEE63FE600CE0C
:1031D000E7F4C60CE70038DF0639DE063C9F063808
:1031E000DF0639DE063C9F06CEE84C4F5FED02CC91
:1031F0001000ED00CEE63FE600C5012703BD3650C6
:10320000CEE2044F5FED02CC1000ED0038DF06394E
:10321000DE063C3C3C3C3C3C9F06DE083CDE0A3C77
:10322000DE06E701C601F70350E6016F09E70AEE83
:10323000098C0006271F2E088C000427147E3641B7
:10324000DE06EE098C000827168C000A27157E364C
:1032500041C6042002C60518DE0618E702200EC685
:10326000062002C60718DE0618E702C60518E7039F
:1032700018E70418DE0618E601F1034F26037E3630
:1032800035CDEE098C000626037E353B2E088C00DA
:1032900004271E7E363518DE0618EC091A8300084E
:1032A00026037E353B1A83000A26037E353B7E3695
:1032B0003518CEE64418EC02DD0A18EC00DD08DC17
:1032C0000ADE0884FDC4FF18ED02CDEF0018EC0201
:1032D000DD0A18EC00DD08DC0ADE088A01CA0018E5
:1032E000ED02CDEF0018EC02DD0A18EC00DD08DC81
:1032F0000ADE0884FEC4FF18ED02CDEF00C603BD50
:10330000053318CE0118183CCEB0B83CCC01FCBD3A
:1033100040F37F0318CC0200FD031DBD039BC40FC7
:1033200018DE0618E70918CEE66F18E600C4F01894
:10333000DE0618E70518E60918EA05CEE66FE7008D
:103340005FBD3994BD1E26BD3D6CBD2468C60437E3
:103350003418CE0030183C18CE0000183CCE0001C6
:103360003CCE00003CCC0A44BD30AFC60437341814
:10337000CE0030183C18CE0000183CCE00013CCEE8
:1033800000003CCC0A45BD30AFC604373418CE002F
:1033900030183C18CE0000183CCE00003C3CCC0A53
:1033A00044BD30AF30C6223A35C604373418CE009B
:1033B00030183C18CE0000183CCE00003C3CCC0A33
:1033C00045BD30AFBD038E5858585818DE0618E773
:1033D0000918CEE66F18E600C40F18DE0618E706D7
:1033E00018E60918EA06CEE66FE700C601BD053308
:1033F00018DE0618E604373418E603BD36DDDE06AF
:10340000E602BD371EFC014AFE0148BD381ACEE770
:10341000FFC606E70030C60C3A35FC034DDD0AFC5A
:10342000034BDD082607DC0A26037E3635CEE2088C
:10343000DC0AED02DC08ED007E3635FC0132FE01CF
:1034400030BD381A18CEE64418EC02DD0A18EC003C
:10345000DC0A8438C400CE00002604DD00271818DA
:10346000EC02DD0A18EC00DD08DC0ADE088A02CA7C
:103470000018ED02CDEF0018DE0618E60437341808
:10348000E603BD36DDCEE7FFC607E70018DE061807
:10349000E602BD371E3131F6034FC10427037E36E5
:1034A00035C603BD053318CE0118183CCEB1D03C4B
:1034B000CC01FCBD40F37F0318CC0200FD031DBD11
:1034C000039BC40F18DE0618E70918CEE66F18E64E
:1034D00000C4F018DE0618E70718E60918EA07CE58
:1034E000E66FE700BD1E26BD3D6CBD24685FBD399B
:1034F00094BD038E5858585818DE0618E70918CEA0
:10350000E66F18E600C40F18DE0618E70818E6098B
:1035100018EA08CEE66FE7005FBD0533CEE208EC9F
:1035200002FD034DEC00FD034BCCFFFFED02CCEFA1
:103530007FED0038387F035018DE0618E601F703E8
:103540004F38DF0A38DF08383838383838DF06397E
:10355000DE063C349F06DE083CCEE7F5E600D709E0
:10356000CCFFFCDB0989001A830008226805C342EE
:103570001A188FCDEE006E00BD32C52058CEE7F48C
:10358000C604E700C605201FCEE7F4C606E700C65E
:10359000072014CEE7F4C608E700C6092009CEE7E5
:1035A000F4C60AE700C60B18DE0618E701CEE63FB0
:1035B000E600C502260ACEE7F418E601E70020156A
:1035C000D609BD3310CEE7F418DE0618E601E70091
:1035D000D609F7034F38DF083138DF0639DE063CFD
:1035E000349F06DE083CDE06E701E607D709CEE297
:1035F00011C604E700CEE7FF18DE0618E601E70073
:10360000CEE211E600C50427F7C604E700CEE7FEC8
:10361000E600D10926DF38DF083138DF0639DE065B
:103620003C9F06DE083CDE0A3CDE0C3CDE0E3CD74E
:1036300009C60F373418CE000F183C18CE000018FA
:103640003CCC096FBD2DBBC60718CEE26418E7005D
:10365000C6013734CE00004FD60937363CCC09FAC4
:10366000BD2DBB18CEE264181D0001308FC3000CC5
:103670008F35CEE211E6008400C4301A8300302674
:10368000F1D609BD3945CEE2641C000818CEE260CF
:1036900018EC02DD0E18EC00DD0CFC015EDD0AFC0E
:1036A000015CDD08DE0C9C0825152207DC0E1A9350
:1036B0000A230C18EC02FD015E18EC00FD015CCE43
:1036C000E211C630E70038DF0E38DF0C38DF0A3889
:1036D000DF0838DF0639DE063C9F06C60ABD331018
:1036E00038DF0639DE063C9F06C604BD331038DFDE
:1036F000063918DE06183C9F0618CEE23418ED0293
:10370000CDEF00CEE23C1C0002CEE206C602E7008E
:10371000CEE20A1D000238DF063918DE06183C9F8B
:103720000618DE08183C18DE0A183CDF087D035036
:10373000273118CE0004BD4124DD0ADF08CEE26443
:10374000C601E700C606E700CEE264C60EE700CE7B
:10375000E260EC02EE009C0825EE22361A930A2560
:10376000E7202FCEE234ED02DC08ED00CEE23C1C77
:103770000002CEE206C602E700CEE20A1D0002CE3B
:10378000E206E600C50227F7C602E700CEE20A1C01
:10379000000238DF0A38DF0838DF063918DE06187D
:1037A0003C9F0618DE08183C18DE0A183CDD0ADFCC
:1037B00008C60F373418CE000F183C18CE0000187A
:1037C0003CCC096FBD2DBBCC0A9ABD2F513838387F
:1037D00084FFC400CE00009C0826051A930A271611
:1037E000CC0A9ABD2F5184FFC400CE00009C08264D
:1037F000EF1A930A26EAC60F373418CE001F183C7A
:1038000018CE0000183CCC096FBD2DBBCC0A9ABD68
:103810002F5138383884FFC400CE00009C0826059C
:103820001A930A2716CC0A9ABD2F5184FFC400CEE2
:1038300000009C0826EF1A930A26EA38DF0A38DFD0
:103840000838DF0639DE063C9F06DE083CD709C68D
:103850000F3734CC096FBD2EC43131CC09FABD2FDE
:10386000BCD10926F6C61F3734CC096FBD2EC43132
:1038700031CC09FABD2FBCD10926F638DF0838DF74
:103880000639DE063C9F0638DF0639DE063C9F0619
:1038900038DF0639DE063C3C3C349F06DE083CDE61
:1038A0000A3CDE06E701CEE63EE600C50426037EBE
:1038B0003B22FE031DE64EF101EE25037E3AC8BD14
:1038C000039B565656C4C018DE0618E70518CEE608
:1038D0006C18E600C43F18DE0618E70318E6051862
:1038E000EA03CEE66CE700FE031DE603F101A32721
:1038F000115D260ECEE7F7C60DE700C60118E702F8
:10390000200618DE06186F02C60218CEE20618E777
:1039100000CEE20A1C0002DE06E6012709FC010ACD
:10392000FE0108BD37F218DE06186D02272BCEE225
:1039300006E600C5022622CEE211E600C501270AEE
:10394000C601E70018DE06186F02DE066D022709C1
:10395000CEE206E600C50227DE18DE06186D012756
:1039600009FC010AFE0108BD37F2CEE206C602E7F5
:1039700000CEE20A1C0002FE031D188FF601A3D739
:1039800009188F18DE06186D022713E603D10927E0
:10399000085D2605CEE7F7E7004F5F7E3B25E6038F
:1039A000D70B188FD609D10B188F270F5D260CCE99
:1039B000E7F4C60EE700D60BF701A3BD3B7B8D7283
:1039C000FE031DE64EF701EEFE031DE64EF101EE8D
:1039D0002350BD039B565656C4C018DE0618E70593
:1039E00018CEE66C18E600C43F18DE0618E7041887
:1039F000E60518EA04CEE66CE7008D368D7DFE0301
:103A00001DE64EF701EEE603F101A32715C10126DD
:103A100011CEE7F4C60CE700CEE7F76F00C601F75A
:103A200001A3CC000138DF0A38DF0838383138DF2D
:103A30000639DE063C3C9F0618FE031D18E605F11C
:103A400001A52732CEE63D585858C40818DF04189F
:103A5000DE0618E702E600C4F718E70118E60218C8
:103A6000EA0118DE04E70018E605F701A5FC0112DB
:103A7000FE0110BD381A3838DF0639DE063C308FBB
:103A8000C3FFEE8F359F06DE083CDE0A3CDE0C3CB1
:103A9000DE0E3CF601EE18DE0618E701FE031DE11E
:103AA0004E26037E3D30FE031DF6B0A418DE061838
:103AB000E705FCB0AA18ED08FCB0A818ED06F64220
:103AC0002C18E70AF6B001C502271218E601E14EEC
:103AD00024035C200D18DE06186A012008E64E1843
:103AE000DE0618E701DE064FE601DD0218DE0218E9
:103AF0008FC3B004188F0505C3B024ED1118DF0281
:103B0000188F18EC02DD0A18EC00DD0818DE06EC50
:103B100008EE06BD4169DD0EDF0C18E6055318E717
:103B20000BDC0ADE0818A40818E4098F18A406188C
:103B3000E4078F18ED0ECDEF0CDE02E60018E40569
:103B400018E71018E60A2754CEE67CEC02DD0AECF2
:103B500000DD08DC0ADE08940ED40F8F940CD40D1F
:103B60008FDD0ADF04CEE68BE60054545418E40BD4
:103B700018E702DC0A18AA0E18EA0FDF02DE048F2B
:103B800018AA0C18EA0D8F18CEE67818ED02CDEFC2
:103B90000018DE0618E60218EA102052CEE678EC8D
:103BA00002DD0AEC00DD08DC0ADE08940ED40F8F7B
:103BB000940CD40D8FDD0ADF04CEE68BE60018DE10
:103BC0000618E40B18E702DC0A18AA0E18EA0FDF41
:103BD00002DE048F18AA0C18EA0D8F18CEE67C18A6
:103BE000ED02CDEF00DE06E602EA10585858DE027C
:103BF000E70018DE0618E60AC801F7422CCEE63FB9
:103C0000565656C4C018E711E600C43F18E703181B
:103C1000E61118EA03E700FC0116FE0114BD381A8C
:103C2000FE031D18DE0618E601E14E27037E3BA6C3
:103C3000BD039B58585858C430DE06E71118CEE62D
:103C40006C18E600C4CFE704E611EA0418E700FEAA
:103C5000031DE64EF701EE38DF0E38DF0C38DF0AC1
:103C600038DF0830C6123A3538DF0639DE063C3018
:103C70008FC3FFDE8F359F06DE083CDE0A3CDE0C7C
:103C80003CDE0E3CCEE63EE60018DE0618E702C536
:103C90000426037E3F2CFE031DCDEF03E652F10107
:103CA000F226037E3F2C186F0518E706DE0618EE95
:103CB00005188FC3B004188FF6B0A5E707EC05050B
:103CC00005ED08C3B024ED0ADD02DE02EC02DD0AD8
:103CD000EC00DD08FCB0AEDD0EFCB0ACDD0CF64255
:103CE0002C18DF0418DE0618E70DDC0EDE0CBD41D3
:103CF0006918ED1FCDEF1D18E6075318E721DC0A00
:103D0000DE08940ED40F8F940CD40D8FDD0EDF0CD3
:103D100018DF0218DE0418E600DE02E407E7223CA2
:103D2000DE02E60D382766CEE67CEC02DD0AEC000A
:103D3000DD08DC0ADE0818DE0618DF0418A41F18E8
:103D4000E4208F18A41D18E41E8FDD0ADF04CEE6E0
:103D50008BE60018E70E54545418E42118E70CDCE5
:103D60000A9A0EDA0FDF02DE048F9A0CDA0D8F1832
:103D7000ED11CDEF0F18CEE678DE06EC1118ED024E
:103D8000EC0F18ED00E60CEA22E7132067CEE67888
:103D9000EC02DD0AEC00DD08DC0ADE0818DE06189D
:103DA000DF0418DE0218A41F18E4208F18A41D18C1
:103DB000E41E8F18DE04DD0ADF04CEE68BE6001871
:103DC000E42118E70CDC0A9A0EDA0FDF02DE048F1A
:103DD0009A0CDA0D8F18ED16CDEF1418CEE67CDEB6
:103DE0000618ED02EC1418ED00E60CEA22E718586C
:103DF0005858E719DE02E70018DE0618E60DC8017C
:103E000018E71AF7422CCEE63F565656C4C018E7BC
:103E10001BE600C43F18EA1B18E71CE70018EE0376
:103E200018EC52FD01F218EC50FD01F038DF0E38AD
:103E3000DF0C38DF0A38DF08308FC300228F3538B7
:103E4000DF0639DE063C3C9F06CEE84C4F5FED02B4
:103E5000CC0400ED0018CEE70618E600DE06E70108
:103E600018DF0218CEE70718E600C40FE7026D015D
:103E7000263DC1022739F603512634CEE85BE60021
:103E8000C4CFCA20E70018E600C40FDE06E702DF51
:103E900004DE02E600DE04E701E602C1022708E6CE
:103EA0000126048D30201DCEE85B1D00302015DE7C
:103EB000066D01260FE602C1022609F60351C10173
:103EC00026028D70CEE2044F5FED02CC0400ED00BF
:103ED0003838DF0639DE063C9F06CEE85BE600C4D4
:103EE000CFCA20E7001C00021C0004C60F3734189C
:103EF000CEFFFF183C183CCC0214BD2DBBFC011AB0
:103F0000FE0118BD381AC60F373418CEFFFF183C13
:103F1000183CCC0215BD2DBBC601F7035118CEE8E5
:103F20005B18E600C4CFCA1018E70030C60C3A355B
:103F300038DF0639DE063C9F06CEE85B1C0030C643
:103F40000F373418CE0000183C183CCC0215BD2D9C
:103F5000BBFC011AFE0118BD381AC60F373418CE43
:103F60000000183C183CCC0214BD2DBBFC011AFE0D
:103F70000118BD381ACEE6461C0001308FC3000C74
:103F80008F35CEE706E600C10126F7CEE6461D00D6
:103F90000118CEE7D3181C0020CEE85CCCFFFFED63
:103FA000024F5FED006F036F026F016F00DF04CE01
:103FB000E85B1D00021D0004DE04CCFFFFED024F94
:103FC0005FED006F036F026F016F00181D0020C6C8
:103FD0000F3734FE03543CFE03523CCC2454BD2D19
:103FE000BB7F035118CEE85B181D003038383838D5
:103FF000DF0639DE063C9F06188F18DF0418DE0640
:10400000CDEE0518EC0718DE041A830000270F36E2
:10401000A60018A700081808328F098F26F1188FFC
:1040200038DF0639188F4FC41F188F2709058F599D
:10403000498F180926F739188F4FC41F188F270A80
:104040008F47568F4656180926F639188F4FC41FCA
:10405000188F27098F048F4656180926F7395343BE
:104060008F5343088F2601083953438F53438F39A9
:104070000E3E20FC0B8909F60A260A3F0A580A71EF
:104080000B890A0F0A9F0B820B820B820B820B8219
:104090000B820B820AB80ACF0AE40AE90AE90AE9A4
:1040A0000B0F0B230B280B2D0B320B820B820B8279
:1040B0000B820B820B4E0B820B820B820B820B82CC
:1040C0000B820B820B820B820B820B820B820B8288
:1040D0000B820B820B820B820B820B820B820B8278
:1040E0000B820B820B820B820B820B820B820B8268
:1040F0000B820B820B5A0AFA0B020B020B820B8209
:104100000B820B820B820B820B820B820B820B8247
:104110000B820B820B820B700B79367D36D536887D
:0C41200036D5369336D5369E36D5367827
:00000001FF
