:10000000000000420002625A0000010000000002ED
:1000100000000064000000C80000000100000000B3
:1000200000000000000000000000000000000001CF
:1000300000005B8D000000000000000000000000D8
:10004000000000000000013C00001E8400000010C1
:10005000000000000000000100000000000000009F
:10006000000000000000000100000000000000008F
:100070000000000000000000000000000000000080
:100080000000000000000000000000000000000070
:100090000000000000000000000000000000000060
:1000A0000000000000000000000000000000000050
:1000B0000000000000000000000000000000000040
:1000C0000000000000000000000000000000000030
:1000D0000000000000000000000000000000000020
:1000E0000000000000000000000000000000000010
:1000F0000000000000000000000000000000000000
:1001000000000000000000000000000000000000EF
:1001100000000000000000000000000000000000DF
:1001200000000000000000000000000000000000CF
:1001300000000000000000000000000000000000BF
:1001400000000000000000000000000000000000AF
:10015000000000000000000000000000000000009F
:10016000000000000000000000000000000000008F
:10017000000000000000000000000000000000007F
:10018000000000000000000000000000000000006F
:10019000000000000000000000000000000000005F
:1001A000000000000000000000000000000000004F
:1001B000000000000000000000000000000000003F
:1001C000000000000000000000000000000000002F
:1001D000000000000000000000000000000000001F
:1001E000000000000000000000000000000000000F
:1001F00000000000000000000000000000000000FF
:1002000000000000000000000000000000000000EE
:1002100000000000000000000000000000000000DE
:100220000000000000085031B108713211332E086F
:10023000B308D708F80919093A095B097C2527256D
:1002400060099D09BE0BB60C0F0C3C0000000004B9
:10025000008EAFFCBD06A5CE001018CE0000200811
:10026000A60018A7000818088C001025F3CC00047D
:10027000270BCE42C56F000883000126F8BD06B1EA
:10028000BD420920FB0357036DDE063C9F064FF677
:10029000031738DF0639DE063C9F064FF603183891
:1002A000DF0639DE063C9F064FF603170505C3013E
:1002B0001E8FEC00C30001ED0038DF0639DE063C7E
:1002C0009F06F6B001C5042705BD2D072003BD2BF1
:1002D0006D4F38DF0639DE063C349F06DE06E70147
:1002E000CE03143A6D00262418DE06F70318C65C08
:1002F00018A6013DC30200FD031D8DC15D270DF64B
:100300000318F703178D9CCC00012003CC00FF31AC
:1003100038DF0639DE063C9F068DA2CC000138DFAF
:100320000639DE063C9F06F60317C1012305CC0003
:100330000220045C8DA04F38DF0639DE063C9F06A4
:10034000F603172605CC000220045A8D894F38DFAA
:100350000639DE063C9F06C602CE03166D0027074F
:100360006F00CC000120085A095D2AF0CC00023849
:10037000DF0639DE063C3C9F06C60218CE0316DEB9
:10038000061AEF01DE06EE016D00261EF1031726A8
:10039000098DA8C10127034F2021C60118DE0618C8
:1003A000EE0118E700CC000120115ADE061AEE011A
:1003B00018091AEF015D26CCCC00023838DF063967
:1003C000DE063C9F06DE083CDE0A3C7D031B261051
:1003D0007D031A2713F601FCC501260CC602200B6B
:1003E000CC00FF204B4F2048F60319D70B7F0009A4
:1003F000CE03145FE7007C000908D609C10223F38D
:100400005FD709D10B240FBD04735D2BD37C00098A
:10041000D609D10B25F1F60317F1031C240FBD04F7
:1004200022C10126C0F60317F1031C25F1CC0001FF
:1004300038DF0A38DF0838DF0639DE063C9F06DE83
:10044000083CDE0A3CDE0C3CDE0E3C18DF0418CE15
:10045000E66CCE00004F18DF0218DE0418CE001A3A
:10046000BD41BD4F5F8F840CC4008FDD0EDF0C18C3
:10047000DF0418DE0218EC02DD0A18EC00DD08DCEF
:100480000ADE088F84F3C4FF8FDF08DC0EDE0C9ACF
:100490000ADA0B8F9A08DA098F18ED02CDEF0018EF
:1004A000DE0438DF0E38DF0C38DF0A38DF0838DFCB
:1004B0000639DE063C3C9F06DE06ED01C603BD059F
:1004C0003A18CE0118183CDE06EE013CCC01FCBD0A
:1004D000418C7F0318CC0200FD031DBD041418DEFF
:1004E0000618E608BD053A7F0317BD04C03838CCAE
:1004F00000013838DF0639DE063C9F06C1022305BD
:10050000CC00FF2007F70319BD04C04F38DF0639C0
:10051000DE063C9F06F603195C8DDC4F38DF06399A
:10052000DE063C9F06BD3262BD04C04F38DF06398F
:10053000DE063C9F068F8FC1018F2305CC00FF2074
:100540000DC602DF00D001F7031CBD04C04F38DF29
:100550000639DE063C349F067F01537F01527F013E
:10056000517F01505FF70318F70317CE01183C18AD
:10057000CEB0B8183CCC01FCBD418CF6031818DE97
:100580000618E701C65C18A6013DC30200FD031D65
:10059000CE005C3C3736CC01A0BD418C38383838B1
:1005A0003138DF0639DE063C9F060F4F5F38DF0625
:1005B00039DE063C9F06DE083CDE0A3CDE0C3CDEF3
:1005C0000E3C7F000B7F000A7F00097F0008078434
:1005D0003F84BF067F42C67F42C8BD0652F6B001C7
:1005E000C5012707CEE248C685E700CEE20EC60267
:1005F000E700F6B000C1FF27155D260B4F5FDD0A4F
:10060000CC0200DD082007CEE249C691E70018CEF3
:10061000E208DC0ADE088A07CA008F8A58CAB08F4F
:10062000BD420218ED02CDEF0018EC02FD032218C6
:10063000EC00FD0320188FF60317188F18DF0A7FD0
:10064000000A7F00097F0008DC0ADE0818CE0004DB
:10065000BD41BDD30A8FD90999088FDD0ADF08BDD6
:100660000389CE00004F18CE0008BD41BDD30A8FCC
:10067000D90999088FDD0ADF08BD0389CE00004F34
:1006800018CE000CBD41BDD30A8FD90999088FDD62
:100690000ADF08BD0389CE00004FDD0C7F000F7F0D
:1006A000000EDC0ADE08D30E8FD90D990C8FDD0AFF
:1006B000DF08BD0389CE00004F18CE0015BD41BD37
:1006C000D30A8FD90999088FDD0ADF08BD0389CEC7
:1006D00000004F18CE001CBD41BDD30A8FD9099927
:1006E000088FDD0ADF08BD0389CE00004F18CE0059
:1006F0001EBD41BDD30A8FD90999088FDF08CEE608
:100700006CED02DC08ED00C601BD053A0ECF20FC01
:10071000DE063CDE003CDE023CDE043C9F0638DFA9
:100720000438DF0238DF0038DF063BDE063CDE003F
:100730003CDE023CDE043C9F06CEE2196F0007BAA5
:1007400000800638DF0438DF0238DF0038DF063B80
:10075000DE063C9F06CEE84C4F5FED02CC0100ED7B
:1007600000CEE2044F5FED02CC0100ED0038DF0661
:1007700039DE063C9F06CEE84C4F5FED02CC04000C
:10078000ED00CEE2044F5FED02CC0400ED0038DF57
:100790000639DE063C9F06CEE84CCC0800ED024F41
:1007A0005FED00CEE204CC0800ED024F5FED0038B3
:1007B000DF0639DE063C9F06CEE84C4F5FED02CCEB
:1007C0002000ED00BD3325CEE2044F5FED02CC20CA
:1007D00000ED0038DF0639DE063C9F06CEE84C4FC0
:1007E0005FED02CC4000ED00CEE2044F5FED02CCA5
:1007F0004000ED0038DF0639DE063C9F06CEE84CAF
:100800004F5FED02CC8000ED00CEE2044F5FED02C1
:10081000CC8000ED0038DF0639DE063C9F06CEE8CE
:100820004C4F5FED02CC0001ED00CEE2044F5FEDD6
:1008300002CC0001ED0038DF0639DE063C9F06CE13
:10084000E84C4F5FED02CC0002ED00CEE2044F5FBA
:10085000ED02CC0002ED0038DF0639DE063C9F06D3
:10086000CEE84C4F5FED02CC0004ED00CEE2044F29
:100870005FED02CC0004ED0038DF0639DE063C9F58
:1008800006CEE84C4F5FED02CC0008ED00CEE2044E
:100890004F5FED02CC0008ED0038DF0639DE063C84
:1008A0009F06CEE84C4F5FED02CC0040ED00CEE25B
:1008B000044F5FED02CC0040ED0038DF0639DE0664
:1008C0003C349F06CEE84C4F5FED02CC0080ED003B
:1008D000CEE244E600F70324271ACEE847E700C635
:1008E00001373418CE0000183C183CCC0083BD2ED4
:1008F000B2383838F6032418DE0618E7014F1A8399
:10090000005223037E0B9E05C3420D188FCDEE00CF
:100910006E00CEE246C602E700CEE2044F5FED0273
:10092000CC0080ED00BD100F7E0BA5F642C7CEE2D5
:1009300046E700CEE2044F5FED02CC0080ED007E82
:100940000BA5CEE246C6FFE700CEE2044F5FED0204
:10095000CC0080ED00BD0E417E0BA5CEE246C60464
:10096000E700CEE2044F5FED02CC0080ED00BD0E4B
:100970005D7E0BA5CEE246C605E700CEE2044F5FE2
:10098000ED02CC0080ED00BD0E797E0BA5CEE246D7
:10099000C606E700CEE2044F5FED02CC0080ED001A
:1009A000BD13DBBD2527BD2527BD2527BD2527BDBB
:1009B0002527BD2527BD25277E0BA5CEE246C609E6
:1009C000E700CEE2044F5FED02CC0080ED00BD0EEB
:1009D000A07E0BA5CEE208EC02FD0322EC00FD0395
:1009E00020CCFFFFED02CCFF7F200BCEE208FC0302
:1009F00022ED02FC0320ED00CEE245C6017E0BA3F2
:100A0000BD0452200B18DE0618E601CBEDBD05F73C
:100A1000CEE2457E0BA37F031CBD04C020DA18DEA6
:100A20000618E601CBBEBD063020E5F6B000C1FFDA
:100A300027C65D2605BD31F620BEBD328220B9BD78
:100A4000062020CCBD042220C7BD043B20C24F5F3E
:100A5000FD011EFD011CFD0122FD0120FD0126FD01
:100A60000124FD012AFD0128208E7F031BC60237C9
:100A700034CCB2E8200A7F031BC6013734CCB0B8AF
:100A8000BD05B2CEE245E700313120197F031BBD21
:100A900037A87E0AF87F031BBD37B67E0AF8CEE280
:100AA00045C6FEE700CEE2044F5FED02CC0080EDCC
:100AB000003138DF0639DE063C9F06DE083CDE0AE0
:100AC0003CCEE84CCC0100ED024F5FED00CEE204DD
:100AD000CC0100ED024F5FED00F642C6CEE246E7E4
:100AE000005CF742C6C106261C18CEE20818EC02CC
:100AF000DD0A18EC00DD08DC0ADE088A01CA0018ED
:100B0000ED02CDEF0038DF0A38DF0838DF0639DEC6
:100B1000063C9F06CEE84CCC0200ED024F5FED0094
:100B2000CEE204CC0200ED024F5FED00F642C8CEEB
:100B3000E246E7005CF742C838DF0639DE063C9F34
:100B400006CEE63FE600C5012750CEE801E6004F9D
:100B50001A83000627232E081A8300042710203A40
:100B60001A830008271E1A83000A2723202CCEE8A8
:100B700000C604E700C605201FCEE800C606E70051
:100B8000C6072014CEE800C608E700C6092009CE33
:100B9000E800C60AE700C60BE700CEE204CC04007A
:100BA000ED024F5FED00CEE84CCC0400ED024F5F4C
:100BB000ED0038DF0639DE063C9F06CEE84CCC104F
:100BC00000ED024F5FED00CEE204CC1000ED024FCD
:100BD0005FED0038DF0639DE063CDE003CDE023C1D
:100BE000DE043C9F06DE083CDE0A3CDE0C3CDE0EEA
:100BF0003CCEE208EC02DD0AEC00DD08CEE204ECBB
:100C000002DD0EEC00DD0CDC0ADE08BD4202940EB3
:100C1000D40F8F940CD40D8FDD0EDF0C4F5F8F84BB
:100C200010C4008F8C00002604DD002703BD332E86
:100C3000CEE208EC02DD0AEC00DD08DC0ADE08BDCD
:100C40004202940ED40F8F940CD40D8FDD0EDF0C66
:100C50004F5F8F8402C4008F8C00002604DD0027C4
:100C600003BD31B1DE0C4F5F8F8408C4008F8C0050
:100C7000002604DD002703BD3211DC0E8404C4000D
:100C8000CE00002604DD002703BD0C3CDC0E8401F1
:100C9000C400CE00002604DD002703BD0BB6DC0E29
:100CA0008402C400CE00002604DD002703BD0C0F23
:100CB000DE0C4F5F8F8400C4108F8C00002604DD93
:100CC000002703BD2527DE0C4F5F8F8400C4208FD3
:100CD0008C00002604DD002703BD2560DE0C4F5F7D
:100CE0008F8440C4008F8C00002604DD002703BDE4
:100CF00008D7DE0C4F5F8F8404C4008F8C00002661
:100D000004DD002703BD0871DE0C4F5F8F8400C433
:100D1000808F8C00002604DD002703BD09BECEE2D3
:100D200044E6002703BD09BE38DF0E38DF0C38DF8C
:100D30000A38DF0838DF0438DF0238DF0038DF0622
:100D40003BDE063C9F06CEE234CC0064ED024F5FF2
:100D5000ED00CEE23CC602E70038DF0639DE063C95
:100D60009F06CEE230CC000AED024F5FED00CEE2EE
:100D70003CC601E70038DF0639DE063C9F06CC00A2
:100D80001037364F5F3736CC0180BD30E7CC01805D
:100D9000BD318FCEE246C6AAE700383838DF0639C3
:100DA000DE063C3C9F06DE083CDE0A3CDE0C3CDEF8
:100DB0000E3CCC0212BD318FDD0EDF0CC41F18DEDD
:100DC0000618E701DC0E8400C460CE000018CE00D7
:100DD00005BD41E418DE0618E702DC0EDE0C18CE75
:100DE0000007BD41E48C000026061A830001273568
:100DF0008C000026061A83000125188C00002606A8
:100E00001A83000227348C000026581A8300032717
:100E10003B2050DE064FE602050505050505EA0103
:100E2000CEE248203A18DE064F18E6020505050511
:100E3000050518EA01CEE2492025DE064FE6020547
:100E40000505050505EA01CEE24A201318DE064F26
:100E500018E60205050505050518EA01CEE24BCAAC
:100E600020E700CEE8484F5FED02CC0800ED0038E7
:100E7000DF0E38DF0C38DF0A38DF083838DF063994
:100E8000DE063C9F06DE083CDE0A3C188FDE06ECE0
:100E900007DD0AEC05DD08CEE2221AEF00CEE228DB
:100EA000DC0AED02DC08ED00CEE22118DE0618E6D1
:100EB0000AE700CEE210C601E700CEE220C603E753
:100EC00000CEE210E600C50127F7C601E70038DFD3
:100ED0000A38DF0838DF0639DE063C9F06CEE222FC
:100EE000ED00CEE221C60FE700CEE210C601E7001A
:100EF000CEE220E700CEE210E600C50127F7C601EA
:100F0000E700CEE224EC02EE00183818DF0639DEE6
:100F1000063C3C9F06DE083CDE0A3CDE0C3CDE0E56
:100F20003CCC0001DD0E4F5FDD0CCE020818DE0662
:100F3000CDEF01DC0E05DE0C8F59498FC300012473
:100F40000108DD0EDF0CC60F373418DE0E183C1812
:100F5000DE0C183CDE06EC01BD0F80383838DE06AA
:100F60001AEE0118081AEF01188C021323C57F002E
:100F70000F7F000E7F000D7F000CCE020818DE06EA
:100F8000CDEF0118DE0618EC01BD0FD8DD0ADF0831
:100F9000DC0E05DE0C8F59498FC30001240108DDEA
:100FA0000EDF0CDE089C0C2607DC0A1A930E2707BE
:100FB000CEE246C6FFE70018DE06CDEE0108CDEF13
:100FC000018C021323BDCEE246C6AAE70038DF0E2D
:100FD00038DF0C38DF0A38DF083838DF0639DE063C
:100FE0003C9F06CC0183BD318F8400C402CE00003B
:100FF00018CE0001BD41D08C000026E71A83000105
:1010000026E138DF0639DE063C9F06CC0001373684
:101010004F5F373618CE0000183C183CCC0180BD1D
:10102000311ACC000137364F5F373618CE0018180A
:101030003C18CE0000183CCC0184BD311A308FC35F
:1010400000108F3538DF0639DE063C9F06DE083C8F
:10105000DE0A3CDD00270B4F5FDD0ACC0080DD0897
:10106000200C7F000B7F000A7F00097F000818CE4C
:101070000000183C18CE0080183CDC0A3736DC082B
:101080003736CC0181BD311A3838383838DF0A3864
:10109000DF0838DF0639DE063C9F06DE083CDE0A44
:1010A0003CDD00270B4F5FDD0ACC0100DD08200C82
:1010B0007F000B7F000A7F00097F000818CE000028
:1010C000183C18CE0100183CDC0A3736DC083736ED
:1010D000CC0181BD311A3838383838DF0A38DF089A
:1010E00038DF063918DE06183C9F068F8403C4FFDC
:1010F0008F18CEFFFF183C18CE03FF183C37363C44
:10110000CC0182BD311A4F5F3736CC02003736181A
:10111000CE0000183C18CE0200183CCC0181BD3135
:101120001ABD10DE4F5F3736CC0200373618CEFFBF
:10113000FF183C18CEFDFF183CCC0181BD311A30A0
:101140008FC300188F3538DF0639DE063C9F06CC8A
:101150000001BD1148BD10DE4F5FBD114838DF06EC
:101160003918DE06183C9F068401C4FFCE00001823
:10117000CE01FF183C18CE0000183C37363CCC019D
:1011800081BD311A4F5F3736CC0400373618CE0098
:1011900000183C18CE0400183CCC0181BD311ABDAA
:1011A00010DE4F5F3736CC0400373618CE000018FB
:1011B0003C183CCC0181BD311A308FC300188F35EB
:1011C00038DF063918DE06183C9F0618DE08183C82
:1011D00018DE0A183C18DE0C183C18DE0E183CDD30
:1011E0000E18DE0618EC07DD0A18EC05DD08DC0E2B
:1011F00018CE0004BD41BD8403C4F0CE000018CE5B
:1012000003F0183C18CE0000183C37363CCC018067
:10121000BD311ADC0ADE088F8403C4FF8F18CEFFAD
:10122000FF183C18CE03FF183C37363CCC0182BD7A
:10123000311A308FC300108F3538DF0E38DF0C388D
:10124000DF0A38DF0838DF063918DE06183C9F064B
:1012500018DE08183C18DE0A183C8C00002604DD55
:1012600000270BCC0008DD0A4F5FDD08200C7F0053
:101270000B7F000A7F00097F000818CE0008183C89
:1012800018CE0000183CDC0A3736DC083736CC01B3
:1012900080BD311A18CE0000183C18CE0080183CD2
:1012A0004F5F3736CC00803736CC0181BD311ABD57
:1012B00010DE18CE0000183C18CE0080183C4F5F9E
:1012C00037363736CC0181BD311A308FC300188FC5
:1012D0003538DF0A38DF0838DF0639DE063C9F067E
:1012E000DE083CDE0A3CDE0C3CDE0E3CBD11064F47
:1012F0005FBD124ACC0001CE0000BD1261C6FF18CE
:10130000CEE24618E700CC0002CE0000BD1261C656
:10131000FE18CEE24618E700CC0004CE0000BD1255
:1013200061C6FD18CEE24618E700CC0008CE0000EA
:10133000BD1261C6FC18CEE24618E700CC0040CED4
:101340000000BD1261C6FB18CEE24618E700CC00D3
:1013500080CE0000BD1261C6FA18CEE24618E70042
:101360007F000B7F000A7F00097F0008CC0001CEC0
:101370000000BD1261CC0001CE0000BD1349DE0AA1
:101380003C3CCCC0003736CC00053736CC0001BD24
:1013900012C4CC0001BD1196BD10DE4F5FBD119689
:1013A000DC0ADE08BD1349CC0002CE0000BD12618C
:1013B000C6F818CEE24618E700CC0001CE0000BD0A
:1013C0001261CC0001CE0000BD1349CC0001BD115B
:1013D00096BD10DE4F5FBD1196BD10DEDC0ADE0843
:1013E000BD1349BD10DECC0002CE0000BD1261CCA1
:1013F0000001CE0000BD1261DE0E3CDE0C3CDC0ABA
:1014000037363736CC0184BD311ABD10DECC000230
:10141000CE0000BD1261CC0001BD124ACC0001BD5E
:101420001148BD10DE4F5FBD1148C6F618CEE2462A
:1014300018E700CC0001BD1148BD10DE4F5FBD11A3
:1014400048C6F518CEE24618E70030C6103A3538DF
:10145000DF0E38DF0C38DF0A38DF0838DF0639DE08
:10146000063C9F06CEE60FE600C40227F738DF06EB
:1014700039DE063C9F06C601CEE604E7008DE0CECD
:10148000E6046F0038DF0639DE063C9F06CEE6072D
:10149000E700C604CEE604E7008DC4CEE6046F0084
:1014A00038DF0639DE063C9F064F5F3736CC0080BA
:1014B000373618CE0000183C18CE0080183CCC01FE
:1014C00081BD311A8D994F5F3736CC008037361881
:1014D000CE0000183C183CCC0181BD311A308FC3BE
:1014E00000108F3538DF0639DE063C3C9F06CEE61D
:1014F00003585858C40818DE0618E702E600C4F777
:1015000018E70118E60218EA01E7008D973838DF7E
:101510000639DE063C3C9F06CEE6131C0001CEE6F3
:1015200003585858C40818DE0618E702E600C4F746
:1015300018E70118E60218EA01E700CEE6061C00EB
:1015400008FC014EFE014CBD37C418CEE60F18E66C
:1015500000C5012609CEE206E600C50227EC18E622
:1015600000C50127035F2002C601CEE6061D000864
:10157000CEE6131D00014F3838DF0639DE063C9FEA
:1015800006CEE6031C0001CC0006CE0000BD37EC01
:10159000CEE6031D000138DF0639DE063C3C3C3C4C
:1015A0009F06DE083CDE0A3CDE0C3CDE0E3CBD0342
:1015B00096CE00004F18CE0015BD41BD4F5F8F8401
:1015C00003C4E08FDD0EDF0C18CEE66C18EC02DDF4
:1015D0000A18EC00DD08DC0ADE088F84FCC41F8FCB
:1015E000DF08DC0EDE0C9A0ADA0B8F9A08DA098F14
:1015F00018ED02CDEF00C601BD158818DE06186F84
:1016000001CEE603E600C503261CFC0166FE01646C
:101610002604DD00270BC60FBD1612DE06E70120EB
:1016200005C60FBD15E818DE06186D0127037E17E5
:10163000DACE03F33CCE07F03CFE031DEC12373646
:10164000EE103CCC0180BD311A18CEF000183C18C9
:10165000CE003F183CFE031DEC163736EE143CCC92
:101660000181BD311A18FE031DCEE60818EC1AEDF3
:101670000218EC18ED00CEE79018EC1EED0218EC05
:101680001CED00CEE79418EC22ED0218EC20ED00E2
:10169000BD1571CEE603E60018DE0618E7068400E5
:1016A000C40318ED02308FC300108F35DD002624EF
:1016B000FC0166FE01642604DD00270F18DE061813
:1016C000E603BD1612DE06E701200918DE0618E65D
:1016D00003BD15E8DE066D0127044F5F2046FE03BB
:1016E0001DE617BD1588BD0396C41F18DE0618E752
:1016F0000518CEE66D18E600C4E018DE0618E7040B
:1017000018E60518EA04CEE66DE700FC031DC300E9
:101710001018CE0018183C3736CC01B0BD418CCC27
:101720000001383838DF0E38DF0C38DF0A38DF08C0
:1017300038383838DF0639DE063C9F06CEE6041C12
:101740000002BD155FFC010EFE010CBD37C4CEE6E4
:10175000041D0002CEE206E600C50227F7C602E736
:1017600000CEE20A1C000238DF0639DE063C308F6C
:10177000C3FFEB8F359F06DE083CDE0A3CDE0C3CE7
:10178000DE0E3CBD0396CE00004F18CE0015BD41C5
:10179000BD4F5F8F8403C4E08FDD0EDF0C18CEE6F3
:1017A0006C18EC02DD0A18EC00DD08DC0ADE088F9C
:1017B00084FCC41F8FDF08DC0EDE0C9A0ADA0B8F64
:1017C0009A08DA098F18ED02CDEF00CEE7931D00DD
:1017D00001CEE608EC02DD0EEC00DD0CFE031D1868
:1017E000DE06CDEF13EC1ADD0AEC18DD08DC0ADEAC
:1017F000088F8403C4FF8F18ED0BCDEF09DE0C4F6B
:101800005F8F8410C4008F18ED0FCDEF0DDC0EDE5E
:101810000C8F8403C4FF8FDF0C18ED03CDEF01DFC5
:1018200004DE06DF02DE0418CE0003BD41E418DF4B
:101830000418DE0218ED03CDEF01DC0A18ED0718DD
:10184000EC0918ED05DC0ACDEE0518DE0418CE0013
:1018500005BD41E418DF0418DE0218ED07CDEF05E1
:1018600018EE13CDEE104F5F8F8407C4F08F18CEA3
:101870000014BD41E418DF0418DE0218E711CEE6BB
:1018800000EC02EC00EC02EE004F5F8F8407C4F026
:101890008F18DE0418CE0014BD41E4D7093CDE02E7
:1018A000E11138243F7C00097F00037F0002DD0442
:1018B000DC023736DC04CC07F03736DC04CE00001F
:1018C0004FD60918CE0014BD41BD37363CCC01803F
:1018D000BD311ABD15A438383838D60918DE0618B7
:1018E000E11125C1DC0C18DE06CDA30923037E1B04
:1018F00009250ADC0ECDA30B25037E1B0918DE0685
:1019000018EC0705DD0A18EC055949DD08DC0ADE8C
:101910000818A30B8F18E20A18A2098FBD41F7DD42
:101920000ADF08DC0EDE0C18E3038F18E90218A9A1
:10193000018FDD0EDF0C9C08250722481A930A242C
:1019400043DC0EDE0C18DE0618AA0F18EA108F18FA
:10195000AA0D18EA0E8F18CEE60818ED02CDEF009A
:10196000BD1837DC0EDE0C18DE0618E3038F18E90D
:101970000218A9018FDD0EDF0C9C0825C422051A70
:10198000930A25BDDC0EDE0C18DE0618A3038F18A3
:10199000E20218A2018F18E3078F18E90618A905BB
:1019A0008FDD0EDF0CDC0CCDA309250F23037E1C7D
:1019B00008DC0ECDA30B25037E1C08DC0EDE0C1804
:1019C000DE0618AA0F18EA108F18AA0D18EA0E8F53
:1019D00018CEE60818ED02CDEF00BD1837DC0EDE9C
:1019E0000C18DE0618E3078F18E90618A9058FDD25
:1019F0000EDF0CDC0CCDA30925C123037E1C08DC03
:101A00000ECDA30B25B57E1C0818DE0618EC0705C5
:101A1000CDEE058F59498F18E30B8F18E90A18A9E5
:101A2000098FDD0ADF08DC0EDE0C18A3038F18E235
:101A30000218A2018FDD0EDF0C9C08220FDC0C1AAD
:101A40009308254B18DE0E189C0A2343DC0EDE0C8F
:101A500018DE0618AA0F18EA108F18AA0D18EA0E39
:101A60008F18CEE60818ED02CDEF00BD1837DC0E5A
:101A7000DE0C18DE0618A3038F18E20218A2018FED
:101A8000DD0EDF0C9C0822C425051A930A22BDDC5A
:101A90000EDE0C18DE0618E3038F18E90218A90100
:101AA0008F18A3078F18E20618A2058FDD0EDF0C32
:101AB000DC0CCDA3092209254FDC0ECDA30B234856
:101AC000DC0EDE0C18DE0618AA0F18EA108F18AA12
:101AD0000D18EA0E8F18CEE60818ED02CDEF00BD06
:101AE0001837DC0EDE0C18DE0618A3078F18E20686
:101AF00018A2058FDD0EDF0CDC0CCDA30922C12559
:101B000007DC0ECDA30B22B818FE031DCEE6081885
:101B1000EC1AED0218EC18ED00BD1837CEE600EC1B
:101B200002EE004F5F8F8407C4F08F18CE0014BD03
:101B300041E4D709DD04DC06DD02DC043CDE02E121
:101B4000113823327A0009CE00003CCE07F03CCE9B
:101B500000004FD60918CE0014BD41BD37363CCC2D
:101B60000180BD311ABD15A438383838D60918DEC1
:101B70000618E11122CECEE79018FE031D18EC1EC8
:101B8000DD0A18EC1CDD08DC0ADF02DE0884FFC475
:101B9000FE18DF0418DE0218ED02CDEF00CEE79448
:101BA00018DE0418EC22ED0218EC20ED0018EC1EF3
:101BB000DE02ED0218EC1CED00BD0396C41F18DE1A
:101BC0000618E71518CEE66D18E600C4E018DE0624
:101BD00018E71218E61518EA12CEE66DE700FC03C6
:101BE0001DC30010CE00183C3736CC01B0BD418C6F
:101BF000383838DF0E38DF0C38DF0A38DF08308F2E
:101C0000C300158F3538DF0639DE063C349F06DE0B
:101C1000083CDE0A3CDE066F01FC0166FE0164261C
:101C20000FDD0027132009BD167CC601DE06E70183
:101C3000BD169A5D27F12003BD169ADE066D0127B9
:101C40001EFC0162DD0AFC0160DD08DC0ADE08C35F
:101C50000001240108DF08FD0162DC08FD01603895
:101C6000DF0A38DF083138DF0639DE063C3C349FB6
:101C700006DE083CDE0A3CDE0C3CDE0E3CBD039674
:101C800058585858DE06E70318CEE66E18E600C42A
:101C90000FE701E603EA0118E700CEE61E1D000883
:101CA0001D0001CEE61C1D000218FE031DCEE85CDF
:101CB00018EC42ED0218EC40ED00CEE86018EC465E
:101CC000ED0218EC44ED00CEE62418EC2AED0218E3
:101CD000EC28ED00CEE62818EC2EED0218EC2CEDE9
:101CE00000CEE62C18EC32ED0218EC30ED00CEE61A
:101CF0003018EC36ED0218EC34ED00CEE64818EC66
:101D00003ADD0A18EC38DD08DC0ADF02DE0884FF61
:101D1000C4008F8400C4FF8FDD0EDF0C18DF0418B1
:101D2000DE0218EC02DD0A18EC00DD08DC0ADE0831
:101D30008400C4FF8F84FFC4008FDD0ADF08DC0E3F
:101D4000DE0C9A0ADA0B8F9A08DA098F18ED02CDA9
:101D5000EF0018DE04CE00004F18E63C18CEE64C2B
:101D600018E70018CEE61E181C0040CEE61DE6005F
:101D7000C50127F718CEE61E181D0040CEE61C1C34
:101D80000002181C0008181C0001BD0396C40FDED9
:101D900006E70318CEE66E18E600C4F0E702E60395
:101DA000EA0218E700FC031DC30028CE00243C37DC
:101DB00036CC01C8BD418C383838DF0E38DF0C38DE
:101DC000DF0A38DF08383138DF0639DE063C3C34BC
:101DD0009F06BD039658585858DE06E70318CEE60E
:101DE0006E18E600C40FE701E603EA0118E700BD3C
:101DF0000396C40FDE06E70318CEE66E18E600C4AD
:101E0000F0E702E603EA0218E700FC031DC300281E
:101E1000CE00243C3736CC01C8BD418C3838CC00CC
:101E200001383138DF0639DE063C9F06C60F3734ED
:101E300018CE000F183C18CE0000183CCC096FBD1E
:101E40002EB2C601373418CE0004183C18CE00005C
:101E5000183CCC0A9ABD2EB2308FC3000C8F35CE01
:101E6000E211E6008400C4301A83003026F1C63047
:101E7000E700BD1D6A8D63C6013734FE031D4FE6C2
:101E800001CE000037363CCC0A9ABD2EB2CC0A9A5D
:101E9000BD3048CC0001CE0000BD37ECC601373460
:101EA00018CE000A183C18CE0000183CCC0A9ABD87
:101EB0002EB2C63018CEE21118E70030C60C3A3503
:101EC000CEE211E600C530270DCEE211C630E700A4
:101ED000E600C53026F338DF0639DE063C9F0638BB
:101EE000DF0639DE063C9F06BD1D6A38DF0639DE97
:101EF000063C9F06C60F373418CE000F183C18CE8C
:101F00000000183CCC096FBD2EB2C601373418CE84
:101F10000004183C18CE0000183CCC0A9ABD2EB222
:101F2000308FC3000C8F35CEE211E6008400C43040
:101F30001A83003026F1C630E700BD1D6A8D9BC6AE
:101F4000013734FE031D4FE601CE000037363CCC8E
:101F50000A9ABD2EB2CC0A9ABD3048CC0001CE0000
:101F600000BD37ECBD25ECC601373418CE000A1889
:101F70003C18CE0000183CCC0A9ABD2EB2C63018D0
:101F8000CEE21118E70030C60C3A35CEE211E60079
:101F9000C530270DCEE211C630E700E600C5302679
:101FA000F338DF0639DE063C3C9F06BD03965858E1
:101FB0005858DE06E702CEE66EE600C40FDE06E7FE
:101FC00001E602EA01CEE66EE700CEE61E1D000144
:101FD00018FE031DCEE62418EC2AED0218EC28EDBD
:101FE00000CEE62818EC2EED0218EC2CED00CEE623
:101FF0002C18EC32ED0218EC30ED00CEE63018EC87
:1020000036ED0218EC34ED003838DF0639DE063CD8
:102010009F06DE083CDE0A3CDE0C3CDE0E3CCEE6D3
:102020001C1D000218FE031DCEE85C18EC42ED02F8
:1020300018EC40ED00CEE86018EC46ED0218EC44D8
:10204000ED00CEE61E1D00081C0040CEE64818EC50
:102050003ADD0A18EC38DD08DC0ADF02DE0884FF0E
:10206000C41F8F8400C4FF8FDD0EDF0C18DF04183F
:10207000DE0218EC02DD0A18EC00DD08DC0ADE08DE
:102080008400C4E08F84FFC4008FDD0ADF08DC0E0B
:10209000DE0C9A0ADA0B8F9A08DA098F18ED02CD56
:1020A000EF0018DE04CE00004F18E63C18CEE64CD8
:1020B00018E700CEE61DE600C50127F7CEE61C1C9A
:1020C0000002CEE61E1C000838DF0E38DF0C38DFB9
:1020D0000A38DF0838DF0639DE063C3C9F06CEE6CC
:1020E0001E1C00011D0040BD0396C40FDE06E70262
:1020F00018CEE66E18E600C4F0E701E602EA011821
:10210000E700FC031DC30028CE00243C3736CC0179
:10211000C8BD418C38383838DF0639DE063C3C34DF
:102120009F06DE083CDE0A3CDE0C3CDE0E3CDE0692
:102130006F01CC0A80BD30484F5F8F84FFC4008F91
:102140008C5800260CDD002608C60118DE0618E7AC
:1021500001BD039658585858DE06E70318CEE66EC0
:1021600018E600C40FE702E603EA0218E700C60F0C
:10217000373418CE000F183C18CE0000183CCC099C
:102180006FBD2EB2CEE648E6003838384F5F2719CB
:10219000C601373418CE0008183C18CE0000183C91
:1021A000CC09FABD2EB2383838BD20A57D031F27D3
:1021B000037E2367FC0106FE0104BD37C4CC182052
:1021C000BD3048C501274CCC194BBD3048DD0ADF76
:1021D00008CC194CBD30489C08251622051A930AD4
:1021E000250FCEE206E600C5022606BD2A805D2741
:1021F000E0CC194CBD30489C08226C25051A930A86
:102200002465CEE206E600C502265CBD2A805D2775
:10221000E02054CC1A20BD3048C501274ACC1B4BC6
:10222000BD3048DD0ADF08CC1B4CBD30489C08257A
:102230001622051A930A250FCEE206E600C50226ED
:1022400006BD2A805D27E0CC1B4CBD30489C08228F
:102250001625051A930A240FCEE206E600C50226CB
:1022600006BD2A805D27E0C6053734CC09FABD2FAC
:10227000BB3131CEE211E6008400C4301A83003055
:1022800026F118DE0618E601276CFE031DEC4AEE67
:102290004826061A83EA602326C60F373418CE096B
:1022A00043183C18CE2024183CCC0A81BD2EB2C65F
:1022B0000F373418CE80BA183C18CEA6C02024C6DA
:1022C0000F373418CE0323183C18CE2024183CCCEA
:1022D0000A81BD2EB2C60F373418CE809A183C182A
:1022E000CEA3C0183CCC0A8BBD2EB21830188FC3B9
:1022F000000C188F1835FE031DE606C5102708CE02
:10230000E61E1C00042006CEE61E1D0004BD210DA5
:1023100018DF0418FE031DCE00004F18E60618DF74
:102320000218DE0418CE0018BD41BD18DE0218EAFE
:1023300001DD0ADF08C60F373418DE0A183C18DE44
:1023400008183CCC0A9ABD2EB2BD39C7383838CEF1
:10235000E648E600C40127F7C6043734CC09FABDC5
:102360002FBBC60718CEE26418E700CC0001CE00F0
:1023700000BD37ECCEE2641D00013131CEE211E642
:10238000008400C4301A83003026F1C604BD39171A
:10239000CEE2641C000818CEE26018EC02DD0E18D4
:1023A000EC00DD0CFC015ADD0AFC0158DD08DE0CF6
:1023B0009C0825152207DC0E1A930A230C18EC0240
:1023C000FD015A18EC00FD0158BD3954CC0A3ABD44
:1023D00030488F84F0C4FF8F37363CCC0A3ABD2F8B
:1023E000F4CEE20A1C0002BD21D8FE031DE606F76A
:1023F00001A6E607F701A7C601373418CE00091871
:102400003C18CE0000183CCC09FABD2EB230C60AEA
:102410003A35CC000138DF0E38DF0C38DF0A38DF00
:1024200008383138DF0639DE063C9F06CEE84C4FCF
:102430005FED02CC0010ED00CEE63FE600C50127BF
:102440000FF6031B260AF60317C1012203BD04225F
:10245000CEE2044F5FED02CC0030ED0038DF0639EC
:10246000DE063C9F06CEE84C4F5FED02CC0020ED2F
:1024700000CEE63FE600C5012710F6031B260BF64B
:102480000317F1031C2303BD043BCEE2044F5FEDB1
:1024900002CC0030ED0038DF0639DE063C9F06CE68
:1024A000E648E6004F5F270CC6083734CC09FABD72
:1024B0002FBB3131BD2ACBBD3FB5BD1F27CEE20AB0
:1024C0001C0002C6093734CC09FABD2FBBCEE20688
:1024D000C602E700CEE20A1C0002FC012EFE012C1F
:1024E000BD37EC3131CC000138DF0639DE063C9FC8
:1024F00006DE083CDE0A3CDE0C3CDE0E3CCEE64747
:10250000E600C50127037E272DFE031DEC26DD0E08
:10251000EC24DD0CFC01C6DD0AFC01C4DD0818DE7C
:102520000C189C08260ADC0E1A930A26037E272D17
:1025300018DE0C189C0822502507DC0E1A930A247A
:102540004718CE000F183C18CE0000183CCC096F7D
:10255000BD2FF4FE031DE6003734CC09FABD2FBBB6
:10256000383838F601A2C101261EFE031DE60226F8
:1025700017CEE7FFC608E700CEE211E600C5042744
:10258000F7C604E7007F01A2C60F373418CE000F4C
:10259000183C18CE0000183CCC096FBD2EB2C60105
:1025A000373418CE0008183C18CE0000183CCC0A6E
:1025B0009ABD2EB2CC0800CE0000BD386EBD186B9F
:1025C000C60F373418CE000F183C18CE0000183C48
:1025D000CC096FBD2EB2C601373418CE0009183CA5
:1025E00018CE0000183CCC0A9ABD2EB2CC0900CE01
:1025F0000000BD386ECEE20A1C000218CEE206C60C
:102600000218E7001C000230C6183A35F601A2266F
:102610001CFE031DE602C1012613CEE7FFC609E733
:1026200000CEE211C604E700C601F701A2C60F37CB
:102630003418CE000F183C18CE0000183CCC096F9F
:10264000BD2EB2C6013734FE031D4FE600CE00009A
:1026500037363CCC09FABD2EB230C60C3A35CC0028
:102660000138DF0E38DF0C38DF0A38DF0838DF06C4
:1026700039DE063C3C3C3C3C349F06DE083CDE0A2E
:102680003CDE0C3CDE0E3CCEE66FF60318C40F18A1
:10269000DE0618E707E600C4F018E70118E6071899
:1026A000EA01E700FE031DE64EF101EE2305C60137
:1026B000BD3BDDCEE64BE60018DE0618E7098400D8
:1026C000C42018ED022634FE031DFC01EADD0EFCD9
:1026D00001E8DD0CEC4ADD0AEC48DD0818DE0C18D8
:1026E0009C0825172206DE0E9C0A230FBD259A5D45
:1026F000260918DE0618EC027E2A6BCEE647E600B5
:10270000C50127037E293CFE031DEC26DD0EEC24CB
:10271000DD0CFC01C6DD0AFC01C4DD0818DE0C1866
:102720009C082609DE0E9C0A26037E293CDC0C1A36
:1027300093082260250818DE0E189C0A2456C60F3E
:10274000373418CE000F183C18CE0000183CCC09C6
:102750006FBD2EB2C6013734FE031D4FE600CE001A
:102760000037363CCC09FABD2EB230C60C3A35F6ED
:1027700001A2C101261EFE031DE6022617CEE7FFB9
:10278000C608E700CEE211E600C50427F7C604E755
:10279000007F01A2BD2ACBC60F373418CE000F1818
:1027A0003C18CE0000183CCC096FBD2EB2C60137D4
:1027B0003418CE0008183C18CE0000183CCC0A9AF9
:1027C000BD2EB2CC0800CE0000BD386EBD186BC661
:1027D0000F373418CE000F183C18CE0000183CCC30
:1027E000096FBD2EB2C601373418CE0009183C1847
:1027F000CE0000183CCC0A9ABD2EB2CC0900CE0007
:1028000000BD386ECEE20A1C000218CEE206C602F7
:1028100018E7001C000230C6183A35F601A2261C43
:10282000FE031DE602C1012613CEE7FFC609E7003D
:10283000CEE211C604E700C601F701A2C60F373485
:1028400018CE000F183C18CE0000183CCC096FBD04
:102850002EB2C6013734FE031D4FE600CE0000370E
:10286000363CCC09FABD2EB2FC012EFE012CBD3740
:10287000ECCEE64BE60018DE0618E7098400C4201B
:1028800018ED04308FC3000C8F35DD002634FE03B5
:102890001DFC01EADD0EFC01E8DD0CEC4ADD0AEC72
:1028A00048DD0818DE0C189C0822172506DE0E9C51
:1028B0000A240FBD259A5D260918DE0618EC047E51
:1028C0002A6BC601BD3BDD5D26054F5F7E2A6BCEC0
:1028D000E66FF603185858585818DE0618E708E649
:1028E00000C40F18E70618E60818EA06E700CEE667
:1028F000471C001018FE031DFC01AEDD0EFC01ACF0
:10290000DD0C18EC0EDD0A18EC0CDD08DE0C9C0862
:102910002607DC0E1A930A2717CEE6D0DC0AED0252
:10292000DC08ED0018EC0EFD01AE18EC0CFD01AC5E
:10293000CEE6D418EC0AED0218EC08ED00CEE6471E
:102940001D0010CEE6EEE600BD0396CEE7F3E700ED
:10295000BD0389CEE7F2E700CEE7EFC6F9E700CE88
:10296000E7EEC601E7006F00CC000138DF0E38DF6C
:102970000C38DF0A38DF08383838383138DF0639A4
:10298000DE063C3C3C9F06F6B003C5082735CEE288
:1029900008E60018DE0618E701CEE204E60018E7B4
:1029A0000418E6015318E70218E60418E40218E7D1
:1029B00004C508270ECEE24CE600C5012705CC0071
:1029C0000120024F5F383838DF0639DE063C9F06AB
:1029D0007D031F2627CEE210C608E700FC0106FE95
:1029E0000104BD37C4CEE210E600C508260ECEE2D3
:1029F00006E600C50226058D875D27E938DF063922
:102A0000DE063C9F06CEE648E6004F5F2719C6016A
:102A1000373418CE0008183C18CE0000183CCC09FA
:102A2000FABD2EB23838388DA2BD3FB5BD1FEFCEEE
:102A3000E20A1C0002C601373418CE0009183C18FF
:102A4000CE0000183CCC09FABD2EB2CEE206C6027A
:102A5000E70018CEE20A181C0002FC012EFE012C31
:102A6000BD37EC383838CC000138DF0639DE063C9B
:102A70003C3C3C3C3C9F06DE083CDE0A3CDE0C3C19
:102A8000DE0E3CCEE66FF60318C40F18DE0618E71C
:102A900008E600C4F018E70218E60818EA02E700A2
:102AA000FE031DE64EF101EE2305C601BD3BDDCE62
:102AB000E64BE60018DE0618E70A8400C42018ED8D
:102AC000032632FE031DFC01EADD0EFC01E8DD0CED
:102AD000EC4ADD0AEC48DD0818DE0C189C082606D6
:102AE000DE0E9C0A270FBD2B005D260918DE061896
:102AF000EC037E2CF2CEE647E60018DE0618E70A65
:102B00008400C40118ED052640FE031DEC26DD0EF1
:102B1000EC24DD0CFC01C6DD0AFC01C4DD0818DE76
:102B20000C189C082606DE0E9C0A271DBD2ACBBD6C
:102B30003AC5BD25EC18DE0618E701BD3B51DE069F
:102B4000E6012605EC057E2CF2C601BD3BDD5D26C7
:102B5000054F5F7E2CF2CEE66FF603185858585892
:102B600018DE0618E709E600C40F18E70718E6099B
:102B700018EA07E700CEE6471C001018FE031DFC0C
:102B800001AEDD0EFC01ACDD0C18EC0EDD0A18EC1C
:102B90000CDD08DE0C9C082607DC0E1A930A2717AA
:102BA000CEE6D0DC0AED02DC08ED0018EC0EFD01EB
:102BB000AE18EC0CFD01ACCEE6D418EC0AED021810
:102BC000EC08ED00CEE6471D0010CEE6EEE600BDB7
:102BD0000396CEE7F3E700BD0389CEE7F2E700CE28
:102BE000E7EFC6F9E700CEE7EEC601E7006F00CCDD
:102BF000000138DF0E38DF0C38DF0A38DF083838DC
:102C000038383838DF0639DE063C3C3C3C3C9F0611
:102C1000DE083CDE0A3CDE0C3CDE0E3CCEE66FF607
:102C20000318C40F18DE0618E706E600C4F018E71C
:102C30000218E60618EA02E700FE031DE64EF1015F
:102C4000EE2305C601BD3BDDFE031DFC01EADD0EE2
:102C5000FC01E8DD0CEC4ADD0AEC48DD0818DE0C6E
:102C6000189C0825112206DE0E9C0A2309BD221B92
:102C70005D26037E2DFDCEE647E60018DE0618E74A
:102C8000088400C40118ED032640FE031DEC26DD78
:102C90000EEC24DD0CFC01C6DD0AFC01C4DD0818C5
:102CA000DE0C189C082606DE0E9C0A271DBD2ACBCA
:102CB000BD3AC5BD25EC18DE0618E701BD3B51DE67
:102CC00006E6012605EC037E2E9EFE031DFC01EAAE
:102CD000DD0EFC01E8DD0CEC4ADD0AEC48DD0818ED
:102CE000DE0C189C08220E2506DE0E9C0A2406BD6A
:102CF000221B5D2708C601BD3BDD5D26054F5F7EBB
:102D00002E9ECEE66FF603185858585818DE06184F
:102D1000E707E600C40F18E70518E60718EA05E715
:102D200000CEE6471C001018FE031DFC01AEDD0EB0
:102D3000FC01ACDD0C18EC0EDD0A18EC0CDD08DE35
:102D40000C9C082607DC0E1A930A2717CEE6D0DC67
:102D50000AED02DC08ED0018EC0EFD01AE18EC0CDB
:102D6000FD01ACCEE6D418EC0AED0218EC08ED003B
:102D7000CEE6471D0010CEE6EEE600BD0396CEE798
:102D8000F3E700BD0389CEE7F2E700CEE7EFC6F92F
:102D9000E700CEE7EEC601E7006F00CC000138DFA8
:102DA0000E38DF0C38DF0A38DF083838383838DFBB
:102DB0000639DE063C9F06DE083CDE0A3C188FDE44
:102DC00006EC07DD0AEC05DD08CEE2221AEF00CEA4
:102DD000E228DC0AED02DC08ED00CEE22118DE0676
:102DE00018E60AE700CEE210C601E700CEE220C6F0
:102DF00003E700CEE210E600C50127F7C601E700B1
:102E000038DF0A38DF0838DF0639DE063C9F06CE99
:102E1000E222ED00CEE22818DE0618E606E700CE34
:102E2000E221C608E700CEE210C601E700CEE220AC
:102E3000C603E700CEE210E600C50127F7C601E7AA
:102E40000038DF0639DE063C9F06CEE222ED00CEDA
:102E5000E22918DE0618E606E700CEE221C604E7FE
:102E600000CEE210C601E700CEE220C603E700CEA6
:102E7000E210E600C50127F7C601E70038DF063992
:102E8000DE063C9F06CEE222ED00CEE22A18DE06E8
:102E900018E606E700CEE221C602E700CEE210C641
:102EA00001E700CEE220C603E700CEE210E600C54F
:102EB0000127F7C601E70038DF0639DE063C9F062A
:102EC000CEE222ED00CEE22B18DE0618E606E70081
:102ED000CEE221C601E700CEE210E700CEE220C636
:102EE00003E700CEE210E600C50127F7C601E700C0
:102EF00038DF0639DE063C9F06DE083CDE0A3C1859
:102F00008FDE06EC07DD0AEC05DD08CEE2221AEFC3
:102F100000CEE228DC0AED02DC08ED00CEE221C69C
:102F20000FE700CEE210C601E700CEE220C603E7BD
:102F300000CEE210E600C50127F7C601E70038DF42
:102F40000A38DF0838DF0639DE063C9F06CEE2226B
:102F5000ED00CEE221C60FE700CEE210C601E70089
:102F6000CEE220E700CEE210E600C50127F7C60159
:102F7000E700CEE224EC02EE00183818DF0639DE56
:102F8000063C9F06CEE222ED00CEE221C60FE7000E
:102F9000CEE210C601E700CEE220E700CEE210E666
:102FA00000C50127F7C601E700CEE224E6004F384E
:102FB000DF0639DE063C9F06CEE222ED00CEE2219E
:102FC000C60FE700CEE210C601E700CEE220E70020
:102FD000CEE210E600C50127F7C601E700CEE226E3
:102FE000E6004F38DF0639DE063C9F06DE083CDE91
:102FF0000A3C188FDE06EC07DD0AEC05DD08188FA9
:1030000005058BE0188FDC0A18ED02DC0818ED00CE
:1030100038DF0A38DF0838DF0639DE063C9F06DE77
:10302000083CDE0A3CDE0C3CDE0E3C05058BE0185D
:103030008F18DF0418DE0618EC07CDEE0518A40B78
:1030400018E40C8F18A40918E40A8FDD0EDF0C18A1
:10305000EC0BCDEE0918DE04BD4202DD0ADF0818D4
:10306000EC02CDEE00940AD40B8F9408D4098F9A09
:103070000EDA0F8F9A0CDA0D8F18ED02CDEF0038B3
:10308000DF0E38DF0C38DF0A38DF0838DF0639DEBC
:10309000063C9F0605058BE0188F18EC02CDEE006C
:1030A000183818DF063918DE06183C9F0638DF0688
:1030B00039DE063C349F06C6FFDE06E701CEE84C4B
:1030C0004F5FED02CC0200ED00CEE63FE600C50406
:1030D0002607BD0610DE06E701DE066D012B06CED3
:1030E000E2081C0002CEE2044F5FED02CC0200EDCC
:1030F000003138DF0639DE063C9F06CEE2044F5F22
:10310000ED02CC0200ED00CEE2081D000238DF0621
:1031100039DE063C9F06CEE84C4F5FED02CC08003E
:10312000ED00CEE24CE600C50127028D6BCEE24CED
:10313000E600C502271CCEE63FE600C5042613BD07
:1031400006105D2B0DCEE2491D00C0C602CEE24C3A
:10315000E700CEE2044F5FED02CC0800ED0038DF5F
:103160000639DE063C9F067F031AF6B001C501272B
:103170000DCEE24CC601E700CEE2481C008038DFED
:103180000639DE063C9F06CEE24CC602E700CEE2E0
:10319000491C008038DF0639DE063C3C349F06C6F9
:1031A000FFDE06E701C601F7031AF6B0036F02E778
:1031B00003EC02C5082705C601F7031FCEE63FE66C
:1031C00000C5012728F601FCC501261ADE06EC021F
:1031D0008400C4071A830001260CC6013734CCB022
:1031E000B8BD05B23131BD04C0DE06E701DE066DB3
:1031F000012B0DCEE2481D00C0CEE24CC601E70017
:10320000F6B003C50827037F031F383138DF0639BE
:10321000DE063C9F06CEE63FE600CEE7F4C60CE7AE
:103220000038DF0639DE063C9F0638DF0639DE0649
:103230003C9F06CEE84C4F5FED02CC1000ED00CE77
:10324000E63FE600C5012703BD3622CEE2044F5F0C
:10325000ED02CC1000ED0038DF0639DE063C3C3CC8
:103260003C3C3C9F06DE083CDE0A3CDE06E701C62D
:1032700001F70350E6016F09E70AEE098C00062703
:103280001F2E088C000427147E3613DE06EE098CF0
:10329000000827168C000A27157E3613C604200264
:1032A000C60518DE0618E702200EC6062002C6076D
:1032B00018DE0618E702C60518E70318E70418DE4B
:1032C0000618E601F1034F26037E3607CDEE098C82
:1032D000000626037E350D2E088C0004271E7E3640
:1032E0000718DE0618EC091A83000826037E350D40
:1032F0001A83000A26037E350D7E360718CEE64473
:1033000018EC02DD0A18EC00DD08DC0ADE0884FD9A
:10331000C4FF18ED02CDEF0018EC02DD0A18EC0036
:10332000DD08DC0ADE088A01CA0018ED02CDEF00D4
:1033300018EC02DD0A18EC00DD08DC0ADE0884FE69
:10334000C4FF18ED02CDEF00C603BD053A18CE014B
:1033500018183CCEB0B83CCC01FCBD418C7F0318A2
:10336000CC0200FD031DBD0396C40F18DE0618E74E
:103370000918CEE66F18E600C4F018DE0618E70557
:1033800018E60918EA05CEE66FE7005FBD3BDDBD34
:103390001D09BD3FB5BD1FE3BD03895858585818D6
:1033A000DE0618E70918CEE66F18E600C40F18DE2F
:1033B0000618E70618E60918EA06CEE66FE700C623
:1033C00001BD053A18DE0618E604373418E603BDD9
:1033D00036AFDE06E602BD36F0FC014AFE0148BD0E
:1033E00037ECCEE7FFC606E700383838FC034DDD82
:1033F0000AFC034BDD082607DC0A26037E3607CECF
:10340000E208DC0AED02DC08ED007E3607FC013242
:10341000FE0130BD37EC18CEE64418EC02DD0A1888
:10342000EC00DC0A8438C400CE00002604DD00274E
:103430001818EC02DD0A18EC00DD08DC0ADE088A48
:1034400002CA0018ED02CDEF0018DE0618E60437B8
:103450003418E603BD36AFCEE7FFC607E70018DE37
:103460000618E602BD36F03131F6034FC1042703DA
:103470007E3607C603BD053A18CE0118183CCEB1FA
:10348000D03CCC01FCBD418C7F0318CC0200FD0375
:103490001DBD0396C40F18DE0618E70918CEE66FA7
:1034A00018E600C4F018DE0618E70718E60918EA5F
:1034B00007CEE66FE700BD1D09BD3FB5BD1FE35F49
:1034C000BD3BDDBD03895858585818DE0618E7097A
:1034D00018CEE66F18E600C40F18DE0618E70818C5
:1034E000E60918EA08CEE66FE7005FBD053ACEE2CE
:1034F00008EC02FD034DEC00FD034BCCFFFFED0299
:10350000CCEF7FED0038387F035018DE0618E60157
:10351000F7034F38DF0A38DF08383838383838DFF3
:103520000639DE063C349F06DE083CCEE7F5E600B1
:10353000D709CCFFFCDB0989001A83000822680543
:10354000C342B3188FCDEE006E00BD33102058CEAD
:10355000E7F4C604E700C605201FCEE7F4C606E779
:1035600000C6072014CEE7F4C608E700C609200904
:10357000CEE7F4C60AE700C60B18DE0618E701CE50
:10358000E63FE600C502260ACEE7F418E601E700AA
:103590002015D609BD335BCEE7F418DE0618E60128
:1035A000E700D609F7034F38DF083138DF0639DE88
:1035B000063C349F06DE083CDE06E701E607D70935
:1035C000CEE211C604E700CEE7FF18DE0618E601DA
:1035D000E700CEE211E600C50427F7C604E700CEF7
:1035E000E7FEE600D10926DF38DF083138DF06398B
:1035F000DE063C9F06DE083CDE0A3CDE0C3CDE0EAE
:103600003CD709C60F373418CE000F183C18CE002F
:1036100000183CCC096FBD2EB2C60718CEE2641864
:10362000E700C6013734CE00004FD60937363CCC10
:1036300009FABD2EB218CEE264181D0001308FC306
:10364000000C8F35CEE211E6008400C4301A8300EE
:103650003026F1D609BD3917CEE2641C000818CE19
:10366000E26018EC02DD0E18EC00DD0CFC015EDD02
:103670000AFC015CDD08DE0C9C0825152207DC0E27
:103680001A930A230C18EC02FD015E18EC00FD01F0
:103690005CCEE211C630E70038DF0E38DF0C38DFD1
:1036A0000A38DF0838DF0639DE063C9F06C60ABD49
:1036B000335B38DF0639DE063C9F06C604BD335B4C
:1036C00038DF063918DE06183C9F0618CEE234189B
:1036D000ED02CDEF00CEE23C1C0002CEE206C602B7
:1036E000E700CEE20A1D000238DF063918DE0618B0
:1036F0003C9F0618DE08183C18DE0A183CDF087DDF
:103700000350273118CE0004BD41BDDD0ADF08CECD
:10371000E264C601E700C606E700CEE264C60EE733
:1037200000CEE260EC02EE009C0825EE22361A93F1
:103730000A25E7202FCEE234ED02DC08ED00CEE2D0
:103740003C1C0002CEE206C602E700CEE20A1D00E3
:1037500002CEE206E600C50227F7C602E700CEE287
:103760000A1C000238DF0A38DF0838DF063918DEA5
:1037700006183C9F0618DE08183C18DE0A183CDDC7
:103780000ADF08C60F373418CE000F183C18CE00D9
:1037900000183CCC096FBD2EB2CC0A9ABD30483817
:1037A000383884FFC400CE00009C0826051A930A0E
:1037B0002716CC0A9ABD304884FFC400CE00009C76
:1037C0000826EF1A930A26EAC60F373418CE001FD0
:1037D000183C18CE0000183CCC096FBD2EB2CC0AA4
:1037E0009ABD304838383884FFC400CE00009C08A9
:1037F00026051A930A2716CC0A9ABD304884FFC4BE
:1038000000CE00009C0826EF1A930A26EA38DF0A49
:1038100038DF0838DF0639DE063C9F06DE083CD775
:1038200009C60F3734CC096FBD2FBB3131CC09FA33
:10383000BD30B3D10926F6C61F3734CC096FBD2F72
:10384000BB3131CC09FABD30B3D10926F638DF08D7
:1038500038DF0639DE063C9F06CC9D0F3736CC009C
:10386000023736CC096FBD2FF43838CC0A21BD3071
:10387000488401C400CE00002604DD0027EDCC9D65
:103880001F3736CC00023736CC096FBD2FF41838FD
:103890001838CC0A21BD30488401C400CE0000266F
:1038A00004DD0027ED38DF0639DE063C9F06CC0933
:1038B000F3BD304884FFC4FC37363CCC09F3BD2F40
:1038C000F4383838DF0639DE063C9F06DE083CDE79
:1038D0000A3CCC09F3BD3048DD0ADF0818FE031DA1
:1038E00018E607C5012708DC0A8A00CA012008DC9F
:1038F0000ADE0884FFC4FEDD0A18E607C5022708B1
:10390000DC0A8A00CA022006DC0A84FFC4FD3736BE
:103910003CCC09F3BD2FF4383838DF0A38DF0838DB
:10392000DF0639DE063C9F06DE083CDE0A3CCC950D
:10393000C13736CC00023736CC096FBD2FF4CC0A24
:1039400021BD304884FFC4F3DD0ADF088A00CA04C1
:1039500037363CCC0A21BD2FF418DE0A183C18DE9D
:1039600008183CCC0A21BD2FF4CC95D23736CC00B8
:10397000023736CC096FBD2FF4CC0A21BD30488404
:10398000FFC4F3DD0ADF088A00CA0437363CCC0ADC
:1039900021BD2FF418DE0A183C18DE08183CCC0AAA
:1039A00021BD2FF4CC95CF3736CC00023736CC0969
:1039B0006FBD2FF4308FC3001C8F3538DF0A38DF1E
:1039C0000838DF0639DE063C9F06C60F3734CC08C0
:1039D00000BD2FBBCC0863BD30488A00CA0837360B
:1039E0003CCC0863BD2FF4CC0864BD30488A00CAC3
:1039F0000837363CCC0864BD2FF4CC0985BD30486F
:103A00008A00CA0837363CCC0985BD2FF4CC08356E
:103A1000BD30488A00CA0137363CCC0835BD2FF48A
:103A2000CC083BBD30488A00CA0237363CCC083B44
:103A3000BD2FF4CC0970BD30488A00CA0337363C2C
:103A4000CC0970BD2FF4308FC3001A8F3538DF06D4
:103A500039DE063C9F06C60F3734CC0800BD2FBBAD
:103A6000CC0970BD304884FFC4FC37363CCC0970AB
:103A7000BD2FF4CC083BBD304884FFC4FD37363C35
:103A8000CC083BBD2FF4CC0835BD304884FFC4FEC4
:103A900037363CCC0835BD2FF4CC0985BD30488481
:103AA000FFC4F737363CCC0985BD2FF4CC0864BD84
:103AB000304884FFC4F737363CCC0864BD2FF4CCC3
:103AC0000863BD304884FFC4F737363CCC0863BD7B
:103AD0002FF4308FC3001A8F3538DF0639DE063CED
:103AE0003C3C349F06DE083CDE0A3CDE06E701CEA5
:103AF000E63EE600C50426037E3D6BFE031DE64E52
:103B0000F101EE25037E3D11BD0396565656C4C005
:103B100018DE0618E70518CEE66C18E600C43F1854
:103B2000DE0618E70318E60518EA03CEE66CE700A0
:103B3000FE031DE603F101A327115D260ECEE7F774
:103B4000C60DE700C60118E702200618DE06186F4A
:103B500002C60218CEE20618E700CEE20A1C0002F6
:103B6000DE06E6012709FC010AFE0108BD37C4187C
:103B7000DE06186D02272BCEE206E600C5022622DD
:103B8000CEE211E600C501270AC601E70018DE06ED
:103B9000186F02DE066D022709CEE206E600C502B6
:103BA00027DE18DE06186D012709FC010AFE010850
:103BB000BD37C4CEE206C602E700CEE20A1C000210
:103BC000FE031D188FF601A3D709188F18DE0618FB
:103BD0006D022713E603D10927085D2605CEE7F716
:103BE000E7004F5F7E3D6EE603D70B188FD609D1F5
:103BF0000B188F270F5D260CCEE7F4C60EE700D614
:103C00000BF701A3BD3DC48D72FE031DE64EF70107
:103C1000EEFE031DE64EF101EE2350BD039656560F
:103C200056C4C018DE0618E70518CEE66C18E60084
:103C3000C43F18DE0618E70418E60518EA04CEE6C5
:103C40006CE7008D368D7DFE031DE64EF701EEE636
:103C500003F101A32715C1012611CEE7F4C60CE735
:103C600000CEE7F76F00C601F701A3CC000138DFF3
:103C70000A38DF0838383138DF0639DE063C3C9F29
:103C80000618FE031D18E605F101A52732CEE63D14
:103C9000585858C40818DF0418DE0618E702E60072
:103CA000C4F718E70118E60218EA0118DE04E70075
:103CB00018E605F701A5FC0112FE0110BD37EC382E
:103CC00038DF0639DE063C308FC3FFEE8F359F06A6
:103CD000DE083CDE0A3CDE0C3CDE0E3CF601EE1853
:103CE000DE0618E701FE031DE14E26037E3F79FE46
:103CF000031DF6B0A418DE0618E705FCB0AA18EDFF
:103D000008FCB0A818ED06F642C518E70AF6B0019F
:103D1000C502271218E601E14E24035C200D18DECF
:103D200006186A012008E64E18DE0618E701DE06CE
:103D30004FE601DD0218DE02188FC3B004188F05AC
:103D400005C3B024ED1118DF02188F18EC02DD0A4C
:103D500018EC00DD0818DE06EC08EE06BD4202DDB8
:103D60000EDF0C18E6055318E70BDC0ADE0818A472
:103D70000818E4098F18A40618E4078F18ED0ECD73
:103D8000EF0CDE02E60018E40518E71018E60A2733
:103D900054CEE67CEC02DD0AEC00DD08DC0ADE082D
:103DA000940ED40F8F940CD40D8FDD0ADF04CEE671
:103DB0008BE60054545418E40B18E702DC0A18AAE6
:103DC0000E18EA0FDF02DE048F18AA0C18EA0D8F16
:103DD00018CEE67818ED02CDEF0018DE0618E602E0
:103DE00018EA102052CEE678EC02DD0AEC00DD087D
:103DF000DC0ADE08940ED40F8F940CD40D8FDD0AEC
:103E0000DF04CEE68BE60018DE0618E40B18E702A6
:103E1000DC0A18AA0E18EA0FDF02DE048F18AA0CBB
:103E200018EA0D8F18CEE67C18ED02CDEF00DE0605
:103E3000E602EA10585858DE02E70018DE0618E6D7
:103E40000AC801F742C5CEE63F565656C4C018E729
:103E500011E600C43F18E70318E61118EA03E7006B
:103E6000FC0116FE0114BD37ECFE031D18DE06181A
:103E7000E601E14E27037E3DEFBD039658585858A2
:103E8000C430DE06E71118CEE66C18E600C4CFE7B2
:103E900004E611EA0418E700FE031DE64EF701EE02
:103EA00038DF0E38DF0C38DF0A38DF0830C6123A48
:103EB0003538DF0639DE063C308FC3FFDE8F359F95
:103EC00006DE083CDE0A3CDE0C3CDE0E3CCEE63E66
:103ED000E60018DE0618E702C50426037E4175FEDB
:103EE000031DCDEF03E652F101F226037E41751862
:103EF0006F0518E706DE0618EE05188FC3B0041824
:103F00008FF6B0A5E707EC050505ED08C3B024ED75
:103F10000ADD02DE02EC02DD0AEC00DD08FCB0AED8
:103F2000DD0EFCB0ACDD0CF642C518DF0418DE0671
:103F300018E70DDC0EDE0CBD420218ED1FCDEF1DA3
:103F400018E6075318E721DC0ADE08940ED40F8F19
:103F5000940CD40D8FDD0EDF0C18DF0218DE041870
:103F6000E600DE02E407E7223CDE02E60D382766C3
:103F7000CEE67CEC02DD0AEC00DD08DC0ADE081887
:103F8000DE0618DF0418A41F18E4208F18A41D18DB
:103F9000E41E8FDD0ADF04CEE68BE60018E70E5440
:103FA000545418E42118E70CDC0A9A0EDA0FDF02E9
:103FB000DE048F9A0CDA0D8F18ED11CDEF0F18CEAD
:103FC000E678DE06EC1118ED02EC0F18ED00E60CB9
:103FD000EA22E7132067CEE678EC02DD0AEC00DD8A
:103FE00008DC0ADE0818DE0618DF0418DE0218A452
:103FF0001F18E4208F18A41D18E41E8F18DE04DD9E
:104000000ADF04CEE68BE60018E42118E70CDC0A90
:104010009A0EDA0FDF02DE048F9A0CDA0D8F18ED9C
:1040200016CDEF1418CEE67CDE0618ED02EC14185F
:10403000ED00E60CEA22E718585858E719DE02E7C7
:104040000018DE0618E60DC80118E71AF742C5CEBB
:10405000E63F565656C4C018E71BE600C43F18EAB0
:104060001B18E71CE70018EE0318EC52FD01F218CC
:10407000EC50FD01F038DF0E38DF0C38DF0A38DF96
:1040800008308FC300228F3538DF0639DE063C9FAB
:1040900006188F18DF0418DE06CDEE0518EC071899
:1040A000DE041A830000270F36A60018A7000818A0
:1040B00008328F098F26F1188F38DF0639188F4F95
:1040C000C41F188F2709058F59498F180926F739FA
:1040D000188F4FC41F188F270A8F47568F465618C0
:1040E0000926F639188F4FC41F188F27098F048FA0
:1040F0004656180926F73953438F5343088F260134
:10410000083953438F53438F390E3E20FC0BA50AC9
:10411000120A420A5B0A740A8D0BA50A2B0ABB0B12
:104120009E0B9E0B9E0B9E0B9E0B9E0B9E0AD40A13
:10413000EB0B000B050B050B050B2B0B3F0B440B7F
:10414000490B4E0B9E0B9E0B9E0B9E0B9E0B6A0B00
:104150009E0B9E0B9E0B9E0B9E0B9E0B9E0B9E0B17
:104160009E0B9E0B9E0B9E0B9E0B9E0B9E0B9E0B07
:104170009E0B9E0B9E0B9E0B9E0B9E0B9E0B9E0BF7
:104180009E0B9E0B9E0B9E0B9E0B9E0B9E0B760B0F
:10419000160B1E0B1E0B9E0B9E0B9E0B9E0B9E0B5F
:1041A0009E0B9E0B9E0B9E0B9E0B9E0B9E0B9E0BC7
:1041B0008C0B95364F36A7365A36A7366536A73656
:0841C0007036A7364A0000002A
:00000001FF
