:1000000001000000000000040C000000A21DB48AE2
:1000100001000000204E0000CD7534D10100000029
:10002000001000C000020000E96B482630B5002235
:10003000094CE378002B0CD009E0A5182D798542F6
:1000400002D10A70012030BD01321206120E934215
:10005000F3D8002030BD0000C4D900C006480068B5
:10006000806C012805D10548C078002801D0012006
:100070007047002070470000C81B0004C4D900C0AE
:1000800038B500AB1648174C017819704178597093
:100090000321201C01F05EE900254021201DE570B0
:1000A00001F05CE940221421201C443001F05AE99F
:1000B0000C48083805600C48007806280FD10B481A
:1000C0006B4602680A480168082001F050E90948B7
:1000D0006B46026808480168052001F048E938BD10
:1000E000806700C0C4D900C0B07900C05C6F00C098
:1000F000686F00C06C6F00C0706F00C0F8B500245E
:10010000061C07203070284F701C00900322002529
:10011000391CB01C01F030E9701D234F39190A79E0
:100120004031027094460122A41842700B792406D3
:10013000AD182D06240E2D0E83709E4604E0511C32
:1001400001342406240E4170174FF978A1420AD9D0
:10015000427839190F7963469B18BB4203D140316D
:1001600009798E45EBD01049C978A14203D96800BE
:10017000401980190530A142CFD8E90705D568009C
:100180004019009A0330107007E069004919009A7D
:1001900004311170C11C00200870009800780230F2
:1001A0000006000EF8BD0000C4D900C010B507213C
:1001B00001700B0A4370041C0230FFF79FFF0028F8
:1001C00007D0811E0B0A02300006A170E370000EFA
:1001D00010BD002010BD0000F8B50024051C0078FB
:1001E000072805D1FFF74CFF681C6D78002D01D161
:1001F0000020F8BD461C194F311C0322381C01F0A9
:10020000BCE8F01CFD352906090E23E00278C92A56
:100210001CD2002A1AD0002211E0402C02D3FFF792
:100220002FFFE5E703789D18C094DEB101000000C0
:10023000FC1100C0000200002DBE970D3B191D717E
:1002400001344033013224068578240E1206120E42
:100250001D7143789342EAD8FA784378D218FA703D
:10026000FD310906090E03300129D9D80120CAE75A
:10027000C4D900C070B5051C017843781B0219432E
:10028000072905D1A978EB781B021943FF2901D969
:10029000002070BD0E06360EC670841C072020702C
:1002A000201CFFF7A3FF002804D16078A870030A80
:1002B000EB70EDE701F06EE801061448090EC37D0E
:1002C000807D1B02184301F06CE811480078062875
:1002D00017D1F00705D50020A1198870607801308A
:1002E00060700C48231C02680B480168082001F06C
:1002F00048E80A48231C026809480168052001F003
:1003000040E8330AAE70EB70012070BDB44601C006
:10031000B07900C05C6F00C0686F00C06C6F00C037
:10032000706F00C038B5041C01F034E8114D0006B0
:10033000E978000E00290DD06946FFF781FE0128FB
:1003400008D100AB1878281840300079A04201DAB3
:100350000406240E074908390868012807D148799E
:10036000A04200D2041C0879A04200D9041C201C21
:1003700038BD0000C4D900C080B501F018E81449A8
:100380000978814200D9011C124A1170124909787A
:10039000814200D9011C114A11701149097881422A
:1003A00000D9011C0F4A11700F490978814200D908
:1003B000011C0E4A11700E490978814200D9011CB6
:1003C0000C48017000F0F8EF012100F0FCEF80BD57
:1003D000CF6E00C0BC6E00C0D06E00C0BD6E00C04D
:1003E000D16E00C0BE6E00C0D26E00C0BF6E00C035
:1003F000D36E00C0C06E00C080B58178084A002965
:1004000011700CD0C178074A11700179064A117039
:1004100040790649087000F0DCEFFFF7ADFF80BDC2
:10042000C16E00C0CF6E00C0D06E00C0D16E00C0E3
:1004300006490978817006495F2B0FDA0100000038
:10044000F81300C000020000D95629B00978C17025
:100450000549097801710549097841717047000023
:10046000C16E00C0BC6E00C0BD6E00C0BE6E00C0DC
:1004700070B504390D04C37882781B021A43114BFE
:100480002D14041DFF2615361A7013E020786378AA
:100490001B021843B04203D1291C201C00F0A8F80D
:1004A000A078E3781B021843011D691A0D042D146E
:1004B00004190434042DE9D800F094EFFFF766FF27
:1004C00070BD0000C16E00C0F3B583B0041D354996
:1004D000097881700B0AC3702C21201C00F04EEFAC
:1004E0000D20009030480021007802902F480078BD
:1004F00001902F4806782F480778201C203084462A
:100500002D48007886462D48405CFF282CD0C2003C
:100510001219D37995791B021D4301238B401D438A
:100520002B0A9571D371002804D102982071030A17
:10053000637119E0012804D101982073030A6373E1
:1005400012E0022803D12675330A63750CE00328F4
:1005500003D127773B0A637706E0042804D170466D
:1005600062461071030A5371009801318142CADB5F
:100570000020C1000919CB7989791B021943002990
:1005800002D001300528F4DBFF21153121700B0A60
:100590006370C000A070030AE370049910300880F3
:1005A00005B0F0BDC16E00C0CF6E00C0D06E00C0FF
:1005B000D16E00C0D26E00C0D36E00C0C26E00C04B
:1005C0000C2910D30830017843781B021943002905
:1005D00001D0012907D1C37880781B021843002875
:1005E00003D0012801D0002070470120704700008F
:1005F000F8B5041CC37880781B021843C508E800CE
:1006000004300004001488424EDC691E201D00F0F6
:1006100059F80021201C2030009043E0CB009C467C
:100620000B06012200201B0E204F9E46A4443B5C7B
:10063000FF2B08D063469E79DB791B021E431640D0
:1006400001D073463B545204BFAFD2C30100000037
:10065000F41500C000020000C0AEF7C0120C01305B
:100660000D28EED3002905D120796379154A1B02A4
:1006700018431FE0012905D1207B637B124A1B022E
:10068000184317E0022905D1207D637D0F4A1B0224
:1006900018430FE0032905D1207F637F0C4A1B021A
:1006A000184307E0042906D100980A4A43790079E3
:1006B0001B02184310700131A942B9DBF8BD0000DC
:1006C000C26E00C0CF6E00C0D06E00C0D16E00C040
:1006D000D26E00C0D36E00C0F3B583B0002725E012
:1006E000049C20E00399E00045186B782878291CC9
:1006F0001B02184310394B7A097A1B0219438842AE
:1007000010D20822291C01A800F054EE2E1C083E2D
:10071000311C0822281C00F04EEE0822301C01A9D2
:1007200000F048EE013CBC42DCDC01370498874213
:10073000D6DB05B0F0BD00000548FF218068F5312B
:10074000FF30C130018341838183C1837047000042
:1007500098DD00C01349021C89684078042801DB39
:10076000002070471378002B12D0012B04D0022BED
:1007700016D1FF22F53205E0D37892781B021A4396
:10078000002A0DD040004018FF30C130028307E03E
:1007900040004018FF30C130008B9070030AD370C6
:1007A0004420704798DD00C0FEB5041C071C457846
:1007B000042D01DB0020FEBD00F024EE0090217826
:1007C000344800292BD0012934D002295BD1AC2137
:1007D000694309180E1C80310291C8892071030AEF
:1007E00063718889A070030AE370217963791B0221
:1007F0001943451A381C0A300637002D019020D0C5
:100800000299281C496900F004EE391C00F004EE3E
:100810000299281C896900F0FCED019918E0AC21CF
:1008200069430C18201C8C30202100F0B6ED01200B
:10083000A07004E0AC226A430021101881700224E9
:1008400022E0391C0025281C00F0E6ED0199281C47
:1008500000F0E2ED211C0E312BC597D50100000000
:10086000F01700C0000200003446497D002000F06F
:10087000DEED311C9C310E22201C123000F0A4ED64
:10088000AA20805B20342070030A301C8C30202189
:10089000637000F08CED222400E00024009800F04A
:1008A000CAED201C91E7000020DF00C0B0B5051C98
:1008B0000C1C00F0C6ED002812D00A492720405C2D
:1008C00002280DD008480078042809D10622281CE7
:1008D000123000F0BCED002802D103CC00F07EFA0B
:1008E000B0BD0000B47900C0B07900C0F8B50120F7
:1008F00000F0B2ED041C0C4F0FE0AC266643F51976
:10090000281C0C30802100F052ED0020B855687092
:1009100006A103C901346860A960032CEDDD054917
:1009200000208862F8BD000020DF00C00000000049
:1009300000000000388B00C038B5041C02D0002035
:1009400000F090ED1E2000AB187022205870FF20A0
:100950009870124D201C2C1C343400280CD000F050
:1009600070ED002816D1201C00F082ED684600F0E2
:1009700086ED012028700DE000F062ED002809D01E
:1009800000202870201C00F080EDFFF7DFFE684695
:1009900000F080EDFFF7AAFF38BD0000B88A00C064
:1009A000F0B587B0011C2031069101784378069894
:1009B0001B0219430630363909040025090C6A4622
:1009C00001F0D0FA0198002806D1FFF7B5FF00200A
:1009D00000F066ED07B0F0BD0120FFF7ADFF314F2D
:1009E0007C20C05D00F05CED391C98317A1C0C1C39
:1009F000019800F06FF9002809D0201C00F056ED96
:100A00001A22381C7D30019900F0DEEC012500240B
:100A1000A000C6199036307A4007800F00F01CED18
:100A20000C2358430822C01904300189090B09031B
:100A300001810021417041600178914330221143CE
:100A4000022291430170327A120704D50122114328
:100A50000422114303E04908490004229143013470
:100A60002406240E042C017095CC45920100000050
:100A7000EC1900C000020000F35F4B20D2D30698AF
:100A8000C37880781B02184300280DD1002406E0AB
:100A9000012100F0DBF901256419042C04DAA0001F
:100AA000684480680028F3D1002D9DD00120800784
:100AB00000F00CED98E70000B88A00C0F8B5041CFF
:100AC00000F0C8EC002800D1F8BD00250F2000F090
:100AD00004ED071C201C00F006ED00F0C8EC00241B
:100AE0000F4E0AE00C21614389194979022901D985
:100AF000012506E001342406240E8442F2D3002DA1
:100B000008D0201C00F0F4EC0C20604381194879D7
:100B1000FF304871381C00F0F2EC281CD4E70000CC
:100B2000B88A00C0F8B5061C0025012000F09EEC34
:100B3000041C244F2AE00E206043FF21113180194C
:100B400001700B0A43700A2181700B0A0C2161436A
:100B5000C3700471CA191179C907C90F417111799C
:100B60008907C90F817111798906890FC1711179BE
:100B70004907C90F017211790907C90F4172011C98
:100B80000A31906800F05CEC0E350134032CD2DDA4
:100B90003C1C7034A07B002812D0617B301C3830A4
:100BA00001700B0A4370A17B81700B0AC370391C62
:100BB0007F310430A27B00F012ECA07B4519043594
:100BC000281CF8BDB88A00C0F8B5041C00F042EC3F
:100BD0000026F643012700280AD00021E01C051C4E
:100BE00000F034F9A178281C00F0C8F9B04202D115
:100BF0002770301CF8BD0020FCE70000FEB50D1C7E
:100C0000041C00F028EC002806D0073D01A800F0E5
:100C10009DF90198002803D1012020704042FEBDBB
:100C2000011C203100264E7062791D4F8A70617957
:100C30002A1C3970E11D0291243000F0D0EB291DEF
:100C400001980B0A0170437000F05EEC431C01D167
:100C50003E70E1E7601C041C00F05CEC00281BD037
:100C60000F4D3F221C35281C029900F0B8EB0C4EAA
:100C70000436301C00F052ECEA72532A01000000E6
:100C8000E81B00C00002000007B7F59D201C00F023
:100C90004CEC00F054EC0204120C00922B1C0121CD
:100CA000301C054A00F050EC0120C2E73E700020E5
:100CB000BFE70000C4DE00C0291F00C010B5011C42
:100CC00020304278002A07D0012A06D0022A03D118
:100CD0000021043000F0C4F810BD074B82781C7866
:100CE000A242F9D100221A704B7809781B021943ED
:100CF000303900F0E1F810BDC4DE00C0F0B50123CA
:100D0000051C807A4006840F181CA040AC7B64064A
:100D1000A60F1C1CB4402043AC7C6406A60F1C1C10
:100D2000B4402043AC7D6406A60F1C1CB440204395
:100D300000066C78000E182C01D10F2801D000207D
:100D4000F0BD002A03D0287A0007000F107000229F
:100D50000C2050432A4BC418900043199E7A043447
:100D60007606B70FBC460E5C0627BE4367467F007B
:100D70003E430E549F7AFF06FF0FBC460827BE4332
:100D80006746FF003E430E549F7ABC46F027BE43A1
:100D900067463F013E430E54DF7A4618B4467678E4
:100DA000BE46F027BE4377463F013743664677701D
:100DB000DE7A3F093F0136093743664677701F7B6D
:100DC0005B7B1B021F430E4B7780C0189030007A6C
:100DD000000707D52078030704D401231843042310
:100DE000184306E020780423400840009843082771
:100DF000B8430132042A2070AADB0120F0BD0000B4
:100E0000B88A00C070B50C1C144E71781BD0207AC3
:100E10000007000F884215D0311C98310D1C721C40
:100E2000201CFFF76BFF00280CD0281C00F052EBB1
:100E30001A22211C301C7D3000F0DAEA01208007E4
:100E400000F04EEB70BD0028FCD0007A0007000FC8
:100E50008842F7D000F07EEB70BD0000B88A00C079
:100E6000B0B50C1C407A8006400F00F046EB00F055
:100E700008EB012189070822012C0E4D0BD10C2310
:100E80005843431918794407C27D7FCC0100000004
:100E9000E41D00C0000200001E4F2BED12D5040718
:100EA00010D410434008400008E00C235843431975
:100EB0001879040706D59043012210431871081CC5
:100EC00000F018EBB0BD0000B88A00C0F8B5051CF2
:100ED0000E1C244800F04EEBFF21234F4F31381CED
:100EE00000F04EEB041CFF214F3100F07AEA1F485E
:100EF00000212070030A6370A171E1710920217142
:100F00006171030AA070E370002D02D102202072EB
:100F100017E0321F101C0F302172A070030AE3701B
:100F2000A878291D6073E8780E1CA073201C0F3070
:100F300000F068EAE878002803D10121301CFFF7AF
:100F400099FF0B48211C806800F020EB002803D19A
:100F5000202000F0D0EAF8BD211C381C00F01CEB6A
:100F6000F9E70000C8DE00C07CD700C06E8000003A
:100F7000047A00C010B5041CFF202D3000F012EBE5
:100F80002060002808D0054B0D22054900F010EB29
:100F9000216811202031087010BD0000B47900C014
:100FA000748500C098B5041C6846FFF7E3FF0098FD
:100FB000002801D1C04398BD011C203102224A7093
:100FC00000228A70CA703F22211C243000F01AEAE5
:100FD000432100980B0A0170437000F0AAEAEAE787
:100FE00010B5041C407A8006400F00F090EA00F033
:100FF00052EA0C235843094940180079000703D4EA
:101000002721201CFFF7CEFF05490878002804D0CF
:10101000002008700021FFF759FF10BDB88A00C0FA
:10102000C4DE00C080B5FF210231024800F0DCE9D7
:1010300080BD0000D4E100C0B0B50C1C0A1C044DFA
:10104000011C281C00F0DEE9FF3501352C70B0BD15
:10105000D4E100C0034AFF210131895C0170101CFA
:1010600070470000D4E100C0F7B50C1C0A3A150423
:101070002D0CDD2728E0E378A0781B021843011D22
:101080000E0421786378360C1B021943FF231D33AD
:1010900099420BD00133994267C6F8500100000015
:1010A000E01F00C000020000EAA7955012D1E070D6
:1010B0001248A77002681248A31C0168052007E0C7
:1010C000E0701048A77002680F48A31C0168082050
:1010D00000F09CE9A81B05042D0CA419002DD4D107
:1010E00000980A4A0A49002803D1086A10600120C2
:1010F00000E0106808620120FEBD00006C6F00C0B7
:10110000706F00C05C6F00C0686F00C0D0E100C0AD
:10111000C0A00080B0B501256D02084CA068401940
:10112000817A002000F054EAA0684019817A0120F9
:1011300000F04EEA024902204871B0BD98DD00C0BF
:10114000147F01C006488168012040020818C17A56
:10115000002901D1012100E00021C1728172704794
:1011600098DD00C080B50648064A81780170C178D4
:1011700041705178117041690161FFF7CBFF80BD6B
:10118000147F01C0CD6F00C080B5FFF7DBFFFFF714
:10119000C1FF80BDB0B5174D174C6878642802D1E7
:1011A0006069002823D100F01AEA052806D3E07808
:1011B000002803D061780331884215D80F480078A1
:1011C000022806D0A078002803D021780331884275
:1011D0000AD8606964280AD32069642807D368782C
:1011E00029780530884202D2FFF7BCFFB0BDFFF777
:1011F000CBFFB0BDCD6F00C0147F01C0366C00C006
:101200000A490B4A8869904201D80A3088617D22D8
:101210008868D200904201D80A308860054AC868C0
:10122000904201D80A30C86070470000147F01C0A6
:1012300070170000204E000007490848084B8161E4
:1012400000210170417064221A7001618170C170C7
:101250005A7041610171704788130000147F01C00A
:10126000CD6F00C080B5FFF7E7FF0B4800F070E9D5
:10127000C078810889070DD580070BD5074881689C
:10128000012040020818C17AC907C90FC1728172D2
:10129000FFF740FF80BD0000DD4601C098DD00C0C3
:1012A00004494879002803D09AFFDA77010000004A
:1012B000DC2100C0000200005C98C0CFFF30487104
:1012C0000020704701207047147F01C0F8B5051C4D
:1012D0000F1C38480121806849024018407B161CC9
:1012E0000028354C3ED000F08AE9A07000F08CE96F
:1012F000211CC870281C314D6870201C4761007982
:10130000002705282ED202A31B5C5B009F4400002F
:10131000030B103D46002A49A069884222D30120D0
:10132000A76120712DE0A878002831D1022033E098
:10133000301C00F049F8002814D1A760E06821496A
:10134000221C88420FD29078062803D91178401ABF
:10135000431C08DBD078072803D95178401A431C76
:1013600001DB177123E0D7606878287090781070DF
:10137000D078507050691061FFF7EEFE03201071B5
:101380000120A870FFF7D0FE11E0A878002802D055
:10139000FF30A8700BE00420207108E0301C00F042
:1013A00013F8002803D1A760FFF7FEFE277120790C
:1013B000F8BD000098DD00C0147F01C0CD6F00C0F3
:1013C00070170000204E000010B5002814D10C4CFE
:1013D0007D21A068C90088420ED26069642803D3C9
:1013E00008484078142807D200F014E9002805D0F6
:1013F000A078E178084301D0002010BD012010BD85
:10140000147F01C0CD6F00C004F01FE54C07000041
:1014100004F01FE59407000004F01FE51809000020
:1014200000C09FE51CFF2FE1B958010004F01FE543
:10143000F007000000C09FE51CFF2FE17DDE0000EB
:1014400000C09FE51CFF2FE1EDD8000000C09FE524
:101450001CFF2FE1C930000000C09FE51CFF2FE1F9
:1014600055C8000000C09FE51CFF2FE1A503010047
:1014700000C09FE51CFF2FE17DD5000000C09FE567
:101480001CFF2FE179FB000004F01FE5080A0000B3
:1014900004F01FE5700C000000C09FE51CFF2FE169
:1014A00085FB000000C09FE51CFF2FE1056A0100DD
:1014B00000C09FE51CFF2FE1869E057F0100000014
:1014C000D82300C000020000A8707E72350600001C
:1014D00000C09FE51CFF2FE1116A010000C09FE5DD
:1014E0001CFF2FE1D9EB000000C09FE51CFF2FE19E
:1014F00019F7000000C09FE51CFF2FE1F5F3000085
:1015000000C09FE51CFF2FE1C1F6000000C09FE571
:101510001CFF2FE1B9DB000000C09FE51CFF2FE19D
:10152000D12F010000C09FE51CFF2FE111DB00005F
:1015300000C09FE51CFF2FE11924000000C09FE5BB
:101540001CFF2FE149F1000000C09FE51CFF2FE1C7
:10155000216A010000C09FE51CFF2FE159EB00004C
:1015600000C09FE51CFF2FE1A1EB000000C09FE53C
:101570001CFF2FE141D8000004F01FE54C0C0000D7
:1015800000C09FE51CFF2FE16165000000C09FE5E2
:101590001CFF2FE1719C000000C09FE51CFF2FE1A4
:1015A0003565000000C09FE51CFF2FE15D4C010088
:1015B00000C09FE51CFF2FE19965000000C09FE57A
:1015C0001CFF2FE18902010000C09FE51CFF2FE1F5
:1015D00075F9000000C09FE51CFF2FE1C902010062
:1015E00000C09FE51CFF2FE199D4000000C09FE5DB
:1015F0001CFF2FE141DA000000C09FE51CFF2FE136
:101600009953000000C09FE51CFF2FE179260100DF
:1016100000C09FE51CFF2FE19D3F010000C09FE53A
:101620001CFF2FE1D13F010000C09FE51CFF2FE10F
:101630008141010000C09FE51CFF2FE14D350000F6
:1016400000C09FE51CFF2FE1C158000000C09FE5CE
:101650001CFF2FE17D36000000C09FE51CFF2FE13D
:101660006135000000C09FE51CFF2FE1E967000025
:1016700000C09FE51CFF2FE1B533000000C09FE5CF
:101680001CFF2FE19D9D000000C09FE51CFF2FE186
:1016900091FA000000C09FE51CFF2FE12D670000BC
:1016A00000C09FE51CFF2FE12DC8000000C09FE592
:1016B0001CFF2FE1A137000004F01FE5C01100005E
:1016C00000C09FE51CFF2FE1348A432F010000007A
:1016D000D42500C000020000B188A002A939000092
:1016E00000C09FE51CFF2FE1C569000000C09FE519
:1016F0001CFF2FE17D55010000C09FE51CFF2FE17D
:101700003D55010000C09FE51CFF2FE1B1CB00005B
:1017100000C09FE51CFF2FE1A1F7000000C09FE57E
:101720001CFF2FE141A3000000C09FE51CFF2FE13B
:1017300051F9000000C09FE51CFF2FE145D90000D2
:1017400000C09FE51CFF2FE13DDD000000C09FE5CC
:101750001CFF2FE15143010000C09FE51CFF2FE15A
:10176000E546010000C09FE51CFF2FE189F700005E
:1017700000C09FE51CFF2FE1A5E1000000C09FE530
:101780001CFF2FE1B1A2000000C09FE51CFF2FE16C
:10179000A1DE000000C09FE51CFF2FE1A92E010083
:1017A00000C09FE51CFF2FE1F9F2000000C09FE59B
:1017B0001CFF2FE135DC000000C09FE51CFF2FE17E
:1017C00095F4000000C09FE51CFF2FE1CDF2000062
:1017D00000C09FE51CFF2FE131C8000000C09FE55D
:1017E0001CFF2FE1D9F3000000C09FE51CFF2FE193
:1017F000914B010000C09FE51CFF2FE1BDD8000008
:1018000000C09FE51CFF2FE161F4000000C09FE5D0
:101810001CFF2FE1BD74000000C09FE51CFF2FE1FD
:101820009D62010000C09FE51CFF2FE1796201006D
:1018300000C09FE51CFF2FE1E5BF000000C09FE551
:101840001CFF2FE111AE000000C09FE51CFF2FE13F
:101850003966000000C09FE51CFF2FE19D54010088
:1018600000C09FE51CFF2FE17555010000C09FE5FA
:101870001CFF2FE1895A010000C09FE51CFF2FE1EA
:10188000D9F9000000C09FE51CFF2FE165BA0000F8
:1018900000C09FE51CFF2FE1919D000000C09FE567
:1018A0001CFF2FE1E9D3000000C09FE51CFF2FE1E2
:1018B00065DD000000C09FE51CFF2FE1B95101006C
:1018C00000C09FE51CFF2FE18935000000C09FE5A7
:1018D0001CFF2FE13D580100F778F8BA0100000025
:1018E000D02700C00002000045601EBF00C09FE579
:1018F0001CFF2FE18951010000C09FE51CFF2FE173
:101900005DD8000000C09FE51CFF2FE1555001008D
:1019100000C09FE51CFF2FE14D3F010000C09FE587
:101920001CFF2FE13545010000C09FE51CFF2FE1A2
:10193000113D010000C09FE51CFF2FE1A53701000C
:1019400000C09FE51CFF2FE10941010000C09FE599
:101950001CFF2FE18165000000C09FE51CFF2FE107
:10196000BD2B000000C09FE51CFF2FE105C6000055
:1019700000C09FE51CFF2FE1590B000000C09FE550
:101980001CFF2FE13D0B000000C09FE51CFF2FE175
:10199000A90B000000C09FE51CFF2FE1F50B000024
:1019A00000C09FE51CFF2FE159A6000000C09FE585
:1019B0001CFF2FE171A6000000C09FE51CFF2FE176
:1019C00089A6000000C09FE51CFF2FE189DE000012
:1019D00000C09FE51CFF2FE195DE000000C09FE5E1
:1019E0001CFF2FE10DFA000000C09FE51CFF2FE156
:1019F00099FA000000C09FE51CFF2FE1FDF80000F0
:101A000000C09FE51CFF2FE171F7000004F01FE507
:101A1000A808000000C09FE51CFF2FE1F5C60000EC
:101A200000C09FE51CFF2FE16963010000C09FE536
:101A30001CFF2FE1A963010000C09FE51CFF2FE1FF
:101A40001D58010000C09FE51CFF2FE185570100D4
:101A500000C09FE51CFF2FE12168000000C09FE54A
:101A60001CFF2FE1B9F1000000C09FE51CFF2FE132
:101A70003138010004F01FE53002000000C09FE58E
:101A80001CFF2FE1DD50010000C09FE51CFF2FE18E
:101A9000A9EC000000C09FE51CFF2FE16953010085
:101AA00000C09FE51CFF2FE1B5F2000000C09FE5DC
:101AB0001CFF2FE11152010000C09FE51CFF2FE128
:101AC0003979000000C09FE51CFF2FE1D19A00008A
:101AD00000C09FE51CFF2FE11979000000C09FE5C1
:101AE0001CFF2FE125790000599C3D1101000000E9
:101AF000CC2900C00002000082791CE200C09FE5F2
:101B00001CFF2FE1116C000000C09FE51CFF2FE1BE
:101B1000694B010000C09FE51CFF2FE1353F01002C
:101B200000C09FE51CFF2FE1B9C5000000C09FE584
:101B30001CFF2FE1C11E010000C09FE51CFF2FE12B
:101B4000311E000000C09FE51CFF2FE1454501004C
:101B500000C09FE51CFF2FE10DAE000000C09FE517
:101B60001CFF2FE10D51010000C09FE51CFF2FE17C
:101B7000FD50010000C09FE51CFF2FE155570000FC
:101B800000C09FE51CFF2FE1C96D000000C09FE56C
:101B90001CFF2FE1A9D6000000C09FE51CFF2FE12C
:101BA0002101000000C09FE51CFF2FE13939010031
:101BB00000C09FE51CFF2FE139BE000000C09FE57B
:101BC0001CFF2FE131E0000000C09FE51CFF2FE16A
:101BD000FDBE0000B0B5041C10490F4AFFF748EDE8
:101BE0000E49221C201C18300C321439051C0C4BD9
:101BF000FFF744ED09492A1C201C24392430094BE5
:101C0000FFF73CED05492A1C201C34393030064BC7
:101C1000FFF734EDB0BD0000FD2A00C05C6600C0D7
:101C2000712B00C0112B00C0BD3500C00A68531CC9
:101C300004D1011C1831816000207047081C7047D6
:101C400070B5041C4A68906852680D68AB1C20D0BF
:101C5000072D1BD0102D04D0132D1CD100F0C8FF70
:101C600017E000F06BFF002813D10C4E251C3078D4
:101C70003035002804D1291C201CFFF706ED3070F8
:101C80003178201CFFF706EDA56002E0101C01F082
:101C900041F8002070BD081C70BD0000487600C0EF
:101CA0000A68531C04D1011C243181600020704754
:101CB000081C704780B5011C0A784B782C301B0239
:101CC0001A4301F0BBFE80BDFFB587B00798856859
:101CD000287E6B7E1B0218430207120F0109059133
:101CE000049228786B781B021843383806040020C9
:101CF00003904F48360C002A6D371DA501000000E7
:101D0000C82B00C0000200007691A25F40682AD173
:101D10004C4F002807D14C4C0021201CFFF7CAEC87
:101D200078600028F8D047497C6850318C6003986F
:101D30001823444A5843083211508018211C20317E
:101D40008160291C071C2022201CFFF7A2EB301CFD
:101D500030302070030A3D48637000683C49496890
:101D60004118F96016E03749002208310B68002B52
:101D70003FD09C68002C3CD00F1C097D049A013197
:101D800091422ED1637820781B021843801920706D
:101D9000030A63700999039818230091294958434D
:101DA0000831471801940690B868291C321D243167
:101DB000089BFFF786EC00281CD10A982549800073
:101DC00041180C1C3434201CFFF7FEEB0130211CA1
:101DD000FFF790EB1B4C606801F0B0FD00226260E1
:101DE00004E0184C01F0AAFD00206060381C00F0EF
:101DF000B9FA25E0E8782B791B021843400718D47C
:101E0000227863780F491B021A4306980831085854
:101E1000816807988068FFF75AEC0A4C606801F007
:101E20008DFD00226260381C00F09CFA07980BB010
:101E3000F0BD0599B980B8688019B860049A3A7500
:101E40000020F4E75C1B00042C06000000A60080C4
:101E5000000000042C1C0004F0B5041C87B0866848
:101E6000307E737E1B02184301090207120F019294
:101E70000291E088202804D9E088203805042D0C40
:101E800000E00025002000905D480078012802D184
:101E9000019A002A73D1019A002A30D158490020B2
:101EA000584F08703868002806D15748006801F07C
:101EB0001FFD38600028F8D0009818214143514A8E
:101EC000069108328818059000F04CFA4D483F689A
:101ED000503087604B4A069908325050391C05989B
:101EE00020318160311C2022381CFFF7F0EB47487D
:101EF00000684349496841180598C16021E0414F95
:101F00000837B8880299884288BA2C60010000001E
:101F1000C42D00C0000200006F697C2F09D1386811
:101F200006228168301C0C310C30FFF7FEEA0028D5
:101F300001D0381C5FE03868391C8768087D019A39
:101F40000130904256D17B7838781B0218434019F3
:101F50003870030A7B70002D0BD0009818232E498F
:101F6000584308314018311C2A1C20318068FFF783
:101F7000B8EB0098182141432748049108300A180B
:101F80000392916849199160F17833791B021943E2
:101F900000E03CE0490734D4002D0AD17B78397841
:101FA000E2881B02194320239A1A891A39700B0AF6
:101FB0007B707B7839781B021943E180E2880499B1
:101FC000051C40588168A068FFF78AEB124E306804
:101FD00000280CD001F0BCFC002030600499695846
:101FE00088600C4901200870039800F0C5F9201C96
:101FF00007B0F0BD081C00F0BFF9064901200870C9
:1020000005E00299039A91800398019A02750020D5
:10201000EEE70000000000045C1B0004DCEF00C0E1
:1020200000A60080024840680006000E70470000CD
:102030005C6F00C00148008870470000346C00C02D
:10204000F8B5041C0E1C18210025171C101CFFF7E6
:102050001CEA27E06078811CB14225D82178DD296F
:1020600019D1072817D3092E15D3A01C00F03EF86C
:10207000002810D0012801D13C600CE0022801D1D9
:102080007C6008E0042806D1A800C0190135042DA1
:10209000846000DB03256078811C711A0E04360C05
:1020A00004190234002ED5D1F8BD000010B502206D
:1020B000FFF71CEB0C4CFFF720EBFFF724EB20683D
:1020C000002803D1FFF724EB002803D00120FFF7FD
:1020D0000EEB01E0FFF722EBFFF724EB0028EAD03C
:1020E0001020FFF726EBE6E74CE300C0B0B5051C77
:1020F00086B00024062204A81549FFF7D4E9144944
:102100000622063102A8FFF7CEE9114906220C315A
:102110006846FFF7C8E90622E54C3472010000006A
:10212000C02F00C0000200009B81C292281C04A99D
:10213000FFF704EA002801D1012410E00622281C40
:1021400002A9FFF7FCE9002801D1022407E00622DA
:10215000281C6946FFF7F2E9002800D10424201C5E
:1021600006B0B0BD7E6600C0BCB5051C00240622CA
:1021700068460649FFF7A0E90622281C6946FFF7D2
:10218000DEE9002800D10324201CBCBD906600C0FD
:1021900010B50A4C0A496068096888420BD020686B
:1021A000FFF7D6EA2068FFF7DAEA00206061054908
:1021B0000120486010BD00F0F1F810BDA08C00C0F7
:1021C000988C00C0146D00C010B50FC8014C0FC42E
:1021D00010BD0000047A00C0F8B501200025634C52
:1021E00060702570FFF7C0EA5021201DFFF756E907
:1021F0005E4E5F49543630680122FFF7BCEA041C8A
:10220000F6D060070BD505E0281CFFF7BAEA281CBA
:1022100001F0A8FB7068FFF7BAEA051CF4D1E005ED
:1022200005D525210020FFF7B8EAFFF7BCEA6005D5
:1022300003D523210020FFF7B0EA200503D5242190
:102240000020FFF7AAEA600401D5FFF7B2EA2004F4
:1022500002D5002000F09AFEA00501D5FFF7AEEAF6
:10226000E00401D500F074FCA00401D500F0C6FA2A
:10227000E00731D53F48006801F058FB061C04D147
:1022800001210220FFF7A0EA26E07569B068291C49
:1022900010310F1CFFF742E96946281CFFF79AEA44
:1022A0000098002815D0381CFFF7A2E90028ECD0D0
:1022B000017843781B0219430029E6D08178C3785E
:1022C0001B0219430907890FDFD1291CFFF788EA90
:1022D000DBE7301C01F05CFBA00724D52548006833
:1022E00001F024FB051C1ED06E69A868311C10315A
:1022F0000F1CFFF714E96946301CFFF778EA0098D5
:1023000000280DD0381CFFF774E900280BD00178A5
:1023100043781B021943002902D0311CFFF760EA01
:10232000281C01F035FBE00347ED262A01000000E0
:10233000BC3100C0000200005B7AC16001D5FFF72C
:1023400066EAA0060DD50E49887801300006000E19
:102350008870022805D300258D700A210020FFF720
:1023600026EA200700D44DE7054E543602E00869FE
:1023700049698847F068FFF714EA011CF7D141E783
:10238000B07900C0AFFF0100D8EF00C080B5011CDC
:102390000A784B782C301B021A4301F077FB80BD82
:1023A000002181808160FF2202750160704700007A
:1023B000F0B50026174D184FA8680130A8602969AC
:1023C000884211D3E86800280ED10024AE60385D41
:1023D000FF2802D0012101F083F801342406240EE5
:1023E000032CF4D30120E860A8682969884210D33F
:1023F000E86801280DD10024AE60385DFF2802D0C6
:10240000002101F06DF801342406240E032CF4D3CE
:10241000EE60F0BDA08C00C0146D00C010B5011CB2
:10242000054CE068FFF716E9002803D10821206871
:10243000FFF7D4E910BD0000047A00C001494860EC
:10244000704700005C6F00C030B50C1C0123191CE4
:102450008140002C0F4A17D0041C40000325082C93
:1024600007D214688540AC4383401C43201C106095
:1024700007E0546810388540AC4383401C43201C5F
:1024800050609068884301E09068084390600120A4
:1024900030BD00000002009010B500200D4A0E4C27
:1024A0001168062913D202A35B5C5B009F44000005
:1024B000030507090C0E094809E0206807E0A06839
:1024C00005E004481C3002E0054800E00548013101
:1024D000116010BDCCEF00C05C6F00C0000000C0F8
:1024E000E8FB00C0E83301C0024908680138086011
:1024F00070470000CCEF00C0F0B58DB00024FFF7AE
:102500008CE91C2102A8FEF7D4EF02A803F0C0F862
:1025100003F02AF82043614F061C391C0120FFF705
:1025200082E95F4D041CA8605E488C21FEF7C0EF75
:10253000A0685D4A011CC4319F99CBCC010000000A
:10254000B83300C000020000AF927FDD11605C492B
:102550005C4A0860011CFF31ED311160011C5A4AD0
:10256000543111605949FF30E5300860216903207A
:102570000880A8685649026900249161006955499C
:10258000002241610021231C381C0092FFF75AE908
:102590000643A868FFF75CE9012850D1FFF75EE920
:1025A0000020FFF762E901F035FA03F04BF8FDF780
:1025B0001BFE01210120FFF75EE90120FFF760E922
:1025C000FFF764E95C3F381C2930051CFFF724E85D
:1025D000C0780007810F0020FFF75EE8281CFFF796
:1025E0001CE8C0788107890F0120FFF756E8FEF745
:1025F0009DFEFEF77AEF0106090EF88AFEF77AEFE4
:10260000FFF74AE901F0EEFBFFF74CE9FFF750E96D
:102610003149324841618461016904613048006890
:10262000FFF74CE9251C3543002000F093FF2021E3
:102630000620FFF74AE9FFF74EE9284302D00120C0
:102640000DB0F0BD27482849886000212748FFF7D2
:1026500048E918490028486004D001220121406857
:10266000FFF744E9FFF748E9022009900A900420A7
:102670000C9009A80B94FFF7BBFD194A40329068F3
:102680001105084390601A4A5069082108435061B7
:1026900001210A20FFF736E9FFF73AE9FFF73EE9A3
:1026A000FFF742E907208002FFF744E90020C7E76F
:1026B000104701C0CCEF00C0104801C0C41B00048B
:1026C000C81B00048C1D0004881D0004901D00041C
:1026D000193300C0693300C0BF88127700A500809D
:1026E00000200080F085010000280080D9650000EE
:1026F000C0A2008070B500260D4C0D4D60680835F5
:10270000002805D001F042F9281C6660FFF752FE50
:10271000206800280AD001F039F9266028680549A8
:10272000866001200870281CFFF744FE70BD000081
:102730005C1B000400000004044948680968084361
:1027400001D001207047002039690D4F01000000C1
:10275000B43500C000020000B66AA1AD70470000A9
:102760005C1B0004F8B5041C081C251C49682435B2
:1027700042C90268144F131D17D0931C13D0052AA9
:1027800012D1081CFFF7E6E8301C00F01FFB0128FF
:1027900009D07878002804D1291C201CFEF7B0EF5E
:1027A000787079780AE00020F8BDB878002804D164
:1027B000291C201CFEF7A4EFB870B978201CFEF786
:1027C000A6EFA560EFE70000487600C038B5041C0E
:1027D0000020E378A2781B021A43012311495B020F
:1027E000C91809880232591A8A421AD263782078A5
:1027F0001B02184300AB1870E378A0781B02184343
:1028000000AB58706846022102F060FDA178E378C1
:10281000051C1B021943201D02F058FD401900043D
:10282000000C38BD2C7A00C00121490380B502207C
:10283000FEF7E8EF002080BD8CB50320C043009078
:102840000020019004486946FFF78AE8FFF78EE808
:10285000022000F01FF98CBD747900C0B0B5051CD2
:102860001B48006801F076F8041C04D1012000F038
:1028700011F9E043B0BD2B1C0022291C201CFEF7DF
:1028800010EF002020706070A879231C203318708E
:10289000E8792A1C587002202070030A6370A97915
:1028A0000C482A320170E97941706B7A287A1B0250
:1028B0001843211C20318870030ACB70042020703B
:1028C000030A291C0A31201C637000F0EBF8B0BD2C
:1028D000DCEF00C02C7600C080B50248FEF7C2EEE7
:1028E00080BD0000307600C0B0B5051C22480068ED
:1028F00001F030F8041C04D1012000F0CBF8E043D3
:10290000B0BD2B1C0222291C201CFEF7CAEE0020A1
:1029100020706070A879231C20331870E879062293
:10292000587002202070030A6370A979134801705F
:10293000E97941706B7A287A1B021843211C2031F7
:102940008870030ACB7004202070030A201C2430F6
:1029500063700B49FEF7CEED8121001901000000E4
:10296000B03700C00002000042821F106378207858
:102970001B02184306302070030A2A1C291C0A3146
:102980002A32201C637000F097F8B0BDDCEF00C065
:102990002C7600C0B47900C0F8B5041C2348FEF7BB
:1029A0006CEE02F015FD207863781B021843303876
:1029B0000104201C2030090C051C02F091FCA878B1
:1029C000EB781B021843002801D003202BE0FEF710
:1029D000DEEF1648211C043800680C3100906B793A
:1029E0002E791B021E4300AB1A88114802804680D4
:1029F00006220430FEF788ED301CFEF7CEEFFEF71E
:102A0000D2EF0C4900200860201CFEF769F8FEF7A1
:102A10009EED041CFEF7CCEF211CFEF7D0EF281C26
:102A2000FEF7D2EF002000F03FF8F8BD307600C08E
:102A3000708500C0544901C0FEB5041C0025ED435B
:102A4000437800781B0218433038022808D3211C31
:102A50000C3106220F1C1248FEF798ED002801D019
:102A6000281CFEBD0F4E00250621301D3580FEF7C7
:102A70003AED7580281CFEF790EF203463782078BB
:102A80001B02184300AB5881391C062201A8FEF72F
:102A90003CED152101A8FEF7A8EE0020E1E70000BB
:102AA000B47900C0708500C008B500AB18706846E6
:102AB0000B21FEF79AEE08BDFEB5041C0D1C20216B
:102AC000437800781B02184302900026171C281C2C
:102AD00002F044FD031C2A1C0021201CFEF77AEFA3
:102AE0000E21381C02F03AFD051C082803D9F835E0
:102AF0002E06360E08252B1C3A1C0121201CFEF741
:102B00006AEF002E05D07A19331C3221201CFEF703
:102B100062EF1C48021C70321179002905D05379EC
:102B2000021C7632201CFEF756EF01A802F02EFCA4
:102B3000031C0298019A0106090E201CFEF750EFB3
:102B4000201CFEF778ED431C05D10120FFF7ACFFF8
:102B50000020C043FEBD0C4C606800280BD1201C37
:102B6000FEF772ED322200920912AB330100000031
:102B7000AC3900C000020000859B1D4D00230121DF
:102B8000201C074AFEF776ED03E03221201CFEF7F9
:102B900038EF0020E8E70000B88A00C0307600C0B7
:102BA000813600C00121090380B50220FEF73EEE08
:102BB000002080BD8CB50320C04300900020019010
:102BC00005486946FEF7E0EEFEF7E4EE002202213A
:102BD000002000F0FDF98CBD387900C0F8B5041C68
:102BE000FF205D30FEF76AED051C06D1221C012195
:102BF000A07900F0EDF9E843F8BD231C0B22211C5D
:102C0000281CFEF762ED00222A706A70A1791A4E24
:102C1000281C2030318001700B0A43700221718022
:102C2000012181700B0AC370027142710620287065
:102C3000030A6B70281CFEF708ED431C04D1221C0C
:102C40000121A07900F0C4F90B4C08346068002819
:102C500004D03221201CFEF7D4EE0AE0201CFEF73F
:102C6000FEEC3222009200230121201C034AFEF7D1
:102C700002ED0020C0E700004C7600C0D53900C04E
:102C800080B5FEF788EE032000F0B2F9002080BD89
:102C9000F8B5051CFF2000265D30FEF710ED041C82
:102CA00005D1C643032000F0A3F9301CF8BD2B1C4E
:102CB0000C22291C201CFEF708ED02202070030ABC
:102CC0006370EB79A8791B021843211C203108702E
:102CD000030A4B70201CFEF7B8EC0B4DFF2468680C
:102CE0002D3400280AD1281CFEF7B8EC002301215E
:102CF000281C0094054AFEF7BEECD6E7211C281CD0
:102D0000FEF77EEED1E700006C7600C0B13A00C05D
:102D1000B0B5011C2031CB788C78021C1B021C43FF
:102D20002030437800781B0218430006000E0C3256
:102D3000022C0B4D07D00E21A980042100F048F988
:102D40000020C043B0BD4B7909791B02194300290B
:102D500000D101E0A980052100F03AF90020B0BDC2
:102D60004C7600C010B5011C20318A78CB781B024C
:102D70001A43022A13D000244D4684E701000000C4
:102D8000A83B00C0000200007173A3F0E443042AD2
:102D90000DD14B790979021C1B0219430C32002911
:102DA0000AD0084881800521012000F01BF9201C71
:102DB00010BD00F07DF810BD0021012000F012F9D7
:102DC000002010BD4C7600C08CB5017843781B0202
:102DD00019433039022902D20020C0438CBD011CA6
:102DE00020314B7809781B02194300ABD980011CB4
:102DF00006220C316846FEF79CEB12216846FEF76E
:102E000008ED0020EAE70000F8B5041C2034061C99
:102E100020786378254F00251B021843ED43083FB7
:102E20000028224903D0012801D080281DD13A88EA
:102E3000904206D1E378A0787A881B02184390422A
:102E400001D0012530E0081CFEF72AEC20786378D9
:102E50001B021843012803D1301CFFF78DFF02E04D
:102E6000301CFFF75FFF051C1EE0081CFEF718EC86
:102E700020796379321C1B0218430C32002808D0D9
:102E8000B880207863781B0218430006000E0521E5
:102E900008E00D20B880207863781B0218430006F4
:102EA000000E042100F09EF8281CF8BD547600C0E6
:102EB000F8B5061C071C2036307973793D1C1B02BF
:102EC00018430C35002804D0444A90802A1C052160
:102ED00007E0FF205D30FEF7FCEB041C05D12A1C47
:102EE0000121012000F07EF85EE02B1C0B22291C42
:102EF000201CFEF7F4EB0025257065702379E0783F
:102F00001B02184340210843E070030A2371201C70
:102F10000121243001700B0A4370637821781B0271
:102F20001943023121700B0A2C4A6370042151802D
:102F3000032181700B0AC370637821781B02194347
:102F4000023121700B0A6370057145716378217835
:102F50001B021943023121700B0A63701021817129
:102F6000F179C171637821781B0219430231217014
:102F70000B0A391C28316370F2790830FEF7D8EA61
:102F800063782078F1791B027AA2C5B501000000B0
:102F9000A43D00C000020000688B7D8018434018EB
:102FA00008300104090C0B0A21706370201CFEF725
:102FB00042ED201CFEF75CEB431C02D10020C04315
:102FC000F8BD0B4C08346068002804D03221201C66
:102FD000FEF72AED0AE0201CFEF754EB32220092A5
:102FE0002B1C0121201C034AFEF758EB0120E7E7C8
:102FF0004C7600C0D53900C01CB500AB0C1C9871D4
:10300000111C0622DC716846FEF79CEA0E21684618
:10301000FEF708EC1CBD00001CB5041C0748FEF7B9
:103020004AEB00AB9C71062205496846FEF78AEA26
:1030300011216846FEF7F6EB1CBD00006C7600C05F
:10304000B47900C070B5041CFF2601360670330A3F
:10305000437001210430FEF7F4ECA070030AE37022
:1030600004190434330A2670051D0021201D6370E5
:10307000FEF7E6ECA070030A42190432001904308E
:10308000E37000F04FF880180004000C70BD0000E1
:10309000F0B58C46FF21093101700B0A43700621FF
:1030A00081700B0AC37004300421042200242423FD
:1030B000634301342406240E047063445B780130BA
:1030C0000232120403700130120C032CEFD30026DD
:1030D0002421714300240F1C01363606360E674446
:1030E000A1007D18FF210A3101700B0A43700421F1
:1030F00081700B0AC37004714671A9780134817123
:10310000E978083212042406C1710830240E120C2A
:10311000092CE5D3032EDBD300F004F8801800045B
:10312000000CF0BD0021C943017041700021817085
:10313000C17004207047000070B5002500240E4EB9
:1031400006E0801940688047002800D0012501343E
:10315000E00031580029F4D1002D0BD1064D002498
:10316000503503E04019406880470134E000295899
:103170000029F7D170BD0000D46E00C0014800687E
:10318000704700009C8C00C0014800687047000038
:10319000E06600C0F8B50C1C65FB9AD90100000080
:1031A000A03F00C0000200009C63C33D051C002836
:1031B00010D0012D25D00A2D71D0632D07D146489E
:1031C0000078582803D14549201CFEF74AEC4248B4
:1031D0000570F8BD41483A212A38FEF748EC461CF4
:1031E000F5D0301CFEF748EC021C311C201CFEF709
:1031F0004AEC201CFEF740EC0019103800218173C6
:10320000E5E7364904223631201CFEF7A6E9201CEA
:10321000FEF732EC0619FEF73CEC311C00F06EFCB8
:10322000201CFEF72AEC2D4F001926373978017043
:1032300079784170201CFEF720EC0619FEF72EEC81
:10324000311C00F05BFC201CFEF716EC234A001931
:1032500032321178017051784170201CFEF70CEC6D
:103260000619FEF722EC311C00F048FC201CFEF78A
:1032700004EC00190722391DFEF76EE9201CFEF749
:10328000FCEB0619FEF716EC311C00F037FC201C95
:10329000FEF7F2EB397800190170797800E013E05D
:1032A0004170201CFEF7E8EB0619FEF70AEC311C12
:1032B00000F024FC201CFEF7E0EB00193A1F117807
:1032C00001705178417082E7044908223A31201C8C
:1032D000FEF742E97BE700000CD800C02A6700C077
:1032E000B0B5104AD36810490E4D0C69E3180B6154
:1032F000403D6B6B4C69E3184B612B6B8C69E31899
:103300008B6153680C6AE3180B6293684C6AE3188C
:103310004B6212688B6A9A188A624422FEF71CE993
:10332000B0BD000040A800802C1C0004B0B50168AE
:10333000027A8968FF320905090F891A1A4C0906B1
:10334000E269090E5218E2614268002A26D1026839
:10335000D26BD57813791B021D43EB070AD59578FC
:10336000D3781B021D432B079B0F022B02D1937CAA
:10337000DB0702D49279D20702D52268013222609B
:10338000E26A0132E262002902D0A2680132A26040
:10339000012906D9E1680131E16002E0616801318B
:1033A000616002F09DF8B0BD818133210100000011
:1033B0009C4100C000020000BED46F4B2C1C0004D6
:1033C00070B5021CFF32ED32084D074C0020810021
:1033D00049190B7841008E182354737050540130F2
:1033E0000E28F4D370BD0000336B00C000A1008034
:1033F00010B58221C174842101758B2141759621FC
:1034000081750C21C1751221017618214176242184
:1034100081763021C17648210177041CC434011C17
:10342000103160224A736C228A730022CA732021F1
:103430000A54FFF7C5FF0A49886A431C08D0886A06
:10344000002805D0886A206005482030808903E084
:1034500004482060FF20FF30A080012010BD000044
:1034600000A500800050430210B5054BDA68041C2B
:103470000120A0408243002900D00243DA6010BD41
:10348000000200900A2801D2303000E057300006D8
:10349000000E70478CB5FF21B9311E220192002227
:1034A000009106490120044BFEF71AEB002800D1D9
:1034B0008CBD0120FCE70000986600C0552F00C0BD
:1034C00080B50120FEF712EB80BD0000F7B50328A0
:1034D0009446244E07DC234B311C28331C1C10342B
:1034E000002200251FE0011F032907D81D4B311CB6
:1034F0002C331C1C10340022042514E0194A011C32
:1035000008390432032907D8164B111C30331C1C10
:1035100010340822082506E0124B111C34331C1C01
:10352000103408220C25821A5200032797400A689B
:10353000BA433A430A800121B26881408A4332810A
:10354000401B80000F211A688140654685408A43F0
:103550002A431A8022688A43019981400A43101C39
:103560002080FEBD00020090044AD168F0230007CD
:10357000000E99430843908170470000400200907C
:10358000F0B507280F4E02DC321C002302E00D4A82
:1035900004320823C31A5B00032415689C40A5432A
:1035A0000124271C9F403D432B1C13808440B3689B
:1035B000221C93433381F368F44472A70100000096
:1035C000984300C0000200004A3CD1F6934381407A
:1035D0000B43181CB081F0BD00020090044AD16872
:1035E000090909010007000F084390817047000096
:1035F00040020090FEB50024051C86003C4F2420AC
:1036000060433C49401881194878102830D202AAFA
:1036100010558A7801AB1A55C9786B461955022A9C
:1036200026D0062A24D202A39B5C5B009F440000A4
:103630000C03201410173968002901D1012100E082
:103640000021FFF7A7FF13E039680029F8D0F5E75C
:103650000809FFF793FF0BE00807000F06E00809D1
:10366000FFF78CFF6846005D0007000FFFF7B6FF0D
:1036700001342406240E032CC1D31F4800261F4FFB
:103680000024056001A8005D02280FD102A8005D9A
:10369000012804D0B85501363606360E06E06946D4
:1036A000095D0A07120F0909FFF71AFF0134240602
:1036B000240E032CE6D3002E10D0114C6069002894
:1036C0000AD02068FEF7A8E82068FEF7ACE80020E2
:1036D00060610A490120486001F0DEFE002D03D040
:1036E000062D01D0072D01D106480560FEBD000062
:1036F000106D00C0A26C00C0988C00C0146D00C09A
:10370000A08C00C09C8C00C00122034982408868C4
:103710001043088170470000000200901CB5114C56
:10372000E068FEF7F4E9002819D10120FEF7EEE980
:10373000002814D16068FEF7EAE900280FD120685C
:10374000FEF7EAE9072208490192002200910849A0
:103750000420064BFEF7CEE9002800D11CBD012055
:10376000FCE70000047A00C04C0400006C6600C056
:103770006D3000C080B50420FEF7C2E980BD0000B6
:1037800080B500F053F980BD80B50248006800F0B4
:1037900027F980BDDCEF00C010B5011C064C606845
:1037A000FDF7B2EF002805D104212068FEF770E88C
:1037B000002010BD012010BD047A00C0B0B500206B
:1037C00000221E4BC1005A52AD6E41500100000054
:1037D000944500C00002000053C40F86013000066B
:1037E000C918000E0C284A60F6D3194C0120188025
:1037F000083C616802250A1C12325A6008221A81AC
:103800000A1C1332DA601D8211325A6118830232A7
:10381000DA6104221A840A1C28325A621D85226841
:103820004831941DDC62188602345C6318870134C9
:10383000DC631C1C403425800A325A642081D96420
:10384000034844216030FDF798EE0020B0BD000031
:10385000CC1B0004FEB50621041C251C9030271C3F
:10386000AC370190C435201CFDF782EE6420E08067
:1038700001212172FF206072002666816420E060D1
:10388000267466740220A0746420A084FF20262180
:1038900008556420A062201C06212E30A685FDF765
:1038A00068EE0621201C3630A686FDF762EE062162
:1038B000201C3E30A687FDF75CEE01216164A66402
:1038C0004F200155201C5030029001710D2206300E
:1038D0003349FDF760EE029802214671201C6030EA
:1038E000C1702F4906710D2210390530FDF752EED7
:1038F000201C7030032181702949C6700D222039A7
:103900000430FEF71AE9201C80300421417024495C
:1039100086700D2230390330FDF73CEE0198062108
:10392000066001980430FDF724EE01980C218672A0
:1039300001980B30FDF71CEE0198012106763E70D0
:103940007E700A2078603E72FE603E61FF20E730A4
:103950003E7501532E70502068700421A970942088
:10396000E870DE202871AD20687160202861C801F0
:10397000E860281CFF21F531FC30018341838183FD
:10398000C18308480421E88009202872054869722B
:1039900001386881201CFFF73FFD0120FEBD0000BB
:1039A000186600C02B09000010B5C000064BC418F3
:1039B000185A6468086003E02178013411700132FC
:1039C0000138F9D210BD0000CC1B000410B5C300B3
:1039D000074C18194068E35A34019BD601000000D7
:1039E000904700C000020000A72CB13B8B4205DAD3
:1039F000191C03E013780132037001300139F9D248
:103A000010BD0000CC1B000480B500F007F80028B2
:103A100001D0806880BD002080BD000010B5041C6E
:103A20004069E26800219047002800D110BD011CC8
:103A30002431416184616188227809186431891ACE
:103A40000A1F8B0702D08A089200043A1060816036
:103A500010BD00000021002880B506D0011F82079C
:103A600002D08108890004390968081C05D000F0DB
:103A700007F8002801DD002080BD0020C04380BD84
:103A8000F8B5041C00258669E76870693269211C55
:103A90009047002801D10135A0603C1CF4D1281CBE
:103AA000F8BD000010B5041C0120A0400A4B0129FC
:103AB000596901D1014300E0814359610649403908
:103AC000012A4A6901D1024300E082434A618A69BE
:103AD0001043886110BD00004002009000B5074807
:103AE0000078022808D100210420FEF71BFD0122E6
:103AF00001210420FFF7D6FF00BD0000416B00C08C
:103B000010B5021C5468081C002C0FD0A1680029B5
:103B100006D19268002A03D0211C10319047A06082
:103B2000A1680020002900D0201C10BD002010BD7D
:103B300010B5054CE268012383409A4381400A4353
:103B4000101CE060012010BD00020090B0B5041C04
:103B50000D1C0009FFF7B4FC28702007000FFFF7C9
:103B6000AFFC6870B0BD000070B50D1C3C3A11048C
:103B700086B06A46090CFEF7E5FA0A4E0024E0001A
:103B8000315C002906D080194268002A02D06946BB
:103B9000281C904701342406240E012CEFD306B0D4
:103BA00070BD0000946C00C070B5051C101C0A7834
:103BB0001E1C4B780C1C1B021A43AA4205D1A2788A
:103BC000E3781B021A43B24201D9002070BD002ADB
:103BD0000CD01206120E0431FDF7E6ECE378A07863
:103BE0001B0218430430000423EF510401000000BD
:103BF0008C4900C0000200006035B366000C70BD47
:103C0000042070BDB0B5041C0430A578E3781B0215
:103C10001D43022D0CD10378137000781E22430837
:103C20005B0600D042081006000E002900D088472D
:103C3000E378A0781B02184304300004000CB0BDE8
:103C4000F8B5041C161C0F1C437800781B0218439F
:103C5000FF38023801D00020F8BDA178E3781B02BC
:103C60001943002917D00720FDF7D6ECC200121A1D
:103C7000051C211D381CFDF7A2EC012D03D1002EDF
:103C800001D078783060A078E3781B0218430430C4
:103C90000004000CE0E70420DEE70000F8B5041C97
:103CA00000260F1C0025207863781B021843011C96
:103CB000FF39013906D1201DFDF756EF01352D04DE
:103CC0002D0C03E00749884200D10126A078E37853
:103CD0001B02184304190434BC4201D8002EE2D060
:103CE000281CF8BDFFFF000010B58178C3781B02C7
:103CF0001943042912D1017909290FD24379042BE0
:103D00000CD2002B0AD01C1C2423634389009A1870
:103D10005118827924398A70C279CA70C378807840
:103D20001B02184304300004000C10BDFFB581B025
:103D300000908678C3781B021E43002E02D1042017
:103D400005B0F0BD04390F043F0C051D24E02878B0
:103D50000135042819D2002817D024235843039989
:103D60004418243C6078102806D02978102901D006
:103D7000884201D004998847002029780130000644
:103D800061700434000E0928F7D3023F0135023E6A
:103D90003F043F0C3604360C022F01D3022ED6D23C
:103DA0000098C37880781B02184304300004000C8C
:103DB000C6E7000010B5021D047843781B021C43BF
:103DC000FF3C033C01D0002010BD8478C3781B0267
:103DD0001C43022C0DD11378527812021A434B1C4B
:103DE000002A03D101220A70002101E00A70110AA1
:103DF0001970C37880781B021AB612C70100000040
:103E0000884B00C00002000094DD0DDB1843043035
:103E10000004000C10BD0000027843781B021A4316
:103E2000212A01D0002070478278C3781B021A43F0
:103E3000002A06D104C1002004C10839086004200A
:103E4000704702790A7142794A7101220A60C37887
:103E500080781B02184304300004000C70470000F7
:103E600038B5002A00D16A468578C378041D1B0244
:103E70001D43022D0AD12578631C4C1C0D70197846
:103E8000002900D10121117019782170C378807840
:103E90001B02184304300004000C38BD10B5041C8C
:103EA000437800781B021843FF381C3801D00020EB
:103EB00010BDA078E3781B0218430106090E201DEF
:103EC000FDF7A0F9E378A0781B0218430430000442
:103ED000000C10BDB0B51420204C60802020207054
:103EE000FDF752EE60611E481C4DE0601D486035D4
:103EF00020611D481821A0606560281CFDF75AEB61
:103F0000ED601A484425C460183465802020207074
:103F1000FDF740EE60611248E060124820611348EE
:103F200004611834658020202070FDF73AEE60614E
:103F30000B48E0600B4820610C48446118346580F0
:103F400020202070FDF732EE60610548E0600548F2
:103F5000206106488461FDF730EEB0BD9C4801C089
:103F600089020100C9020100256500C0CCEF00C034
:103F700080B5032181700B0AC37004300149FFF73B
:103F8000CDF880BDA26C00C0F8B50322051D043930
:103F9000130A0C048270C370240C184E164F23E0D1
:103FA000042C27D328786B781B021843FF2309338E
:103FB000984209D0013398420DD12106090E321CD6
:103FC000281CFFF79BFE07E03B1C321C211C281C11
:103FD000FFF7B6FE00E0201C844203D3211A0C0434
:103FE000240C00E000242D18002CD9D104480068CE
:103FF000FFF728FBF8BD0000D54400C0A26C00C04C
:10400000988C00C080B5054A38663805010000006C
:10401000844D00C0000200008D25D3AB0348917988
:104020008170D179C17000F005F880BDB44601C03F
:10403000147A00C080B50648C37880781B02184304
:10404000800701D5002000E00120FDF7C6ED80BD0E
:10405000B44601C0F8B5041C0025ED43017B0420E3
:104060000029374E48D10025F07001277770354878
:10407000FDF7B8ED34A00CC830697169FDF7B8EDF3
:1040800006D0FDF7BAED326973698018594101E035
:104090002DA103C9FDF7B6EDFDF7BAEDFDF7BEEDB5
:1040A0002B49F06809688968C0310870002809D177
:1040B0002848437800781B021843000702D5B078DF
:1040C000032804D101F0FCF9F068002808D1214848
:1040D000437800781B021843000701D401F0F0F97F
:1040E0001D48FDF71CEBC1061C4803D407730021D3
:1040F00041730CE047730AE0B178032903D1F070F3
:10410000FFF78AFF03E00021F17000F02FFEFF218E
:104110004F311348FDF724EB071C0ED0FF214F3120
:10412000381CFDF74EEA211D0822381CFDF75AEA1B
:10413000207B387201207872B760281CF8BD00001F
:10414000147A00C0768100C000000000000000006A
:10415000D4EF00C0B44601C0708500C0604801C003
:104160007CD700C0F8B5041C2C4900F0A9FB2D4EEB
:104170002B4DB078A871F078E87128484930FDF7E8
:10418000CEEA80060227002805DAB078F3781B0211
:104190001843384304E0B078F3781B021843B8435F
:1041A000B070030AF370FFF745FFFDF73EED1E48C0
:1041B0000078042802D10320A87000E0AF701748EF
:1041C000021C4B32011C593101F00EF8002823D09B
:1041D000FF264F36311C1548FDF7C2EA051C1BD0DF
:1041E000311C281CFDF7ECE911482870030A6B709C
:1041F0000020A871E871637920791B0218432871A7
:10420000030A6B710A20A870030AEB700120287260
:104210006872281C01F01EFA59126F850100000017
:10422000804F00C00002000079CD6D16F8BD00007F
:10423000768100C0147A00C0B44601C0B07900C0D5
:104240007CD700C012800000F8B5051C0026C07C99
:10425000F64300283B4F42D1B878022801D003280A
:1042600046D1FFF7CDFA041C39D0B878032801D124
:10427000192000E00D202070201C3F210930009003
:10428000FDF7A8E930480E2200886074030A2F4821
:10429000A374031C2033D97A201CE173197B217489
:1042A0002A492D313330FDF7A8E928492022201C66
:1042B00018391330FDF7A0E90622291C0C310098AB
:1042C000FDF79AE9201CFFF7A3FA012835D1201C3D
:1042D000FFF792FAB878032807D1FFF7A7FEB8785E
:1042E000032805D1FFF7A2FE04E019490020087059
:1042F00000F046FDFF214F311648FDF73CEA041C53
:1043000019D0FF214F31201CFDF764E90020A07176
:10431000E071B878022801D003280BD10E48207034
:10432000030A63700A20A070030AE370E87C20721D
:1043300002206072BC60301CF8BD012604490320D5
:104340000870F8E7147A00C0346C00C0948100C093
:10435000B07900C07CD700C01280000006482F2131
:1043600009014018437B007B1B021843002800D141
:1043700070470120704700004E8600C070B50024D1
:10438000124D13482C700460FDF75EEC114828189C
:10439000FDF7CEE900280BD00F4E3078002800D171
:1043A0006C7080210D48FDF71AE93471FDF752EC6D
:1043B000084804302818FDF7BCE9011C01D0281C6E
:1043C0008847FDF74EEC002070BD00004E8600C00F
:1043D0005C4901C067020000147A00C0D88100C0A7
:1043E000B0B5BD208000114C2018FDF7A2E90028CF
:1043F00003D0A921C900FDF7EEE8132040012018E1
:104400000025C573272000012118281CFDF726E987
:1044100007482118281CFDF722E90548043821180F
:10442000281CFDF71CE900207BF64AFF0100000074
:104430007C5100C000020000C0363BD7B0BD000078
:104440004E8600C067020000004870474E8600C0DC
:1044500005484178002904D00078002801D00120C7
:1044600070470020704700004E8600C010B5041C45
:1044700005484178002905D00730FDF764E9206040
:10448000012010BD002010BD4E8600C00348044925
:1044900080B54018FDF756E980BD00004E8600C08B
:1044A00067020000F0B5041C002087B00D1C002C32
:1044B000009071D0524E5149301CFDF796E82F21E3
:1044C0000901012071180872030A4B7205228A72D1
:1044D0000873030A4B73601901902078002869D093
:1044E0001422211C701CFDF792E8311CFF3182312F
:1044F000132040010591311804919A30311803912D
:1045000002383118331C1533251C14350430371884
:104510000693029159E029786B781B021943FF2317
:104520000633081C99423ED00CDC002918D0043B0D
:1045300099421FD0013399423DD1281C0299FFF7BF
:1045400061FC35E0FF231333994209D0FF201F306F
:10455000814230D102233A1C291CFFF757FB27E088
:10456000717D4B0159188A191632291C069B00F0DF
:1045700051FF1DE0A878EB781B021843E0280BD808
:104580000022281C0599FFF783FB041C04D0201F80
:104590000104090C18D000E02AE00720FDF764E8C8
:1045A0000499887010E00022281C0399FFF776FC1C
:1045B000041C07E01FE0A878EB781B0218430430C6
:1045C0000404240C002C13D02D1901988542A2D389
:1045D000BD2080000B4C3118201CFDF74AE807482D
:1045E00004383118201CFDF744E80098002802D058
:1045F000012007B0F0BD0020FBE70000020300002F
:104600004E8600C02E7C00C0FEB5041C4D4E707856
:10461000002808D03078002805D1002C03D0FDF701
:1046200030EB002801D10020FEBD47483118201C86
:10463000FDF71EE8454801271F0426A001000000E1
:10464000785300C00002000034DE856A0760FFF77F
:10465000EBF8041C02D1FDF70CEBEEE737701B20E2
:10466000207002206072FF21ED31201C0A30FCF71F
:10467000C6EFB0780622A072201CFF210B30FCF799
:10468000C6EFF1780E200E2900D2081C0506132073
:1046900040013118487889782D0E42198A4202D992
:1046A000091A0D062D0EC300181A8119FF31EA00F0
:1046B000521B8231201C1130FCF7B2EFFF22311C5B
:1046C00016316C32201C7430FCF7AAEF707D732118
:1046D0000855301C0B30FDF740E8211CFF31F1314B
:1046E00002910191FCF7CEEFFDF7DAEA1D480E21A9
:1046F00000681330FDF7DAEA2F2000013018437A02
:10470000017A221CFF321B021943E13251730B0A5A
:104710009373807A0199087169460020FDF7CCEA0D
:10472000012D07D1FF208330805D0099884201D19F
:1047300002994F71201CFFF77FF8012805D1201C3A
:10474000FFF76EF80020307085E70749074A0878C0
:10475000D0700F70012071E74E8600C06B02000020
:104760005C4901C0C81B0004B07900C0147A00C0C5
:10477000F0B587B0061C0C1C002105A802C006225B
:1047800002C003A85C49FCF74CEFB078F3781B0239
:104790001843083807043F0CFFF746F8206000284C
:1047A0006ED01B210170206808220130311CFCF7FB
:1047B00038EF2168002048722068FF210A30ED316F
:1047C000FCF71CEFFCF73CFD20680125FF30E130D1
:1047D00045732B0A837321680520FF31F13108717D
:1047E0002068311C07220A300831FCF71AEF073F16
:1047F0003F043F0C0F366AE0307873781B02184391
:10480000FF230333984245D01DDC00282BD001281C
:1048100037D0013B98424DD100200290216802AA76
:104820001131301CFFF73EFA051C002001A9FDF7ED
:1048300044EA0298019988423BD121680120FF3166
:10484000F131487135E0FF23FCDF82A10100000057
:10485000745500C0000200002D265B1A06339842F2
:1048600029D0FF231333984207D0FF231C339842EB
:104870002AD1301CFFF744FB24E021687322525CEC
:1048800053019A188A180B1C73337432311C00F0D0
:10489000D5FD17E038E022680E23FF32E032311CEC
:1048A0000120FFF7C7F90DE02168FF31EE31301C20
:1048B000FFF7BCFA06E021680022FF31F531301C19
:1048C000FFF700FB051C06E0B078F3781B021843E5
:1048D000043005042D0C002D16D0781B07043F0C66
:1048E0007619002F92D1206805A90B300622FCF71B
:1048F000E4EE002805D1206803A90B300622FCF75E
:104900009AEE002007B0F0BD0120FBE7786600C0FA
:10491000F0B58BB0071C0E1C864809210A90FCF7E5
:104920007CEE6021301CFCF774EE7B7C387C824985
:104930001B021843088081480021C16080A406CC76
:104940003D1C153501614261083C00F0D7FD391C62
:1049500008310622301CFCF76EEEB87B331C403366
:104960005872F87BB11D9872B87C203BD871F87CE6
:104970001872387D5872B878FB78099145310891E2
:10498000113907911B021843073106911538183168
:104990000591ACE004380490A978EB7800271B025D
:1049A0001943814271D828786B781B02184330284C
:1049B0006CD014DC042837D008DC00282BD0012868
:1049C0002CD003286AD10127079C70E006282BD041
:1049D000212863D15C49281CFFF750FA5EE0FF23D1
:1049E0000B33984223D00BDCDD2858D0FF23023351
:1049F000984253D10022281C0599FFF75DF94DE03C
:104A0000FF231433984216D0FF232033984245D118
:104A10004A4C05344BE02021099C01E0089C0E2102
:104A2000201CFCF7F6ED42E00127069C3FE0281D24
:104A300000F0ECFC32E0291C0C310C1C2F1C08226D
:104A400068468018FCF7F6ED3DA00CC80399029863
:104A5000FDF7F6E822D0391DCFE5554301000000EF
:104A6000705700C000020000D9CEE5A70F1C082235
:104A700068468018FCF7E8ED36A00CC80399029848
:104A8000FDF7E8E814D00822391C68468018FCF7C6
:104A9000DCED0822211C6846FCF7D6ED01E033E08E
:104AA00047E000AB0FCB801A294A99411061516150
:104AB0001EE0281D041CFDF7EBFB012834D10A9CE5
:104AC0000127002C14D0002F0AD06B7828781B0205
:104AD00018432070EB78A8781B02184360700234EA
:104AE000AA78EB78291D1B021A43201CFCF7ACEDB9
:104AF000A878EB78049A1B021843011C4D19101A70
:104B00000435042800D34FE7341C5034A07A002821
:104B100008D13036307BA072FCF7EAEF02280FD1C3
:104B2000012060720BB0F0BD201CFDF7E5FB0328EF
:104B3000DED1074A0120D060281CFDF7F1FED7E73F
:104B400000216172EEE700002C8B00C0346C00C0C5
:104B5000147A00C00000000000000000BCD900C0B2
:104B6000F8B5051C00F034F9FF274F37391C1248FF
:104B7000FCF728EE041C0026002819D0391C201C44
:104B8000FCF750ED0D48291C2070030A6370A671D4
:104B90000F20E671A070030AE370A87C0C31A073AB
:104BA000201C06220830FCF750ED201C00F084FD8C
:104BB00003488670F8BD00007CD700C02480000048
:104BC000147A00C070B5051CFEF742FE041C0026D6
:104BD000002815D0132020700822291C601CFCF727
:104BE00034ED291C08311C22201C0930FCF72CED67
:104BF000201CFEF735FE01281FD1201CFEF724FEE5
:104C0000FF254F35291C1048FCF7DCED041C13D0A0
:104C1000291C201CFCF706ED0C482070030A637069
:104C2000A671330AE3710F20A070030AE37001201C
:104C3000A073201C00F040FD70BD054801210670E6
:104C40000120FDF754E870BD7CD700C0248000002F
:104C5000B07900C070470000FEB5041C0025ED438C
:104C6000007B002600280AD13A009D0601000000C2
:104C70006C5900C0000200001ED7E7FA1B4906204D
:104C800008701B480025012141701A4801734673C2
:104C900001E000F0A7F81848FF21029009200190D8
:104CA00020894F310090277B1448FCF796ED041CB7
:104CB00017D0FF214F31201CFCF7BEEC029820706A
:104CC000030A63700198A070030AE37000982071D2
:104CD000030A6371330AA671E3712772201C00F086
:104CE000F5FC03488670281CFEBD0000B07900C0AA
:104CF000147A00C0604801C02C8000007CD700C03E
:104D0000F8B5051C0020254F3978002900D0012076
:104D100000281CD1224907208870FEF7A3FD041C3F
:104D200015D0201C09306021061CFCF786EC1820E9
:104D3000291C083120705922301CFCF790EC201CF3
:104D4000FEF798FD012826D1201CFEF787FDFF26DF
:104D50004F36311C1348FCF740ED041C1AD0311CAF
:104D6000201CFCF76AEC10482070030A63700020D6
:104D7000A071E0716B7928791B0218432071030A36
:104D800063710920A070030AE37001202072201CC7
:104D900000F09CFCF8BD02203870FBE7B07900C041
:104DA000147A00C07CD700C02C800000B0B5051C70
:104DB0000B1C0B4C111C201D002A04D06380062202
:104DC000FCF74CEC04E0002161800621FCF734EC98
:104DD00025700C20FCF79AEF00F004F8B0BD00003D
:104DE000588200C080B50020064908700649C87086
:104DF0004870FBF7EBFE01210120FCF782EFFCF786
:104E00008CEF80BDB07900C0147A00C0B0B5FFF758
:104E1000E9FFFF254F35291C0B48FCF7DEEC041C8D
:104E200011D0291C201CFCF708EC08482070030A4C
:104E300063700020A071E0710820A070030AE37085
:104E4000201C00F043FCB0BD7CD700C040800000B7
:104E5000B0B5FEF707FD041C09D01E202070201CF1
:104E6000FEF708FD012820D1201CFEF7F7FCFCF717
:104E70005AEFFFF7B7FFFF258CD92F440100000040
:104E8000685B00C000020000EA3F59474F35291C0B
:104E90000B48FCF7ACEC041C11D0291C201CFCF7BF
:104EA000D6EB08482070030A63700020A071E071FF
:104EB0000820A070030AE370201C00F011FCB0BDB4
:104EC0007CD700C040800000F1B58CB0AF4CB04D35
:104ED0002078002872D027200001011C20182E689D
:104EE0000B90AC4810396718002520180A90A1E0F3
:104EF000B01C04907078317800020843023001043D
:104F0000090C00200190002402912FE0E000A2494A
:104F1000062209580498FCF7EEEB002823D1A800DC
:104F20009E4940199C4A4018E400A218017913795F
:104F3000994272D9984B1171195901230631039185
:104F4000C1560323C056FCF7FEEE03999D2208705C
:104F50009349E80041188D489200201880180822D3
:104F6000FCF786EB59E001342406240E8D480079C5
:104F70008442CBD3019800284FD1844C0B98FCF786
:104F800014EC02994018A921C900884245D80A9812
:104F9000FCF70AEC311C029AFCF76AEB0A98FCF762
:104FA00004EC80497C4B09790230C9005850A800B4
:104FB0007A49401944180123E15600E09AE003239E
:104FC000E056FCF7C0EE00900A98FCF7EEEB009973
:104FD000714B0172734821790079C200D2181171A6
:104FE0007049013008710A98FCF7DEEB029940180D
:104FF0000A99FCF770EB0B98FCF7D6EB0299401876
:105000000B99FCF768EB6649E8004118F87B5F4CA8
:10501000C00000199D22920000E006E080180822DE
:10502000FCF726EBF87B0130F8730299761801350E
:105030002D062D0E0C98407BA84200D958E7594800
:105040005449067951489B39051C0F354418002EE8
:105050002BD0281CFCF7A8EB0990C00707D5201C13
:10506000FCF7A2EB01210843211CFCF734EB099863
:105070004649800719D52F221201002089188A7A03
:10508000454B10E0C100C9188EF306BD01000000B9
:10509000645D00C000020000F3C7873709799142C0
:1050A00008D3201CFCF78AEB02210843211CFCF7E3
:1050B0001CEB04E001300006000EB042ECD338498E
:1050C0007878C9784018B978884200D30020787081
:1050D000281CFCF774EB3449314A973955180028DD
:1050E00002DA7878002805D1201CFCF768EB291C2F
:1050F000FCF7FAEA2B4C2068002803D0FEF718FDD5
:10510000002020600DB0F0BDFF264F36311C2B482B
:10511000FCF776EB041C3BD0311C201CFCF7A0EA0A
:105120000C9880882070030A63700C98477BA772E4
:105130002868002825D0002511E0281CFCF712EE75
:1051400006063616281CFCF714EE00060016311C65
:10515000FCF702EE05A9485501352D062D0EBD427E
:10516000EBD30020164B09E081005958002902D0EA
:1051700005AA125C8A7101300006000EA17A8142F4
:10518000F2D80B20A070030A0B48E3708460B9E7E3
:1051900028680028B6D0FEF7CBFC00202860B1E7D5
:1051A0004E8600C0CC8200C0FE020000D88100C044
:1051B000208500C0C08500C0147A00C07CD700C024
:1051C0007C8500C0F8B5051C26480078002820D151
:1051D0006946281CFFF7FEFA01281AD0224C092044
:1051E000A0700098FF21E031095C002904D11F481C
:1051F0000E210068133002E00E21FF30E030FCF792
:1052000088ED0098FEF74AFB012824D10098FEF7AC
:1052100039FBFF264F36311C1548FCF7F2EA041C17
:1052200018D0311C201CFCF71CEA12482070030A1D
:1052300063700020A071E0716B7928791B0218431C
:105240002071030A63710C20A070030AE370201C14
:1052500000F050FAF8BD08490878E07001200870A5
:10526000F8E700004E8600C0147A00C0C81B000496
:105270007CD700C006800000B07900C001494871A9
:1052800070470000147A00C0F7B50025171CED43E5
:10529000FEF7FCFA041C2AD0198FCCF6010000009E
:1052A000605F00C000020000072F398A1020164EF0
:1052B000207070790622E073201C09300099FCF7F9
:1052C000ECE90722201C10300199FCF7E6E90E22D8
:1052D000391C201C1730FCF7E0E90C490878F07005
:1052E00005200870201CFEF7E3FA012808D1201CD5
:1052F000FEF7D2FAB078032803D1FEF7E7FE00E00C
:105300000025281CFEBD0000147A00C0B07900C042
:10531000F8B5061C0027007B00280AD11648012199
:105320004170164A06201070154800250173477316
:1053300001E00025ED43FF214F311248FCF76AEAF6
:10534000041C14D0FF214F31201CFCF794E90E48B7
:105350002070030A6370A7713B0AE3711420A070E8
:10536000030AE370307BE074201C00F0CDF90248A2
:105370008770281CF8BD0000147A00C0B07900C006
:10538000604801C07CD700C02B800000F8B5051C28
:1053900033480078002845D1281C08302021061CFD
:1053A00000F0A4F900283DD0FEF77AFA041C55D08D
:1053B000201C09304521071CFCF75CE91D202070EA
:1053C0000822291C601CFCF768E94522311C381CA6
:1053D000FCF762E9201C2030817AC37A214A1B0243
:1053E0001943002904D11168898C81720B0AC37298
:1053F00011682622525C02734020005D002809D10A
:105400000A182318013000064033D27C000E0E2803
:105410001A70F5D3201CFEF74BFA01281ED1201C70
:10542000FEF73AFAFF254F35291C0F48FCF7F2E941
:10543000041C13D0291C201CFCF71CE90B4820700D
:10544000030A63700020A071E0710920A070030AB4
:10545000E3700120E074201C00F056F9F8BD000054
:10546000B07900C0C81B00047CD700C02B800000AE
:1054700070B50C1C0126094976028D192A88031C77
:105480000020B61AA64208D95018221C191CFCF795
:1054900004E9288800192880201C70BD2C7A00C0DF
:1054A000FFB589B001A800241485ED2D010000008E
:1054B0005C6100C000020000B1106C150026171CD2
:1054C0001D1C2021FCF7E4E809992020002916D0B2
:1054D000FF231333994219D10A9EB178F3781B0246
:1054E00019430A1D1404240C0139202900D8081C72
:1054F000021C01A8711DFCF770EB367906E0031C55
:10550000002001AA0A99FEF7D1FB041C28780B2879
:105510000AD2042C08D92022781C01A9FCF7C6E87D
:105520003E70287801302870201C0DB0F0BD0000BE
:1055300003490160012040020818008870470000FC
:105540002C7A00C010B5094CA168002903D0081CB2
:1055500000F0E4F803E01B2801D1FEF769FFE078D2
:10556000034908700020A070A06010BD147A00C02C
:10557000B07900C003480121490240180021018090
:10558000704700002C7A00C080B501210120FCF793
:10559000E0EB0A4800688068C0300078012807D135
:1055A000074907200862C81705494031086148616A
:1055B000FCF7F8EBFCF7FCEB80BD0000D4EF00C07B
:1055C00000A30080F8B500251648174C0068174E58
:1055D0006060E5600A2020617068002820D0002407
:1055E000371C385DFF2802D00021FEF769F801342E
:1055F0002406240E032CF4D30B4C00210C48A56088
:10560000FCF754EA6061002801D10120F8BD43682D
:105610000122236005600121181CFCF74EEA756029
:105620000020F3E7988C00C0A08C00C0146D00C06F
:10563000253000C0F8B5041C407AA67A0E283AD26C
:10564000216814238968227A0905090FFF32891A13
:105650000906090E00911849584345182F1C0837B0
:10566000381CFCF7C0E8009940180130391CFCF7E1
:1056700050E8281CFCF7B6E80130291CFCF748E884
:105680006068002807D10E2E15D2142070430A49F5
:105690004118043107E0207A002802D0291C10317B
:1056A00001E0291C0C310C1C081CFCF79CE80130A3
:1056B000211CFCF72EE8F8BDAE154A74010000006D
:1056C000586300C00002000045F8D2A8701C000416
:1056D00010B5FF22054C1932211CFBF7F2EFFF2118
:1056E0001931201CFBF7DEEF10BD0000701C000418
:1056F00010B5002301E0C4540133934202D2CC5CC4
:10570000002CF8D1934201D20021C1541806000E9A
:1057100010BD0000002203E001328A4200D20130B5
:105720008A4202D20378002BF6D11006000E704791
:1057300010B5041C0748211C8068FCF786E8002887
:1057400003D12020FCF734E810BD211C0248FCF7EF
:1057500082E810BD047A00C07CD700C0F8B53621BD
:105760002E4C201CFBF79EEFA37860781B02184399
:10577000022108436070030A0127A370A772032067
:10578000A074FCF726EB2379E1781B021943B94397
:10579000384001430E1C330A211C20482931E67091
:1057A00023713830FBF7BEEF0825A5820D20E0827B
:1057B0003E40301C207606206076030AA376E5760C
:1057C0002B0A2377201C0A21103041730B0A8373A4
:1057D0000C21C1730B0A0374201C0E212030417070
:1057E0000B0A83701021C1700B0A037112214171E1
:1057F0000B0A83711421C1710B0A037260880221A4
:105800003843084360800020FCF7E8EA0448008B36
:1058100020822586FCF7E8EA0020F8BDB44601C0E6
:105820000020008007480078022809D1064A106A43
:10583000102188431062054A90680902084390606D
:1058400070470000416B00C00002009000280080FB
:1058500003480078022802D10249C002C86070479C
:10586000416B00C00028008004480078022804D161
:10587000034A9068D10C084390607047416B00C0A8
:10588000002800801C22011C80B50248FCF7EAE9D0
:1058900080BD0000648B00C070B50E1C002803D0D2
:1058A000082801D0092811D1FBF732EF051CFCF7BD
:1058B000A2EA041C281CFBF73AEF002C06D0201C9F
:1058C00008303460FBF798EFCCAAB1A501000000C6
:1058D000546500C0000200005C000CD8001970BDC7
:1058E000002070BDF8B5061C002000901F48151C54
:1058F000311C0068FEF79AF9041C00D1F8BD00279E
:10590000002D0CD1A0683D1C002806D0810701D0D5
:1059100080088000043800684569002D18D0291CD3
:105920001031A068FBF708EF002E08D0082E0BD02E
:10593000092E0DD16946281CFCF75AE808E0694693
:10594000281CFCF768EA03E06946281CFCF75CE8C1
:105950000098002801D0E08005E00020FCF760EA14
:105960002761A7600024201CC8E70000D8EF00C012
:105970006E6F707172737475767778797A00000043
:105980006162636465666768696A6B6C6D000000DC
:105990004E4F505152535455565758595A000000C3
:1059A0004142434445464748494A4B4C4D0000005C
:1059B000576169745F417574685F527370000000CD
:1059C000417574685F5265715F49646C65000000E1
:1059D000417574685F5265715F5372765F5374618D
:1059E00000000000417574685265715372765374FB
:1059F000610000004D4143204D676D7400000000C0
:105A0000FFFFFFFFFFFF0050F20200010050F20213
:105A100001010050F20202010050F20101000000F9
:105A200049646C65000000004F5320570054696DB5
:105A300065004561676C004D49422000434220509B
:105A4000005478204D004D61634E0049646C650040
:105A50004D61632000000000000000000000000015
:105A600000000000000000001446090000000000D3
:105A70000000000000000000000000000000000026
:105A800000000000000000002449643A20736438DC
:105A90003638362D42302C205246383638582C2095
:105AA0004650342C20392E37302E32302E70302094
:105AB000240052433A202C2079686F752C20323014
:105AC00030392F30382F32352C2031323A30363AB7
:105AD00033330000290000004E04E72B01000000D2
