:10000000030000EA020000000900000000000000F8
:100010000000000050009FE5100F01EE0000E0E33B
:1000200048109FE50C0081E5180091E52008A0E14B
:100030000B0050E30400000A1B0050E30200000A1A
:100040002C009FE5300081E5010000EA24009FE5D7
:10005000300081E520D09FE520009FE5001090E56D
:100060001C209FE5001082E5060000EA741F0000D6
:100070000020008012090000E73A07140020000465
:1000800004000000FCFF0000C4808FE2030098E839
:10009000080080E0081081E001B040E2010050E17A
:1000A0001300000A7000B0E8050054E1FAFFFF0AEF
:1000B000010014E30B408410010015E30B50851080
:1000C000020015E3095085100350C5E3106056E2A5
:1000D0008C10B4288C10A528FBFFFF8A866EB0E137
:1000E0000C00B4280C00A5280470944404708544C6
:1000F000E9FFFFEA082098E50C3098E5082082E047
:10010000083083E001C042E20070A0E30000A0E3F9
:100110000060A0E300B0A0E3030052E11000000B78
:100120003000B2E8010014E30C408410020014E334
:10013000094084100340C4E3105055E2C108A428CC
:10014000FCFFFF8A855EB0E14100A428047084446E
:10015000F0FFFFEA180000003C0000003C00000037
:100160005400000004F01FE5800100C00000000002
:100170000000000000000000A8010000000000C016
:1001800004080000AC090000000900C08C00000059
:10019000A801000000000000040800C000000000EA
:1001A0008C0900C07800000070477047004708477E
:1001B00010471847204728473047384778470000FE
:1001C000030052E38300009A03C010E20800000A13
:1001D0000130D1E402005CE30C2082E001C0D19444
:1001E0000130C0E40130D134042042E201C0C094A7
:1001F0000130C034033011E26300000A042052E2EF
:100200007400003A03C031E7020053E30800000A1B
:100210000F00008A2C34A0E104C0B1E5042052E2B2
:100220000C3C83E1043080E4F9FFFF2A011081E2F5
:10023000680000EA2C38A0E104C0B1E5042052E2D5
:100240000C3883E1043080E4F9FFFF2A021081E2D8
:10025000600000EA2C3CA0E104C0B1E5042052E2B9
:100260000C3483E1043080E4F9FFFF2A031081E2BB
:10027000580000EA784700001EFF2FE17847000091
:100280000E50A0E13C0000EB05E0A0E10040A0E141
:100290000D10A0E10A30A0E10700C0E360D080E2C9
:1002A00010402DE9280100EB1040BDE807D0C1E364
:1002B0000060A0E30070A0E30080A0E300B0A0E332
:1002C00004C0A0E1C009ACE8C009ACE8C009ACE8D2
:1002D000C009ACE81F402DE90000A0E30010A0E336
:1002E000FFFFFFEB401081E2016080E0446F86E297
:1002F0001C6084E5181084E50100A0E3140084E587
:100300001F40BDE80210A0E11EFF2FE1784700006A
:1003100010402DE90020A0E10000A0E3FFFFFFEB6B
:100320001040BDE81EFF2FE1D4FFFFEB360000FABE
:100330001CC09FE50FC08CE001001CE30DE08F1294
:100340000FE0A0011CFF2FE101C08FE21CFF2FE195
:1003500000F052F8AD0400007847000001402DE99C
:10036000500000FB0140BDE8010000EA78470000B2
:100370000000E0E3530000EA7847000000009FE53A
:100380001EFF2FE1A40900C07847000010402DE9AE
:10039000202052E20500003A1850B1281850A02839
:1003A0001850B1281850A02820205222F9FFFF2A07
:1003B00002CEB0E11850B1281850A0281800B1485A
:1003C0001800A0481040BDE802CFB0E104309124ED
:1003D000043080241EFF2F01822FB0E10120D14480
:1003E0000130D12401C0D1240120C0440130C024F7
:1003F00001C0C0241EFF2FE110B5041C00F000F85E
:10040000201CFFF7ACEF10BC08BC1847F0B5041C6B
:100410000D1C83B000F0BEEA00940195002000F0AE
:1004200000F8029026486946784400F000F8051C60
:100430000E1C00A903C900F000F800F000F800F05D
:1004400000F80021002000F000F8071CFFF796EFED
:10045000041C00210762002000F000F8411C6162CA
:100460000021002000F000F80021A062002000F030
:1004700000F80021E062002000F000F8206300F0A6
:1004800000F800F000F800F000F800F000F800F0CC
:1004900000F800F000F800F000F800F000F8281C68
:1004A000311C03B0F0BC08BC184708B500F000F8D8
:1004B00000F000F800F000F801B008BC1847000098
:1004C00094000000784700001800A0E308109FE5A2
:1004D000563412EF1EFF2FE1090000002600020033
:1004E000784700001EFF2FE17847000010402DE9FB
:1004F000A1FFFFEB040080E21040BDE81EFF2FE1EA
:1005000000470000FEB500200290019083480126BC
:10051000C06B0025052823D201A31B5C5B009F4410
:10052000020C040C0C00002607E07D4A7D49158072
:100530000969022901D1C901118079498400083172
:100540000D604D6078488D60784F0159381CFFF779
:100550002EFE77480059FFF729FE00F0D1F900E0A0
:10056000FEE70198002809D072488069000C00025B
:1005700010210843051C0020019000E010256E4F5B
:10058000281C3959FFF713FE002E04D06B48005980
:10059000FFF70CFE00260020009069480059FFF785
:1005A00005FE68480059FFF701FE00280AD15F48A0
:1005B0005B4F0FC808370FC7103F3868012814D0A9
:1005C000042812D0564F0837386814280DD001205F
:1005D000594F0543281C3959FFF7E9FD5748005981
:1005E000FFF7E4FD00980028D7D04D480830006898
:1005F000012811D004283CD0142848D1484E484D39
:10060000083668684ECE4EC06968002648790028D2
:100610003ED00126002543E0414808308568464821
:100620000159281CFFF7C3FD44480059FFF7BEFDE0
:10063000002743480059FFF7B9FD42480059FFF72A
:10064000B5FD002807D140480059FFF7AFFD00284D
:1006500001D101261BE00120054337480159281C20
:10066000FFF7A5FD35480059FFF7A0FD002FE0D0AA
:100670000DE0314F00203959FFF799FD2F480059FF
:10068000FFF794FD264808304068FFF739FF38E04F
:10069000C98801204002814200D2081C05042D0CAB
:1006A000254F3959214F381CFFF781FD1C481D4A41
:1006B000018820328A189582436872011B79DB0613
:1006C000DB0E1A43174B3033C9188A71002607E036
:1006D000134840688068801900F030F901C704367B
:1006E000AE42F5DB0E480F4A008800212032801808
:1006F00001810E2101800126002D02D00189890788
:10070000FAD5074800210830016041608160C1606E
:100710000298002800D124E7FEBD0000C0FF0000C1
:100720008C0900C000010080140900C0000A00C04C
:10073000000900C000200080640900C03C0900C01E
:10074000280900C0780900C0500900C004009FE5D6
:10075000401D80E20EF0A0E10010000401490520D8
:1007600048617047000C008070470000002070470F
:10077000002070477047000070470000704700007D
:1007800003480449088040074188418070470000C1
:1007900004800000200000800121C907488840072C
:1007A000FCD57047002070470249034801808F2123
:1007B000C183704704800000200000800121C90728
:1007C000886270470121C90788637047054A80B570
:1007D000121D05CA0249043AFFF7F2EC002080BD61
:1007E000000A00C0940900C080B5FFF78BFE00200E
:1007F00080BD000004214807416300214162704729
:100800000121C907486A4007FCD57047002070479E
:100810000121C80701620421416370470121C90712
:10082000888170470121C907C863704704480021C7
:1008300002880448101801810D21018070470000D2
:100840008C0900C020010080044903480988081869
:100850000189C907FCD57047200100808C0900C0C0
:100860000348044900884018C079042108407047B3
:100870008C0900C00001008005480D210288054850
:1008800010180180002181810321818070470000C0
:100890008C0900C0200100800249034A0988891898
:1008A000086170478C0900C0000100800249034ABA
:1008B00009888918486170478C0900C000010080D0
:1008C00001490420088370474000008003490889DB
:1008D0004007FCD5002008817047000040000080E0
:1008E00000207047014904200883704740000080C1
:1008F0000121C907886270470121C9074861704713
:1009000001210920000710B501600021416008485D
:10091000822141600A210160064C03206080002092
:1009200000F00CF80449884201D00220608010BD1C
:10093000000800908C0900C0583033381149124B20
:100940004A88D11C89010B4310498B6003234B62F9
:10095000032A02D10202120E4A620204120E4A62F5
:100960000006000E4862486A0206486A120E000637
:10097000000C0243486A0006000A496A104309064F
:10098000084370478C0900C0020400000008009072
:100990007847000010402DE9D3FEFFEB0010A0E3E4
:1009A000001080E51040BDE81EFF2FE1010600C0E9
:1009B000CD0500C0D10600C03D0700C0690600C0DB
:1009C0001D0600C0D50500C0050700C0510700C0C6
:1009D0007D0600C0F10500C0C10500C0A10600C031
:1009E000250700C0590600C0D90500C0B50500C0E4
:1009F000850600C0190700C04D0600C0250600C0CE
:100A0000C90500C0250600C0250600C0250600C097
:100A1000150600C0D10500C0F10600C0490700C09E
:100A2000750600C0FD0500C0C50500C0B90600C0C0
:080A3000390700C0650600C093
:00000001FF
