:100000000100000000000004C8010000A8C5F9407C
:1000100000000000000000000000000000000000E0
:10002000000000004567030004000000456703006E
:10003000060000004567030007000000914B020026
:1000400008000000D94B02000F000000054C020020
:1000500010000000794B02001600000000000000B4
:100060000000000000000000000000000000000090
:100070000000000001120314010114FFA1031AFC87
:1000800004111201128012021B8040081A4008015C
:1000900020980B706F6F6C5F69645F747862B1B0A9
:1000A0000E4944305F424C4B5F504F4F4C307CFC0C
:1000B00007043C0A17723C0A1F313C0C15736D652E
:1000C0003C0A14333C8A033C8B6D6C3DC93C0A14DA
:1000D000343C9A01780F1163616E6275663C0A14B4
:1000E000353C7B09013C6C636D643BD93C0A153699
:1000F000F07A033C0C156576743C0A1537B47A0621
:100100003C2A72F1593EC93C0A1539788926BA034E
:10011000320122A92E1344A01B804C041A54041A45
:100120005C041A64041A6C041A74041A7C041A34E9
:10013000041A3C041A1C041A24041A2C041A140469
:100140001A40041A48041A50041A58041A60041A6F
:1001500068041A70041A78041A30041A38041A1839
:10016000041A20041A28041A1004163A010201DFA6
:1001700012D512D01238123412301A2C023A280238
:100180000215261208340401023A05063A06061A38
:100190000706123C3A160C3A17063A26063A270684
:1001A0003A28063A290604112401101A491A0215A0
:1001B00032120112031207120F121F1223126312BE
:1001C000A3200BA301A302A306A30EA31E000000FD
:1001D00000000000A0AB28050100000000A000C046
:1001E00000020000EAEDA3A0FC480068406D7047E3
:1001F00070B50500002400F003FBF94900280BD07E
:10020000012809D01A3102281BD115E0085CA84248
:100210000BD0641C2406240E600042185278002A79
:10022000F4D10EE0085CA84203D160004018407889
:1002300070BD641C2406240E600042185278002A07
:10024000F0D1002070BDE74B4179C0560A0604D5B5
:10025000C94380221143401A02E07F228A43801A58
:100260000006000E704770B50500FFF7ECFF0400B4
:100270002878C107A879C90F00F0CAFAFFF7B8FFBC
:10028000201A0006000E70BD10B500F0C9FAD4495E
:1002900004001C398868401C0128886001D100F0E6
:1002A000C7FA200000F0CCFA10BD10B500F0B8FA83
:1002B000CB4904001C398868401E886001D100F0D9
:1002C000C7FA200000F0BCFA10BD00220123110083
:1002D00010B5022000F0C4FAFFF7E7FFC049002084
:1002E0001C3948604870BE480621103800F0C0FA3A
:1002F000002010BDF0B5017A87B00291C1798279F2
:100300000490090211430391FFF76EFF00250028B6
:1003100006D100222B001100012000F0A1FA75E0A7
:10032000AF4F02261C3F7868012801D1330043E01B
:10033000FF202D3000F0A2FA040001D103233BE09E
:10034000FF22062105A800F0A1FAA7480078062898
:1003500001D0042804D1A54B04990D22200003E00C
:1003600004990D22200005AB00F096FA2000203001
:100370000570467039780126002900D13E70397821
:1003800081707970491C39702221C1700571052076
:10039000207000206070029800F086FA01002000B2
:1003A00000F08AFAFFF770FF200000F08DFA401C81
:1003B0000BD1FFF77AFF042300221100022000F086
:1003C0004FFA0020C04307B0F0BD854806227E608A
:1003D0000499103800F080FA039800F083FA0400C2
:1003E0008348406894C5411201000000FCA100C090
:1003F000000200002E387C8B00280CD1814800F0D0
:1004000083FA2204120C012100927F4A7D480023C6
:1004100000F082FA04E021047A48090C00F084FA22
:100420000020DAE7F8B504000E00FFF7E7FE002829
:1004300042D0764806220068A11D00F07DFA00280F
:100440003AD1FF202D3000F023FA714F050031D052
:10045000230012330D22991F280000F027FA2000F4
:1004600020302C002034002121700321617080781D
:10047000A0702320E0700220207166484178007847
:100480000902084360713000FFF7F7FEA0710720F2
:100490002870002068703078C107B079C90F00F06B
:1004A000C1F90100280000F011FA280000F016FA46
:1004B000401C01D13800F8BD0020F8BDB2E7F8B506
:1004C0004C4E050004001C3E70680F0020340128CB
:1004D00034D1290006220C3130000C3000F02CFA07
:1004E00000282BD1494806220068A91D00F024FAF3
:1004F000002823D1A078717888421FD1E078232882
:100500001CD12079022819D13E484068002802D029
:100510003C4800F019FAFFF7D2FE3800FFF79DFEC5
:100520000300A2796179002000F05EF9002070607C
:10053000707030480621103800F0A4F90020F8BD92
:1005400000B50100FFF75AFE002804D029480838FA
:100550000268002A01D1002000BD20220A70012279
:100560004A7040798870032000BD00B50100FFF794
:1005700045FE00280CD02320087002204870254832
:10058000427800781202104388700020C87004205E
:1005900000BDF8B5050000F0DFF907063F0E0024A6
:1005A000FFF72CFE002803D01B4E3068002801D135
:1005B0000020F8BD21202870022068703079A870D2
:1005C00000F0D2F9012846D10A480838016801290B
:1005D00030D10079B8422DD13800694600F0CCF90D
:1005E000012839D16B4619780C484018403017E083
:1005F0004CBA00C08009D83501000000F8A300C043
:1006000000020000DAD0C23638C600C00700000081
:10061000A4A800C03C89000450EF01C0E3A000C0C2
:1006200048BA00C0FFFFFFFFF88A0004E0C500C021
:10063000CCEE01C07349007949797479401AA0421F
:1006400014DA0406240E11E03800694600F09EF921
:1006500001280BD16B4619786B48747940184030EB
:100660000079844202D9040000E07479EC70687863
:10067000801C0006000EF8BDF8B500F077F9010601
:100680006248090E0078062868D1FFF7C1FD604C6A
:10069000604D614E614F002822D139686B460800D9
:1006A0002030C27A52085200C27230682030C27ABA
:1006B00052085200C27223201870002058702A6815
:1006C00008206B4600F06AF92268316805206B4605
:1006D00000F064F920206B4618700020587031E05B
:1006E000386801222030C37A1343C3723068203047
:1006F000C37A1A43C27243480268012A11D10079B1
:1007000088420ED16846FFF725FF2A68396808201D
:100710006B4600F043F92268316805206B4600F013
:100720003DF9FFF775FD012818D123206B4618709D
:10073000022058703A4841780078090208439870BE
:100740000020D8702A68396808206B4600F026F926
:100750002268316805206B4600F020F9F8BD70B5BD
:10076000304800210A0006C00022264913000CC1AF
:100770000838083902600D000A600120143D287015
:100780001400062128000C306A6000F085F86C70B7
:10079000AC60FFF771FF002070BD70B504000D0064
:1007A0001CE06078217800020843202806D0212828
:1007B00009D11C49200000F0F9F80BE01149200094
:1007C00000F0FCF806E0E178A07809020843001D7B
:1007D0000004000C291A0D062D0E2418002DE0D15E
:1007E00000F0C4F801060E48090E427800781202A3
:1007F000104300F0EBF8FFF73FFF70BD10B500F0BD
:1008000043F810BDCC08646701000000F4A500C0E7
:1008100000020000C3281C4630C600C0CCEE01C058
:10082000A4A800C0A8C100C050C100C0ACC100C095
:10083000A4C100C0F88A0004E0C500C07847C046E3
:1008400000C09FE51CFF2FE1355B03007847C046E1
:1008500000C09FE51CFF2FE187EA01007847C046F2
:1008600000C09FE51CFF2FE189C902007847C04600
:1008700000C09FE51CFF2FE1199E02007847C0468B
:1008800000C09FE51CFF2FE193C902007847C046D6
:1008900000C09FE51CFF2FE1A1B002007847C046D1
:1008A00000C09FE51CFF2FE1E57E02007847C046AF
:1008B00004F01FE5F00A00007847C04600C09FE53D
:1008C0001CFF2FE1B17902007847C04604F01FE514
:1008D000C40800007847C04600C09FE51CFF2FE118
:1008E000257F02007847C04600C09FE51CFF2FE12E
:1008F00011EA01007847C04600C09FE51CFF2FE1C8
:10090000318802007847C04600C09FE51CFF2FE1F8
:10091000057C02007847C04604F01FE5D8080000B7
:100920007847C04600C09FE51CFF2FE155A8010095
:100930007847C04600C09FE51CFF2FE14B33010004
:100940007847C04600C09FE51CFF2FE1213301001E
:100950007847C04600C09FE51CFF2FE16B330100C4
:100960007847C04600C09FE51CFF2FE169080000E2
:100970007847C04600C09FE51CFF2FE1813301008E
:100980007847C04600C09FE51CFF2FE1D1A20200BE
:100990007847C04600C09FE51CFF2FE1F9490200DF
:1009A0007847C04600C09FE51CFF2FE1CDE0010065
:1009B0007847C04600C09FE51CFF2FE1216E030071
:1009C0007847C04600C09FE51CFF2FE173CD0200B1
:1009D0007847C04600C09FE51CFF2FE1E1CC020034
:1009E0007847C04600C09FE51CFF2FE1417D020013
:1009F00010B5FFF733FF084A084C02211160616807
:100A0000074B1940074BC91861601168491E1160F6
:100A1000FBD2FFF775EA736D01000000F0A700C07C
:100A20000002000037C0A2FB33FF10BD90A900C038
:100A300040200080C327FFFF14400000000000009A
:100A40000000000000000000322E332E302E300057
:100A500000000000F5A103000700000000000000F6
:100A6000000000000F00000000000000515F0000C7
:100A70009160000000000000000000000000000085
:100A8000000000000D61000071630000796100004A
:100A9000000000002D6000009160000000000000D8
:100AA000E961000000000000000000003163000068
:100AB000000000005562000000000000000000007F
:100AC0000000000000000000000000000100000025
:100AD00000000000FFFFFFFFFF0A00000000000011
:100AE0000000000000000000000000000000000006
:100AF00000000000000000000000000000000000F6
:100B0000304F8E2F0A00000000000000000200009D
:100B100000000000F40100000000000000000000E0
:100B200001010000000000000000000000000000C3
:100B300000000000000000000000000000000000B5
:100B400000000000000000000000000000000000A5
:100B500045670300050000002D7B03000A0000002C
:100B6000157B03000C0000000000000000000000E6
:100B70000000000000000000000000000100000074
:100B8000FD03000000000000000000000000000065
:100B90000000000000000000000000000000000055
:100BA000FFFFFFFF04A203000000000000000000A0
:100BB0000000000000000000000000000000000035
:100BC0000000000000000000020000000000000023
:100BD0000000000013A2030000000000FEFFFFFF62
:100BE00000000000FFFFFFFF000000000000000009
:100BF00000000000000000000A04000000000000E7
:100C000000000000000000000000000000000000E4
:100C100000000000000000000000000000000000D4
:100C2000000000004DD0DF5801000000ECA900C01A
:100C300000020000F0D9A0A60000000000000000A3
:100C4000000000000000000001000034400000002F
:100C50000000000000000000000000000000000094
:100C60000000000000000000000000000000000084
:100C70000000000000000000000000000000000074
:100C80000000000017A20300000000000118FF0090
:100C90000000FFFF01000000000000000000000055
:100CA0003333333333333333111111111111111124
:100CB0000000000000000000555555333333335514
:100CC0005555555555555555550000000000001F08
:100CD00018181820191919191A1A1A1A00000000E0
:100CE000000000000000000000001B1B00001C1C96
:100CF00001011D1D02021E1E03030303040404045C
:100D00000505050506060606070707070700000094
:100D100000000000000000000000000000000000D3
:100D200000000000000000000000000008080808A3
:100D3000090909090A0A0A0A0B0B0B0B0C0C0C0C0B
:100D40000D0D0D0D0E0E0E0E0F0F0F0F10101010BB
:100D500011111111121212120000000000131313CE
:100D6000131414141415151515161616161717172F
:100D7000170000000000000000000000000000213B
:100D80002223232425262626272727272828282804
:100D90000000000000000000000000000000000053
:100DA0000000000000000000000000000000000043
:100DB0000000000000000000000000000000000033
:100DC0000000000000000000D4B200C0ACAD00C0C4
:100DD00040B000C040B000C01CB100C0D4B200C0E0
:100DE0001CB100C0F8B100C0B0B300C0ACAD00C0D1
:100DF0008CB400C088AE00C0B0B300C064AF00C007
:100E00008CB400C0D4B200C00CB300C0E4AD00C0CC
:100E100078B000C078B000C054B100C00CB300C0BE
:100E200054B100C030B200C0E8B300C0E4AD00C0AF
:100E3000C4B400C04D26A7C001000000E8AB00C04C
:100E40000002000004311E1BC0AE00C0E8B300C0A9
:100E50009CAF00C0C4B400C00CB300C0096E0A65EA
:100E6000044400410136053207220220031D0AFF17
:100E70000300070309100E10160219251A041B2B74
:100E80001CFF1DF02810325E33953529369743A993
:100E900045FF4B744C644D3B502761D662986BAE56
:100EA0006F5B77F279FF7F2DFFFFFFFF03000910D3
:100EB000325E339535296BAE7F2DFFFFFFFFFFFFBD
:100EC00003100910325C339A35096BA27F32FFFFA1
:100ED000FFFFFFFF070080002C0011004D00000005
:100EE0004E001B004F004B00E9003000EB002A00D1
:100EF000EC002400ED00FC0014011E0015010C00A4
:100F000038010200EA006B00EF000700FFFFFF005E
:100F1000FFFFFF00FFFFFF000700A0002C001600EE
:100F2000E90020004D0003004E009B004F003A00F6
:100F3000EA006D00EB001E00EC001800ED00FC0064
:100F4000140119001501080038018200FFFFFF009D
:100F5000FFFFFF00FFFFFF0000000000FFFF000099
:100F6000FFFF0000C5000000C4000000A300000057
:100F70006800000058000000590010005A001E00D0
:100F80005B0024005C0018005D0000005E00EE00C5
:100F90005F00DE006000EB006100F0006200000016
:100FA00063001800640035006500500066006400AE
:100FB00067006C00FFFFFF00C500FF00C400FF00DA
:100FC000A300FF006800030058000A005900130046
:100FD0005A001B005B001B005C000E005D00F60069
:100FE0005E00EC005F00E0006000EF006100F600D2
:100FF0006200060063001D006400380065005100B7
:101000006600630067006900FFFFFF000C900000AE
:101010000C908E390E9F1C720E9FAAAB0E9038E476
:101020000E90C71C109F5555109FE38E109071C7EE
:10103000129F0001129F8E3912901C721290AAAB5F
:1010400014900000A232FC7B01000000E4AD00C05F
:10105000000200001DC9C06BB09F5555B190AAABEE
:10106000B3900000B59F5555B690AAABB89000005C
:10107000BA9F5555BB90AAABCA90AAABCC900000C2
:10108000CE9F5555CF90AAABD1900000D39F555518
:10109000D490AAABD6900000D89F5555D990AAAB52
:1010A000DB900000DF9F8000E090D555E2902AABF6
:1010B000E49F8000E590D555A4900000A69F55556B
:1010C000A790AAABAF9FAAABB19F0000B2905555B5
:1010D000B49FAAABA49F2AABA59080019A9F2AAB8C
:1010E0009A9000009A90D5559B9080019C9F5555F1
:1010F0009C902AAB9D90AAAB9F900000F81F62764F
:10110000F81FE5BEF8106907F810EC4FFA1F6F974B
:10111000FA1FF2DFFA107627FA10F970FC1F7CB87C
:10112000FC100000FC108348FE1F0690FE1F89D9AA
:10113000FE10C4EC8E90EC4F90900000929F13B183
:1011400093902762959F3B1496904EC5989F627628
:1011500099907627A7902762A99F3B14AA904EC525
:10116000AC9F6276AD907627AF9F89D9B0909D8A6B
:10117000B29FB13BB390C4ECB59FD89EB690EC4FF4
:10118000BA9FD89EBB90EC4FBD900000BF9F13B19B
:10119000C0902762849F627685907627879F89D941
:1011A0008E9F62768F907627919F89D992909D8AA3
:1011B00083909D8A859FB13B7A9027627A90EC4F0D
:1011C0007B9FB13B7C9F3B147C9000007C90C4ECE7
:1011D0007E9F13B17F902762A80F8001A80FD8E4EB
:1011E000A80031C7A8008AABA800E38EAA0F3C7202
:1011F000AA0F9555AA0FEE39AA00471CAA00A00114
:10120000AA00F8E4AC0F51C7AC0FAAABAC00800148
:101210000E9F95550F9FAAAB109FC001119FD555EA
:10122000129FEAAB139000001490155515902AAB4D
:101230001E90EAAB209F0001219F1555229F2AABEB
:10124000239F4001249F5555259F6AAB269F80010F
:10125000279F9555E0B43B0E01000000E0AF00C0B1
:1012600000020000E9217ED6289FAAAB299FC00179
:101270002B9070012C9085552D909AAB2E90B0013B
:101280002F90C555079F0001089F1555099F2AAB50
:101290000D908AAB0E90A0010F90B5551090CAAB7F
:1012A00006907AAB07909001009FFAAB0090800106
:1012B000019F05550190100101909555029F1AABB1
:1012C0000290AAAB0390C001A000CCCDA20F2222B5
:1012D000A20F7777A20FCCCDA2002222A2007777AF
:1012E000A200CCCDA40F2222A40F7777A40FCCCDDF
:1012F000A4002222A4007777A400CCCDA60F999A4F
:10130000039000000490000005900000069000008B
:101310000790000008900000099000000A9000006B
:10132000139000001490000015900000169000002B
:101330001790000018900000199000001A9000000B
:101340001B9000001C9000001D9000001F9080006A
:1013500020908001219080012290800123908001C3
:10136000FC000000FD100000FE080000039F0001CB
:10137000049F0001059F0001069F0001FC0F8001F2
:10138000FD1F8001F60F8001F6000000F6008001CD
:10139000F70F8001F7000000F7008001F80000005F
:1013A000F9100000860000008686471C86008E39F2
:1013B0008600D555880F1C72880F638E880FAAABE4
:1013C000880FF1C7880038E4880080018800C71CB6
:1013D0008A0F0E398A0F55558A000000D80FAAAB24
:1013E000D90F5555DA0F0001DA00AAABDB005555CD
:1013F000DC000000DD0FAAABDE0F5555E5005555AA
:10140000E6000000E70FAAABE80F5555E900AAABCC
:10141000EA005555EB000000EC0FAAABED0F555557
:10142000EE0F5555EE0F0001EF00C001F0006AAB62
:10143000F10F1555F20FC001F30F6AABD200000097
:10144000D30FAAABD40F5555D700D555D80080017E
:10145000D9002AABDA0FD555D20F9555D30F4001DD
:10146000CD0F95554753E55301000000DCB100C096
:1014700000020000973AD966CD000000CD006AABAB
:10148000CE0F4001CE0FAAABCE001555CF0F55554C
:10149000D00F00017C0FB13B7C0FF2DF7C00348366
:1014A0007C0076277C00B7CB7C00F9707E0F3B1464
:1014B0007E0F7CB87E0FBE5C7E0000007E0041A4E3
:1014C0007E0083487E00C4EC800F6276C7007627DA
:1014D000C8000000C90F89D9CA0F13B1CA009D8A7C
:1014E000CB002762CC0FB13BCD0F3B14D40F13B10F
:1014F000D4009D8AD5002762D60FB13BD70F3B148D
:10150000D700C4ECD8004EC5D90FD89EDA0F62764A
:10151000DA00EC4FDB007627DD0FEC4FDE0F76278D
:10152000DF0F0001DF0089D9E00013B1C20FB13B2A
:10153000C30F3B14C300C4ECC70FB13BC80F3B142F
:10154000C800C4ECC9004EC5C20F4EC5C200D89E2B
:10155000BD0013B1BD007627BD00D89EBE0F9D8A89
:10156000BE000000BE006276BF0F89D9C00F13B164
:10157000540FC001540FEC72540018E45400455548
:10158000540071C754009E395400CAAB5400F71C74
:10159000560F238E560F5001560F7C72560FA8E43B
:1015A000560FD55556004001870FCAAB8700D55559
:1015B000880FE0018800EAAB890FF5558A0F00011A
:1015C0008A000AAB8B0F15558F007555900F80015F
:1015D00090008AAB910F95559100A001920FAAAB94
:1015E0009200B555930FC0019300CAAB940FD55527
:1015F0009400E001960F3801960042AB970F4D55CD
:1016000097005801980F62AB83008001840F8AAB6A
:1016100084009555870F455587005001880F5AABB8
:101620008800655583003D55840F4801800FFD55A6
:1016300080004001800082AB810F0801810F4AAB1E
:10164000810F8D5581005555820F600150006666EF
:10165000500091115000BBBC5000E666520F1111B2
:10166000520F3BBC520F6666520F9111520FBBBC1A
:10167000520FE6669992FE4501000000D8B300C003
:101680000002000063D267DB5200111152003BBC24
:10169000520066665200CCCD820F0001820000002D
:1016A000830F000183000000840F0001840000000C
:1016B000850F0001850000008A0F00018A000000EC
:1016C0008B0F00018B0000008C0F00018C000000CC
:1016D0008D0F00018D0000008E0F00018E000000B4
:1016E0008F0F0001900F400190004001910F4001C9
:1016F00091004001920F40017E0000007F0F000129
:101700007F00000081008001820F80018200800143
:10171000830F80017E0FC0017E00C0017B0FC001DE
:101720007B0000007B0040017B00C0017C0F0001BA
:101730007C0F40017C0000007D0F00016D00A2E9DC
:101740006D00DD176F0F17466F0F51746F0F8BA36E
:101750006F0FC5D16F0000006F003A2F6F00745DEE
:101760006F00AE8C6F00E8BA710F22E9710F5D1740
:10177000710FE8BA760F745D76005D17770F45D16B
:1017800077002E8C780F1746780000007800E8BAB2
:10179000790FD1747D0000007D00E8BA7E0FD1740E
:1017A0007E00BA2F7F0FA2E97F008BA3800F745DAC
:1017B00080005D17810F45D181002E8C820F174666
:1017C000830F22E983000BA38300F45D840FDD17F0
:1017D0008400C5D1730F1746730000007300E8BA88
:1017E000760F0001760FE8BA7600D174770FBA2F22
:1017F0007200DD17730FC5D1700F68BA700FA2E9C0
:10180000700FDD177000517470008BA37000C5D18C
:10181000710F745D71005D17FF0080000B000C00FC
:101820000A0006000C0000001000820014000000F6
:1018300016000000190002001B0060001D003200AD
:101840001F0017002B0029002C001100320000009F
:1018500034004E0035000100360080003700A00043
:101860003800A000420044004500680046000F0018
:10187000490080004B004000560001005700FF0067
:101880006F001100DE4E5DFA01000000D4B500C00B
:10189000000200007A2AB9AB7800000079008000CD
:1018A0007F002300890029008A00D900A4002200BB
:1018B000AB000300AC009900C300F900CB0074003A
:1018C000CD005900CF007400D0000A00D30066009C
:1018D000D6000000DA00AA00DB004700DC00280088
:1018E000DD00AE00DE00A000DF000300E6006500C2
:1018F000E8003400E9003000EB002A00EC0024008E
:10190000ED00FC00F900CC000C0172000D0112008A
:101910000E0133000F013D001301360014011E00BB
:1019200015010C003E010100FFFFFF00FFFFFF005B
:10193000FFFFFF00FFFFFF000A14376EDC0B0F0AEA
:101940000E090D080C07000102030305050707092E
:10195000090909000000000000000000000000006C
:101960000D566C0608C02A4000000000010100006E
:101970000101020401010100010100000101000058
:101980000101000001010000010100000101020548
:1019900002120000021202040212010002120000F0
:1019A00002120000021200000212000002120000E7
:1019B00002120205031200000312020403120100C6
:1019C00003120000031200000312000003120000C3
:1019D00003120000031202050100000000000000D5
:1019E00000000000FFFFFF000100000000000000F9
:1019F00000000000000000000000000000000000E7
:101A000000000000000000000000000000000000D6
:101A100000000000000000000000000000000000C6
:101A200000000000000000000000000000000000B6
:101A3000000000000000000000000000FFFFFFFFAA
:101A4000FFFFFFFFFFFFFFFFFFFFFFFFFFFFFFFFA6
:101A5000FFFFFFFFFFFFFFFFFFFFFFFFFFFFFFFF96
:101A6000FFFFFFFFFFFFFFFFFFFFFFFFFFFFFFFF86
:101A7000FFFFFFFFFFFFFFFFFFFFFFFFFFFFFFFF76
:101A8000FFFFFFFFFFFFFFFFFFFFFFFFFFFFFFFF66
:101A9000FFFFFFFF5403DFBE01000000D0B700C00E
:101AA000000200008EC20716FFFFFFFFFFFFFFFFCF
:101AB000FFFFFFFFFFFFFFFFFFFFFFFFFFFFFFFF36
:101AC000FFFFFFFFFFFFFFFFFFFFFFFFFFFFFFFF26
:101AD000FFFFFFFFFFFFFFFFFFFFFFFFFFFFFFFF16
:101AE000FFFFFFFFFFFFFFFFFFFFFFFFFFFFFFFF06
:101AF000FFFFFFFFFFFFFFFFFFFFFFFFFFFFFFFFF6
:101B0000FFFFFFFFFFFFFFFFFFFFFFFFFFFFFFFFE5
:101B1000FFFFFFFFFFFFFFFFFFFFFFFFFFFFFFFFD5
:101B2000FFFFFFFFFFFFFFFFFFFFFFFFFFFFFFFFC5
:101B3000FFFFFFFFFFFFFFFFFFFFFFFFFFFFFFFFB5
:101B4000FFFFFFFFFFFFFFFFFFFFFFFFFFFFFFFFA5
:101B5000FFFFFFFFFFFFFFFFFFFFFFFFFFFFFFFF95
:101B6000FFFFFFFFFFFFFFFFFFFFFFFFFFFFFFFF85
:101B7000FFFFFFFFFFFFFFFFFFFFFFFFFFFFFFFF75
:101B8000FFFFFFFFFFFFFFFFFFFFFFFFFFFFFFFF65
:101B9000FFFFFFFFFFFFFFFFFFFFFFFFFFFFFFFF55
:101BA000FFFFFFFFFFFFFFFFFFFFFFFFFFFFFFFF45
:101BB000FFFFFFFFFFFFFFFFFFFFFFFFFFFFFFFF35
:101BC000FFFFFFFFFFFFFFFFFFFFFFFFFFFFFFFF25
:101BD000FFFFFFFFFFFFFFFFFFFFFFFFFFFFFFFF15
:101BE000FFFFFFFFFFFFFFFFFFFFFFFFFFFFFFFF05
:101BF000FFFFFFFFFFFFFFFFFFFFFFFFFFFFFFFFF5
:101C0000FFFFFFFFFFFFFFFFFFFFFFFFFFFFFFFFE4
:101C1000FFFFFFFFFFFFFFFFFFFFFFFFFFFFFFFFD4
:101C2000FFFFFFFFFFFFFFFFFFFFFFFFFFFFFFFFC4
:101C3000FFFFFFFFFFFFFFFFFFFFFFFFFFFFFFFFB4
:101C4000FFFFFFFFFFFFFFFFFFFFFFFFFFFFFFFFA4
:101C5000FFFFFFFFFFFFFFFFFFFFFFFFFFFFFFFF94
:101C6000FFFFFFFFFFFFFFFFFFFFFFFFFFFFFFFF84
:101C7000FFFFFFFFFFFFFFFFFFFFFFFFFFFFFFFF74
:101C8000FFFFFFFFFFFFFFFFFFFFFFFFFFFFFFFF64
:101C9000FFFFFFFFFFFFFFFFFFFFFFFFFFFFFFFF54
:101CA000FFFFFFFF063C214201000000CCB900C04D
:101CB0000002000049DB054BFFFFFFFFFFFFFFFFB6
:101CC000FFFFFFFFFFFFFFFFFFFFFFFFFFFFFFFF24
:101CD000FFFFFFFFFFFFFFFFFFFFFFFF0000000010
:101CE00000000000000000000000000000000000F4
:101CF00000000000000000000000000000000000E4
:101D000000000000000000000000000000000000D3
:101D100000000000000000000000000000000000C3
:101D200000000000000000000000000000000000B3
:101D300000000000000000000000000000000000A3
:101D40000000000000000000000000000000000093
:101D50000000000000000000000000000000000083
:101D600000000000FFFFFFFFFFFF00000000000079
:101D7000000005000000000000000000000000005E
:101D80000000000000000000000000000000000053
:101D90000000000001000000000001000000000041
:101DA0000000000000000000000000000000000033
:101DB0000000000000000000000000000000000023
:101DC000050A0D0000000000FFFF000000000000F9
:101DD0000000000000000000000000000100000002
:101DE00000000000000000000000000000000000F3
:101DF00000000000000000000000000000000000E3
:101E00000000000000000000706F6F6C5F69645F8D
:101E10006369706865724275660000000100000029
:101E20000000000000000000494431315F424C4B8B
:101E30005F504F4F4C3000000000000000000000D9
:101E40006C000200000000050002FF00020000001C
:101E50000000000000000000000000000000000082
:101E600080A90300000000004010881094050000C5
:101E70002000400060004002400360038003000037
:101E800020004000400140026002800280021700F2
:101E90000000007D01000000C300340F000000803E
:101EA0000000000000FF4082F70500E81F1F00004F
:101EB00080307F0F5E53EA1101000000C8BB00C0F4
:101EC00000020000BD33BBF630000000000000003F
:101ED00000000000ABBA007D55C50F7E00D0007E2B
:101EE000ABDA0F7F55E5007F00F00F80ABFA008082
:101EF00055050081020000002436550A3123C01820
:101F00007FAF0282D71055BA4E08816802FF740372
:101F10000000000074030000401840100C180C3E34
:101F2000C04063616361C040000004010680088610
:101F30007F7F7F7F88109A0188109A01790791002E
:101F4000DB065B0002302020040002301412121164
:101F5000100F0E0E00001000B0040060EFFFA0C6CE
:101F60002701AF01FFFF7640057F1D172D2E3D3560
:101F700057001C24807E208E4270B4039B09008091
:101F8000442083C0493C80060614373F00002400EB
:101F9000FC0100FC8E58003000C054320000F628CE
:101FA000403C02000000000C0010002F0000F00078
:101FB00000000000040023016745AB89EFCDFFFF5F
:101FC000FF000000C0000000AC2A007F9D9C0000C4
:101FD000000000000000F000000088109A04841047
:101FE0008905A0C62701741A4ED26806785B704333
:101FF000721A040000000000000000000000000051
:1020000000000000000502000000030000000000C6
:1020100000000000000000000100000000000000BF
:1020200000000000000000000000000000000000B0
:10203000000000000100000003000000000000009C
:102040000000000000000000000000000000600030
:102050000000000000000000000000000000000080
:102060000000000000000000000000000000000070
:102070000000000000000000000000000000000060
:102080000000000000000000070000000000000049
:102090000000000000000000000000000000000040
:1020A0000000000000000000000000000000000030
:1020B0000000000000000000000000000000000020
:1020C0000000000063DB53BF01000000C4BD00C07E
:1020D00000020000A4CB65860000000000010000A3
:1020E00000000000000000000000000000000000F0
:1020F00002040B160C1218243048606C2C9001015D
:1021000001010001010000000100010001010101C5
:102110000000000000000000F28002C08A8002C0BF
:102120004042000441420004424200044342000491
:1021300054420004D16B01000B000000AD6B0100A4
:10214000150000000000000000000000000000007A
:10215000000000000000000000000000000000007F
:10216000000000000000000000000000000000006F
:10217000000000000000000000000000000000005F
:1021800000000000030000000A0000002100000021
:10219000549601C000000000000000000000000094
:1021A000000000000000000000000000000000002F
:1021B000000000000000280050006A00A000D500C8
:1021C0004001AA0180025503000000050000000044
:1021D0000000000037006E00A000C800DC004001D5
:1021E0009001B801800220032A0400054006E006A1
:1021F000E006E006CCCCCC748CDB686C0000000000
:10220000AAAAAA749E61576C0C00000066666674E8
:10221000C66D346C0C00000045175D749CA92F6CD2
:102220000C0000005555D574063A6D6C0000000096
:10223000D9899D74E2A8506C0C00000000000000D9
:102240000000000000000000AAAA6A74049D366C19
:102250000C00000000000000000000000000000072
:10226000555555753EC3AE6C00000000B1133B756B
:10227000C451A16C00000000ECC44E747254286C70
:102280000A000000070900000107010502090B0A06
:1022900002040307000005000B00100014001600E4
:1022A000200028002C00400050006A008000000040
:1022B00091C8020099660300E1A6010049A7010048
:1022C00001A701001D7E0300496E0100000000000F
:1022D000000000007123A08F01000000C0BF00C0FB
:1022E000000200005023DB3B000000000000000063
:1022F0000000000000000000FFFFFFFF00000000E2
:1023000000000000000000000000000000000000CD
:1023100000000000000000000000000000000000BD
:1023200000000000000000000000000000000000AD
:102330000000FFFFC00000000000000000000000DF
:10234000000000000000000000000000000000008D
:10235000000000000000000000000000000000007D
:10236000000000000000000000000000000000006D
:1023700000001E002C010000000000000000000012
:10238000000000000000000000000000000000004D
:10239000000000000000000000000000000000003D
:1023A000000000000000000000000000000000002D
:1023B000000000000000000000000000000000001D
:1023C0000000000007000000000000000000000006
:1023D00000000000000000000000000000000000FD
:1023E00000000000000000000000000000000000ED
:1023F00000000000000000000000000000000000DD
:10240000000000000000000005008813000000002C
:1024100000000000000000000000000001000000BB
:1024200001000000000000000000000000000000AB
:10243000000000000000000000000000000000009C
:10244000010000000100000000000000000000008A
:10245000000000000000000000000000000000007C
:10246000000000000000000000000000000000006C
:10247000000000004600000074E901C001000000F7
:10248000009400C0000000000000000000000000F8
:10249000000000000000000000000000000000003C
:1024A000000000000000000000000000000000002C
:1024B000000000003178030061780300C579030053
:1024C0000D7A0300437A030000000000009800C06A
:1024D00094E901C0B89900C00000000000000000AD
:1024E000000000007257570B01000000BCC100C083
:1024F00000020000CC74D30F0000000000000000B8
:102500000BA2030000000000B00400000004000063
:10251000A9A44E006009000000020000A9A44E001A
:10252000C012000000010000A9A44E008025000098
:1025300080000000A9A44E00004B000040000000F5
:10254000A9A44E000096000020000000A9A44E009F
:1025500000E1000020000000FDF67500002C0100E5
:1025600010000000A9A44E0000C2010010000000ED
:10257000FDF675000084030008000000FDF67500FC
:102580000008070004000000FDF6750020A1070008
:10259000040000000000800000100E000200000097
:1025A000FDF6750040420F000200000000008000B0
:1025B00000181500010000003E79580060E3160085
:1025C000010000000000600000201C00010000006D
:1025D000FDF6750080841E000100000000008000F0
:1025E000200B2000010000006666860000302A00F3
:1025F000010000007CF2B000C0C62D000100000008
:102600000000C00050973100010000000000D00021
:102610000C57380001000000A54EEC0000093D00F9
:10262000010000000000000100C2010008000000DD
:10263000A69BC4000084030004000000A69BC40005
:102640000008070001000000D34D620000100E00DA
:1026500001000000A69BC40040420F0001000000E2
:102660005555D50000C201000800000062BEBC0044
:10267000008403000400000062BEBC0000080700E4
:1026800001000000315F5E0000100E00010000003C
:1026900062BEBC0040420F0001000000CDCCCC0067
:1026A00080841E00010000009A99990100C2010077
:1026B0000200000052499D00008403000100000058
:1026C00052499D0000C2010002000000FC2F910051
:1026D0000084030001000000FC2F910000C20100F3
:1026E00004000000A69BC400008403000200000058
:1026F000A69BC4005AB469DC01000000B8C300C046
:1027000000020000389C6DB20008070001000000C4
:10271000A69BC40000C2010004000000FC2F910031
:102720000084030002000000FC2F91000008070055
:1027300001000000FC2F910020A107000100000013
:10274000D9899D0000C2010008000000FC2F910003
:102750000084030004000000FC2F91000008070023
:1027600001000000FE97480020A1070001000000C2
:10277000ECC44E0000100E0001000000FC2F910080
:1027800040420F0001000000D9899D0000093D0072
:10279000000000000C573800000000005097310086
:1027A00000000000C0C62D000000000000302A001C
:1027B00000000000200B20000000000080841E00AC
:1027C0000500000000201C000500000060E316006A
:1027D00005000000001815000500000040420F0031
:1027E0000500000000100E0006000000050615158B
:1027F000041303150303031600000000000000008B
:1028000000000000000000000000000000000000C8
:10281000000000003010140100FFFFFFFF00000067
:1028200000000000000000000000000000000000A8
:1028300000000000FFFFFF00000000009405940569
:102840000101121200009600E6000105171D0000AC
:10285000FA00F401050A10120000FA00F4010A144B
:102860000C100000E80388133264010305144D01C5
:102870004D01010109090000EE02EE0201010F0FF6
:102880000000C800E80301050A0A0000C800E803C8
:102890000A0F0F0F0000B0044006010F0F0F0000D9
:1028A000FC08A00F010F19190000D007A00F141E7B
:1028B0001414000594059405010112120000060F7E
:1028C000060F0202121200006C056C0501011212C3
:1028D000000094059405010112120000A00FA00F42
:1028E0000202121200009500E6000105171D00000B
:1028F000FA00F401060A10120000FA00F4010B14A9
:102900000C100000C000922B01000000B4C500C0F4
:10291000000200002164B3C2E803D007326401035F
:1029200000004F003A005100A90054005200FFFF80
:10293000FF004F003A005100F40054002A00FFFF4E
:10294000FF000000000000000000000055532000C0
:1029500010434120002053472000104555200030EF
:1029600041552000304B5220003045532000314665
:10297000522000324A502000404A312000410000DD
:102980000100000000000000000000000000000046
:1029900000000000000000000000000000AE01B0D8
:1029A00002B203B405AE06AF07B108B309B60ABA5E
:1029B0000BBE0CBF000005AE06AF07B108B309B6E9
:1029C0000ABA0BBE0CBF00000000000000000000AF
:1029D00000000000000000000000000000000000F7
:1029E000000000006464000000000000000000001F
:1029F00000000000000000000000000000000000D7
:102A000000000000000000000000000000000000C6
:102A10000000000075B400000000000011AE0000CE
:102A20000000000095B20000000000000DAA0000A8
:102A300001000000000000000100000075B400006B
:102A40000100000059AE00000100000011B30000B9
:102A50000100000069AB0000000000006863695FCE
:102A60007472616E73706F72740000000000000079
:102A700000000000B1340200C40104006C6D5F630B
:102A80006F6E74726F6C00000000000000000000A8
:102A900000000000E307F403680508016C6D5F6443
:102AA00061746100000000000000000000000000F0
:102AB000000000005704F5039C0104026C6D5F7375
:102AC00063686564756C65720000000000000000BA
:102AD00000000000E334F603A80202036C6D5F649B
:102AE00072697665720000000000000000000000BE
:102AF00000000000BF55F503F40107046C6D5F632F
:102B00006F6E6E656374696F6E00000000000000F8
:102B100000000000064A1DCF01000000B0C700C041
:102B2000F4010000C11872E99DC9F403F40108051D
:102B300074696D65727365727665720000000000DD
:102B40000000000000000000DDBAF60338020306B2
:102B50006863695F636F6D6D616E6465720000002C
:102B60000000000000000000BD1102006C040B0713
:102B700062745F64686B657900000000000000000B
:102B80000000000000000000A94D0300440B0C08E9
:102B90006863694C6F6F7041636C00000000000057
:102BA0000000000000000000C92F0200000104091D
:102BB0006863694C6F6F7053636F00000000000022
:102BC0000000000000000000E93102008401060A54
:102BD00062745F6C6F777077727461736B00000062
:102BE00000000000000000009D2E000000011E00FB
:102BF000000000000D0F1212120D0F12121201022E
:102C0000020202FF010101010101000001000000B8
:102C1000204E000000000000000000006D50010088
:102C200000000000000000000000000000000000A4
:102C30000000000000000000000000000000000094
:102C400000000000706F6F6C5F69645F62745F6D9D
:102C50007367000000000000020000000000000098
:102C6000000000004944305F424C4B5F504F4F4CD6
:102C7000305F3200000000000000000094001000EF
:102C80004944305F424C4B5F504F4F4C305F3100F6
:102C9000000000000000000030011000706F6F6C39
:102CA0005F69645F62745F74785F61636C000000E9
:102CB0000100000000000000000000004944305FF7
:102CC000424C4B5F504F4F4C300000000000000062
:102CD0000000000064040800706F6F6C5F69645F3F
:102CE00062745F72785F61636C0000000100000035
:102CF00000000000000000004944325F424C4B5F7E
:102D0000504F4F4C30000000000000000000000059
:102D10005C040900710100008015C3AA01000000D5
:102D200000000000000200000447BA081CF09FE504
:102D30001CF09FE51CF09FE51CF09FE51CF09FE553
:102D40001CF09FE51CF09FE51CF09FE501260A1989
:102D50009C18000074180000781800007C1800000F
:102D600080180000841800008818000095180000E2
:102D7000000000EA9B0300EA28008FE2000C90E8C4
:102D800000A08AE000B08BE001704AE20B005AE13B
:102D90009403000A0F00BAE814E04FE2010013E3C5
:102DA00003F0471013FF2FE1A0A1030010A20300BE
:102DB00001C08FE21CFF2FE18A18037801305C0705
:102DC000640F01D1047801301D1101D10578013063
:102DD000013C05D0067801300E700131013CF9D17B
:102DE0001E0706D42E1C0ED0013E8C55FCD149196D
:102DF00009E0047801300C1B0135267801340E708F
:102E00000131013DF9D59142D7D37047102052E2EC
:102E10007800B0287800A128FBFFFF8A822EB0E15D
:102E20003000B0283000A128004090450040814586
:102E30001EFF2FE10030A0E30040A0E30050A0E31C
:102E40000060A0E3102052E27800A128FCFFFF8A76
:102E5000822EB0E13000A128003081451EFF2FE115
:102E60007847C04604309FE503308FE013FF2FE121
:102E70000D1600000EB56A4603C200F07DFD0290FB
:102E800001206946ABDF03B008BC184708B56946A6
:102E900000900220ABDF01B0F6E718B507B46C462E
:102EA00007C405206946ABDF04B010BC08BC184756
:102EB00018B507B46C460FC406206946ABDFF3E7CC
:102EC00008B5694600900920ABDFE4E71CB56A4607
:102ED00003C20A206946ABDF1CBC08BC18470020AF
:102EE000704708B5694600900C20ABDFD3E70000BF
:102EF0007847C04610402DE9C140B0E1A34024E02E
:102F00000100005A000070E20010E1E2030013E14A
:102F10000100005A002072E20030E3E21D0000EBE5
:102F2000010114E30100000A9E3D6D220100000032
:102F3000FC01000000020000C0926523000070E266
:102F40000010E1E2020114E30100000A002072E235
:102F50000030E3E21040BDE81EFF2FE17847C04695
:102F6000203052E20400005A203062E23002A0E138
:102F7000110380E13112A0E11EFF2FE13103A0E136
:102F80000010A0E31EFF2FE17847C04600402DE966
:102F900000E0A0E1920E8CE092C121E0931E21E0BE
:102FA0000040BDE81EFF2FE17847C04670402DE984
:102FB000A2CF93E10140A0E10050A0E10060A0E3B6
:102FC0001100001A020012E1CC00000AA2C7B0E111
:102FD0001060860212C6A0E1ACEBB0E10CC4A00107
:102FE00008608602ACEDB0E10CC2A001046086026C
:102FF000ACEEB0E10CC1A001026086022CEFB0E1A2
:103000008CC0A00101608602170000EA020113E3F0
:103010001200001AA3C7B0E11060860213C6A0E137
:10302000ACEBB0E10CC4A00108608602ACEDB0E1ED
:103030000CC2A00104608602ACEEB0E10CC1A0019C
:10304000026086022CEFB0E101608602203066E269
:103050008CC0A00132C38CE112E6A0E14C0000EA72
:1030600003C0A0E102E0A0E19C0000EA8C0054E172
:103070000030A0E38C404420023083220C0054E155
:103080000C4044200030B3E2202086E2200052E3CE
:1030900000C06CE20300003A250F94E10540A00156
:1030A0000050A00320204202100052E30010A0E3D1
:1030B0000200003A2407B0E10448A0011010810288
:1030C00001E042E008005EE30200003A240BB0E1B8
:1030D0000444A00108108102200061E2012042E0C6
:1030E000354084E11551A0E1010052E32000003A8F
:1030F000012042E2070002E2070020E2800090E0A7
:1031000000F18FE00000A0E10550B5E08440BCE094
:1031100004406C300550B5E08440BCE004406C30A5
:103120000550B5E08440BCE004406C300550B5E08B
:103130008440BCE004406C30974E476B01000000B7
:10314000F803000000020000347ADB9E0550B5E071
:103150008440BCE004406C300550B5E08440BCE0E5
:1031600004406C300550B5E08440BCE004406C3055
:103170000550B5E08440BCE0082042E2020012E1C4
:1031800004406C30E4FFFF5A3426A0E11246C4E14B
:103190000500B5E00410A4E0131681E07040BDE81E
:1031A0000030A0E31EFF2FE10E0055E00C10D4E02C
:1031B0000030A0E30050A0210140A0210030B3E284
:1031C0000E0055E00C10D4E00050A0210140A021D9
:1031D0000030B3E20E0055E00C10D4E00140A02115
:1031E0000050A0210030B3E200E07EE200C0ECE23B
:1031F000100056E30010A0E30200003A2407B0E1FB
:103200000448A00110108102012046E0080052E3AA
:103210000200003A240BB0E10444A001081081022E
:10322000200061E2012046E0354084E11551A0E133
:10323000010052E32000003A012042E2030002E2D2
:10324000030060E2800090E080F18FE00000A0E1E8
:103250000550B5E00440B4E00500BEE00410BCE059
:103260000050A0210140A0210550B5E00440B4E089
:103270000500BEE00410BCE00050A0210140A021E8
:103280000550B5E00440B4E00500BEE00410BCE029
:103290000050A0210140A0210550B5E00440B4E059
:1032A0000500BEE00410BCE0042042E2020012E18E
:1032B0000050A0210140A021E4FFFF5A3526A0E1E3
:1032C0001256C5E10500B5E00010A0E30010A1E230
:1032D00013E6B0E13436A0E11346C4E10010A1E2E8
:1032E000742682E10E0090E07040BDE80010A1E27B
:1032F0001EFF2FE10E2055E00C30D4E00520A03158
:103300000430A0317040BDE80010A0E30100A1E04E
:103310001EFF2FE17040BDE80000A0E30010A0E315
:103320005D0200EA10B5040000F0A8FC0068005D32
:10333000000706D5DF2C04D02000203810BC08BCC4
:1033400018472000FAE770B53C8DD6E40100000074
:10335000F4050000000200002D8205EE456B04001C
:1033600080693026C10600D42026C0070AD107E0B4
:10337000616AE269300000F04FFCE06B401CE063E2
:103380006D1EF5D570BC08BC184770B5456B0400C0
:103390008069C0070AD007E0616AE269202000F076
:1033A0003BFCE06B401CE0636D1EF5D5EAE70000D6
:1033B000F0B50D001FB410002B498CB07944582D86
:1033C00000D011390B910C998969090602D50400C6
:1033D0001E0004E00C99C046C046002604000020F0
:1033E00002900C9821A78069010713D5702D03D195
:1033F00001211FA702910FE0002331002000594056
:10340000584008430FD0782D1AA700D01AA70220E1
:10341000029008E0702D06D1202101430C988161B3
:103420000C980821816300250BE00B992007000F01
:10343000085C03A94855210930070C006D1C0443A2
:103440003609002331002000594058400843ECD190
:10345000029A3B000C9800922A0003A900F02AFC73
:1034600011B0F0BC08BC18476D9A030000000000C2
:10347000400000003078000030580000E0B5002621
:1034800017B410008AB075290A9915A511D0C04645
:10349000C046002802DA404212A508E00A9989696C
:1034A0008A0701D510A502E0490704D50FA501261A
:1034B00001E0C046C046002402AF04E000F0B8FCC2
:1034C00030313955641C0028F8D12B0000960A9839
:1034D000220002A900F0EEFB0DB0F0BC08BC1847BA
:1034E000000000002D0000002B0000002000000064
:1034F0000FB409491CB506AB6A467944009005989B
:1035000000F02EFC04000020694600F043FC20007F
:103510001CBC08BC04B01847970800000FB460B585
:103520001CB40C0009AB009001D00019401E0949E1
:103530006A4679440190089800F012FC0500002CBE
:1035400003D00020694600F025FC28007CBC08BCA4
:1035500004B018476908000009D8C26C01000000D7
:10356000F007000000020000D96ABB53194930B4CB
:1035700017220A6036224A60174C184A0021030CB1
:103580008D001B185351164B491C584300193729FD
:10359000F5DB30BC70470120E8E770B40D4C0F4DEF
:1035A0006068216883008E00EA58AE59491E401EAB
:1035B0009219EA5036230029216002DA6060236004
:1035C00003E00028606000DA636070BC50004008CF
:1035D0007047000080BE00C0E119D666609E01C041
:1035E000CD0D010010B4042A0ED303000B439B073A
:1035F0000AD108C810C9A34202D1121F042AF8D266
:10360000A34201D0001F091F002A02D1002010BCD4
:103610007047D30701D0521C05E003780C78401C9A
:10362000491CA34207D103780C78401C491CA342D3
:1036300001D1921EF1D1181BE9E700007847C0467E
:10364000FF3002E2032483E1022882E19D0000EAC8
:103650007847C046030052E32A00009A03C010E2F4
:103660000800000A0130D1E402005CE30C2082E093
:1036700001C0D1940130C0E40130D13401C0C09404
:10368000042042E20130C034033011E25C00000A41
:10369000042052E21B00003A03C031E7020053E36A
:1036A0000800000A0F00008A2C34A0E104C0B1E534
:1036B000042052E20C3C83E1043080E4F9FFFF2A4D
:1036C000011081E20F0000EA2C38A0E104C0B1E54E
:1036D000042052E20C3883E1043080E4F9FFFF2A31
:1036E000021081E2070000EA2C3CA0E104C0B1E531
:1036F000042052E20C3483E1043080E4F9FFFF2A15
:10370000031081E20000A0E1822FB0E10130D1245A
:1037100001C0D1240120D1440130C02401C0C02403
:103720000120C0441EFF2FE17847C046013050E021
:1037300003005221C6FFFF9A030052E3020080E01B
:10374000021081E02500009A030010E3013071159A
:103750000120421201306015030010E3FAFFFF1A46
:10376000033011E2A101000AFBF9128B01000000F5
:10377000EC090000000200001E73B90E042052E2A2
:103780001B00003A03C031E7020053E30800003A8F
:103790000F00008A0C38A0E104C031E5042052E299
:1037A0002C3883E1043020E5F9FFFF2A021081E282
:1037B0000F0000EA0C3CA0E104C031E5042052E215
:1037C0002C3483E1043020E5F9FFFF2A011081E267
:1037D000070000EA0C34A0E104C031E5042052E205
:1037E0002C3C83E1043020E5F9FFFF2A031081E23D
:1037F0000000A0E1822FB0E10130712501C07125E8
:10380000012051450130602501C06025012040455F
:103810001EFF2FE17847C04610402DE9202052E2DC
:103820000500003A1850B1281850A0281850B128A7
:103830001850A02820205222F9FFFF2A02CEB0E122
:103840001850B1281850A0281800B1481800A048F6
:103850001040BDE802CFB0E1043091240430802450
:103860001EFF2F01822FB0E1B230D1200120D144C0
:10387000B230C0200120C0441EFF2FE17847C0466F
:103880000020A0E300402DE9201051E20230A0E129
:1038900002C0A0E102E0A0E10C50A0280C50A0283A
:1038A00020105122FBFFFF2A011EB0E10C50A0287E
:1038B0000C00A0480040BDE80111B0E104208024C4
:1038C0001EFF2F01B220C040010111E30120C014EE
:1038D0001EFF2FE17847C0460020A0E3040051E31B
:1038E0000700003A03C010E2E5FFFF0A04C06CE2E3
:1038F00002005CE30120C0140C1041E0B220C0A023
:10390000DFFFFFEA81CFB0E10120C0240120C02405
:103910000120C0441EFF2FE103000B43020070B4DE
:103920009B0710D10F4CE50100E008C208C91E1B1F
:103930009E432E42F9D01906090E1170521C00291F
:103940000DD01B0AF7E70C78491C531C002C14708F
:1039500005D00C78491C5A1C002C1C70F3D170BC8B
:1039600070470000010101017847C04610402DE971
:10397000030010E3030011037AD741BB01000000EC
:10398000E80B000000020000EA9B07B30040A0E142
:103990000A00001A50E09FE5042052E2060000BA37
:1039A000043091E40EC043E003C0CCE18EC31CE0C0
:1039B00004308004F7FFFF0A041041E2042082E291
:1039C000012052E2050000BA0130D1E4000053E3C7
:1039D0000130C0E4F9FFFF1A0210A0E1C2FFFFEBC3
:1039E0000400A0E11040BDE81EFF2FE1010101012C
:1039F00070B4441C06E00178401C002902D1001B71
:103A000070BC70478107F6D10A4AD50102C88E1AE8
:103A10008E432E42FAD0001B0A0601D1C01EEFE7EA
:103A20000A04120E01D1801EEAE70902090EFBD139
:103A3000401EE5E7010101017847C0460120D0E5BD
:103A40000010D0E50230D0E50300D0E5021481E19A
:103A5000031881E1000C81E11EFF2FE17847C04689
:103A60002024A0E10000C1E50120C1E52028A0E15B
:103A70000220C1E5202CA0E10320C1E51EFF2FE1BB
:103A8000020000E0521C1378002BFBD10B78491C7C
:103A90001370521C002BF9D1704700007847C046C4
:103AA00001C090E12100004AA0C071E00020A0E325
:103AB0001A00003A20C271E00F00003A20C471E001
:103AC0000100003A0030A0E3200000EAA0C371E04A
:103AD000810340200220A2E020C371E001034020C6
:103AE0000220A2E0A0C271E0810240200220A2E0F8
:103AF00020C271E0010240200220A2E0A0C171E0DA
:103B0000810140200220A2E020C171E0010140209B
:103B10000220B2E0A0C071E0810040200220A2E0BB
:103B2000011050E00010A0310200A2E01EFF2FE1C2
:103B3000022111E200106142403032E000006022B8
:103B400020C271E01D00003A20C471E00F00003A6D
:103B50000113A0E120C471E03F2382E30B00003A8F
:103B60000113A0E120C471E03F2682E30700003A80
:103B70000113A0E120C471E03F2982E30113A021D9
:103B80003F2C822300C071E2A5B5FBCB01000000F1
:103B9000E40D000000020000F363D9C31D00002AF9
:103BA0002113A021A0C371E0810340200220A2E0E4
:103BB00020C371E0010340200220A2E0A0C271E016
:103BC000810240200220A2E020C271E001024020D8
:103BD0000220A2E0A0C171E0810140200220A2E009
:103BE00020C171E0010140200220B2E0EBFFFF2A7A
:103BF000A0C071E0810040200220A2E0011050E04E
:103C00000010A0310200A2E0C33FB0E1000060421A
:103C1000001061221EFF2FE10000A0E3360000EA41
:103C20007847C0460030A0E3F5FCFFEA7847C0467D
:103C30000120A0E1920081E01EFF2FE17847C046FD
:103C40009203A1E01EFF2FE17847C04601C05EE568
:103C50000C0053E10330DE370C30DE2783C08EE0EA
:103C60001CFF2FE100470847104718472047284707
:103C700030473847D40100EB6F0100EB03002DE91A
:103C8000D20100EB0300BDE8970100EB0F002DE926
:103C9000D10100EB0F00BDE81CC09FE50FC08CE018
:103CA00001001CE30DE08F120FE0A0011CFF2FE1CB
:103CB00001C08FE21CFF2FE100F0B4FA995102001D
:103CC00001402DE9C80100EBF60200EB0140BDE820
:103CD000000000EA0000E0E3740000EA1EFF2FE1AC
:103CE0007847C04610402DE9770000EB1040BDE852
:103CF000040080E21EFF2FE1FD0400001EFF2FE103
:103D00001EFF2FE1F0B504000FB48169150081B0EA
:103D1000880604D5A06B10229143A16100E0012028
:103D20000027A84200DD471B0A98616B7A198018AA
:103D3000081A6063A069C00602D42000FFF735FBB3
:103D4000002609E00498616AE269805DFFF78CFF54
:103D5000E06B401C761CE0630A988642F2DBA069A7
:103D6000C0060BD52000FFF720FB07E0616AE2697F
:103D70003020FFF779FFE06B401CE06338007F1EC6
:103D80000028F3DC08E00298616AE269405DFFF711
:103D90006BFFE06B401CE063EF39449F01000000C3
:103DA000E00F000000020000078B677E28006D1EF8
:103DB0000028F2DC2000FFF71AFB05B0F0BC08BCBD
:103DC000184700000FB591B0080007900848190087
:103DD000784408AB05C300200C90064878440A904C
:103DE00011A80B90684600F083F815B008BC18477E
:103DF000090400001D0400000A681070521C0A60CB
:103E000070470A000CCA9A4202D2531C0B60107011
:103E100070470000013050E0030052218CFEFF9AF1
:103E2000020080E0030010E3021081E00130711510
:103E30000120421201306015030010E3FAFFFF1A5F
:103E4000102052E20500003A10402DE9185031E9E7
:103E5000102052E2185020E9FBFFFF2A1040BDE875
:103E6000823EB0E108103129081020290430314584
:103E700004302045030012E31EFF2F01822FB0E122
:103E8000B230712101205145B230602101204045FE
:103E90001EFF2FE17847C0460A1040E2200140E0B3
:103EA000200280E0200480E0200880E0A001A0E162
:103EB000002180E0821051E0010080520A1081420E
:103EC0001EFF2FE10C109FE51800A0E3563412EFFF
:103ED0001EFF2FE11CFEFFFF260002007847C046B0
:103EE00004009FE51EFF2FE11EFF2FE15C9F01C034
:103EF000F0B587B0C046C04604000D000020D6E0F3
:103F0000E06A0768049704E0E06AE16B0768491C0F
:103F1000E163A16AFFF7B1FE060001D0252EF3D1BF
:103F20000498B84205D03A00236A04992000FFF7AC
:103F3000A6FE002E6DD0A84F00267F44E06AA16A3D
:103F4000FFF79BFE202808DB312806D239182039DC
:103F50000978002901D00E43F0E70021A1630F008A
:103F600061632A280FD101CDB90009194863E06ABD
:103F7000A16AFFF782FE012F20D1A16B002928DA68
:103F800020218E4325E0010030390A2914D2B800DF
:103F9000001905904163E06AA16AFFF76EFE010017
:103FA00030390A2908D2059986EE6702010000001F
:103FB000DC110000000200007990C0CE0A23496B9A
:103FC00059434018059930384863EEE7012F0AD06D
:103FD0002E2808D1E06AA16AFFF759FE20210E437E
:103FE0007F1C022FC7DB616B002903DA4942616342
:103FF00001214E40F10701D010218E43B10701D5B8
:1040000004218E436C2801D0682813D10700E06A90
:10401000A16AFFF73CFEB84206D180206C2F00D089
:10402000C000064316E089E040216C2F00D08900D3
:104030000E4313E04C2805D06A2803D0742801D021
:104040007A280BD100214C2803D080216A2800D087
:1040500000210E43E06AA16AFFF719FE6528A661F8
:104060006BD014DC4728FBD008DC002866D0412840
:1040700065D04528F4D04628F2D01CE0582862D0FC
:104080006128F5D063281ED064287BD013E06F2808
:1040900069D008DC6628E3D06728E1D0692871D0B0
:1040A0006E283ED007E070284DD073281CD07528AC
:1040B00068D0782847D0616AE269FFF7E9FDE06BD4
:1040C000401CE06326E70122700606D56B460020FF
:1040D000D88001CD01A998800CE06B460020587073
:1040E00001CD6946187011E029680022D24370069C
:1040F0000BD52D1D206B002803D02000C046C046E4
:1041000008E72000C046C04604E72D1D206B0028AC
:1041100003D02000C046C046FCE62000C046C04692
:10412000F8E6700504D4F00502D4300600D4700619
:1041300002CD2000C046C046ECE636E051E042E049
:1041400001E01FE00FE0310606D5ED1DED08ED00A2
:104150002A0008350CCA01E004CD0023010020002C
:10416000FFF762F9D6E6300606D5ED1DED08ED0045
:104170002A0008350CCA01E004CD00232000C04607
:10418000C046C7E631060AD5ED1D0100ED08ED0079
:104190002A0008350CCA2000C046C046BAE604CD45
:1041A00001002000FFF7A6F9B4E6ED1D02ABED0813
:1041B000ED002900083506C997D0F12E0100000056
:1041C000D8130000000200008D787E7306C3010042
:1041D000200002AAC046C046A6E6ED1D02ABED08CF
:1041E000ED002900083506C906C30100200002AA17
:1041F000C046C04698E6E06B07B0F0BC08BC184764
:10420000648F030070B505000C00160005E02078EF
:10421000696AEA69641CFFF745FDB442F7D370BCD4
:1042200008BC184701684A1C026008787047000003
:1042300010B5C046C046080007D00178002904D058
:1042400005A100F02BF9002804D10448784410BCE3
:1042500008BC18470020FAE743000000988C0300D0
:1042600010B5C046C0460400C046C046200000F05D
:104270003FFB10BC08BC18470E40A0E16A0000EBF1
:1042800004E0A0E101402DE97F0000EB0040A0E147
:104290000140BDE813402DE9121DA0E30100A0E399
:1042A000081084E5000084E51340BDE80010A0E19B
:1042B000040084E50EF0A0E110402DE903002DE993
:1042C000710000EB0040A0E10300BDE8042094E58C
:1042D0000D30A0E100E082E003005EE1002081E516
:1042E0000B00008A0E3093E0011A8EE26330A0E1E9
:1042F000071081E20730C3E30710C1E3030051E177
:104300000310A081041084E51040BDE8020041E0E4
:104310001EFF2FE10020A0E10000A0E30000A0E1CB
:104320001040BDE81EFF2FE101C08FE21CFF2FE10E
:10433000F0B585B0C046C04605000C0038F0A8F9BD
:10434000002002940195C046C046039001A8FEF7E4
:10435000EBFD04000D0001A8009303C81600C04641
:10436000C046C046C046FFF752F900210800C046CB
:10437000C0460700FFF7C6FD049000210760080053
:10438000FFF756FF411C0498416000210800C04619
:10439000C04601000498816000210800C046C04664
:1043A00001000498C16000210800C046C046010019
:1043B00004980161C046C046C046C046C046C046DB
:1043C000C046C046C046C0468B7113300100000095
:1043D000D4150000000200009480A003C046C0462F
:1043E000C046C046C046C046C046C046009B05B059
:1043F0002000049C29003200A646F0BC01B07047A2
:1044000010B5C046C0460020C046C046C046C046A3
:10441000C046C04610BC08BC184700001EFF2FE174
:104420000000E0E30210E0E31EFF2FE110402DE961
:10443000470000EB1040BDE81EFF2FE11EFF2FE1FB
:104440000E50A0E1450000EB05E0A0E10050A0E126
:104450000D10A0E10700C0E300D0A0E160D08DE224
:104460000A30A0E120402DE9BF4E00EB2040BDE81E
:104470000060A0E30070A0E305C0A0E10080A0E31D
:1044800000B0A0E3C009ACE80710C1E3C009ACE884
:10449000C009ACE8C009ACE801D0A0E11EFF2FE1E3
:1044A00004009FE51EFF2FE11EFF2FE14C9F01C07E
:1044B0007847C046030010E3030011031700001AF9
:1044C00000402DE984E09FE5042090E4043091E46D
:1044D0000EC042E002C0CCE18EC31CE003005201DA
:1044E000F8FFFF0A0040BDE8030CA0E1020C50E019
:1044F000FF0E1C030700001A0308A0E1020850E0A9
:10450000FF0C1C030300001A0304A0E1020450E0A6
:10451000FF081C03020053006000A0111EFF2FE1E2
:104520000120D0E40130D1E4010052E30300522124
:104530000400001A0120D0E40130D1E4010052E36C
:1045400003005221F5FFFF0A030042E01EFF2FE1A6
:10455000010101011EFF2FE110B410BC70470000E3
:1045600000009FE51EFF2FE13C9F01C004009FE576
:104570001EFF2FE11EFF2FE1409F01C07847C0467C
:1045800020C271E00020A0E374FDFF3A20C471E076
:1045900066FDFF3A0030A0E385FDFFEA913082E03E
:1045A0000300A0E10210A0E11EFF2FE100A00047E0
:1045B000CC129FE530229FE5DB00A0E300F021E173
:1045C000021081E00310C1E3041041E201D0A0E138
:1045D00000A0A0E300B0A0E3DF8117D60100000037
:1045E000D01700000002000060681EBE10229FE588
:1045F000D200A0E300F021E1021081E00310C1E34A
:10460000041041E201D0A0E1D300A0E300F021E1D9
:10461000E4319FE5001083E5DC119FE5000091E5A2
:10462000040080E2E4119FE5E4319FE5D4219FE599
:10463000000081E5002083E5020080E0D4119FE5C1
:104640000020A0E3002081E5BC219FE5000082E579
:1046500044229FE544029FE52C0082E50700A0E389
:10466000300082E50900A0E3000082E50B10A0E322
:10467000101082E50130A0E3243082E5283082E585
:104680001C229FE51030A0E3083082E51EFF2FE1D9
:104690000EF0B0E10EF0B0E1FEFFFFEAFEFFFFEA30
:1046A000FEFFFFEA9D0000EA03F0DEFC7E480047C3
:1046B000F3461CF071FB0000EC019FE5100F01EECA
:1046C000E8019FE5E8119FE5001080E5E4019FE522
:1046D000001090E5E0019FE5001090E5DC319FE5DA
:1046E0000310C1E1D8319FE5031081E1001080E59E
:1046F000AC619FE50235A0E3083186E5C4F19FE592
:10470000900F07EE1EFF2FE1BC019FE5BC119FE556
:10471000001080E5B8019FE5B8119FE5001080E525
:10472000B4019FE5001090E5081081E3001080E5DA
:10473000001090E5081011E2FCFFFF0A900F07EE51
:104740001EFF2FE1100F11EE1EFF2FE1100F01EEE3
:104750001EFF2FE1010050E2FDFFFF1A1EFF2FE1B7
:1047600078019FE578119FE5F720A0E3040081E43C
:10477000012042E20000A0E3040081E4012052E2B3
:10478000FCFFFF1A5C019FE55C119FE5001080E5CE
:1047900058019FE558119FE5001080E554019FE501
:1047A00054119FE5001080E51EFF2FE17F402DE9A9
:1047B0000952A0E3C43195E540419FE5003084E50E
:1047C0003C619FE50000A0E3430150E1402195B525
:1047D000002186B7010080B2FAFFFFBA0001A0E114
:1047E000002094E5020050E1F974572B010000000D
:1047F000CC19000000020000A7711CE34011D5B5E0
:104800000010C6B7010080B2FAFFFFBA7F80BDE892
:104810005C3E0004100000000004000000040000E2
:10482000143D0004343D0004383D00043C3D0004C8
:1048300001C05EE50C0053E10330DE370C30DE27AB
:1048400083C08EE01CFF2FE10E30A0E1C8E09FE5A1
:104850001EFF2FE110B49E46042A0ED3031C0B4307
:104860009B070AD108C810C9A34202D1043A042AFE
:10487000F8D2A34201D004380439002A02D1002022
:1048800010BC7047D30701D5013205E003780C78DE
:1048900001310130A34207D103780C780131013096
:1048A000A34201D1023AF1D1181BE9E790A203001B
:1048B000003000803F1F000000280080194CF003EA
:1048C000741F00000C20008023387E1000600090D0
:1048D000442000803CC60000144200004400000058
:1048E0000C280080FDFFBFFF082800800200400068
:1048F000C4200080F0F0F0F0243C0004D83C000418
:10490000A5170000DC3C0004AD690300E03C000496
:104910008D18000000500004AC530004251A00005C
:1049200000C09FE51CFF2FE1F91500007847C04645
:1049300000FDFFEA04F01FE5244DF0037847C04670
:1049400073FFFFEA7847C04673FFFFEA7847C04627
:1049500000C09FE51CFF2FE1E7FEF3037847C04648
:1049600000C09FE51CFF2FE179AFF4037847C046F4
:1049700000C09FE51CFF2FE10DA100C07847C04695
:1049800000C09FE51CFF2FE175D4F4037847C046B3
:1049900000C09FE51CFF2FE12328F6037847C0469F
:1049A00000C09FE51CFF2FE1DD82F6037847C0467B
:1049B00000C09FE51CFF2FE1D382F6037847C04675
:1049C00000C09FE51CFF2FE1A3BEF3037847C0465C
:1049D00000C09FE51CFF2FE1DFCAF6037847C04601
:1049E00000C09FE51CFF2FE1E926F0037847C04691
:1049F00000C09FE51CFF2FE1A49740F501000000D7
:104A0000C81B0000000200005399A25E1D23F003A2
:104A10007847C04600C09FE51CFF2FE101A000C001
:104A20007847C04600C09FE51CFF2FE12519F5031C
:104A30007847C04600C09FE51CFF2FE1FD4EF00304
:104A40007847C04600C09FE51CFF2FE1052AF00310
:104A50007847C04600C09FE51CFF2FE1C929F0033D
:104A60007847C04600C09FE51CFF2FE15947F0037F
:104A70007847C04600C09FE51CFF2FE1452AF003A0
:104A80007847C04600C09FE51CFF2FE1E51BF003FF
:104A90007847C04600C09FE51CFF2FE1D51CF003FE
:104AA0007847C04600C09FE51CFF2FE1191DF003A9
:104AB0007847C04600C09FE51CFF2FE1791CF0033A
:104AC0007847C04600C09FE51CFF2FE1251AF00380
:104AD0007847C04600C09FE51CFF2FE18918F0030E
:104AE0007847C04600C09FE51CFF2FE1A11BF003E3
:104AF0007847C04600C09FE51CFF2FE1FD19F00379
:104B00007847C04600C09FE51CFF2FE18D1AF003D7
:104B10007847C04600C09FE51CFF2FE1D518F00381
:104B20007847C04600C09FE51CFF2FE1E124F00359
:104B30007847C04600C09FE51CFF2FE12D25F003FC
:104B40007847C04600C09FE51CFF2FE10D26F0030B
:104B50007847C04600C09FE51CFF2FE17925F00390
:104B60007847C04600C09FE51CFF2FE19526F00363
:104B70007847C04600C09FE51CFF2FE17FB9F303D3
:104B80007847C04600C09FE51CFF2FE1E594F40381
:104B90007847C04600C09FE51CFF2FE1D538F603DB
:104BA0007847C04600C09FE51CFF2FE1DB38F603C5
:104BB0007847C04600C09FE51CFF2FE1E138F603AF
:104BC0007847C04600C09FE51CFF2FE17FE9F30353
:104BD0007847C04600C09FE51CFF2FE10302F403A5
:104BE0007847C04600C09FE51CFF2FE1E1B0F40309
:104BF0007847C04600C09FE51CFF2FE13522F40333
:104C00007847C04600C09FE51A079CD60100000007
:104C1000C41D0000000200004A617C2E1CFF2FE131
:104C20007FCEF3037847C04600C09FE51CFF2FE10D
:104C3000B34CF4037847C04600C09FE51CFF2FE14A
:104C40002755F5037847C04600C09FE51CFF2FE1BC
:104C50005545F5037847C04600C09FE51CFF2FE18E
:104C6000F52AF5037847C04600C09FE51CFF2FE1F9
:104C7000D134F6037847C04600C09FE51CFF2FE102
:104C8000D734F6037847C04600C09FE51CFF2FE1EC
:104C900031A5F5037847C04600C09FE51CFF2FE112
:104CA0003727F6037847C04600C09FE51CFF2FE179
:104CB0006346F6037847C04600C09FE51CFF2FE11E
:104CC0003F40F6037847C04600C09FE51CFF2FE138
:104CD000B3C5F3037847C04600C09FE51CFF2FE132
:104CE0003D7DF6037847C04600C09FE51CFF2FE1DD
:104CF0004D7FF6037847C04600C09FE51CFF2FE1BB
:104D0000EB59F6037847C04600C09FE51CFF2FE132
:104D1000695DF6037847C04600C09FE51CFF2FE1A0
:104D2000F167F6037847C04600C09FE51CFF2FE1FE
:104D30005BEAF3037847C04600C09FE51CFF2FE104
:104D4000E763F4037847C04600C09FE51CFF2FE1EE
:104D50008B66F4037847C04600C09FE51CFF2FE137
:104D6000E1E7F4037847C04600C09FE51CFF2FE150
:104D7000EBE7F4037847C04600C09FE51CFF2FE136
:104D80001500F5037847C04600C09FE51CFF2FE1E2
:104D9000F5E7F4037847C04600C09FE51CFF2FE10C
:104DA0004747F5037847C04600C09FE51CFF2FE149
:104DB0006FB1F4037847C04600C09FE51CFF2FE1A8
:104DC000C74AF5037847C04600C09FE51CFF2FE1A6
:104DD00009BAF6037847C04600C09FE51CFF2FE1E3
:104DE0001F21F5037847C04600C09FE51CFF2FE157
:104DF000E922F5037847C04600C09FE51CFF2FE17C
:104E0000D73CF5037847C04600C09FE51CFF2FE163
:104E10009568F5037847C046DC49EC560100000070
:104E2000C01F000000020000BE89C29300C09FE5C1
:104E30001CFF2FE1DF34F6037847C04600C09FE532
:104E40001CFF2FE1FBC5F5037847C04600C09FE576
:104E50001CFF2FE1A9CDF6037847C04600C09FE5AF
:104E60001CFF2FE153ACF6037847C04600C09FE516
:104E70001CFF2FE1BFBAF6037847C04600C09FE58C
:104E80001CFF2FE1B940F0037847C04644FEFFEA1B
:104E90007847C04600C09FE51CFF2FE197A300C0E4
:104EA0007847C04600C09FE51CFF2FE11129F003A1
:104EB0007847C04600C09FE51CFF2FE19127F00313
:104EC0007847C04600C09FE51CFF2FE1D528F003BE
:104ED0007847C04600C09FE51CFF2FE1CD26F003B8
:104EE0007847C04600C09FE51CFF2FE1C55CF50375
:104EF0007847C04600C09FE51CFF2FE12BBAF603A0
:104F00007847C04600C09FE51CFF2FE1E9B9F603D2
:104F10007847C04600C09FE51CFF2FE1532BF603E6
:104F20007847C04600C09FE51CFF2FE1FB2BF6032E
:104F30007847C04600C09FE51CFF2FE1B3AAF503E8
:104F40007847C04600C09FE51CFF2FE18BA500C03D
:104F50007847C04600C09FE51CFF2FE1CDA700C0E9
:104F60007847C0460AFEFFEA7847C04600C09FE582
:104F70001CFF2FE1D3CAF6037847C04600C09FE567
:104F80001CFF2FE1D9CAF6037847C04607FEFFEAA7
:104F90007847C04600C09FE51CFF2FE13D2BF00382
:104FA0007847C04600C09FE51CFF2FE1E541F003B4
:104FB0007847C04600C09FE51CFF2FE1C1A200C09A
:104FC0007847C04600C09FE51CFF2FE1C3A200C088
:104FD0007847C04600C09FE51CFF2FE145A300C0F5
:104FE0007847C04600C09FE51CFF2FE16FA300C0BB
:104FF0007847C04600C09FE51CFF2FE1994DF003A4
:105000007847C046FCFDFFEA7847C04600C09FE5F0
:105010001CFF2FE14FA500C010B5174C2268521C91
:105020002260164A0023526895C634FD0100000034
:10503000BC21000000020000B656334EFEF754F8C3
:1050400061681000FFF7D6FA142800D3132041003E
:1050500009190A89521C1204120C0A81218E490076
:1050600009190989914200D2208620680321890309
:1050700088420AD3400820600020410009190A89AB
:10508000401C520814280A81F7D310BDD88301C0F0
:1050900080A001C0054900200A68642A04D9088E4E
:1050A00049684843800A800270470000D88301C0E5
:1050B00010B507483421FEF759FC06481421406812
:1050C000FFF798FA0249486003490020886110BD43
:1050D000D88301C080A001C000A101C0F3B587B092
:1050E00027F0CEFF0290039125F0D8FB07000020A7
:1050F00001908F4800690500FF30EC30FEF70AFD93
:1051000004002800FF30E730FEF704FD002808986F
:1051100004D01CF07BFD02F0EFFC03E01CF042FD2C
:1051200002F0DDFC0006000E012204900798032126
:1051300033F046FD060007980025123006903FE048
:105140002801401B00190E30FEF7E4FC801C069974
:105150000622FEF7C9FA002831D12801401B241885
:105160000E34002E02D0B078B84211D070480069D9
:10517000FF30E730FEF7CEFC05000100200025F0EF
:1051800013FF2A000100049825F023FF002814D003
:1051900008981CF007FD02F0A2FC05002000FEF7B5
:1051A000B9FC057208981CF031FD02F0A5FC08223C
:1051B0002073201D02A9FEF7CDFA09B0F0BD6D1CC9
:1051C000207BA842BCD807984178007809020843A0
:1051D00030380590093005042D0C002E04D1ED1C4B
:1051E0002D042D0C019732E0B078B8422FD05048F2
:1051F000C1680069CB00591A4018407A8007DCD595
:1052000025E0002ED9D04A4F3869FF30E730FEF74D
:1052100081FC0100200025F0D6FE06063869360E16
:10522000FF30E730FEF776FC3101891B0A190700D1
:105230000E320100100025F0073A007A010000004C
:10524000B82300000002000042BE8DF3B7FE0499AF
:105250003A0025F0C8FE0028B9D1310020002EF018
:1052600010FF267B607B8642D5D2201DFEF75CFCBA
:10527000471920000830FEF757FC8742CBD82000A2
:10528000FEF752FC0600201DFEF74EFC3618A81E45
:105290003070000A37007070093706220699B01C7A
:1052A000FEF762FA08981CF087FC02F022FC3072CC
:1052B0000799059A20313800FEF756FA05980199AA
:1052C000C019002905D00321017001214170019905
:1052D0008170207B0301181A01190E313000FEF78E
:1052E00035FC207B02A90301181A0019123008228C
:1052F000FEF73AFA08981CF093FC02F007FC217BB9
:105300000B01591A09198876207B0301181A011913
:105310000C48C2680069D3009A1A8018C279CA760C
:10532000217B007A0B01591A09190877207B401C50
:105330002073201DFEF7F8FB4019211DFEF706FC27
:1053400045E7000064BA00C010B500F02BFC00F087
:105350009FFE10BDF8B500252E001CF09FFC2A4CC6
:10536000012700282FD129488068C5072848ED0F5C
:105370000388284900203A0082401A420ED00A8849
:10538000142A0BD80020C043E06003204005A06031
:10539000FFF706FB606880020ED40BE0891C401CFE
:1053A0000228E8D3194880386168890204D4016B67
:1053B000C903F9D4012E06D11748E060C043A060AC
:1053C0000220206110E011484038406B0F49096A03
:1053D000401A6168490203D4002D08D0102806D273
:1053E0000D48E060C043A060FFF7DAFA01E0FFF784
:1053F000DBFA616803204005084001214905884225
:1054000001D106484770F8BD00280080C020008008
:105410002081009080880090FDFFBFFF24A800C07D
:1054200070B50D0004000021481E1EF0F9FD00209B
:10543000207003222900042005230EF075FB70BDA7
:1054400007490A230A78521CFC9F1DBC010000007A
:10545000B4250000000200005B4653830A70C25668
:105460004B88D2184A800B23C0568A8880188880BF
:1054700000207047B6A900C010B504000021084AFA
:10548000001D24F04FFE211D2000064A103024F09C
:1054900049FE211D2000044A1C3024F043FE10BDAB
:1054A00065260000052600006140010070B504007B
:1054B0004A680800916853680268260025001C3677
:1054C00010350D2A11D007DC521C0BD0092A1CD133
:1054D000180013F079F903E0192A0ED0252A14D107
:1054E000290006E013F09CF80EE0080013F04AF8DB
:1054F00006E0200024F03AFE06E0080013F098F8D9
:10550000002801D13100F4E7002070BD10B5096812
:10551000491C03D10100103124F028FE002010BDE9
:1055200038B504000D000020C0431EF083FD2300A9
:105530002021044A062000950AF070FC0EF030FB92
:1055400038BD0000C09D030010B504000021084ACA
:10555000001D24F0E7FD211D2000064A103024F034
:10556000E1FD211D2000044A1C3024F0DBFD10BDAC
:105570001D270000D52600009F40010010B5040043
:105580000800496802688B684968521C18D0082ACC
:1055900013D0112A06D0142A13D11121180013F0A8
:1055A0007BFA0DE0180013F01DFA002808D1210045
:1055B0001C31200024F0DAFD02E0080013F0E2FACA
:1055C000002010BD10B50968491C03D1010010313D
:1055D00024F0CCFD002010BDF8B504000E0000281A
:1055E00073D0002E71D00022FF2138482D3114F0E5
:1055F000DFF8002869D0022181815A2261210A54F2
:1056000084214518018118273560EE1929000020F2
:10561000FEF7A6FA291D0020FEF7A2FA290008319C
:105620003800FEF79DFAE07AA17A0002014329735F
:10563000090A697336F09EF8002800D0207A287590
:10564000687DF1214008400008406875E07AA17A41
:10565000000202000A43210041771A2901000000DC
:10566000B027000000020000AFAEED3E0C3130006C
:10567000FEF78EF8207B002813D1607B002810D124
:10568000A07B00280DD1E07B00280AD1207C0028D7
:1056900007D1607C002804D1062212493000FEF7B1
:1056A00077F80622310028000E30FEF771F8A07C52
:1056B000002814D1E07C002811D1207D00280ED1D3
:1056C000607D00280BD1A07D002808D1E07D002856
:1056D00005D1054806220168B01DFEF759F8F8BD4E
:1056E000145100043C89000448BA00C00F4910B5A9
:1056F000002801D1012010BDCA7B8B7B12021A4306
:105700000AD10021FF220170193241708270120A01
:10571000C2700171417107E04A7B0B7B12021A4390
:10572000921D0831FEF734F8002010BDF89F01C02B
:10573000FEB50027194E3C00029782206043851970
:10574000E87BA97B0002084323D008222900684691
:10575000FEF71EF801990098002279405040084356
:1057600017D1822060438019083002A9FFF73EFF5D
:10577000E87BA97B7D2300020843DB005843C11767
:1057800008220191009028006946FEF701F802986E
:10579000FEBD641C012CD0D30020FEBDF89F01C0CB
:1057A00000B500F001F800BD10B5064C0020010066
:1057B0008222424312190B0A401C91730128D373B1
:1057C000F6D310BDF89F01C01CB5194C002804D1B8
:1057D0002100A0730C39E07323E0C17882780902BC
:1057E00011430A00FF3A193A1FD14179027909029F
:1057F0000A430100921D20000830FDF7C9FFE07B3D
:10580000A17B7D2300020843DB005843C117082217
:105810000191009020006946FDF7BAFF0449044851
:105820000C39FEF7A7F900201CBD01201CBD0000AB
:10583000F89F01C0F0B50026354F34008BB027F03B
:105840003DFC082209910890391D6846FDF7A0FF2C
:105850000898009A0999019B801A99410BD3082254
:10586000391D02A8FDF794FF25E7D4480100000088
:10587000AC2900000002000068B7EF630898029AA4
:105880000999039B801A99410CE00822391D04A84C
:10589000FDF788FF04980599089A099BC043C943FE
:1058A0008018594100237D22D200FDF745FC0D00F0
:1058B0000690822060431B490C3140180A90C17B3E
:1058C000807B0902084321D00A99082204A8FDF729
:1058D00069FF04A807C82B00121A8B4110D20A993D
:1058E000082204A8FDF75EFF04A807C8801AA94192
:1058F000039102900A98082202A9FDF753FF05E0E0
:105900000A98082208A1FDF74DFF0126641C012C0E
:10591000CFD30822381D08A9FDF744FF30000BB093
:10592000F0BD0000EC9F01C000000000000000007E
:1059300070B5074D040003E000F01EF8A070241DB0
:105940002088A842F8D1A178FF29F5D170BD0000C8
:10595000FFFF000070B5074D040003E0A17800F0E0
:1059600015F8241D2088A842F8D1A178FF29F5D187
:1059700070BD0000FFFF000010B5040033F0AEFD65
:1059800001480481007910BD2008009070B5040022
:105990000D0033F0A3FD03480481057101201DF0C3
:1059A00099FB70BD2008009010B51BF01DFD002074
:1059B00010BD0000034901204978032900D00020D0
:1059C00070470000F8BC00C0F8B52A4D0E00AC6866
:1059D000294900224870CE708A701F21C9038C4368
:1059E000AC60002809D02F0C012809D002281ED055
:1059F000032838D1E80B204334E001208004FAE783
:105A00000120C0042043A8601A4840304169B943CE
:105A10004161802028F090FB16484038C06800059E
:105A200021D5164801790422114301711BE00021A0
:105A300030000EF071FC124A51690120B040014360
:105A40005161110040394A6902434A618A6902433F
:105A50008A61C04308620B488168C20C11438160AF
:105A600020003843A86003488030416880221143F9
:105A70004160F8BD402000801332F588010000002D
:105A8000A82B0000000200009C5F51DEF8BC00C0A3
:105A900040010090400200900028008038B51C4A68
:105AA0000021009151781B4B1B4D012400290CD083
:105AB000012911D0022922D0032904D114F0E6FAD9
:105AC000002800D10024200038BDD8680005FAD590
:105AD000287E8006F6D417E0D8680005F3D50F4875
