:100000000100000000000000000400000094511AEC
:100010001CF09FE51CF09FE51CF09FE51CF09FE5A0
:100020001CF09FE51CF09FE51CF09FE51CF09FE590
:1000300009420E60701A0500F4190500F819050050
:10004000501A0500541A0500581A05005C1A0500DC
:10005000691A0500000000EA3E4501EA28008FE227
:10006000000C90E800A08AE000B08BE001704AE24A
:100070000B005AE13745010A0F00BAE814E04FE2DD
:10008000010013E303F0471013FF2FE104360500CE
:10009000543605000030A0E30040A0E30050A0E388
:1000A0000060A0E3102052E27800A128FCFFFF8A44
:1000B000822EB0E13000A128003081451EFF2FE1E3
:1000C00004309FE503308FE013FF2FE11518050082
:1000D000F8B5050001F09FFC0027FF43002804D17C
:1000E000686902F0E4F800282DD02A895019417976
:1000F00003790906091419430C180E3288180606EC
:10010000360E280001F07AFC002807D1617D227D9F
:100110000802083610433606360E03E0607B217B6A
:100120000002084301F034FC00280CD02200A11D7D
:1001300028002E8102F058FA002804D0280000F090
:10014000AAFB0020F8BD3800F8BD00207047000071
:100150006F4870B5042B046840680ED14C610B8960
:100160005B18DC799D7923022B43E52B01D1162303
:1001700000E0042351F052ED03E0012B01D14C616A
:10018000F8E7002070BD70B50C00614D1600052B1E
:100190001BD120890019C17882780802104303D14D
:1001A000200000F078FB04E02000FFF791FF00281A
:1001B00001D1012070BD200000F061F8002814D1A9
:1001C00032002100286805230DE0032B06D1200012
:1001D00001F011FC32002100032304E0022B04D1C2
:1001E000A8683200210051F01AED002070BD10B552
:1001F000474C206800280CD101F007FC2060454ADC
:100200002021A06051F00EED434A6068202151F09A
:100210000AED10BD10B53E4C2068002808D0002221
:10022000132151F000ED206851F000ED0020206016
:1002300010BD70B504000D0000F0CFF806000120DD
:1002400020733649206988420AD12904090C07D055
:10025000280C6081324822000068532151F0E2EC02
:10026000200051F0E8EC300000F0BCF870BD020056
:10027000274810B50068682151F0D4EC10BD10B5C6
:10028000040001F093FB002840D02089244B001982
:10029000417902790906091411430918888AC21F95
:1002A000F93A0CD1081B16302081A088210016389D
:1002B0000204120CA2801868163A052323E00122DA
:1002C0009202904202D12200502105E00522120242
:1002D000904208D122005121186851F0A4EC20006E
:1002E00000F0D9FA11E0C21FFF3AFA3A0DD1081B0B
:1002F00016302081A088210016380204120CA2803A
:100300001868163A152351F08AEC012010BD000040
:10031000203705004101000077010000003705008B
:10032000E436050010B551F000EC51F088EC0020E7
:1003300010BD10B5FF48006800022BD5FE4CFF4AE7
:100340000020C11C6163A36B81005350031D6363D4
:10035000A36B8918801C0C284B60F2DBF848FFF770
:1003600086FFFF21F74A2D3102E0401C8842FCDB6A
:1003700050780028F9D0F4486063F448A063C007BF
:100380006063F348A063F0480E3860630520A06303
:10039000012010BDEA48401CFFF769FFFEE7E9496C
:1003A00010B5486004F022FB10BD202800D3FEE702
:1003B000E84A80001358002B00D0FEE711500020BF
:1003C0007047E44A00218000115008007047E2485D
:1003D0000068002800D001207047802010B551F03F
:1003E00032EC10BD10B551F02EEC10BD02688368E0
:1003F000C1681000184770B5052804D2D74D840095
:100400002B59002B01D0012070BD2C23EE93BD6130
:1004100001000000FC030000000400005AEF5E131E
:10042000D34E4343DC3E9B192B5135000401F0357C
:1004300028516019C260816000214160CD49196175
:100440005861002070BDFEB50E001700052815D2BA
:10045000C7490201143155186968C54B8400002949
:100460000DD1012201970096029218594369026941
:1004700051F0F6EB002801D101206860FEBD18594B
:100480001D0051F0F2EB28593A00310051F0F0EB29
:10049000285951F0F2EBFEBD10B5040051F0F0EB1D
:1004A000206010BDAC4970B50878401C0006000EF5
:1004B0000870012149044018FFF7E3FEAE4D6C6A55
:1004C000E00705D051F0E0EB04F084FBA817686268
:1004D000AA4EA0070CD5A86A02218843A862202052
:1004E000F060491F6962B1680143B16004F06AFBC2
:1004F000600705D5A86A04218843A86204F0F3FBCD
:1005000020070AD5A86A08218843A8628020F060E5
:10051000C9436962B1680143B160012070BD974869
:1005200070B50468904EA10706D500210161B26D37
:1005300001209047022084432006000F03D0E020D2
:1005400084431020044300250AE0E00706D0A800F9
:100550003258002A02D021002800904764086D1C00
:10056000002CF2D1002070BD70B5FF25834C6D1CAE
:10057000E56083480068002801D0002102E081483E
:100580000021006851F084EBA0682843A06001209E
:1005900070BD70B50124794D8440EC601FF0E1FC22
:1005A000A8682043A860012070BD74480121C903D8
:1005B00010B5C160744A136A734C0023403C236039
:1005C000136282680A438260012010BD6B480121DA
:1005D000090410B5C1606C4A536A6B4C0023403C5F
:1005E0006360536282680A438260012010BD70B567
:1005F0000124624E8440F46003F026FE050003F0FF
:1006000087F9002805D0680509D5282017F005FAD4
:1006100005E0280703D504F005F804F06CF828007D
:1006200003F01DFE280003F01FFEB0682043B060F9
:10063000012070BDF8B5454D4035EC68E00702D0AB
:10064000A817E8600440600704D50420C043E860B0
:1006500004208443200606D58020C043E860802023
:10066000844351F01AEB200709D50820C043E86005
:100670000820844321F00DFF082002F019FEA00697
:1006800006D52020C043E8602020844303F001F811
:10069000200407D50126F603300051F0FEEAF043AE
:1006A000E860B4436003400F06D007200004210037
:1006B0000140C943E96084432002000F30D020028A
:1006C00024D522494039C8688A011043C8602F48A0
:1006D0000068002803D188048078800702D40120B4
:1006E0000005044303F0F0FD002804D0012002F0CF
:1006F0009DFF02F0B9FF19490020713188748020F4
:1007000003F041FE0120C00551F0C6EA0F273F0566
:1007100026003E40300002F0DBFCF043E860BC43C2
:10072000E000400F09D00727BF0626003E403000FA
:1007300002F03BFCF043E860BC43E00637D51020F4
:10074000C043E860102023E00029008040200080A2
:10075000205201C040000100080100040F00008089
:10076000FF0C0000070080FF983A000478FC0004AA
:1007700014160004DD030000003000800028008013
:1007800020370500B03A050080E80080883A05006F
:10079000844303F0B9FE002809D00DF09FFB002828
:1007A00005D01B4900208874102002F081FA6000F7
:1007B00003D51848E860C0438443A00003D5164819
:1007C000E860C0438443002C06DA0120C00702F031
:1007D00007FC0F488138E8601048816801229205C3
:1007E00011438160F8BD0D4B0122920510B5DA600E
:1007F000FFF720FF012010BD70B50125074C2D0724
:10080000E5600CF0CAFAA0682843A060012070BD22
:1008100080000080FFFFFFBFFFFFFFDF06E39F6256
:1008200001000000F80700000004000009358D7F7A
:100830000028008010B50400002A03D0200003F037
:100840002DFD00E00024200010BD7CB50C0015003B
:10085000497923790906091419430B1981884269DA
:100860002433602914D9603920328180517EC90631
:10087000CA0F00922A0001A904F0EFFFA071000A3C
:10088000E0710198001B2071000A607101207CBD9D
:1008900000207CBD30B5040020202081656920182F
:1008A000AD7A05706469E47A44700171090A417196
:1008B000110A8271C171190A8370C17030BD00289C
:1008C00010B507D00169002905D14189C0880322EC
:1008D0000DF022FC10BD51F0C2E910BD10B5018928
:1008E000C1220818418D0024D200914208D1010094
:1008F000062212310C3050F0EDFC002800D101240A
:10090000200010BDFEB504000020070002900190F9
:10091000208901260519A8780007800F022800D039
:1009200000266069407A02280CD12000FFF7D6FF2C
:10093000012807D12020A7802073FF49C868401CE8
:10094000C860FEBDA0880028FBD00EF0BEF80028CD
:1009500067D0280005F02EF800285AD1002E12D0BA
:100960000122200069460EF0BCFA00280BD0009846
:10097000002800D0012000284BD000214F200DF08E
:1009800071FF029008E0200001A90EF0A1F90028F3
:1009900000D0012000283CD00EF097F8002848D065
:1009A000E6480125056117F073F816F082FF00286C
:1009B0000CD117F0A1FA002808D1E1480760E148FE
:1009C0000780DE488570032017F031F80299FF2078
:1009D0000EF09BF8DC4D2888002804D0DB49042069
:1009E0000856401C0AD00225012004F061F86D1E53
:1009F00009D0D248007A0028F6D104E00EF054F86D
:100A0000CE482F8007721D2017F011F8CB48C76021
:100A10000FE06B46187900280BD12020A7802073A7
:100A2000FEBD002EFCD00222200069460EF059FACD
:100A300001E0002EF4D016F050FF0028F0D0A0887E
:100A40000028EDD014F05DFF0028E9D114F043FF39
:100A50000028E5D120890019C178CA0701D1801D7D
:100A600000E01230BA4AD37B002B0ED01289092A3B
:100A70000BD10078C00708D0880602D517F066F8B9
:100A8000FEBD1B2016F0D3FFFEBD0AF06AFF012851
:100A9000FAD017F036F8FEBDF7B500220700487807
:100AA0000E00097805020D4320352800323001047C
:100AB000A848090C51F0FEE8040020D028001230AC
:100AC000A08067612027E0191221278151F0F6E804
:100AD0002B04029A1B0C12212000FFF7DBFE3220B0
:100AE000208120182A00310051F0ECE82000FFF7A7
:100AF00009FFA088002804D12000FFF7E0FE0020B5
:100B0000FEBD278116F0FEFE002802D0052016F05B
:100B10008EFFFFF776FC914B05008F4821001C6883
:100B2000002200680523A0472800FFF76FFC012082
:100B3000FEBDFFB50120904083B0039F0406240E44
:100B4000FF376137387B0E00150020422ED1FF227F
:100B50009132462301A902A80DF062FE002825D09B
:100B6000387B182120433873019C1034200051F049
:100B7000A6E80698002801D1052000E00D2060724B
:100B800025722000627A0C990A3051F09CE83100FD
:100B900006220C31A01C51F096E8019918208872A9
:100BA0000020C872029903980DF006FE07B0F0BD50
:100BB0001A004AE68288602A10D9603A8280487911
:100BC0000A7900060014104324300871000A4871A5
:100BD000E62088710020C87101207047002070470E
:100BE0001FB501AA0400009202AA03AB17F021FD71
:100BF000019802040298121401040914200017F04D
:100C000083FE20000399C0304182019981820299BC
:100C1000C18220000EF0EAFF1FBDF1B5002486B0AE
:100C20002600250005A80EF02BFB00281629A78317
:100C300001000000F40B000000040000FD5AF8CB96
:100C4000BED06B46587DC10601D48006B8D56B4630
:100C5000187D0007000F0128B2D1464F0190387867
:100C600002A90EF02BFB39780129A9D0069A0B2096
:100C70001056002903D16B46997D0D072D0F334F78
:100C80003968884206DA7968884208DDB868012642
:100C9000002895D0012451F024E838610BE051F090
:100CA00020E8396905F07AFB3349884203D8B868EF
:100CB000002885D00124B868A04281D0002E0BD135
:100CC000BC606B46187D01990207120F00922B0041
:100CD000220002A803F0E4FD72E7F3B595B0050029
:100CE0000A2009900020079004900390169800288D
:100CF0007ED028896E69411920220BA850F0ECEFB4
:100D00000BA808AB0A90D87BC1071C486844149014
:100D100002D10A98801D00E01498059016981830AA
:100D200050F0E2EF08AB997B0007C40F0A070020E0
:100D3000920F022A03D10909090700D50120169F45
:100D400020432037002835D01AE000006804000452
:100D5000681C0004DC020004643A0500543A0500F3
:100D6000AC020004385C05000805000424370500C7
:100D7000E83805008C370500404B4C003E00000071
:100D8000FFF749FB0190387EFC4A41070A98490F5A
:100D90000C3004F063F90A28099008D2002C06D020
:100DA0000998F64900014018C168491CC1600198C2
:100DB000FFF736FB1698FFF73AFF288920216C18B9
:100DC000203829812071000A10AB607198880009D1
:100DD0002072000A6072B07A2070F07A6070A88881
:100DE000002802D1287B20283FD108ABD87B00E027
:100DF000F7E0800601D50120039008AB987B01073E
:100E0000890F022931D10009000720D5DC4800787C
:100E100000281CD015F016F8002818D0387EC0061F
:100E200015D5D8480068002811D0D7480068002898
:100E30000DD015F0FAFE002809D00DF035FB012881
:100E400005D0D2480068002801D10120049016F096
:100E500063FD002809D00A9804F0B6FD002804D1EB
:100E600002201CF097FA13F053FB16993000FFF79D
:100E7000C1FE3100C03116201391085E0CF0FCF861
:100E8000207313991220085E0CF0E9F808AB607328
:100E9000987B0009000703D5387E4007400F00E02B
:100EA000FF20A072A888002804D00A9804F08CFDC6
:100EB000002872D00020A070E070A888002802D11D
:100EC000287B202845D1A07A15F060FE00280AD0A2
:100ED0000398002804D0002130000AF016FB02E03D
:100EE000AB490020087005980078C00714D107F0BE
:100EF00052FD0028387E07D0C006C30F049A03991C
:100F0000300008F0B5FA06E0C006C30F049A039952
:100F1000300008F02EFE049008AB987B039902097C
:100F2000300015F02BFF0498012812D19948008851
:100F300000280BD0984800220068462150F090EE1F
:100F4000002803D095490120087002E0162016F011
:100F500078FDFFF760FA07000A9804F035FD0028D5
:100F600015D08F4E3068002811D020001499062229
:100F7000183050F0B2EEEB20A07100200200E071BA
:100F800088483468290000680523A04702E028004B
:100F9000FFF79FFC380022E0FFE7387EC0090DD044
:100FA000169A21002800FFF70FFE00281CD1002010
:100FB000A070E0702800FFF78CFC12E00A9B169AE4
:100FC00021002800FFF7FEFD00280DD1A070E07081
:100FD000FFF721FA04002800FFF77BFC2000FFF751
:100FE0001FFA002017B0F0BDA888A070000A2200E8
:100FF0000B32E0701698D11C04F013FC707A0228B2
:101000007ED130001CF0DDFA112149010690401814
:1010100000780190002008AB0890987FC00708D0A6
:10102000012008900198C0077CD00198800779D4EE
:1010300020E014981DF067F9002807900EB874F0AE
:1010400001000000F00F000000040000AE802BA79C
:1010500072D0707A02286FD10798407BC0066BD59A
:101060000799F07AC97A88427DD109980A2863D312
:1010700001984007019802D4C0075DD004E0C00782
:101080009FD0019840079CD44C48002201884C48CE
:10109000032318F042FC002800904AD00099A88849
:1010A000888000F0D8FC00990004000C0881009AA8
:1010B00008211173009940180F21019050F012EE91
:1010C00001981021017100214171E079A27901029A
:1010D000019811438171090AC1710698406A01287B
:1010E00008D10798002805D0707B000702D5019829
:1010F000A17A01736079217900060014084301196F
:101100000198AA88103050F0F2ED009930694861DA
:10111000F17A00E010E0019841700199B07A08700E
:101120000199A8888870000AC8700098042100F00E
:101130007FFC08980028A3D016F0F8FB002802D006
:10114000052016F088FCFFF770F90290194B1A4839
:1011500029001D68002200680523A8470298FFF7B0
:1011600069F9A07A00E00BE015F01AFD00282ED0F6
:101170000398012826D1002130000AF0D0F926E09A
:1011800001980007D8D509980A28D5D319E7000097
:10119000383C00048E390500A03905009C39050053
:1011A000F43905008D390500405D05002037050044
:1011B00089390500E838050024370500723A050032
:1011C000F40400040398002801D1F9490870059837
:1011D0000078C00714D107F0E8FB0028387E07D05C
:1011E000C006C30F049A0399300008F04BF906E0DB
:1011F000C006C30F049A0399300008F0C4FC0490A1
:1012000008AB987B03990209300015F0C1FD0498E2
:10121000012812D1E748008800280BD0E6480022B8
:101220000068462150F026ED002803D0E349012054
:10123000087002E0162016F00EFC0120DCE6FFB577
:101240009DB0060008003768002115911F997C6940
:10125000002910D040301C9050F050ED209905002E
:101260004118C0782031400602D4B88821B0F0BDC2
:101270002888682801D80020F8E717AA169100925C
:101280001F99169818AA15AB04F066FB280004F005
:101290009DFB002851D0CA48002104AA01AB07C316
:1012A00010ABC84A00921D7F1A7D38002B0018A988
:1012B00007F04FF905002CD12000FF306130017B91
:1012C000090623D5002C0CD00521C9016118496AF3
:1012D000002906D010AB1A7F920068328B585B1C35
:1012E0008B50017B4906490E01731C9850F006EDA6
:1012F00010AB1D7F1F992A01521B52180E3200920B
:1013000001001B7D2A002000FFF727FC0020306031
:10131000B1E7356028891C99401950F036E90088FA
:10132000A8802000FF30613010AB1B7F0126320007
:10133000017B9A40914301731DE010AB197D009130
:1013400001952A8816991698643A091D18AB04F07D
:101350006FFD06001CD0200010AB1A7FFF306130FB
:101360000123017B93409943017328880838288022
:10137000B8880838B880002C08D00520C001201893
:10138000406A002802D0416E491C416630006DE77A
:10139000002C14D00520C0012018416A00290ED06D
:1013A00010AB1A7F920068328B585B1C8B50416ADD
:1013B0000A69521C0A61406AC168491CC1601C98D4
:1013C00050F09CEC010010AB187F1F9A03011B1A10
:1013D0009A180E320092020010AB1B7D2000FFF71E
:1013E000BCFBD3E700280CD00521C9014118486A8D
:1013F000002806D00269521C0261486AC16C491C6F
:10140000C1647047FFB583B004001E000C9F0E9DA1
:101410001EF01CF9002820D0607A02281DD0082E6A
:101420001BD3082F01D3012060E4380006F0A5FD8E
:1014300003008000B3250019AD00119A10994019DE
:101440006D4607C55800B72100198900A7265FA778
:1014500001000000EC1300000004000011450E1410
:1014600043180D9A0599049804F028F948E40FA848
:1014700007C86C462B0007C4F3E7F7B592B0140019
:101480000F00129800680D9000200A900D98456991
:1014900008004030119050F03CEC060024300990D8
:1014A00028001DF0FCFB21002C311091091D203774
:1014B00000280F9122D0109807AA08A903AB07C3F0
:1014C0006B46E0790F9A0107387E090F4007400FFD
:1014D00007C30021B078099A03092800FFF79CFF91
:1014E00000280BD0002D08D00520C0012818406A24
:1014F0000028F8D0016D491C01659BE03088682800
:10150000FBD922004C3268380304111F081F0692D1
:10151000021F0591049003920C3938381C3A02914D
:1015200001900092387E1B0C47077F0F1A00099923
:1015300030003B0004F0C4FB0700300004F050FA18
:1015400000284FD00AA9009100200BAA01920A900E
:101550000D9B099A3100380004F063F8002869D027
:101560001E4A00921E4A1B4B0D98310006F029FFBF
:10157000002802D1129908605CE012990600086008
:1015800001890818119950F00AE80E900A9800286D
:101590005BD00BAA009209990E982300320004F048
:1015A0006FF8070051D1002D08D00520C001281880
:1015B000406A002802D00168491C01600E988079B9
:1015C00033E000008D390500405D0500203705003F
:1015D0008939050064DD0500A84201C09C4201C0B4
:1015E000A44201C0002F28D03807800F0FD0002D53
:1015F00020D00520C0012918486A00281AD0C26CE2
:10160000521CC264486A0169491C016112E0B807B2
:1016100010D5002D08D00520C0012818406A0028E8
:1016200002D00168491C0160B079C107C90F2800C8
:101630001AF060FF002015B0F0BD308814383080FB
:101640000D980D99808814388880079C6B461A8CF9
:1016500010990F98230004F02EF8002F0AD1002DC6
:1016600008D00520C0012818406A002802D0416E29
:10167000491C41660120DEE7F7B582B01400002561
:101680000298076803980197403050F042EB06003B
:10169000C0787F69400605D42037B87E400732D431
:1016A000012530E0002C02D1002005B0F0BDA07A69
:1016B000C00721D0E0790007000F012805D1039968
:1016C000220001A8FFF7D9FE05E0039922000423B8
:1016D00001A8FFF7BEFD0299050001980860B079E6
:1016E000C00710D1002D0ED0A07980070BD52100A6
:1016F000380000F02FFF06E00520C0013818406ACE
:101700008168491C81602800CFE7F0B597B00027B9
:10171000029756E10020049002F025F90C9800078A
:10172000C00FC000039005980189081806A90AF0A7
:10173000EEFE1698002805D1059800218180FFF75C
:10174000DCF83EE116980C301CF0F1FD040005D1E8
:101750001699012012311CF00DFE0400169920008C
:101760000FF037F80028E7D1002CE5D005994C613F
:10177000607A02280CD120001BF062FD0C30029030
:10178000607B169AC0060599C00F03F0D9FF1CE0D4
:10179000207A012808D12300169A9C3303F0DAFF3F
:1017A00020001DF01BFA10E0042808D11698C0781C
:1017B000820701D5C00708D10020888005E02300FA
:1017C000169A9C33012003F0E8FF05980189091857
:1017D000CA78D20701D18D1D01E00D001235052216
:1017E000D201A618726A002A02D0136B5B1C136325
:1017F0002A78D20705D0726A002A02D0536B5B1C8C
:1018000053638288002A4FD0039A002A26D12A786F
:10181000D2071AD123000A22FF336B3300921699A4
:101820009A1E03F0EFFF05988088002816D120004B
:1018300006A9FFF7F3F90598FFF75FF8706A00282B
:1018400002D0016A491C0162BBE02F221201A218DA
:1018500003F0C7FF059880880028D4D016249EDBAB
:1018600001000000E817000000040000429FDD783E
:10187000607A022827D1200006A912F045FC1699AB
:101880000298C978007DC906C90F884202D020009D
:1018900012F004F920000FF0BBF8200010F0F6F968
:1018A000012803D11699200011F041FD0298403023
:1018B000007C032803D00599002088806DE00598FE
:1018C0008088002869D02878C0070AD102F052F831
:1018D000002806D1059808AB8188DA7C06A808F0B4
:1018E00059FA169803F078FF002812D00598534A49
:1018F0008188544B4039818000920189504A0918EF
:1019000006F069FD002866D0059001890818169038
:1019100043E016988079C00701D0F06800E0306994
:10192000002801D007000837002F49D0F9790807AF
:10193000000F022801D0032810D1FF3461346289DE
:1019400016990120002A00D0002004F040F80598E4
:101950002B003A0006A91EF0E9FA17E0012801D091
:10196000080729D100201EF017F90028FAD13A0003
:1019700006A905A8FFF78AFE002804D105980028CB
:1019800029D0002181800498002806D0F87900072A
:10199000000F022808D0032806D00598FEF7DAFFCA
:1019A000059806A9FFF7B7F908F023FC002812D024
:1019B000012008F072FC17E02348FEF794FCFEE7D4
:1019C000706A8168491C81601698BF21C078084000
:1019D0001699C8706FE70121002006AA0AF040FF9F
:1019E0000028059000D09FE618498020C043086178
:1019F0000CF04EFC002802D0042008F04EFC1449E4
:101A00000020C86008612DE40200124B0120010093
:101A10009A4200D0002103231B029A4200D00020EA
:101A200008437047010049690020002904D0097A61
:101A30000120042900D00020704700009C4201C012
:101A4000A44201C064DD05000200010000A5008081
:101A5000681C0004888E0000022110B5017301008B
:101A60000D481C220068042350F014E910BD4069A1
:101A70000069704710B540691CF037FE10BDB020FA
:101A80007047010005A010B550F050E910BD10B529
:101A9000406920F05AFA10BD243705007364696F5D
:101AA00000000000F3B5002406002500002881B0E6
:101AB00014D0707A022811D002E0012003F020F83F
:101AC00028006D1C022807D20022FE48110050F0A9
:101AD0001AE90400F1D00AE0002C08D10022FA48EB
:101AE0001100032317F02DFF040000D1FEBD666135
:101AF000FFF7C5FF0004000C2081082705190F21FE
:101B00002800277350F002E930001DF0F3FC287321
:101B10000F20287100206871380AAF71E871B07A1F
:101B20002870F07A687002980F3505602000FEBDBD
:101B300010B504000321323050F0E8E820001C21E9
:101B4000353050F0E4E82034A07D01210843A07531
:101B500010BD70B50400FFF7EBFF2000FF30FF223F
:101B60000421953050F0E6E82000FF215430413147
:101B7000050050F0E4E8FF344134012100206161A8
:101B8000A0612074280006F093F870BD0B21890134
:101B900070B54418A16B002926D1007A002803D023
:101BA000032801D004281FD1FEF753FC0500C748C5
:101BB0000021FF2299324A438258002A0AD1FF238A
:101BC0009933594301220E1842503000FFF7C1FFEC
:101BD000A66302E0491C0429EBDB2800FEF73EFC6B
:101BE000A06B002800D1FEE770BD0B2189014018D1
:101BF000816B002902D000220A608263704710B511
:101C00000289123112189170090AD1700F21FFF761
:101C100023FF10BD0A000B218901411810B5896B03
:101C2000263150F090E810BDF0B58FB00600149D3D
:101C3000159C1700092916D1382101A850F07EE81B
:101C400004206B469880A248D88002A8062239005A
:101C5000801C1D8150F05EE804A82A002100801C31
:101C600050F058E805E023000022290017ADA87EB7
:101C700001000000E41B000000040000B6F0A8CC46
:101C800001A805F036FD300001A91EF0C3FD0FB01C
:101C9000F0BDFEB50C3A0D0014060700240E10210D
:101CA000102C00D821000B2080013E18B06B0A00D8
:101CB000FF3029006D30083150F036E8B26B0094E7
:101CC000FF326D3201922B78AA1C09213800FFF7F0
:101CD000B5FFFEBD10B5040008004979C90615D549
:101CE000010060318A784B78110219430922633070
:101CF00005F0CDFD002809D00B21890161188B6BFF
:101D00004278811DA4332000FFF7C3FF012010BDDE
:101D1000F8B50D00060005F0BCFF040025D0290031
:101D20002A00AC3150322000009105F0E3FD012083
:101D30006867E81DF9300700806803F098F8002113
:101D4000B9602079022812D1200060308178407873
:101D5000090201432000009A633005F0B7FD706965
:101D60002100FFF7B7FF002811D10020F8BD2000A7
:101D70006030817840780A02024321000098633184
:101D80004FF0D2EFA0798006800FC0356882200026
:101D9000F8BDF3B581B00C00019805F07AFF05009D
:101DA0001ED00121F82001530026F4200651687945
:101DB000C00622D5E01DF9300700806803F057F80F
:101DC00022002100AC3150320C002800BE6005F02A
:101DD00091FD019829004069FFF77CFF002801D19F
:101DE0000020FEBD28006030817840780902014360
:101DF00028002200633005F069FD2800FEBD0B219C
:101E00008901401810B5806B543005F0F7FF10BD04
:101E10007CB50C001500069900910B21079A8901E9
:101E200040180192806B2A003530210005F0B0FA8D
:101E30007CBDFFB585B00E001D00018944690818FE
:101E40000390200004A9FFF737FE070002D101200C
:101E500009B0F0BD0B20800100962618B26B0399E3
:101E6000130004982C33263205F0ACFD0498817CD5
:101E7000012910D0002200920192B26B01001300E0
:101E80002C33263271312000FFF7C2FF04996031F4
:101E9000C873000A0874079904982B00012205F002
:101EA000BAFC01003800FFF7B4FE0020D0E70B2297
:101EB0009201801810B5806B353005F09EFB10BD87
:101EC00010B504008EB0684605F013FC200069468A
:101ED0001EF0A0FC0EB010BDC0050004F404000408
:101EE000CC5305000404000070B505000B208001F0
:101EF0002C18A06B28220100FF312931D8304FF077
:101F000030EF01212800FFF7D2FFA36B0100D83387
:101F100001222800FFF7D4FF70BD10B544692000EE
:101F2000FFF7E2FF0B2080012018816B0122C031F6
:101F30000A61806BC0304069002803D0817AFD229D
:101F4000114081720020C6E770B500214569280064
:101F5000FFF7ADFF0B2189016C18A36B0100FF3364
:101F60005B1C00222800FFF7ABFFA06B0121C030F3
:101F70008160A06BC030C268002A03D1C160280014
:101F80004FF0F2EE002070BDF7B584B005000E00F2
:101F90004769008903A9401902903800FFF78CFDBA
:101FA000040002D1012007B0F0BD0B200022800107
:101FB00038180092826B0299130003982C33263252
:101FC00005F000FD3100039801224031002305F0A7
:101FD00022FC0700706F00280BD0607B01210843B2
:101FE00060730698002801D0FB4800E0FB48A06120
:101FF00009E00698002803D0280000F02FFB02E03B
:102000002800FFF78AFF39002000FFF702FE0020BA
:10201000C9E7FEB50E00018945690F18280001A91E
:10202000FFF74AFD040001D10120FEBD0B20002274
:10203000800128180092826B019813002C332632FD
:10204000390005F0BFFC3100019801224031002326
:1020500005F0E1FB617B012211436173E049A1615D
:1020600001002000FFF7D5FD0020FEBDF7B586B0CA
:102070000B2189010698002640694518F00E73412E
:1020800001000000E01F000000040000E52A7BA022
:10209000AC6B06985434210005F005FE070016D0FD
:1020A000A86B3A3005F036F9002829D0A86B3A30F1
:1020B00005F044F90028A86B04D04179801D16F082
:1020C0004FFD02E0263004F016FE060001D100208C
:1020D000C8E6A86B3A3005F00BFD02002100200095
:1020E000D431503002AB07C322004032B4390192E0
:1020F0000091079A08992300300005F07CFD012625
:10210000220021000698403220310023FFF79BFE79
:10211000002801D0002608E0012E06D1390009313F
:10212000200005F0C0FA0020A06730009AE670B5E4
:10213000050040690B2189014018866B2800543640
:102140003100FFF730FE040001D1002070BD20797E
:102150000122022800D0002231002800FFF71EFFD4
:10216000002801D0200070BD21000931300005F0A9
:102170009AFAEAE770B5050040690B218901401819
:10218000866B280054363100FFF7CCFD04000AD0DE
:1021900031002800FFF747FF002804D12100093152
:1021A000300005F080FA002070BDF8B505000E0083
:1021B00000891700401981790024090716D5407954
:1021C000C00709D02800FFF7B2FFF8BD012002F0D8
:1021D000ABFC641C2406240E3A0031002800FFF7F3
:1021E0004FFF0028F1D1072CF0D3F8BD2800FFF7EE
:1021F000C1FFF8BDFEB50C000600086F1700401CBB
:1022000006D1E06E401C03D1200005F065FDFEBD47
:10221000FEF733F9050002E00021FEF75AF8764890
:102220004FF0B0ED0028F7D12800FEF72BF9300071
:1022300001A9FFF74BFC0500E9D00B2080013618FF
:102240000094B26B019813002C332632390005F04C
:102250000DFCB06B3A3005F04BFC0200B06B203047
:10226000417E807D0907CB0F8006C10F019805F0E4
:1022700006FDE06E401C0128E06602D1206F401C84
:1022800020672100019801224031002305F0CDFA9A
:1022900001002800FFF7C7FCFEBDF3B581B00600C2
:1022A0000B2080013518A86B0400FF305530070063
:1022B00000685434002820D0FC20005D00901AF003
:1022C000EDFD029A21003000FFF794FF00980028EE
:1022D00014D0012811D1A86B484A2030017D082371
:1022E000491C01750098210005F06AFD444A4549E2
:1022F000200008237E6105F04FFDFEBD3F4A009897
:102300002100082305F05CFDA86B2030C17C491C2E
:10231000C174FEBD70B50E0011000B22920184182D
:10232000A56BFF22543515325051A06B06222C307C
:102330004FF004EDA06B0622263031004FF0FEEC8A
:10234000314A32492800082305F00AFD70BD0B21EF
:1023500089014018806B002803D02030407DC007E1
:10236000C00F7047FFB581B0050016000A9FFFF748
:10237000EEFF002812D02800FFF74BFD0B20800154
:102380002C18A06B0299801D32004FF0D8ECA06B86
:102390003A00467104992800FFF7BCFF05B0F0BD74
:1023A0000B2189014018806BFF30413080690006A5
:1023B000000E70470B218901401808B5806BC08E54
:1023C000009008BD020010B5FFF7C1FF00280BD038
:1023D0000B2080011018816B20314A7D5208520079
:1023E0004A75806BFFF7B8FB7FE50000C125000050
:1023F0007F1E0000AD1E0000283D0004357C00005B
:10240000409C0000617C000080969800897C000060
:102410000B2189014018806B01222030417D11433E
:102420004175704770B5060086B014000D000AA80B
:1024300007C8002901D1059105A9009301AB07C385
:102440000B2080013018806B23000100FF31953193
:1024500035302A0004F05DFE06B070BDF0B5060010
:102460000B2080013418A06B0F0041791500801DEE
:102470008FB016F075FB002810D001002B003A0039
:1024800001A805F08CF8300001A91EF05F8B85A330
:1024900001000000DC23000000040000CDBBFE1D95
:1024A000CDF93000FFF7BFFCA06B0121C030C16047
:1024B0000FB0F0BD70B505000B2080012C18A06B8B
:1024C0002030417DC90712D0817DC9060FD5007E1D
:1024D00000220007C10F2800FFF7CAFFA06B0122EE
:1024E0002030007E0007C10F2800FFF7C1FF70BD3C
:1024F0000FB50B2189014018816B6B46FF319A881B
:1025000081318A82816B1A7AFF3181318A75806BC1
:10251000197BFF308130C1750FBD30B50B24A4018C
:102520000019846BFF348134257D0D70647D4C70FF
:10253000816BFF318131897D1170806BFF3081307B
:10254000C07D187030BD30B50B24A4010019846B18
:102550002034A57D0D70E47D4C70816B2031097EA7
:102560001170806B2030407E187030BD0B218901C6
:1025700010B54418A06B00280BD0FF304130C06963
:10258000002806D002F087FCA06B0021FF3041300C
:10259000C161B4E4EAE70B2189014018806BFF3088
:1025A0006D30704703000A0000B5FFF7DAFEFD2129
:1025B000002814D00B2080011818836BC0335A6197
:1025C000806B0300C033002A08D02030407DC00754
:1025D00001D0186909E0907A0840907200BD002A85
:1025E000FCD0187B4307F6D5C0070028F3D100BD07
:1025F00070B50C000B21890115004018826B290071
:10260000FF32521C200005F075F904222900200039
:1026100005F051F9002800D0801D70BD70B505008F
:1026200088B01DA00068079000200E006B46059042
:10263000049003900690197C082001430491197BB3
:1026400007AC01430391187D202108431875039BB3
:10265000049A05992800FFF74BFF002206A9009471
:10266000029201910599280004AA03ABFFF7E4FE4A
:10267000002231002800130000920192FFF7DCFBDA
:1026800008B070BD10B50400FFF75BFC2000FFF739
:102690006FFC002033E40000000FAC0270B5002591
:1026A000038944691B185E78002E11D0032E1AD1BD
:1026B000237A042B02D117F0E4F807E0637A022BA7
:1026C00002D11FF009FD01E0FFF779FD01250AE0C5
:1026D000607A032801D0012805D11879012802D198
:1026E00008000FF005FA280070BD10B516F064FA66
:1026F000002010BD10B5C18802290AD0032908D0D6
:10270000052906D10169C18000210161FEF71DF98B
:1027100001E04FF0EAEA00221421FF4880694FF0FF
:10272000DCEA10BDF8B50124FC484FF036EB05009B
:1027300079D0288940190678407800020643B00A0B
:102740000090F748B7050078BF0D02280AD100981D
:10275000032801D1032F05D000220C21300020F0E6
:1027600004FF41E1012020F0B9FD0098052873D055
:1027700006DC012809D003283AD004286DD035E0C2
:1027800006286BD03F286AD030E03B00353B4FF045
:1027900008EB08050A0F14191E23282D2900300004
:1027A00021F0DCFE1BE12900300021F024FF16E1BE
:1027B0002900300021F020FF11E12900300022F033
:1027C000BEFA0CE12900300022F029FB07E12900C4
:1027D000300022F030FB02E12900300022F0B6FB8D
:1027E000FDE02900300022F0E0FBF8E00024F8E0F2
:1027F0003B00622F2BD017DC362B0FD008DC012BCF
:1028000020D0032B1AD0152B08D0162BEED11EE0AA
:10281000372B1CD05F2B2CD0612BE7D12900300047
:1028200021F0FFFADBE0EEE0633B4FF0BAEA090B80
:102830001E19272B0635303A0600D7E7300021F065
:102840003FFACCE02900300021F0CAFAC7E02900A5
:10285000300021F023FBC2E04AE027E075E08DE084
:102860002900300021F0F1FBB9E0300021F0CFFB6E
:10287000B5E02900300022F0F7F8B0E0300021F098
:10288000F5FCACE02900300021F002FDA7E02900B2
:10289000300022F028F9A2E029003000886FDCA681
:1028A00001000000D8270000000400009E612D7187
:1028B00022F055F99DE02900300021F0CEFE98E08D
:1028C000052F1BD008DC012F0ED0022F98D1290034
:1028D000300021F079FB8CE0092F0AD00A2F8FD12C
:1028E000300021F0F4FC84E02900300021F03FFBAF
:1028F0007FE02900300021F053FB7AE0300021F026
:1029000003FD76E03B004FF056EA0C07080D120776
:10291000170707071C20250772E72900300022F05F
:102920004EF966E02900300022F081F961E02900CB
:10293000300022F0B0F95CE02900300022F0D3F939
:1029400057E0300021F0F8F953E02900300021F081
:1029500022FA4EE02900300021F0A6FE49E03B00BB
:102960004FF028EA0A0606060706060606110C06B8
:1029700046E72900300021F042FD3AE0290030000E
:1029800021F050FD35E02900300021F079FD30E0E4
:102990005A2F20D00ADC222F27D0232F16D0592FD0
:1029A000BAD12900300021F029FC22E05B2F08D0A9
:1029B000612F15D0622FAFD12900300021F002FD28
:1029C00017E02900300021F0A6FB12E029003000BA
:1029D00021F0D2FB0DE02900300021F033FC08E0AB
:1029E0002900300021F0D1FC03E02900300021F063
:1029F000AAFC002C02D1300020F0B2FD28004FF0DC
:102A00007EE94A480022006914214FF070E94848E5
:102A10004FF0D4E9002800D090E60120F8BD10B5B1
:102A2000434814304FF0C2E9040001D1012010BD29
:102A3000208900194178027808021043082831D013
:102A400007DC03004FF0B6E908401A1A1E22262AB6
:102A50002A400D282AD009DC0A282BD00B282DD09B
:102A60000C2831D1210022F00AFB2DE00E2829D0BC
:102A7000802829D1210021F053FF25E0210021F0F9
:102A8000D1FE21E0210021F0DFFE1DE0210021F038
:102A9000EDFE19E0210021F0FBFE15E0210021F000
:102AA00009FF11E0210021F017FF0DE0210021F0C6
:102AB00081FF09E0210021F0BCFF05E0210022F0A8
:102AC000D0FA01E021F03BFF20004FF018E9A7E722
:102AD000164810B50069002214214FF008E910BD16
:102AE0001548704770B50124144D114828304FF037
:102AF0005EE9002806D0417B21434173856122F0C5
:102B000006FBF2E7012070BDFEB50025ED43074C42
:102B10000B4E31273F030095E06808220F2101ABDF
:102B200002F076F80198C00716D00BE0D036050009
:102B3000EC910500388C0500F9290000092A0000F5
:102B4000101003003000FDF7F6FB00210800FFF72E
:102B5000F3FD3800FDF7EFFB019880070AD57348B5
:102B6000FDF7E9FB00210800FFF7BCFF1920400337
:102B7000FDF7E1FB019840070AD56D48FDF7DBFB47
:102B800000210800FFF74BFF0D208003FDF7D3FB6A
:102B900001980007BFD56748FDF7CDFB002108006D
:102BA00023F066F90720C003FDF7C5FBB3E73EB588
:102BB000624C6148E06020000C3002F01AF85E4878
:102BC0005F499438A06000225EA06B4607C30122D3
:102BD000594920009202203108300C2301F096FF61
:102BE000002801D001203EBD594901204875002030
:102BF0003EBD10B557484FF0DAE8002802D04FF03C
:102C00007EE8F7E7534814304FF0D0E8002802D0B0
:102C10004FF074E8F6E74F4828304FF0C8E8002836
:102C200002D04FF06CE8F6E720F0D1FF002010BD95
:102C30004749152010B508560024002803D1FFF796
:102C4000B6FF040001E0401C48750020FFF7D1FFEB
:102C5000200010BD3E4915200856002801D0401E16
:102C6000487500207047FEB50C0016001D00FDF7EA
:102C700018FC0090A680314E012D2DD1364800223F
:102C8000C82120F04DFB0028019013D02189038931
:102C900009198A781818D51CC822D21A17043F0CB3
:102CA0002A00BD4200D33A004FF05CE8F20D4FDC41
:102CB00001000000D42B0000000400006A0E58C57B
:102CC000BD4200D33D00A58020004FF022E83069CE
:102CD000002214214FF014E8019800282BD022483C
:102CE00001994FF07AE80722012108E00B2D08D165
:102CF0001D48210014304FF070E807220421F068CD
:102D000017E0022D17D13068002809D0607B01211F
:102D1000084360731648A06120004EF0FAEF0AE005
:102D20001148210028304FF058E812480722006867
:102D3000012101F073FF0098FDF7C2FB0020FEBDEA
:102D4000202003004040030080800300CC8D05005C
:102D5000D0360500312A0000416D70686369546106
:102D6000736B0000388C0500EC910500EC36050013
:102D7000092A00007C01000410B50400302023F073
:102D800038FB01F02CFCE00602D51AF01DF910BD4D
:102D90001AF0BCF810BD10B501F0FAFA002804D002
:102DA000012000F0A7FC00F0C3FC0020FFF7E4FFC7
:102DB00010BD7047022910B505D0032903D004299E
:102DC00001D0052903D1C04BFF21491C9960042A79
:102DD00005D0052A03D0062A01D0072A07D10028EA
:102DE00005D100210A2208000B0040F037FA10BD7F
:102DF0007047042803D2B5498000085C7047FF2063
:102E0000704710B50C000020FFF7F3FFA04201D17E
:102E100000F092FA0120FFF7ECFFA04201D100F090
:102E200092FC0220FFF7E5FFA04201D1FFF7B3FFBC
:102E30000320FFF7DEFFA04201D123F039FD10BDD2
:102E400010B50C000020FFF7D4FFA04201D100F024
:102E50008EFA0120FFF7CDFFA04201D100F078FCEF
:102E60000220FFF7C6FFA04201D1FFF7A2FF032017
:102E7000FFF7BFFFA04201D123F025FD10BD0429BB
:102E800010B507D004DC022904D0032906D101E0E3
:102E9000052903D100F011FA002800D0012010BD4F
:102EA000022910B505D0032903D0042901D0052932
:102EB00001D100F0B1F910BD022910B505D00329E8
:102EC00003D0042901D0052901D100F05CF910BD1F
:102ED000FF280BD07D4A00218B00D35C834202D1B6
:102EE0000806000E7047491C0429F5D3FF207047DF
:102EF000FF280CD0754A00218B009B185B78834219
:102F000002D18800105C7047491C0429F4D3FF20CB
:102F10007047042804D26D498000401840787047FB
:102F2000FF207047FF280CD0684A00218B00D35C3B
:102F3000834203D18800801840787047491C0429D7
:102F4000F4D3FF207047FF280CD0604A00218B008B
:102F5000D35C834203D18800801880787047491C75
:102F60000429F4D3FF207047F7B582B007000E00A4
:102F70000C2901D2092F02D3002005B0F0BD002595
:102F80005249A8000A5CBA421ED14418A278B24243
:102F90001AD02806000E3900019023F0A1FB00286A
:102FA00012D0A670E07804994007400FC90008438A
:102FB000E07001983200390023F094FB002808D01B
:102FC000E07802210843E0706D1C042DD8D3012065
:102FD000D3E73E48AA00FF2110188170E07840072F
:102FE000400FE070C8E7F0B506000800374F002238
:102FF00004219300FC5CB44209D1DD19EC78230074
:103000000B43002802D02300FB242340EB70521C0A
:10301000042AEED3F0BD2D4A00218B00D35C8342FD
:1030200006D188008018C0784007C017401C704740
:10303000491C0429F1D30020704770B505000C002D
:10304000100001F004FA20004EF08AEE2800FFF78D
:103050004FFF022805D0032803D0042801D00528FB
:1030600003D1200000F098F870BD200023F06EFA24
:1030700070BD10B50400C00005D501221203110473
:103080000C20FFF7DAFF200105D50122D20211043E
:103090000B20FFF7D2FF600105D501229202110437
:1030A0000A20FFF7CAFF10BD0120C00310B501F0D0
:1030B000CEF90120C0074EF054EE054908B36C610B
:1030C00001000000D02F00000004000039D48BA9BB
:1030D00008698A0D9043086110BD00000028008037
:1030E0003003000480200080F3B581B00198FFF721
:1030F000F9FE04000198FFF71FFF05000198FFF794
:103100002CFF012706003F05022C02D1042D24D1FB
:103110000BE0002C03D0012C01D0032C1DD12B1F60
:103120004EF05CEE0403080E141B102001F099F918
:10313000380010E0202001F094F9012040050AE059
:10314000402001F08EF90120800504E0802001F08C
:1031500088F90120C0054EF04EEE0298002816D1E5
:103160000198FFF762FF002811D0331F4EF036EEB2
:10317000060F0F0F0F07040F0021102005E06F4905
:10318000A0004018C0780021C00826F0BFFFFF2231
:1031900001991000FFF73FFEFEBD0800002110B5A9
:1031A000FFF7A2FF66490020887410BD10B5040027
:1031B000C00203D501210220FFF796FFA00203D52C
:1031C00001210320FFF790FF600203D501210420B5
:1031D000FFF78AFF200203D501210520FFF784FFB6
:1031E00001200007844205D04010844202D04010E4
:1031F00084421AD1FF208206A11808D0891804D071
:10320000C206891804D10C2002E00B2000E00A203D
:10321000FFF778FE022805D0032803D0042801D048
:10322000052802D10121FFF75FFF10BDF8B50400AA
:103230000E0017000800FFF790FE0500002C03D0D9
:10324000012C01D0032C2AD13B1F4EF0C8ED040302
:103250000C151E28102001F0FEF8102001F007F9CF
:103260000120000519E0202001F0F5F8202001F0F0
:10327000FEF80120400510E0402001F0ECF840206D
:1032800001F0F5F80120800507E0802001F0E3F867
:10329000802001F0ECF80120C0054EF0B0ED2B1FAE
:1032A0004EF09CED060F0F0F0F07040F01211020A9
:1032B00005E02249A0004018C0780121C00826F08E
:1032C00025FFFF2231001000FFF7C4FDF8BD70B5E7
:1032D00004000020022C2ED0002C01D0012C13D190
:1032E000184D0022286846214EF014ED002820D108
:1032F0002868002208214EF00EED002819D14EF06A
:1033000082ED002815D00120032C13D10E4C002291
:10331000206846214EF0FEEC00280AD120680022E9
:1033200008214EF0F8EC002803D11FF0FFFF002821
:1033300001D1002070BD012070BD000030030004E9
:1033400080000080B03A0500E0360500022010B58C
:1033500023F059F801F026F8002804D0012000F0ED
:10336000D3F900F0EFF926F000FA01E026F0E8FAD0
:103370000028FBD00021082208000B003FF078FF56
:1033800010BD022010B522F0F8FF10BD70B500206E
:10339000FFF739FD04000020FFF7C5FD05000120FF
:1033A00023F031F88E4948680222104348608D4965
:1033B0001005886001F083F808204EF0DCEC2A004C
:1033C00021000020FFF700FD70BD70B5FDF77DF80E
:1033D000050085480068C00710D00020FFF7D6FF21
:1033E0007D20C00025F0AAFB00204EF010ED040067
:1033F00002E000204EF00AEDA042FAD02800FDF7CE
:1034000069F870BD002010B5FFF7FDFC0400002036
:10341000FFF789FD020021000020FFF757FD10BDD6
:1034200010B5FDF752F804006F480068800701D519
:10343000FFF7E8FF2000FDF74DF810BD002010B5A4
:10344000FFF7E1FC04000020FFF76DFD0200210002
:103450000020FFF71EFD002800D0012010BD38B568
:1034600000F0A0FF002826D1401E00905E485F4C6F
:103470000068C00711D06068401C18D0A06823F015
:103480005DF85B494EF0C6EC00906168884201D35C
:10349000002000E0081A009009E068463FF047FD70
:1034A00000280CD00098606023F044F8A0602178D8
:1034B0000098884203D3FFF7C1FF002801D1002004
:1034C00038BD012038BD484810B50068D7CAF34E52
:1034D00001000000CC330000000400008611AE1A89
:1034E000C00705D0FFF7C5FF002801D0012010BD9F
:1034F000002010BD002010B5FFF78FFC0400002055
:10350000FFF71BFD020021000020FFF7DDFC10BDCE
:1035100010B5FFF79DFF002804D000203FF05AFFB0
:10352000002801D1002010BD012010BD334810B586
:10353000006880070DD434480078022809D1FFF7CD
:10354000CCFF002805D0FFF7E3FF002801D0FFF7EC
:10355000D1FF10BD70B50020FFF75FFC0400002014
:10356000FFF7EBFC2949050009681720488308206C
:103570004EF04EEC00F0A5FF00F09BFF1E4901202D
:103580004005C8602A0021000020FFF745FC1948CB
:103590004168022291434160012022F0F8FE70BD93
:1035A00070B5164D2868C00722D1FFF762FF0028CA
:1035B0000BD1134CE06822F0CBFF1549884204D9A7
:1035C00022F0C2FFE0603FF0DCFB2868C0070FD1AB
:1035D000FFF74FFF00280BD0FCF781FF0400FFF737
:1035E00048FF002801D0FFF7B5FF2000FCF77CFF63
:1035F00070BD000040200080002800801C030004F3
:1036000034370500E2040000F744050054F90004D3
:1036100080841E00F8B5FCF762FFCD4D07002868D6
:10362000002830D125F03EFC86211F2025F0F0FB3C
:1036300025F02EFCC74E3068012109070843C91048
:103640008843306000F00DFF040000F00AFFA04244
:10365000FBD030680921490608433060BE49C8697B
:1036600008229043C861BC494031886A8022904357
:10367000886225F017FC0821202025F0D4FB25F0D6
:1036800007FC012028603800FCF72EFFF8BDF8B5D4
:10369000FCF725FFAE4D0090286801283AD125F0AF
:1036A00033FE002807D125F0FDFB0821202025F05E
:1036B000AFFB25F0EDFBA8494031886A802210431A
:1036C0008862A548C1690826B143C161A14F386825
:1036D00051050843C9108843386000F0C2FE040059
:1036E00000F0BFFEA042FBD00A2025F031FA9A4933
:1036F000C8693043C8613868092149068843386081
:1037000025F0D0FB04211F2025F08DFB25F0C0FB08
:10371000002028600098FCF7E7FEF8BD10B5040013
:103720000120FFF77AFB002C05D18C490968CA07F4
:1037300011D0C9060FD506280DD00120C00300F016
:1037400094FE0120C0074EF064EB834940310869C4
:103750008A0D1043086110BD012010B5FFF75DFB15
:10376000062803D000F028FE0028FBD110BD082059
:1037700010B522F052FE10BD082010B522F007FE51
:1037800010BD38B5002000900120FFF746FB040073
:103790000120FFF7D2FB0500042022F03EFEFFF7D8
:1037A00076FF00F0DAFE20204EF0EEEA00F0A9FEEF
:1037B00068464EF03EEB0121694AC906002800D058
:1037C000009891602A0021000120FFF707FB38BD17
:1037D00010B5FCF784FE040060480068400702D57D
:1037E0000020FFF7CEFF2000FCF77EFE10BD012079
:1037F00010B5FFF712FB04000120FFF79EFB02004B
:1038000021000120FFF74FFB002800D0012010BD50
:1038100008B568464EF010EB002803D0FFF7E7FF2D
:10382000002801D1002008BD012008BD4B4810B57B
:103830000068400705D5FFF7EBFF002801D0012005
:1038400010BD002010BD70B50120FFF7E6FA04009E
:103850000120FFF772FB05000020FFF7DEFAA0420F
:1038600004D02A0021000120FFF72EFB70BD3B4849
:1038700010B50068000709D4FFF7D8FF002805D06D
:10388000FFF7B5FF002801D0FFF7DDFF10BD10B531
:1038900000F049FE2F484030816A324A114081626F
:1038A000314908690322D202104308612A48016A9B
:1038B000490849000162274801682C4A114001600B
:1038C00010BD38B5002000900120FFF7A6FA0400D3
:1038D0000120FFF732FB050020204EF0860CB2C617
:1038E00001000000C837000000040000D5CB7D7641
:1038F0009AEA00F033FE1F490120C006C8606846FE
:103900004EF0A0EA002808D1FFF7CBFF4EF0A2EA64
:10391000002808D0FFF788FE05E00098002800D0B6
:10392000012000F02FF82A0021000120FFF77EFA85
:10393000042022F036FD38BD0D4810B50068400760
:103940000FD4FFF76FFF00280BD0FCF7D2FD040067
:10395000FFF768FF002801D0FFF7BDFF2000FCF74C
:10396000CDFD10BD4437050040210080402000807F
:103970001C03000400280080FDFF7FCC4022008053
:10398000F5FFFFBF70B500F0C6FD1A48816A1A4AFC
:1039900011400722D205114381621648C0300169E7
:1039A000164A1140016125F0B9FC154D154E00284D
:1039B00002D1286A30432862134C2078FF2809D1AD
:1039C00025F07AFA122025F022FA0421084020700E
:1039D00025F068FA2078002802D1286A304328624E
:1039E000044940390868094A1040094A80180860AB
:1039F00070BD000080210080FDFFFFCFFEC7FFFFEC
:103A0000402000800100010048370500F0FFFF9FC3
:103A10000E000040FF4840687047FF498869401C1D
:103A200088617047FC49086A496A704710B52BF0F5
:103A30005DFD002809D0FCF75CFDF64A117C0029E9
:103A400001D0491E1174FCF759FD10BD70B502205C
:103A500019F00EFD07E0200039F0F9FCE27AA17AB6
:103A6000200019F07AFD0400F5D119F001FD0028BD
:103A700001D039F0ECFC00F0B5FEE84908690222FB
:103A800090430861E34C0025A561E5482574606119
:103A90002BF045FD656170BDF3B5040083B04EF0B9
:103AA000DEE90090DB48DB4D2038007E0E00603DF3
:103AB0000027002844D1D8492A69086A496A6B69F5
:103AC000121A8B411ED2009A28696969801AD54A58
:103AD000B1418518E0697941010604D5A581E581E8
:103AE00026F01EFF06E0800605D5A581E58126F0BB
:103AF00017FF40002D1AE069012189020843E061A7
:103B0000606885800498C549800040394018006B82
:103B10003A2780020190BF48E75F4069009AFB178F
:103B2000C11780187141C01B019A99410023801A66
:103B300099416161206160880121C9030843608067
:103B400005B0F0BDF8B504000D004EF088E9B34BA8
:103B5000AA00403BD218136B6268002692781507C2
:103B6000AD0F022D0ED11709042F0BD1A94A9D02CA
:103B7000603A92690B009788310038185941401B10
:103B8000B1410FE0012D14D112090E2A11D19B026F
:103B9000020018000D00101A2B00B3416422190016
:103BA000801871416161206160880121C903084367
:103BB0006080F8BDF3B50C0083B00027C869C0046D
:103BC00003D5208D81054D0E1BE0E06A00263500EF
:103BD00001900EE00199A8004118042202A84EF0BD
:103BE000EAE86B46D87A6D1C0007000F86190E2D87
:103BF00002D26078B042EDD26B4618898005450E3E
:103C0000187AC00700D00127E06929000204039850
:103C1000120C2FF031F80600012F02D10E352D06BF
:103C20002D0E606801230288E0690104090C280058
:103C30004EF018E97C498019096B081860877FE706
:103C4000F8B5022019F014FC0500FF217748002286
:103C50002D314EF0A8E8060079D00221B020317352
:103C600034183081A078F32280088000104008309A
:103C70000007000F4030A070E07840084000084383
:103C80001040CF210840BF210840E0702F200001E4
:103C9000291806220D00A01D4EF08CE820000622F7
:103CA00029000C304EF0A2E8200006222900123034
:103CB0004EF080E8002020801C20351830817421CF
:103CC00028004EF08CE8534A2F00162060372C66EF
:103CD000603A78735088A87010004030017E002947
:103CE00004D0C188A1808089A87002E00335944483
:103CF00001000000C43B00000004000021A408C231
:103D00009069C088A080A868FF21491C0843A8606A
:103D1000022019F0B7FB70614A48007E800607D484
:103D2000A878002804D0A868012189070843A86062
:103D300007203873A868052189020843A86030006D
:103D40002FF082FC3A490869022210430861364983
:103D5000012088611C314868401C48600120F8BD82
:103D6000FFE731491C314869401C48610020F6E7F3
:103D70002E4910B5CA68002482421ED10020C860B6
:103D800029488069002803D1FFF764FF04000AE096
:103D90002D4801694069814205D02C4807220068FE
:103DA000012100F063FF20492039087E002804D05B
:103DB000002C03D12B2013F0BCFE10BD0128FCD138
:103DC0000220087610BD10B5184C2169814204D13B
:103DD0002E2013F0AEFE0020206110BD38B5040087
:103DE0001149002088614EF044E8104A002C5162CD
:103DF000106204D00C481C300168491C01600A4C58
:103E0000203C207E02282AD10C49C031C8680223F8
:103E10001843C860106901F07AF808220092E2881D
:103E20000B48024B002115E0905A05005037050061
:103E3000C0A20080FFFFFF7FA60E000040A600800A
:103E400030050004845B000400A0008070030004BF
:103E50008B3C0000103301F008F80320207638BDB9
:103E6000FEB54EF006E80C000090FCF74CFBFE4D52
:103E7000FE490190287CC969084326D128002038D2
:103E8000017E07000026403F002904D080887B6D1A
:103E90003A6D31000AE02BF0E7FA002801D1686999
:103EA0000AE0B8697B6940883A6931008018009A55
:103EB0005941801AA1416861002806DD2FF0EEFD0E
:103EC000002802D0287C401C28740198FCF720FBB5
:103ED000FEBDF8B5012000F069FC4DF0CAEFE24AE2
:103EE000E24E603A51651065F06801F010F8DE4C62
:103EF000DF4F203C207E0025002858D04DF0B8EF41
:103F0000B26AF36A801ADB4A99412B00121A8B417C
:103F100001D2E56130E0E06901282DD122F047FEB1
:103F2000032817D822F02EFE002813D1E088FF3096
:103F3000F5300004000CB842E08000D9E780A0888A
:103F4000CD49FF38F5380004000C8842A0802ED2FD
:103F5000A1802CE0E088C84964380004000C884245
:103F6000E08000D2E180A088C44964300004000CE5
:103F70008842A080ECD81AE022F0DEFD002803D0B1
:103F80003068E080706811E0B069002801D0B56148
:103F900009E0BB4982008A58002A04D1401C072846
:103FA000F8D3E78001E06089E0802089A080AF4BF2
:103FB00008220092A288B34800210C3300F055FF7C
:103FC000012020767069B04F01280DD1FCF79BFAD3
:103FD00075617969302291437961AC494A6A02235B
:103FE0009A434A62FCF794FA9F49A088486138696D
:103FF000022188433861FFF733FFB0E6F8B50400CB
:10400000994E7068002836D0FCF77DFA350007001D
:10401000203D287E002C1ED0002829D128680028A9
:1040200026D07068002823D02BF01EFA00281FD15C
:1040300022F076FD002803D122F07EFD002817D063
:104040009349C868012252059043C8604DF018EFAB
:10405000FFF73FFF0CE000280AD0844C206900F0F5
:1040600056FFE06800F053FFFFF7FAFC00202876C7
:104070003800FCF74DFA72E67C498A6882420DD11D
:1040800000208860012048617F4841693022114347
:1040900041617E49486A0222104348627047F8B580
:1040A0002BF0E2F9704D714C603D00280FD0A868EC
:1040B00000280CD0A06800F02AFF082200921922E4
:1040C0002300744852010021083300F0CEFE664EF2
:1040D000203E307E002810D003280FD122F02CFD86
:1040E000002804D06A49C86802229043C860206949
:1040F00000F00DFF2E2013F01CFD30E679407FE22A
:1041000001000000C03F000000040000727EDBAE32
:104110000128FCD14DF0B6EE2A6D6B6D821A9941E3
:10412000B0880B000021801A9941604D00040014F2
:10413000A842ECDAE06800F0F4FE514B082200924D
:1041400055482A0000210C3300F099FE11E6F8B51D
:1041500021380127494D4A4EBF0203004DF066EE5B
:104160000E2D2D2D2D2D2D2D37082E7B3133A82DE5
:104170006868002821D0FCF7D0F904002BF07EF904
:10418000002817D00020FFF743FF4DF084EE45498B
:10419000C868012252051043C86041488038816ACE
:1041A000FF22920411438162380000F0F3F83800D6
:1041B00000F0E3F82000FCF7B5F9DAE500F09AF832
:1041C000D7E5012000E00020FFF722FFD1E52B4CCE
:1041D000603CE088002804D120002430A061A08841
:1041E00003E026494439401EA161E0800120A0601F
:1041F000380000F0C2F84DF046EE6161206105F034
:104200005AFCF06800F08DFE08220092A0691C4B59
:104210000288214800210C3300F031FE70691F4FE5
:1042200001280ED1FCF779F90021716179693022FA
:10423000914379611A4A536A02218B435362FCF716
:1042400071F9A06940886861386902218843386142
:10425000FFF710FE8DE5FF24F5346C61FFF70AFED1
:10426000F06800F05EFE064B082200920A48220029
:1042700000210C3300F003FE7BE50000905A05009E
:1042800050370500D859000020A10700B80B0000E6
:1042900050460000747102C0353C0000C0A200808E
:1042A000C0A8008000A700803D3F00003408000047
:1042B000FFF719FE5DE510B52A4CA06800280DD067
:1042C000E06800280AD02BF02BF9012806D16060A5
:1042D0002C2013F038FC292013F035FC10BD2A20C7
:1042E00010B513F030FC2D2013F02DFC1D490020DB
:1042F000486010BD1B4870B54068002831D0FCF7FD
:104300000CF9194C0600E06800F00BFE0025E56092
:1043100005F0E9FBA06800F004FE1448A5604169BF
:104320003022914341611248416A02229143416225
:104330000F488038816AFF22920491438162440DC4
:10434000200000F027F8200000F01FF80548603832
:104350008560FFF78FFB3000FCF7E4F80120FFF7E2
:1043600057FE70BD905A050050370500C0A200806E
:10437000C0A800800948C069704708490A6902431B
:104380000A618A6902438A617047044A116981435C
:10439000116170470149C043C861704780210080A6
:1043A00008490848403942685204FCD44A68002A47
:1043B000F9D1704710B525F053FE10BD10B525F0AA
:1043C000BBFD10BD40E80080DC48006800680004C8
:1043D000000C7047D948006841680122120511435A
:1043E00041607047D5480068416801221205914339
:1043F00041607047D1480068806BC005C00F7047AE
:10440000CE480068416801225204914341607047E0
:10441000CA48006841680122520411434160704754
:10442000C6480068816B0901090C01D00020704763
:10443000816B002904DA816B0906090FFBD100E0CA
:10444000806B01207047BD480068816B0906090F29
:10445000FBD17047B94909688A69120C12040243FA
:104460008A617047B5480068816BC907FCD0416814
:104470000122D203914341607047B04909680A6B39
:10448000086348680122D203104348607047AB4874
:104490000068406A7047A9480068C06A7047A7482A
:1044A0000068406B7047A5490968CA698243CA61C0
:1044B0007047A2490968CA690243CA6170479F49A7
:1044C00009680A6A02430A6270479C4909680A6AD5
:1044D00082430A62704799480068806B8007C00F6A
:1044E000704796480068806B0007C00F704793487C
:1044F0000068C030416837229143416070478F485F
:104500000068C03041680822914341607A21B6D7E3
:1045100001000000BC43000000040000708703B8E5
:1045200070478B480068C0304168082211434160E1
:10453000704787480068C03001680122114301605C
:10454000704783480068C03001684908490001602D
:1045500070477F480068416801229204114341601E
:104560008168121191438160FF30401C4168490805
:1045700049004160704776480068C11DF9314A68BA
:1045800001231A434A6041689A049143416081685B
:1045900012111143816070476D480068FF30401C64
:1045A0004168022291434160704769480068FF30CA
:1045B000401C416802221143416070476448006812
:1045C000FF30401C016801221143016070476048C0
:1045D0000068FF30401C01684908490001607047CD
:1045E0005B48006880304168490849004160704775
:1045F000574800688030416801221143416070478C
:1046000070B5534D28688030016801221143016064
:104610000168504C490205D50168A14301600A2098
:104620004DF026EB2868803001682143016070BDA1
:1046300047480068010080310A68520852000A6049
:10464000816BC900FCD47047414800688030006825
:10465000C007C00F70473E480068803001683D4A7F
:104660009143016070473A4800688030C0687047E5
:1046700030B5374C21680A6901252D042A430A61A7
:104680000A00803215691061506953619069F02009
:1046900090618868102210438860886820239843BE
:1046A00088602068416B426B8A42FCD0FFF7DBFFD9
:1046B0000028F6D120688168194381604168012291
:1046C00052031143416030BD2148006880300069C9
:1046D00070471F480068816820221143816070473D
:1046E0001B48006881682022914381607047184907
:1046F000096880310A681F23DB05C0069A43000958
:1047000002430A60086801221207104308607047DC
:104710000F48006880680003C00F70470C480068AD
:1047200081680122D2041143816070470848006803
:1047300081680122D2049143816070470448006877
:1047400080300168FF22521C114301607047000055
:1047500068010004000040003F488068002800D045
:104760000120704710B504F0A2F900280ED0FFF721
:10477000F3FF00280AD03948C16802229143C16082
:1047800035484068C00FC0072BF041F810BD10B588
:10479000314CA16881420ED1FFF7E4FF606840040C
:1047A000400CFFF7FCFD60684004400CFFF7FCFD87
:1047B0000020A060606010BD08B5274B5A68024316
:1047C0005A60082200920A0025480021083300F0B0
:1047D00060FB08BD70B5050000240820FFF7E4FD6C
:1047E0001E488030C06A400013D424F0C0FD002869
:1047F0000FD00820FFF7CBFD002D01D10124E407E5
:1048000020000821084314490968FFF7D5FF00205C
:1048100070BD1249C86802229043C860012070BD73
:104820000E48C16802221143C16070470B48C0683E
:10483000022108407047082010B5FFF7B0FD08209E
:10484000FFF7B2FD044CA068002804D000F073FB11
:104850000020A060606010BD8037050000A70080C8
:104860002B460000AD4908220028C86801D010433B
:1048700000E09043C8607047A94800214160FF21D3
:1048800001707047F0B503252D03A448A54CC03036
:10489000C20D9302870C0029A04E016A0AD0114371
:1048A0000162016A99430162606B2843606330686A
:1048B000384309E091430162016A19430162606B68
:1048C000A84360633068B8433060F0BD38B5050078
:1048D000002468460AF06AFD002802D1002D1AD192
:1048E0000BE0002D0BD16B465878C10713D0400662
:1048F00011D598780007000F0BE001240BE0012D83
:1049000009D16B465878810705D5C00903D098783E
:1049100000090128F1D0200038BD73B55A70B0DC11
:1049200001000000B847000000040000235DD0D45F
:104930006B4605005C79600708D57E4E70680028DC
:1049400004D17E482FF0A4FE012070602800FFF7FC
:10495000C7FF0106090E2800FFF79EFF600703D47A
:104960006B461879000900D00120FFF785FF7CBD58
:1049700033B56B460028997902D10807000F02E091
:10498000012813D108096E4A6949D44380310028AF
:104990000DD06C4B6C4D01280DD0092810D00F287C
:1049A00004D1C817C8600861C86108623CBDCA600C
:1049B0000A61CC6102E0CB600A61CD610C623CBD52
:1049C000CB6062480861CD616148EEE7F0B5002830
:1049D000047A45780679477926D001290CD10599C2
:1049E000012909D1012A06D16540D90700D06640C6
:1049F000990700D567402C0001782A0609040A436C
:104A000021020A434A492243C0314A628279C3786B
:104A100012041B021A4332438A62C279807812045C
:104A20003B021A430243CA62F0BDF0B500260500FE
:104A300087B06B46187D370034001E75002D069632
:104A40000ED145205875987D012098751872022165
:104A5000587299720421D97218735873997310E0BF
:104A600047206B465875987D9020987509201872DC
:104A70000A22587211219A72D97218735A73997353
:104A800012216B46D973187405992800FFF74FFF60
:104A900005992800FFF76CFF069823000207120F04
:104AA00000923A00310002A8FFF790FF012007B002
:104AB000F0BDF0B5002507001E482E0001782C003F
:104AC000B94285B032D0077004A80AF079FC0028FA
:104AD00004D13800FFF7A9FF05B0F0BD6B46187C84
:104AE0000007000F012805D8380001A90AF07CFC56
:104AF000002801D10020EFE704993800FFF717FFE5
:104B000004993800FFF734FF6B46587CC10601D486
:104B1000800600D501256B46187C23000207120F82
:104B200000923200290001A8FFF750FF0120D3E7CF
:104B300000A700808C3705000021008000A00080C5
:104B400011DD55DD1FDF5FDFEF2FAF2FF1FDF5FD2D
:104B5000FEF2FAF238B500240D4D01E08047641CE6
:104B6000A00028580028F9D13EF0F2FD4DF0AAE946
:104B700008480A4902680092074A0948094B4DF063
:104B8000A6E909480168002901D00020884738BDFE
:104B900060BE02C04C37050050440004000500040C
:104BA000F4040004009002C094370500FEB50D0027
:104BB0001600089F0A9A0999002800D1FEE70468A8
:104BC000002C00D1FEE70292019132002900200062
:104BD000009725F06DF8FEBD10B54DF07CE900069C
:104BE000000E10BD10B54DF07AE90006000E10BDA4
:104BF000002810B501D04DF076E910BD38B514008D
:104C00006A464DF074E900982070002038BD10B558
:104C100004004DF070E92060002010BD10B54DF08B
:104C20006EE910BD7CB50D001600079A06990028A4
:104C300000D1FEE70468002C00D1FEE7019200914C
:104C400032002900200025F011F9002800D1656309
:104C50007CBD10B5416B25F020F910BD7CB50C0072
:104C60001500069A002800D1FEE70068002800D150
:104C7000FEE70021019200912A00210025F046F86C
:104C80007CBD10B525F061F810BD10B525F068F8B1
:104C900010BD002810B500D1FEE70068002800D143
:104CA000FEE725F066F810BD10B525F06CF810BDD4
:104CB00038B51400049A0092220025F089F838BD16
:104CC000002810B500D1FEE70068002800D1FEE7FB
:104CD00025F0B2F810BD10B525F0B8F8112800D1B4
:104CE000122010BD10B525F0B9F810BD70B58020A8
:104CF0004DF05CE810498D69104900264A680C683F
:104D0000954200D800E0641C4DF050E86D1C6842EC
:104D100031008019614170BD08480168491C01607B
:104D20000021C9434160704703488069EAA55BAB35
:104D300001000000B44B000000040000D732A56061
:104D400003494A68904200D84860704700300080AC
:104D500098370500EA48006AEA494968081A704726
:104D6000E7480169820C91430161E6494968C160E5
:104D700001690B221203114301617047E048016988
:104D8000820D91430161E04A4021D1600421C94371
:104D90004162704770B50400FFF7E2FFC82C00D2F3
:104DA000C824D8494868844200D30400D448042267
:104DB000D2434262D44A936840252B439360846077
:104DC000026905235B021A430261C868804720001C
:104DD00070BD01684A69026000200861C948006826
:104DE00082684A6181607047002307E082688A42D6
:104DF00002D3521A826000E0836040690028F5D136
:104E0000704770B5040000200BE04E680D690B6818
:104E10002000FFF7DEFF002B02D03100280098476A
:104E200001202168002902D08A68002AEDD070BDD7
:104E300010B5026802E0100052691430002A03D055
:104E40008B689468A342F6D84A61016010BD10B522
:104E5000AC4C20680069002803D02069401C206108
:104E600010BDFFF78BFFFFF775FF0300FFF778FF1B
:104E70002168CA689A4201D960681B1848681900FD
:104E8000FFF7B2FF2068001DFFF7BBFF20684168F5
:104E900000290FD0FFF75EFF21684A68010010006B
:104EA000FFF7A2FF206840688068FFF773FF216862
:104EB000C86010BD0021C16010BDFFB581B00024E5
:104EC0001D00FFF75BFF80204CF07AEF8D4E0090C5
:104ED000306800278168002921D00C004969816071
:104EE0000168491C016001D1012101600198206025
:104EF0000298606030680068206103986761A06074
:104F00000A982073FFF726FF31684A6801001000F5
:104F1000FFF76AFF30682100001DFFF789FF306846
:104F20004168002907D00069002804D18868FFF78C
:104F300031FF3168C860002C07D02069002804D0F8
:104F4000002D00D02860012403E0002D00D02F6048
:104F5000002400984CF034EF200005B0F0BDF8B507
:104F60000025070067482E000468241D002F20D06C
:104F700080204CF026EF030007E00169B94202D11E
:104F800001252E0001E0040014342068002801D01F
:104F9000002DF2D0002E02D02000FFF71AFF594852
:104FA00000684068002801D1FFF7E8FE18004CF0C7
:104FB00008EF3000F8BD70B580204CF002EF514C86
:104FC0000500216801200861486800280FD0FFF71C
:104FD000D5FE4CF076EF2268D1619061FFF7BAFE02
:104FE000010020684068FFF7FFFEFFF7B9FE2800C8
:104FF0004CF0E6EE70BD70B580204CF0E2EE414D15
:10500000060028680169002916D000210161406866
:10501000002811D04CF054EF2C68A269E369801A83
:10502000994101006068FFF7DFFE286840688068EA
:10503000FFF7B0FE2968C86030004CF0C2EE70BDCA
:10504000F7B582B000250E00FFF7B5FF80204CF0C9
:10505000B8EE01902B480027006844680CE0002E51
:1050600002D0207B304206D0A5684CF02AEF029A8D
:105070004019794103C26469002C01D0002DEED0A3
:1050800001984CF09EEE0498002801D1FFF7B3FF81
:10509000002D06D0FFF75EFE854201D32D1A00E0F9
:1050A0000125280059E7F8B5060000273D008020BB
:1050B0004CF086EE0090134801684C6817E0207BA6
:1050C000400711D5A068B0420ED80020002DA06086
:1050D00006D0606928600B480068416861614460DF
:1050E000FFF789FF012702E0250064691435002CD1
:1050F00001D0002FE3D000984CF062EE3800F8BDEC
:1051000000300080A03705000028008030B5002264
:10511000FA4C256807E018235343C35C002B0BD1DE
:10512000521C1206120EAA42F5D36268002008E053
:105130000301CB5C002B01D0012030BD6CDA21CB08
:1051400001000000B04F00000004000084E8760C6D
:10515000401C0006000E9042F4D3002030BD1823FE
:10516000584340180169491C01617047F7B51500A3
:105170000600E74F002417E018206043295C00294F
:105180000FD041194878B0420BD10198091D062271
:105190004CF054F9002804D11821614349190861E1
:1051A000FEBD641C2406240E38688442E4D3FEBD90
:1051B000F7B515000E00D64F002411E02001295C40
:1051C00001290AD140194178B14206D10099C01C89
:1051D00006224CF033F9002805D0641C2406240E66
:1051E00078688442EAD32000FEBD0300080010B5B1
:1051F00014001900FFF7DCFFC5494968884203D253
:10520000002100010019C16010BDF7B515000700AD
:10521000BF4E002412E018206043295C01290AD106
:1052200041194878B84206D10198091D06224CF070
:1052300005F9002805D0641C2406240E3068844239
:10524000E9D33068844202D10020C043FEBD18205B
:10525000604340190069FEBD0300080010B514004A
:105260001900FFF7A5FFAA494968884203D2000147
:105270000019C06810BD0020C04310BDF7B515006F
:105280000600A348002440681CE02101695C002955
:1052900015D1301D4CF0D2ED27017C1960700198BA
:1052A0003100A070E01C062214314CF0C0ED01204A
:1052B000E8550020E06001200003608104E0641CE8
:1052C0002406240E8442E0D3914880688047FEBDC6
:1052D0001823594310B58C188D4A6169126990479B
:1052E000002802D0E17826F008FB10BDFFB583B09E
:1052F0000F00874D0C9EE968039888470D30012107
:10530000814000242800019100683BE0182161439E
:10531000715C002933D1381D4CF090ED18216143A8
:1053200002918D19687005983900A870281D062211
:1053300014314CF07CED0299012070540698E8700D
:10534000380008304CF07AED002802D10920000224
:1053500002E0C3001818000268616969019881427F
:1053600001D9019868610020286128730120000399
:105370006881039832002100FFF7AAFF04E0641C53
:105380002406240E8442C1D361488068804707B058
:10539000F0BDFFB581B01E0000273C0016E02001E3
:1053A000315C00290FD085190298E91C06224CF0C7
:1053B00045F8002807D168780199884203D10398FD
:1053C000A97801270170641C2406240E5048406807
:1053D0008442E4D3380005B0F0BDF7B516000027CD
:1053E0003C0014E018206043315C00290CD0851982
:1053F0000198291D06224CF021F8002804D1697873
:105400000098814200D10127641C2406240E4048E4
:1054100000688442E6D33800FEBDFFB581B01E00AF
:1054200000273C0016E018206043315C00290ED0B4
:1054300085190298291D06224CF000F8002806D193
:1054400069780198814202D1039801270470641C95
:105450002406240E2E4800688442E4D33800BAE7BC
:10546000F8B50D0007002A4E00240CE01820604318
:10547000285C002804D02A0021003800FFF728FF0C
:10548000641C2406240E30688442EFD3F8BD70B546
:1054900000248300CC501E4D210008E04B009E18D4
:1054A0007678864200D1D454491C0906090E2B682F
:1054B0009942F3D370BD80000858704770B5002141
:1054C000134D0C0007E04A004B1D1618491C090635
:1054D0007370090E84542A689142F4D370BD0C4A4B
:1054E0000023DB4310B5126800210CE04C00045D82
:1054F000002C05D10122490042540818835604E0CB
:10550000491C0906090E9142F0D3180010BD000095
:10551000BC370500234B10B51B68040000209C42DB
:10552000F4D218236343D45C002CEFD09818C078D1
:1055300008700120EAE7FFB581B080200A9E4CF098
:105540004AEC00901748002420E01827DBB8F00C44
:1055500001000000AC530000000400003B2D53BFCD
:105560006743F05D002818D0BD1968780299884219
:1055700013D10199281D06224BF06AFF00280CD197
:105580001820604303998019C07808700499A8789E
:1055900008700020F055286106E0641C2406240EE3
:1055A000054800688442DAD300984CF01EEC0248AB
:1055B0008068804719E70000BC370500FF48018874
:1055C000828891421FD10189828991421BD1018A2F
:1055D000828A914217D1018B808B814213D1F74887
:1055E00020300188828891420DD1018982899142BF
:1055F00009D1018A828A914205D1018B808B814237
:1056000001D1012070470020704730B55B070C784E
:105610005B0FE408E4001C439F23039D1C400C70B7
:1056200054040AD5920408D5C269FF24641C22439D
:10563000C2610878184020300870002D03D0087827
:1056400080221043087030BD0122120302430F2054
:105650000002824308021043704710B5038D9B057A
:105660005B0E032B11D900290CD0C16920248023A3
:10567000002A09D0CA0502D42143994301E0194305
:10568000A143C161012010BDF9E7002010BDFFB5A5
:1056900081B00E001F0001890A9D0C1824212000F2
:1056A0004CF0CAEBA421002F02D00120000300E03F
:1056B000002008436080032080030543280A2571E9
:1056C00060712000062231000C304CF0BAEB0399D7
:1056D0000622A01D4CF0B4EB200005B0F0BD70B563
:1056E000040016001D000622801D4CF0AAEB2000CD
:1056F000062231000C304CF0A4EB200006222900D9
:1057000012304CF09EEB70BDFFB581B004000E006E
:1057100017000B9D20214CF090EBA078F32108405E
:10572000B10008430007000F39010843A0700A9A2E
:1057300004992B002000FFF7D2FFCEE703000820DA
:10574000002905D0002B01D0C82004E0482002E049
:10575000002B00D08820002A02D0012149030843F1
:105760007047F8B500240028079E069D0AD004075C
:10577000A40F04D0924958690968884719E0800746
:1057800017D5012408880C38088040380004000C24
:105790009880CF787F0710D40F7E3F070DD0002C64
:1057A00009D00888683A8118082230004CF048EB8C
:1057B00003E00020F8BD0838988001202C60F8BD77
:1057C0007CB50E000588069C083D0580958819006B
:1057D000083D9580320024316B4629F0E2FB0098A9
:1057E0002168884205D101986168884201D1012071
:1057F0007CBD00207CBD02800B607047F0B5012AA3
:10580000069D059C13D0022A15D0042A2DD14A7872
:105810000E78120292194E790F793602F619CF7866
:1058200012043602120CF6198978360212E00A7850
:105830008E78120202E04A780E7812029219CE791E
:105840008F793602F6194F79120436020979120C53
:10585000F6193602711826688E4202D11F889742C7
:1058600003D2771C03D08E4201D90120F0BD00285D
:1058700001D01A8021602A80079801600020F0BDC5
:10588000002804D0D078820701D4C00701D10020BD
:1058900088807047002810B51CD0D078840719D4B0
:1058A000C00717D1907C1C78A04213D1D07C5C78C3
:1058B000A0420FD1107D9C78A0420BD1507DDC78A6
:1058C000A04207D1907D1C79A04203D1D07D5A79A6
:1058D000904201D00020888010BD70B50D001400EA
:1058E000190000280BD0E278900708D5D00706D120
:1058F000200006220C304BF0ABFD002801D0002028
:10590000A88070BD81780909042901D00C2903D130
:10591000C178BF221140C170C0784006C017401C3A
:10592000704710B5040008001100C278D30708D1F1
:10593000920706D5062212304BF08AFD002800D1CE
:10594000A08010BDF0B500260C8B178825090C7EB1
:105950002407240FAF4214D1C9780A074BAE86E161
:1059600001000000A85700000004000068F780D381
:1059700006D5490704D4002C00D003E08680F0BD92
:10598000002C03D01988491CA142F7D105998C42FB
:10599000F4D21C80F0BD002CF0D11580F9E7F8B5E9
:1059A00005002030007D0E00C0061700800F022881
:1059B00001D0032814D12800012418304CF052EAF9
:1059C000000600D50524287DC10906D0022103E088
:1059D00040A00080D83705000C434006400E01E08F
:1059E000E87E002434703870F8BDFFB58BB01C0021
:1059F000050003261498002826D00822210001A8BB
:105A00004CF028EA8C49062201A84BF02BFD002817
:105A100018D089490622891F01A84BF023FD0028D0
:105A200012D1854901AF02220A39B81D4BF01AFD87
:105A3000002809D0804902220839B81D4BF012FD18
:105A4000002801D0083402260D99202203A84CF02A
:105A500002EA0E3C022E03D1A8880838A88006E08E
:105A6000A988080A090208432073000A60736B467C
:105A7000D87B724FC0076F4403D1062204A9891C4A
:105A800001E00622390020004CF0E4E96B46D87BA7
:105A9000810702D4062206A907E0C00703D0062228
:105AA00009A9891C01E006223900A01D4CF0D2E9A9
:105AB000A8880E30A8800C98046030000FB0F0BDAC
:105AC00070B51E000378049C13704378537083787C
:105AD0009370C078800903012070181A4018407B29
