:100000000100000000000000000200000447BA08E0
:100010001CF09FE51CF09FE51CF09FE51CF09FE5A0
:100020001CF09FE51CF09FE51CF09FE51CF09FE590
:100030000B450EB3FC5B0000805B0000845B00009E
:10004000DC5B0000E05B0000E45B0000E85B0000BC
:10005000F55B0000000000EA4E0000EA28008FE295
:10006000000C90E800A08AE000B08BE001704AE24A
:100070000B005AE14700000A0F00BAE814E04FE213
:10008000010013E303F0471013FF2FE14CB004000D
:100090009CB004000030A0E30040A0E30050A0E3C7
:1000A0000060A0E3102052E27800A128FCFFFF8A44
:1000B000822EB0E13000A128003081451EFF2FE1E3
:1000C00004309FE503308FE013FF2FE1750400003B
:1000D00010B5040000F096E80068005D000706D542
:1000E000DF2C04D02000203810BC08BC18472000AA
:1000F000FAE710B4042A0ED303000B439B070AD17E
:1001000008C810C9A34202D1121F042AF8D2A34280
:1001100001D0001F091F002A02D1002010BC704727
:10012000D30701D0521C05E003780C78401C491C11
:10013000A34207D103780C78401C491CA34201D18B
:10014000921EF1D1181BE9E703000B43020070B4C3
:100150009B0710D10F4CE50100E008C208C91E1B27
:100160009E432E42F9D01906090E1170521C002927
:100170000DD01B0AF7E70C78491C531C002C147097
:1001800005D00C78491C5A1C002C1C70F3D170BC93
:1001900070470000010101010000A0E13A0000EBFE
:1001A00003002DE99A0000EB0300BDE8620000FAAD
:1001B0000F002DE9990000EB0F00BDE81CC09FE582
:1001C0000FC08CE001001CE30DE08F120FE0A001D6
:1001D0001CFF2FE101C08FE21CFF2FE100F04AF865
:1001E000C597030001402DE90000A0E1810000FA5D
:1001F0000140BDE8000000EA0000E0E3060000EA7C
:100200001EFF2FE110402DE9090000EB650688C5AF
:1002100001000000FC01000000020000C092652304
:100220001040BDE8040080E21EFF2FE12D00000019
:100230000C109FE51800A0E3563412EF1EFF2FE1CB
:10024000D4FFFFFF2600020004009FE51EFF2FE100
:100250001EFF2FE1BC48050010B5C046C04608008F
:1002600007D00178002904D005A100F024E9002876
:1002700004D10448784410BC08BC18470020FAE7B1
:100280004300000054AD040010B5C046C046040051
:10029000C046C0462000FFF7B0EF10BC08BC1847AE
:1002A0000E40A0E1660000EB04E0A0E101402DE972
:1002B0007B0000EB0040A0E10140BDE813402DE9C8
:1002C0000100A0E3121DA0E3081084E5000084E50E
:1002D0001340BDE80010A0E1040084E50EF0A0E1A9
:1002E00010402DE903002DE96D0000EB0040A0E176
:1002F0000300BDE8042094E50D30A0E100E082E0B9
:1003000003005EE1002081E50B00008A0E3093E0DF
:10031000011A8EE26330A0E1071081E20730C3E3E7
:100320000710C1E3030051E10310A081041084E52C
:100330001040BDE8020041E01EFF2FE10020A0E1D7
:100340000000A0E30000A0E11040BDE81EFF2FE187
:10035000F0B585B0C046C04605000C004AF0F6EA8C
:10036000002001950294C046C046039001A8FFF703
:10037000B2EE040001A80D00009303C81600C046A9
:10038000C046C046C04605F024ED00210800C04626
:10039000C0460700FFF758EF0490002107600800EF
:1003A000FFF75AFF411C0498416000210800C04635
:1003B000C04601000498816000210800C046C04684
:1003C00001000498C16000210800C046C046010039
:1003D00004980161C046C046C046C046C046C046FB
:1003E000C046C046C046C046C046C046C046C046DD
:1003F000C046C046C046C046009B05B02000049CD5
:1004000029003200A646F0BC01B0704710B5C046C6
:10041000C0460020C046C046C046C0460E276B17E7
:1004200001000000F803000000020000347ADB9EA7
:10043000C046C04610BC08BC184700000000E0E3FE
:100440000210E0E31EFF2FE110402DE90000A0E1C3
:100450001040BDE81EFF2FE10E50A0E1430000EB6D
:1004600005E0A0E10050A0E10700C0E30D10A0E10D
:100470000A30A0E100D0A0E160D08DE220402DE95B
:10048000FC5D00FA2040BDE80060A0E30070A0E33E
:100490000080A0E300B0A0E30710C1E305C0A0E125
:1004A000C009ACE8C009ACE8C009ACE8C009ACE8D8
:1004B00001D0A0E11EFF2FE104009FE51EFF2FE108
:1004C0001EFF2FE1AC480500030010E303001103F9
:1004D0001700001A00402DE984E09FE5042090E415
:1004E000043091E40EC042E002C0CCE18EC31CE0B7
:1004F00003005201F8FFFF0A0040BDE8030CA0E131
:10050000020C50E0FF0E1C030700001A0308A0E1D4
:10051000020850E0FF0C1C030300001A0304A0E1D2
:10052000020450E0FF081C03020053006000A01109
:100530001EFF2FE10120D0E40130D1E4010052E39D
:10054000030052210400001A0120D0E40130D1E45C
:10055000010052E303005221F5FFFF0A030042E0CD
:100560001EFF2FE10101010110B410BC7047000013
:1005700000009FE51EFF2FE19C48050004009FE559
:100580001EFF2FE11EFF2FE1A048050070B50500FA
:100590000C0037F0FBF8002814D0686900F02EFF3B
:1005A00000280FD060792179000600140843203418
:1005B0000019C1798279080224491043884201D187
:1005C000012070BD002070BDF8B5050000F00FFFE0
:1005D0000027FF43002808D137F0D8F8002804D1BD
:1005E000686900F00BFF00282DD02989481942794D
:1005F0000379120612141A4314180E315018060605
:10060000360E280000F0EEFE002807D1617D227D25
:100610000802083610433606360E03E0607B217B65
:100620000002084300F0A2FE00280CD0D09CA2A932
:1006300001000000F4050000000200002D8205EE1C
:100640002200A11D28002E8112F0B6F8002804D047
:10065000280000F097F80020F8BD3800F8BD000031
:10066000888E00002A4810B504684068042B01D128
:100670004C6102E0012B02D14C6105F0C2EB00207D
:1006800010BDF8B50D001700214E1C00052B01D040
:10069000162C14D128894019C17882780802104399
:1006A00004D1280000F06EF80220F8BD2800FFF702
:1006B00095FF002801D10120F8BD052C01D0172C91
:1006C00004D13A002900306805230EE0032C06D13E
:1006D000280000F08EFE3A002900032305E0022CDA
:1006E00005D1B0683A002900022305F08AEB00200A
:1006F000F8BD70B5040000F00DF80500012020736E
:10070000200005F082EB280000F009F870BD000021
:1007100028B10400802010B505F07AEB10BD10B5AB
:1007200005F076EB10BD10B5040005F076EB206007
:1007300010BD124870B50468114EA10706D50021FE
:100740000161B26D01209047022084432006000F12
:1007500003D0E02084431020044300250AE0E00792
:1007600006D0A8003258002A02D021002800904765
:1007700064086D1C002CF2D1002070BD00280080A0
:1007800040060004002810B507D00169002905D1F2
:100790004189C088032205F044EB10BD05F034EB1D
:1007A00010BD10B50189C1220818418D0024D20066
:1007B000914208D10100062212310C30FFF7B7FC3C
:1007C000002800D10124200010BDF3B50400002052
:1007D00085B0070004900390029020890126051936
:1007E000A8780007800F022800D0002660694079B1
:1007F00002280DD12000FFF7D4FF012808D12020C6
:10080000A7802073FF490868401C086007B0F0BD4E
:10081000A0880028FAD0002E1DD0A878010902D0A7
:100820000009082817D1228920002A3010180288D0
:10083000F54B61699A420ED1C0780328E5CCE6DC1D
:1008400001000000F007000000020000D96ABB535D
:100850000BD1002909D00D2080010818406A00281A
:1008600003D080300188491C018000F0A7FD0028DA
:100870006AD0280005F0E2EA00285DD1002E14D0ED
:100880000122200001A939F0F7FB00280DD00198C2
:10089000002800D0012000284ED00720029000211F
:1008A0004F2036F091FC049007E00699200003AA3F
:1008B00002AB36F073FE00283ED000F07FFD00282A
:1008C00049D0D7480125056140F0D6F902F03AFE3B
:1008D00000280CD142F054FD002808D1D14807600F
:1008E000D1480780CE488570032042F0F5FC6B4666
:1008F0001A890499FF2036F0E1FFCC4D28880028A2
:1009000004D0CB4904200856401C0AD002250120FF
:100910000CF075FC6D1E09D0C148007A0028F6D194
:1009200004E036F0E5FDBE482F8007721D2042F03E
:10093000D3FCBB48C7600EE020206B462073187BB9
:10094000002808D1A78006E0002E04D00222200053
:1009500001A939F091FB02F0F8FD002800D15FE712
:10096000A0880028FBD037F0F5F90028F7D137F040
:1009700013FB0028F3D1002EF1D020890019C17893
:10098000CA0701D1801D00E01230AA4AD37B002B98
:100990000ED01289092A0BD10078C00708D088062A
:1009A00002D540F001F93BE71B2042F095FC37E708
:1009B00002F051F80128F6D040F006F930E77CB596
:1009C0000C001500497923790906091419430B19FC
:1009D000818842692433602914D9603920328180AA
:1009E000517DC906CA0F00922A0001A905F02AEA22
:1009F000A071000AE0710198001B2071000A60716B
:100A000001207CBD00207CBD1A00D8E78288602AC6
:100A100010D9603A828048790A79000600141043A0
:100A200024300871000A4871E62088710020C871DE
:100A300001207047002070471FB501AA04000092F2
:100A400002AA03AB38F0B2FD01980204466112CB52
:100A500001000000EC090000000200001E73B90E46
:100A60000298121401040914200038F0A5FB20009C
:100A70000399C0304183019981830299C183200089
:100A800002F0E8F91FBDFFB581B000201C0001266F
:100A90000A9D0B9F286038608A7CD207002A07D005
:100AA000E1072E6002D0A1071EE03E6005B0F0BD58
:100AB0000800123003F0CEFA00281DD04179022937
:100AC0001AD1417AC90617D50199C279C9799142DB
:100AD0000DD103990A290FD3610702D4E107E4D1AC
:100AE0000AE0E107E2D061070029DEDADEE721074C
:100AF00002D503990A29D9D22E60D7E7F3B595B06C
:100B000005000A200A90002009900120089000208A
:100B10000790059004901698002802D1002017B085
:100B2000F0BD28896E69411920220CA805F098E9CA
:100B30000CA808AB0B90D87CC0070B9801D1801D86
:100B400000E01230169F06902037387DC006800FD7
:100B5000012807D91698183005F086E9000701D555
:100B6000012400E0002408AB997C00200A07920FC2
:100B7000022A03D10909090700D50120204325D005
:100B8000FFF7DCFD0190387E304A41070B98490F92
:100B90000C3005F06EE90A280A9014D2002C06D019
:100BA0000A98010129480818C168491CC160287BBE
:100BB000202808D10A9826490001411810AB18894D
:100BC00000093FF09FFB0198FFF7BDFD2889202118
:100BD0006C18203829812071000A10AB60711889C7
:100BE00000092072000A6072B0792070F07960709C
:100BF000A888002802D1287B202855D108ABD87CB2
:100C0000800601D50120049008AB987C0107890F6C
:100C1000022949D1397EC90638D50009000735D5E2
:100C20000C480078002831D016E000007000000465
:100C3000888E000088FA040070B604000CB6040028
:100C4000FCB5040048B10400F8060500D00A000411
:100C5000080D000436B5040037F038FABB8AF45E9C
:100C600001000000E80B000000020000EA9B07B34F
:100C7000002815D0FF480068002811D0FE48006801
:100C800000280DD03FF022FF002809D03DF01CFACB
:100C9000012805D0F9480068002801D101200590FD
:100CA00002F06FFC002809D00B9805F0DCE8002862
:100CB00004D1022003F0AAF940F028F81699300078
:100CC000FFF7CEFE3100C0311E201491085E02F005
:100CD0001EF8207314991A20085E02F00BF808AB76
:100CE0006073987C0009000703D5387E4007400FE9
:100CF00000E0FF20A072A07A0390A888002804D00A
:100D00000B9805F0B0E8002852D00020A070E070E9
:100D1000A888002802D1287B202845D1039837F0E5
:100D200039F900280AD00498002804D000213000A6
:100D300013F094FA02E0D249002008700698007877
:100D4000C00714D125F0B8FE0028387E07D0C006B1
:100D5000C30F059A0499300025F04AFF06E0C0064B
:100D6000C30F059A0499300024F03EFD059008ABAE
:100D7000987C0499020930003FF0CCF905980128CD
:100D800012D1C048008800280BD0BF48002200685C
:100D9000462105F07CE8002803D0BC4901200870FA
:100DA00002E0162042F0ACFA2800FFF709FDBFE68A
:100DB000387EC00905D0169A21002800FFF73AFEB8
:100DC00005E00B9B169A21002800FFF731FE002852
:100DD0007ED0A888A070000A22000B32E07016981E
:100DE000D11C05F058E87079022810D1300003F0CA
:100DF000BFF808A900911121490109AA07904018DC
:100E0000019203780A9A30000CA9FFF746FE099870
:100E100000284CD09E48002201889E48032302F0FF
:100E200052FC0028009042D00098A9888180009947
:100E3000AC20088100990820087300980F21AC307D
:100E4000019005F02CE801981021017100214171F9
:100E5000E079A2790102019811438171090AC171F7
:100E60000798406A012805D1707A0007D05B180EF8
:100E700001000000E40D000000020000F363D9C38C
:100E800002D50199A07A08736079217900060014CF
:100E9000084301190198AA88103004F0F6EF009871
:100EA000F16841610199F07948700199B079087051
:100EB0000199A8888870000AC8700098042100F081
:100EC000B5FA287B202853D0FFF74CFC0290784BD2
:100ED00076481C680022290000681623A0470400F9
:100EE000029800E044E0FFF742FC022C33D0012CD2
:100EF00025D002F050FB002802D0052042F00AFA6B
:100F00000A980A280CD20A986A4900014018083049
:100F100003C8002358405940084301D036F0CCF9AB
:100F2000FFF720FC0290624B60481C6800222900F9
:100F300000681723A0470298FFF719FC0BE00A98F6
:100F40000A2808D20A985B490001411810AB188999
:100F500000093FF0EBF9039837F026F8002811D08C
:100F60000498012808D10021300013F081F909E02C
:100F70000020A070E07021E70498002802D14548C5
:100F80000021017006980078C00714D125F09EFD5D
:100F90000028387E07D0C006C30F059A0499300098
:100FA00025F030FE06E0C006C30F059A0499300014
:100FB00024F024FC059008AB987C049902093000C9
:100FC0003FF0B2F80598012812D133480088002874
:100FD0000BD0324800220068462104F062EF00285E
:100FE00003D02F490120087002E0162042F092F948
:100FF0000120A8E5F0B500250C8B097E17880907AC
:10100000059E2409090FA74209D11A88521C8A4259
:1010100001D1B14201D38580F0BD1980F0BD002916
:10102000F9D11480F9E7F0B5002097B004000490DE
:10103000019002F0BDFA002806D000F0DDF900288A
:10104000FAD01D490120C860A0E10020039023F0E0
:10105000E3FC10AB197B0020C906890F012902D9D6
:101060000C980007C00F029005980189081806A97E
:1010700001F0B5FD1698002820D10598620E3DE6D6
:1010800001000000E00F000000020000078B677EF7
:1010900000218180FFF7A8FB82E1000048B5040031
:1010A00044B5040098B5040035B504006C0B050088
:1010B00028B1040031B504001AB604002C01000464
:1010C0002CB104002CB30400080D000488FA0400BD
:1010D00016980C3002F0DCFF040005D116990120AF
:1010E000123102F0F3FF04001699200002F068F8B4
:1010F000002801D00024CAE7002CC8D005994C6113
:10110000607902280CD1200002F06BFF0C300190B6
:10111000607A169AC0060599C00F04F0D8EE13E065
:101120002079169A01280AD123009E3304F0D2EECA
:101130002079012808D1200002F09CFF04E0230060
:101140009E33012004F0CAEE059801890E18F1784B
:10115000C90701D1B51D01E0350012350D21890106
:101160006718796A002902D00A6B521C0A63297831
:10117000C90705D0796A002902D04A6B521C4A631C
:101180000299002949D18188002970D00A22009251
:1011900085229200A318921E1699A218FFF734FF19
:1011A0000598818800290DD1200006A9FFF76CFC65
:1011B0000598FFF719FB786A002802D0016A491CDC
:1011C0000162EDE0A17AC9071ED0F078C10712D103
:1011D000800710D53B200001211830000622123074
:1011E000FEF7D7FF002806D1059988802878C20726
:1011F000D20F012104E02878C0070ED1002211008F
:10120000200007F027FE08E02978C90709D03B2114
:1012100009016218310004F066EE05988088002804
:10122000B3D06079022827D1200006A902F06EF918
:1012300016990198C978007DC906C90F884202D065
:10124000200018F043F9200002F01CF8200002F002
:1012500051F8012803D11699200045F075FE019838
:101260004030007D032803D00599002088807BE072
:1012700005988088002877D0200028F06FF828781B
:10128000C0070AD123F026FA002806D1E028AA7860
:1012900001000000DC110000000200007990C0CEC7
:1012A000059808AB8188DA7C06A824F005FB16981F
:1012B00004F026EE00281ED00598818840398180F0
:1012C0001699097E090707D11699C978490703D4E9
:1012D00016990988818051E04B4A009201894B4A56
:1012E0004B4B091804F010EE002863D005900189DB
:1012F0000818169042E016988079C00701D0F86867
:1013000000E03869002801D1049801E00830049019
:10131000002844D00498C079022801D003280FD1B6
:1013200085229200125B16990120002A00D000202D
:1013300004F0EEED049A059806A900F07FF917E095
:10134000012801D0002829D1012000F0F5F800285B
:10135000FAD1049A06A905A808F08BFD002804D14B
:101360000598002826D0002181800398002805D008
:101370000498C079022809D0032807D0059806A947
:10138000FFF75FFA059806A9FFF7E0FB29F0AEF931
:1013900000280FD0012013F02FFE14E0FEE7786A3A
:1013A0008168491C81601698BF21C0780840169951
:1013B000C87063E70121002006AA01F046FC00285E
:1013C000059000D055E613498020C043086104F021
:1013D000A4ED002802D0042013F00EFE0E490020D8
:1013E000C860002C086106D00F208001201880689A
:1013F000032137F0BFFB10E6084A010001209142AB
:1014000000D000207047000024C801C02CC801C0D3
:1014100030CC03C000A5008088FA0400888E00004C
:101420000A4900204968002904D00949097800299F
:1014300000D001207047054900204968002904D0E8
:1014400003494978002900D00120704740B10400C9
:1014500088FA0400022110B50173010009481C221A
:101460000068042304F008ED10BD4069C0687047AF
:1014700010B5406902F003FE10BD10B540690AF0D6
:1014800072FE10BD2CB104000F2189014018406884
:10149000002803D02030407DC007C00FC793E59DD2
:1014A00001000000D8130000000200008D787E7358
:1014B000704703000A0000B5FFF7F0FFFD21002888
:1014C00014D00F20800118184368C0335A61406857
:1014D0000300C033002A08D02030407DC00701D06F
:1014E000186909E0907A0840907200BD002AFCD08B
:1014F000187A4307F6D5C0070028F3D100BD0000D5
:101500000348006880300068C007C00F70470000C3
:1015100098B1040038B51400049A009222000BF030
:10152000F4FE38BD10B50BF093FF10BD10B50BF0F5
:10153000D9FE10BD10B50BF09FFF112800D112206D
:1015400010BD10B50BF0B0FF10BD0000FF498000CA
:101550000858704770B58400FC4D2859002803D105
:101560002EF0E8FB0120285170BD30B50025016840
:10157000FF242A00641CA14200D04A1C41688A4210
:1015800001D1002208E024224A432B0012180C3219
:10159000A14200D04B1C4360100030BD30B5002488
:1015A0000A682300402A01D03F2A04D02300402AA1
:1015B00000D0531C5B1C4D68AB4201D1002030BDF4
:1015C0002300402A00D0531C9A000B6051188860F9
:1015D000012030BD016800231A00402900D04A1CB8
:1015E00041688A4201D1002206E08A0012189268FE
:1015F000402900D04B1C43601000704770B50500B7
:10160000FFF7CEF80400D14800210068002814D16B
:10161000CE48CF4B203805611A68402A00D0511CB3
:101620005868814205D08000C0188068002800D02A
:10163000FEE7280008F004FD06E0C5492800FFF792
:10164000ADFF002800D1FEE72000FFF7AEF870BD27
:10165000F7B50D001600FFF7A3F80400BB4840687B
:1016600000281AD1BB4A00211068C31FF93B00D0E3
:10167000411C5068814205D02423584380180C3007
:1016800000D0FEE732002900684608F0C9FC0028B7
:101690000CD1009800F07DF908E0AE4B00983200C4
:1016A000290000F00FF9002800D1FEE772DFBE82AA
:1016B00001000000D4150000000200009480A00387
:1016C0002000FFF77CF8FEBDF0B503220021A44EF8
:1016D000A34F203E33681202012B85B065D100284C
:1016E00063D1A24B1868904318603160396030694B
:1016F000018945690C18B168002D4A88019203D10F
:101700000021FFF746F8D9E06B465A7952071DD4FD
:101710006979022902D02979062904D1290001F02A
:1017200030FE0028EFD16B4618790007800F0228A1
:1017300008D131692200280000F0A5F90028E2D183
:101740003069DDE7306928F06DFEB7E00A880800EF
:1017500020301018E36EC01C8608D879B600022825
:101760001BD1687902280CD18879C00709D02800DC
:1017700002F030FC0721C901401840880206120E11
:1017800000E0002230880021103830800092E36EA3
:101790002268300008F0C8FB94E003287ED122685C
:1017A0000021300008F014FC8CE07368012BAAD1F2
:1017B0000128A8D16E4B18681C6894431C607160A6
:1017C00079606C490C6808310291B1696569491CFE
:1017D000B161010702D5F169491CF161002D19D0F1
:1017E000010765481AD57169491C716104F078EBED
:1017F00080780007800F02280CD10D208001291865
:10180000486A002806D04268521C4260486A016952
:10181000491C0161200000F0C6F84FE0039004F07D
:1018200060EB8079C00709D1F1688879800705D518
:101830006879022802D02800FFF745FEF068C079D9
:10184000022805D1039804F04CEB0188103906E01A
:10185000032805D1039804F044EB01882239018064
:10186000A0884038A080039804F03AEB8078000705
:10187000800F02281FD1414A00922089404A011955
:10188000404B200004F054EB002817D004000D203A
:1018900080012818406A002804D000E015E0416E5D
:1018A000491C416602992000FEF7DFFF02992000E3
:1018B000FFF760F902E0200038F03CF83EECAC4A5B
:1018C00001000000D01700000002000060681EBE8A
:1018D0002A49294800F07BF83868002804D1786844
:1018E000002801D12EF030FA05B0F0BDF8B51C008B
:1018F0000E001D6807000021FF2308005B1C9D42AD
:10190000944601D0FF2D04D008009D4200D0681CF1
:10191000401C6268904201D10020F8BD9D4200D079
:10192000691C2420484321600019C76021682423D2
:101930005943604609190861206818225843311D2F
:101940000019143004F0D2EA206824235843011906
:1019500030002030037E02000B77407E48772068FD
:1019600024235843127D00192030C178C723194021
:10197000D20613E09800000494CF0400A0D0040025
:1019800000A0009000A800900C0800045408000477
:1019900024C801C02CC801C030CC03C0920FD200B3
:1019A0001143C1703000403004F0A4EA21682423C0
:1019B00059430919C8620120F8BD10B50169002911
:1019C00002D1FEF739FF10BD37F0B2FF10BDF3B5FD
:1019D00081B0254835E00298FFF7DBFD040034D0E4
:1019E0006768002F2AD002982500816808350E000C
:1019F0000836009118222900301D04F078EA3100E1
:101A0000287A20310876687A4876087DE7221040E7
:101A1000EA7B18239206920E1A4010430875E818C4
:101A200004F068EA3100403104F098EA00993A0085
:101A30000831200008F008FB002806D12068FFF7D5
:101A4000BCFF094840680028C5D007480068002846
:101A500009D10198FFF7D2FD002804D002492039AE
:101A6000086108F001FBFEBD9800000410B50C00F1
:101A70008968CA0010D5012212079143A16021781C
:101A800001224907490F21F084F80101E06D028B22
:101A90001207120F0A43028310BD70B50D00040037
:101AA0001100FFF7E3FF2079012804D1012128006C
:101AB00043F062FA70BD23F081FA002822D0288911
:101AC00044191434280003F091FBE169CAC08AD597
:101AD00001000000CC19000000020000A7711CE307
:101AE00028003BF0FFFE002811D022F025FE002840
:101AF00002D022F089FC08E036F038FB002802D042
:101B0000002023F0FFFF24F07FFC012070BD28009F
:101B100003F08FFB002070BD280003F0B4FC70BD03
:101B200070B5040000890519E86E002813D0C1794A
:101B3000022907D1807AC0070DD0E86D01881039DD
:101B4000018004E0032906D1807AC00703D0200079
:101B5000FFF772FD70BD6669002E08D0707902280B
:101B600005D13100200001F020FC0128F2D02A002C
:101B700021003000FFF79BFF0028EBD1200048F048
:101B8000CFFC00212000FEF718FE70BDFFB58BB022
:101B900001241600301F159D149A0228FDD2361F0D
:101BA000280036066030360E0A90F0008019400199
:101BB000FF4B0490C0181023B3400990FD480593D3
:101BC00080691700034008930423B3409E460340F6
:101BD0009C46059B1C3F03430793059B9843069037
:101BE0000998FF301D300129039065D10898F14B09
:101BF0000028029636D160460028764655D1EC483A
:101C00000499405C00281FD12878002241070B98D6
:101C1000490F20F0C8FF6B46198800010907090F1A
:101C200001430091187800090001187000990E987E
:101C30003CF0AEF90A98017A0E9804F09EE9DD486E
:101C400081690E43866130E00798DA4906438E6168
:101C500002990B9828F050FC002809D109980E9998
:101C600041704FE061460029704606D0029953E06A
:101C700038000021FEF7A1FD47E00699CC4F08434C
:101C800098610298C6003618760108E00198A97894
:101C90008170B95D1C38491CB955FFF741FF0298A6
:101CA00001A928F0E5FC0028F0D0002C5AD00298B9
:101CB000C3001818400151E0022953D10898BD49CA
:101CC000002824D160460028754642D0B8490498BF
:101CD000085C002809D10A98017A0E9896CE4947E7
:101CE00001000000C81B0000000200005399A25E22
:101CF00004F050E9B4498869A843886133E0079843
:101D0000B149A84388610B98310028F0FFFB0028F7
:101D1000B8D109990E9848700398FEF772FD002417
:101D20002AE06346002B704606D131000B9828F05C
:101D3000EDFB0128F3D1A5E7069AF7008243BF190E
:101D40007F018A6109E00198A9789E4A8170D15D7E
:101D50001C38491CD155FFF7EDFE300001A928F0D1
:101D600091FC0028EFD0002C06D0F0008019400133
:101D7000944A115C491C115420000FB0F0BDFFB50E
:101D800083B00C00FF2189050500C81301903420A1
:101D90000091405D7F270026FF00FE2806D0218DA0
:101DA0004006B943800D014321850CE028790128C4
:101DB0000BD1280020F0FCFD807D002805D1208D6E
:101DC000B8430830208501260EE0232000012818A2
:101DD00004F0E4E8218D4006800DB94301432185DC
:101DE00006980078C00728D0E0690121090308435C
:101DF000E06106990978C9071FD0FF21491C0843F3
:101E000020218843E061687902280AD105980028DA
:101E100003D0059804F0C6E808E0280003F0C4FAEF
:101E200004E0002E2BD128003BF0B7F9218D4006AD
:101E3000800DB9430143218521E0687902281ED134
:101E4000208D00218005420E012004F0B0E8009BA7
:101E5000019A1840002311405940584008430ED0C1
:101E6000280002F0FAF88030007AC10707D0800716
:101E700005D5E0692021084380218843E061208D59
:101E80008105490E032906D850490978890602D5EB
:101E9000B8432830208507B0F0BDF8B51418060007
:101EA0001C203518002930811DD06078217800026F
:101EB000084300271E2803D91E382070000A01E0BD
:101EC000380A277060707021280004F074E8706987
:101ED0000079032803D039F06FFB012802D10520D7
:101EE000A87000E0AF70E078FB2108403F53212D3F
:101EF00001000000C41D0000000200004A617C2EA9
:101F0000E070607E217E000208430007000F20760B
:101F1000000A6076207E07210009000120762878DB
:101F200008432870EC65092060352872300027F0DE
:101F300076FB002802D1300028F09CFAF8BD70B57D
:101F4000284804F046E804001FD020890519697864
:101F5000287802F09CF8002810D0606168792A790E
:101F600021890002104308180204120C01212000EC
:101F7000FFF79DFF012013F07BF802E0200003F043
:101F8000BCEF19490868401C086070BDFEB51348D5
:101F900081698906890F7DD00F4F00240F4A1020D8
:101FA000A040916903000B4271D0E5002D196D012D
:101FB0007B5D002B6BD181430420A04008429161DE
:101FC00047D00A490A4816F0BAF80A4A0020EE1922
:101FD00014214143535C0FE058080004A8B20400E8
:101FE00052740004E40D000430B304001111111107
:101FF000BBBBBBBBA80A0004002B20D08918897882
:10200000737899421BD1142358438118081D0291FB
:1020100002F084F802990022497820F0D8FD6B463E
:10202000198800010907090F014300911878000978
:1020300000011870707800993BF0BEFF02E0401C70
:102040000228C5D3201D01067078090E03F0A8EF01
:102050000AE0F849F84816F072F8201D0106E81960
:102060004078090E03F0A0EFF34E0AE0F349300088
:1020700016F065F801981C38FFF766FD785D401C86
:102080007855200001A928F007FB0028EED0641C39
:10209000022C83D3FEBDF0B50020C5B0E94C1390EF
:1020A0001090E748606120000C22012114300BF0F1
:1020B000AEF828F00FFBE44844900022D243E14DF3
:1020C0000092E249E86808223FABFFF755FA3F98D3
:1020D0000028F2D0400607D5002011F01DFEDC4993
:1020E00048684A06104348603F98C0060AD545F044
:1020F000F5FDD848072200681021FFF79A3893E0D1
:1021000001000000C01F000000020000BE89C29351
:1021100049FA372041F058F93F98800515D500203D
:1021200020F098FC04001D2676010CE0A019017E29
:10213000C80704D0480702D5200046F003F8200065
:1021400020F088FC0400002CF0D13F98000601D557
:1021500026F072FA3F98C00501D526F0E9FA3F98BB
:10216000810602D5C14A00211170400501D500F059
:102170000BFD3F98400701D5FEF7AFFF3F98800762
:1021800011D503F034EF0128A1D004E01298AC225D
:102190000021FFF796FE28690422002312A9FFF709
:1021A000FDF90F28F2D13F980921084271D0B048BB
:1021B0000168B0480068814201D0FFF7CAFE02F012
:1021C0001EF8002883D0E869002880D128F0A2F802
:1021D0000028FAD141F0B4F8002884D003F006EFCB
:1021E0000128D1D0FFF7DCFE1398002500284FD03E
:1021F00000200700099007909D4801689D480068ED
:10220000814201D0FFF7A5FE13980F22018909181A
:1022100092484091083803F092EE9049409808396E
:102220008A8810180C9048887D229201904200D331
:10223000FEE78A480838007B082803D38749002036
:102240000839087385480C9908380FAA00F0B8FCC3
:102250000128089012D108AB187F00F0ACFC0700F1
:1022600080300569280001F0E7FE3E001436390091
:10227000703115970120B9611190D3E00C99139832
:1022800000F0A9FB050005D113980021FEF7B3FA71
:10229000EFE222E3280001F0CFFE040068790C99F8
:1022A0000126032802D129009E31002606220AA811
:1022B00003F044EE6948704B0838007B0FAA0AA966
:1022C00003F098EE002806901DD06C4800680028A6
:1022D00019D06B4800680079002814D15F4908AB19
:1022E000187F2A000839330000F098FC070070219D
:1022F000159003F074EE159839000600143670310D
:102300008161012046E00120099016A810A7804FA6
:1023100001000000BC21000000020000B656334E50
:102320007021159003F064EE37A8159E1C9050485C
:1023300014360838407BC00728D028F04BF835F019
:102340008BFD00281BD054480078002817D122F0BC
:10235000C5FE002811D0280047F0CCFC01210091D7
:102360004349002201920839497B02000907CB0F3B
:102370000121280011F020FE01E024F0F7FD35F0E6
:102380008DFE00288AD041F089F987E72879012855
:1023900002D06879022804D10C99280001F052FF7C
:1023A00002E0280001F05AFF1190E27F310028007E
:1023B0000AABFFF702FD394901200979C90609D4A2
:1023C0006979022905D1132149016118097B09079F
:1023D00000D400200D902879002816D12800203044
:1023E0004390807D000710D4308D8005400E03F0AF
:1023F00010EE0400122003F00CEE844205D843983E
:10240000807D8007C20F012104E03620405D0D99D8
:102410008007C20F300003F000EE0698002817D0A6
:10242000308D8005400E03F00DF9002807D00C49CF
:10243000C943C84315F097FE01200E9034E01849B7
:10244000074815F090FE02200E90012009902BE025
:102450001449034815F087FE0020F5E722222222C6
:10246000BBBBBBBB333333338C000500A8B20400C5
:10247000A00A0004FF0F000040A5008014B504006E
:10248000F9B5040024B3040030B30400A80A000422
:10249000B400000464BE040034B5040052740004A7
:1024A0005555555566666666FA490120087000F074
:1024B00058FE089A0092119A40983300290000F0C3
:1024C00066FA139A1C2111811399159C1C314191B4
:1024D0000021A1807180139900064D61159CEE4981
:1024E00032944A88000E121A30AB1A82409A8988B8
:1024F0001018081833900020D8746879032801D088
:1025000001280CD1280001F0A9FE002807D0E248DC
:10251000017B280001F0AEFEDF49087378E03E95AC
:1025200001000000B82300000002000042BE8DF34D
:1025300012E02879012804D1280001F099FE002832
:1025400002D16879022809D10C99280001F084FE93
:10255000002803D0D548007B30ABD8740E980028F3
:1025600007D03298012180680907084332998860B2
:102570000FE0119800280CD030ABD97C0122280044
:1025800020F043FB30AB198B00010907090F014311
:102590001983089800280DD0C44807A9C0886A4646
:1025A0000006000E83C22900109B14AA32A802F074
:1025B00070FA10E0119907A802AA83C2BB480E9ACC
:1025C000C08801920106090E0091109B139914AA6C
:1025D00032A801F0A1FF718C0028E18000D167E6EC
:1025E0001499002910D0A1680122D2061143002DB0
:1025F000A16009D00D2189016918496A002903D019
:1026000060310A8B521C0A83E065449803F0AEECFB
:1026100000094499000103F0DEEC318D1022890598
:10262000490E11430843449903F0D4ECE0609F48FD
:10263000407B000706D527F0D7FEA0680121C90717
:10264000084302E0A06840004008A06068790328C1
:1026500001D0012808D19548817B027B4B002100E5
:10266000280001F03EFE33E01198002803D08F4887
:10267000007B03F0E0EC03F0E2EC05900898002802
:102680000DD10E98002807D0210008AB884A187F8A
:10269000683103F0D8EC02E00599682001558548BF
:1026A000416A05984000A430085A8349884203D003
:1026B0007E48807B002802D1A08800280AD07B4871
:1026C0000599807B43006820025D200001F0ECFD4D
:1026D000002884D01498002809D12879002802D035
:1026E000687903281CD102F0CBFF002818D06F486E
:1026F000C088DF2802D13721692001556F48002F9B
:10270000A08005D008AB187F00F038FA00F050FA2E
:102710000E98012804D0E0680E2103F098ECE060E8
:10272000A088002803D03100200002F0E8F9D15F32
:1027300001000000B4250000000200005B46538346
:1027400072FF4098F06341983064F0896082089885
:10275000012821D15A48C088E628207802D180215A
:10276000084301E04006400E08AB20705549187F31
:1027700003F07AEC6820005D564A001FC300181869
:102780004001115C491C115420883084419870220A
:10279000210003F06EEC87E01498002813D0280085
:1027A0003AF02DFD318D7F224006D200800D9143FD
:1027B00001433185F069A0218843012109030843C1
:1027C000F06101200990B08920820798002800D08C
:1027D000E066308D8005400EA070E06D80780009C5
:1027E000082810D1449803F0CCEB35490122C98860
:1027F000E62900D000220092020030ABDB7C2100F1
:10280000300003F03AEC0E98012810D132493348D9
:1028100015F0BDFC08AB2B49187F03F026ECA0682F
:10282000012149070843A0600A20307009E02A49C5
:102830002A48C94315F0ABFC3200210028000AF0F9
:10284000D9F932002100280002F018FE244923485B
:1028500015F09DFC2148A16815F099FC200060301E
:102860004290017A1D4815F092FC208830844198EE
:102870007022210003F0FCEB0E9800280CD0419947
:1028800001940091429808AB027A1B7F0E992800B0
:10289000FFF7B8F900280AD00998002804D1BC42F3
:1028A00002D10120803738761398FFF775F93F98E9
:1028B0000821084216D006F0C1FA1FE0A00000046B
:1028C000980A0004A80A0004C0060004FFFF0000E4
:1028D000FF7F00005808000477777777BBBBBBBB4E
:1028E000999999996A4803F09CEB002804D16948AA
:1028F00003F096EB002801D0042101730028139007
:1029000000D093E4002D06D00F20800128188068A5
:10291000032136F093F9604900200870FFF7F5FBBA
:10292000F8B504000D001600001F01283ED85B4AD0
:10293000201F012192698140114237D0572869B97F
:1029400001000000B027000000020000AFAEED3E25
:10295000C300584F1B185B01F95C002904D0491EC5
:102960000906090EF95406D110218140114202D006
:10297000012012F0AFFB002D22D0286900281FD0C3
:102980004D4A002014214143535C002B19D0891873
:10299000C978A14215D12C684849E46D8200248B86
:1029A00051182409641CCA1C8B1C0C800021117056
:1029B0001978002904D10106090E300026F09AFC8E
:1029C000F8BD401C0228DDDBF8BDF8B504000800A6
:1029D0003B4D0699AF8800263C195F68012916D146
:1029E000EB88020021009E32E62B09D00379012BEF
:1029F00006D04079022801D1891D02E0062B00D1C2
:102A0000110038001230062203F0C0EA05E00092FF
:102A10002B4923003A0000F055F8E888E62800D05A
:102A20000C263000F8BD70B50D002548244900780B
:102A30004978002400280CD101F05BFB04000079E8
:102A400001282DD1280001F09BFB002828D004008C
:102A500026E0012801D0022822D101F04AFB04001F
:102A60001ED0607902281BD12878C0070BD0200027
:102A700001F00AFB002813D0092189014018406A9F
:102A800000280DD10BE0280001F07AFB040001F0D2
:102A900020FB002C04D060300078032800D00024F4
:102AA000200070BDBC0D0004A80D0004A0000004AF
:102AB000A8B2040058080004A80A0004AC000004EE
:102AC000980A0004FFB583B0040016000F00911CA3
:102AD0000C9800220291130069460CC10122F97979
:102AE000BB7909021943E92900D00022797BC90783
:102AF000C90F03F0D0EA0500F879B979000208435C
:102B0000EA2803D1797B0822114379733B2109011B
:102B1000621823792100224F9E31012B08D10B002E
:102B20000699300003F0BAEA26E00120000327E00E
:102B30006379022B15D1069B0A0006999B1D300074
:102B400003F0ACEA012040020543B0792B78F2F69D
:102B500001000000AC2900000002000068B7EF632C
:102B6000C00718D10221200044F0B4FA012812D184
:102B7000400305430FE0E62801D10B0000E0069B6F
:102B8000300003F096EAFF20401C054338680079C6
:102B90000028D4D1054302980622058030001A305F
:102BA000694603F0FEE907B0F0BD0248006800790D
:102BB0007047000064BE040010B50400FDF75EFE1F
:102BC000384A01215368A14019435160FDF75BFE6B
:102BD0000120800212F088FA10BD3249032010B59E
:102BE00048600120800212F07FFA10BD70B5FDF739
:102BF00045FE2D4D2B4E00210C007268D30704D0EA
:102C0000A4234B435B1980331C765208491C0229CC
:102C10007260F2D3FDF737FE70BDA42358432249FA
:102C200040187047F7B5050000261F4F3400A42058
:102C30006043C0198030017E01291CD16978027D72
:102C4000914218D12978827D914214D1297B427D0D
:102C5000914210D1C17D002909D000694321C900EA
:102C6000411801980622FDF716FB002803D10298AF
:102C70000126047002E0641C022CD8D33000FEBD93
:102C800030B51C00A4235843074B4D78C0180300EF
:102C900080331D750D789D751A61097B5975DC753A
:102CA00030BD0000A4000004C00B0004FFB581B0DB
:102CB000050000201E4C2860206A0E001700002826
:102CC00017D0FDF7DBFD216A002910D00A79022A0E
:102CD0000DD1096A00290AD02960216A096831608A
:102CE000216A496A3960216A0A6B04990A60FDF712
:102CF000CAFD05B0F0BDF0B587B006000F00002595
:102D000004AA05A906A803ABFFF7D0FF069C002C78
:102D10000AD0049A0192330000220097059811000E
:102D2000A047002800D00125280007B0F0BD000012
:102D300058060500402101817047F8B500241600AF
:102D400025000028009424D13000694600F0E6F800
:102D500004000CD06B461A88642A04D38782200FA3
:102D600001000000A82B0000000200009C5F51DE63
:102D7000E188032003F0AAE902E0032003F0AAE9B6
:102D800060816B461888002805D040202081188873
:102D9000001FA08007E0002C05D031002000A58096
:102DA000FDF756FF00242000F8BD70B50C0000268A
:102DB000012B2DD01C4D042B04D00F2B31D11B48DF
:102DC000210013E000F07DFC002804D0022001F077
:102DD000BDF93EF03BF820890019C17982790802DB
:102DE0001043E52805D011482100143803F076E996
:102DF00008E00E482100283003F070E90C48016813
:102E0000491C0160286807220121FEF707FC08E041
:102E100006482100143003F062E96069022106F0DF
:102E200059FC300070BD0000B4B20400BC0D0004B9
:102E300024B30400002801DD002004E06521C9431B
:102E4000884200DA080040420006001670476628F3
:102E500001DD662002E0002800DA002000060016EE
:102E600070470000F8B5040032D025002035287DD9
:102E7000E77EC006860F2000143003F0A0E80002B1
:102E8000000A002E0DD0012E0FD0022E01D0032EED
:102E90000FD10106CA0F4106490E100003F022E9C6
:102EA00008E0380003F022E904E0380003F022E9EA
:102EB00000E0FF20E076287DC006810F0B20205621
:102EC00015F0E0FBE0720720205615F0BFFBE07123
:102ED000F8BD304810B5C16944690A05120DD30820
:102EE000006ADB00E3180405240DA24205D101228B
:102EF00012031140104081420ED1586826490068E3
:102F0000000C884208D025490868401C0860002051
:102F100010F048FF002010BD012010BD204B002004
:102F200002000102C918401CFF280A60F9DD704741
:102F3000F8B50D0007001B4800260E80006B1549F0
:102F4000000C1431C860FFF7C4FF002820D0032014
:102F5000694603F0D4E804001AD04022210038006A
:102F600003F028E838002660FFF77CFFC047819512
:102F700001000000A42D00000002000085A78FAE14
:102F80006B461988E18026610221200021733900F7
:102F900040304031060003F050E83088001D2880A2
:102FA0002000F8BD0020F8BD940E0004EFBE000024
:102FB00054C801C000BD02C0C0A30080F1B56120AB
:102FC000C04384B00027039002900499B8004018D1
:102FD0000D2189014018846A002C7ED06078217808
:102FE00006020F200E4380010640F6D00520C001E6
:102FF000064208D00398623005D1049836F09FFA53
:10300000000400140390FF204130064208D00298CB
:10301000623005D1049836F089FA00040014029059
:103020000025300614D53021095D039A0120914214
:1030300000DD00208021009123002200010004987F
:103040005E33303201971EF031FE002800D080251B
:10305000B00517D53C210A5D039901208A4200DAA8
:103060000020012149020091230022000100049860
:103070005F333C3201971EF019FE002802D0012078
:1030800040020543700616D52A21095D029A0120E7
:103090004942914200DD002040210091230022009E
:1030A000010004985C332A3201971EF0FFFD0028CE
:1030B00001D040200543F00518D53621095D029A5C
:1030C00001204942914200DA0020FF262300761CAD
:1030D0005D3322003632010000E017E004980197CA
:1030E00000961EF0E3FD002800D03543002D0DD0E2
:1030F000002F0BD104981B214901401881892943D5
:10310000818101210498C90606F0EEFA7F1C3F0672
:103110003F0E012F00D258E705B0F0BDF3B50024F3
:103120000500260081B0A0000D214019890140183A
:10313000806A00284BD04178027809021143490780
:1031400045D50299096900290CD101006031330A83
:103150004E708B70C07C0A000121002800D0010055
:10316000117034E0010060318A784B7812021A4302
:10317000521C1204120C130A4A708B7096204C2CAD
:1031800001000000A02F000000020000714F311369
:103190000B78002B25D0877CBA4222D35B1E1A06FF
:1031A000120E0A701DD1320A4E708A70C27C002A3B
:1031B00001D00A7008E04178027809021143042224
:1031C00091430170090A4170002C0AD11B20400173
:1031D000281881890422114381815106280006F0B4
:1031E0008DFA641C2406240E012CA6D3FEBD43498F
:1031F000C868401CC8607047F0B51D001FB40020AF
:10320000C04384B00090019004980D2189014018BA
:10321000846A002C42D0607821780002084340057F
:10322000002700283ADA02F082EF069A0E002B00FF
:10323000121A8B41029005D2069A02983100801A28
:10324000A94107E0069A00980199801A029AA941BB
:1032500080187141060020000D004A3002F0C2EED5
:103260002B00321ABB411BD3244EF088401C0504AE
:103270002D0C20004E30F58002F0B4EEA8420DD89F
:10328000F78004981B21490140188189012292028C
:10329000114381810498510406F030FA09B0F0BD61
:1032A0001648C780FAE70D229201801810B5846A8B
:1032B000002C1FD06078227800021043400519D5F9
:1032C000487D02F038EF4034E179A2790B021343D4
:1032D0000A49002298420ED88888401C0004000C3D
:1032E0008880637A247A1B022343834202D8012018
:1032F00008818A8010BD0A81FBE70000B800000445
:10330000F8B504000020060000900D000127200001
:1033100000F0E2FEA879C00704D1002C04D0607A46
:10332000C00620D50020F8BD28002BF021FF002882
:10333000009023D000981FF07DFB040004D10320EF
:1033400000F0DAFE040019D02079022804D1200010
:1033500016F029F8002811D0207903280BD16079C4
:1033600000280BD007E0200034F090FE002801D0A8
:10337000022700E00127287BC00701D001261FE0BB
:103380002079290038F062FAB84219D9512B4849FE
:10339000010000009C310000000200000F5496A3C1
:1033A00001260727032800D0062760790C3502285C
:1033B00005D13A002900200019F0ACFC0AE0009881
:1033C00002F0C6EE002805D13A00290020000023B3
:1033D00002F0C2EE3000F8BD70B5050000F086FEC8
:1033E0000400280000F0A7FE0100C6684C30027DF2
:1033F00028000C318030012A0AD90B7D0722D20126
:10340000012B02D1A218926A07E0A218526A04E0C6
:10341000012A03D1C27E5200521C0A60818B0848E7
:1034200002F09EEEB0420AD3280016F0A1FA00285E
:1034300005D004480022415B280017F031F970BD27
:10344000881300001E02000070B5050000F073FE36
:103450000400280000F04AFE1122010052018918E0
:1034600049880C340020012903D1A16F012900D122
:10347000012070BD10B589780A07930F022B04D183
:103480000B09042B08D00C2B06D0920F02D109098E
:10349000052901D043F0D0FD10BDF3B583B006007F
:1034A00037000089002581190120019004980291BC
:1034B0002BF0D2FE0090049800F018FE0299CC6D1B
:1034C000A1780A07930F05D10909052902D1002027
:1034D000019060E0A179C90721D0CD218900401871
:1034E00000680028F3D0E078C009F0D1900F09D12E
:1034F0000498310016F01EF906000ED0A0780007DF
:10350000800F04D0300016F06BFA002805D1049823
:10351000310016F0F1FA00283DD001253DE0009879
:10352000007D0128D3D104984323DB000622A11D8E
:10353000C018FCF7D8FE0028C9D1A0780107890F70
:1035400013D100090C2806D1049816F083F9A0784D
:103550000007800F09D10498310016F0EBF806003F
:10356000DBD0A0780007800F04D0300016F038FAC6
:103570000028D2D10498310016F0BEFA00280AD0F3
:10358000012500F0BCF8002807D0022000F0FCFD67
:103590003DF07AFC01E0BE4224D0002F1A483CAD39
:1035A000010000009833000000020000FBBC281E50
:1035B00018D0A0780007800F07D00298049A6030D6
:1035C000007A0021FFF7F2F908E0002D06D0029AF8
:1035D0000498210016F0D4FF002803D00021380001
:1035E000FDF76DF9002D07D0002E05D0BE4203D0A7
:1035F00000213000FDF763F9019805B0F0BD10B56A
:103600002BF034FE0021603001734173817310BDD3
:10361000F8B50D0006001700FDF762F90400002E52
:1036200024D030002BF022FE6921495D312916D0CB
:1036300032291BD16030017B012917D1417B002940
:1036400004D0491E0906090E41730FD1012F0AD17A
:1036500028784107490F300016F070FD06E0300071
:10366000FFF7CDFF02E00021017381732000FDF719
:103670003CF9F8BDF3B581B00E0001982BF0F6FDD2
:1036800004003820805D45076D0F280002F022ED10
:1036900001000198002830D001980722D20180183B
:1036A000C06A002829D0200060300700007B012874
:1036B00023D0206F16F0FFFC00281ED0207D0128AB
:1036C0001BD13000403002F0A2ECC178C90614D5FD
:1036D00080780107890F02290FD1000900070CD556
:1036E00001203873A17FC80703D00198002207F09A
:1036F00016FA0198290016F021FDFEBD1E4800684B
:1037000070471D480068002801D101207047002043
:10371000704710B540F0DBFB002805D0FFF7F1FF44
:10372000002801D0012010BD002010BD10B540F0D0
:10373000C9FB002805D0FFF7E4FF002801D00120D5
:1037400010BD002010BD10B50400FDF713FF0028C8
:1037500005D1052C05D100F0BFF8002801D00020CC
:1037600010BD08F0D7FD002803D10448006B0028E5
:10377000F6D0012010BD0000D8B50400801300046D
:10378000154810B50068002816D1144800220068BA
:10379000462102F044EC00280ED111490A78002A93
:1037A00002D00870162005E00E490A7887A3F76F4B
:1037B000010000009435000000020000E244F66EB3
:1037C000002A03D008701B203FF06CFE10BD10B51E
:1037D0000A4CA088002807D0FDF7D6FE002803D0A9
:1037E00033F06CFF0020A08010BD000098B50400ED
:1037F00028B1040031B5040032B50400F8B5040066
:103800003649374A800009581258914201D20120A6
:103810007047334A121F1268002A06D0304A10320D
:103820001058814201D2022070470020704770B5C5
:103830002C4A0169914201D0002070BD2749C07B0C
:1038400010310C5CFDF756F8A100244B244C5A585B
:103850006458A24204D9224D2D1F2C68641C2C6090
:10386000521E5A50FDF74BF8E6E7FFB581B0002431
:1038700006001F001B48864206D0039A02993000BA
:1038800002F086EC05B0F0BDFDF734F8009038008A
:10389000FFF7B6FF05001CD0039A0299300002F032
:1038A00078EC040015D00D49E07B10310F54B800BE
:1038B00010390A58521C0A50607B0121084360737A
:1038C0000948022DA06104D10549091F0868401E5E
:1038D00008600098FDF713F82000D3E7B8670004EC
:1038E000800200042C010004033600000148808996
:1038F0007047000018B60400F0B591B000272DF015
:103900000DFCFF4D2C69FE4840300668300706D597
:1039100006F016FBFA490820C04340310860301E0B
:10392000F84E17DA14202DF08BFDF748C06B0028F5
:103930000CD0B068401CB060402011F011FCF04881
:103940004030416849004908416003E0EC49EF48D4
:1039500040310860EE4920000840EE4909780843EC
:10396000716A08437062FFF7D6FE002817D0706AAC
:10397000002814D1E848002200681B2102F058EB0F
:10398000716A08437062706A002808D1E248002218
:103990000068082102F04CEB716A0843706202F083
:1039A000FCEBE00101D5DD48286120060CD5DC48A0
:1039B0000168491C016008F0B7FC0028E7718647E0
:1039C00001000000903700000002000016AC48D350
:1039D00002D0042011F0CEFB3CF000FDA00301D585
:1039E000D5482861002C07DAD44807220068022154
:1039F000FDF750FECA482861200502D5D0480127AE
:103A00002861D048610110907ED50020029001907D
:103A100006AA07A90BA805AB39F0B0FC0028039053
:103A200011D00220074300068443C0432861079851
:103A30000C3000F0F5FB0028019004D103900699AA
:103A4000079802F0B8EB40F051FA002806D0BE49C2
:103A50000020C861BC49202040310860039800283C
:103A60007ED0FFF777FE00280AD0B848806C002887
:103A700004D101210198890305F068FE14F0D2FDFC
:103A8000019802F09CEB00286BD001980079012886
:103A900029D1079900294ED0019812311FF0AAFDB3
:103AA000002848D01099002002F0F8EA9B48C0385E
:103AB000806BA64900200865B06A00283BD1A44865
:103AC0000068401C37D001210198890205F03EFEB4
:103AD0000120B06201980F218901401880680421FB
:103AE00035F006F927E0002019F0CEFA029040F0F8
:103AF00002FA00281DD001983FF0E6FE009002F087
:103B00003EEB009AFF3200E0DDE0521C0F92D161E3
:103B1000906106990F9A4B68086853626B46106271
:103B20009A8A0C310C3A052002F04CEB0F9A8078FF
:103B3000906242F01BF93FF0A9FC0006000E0490D1
:103B40000B98C17E0A91C17A0991C1790891FFF75A
:103B5000C5F90B99019840F000FD0A990B9801E016
:103B6000AFE09EE0C1760999C1720899C17140F039
:103B7000C7F9002872D0FFF7D8FD00286ED0029850
:103B800000286BD00498002868D140F0B4F90028D0
:103B900064D1FDF703FD002803D12AF06BFD002856
:103BA0005CD0F069012807D06A480088002851D00D
:103BB0006948008800284DD06B469A8A06990C3ACD
:103BC0000C31052002F0FEEA010001984A44314B15
:103BD000010000008C39000000020000D1B54A8EBF
:103BE0003BF0FAF9009062480068002806D002F025
:103BF0002CEA022108430099084233D150480022A0
:103C000000681B2102F028EA00282BD1019810F04F
:103C1000FAFD002826D1574802F016EA009908421A
:103C200020D15248008800281CD0534900980842EF
:103C300018D16B469A8A0699019802F0D2EA0028B8
:103C400010D00220874319F023FA052002F0CCEAB5
:103C50000004000C052102F0CCEA0198012105F0D6
:103C60007FFD01E001203062002070620DE0FFE77F
:103C7000F069012807D03C480088002805D03B485F
:103C80000088002801D001203062019805F0A4F9D5
:103C9000002814D00498002811D0FFF750FD002808
:103CA0000AD034F051F9002806D134F06FFA002818
:103CB00002D10120306202E0082011F065FA306A7A
:103CC000012808D10020F06128490880022087439C
:103CD00003203FF0FBFB2948286120017ED528689E
:103CE000800705D5002101201EF044FE0B900BE05B
:103CF0002868C00773D030781EF058FE0B9015F07E
:103D000084FB0028F6D00B980028F3D00B98803065
:103D1000406B406820300A900B9835F001FF0A98FC
:103D2000807AC00760D02BE000A5008054B6040064
:103D3000C0A80080FFFFFF7F80880000A000000473
:103D400028B10400FFFFFFFE44B50400FFFFFDFFA4
:103D500028B80400FFF7FFFFAE74000400A600803F
:103D600068E403C050B604006C0B05000CB60400F8
:103D700044B10400F4B404000B800000FFFFFFFB1B
:103D80000B98407902282FD10B9815F03EFB0128A3
:103D90002AD10B9800F0D2F991218900099040189E
:103DA00008902030007900281ED0089A0899253202
:103DB0000B982D310E9202F020EA0998406C0028F1
:103DC00012D008990E9A0B982E313BF01DFC0998E1
:103DD000132149014018807D800701E002C15FF492
:103DE00001000000883B000000020000255DF43364
:103DF0008BE04EE002D50B9810F017FD0A98807A00
:103E0000800746D540F086F8002806D0C449002037
:103E1000C861C34920204031086014F051FCC148FA
:103E2000806B0C9014F060FB0B9802F0F4E90B9897
:103E300002F0F4E900282CD0BB4800680D90401C2B
:103E400027D0109802F00AE90C994018109902F056
:103E50003AE90100342805D1B06A002802D0B34AFB
:103E60000120106508000D99884212D3B06A00281D
:103E70000FD01099002002F026E901210B98490289
:103E800005F078FC0020B06202F0CCE9A7490020E0
:103E90000865FFF766FC002835D0022000F0A6F97F
:103EA00009903FF025FD0890099800F051F907901E
:103EB00009983FF00FFD069007203FF011FB98484E
:103EC0000169026A0698008802281CD1002901D0E5
:103ED000012A18D10898C030007E002813D1069816
:103EE0004068C00707D00798092189014018406A37
:103EF000002808D104E0FF2011F0C8F9002802D002
:103F000013203FF0EDFA8A482861A00101D58948C5
:103F10002861002F05D08848072200683900FDF786
:103F2000CDFBE0007ED53FF0F5FF002807D0012152
:103F30004904002005F01EFC7C480021816420F02B
:103F4000A5FC002801D020F083FA2868C0076DD0B6
:103F50007A48806A0006000E30701EF031FD0700BE
:103F600040D0FFF7FEFB002810D038003FF0B2FC35
:103F70007249496B327801239340194201D00021E4
:103F800000E00121817006203FF0AAFA3800A0303D
:103F9000017B491C0906090E0173C27A91427ED148
:103FA00000210173817A0029F9D16449496BC27CEF
:103FB00001239340FF22521C1343604A194351636B
:103FC000797902290ED15649C07C40318860544825
:103FD0000169006A012901D0012803D101213800BB
:103FE00015F05CFE3879032820D13800B5D2E8A757
:103FF00001000000843D0000000200003CA52A43AF
:104000001EF0C6FE0B907879022807D10B9820305D
:10401000807B800702D5380012F098FC0B988069ED
:1040200000050DD50821380002F00AE90B9801219E
:104030008069C902884301E004E001E00B998861CE
:1040400044482861E0020DD501201FF0FDFA002848
:1040500006D03B49012088648103002005F094FBD1
:104060003D482861E00702D00120C0432861A00735
:104070000DD57068401C7060102011F099F8022076
:10408000C04328610120C0038443C0432861200449
:1040900005D53248072200680121FDF719FB6007AA
:1040A00005D5F068401CF0600420C043286120075B
:1040B00000E022E005D53069401C30610820C04393
:1040C0002861E00605D57069401C70611020C0436E
:1040D0002861A00605D5B069401CB0612020C0430E
:1040E0002861F069002801D12DF014F81C49886876
:1040F0004A0D1043886011B0F0BD154B586B3178F4
:1041000001228A409043D90D0843586374E770B583
:1041100004000D00102017F0ADF9002807D1104958
:1041200001208002C86029002000FFF70DFC01205B
:1041300070BD000000A6008000A8008050B60400FA
:1041400068E403C0FFFFFFF7FFFFFFFD14B50400A5
:10415000C0A20080FFFFFFEFFFFFEFFF28B80400C1
:104160000028008001000020002906D00F230A79D2
:104170009B01C918022A01D108697047032AFCD1A2
:104180008869704770B50500FCF7DCFB78494C681E
:1041900007E02179A94203D1FCF7D9FB200070BDCB
:1041A0002468002CF5D1FCF7D2FB002070BD002163
:1041B00000280AD00279022A02D13D21090103E038
:1041C000032A02D17B21C90041180800704770B54D
:1041D00005000E00FCF7B6FB65494C680AE0A179C2
:1041E000A94206D1E179B14203D1FCF7B0FB20002E
:1041F00070BD2468002CF2D1FCF7A9FBE450C12962
:1042000001000000803F000000020000C84D94FE45
:10421000002070BD5B49022801D108697047C86859
:10422000704710B5FCF798FB5649496807E04A7A91
:10423000D20603D5FCF795FB012010BD09680029C3
:10424000F5D1FCF78EFB002010BD2030407DC0066C
:10425000C00F704710B5040002F000E80F2189017B
:10426000611808621F21002049016118087110BD02
:10427000F8B50700FCF770FB060042484325446888
:10428000ED000CE0062239006019FCF772F80028F6
:1042900004D13000FCF765FB2000F8BD2468002C39
:1042A000F0D13000FCF75DFB0020F8BDF8B505004B
:1042B0000F00FCF751FB06003248446810E02079FB
:1042C000A8420CD12000062239009E30FCF751F89C
:1042D000002804D13000FCF744FB2000F8BD24681E
:1042E000002CECD13000FCF73CFB0020F8BD70B591
:1042F00005004078002801D1002070BDFCF72CFBA0
:1043000006002048446814E02079012810D19A2042
:104310006A78005D82420BD12000A91C7A30FCF73C
:1043200028F8002804D13000FCF71BFB200070BDEA
:104330002468002CE8D13000FCF713FBDCE770B5F3
:10434000FCF70AFB05000F48446800E02468002CD5
:1043500009D0200001F086EF0128F7D12800FCF7F2
:1043600000FB012070BD2800FCF7FBFA002070BDA7
:104370000978C90701D000207047407A0007C00FB4
:1043800070470000A0020004002805D00F21890119
:104390004018C068002801D100207047007870479D
:1043A00003000A0000B5FFF7EFFF002807D00F2039
:1043B00080011818C16860205043AC30085C00BD13
:1043C00030B59200954C656A954C1219146B042215
:1043D000825E002A08D149004919A03189888B42A0
:1043E00004D2C91A818003E0002A01DA002030BD1E
:1043F0008188091B8180012030BDF8B584460120E9
:1044000000900C001F0000266046FFF75F7EEDEE77
:10441000010000007C410000000200002D1AC9F9D3
:10442000BDFF25006035002803D0604600790128D3
:1044300002D1002028722BE0FF2A26D00F21602312
:1044400089015A43604640181100C068A931AB3257
:10445000415C865C76484A00406AA432805A764ABB
:10446000904201D0002F02D1A088002810D03B003C
:1044700032002000FFF7AEFF002809D1A178012209
:10448000604601F0FEEE0020F8BD00200090F8BD6F
:104490002E720098F8BDF3B58DB00C0000260D68A3
:1044A0003021E86D0C901435684601F042EE200092
:1044B000694640F035F800246F4617E00D98FFF785
:1044C0006DFF0C9903000A88E96920000904090CB2
:1044D00001F0DAEE8619E869210002040D98120C49
:1044E00006F094FD8619385D401E3855385D002869
:1044F000E4D1641C2406240E2F2CF7D330000FB017
:10450000F0BDF8B504000F2208686023C56D0600F1
:10451000007892014007400F5843A118C968B23093
:10452000085C143683009A18891814F0BBFC070045
:10453000232000012018416BCC300B5CF0692A88E5
:1045400001041800090C012301F09EEE010038005F
:104550004843F8BDF3B581B00E000D68EC6D01F075
:1045600040EE0198FFF71AFF00283ED001980F2176
:1045700089014018C168306860230078228B4007A9
:10458000400F584312094018A030477A0282A078A1
:1045900000092AD0082801D00C2826D114207843FD
:1045A00044182079000720D5A868800004D5019818
:1045B0003100FFF7A6FF03E001983100FFF76BFF22
:1045C000218AC002000C00290FD0227D002A0CD1C4
:1045D000628A10180004000C8842608205D901200C
:1045E00020750198390046F0C5F9FEBD03000A00A8
:1045F00000B5FFF7D3FE002807D00F208001181860
:10460000C16860205043AE30085A00BD03000A0064
:1046100000B5FFF7C3FE002809D00F20F6BC1F1E0F
:10462000010000007843000000020000D9F2774446
:104630008001181860235A43C168AE32885A431C5F
:104640008B5200BDC006000480A20080FFFF000066
:1046500010B501F028EE10BDFFB5E1B00500002651
:1046600040685C9006205B965A90FCA0389605C87E
:104670000D960C9636923590088940180A90486934
:104680000B90FFF78DFD09902C686A981434E6288A
:1046900000D15A96002010900F900E90606880799B
:1046A000C107F0480B9904D00818C06800280FD043
:1046B00003E008180069002806D06C9908300860EB
:1046C00060688079C00703D10B98007AC0070CD0CE
:1046D0006C980068002808D10B98007A40077ED4B7
:1046E0000B982030407D0007F9D4280008305AAAE2
:1046F00035A96B46609007C30DAA5C996A9808AB10
:1047000001F0D4ED02006398002102606C9800680B
:10471000002803D0837ADB0700D0012163689E79EB
:10472000F30703D10B9B1B7A9B072CD5649B032BB0
:1047300029D00B9B20335B7D1B07DB0F109322D10D
:104740000B9B1B7A5F070CD5C379012B01D1012785
:1047500000E000270F970127022B00D000270E97BB
:1047600011E0DB0604D5002902D001230C930AE0F6
:104770000B9B1B79012B06D1002904D0C379022B96
:1047800001D101230E930B9F012320377F7D3F072B
:1047900007D4002904D0002802D0807A800700D4F2
:1047A00000236498032811D0002A06D10B98007AC0
:1047B00080070BD4F0073FD008E0002B06D0002084
:1047C000010010900E900F906C9801600C980028DA
:1047D0000AD063980068002806D0002000E02BE093
:1047E00001000C906C98016037AA38A901920091E1
:1047F0000C9B0E9A0F99109801F05CED0C98002814
:1048000006D030AB587F801C5877187F801C1877F3
:104810000E990F9808430C990843109908430ED03D
:1048200060684022C1781143C1706C98E5246B9692
:10483000010000007445000000020000C00AA93415
:104840000068002802D0807AC00702D1002065B03D
:10485000F0BD6A98E62802D06B98002801D00120AC
:104860000DE00B985A9AA030C0885B9000922E8978
:1048700030AB1A7F6D9933005BA801F02AEDA87266
:10488000E069C00502D50120A8722DE0A87A0128B0
:1048900027D960680422C1781143C1707748007934
:1048A000C0060AD40B98407902281AD1099813211E
:1048B00049014018007B000713D5208D8005400E6C
:1048C00003280ED96D494031897D490609D438F055
:1048D0001FFD4006218D800D7F22D20091430143B0
:1048E0002185A87A012812D108AB197D5C9830ABDC
:1048F00040185A99401A597F401A20380A9980085E
:104900008000703188425D9006D25D9104E00A9883
:104910007030800880005D905D985E9011A850AB6B
:10492000E860998D08AB187D5CAA04AE07C637A96C
:10493000609A5A9801AE07C65DAA0092A87A4AAA60
:1049400011A93AAB01F0C8EC0C9800280AD000205D
:104950003AAA04E0810053589B1E401C5350A97A88
:104960008142F7D8A97AE868491E01F0BAEC5A9A50
:10497000002A05D0E86835A98068801A01F09CEB10
:1049800067684A9860606A98E6280FD06B9801289B
:104990000CD03A98BA1D01040B98090C00F0EBFDFD
:1049A000002803D0E06901F0A0ECE061E06901219A
:1049B000890288430026E06101E10F99002907D0B0
:1049C000401EB04204D1B0003AA90A5808320A5039
:1049D000B0003AA95F9008580204120C3A80A87AF5
:1049E000401EB0424FD1F878FB210840F870E069D2
:1049F000810701D01E2100E01821091D511809046A
:104A0000090C61846D9A002A01D0891C61844105DA
:104A100008D50204208D120C8005410E0B9806F07B
:104A200009FBB880E06981060FD56D9A00925F9905
:104A30003AAA5158BB880A040104208D03F39F9BB6
:104A400001000000704700000002000034E21789F6
:104A5000120C8005090C400E06F04EFB1BE001060F
:104A600018D56D9A00925F993AAA5158BB880A04EA
:104A70000104208D120C8005090C400E01F042EC5F
:104A800009E00000AAAA03000000000040030000A3
:104A9000527400040020E0814AE0E069410510D52D
:104AA0006D9A00925F993AAA891849680204208D8C
:104AB0000B048005410E0B981B0C120C06F00FFB2B
:104AC000B880002E34D1E069810616D50204208D0D
:104AD000120C8005410E0B9806F0B6FA03006D9A91
:104AE0003A9800920204E069120C0104208D090C2E
:104AF0008005400E06F000FB19E0010616D5020401
:104B0000208D120C8005410E0B9806F09DFA0300D3
:104B10006D9A3A9800920204E069120C0104208D0B
:104B2000090C8005400E01F0EEEB00E00020A081B2
:104B3000288A4AA900090001304338835F9820225F
:104B40000858390001F0C2EA38AB1878012809D1B9
:104B50006C983AA902685F984AAB0958185801F056
:104B6000D6EB35E0022833D15F984AA9095839912C
:104B70003AA9085830AB197F401A39990004000C43
:104B80000880A97A491EB14202D1399908380880B3
:104B90000B98407902280BD139988079C00707D04B
:104BA00009980721C9014018408803061B0E00E040
:104BB00000236C98E97A02683998FFF75DFDA87ABE
:104BC000401EB04204D139983999008808300880D5
:104BD000761CA87AB04200D9F9E66E9800280AD06F
:104BE0006E9830AB597F80304176997F81760E99EF
:104BF000C1610C9901625E9833E6FFB58BB0050088
:104C000040680990062008904A48169F03C88037DC
:104C10000690002007910590F86904903E6A0120F3
:104C2000A8722C6814981434E62801D1002008904A
:104C30000C980D21890140180069002802D01599AF
:104C4000083008602800083008AA06A946A43514D0
:104C5000010000006C49000000020000F3FB15D4C5
:104C60006B4607C305AA0999149803AB01F03CEB06
:104C70000D9902000860159800210068002803D0F3
:104C8000837ADB0700D001210C9B8C4620335B7DAF
:104C900001211B0708D46346002B04D0002802D052
:104CA000807A800700D400210E9803280DD0002AB6
:104CB00006D10C98007A800707D400200FB0F0BD11
:104CC000002902D0159900200860002E06D00D980A
:104CD0000068002802D0159800260660049830432A
:104CE00004D060684022C1781143C170797EBA7ED9
:104CF00028898918089A6B4610180D18197D09988B
:104D00004018801A002A0A9003D00A9806A901F0D8
:104D1000E8E9797E0A98401A203861680700002E79
:104D2000606000D0AD1E0D801E35E3692A04120CB0
:104D30009B0702D0921D1204120C6284202201F003
:104D4000D0E93800BAE70000A4470000F0B500261B
:104D5000B5B01C961B960022D243FD480092006914
:104D60000822032134ABFCF7E3FC34980028F2D08E
:104D700080072BD568461A9023E0062001F084EACC
:104D80000004000C062101F084EA1A9C20000C307B
:104D9000FFF7A0FA05002100FEF734FB012810D030
:104DA000002D0ED0A0780007800F012809D12A6BB2
:104DB0000AA9002A02D02800904702E0280029F022
:104DC00025FF0AA838F05AFB0028D6D13498C0072E
:104DD000C1D09CE21D981F9F4469FBF7EFFD0500C1
:104DE000002F06D01D9800F014FB002801D00120F0
:104DF00000E000201E902800FBF7E5FD012020AB1D
:104E00003390587D2399000208431D99FD6D488118
:104E10001E9800285FD0002C02D1FBF7CFFDFEE7E3
:104E20001F9920001FAA21F019F8012803D11D980D
:104E300000F0D6FA6BE22398002807D1A878000783
:104E4000800F022802D1200024F0AAFB207901283B
:104E500006D1F86D8079C00702D120001BB94749FF
:104E600001000000684B0000000200000713AB695E
:104E7000FFF72CFAA879C0071BD16079022818D156
:104E80001F9901222000FEF73BFCA8780007800F45
:104E9000022805D12398002802D12000FEF71EFB2E
:104EA0002000FEF753FB002803D029002000FEF766
:104EB00063FBFEF7A6FC002817D01F986030407AED
:104EC000142812D0152810D035280ED02398002889
:104ED0000BD1A8780107890F02D10009052804D059
:104EE0000220FFF7D3F93CF051F8B86800011BD558
:104EF000239800280CD1002C16D00D2080012018FA
:104F0000406A002810D06030818B491C81830BE0FF
:104F1000002C09D00D2080012018406A002803D001
:104F20006030C18B491CC183B86880001E984DD584
:104F300000284AD01FF0FAFC002801D01FF0DCFB4B
:104F40001F9822006030007A1FA9FDF7A7FDFEF729
:104F500050FC00281BD0E878C006C00F401E20433C
:104F60000AD12079012807D033F0FAF9002803D1BB
:104F700033F0A2F900280AD07B480168491C01607F
:104F80003BF076FFB868002801DA3EF059FC22F0C9
:104F900043F833F091F900280FD033F051F900288D
:104FA0000BD172480078002807D0714800680328A8
:104FB00003D2002120003BF04DFA1D980021FBF7A1
:104FC000F6FC20001FA901F0BAE9A4E100287ED078
:104FD0001FA825F027F8002C00D02079B8680028F9
:104FE00001DA3EF02DFC1FF0A1FC002805D068205E
:104FF000C05D072801D81FF07FFBA87801078A0F42
:10500000022A72D120001FA9FEF71EF91F98220064
:105010006030007A1FA9FDF741FD20001FA93FF075
:1050200008FB54498872000AC87220001FA901F0C9
:1050300086E920001FA9FEF7C2F96079032801D094
:10504000012803D120001FA9FFF7B6FAFEF7D1FB14
:10505000002813D0E878C0060AD52079012807D0A7
:1050600033F07EF9002803D133F026F90E3A51C50A
:1050700001000000644D0000000200001EEB7519E5
:10508000002805D03D490868401C08603BF0FAFE46
:1050900021F0CCFF33F01AF900280FD033F0DAF802
:1050A00000280BD136480078002807D03548006822
:1050B000032803D2002120003BF0D6F9FEF7ABFB1A
:1050C000002820D01F986030407A14281BD120007F
:1050D0003EF05AFC23990088002911D1022803D1FF
:1050E00000E01EE113260EE020003EF05BFC06000F
:1050F00001F0B2E88036F164B0641E2603E080E07F
:10510000022800D01F26A8780009042801D00C2806
:1051100029D16037787A13284CD015DC102839D083
:10512000112820D012281ED1239800281BD120F04E
:1051300027F9002817D0E878C00614D501F08CE8CC
:10514000124A516510650EE0152823D0162838D074
:10515000352808D12398002805D00D480122015B8D
:10516000200015F029FB1F986030407A30282CD1A0
:105170001D9829F0E9FFD8E018B8040048B50400EC
:1051800033B5040050B50400A274000440130004B9
:105190001E02000023980028E87805D1C00601D53A
:1051A0000E26E0E70D26DEE7C00601D51126DAE778
:1051B0001026D8E72398002801D12F26D3E73026E0
:1051C000D1E723981FF010FCCDE7372805D11D99B2
:1051D00020000EF049FF0028CDD1A878000904284E
:1051E00006D00C2804D01F986030407A5A2803D18A
:1051F0001D9800F072EF98E01B991D98FBF7E1FBFA
:1052000093E0890F49D1617902291DD11F9A2900A4
:10521000200015F037FA3390A87800090D2836D110
:10522000239801273900002800D000211D9823F081
:1052300061FFA87800090D2829D12079032826D1FB
:1052400039001EE000211FE0030901F086E80E206E
:105250002020202020202020082020200D20002099
:10526000339013F09BF812E02398012529000028C1
:1052700000D000211D9823F03DFF2079604921B71F
:1052800001000000604F000000020000EA03CBA410
:10529000032806D1290023980028DDD11D9801F0AC
:1052A0006AE80020349033980028ABD147E0012A07
:1052B00045D10009082838D00A2802D00E28A1D0EC
:1052C0003DE0FBF799FB050020F08CFF374A107892
:1052D000002809D036498868401C886000200100F9
:1052E000107020003BF0CAF81D9800F000EF2398E2
:1052F000002814D01C980A2811D20FF0D1FF0028E2
:105300000DD11C98401C0006000E1C9020F05AF88D
:10531000002806D1012120003BF0B0F801E0002078
:105320001C902800FBF76DFB09E0290020001FAA54
:1053300030F006F966E71E490868401C0860002E38
:1053400003D030003EF030F900261FA800F0C5F968
:1053500000281D9000D05BE51FF0FCFA002811D05A
:1053600020F040F8002807D01FF0EEFA114A5369E8
:105370001269121A8B4103D321F0F2FC002801D0EC
:105380001FF050F90D490C4808610D48016940694A
:10539000814200D1FDE4064807224168491C416072
:1053A00000690121FCF7EEF9F3E4000062B20400A9
:1053B00018B8040018FE0400FF7FFFFF00A500805E
:1053C00000A0008010B5040005F00AFC002801D1FF
:1053D000012200E00022002A16D1294B2069E17B3E
:1053E000984201D100200DE0264B984201D1402087
:1053F00008E0254B984201D1472003E0234B984217
:1054000002D14C20FF2905D15020002A01D00121D2
:1054100000E0002140180006000E10BDF8B50500A0
:10542000FFF7D0FF1A49C00044182068194E002821
:1054300003D0B088401CB080F8BD68462560FBF7FB
:10544000E4FA009860603078401C3070F8BD10B508
:105450000400FFF7B7FF0E49C000401802680D496D
:10546000A24204D0C888401CC880002010BD002281
:1054700013000CC00878401E0870012010BD000009
:105480002C01000468010004F8010004345AB02221
:10549000010000005C5100000002000094186C1430
:1054A00048020004687000042CB80400F0B594466B
:1054B0005A681D6814062E06240E360EB44203D216
:1054C0002700F837B74205D9B44205D9320008326F
:1054D000944201D80020F0BDCC4A09021268314341
:1054E000114308602D1DE805C00D614609040843FD
:1054F00018600120F0BDD9E7F8B504000F001600D0
:10550000FBF784FA1437002C00900CD06079022845
:1055100009D0FDF712FC0100380000F03AEFBC4959
:105520000A6880180860BB48B4000559092E18DCC9
:10553000B9480159002914D0B8490959012908D19D
:1055400002E0300038F06EFAB34800590028F8D174
:1055500007E000210151B04850300059C105C90D84
:105560002960AE48005901280CD1788C0421091A11
:105570008907890F0A18121D2B0031003800FFF728
:1055800095FF1AE01FF0F0F9002809D01FF034FF52
:10559000002805D0082E03D1310038001FF052FB3F
:1055A00000222B0031003800FFF780FF002804D1D3
:1055B0000098FBF730FA0020F8BD0098FBF72BFAB3
:1055C0000120F8BDC03010B5027C0100407C824251
:1055D00001D3100010BD887CC97C8842FAD200F04B
:1055E000DCEE002801D1032010BD092010BD70B5EC
:1055F000040010780D001100C00719D1207901288E
:1056000002D06079022803D12000FEF70BFF02E0F0
:105610002000FEF713FF0006000E01D01E2000E060
:105620001C20A034A1882818884201D9012070BD0F
:10563000002070BDF8B505001400D0698F78C00453
:1056400007D488688000C10F28000EF027FAE062B6
:10565000F8BD3900280029F0BCFE0606360E0020F1
:10566000002E02D1280023F083FA03006C48390091
:1056700000798006C20F00923200200000F090EE08
:105680001D2040012818007EC10701D18007DFD509
:10569000208D20348005410E207AC00711A939DE03
:1056A00001000000585300000002000060F0D2A981
:1056B000C00F42F06FFE0028A07A02D040210843BC
:1056C00001E0BF210840A072F8BD70B50400008958
:1056D00006192000FFF7B6FE3500603508E020000F
:1056E000FFF7C9FE012007F006FF2000FFF7AAFE22
:1056F0002A7A60693100FFF709FF0028EFD0012006
:1057000070BDFEB50121040000202161060020606B
:10571000FBF786F901904248016802694769D005A4
:10572000FA05C00DD20D90425ED03806000E084337
:105730000D21090208430568002D50D0502120009A
:1057400000F050ED286C2060C16D060089781C3E89
:105750000907890F71690091E96961606A88D20758
:10576000D20F22618068800039D42878207368784D
:105770006073C80415D5288D8005420E280020309E
:105780000290007A4107C007C90FC00F00F016EE63
:10579000207560750298807A0007000FA0750020C0
:1057A00000E0E86AA0606888C00714D12061216821
:1057B000012012F0F9FF0098002810D02068C06D79
:1057C00080780007800F022809D16B692A69009848
:1057D000FDF7C6FD03E02168002012F0E5FF3F1D44
:1057E0000F49F805C00D48610198FBF71EF930001C
:1057F000FEBD38B504000D0000F04CED042220661B
:10580000A25E0092020028000B0000F0DCEDA088F0
:10581000002804D068880121C9030843688038BD86
:1058200000A000804CB50400F4020004A0CF03C027
:10583000700B00045274000402000021012010B516
:1058400000F0CCEC054A1368526818400023114060
:1058500059405840084300D0012010BD98C20400B0
:105860000748807C002808D1054800234038C16ED5
:10587000806E59405840084300D001207047000016
:1058800080370500F8B505000024FE4F012806D139
:105890007D21FD480022090100F010ED0EE0022DEF
:1058A00031D1B888800702D5398A0022D84B8E9032
:1058B00001000000545500000002000079080CD9D6
:1058C00002E0F74800220188F6480023FEF76DF851
:1058D000040022D00820F04E2073AC20183E022D88
:1058E000208111D1B888800703D521003A8AAC31D4
:1058F00003E0EB4821000288AC3128000FF0A6FF3E
:10590000B068401CB06008E02100E74AAC312800D4
:105910000FF09CFFF068401CF0602000F8BD70B5EF
:105920000025DD4C183C25806068002802D000F07E
:1059300058ED6560D84CA088C00703D00121022033
:105940000FF030FEA088800703D5002102200FF061
:1059500029FE002070BD38B504200090FBF76AF8DE
:10596000D24C050020680022442100F002EC20689F
:1059700014216A4600F0FCEB2800FBF760F838BD04
:1059800010B5FDF7F4FFCA4810BD70B50024C24D34
:10599000C849183D122202206C600FF065FF2C8070
:1059A00070BDF8B50400BC4DA889002831D06889C5
:1059B00001282ED92F00183F7868002803D000F066
:1059C00010ED002078603888401C0604360C3E80BC
:1059D0006889B04209D82989200000F076EC0029B6
:1059E00000D1A41C0020388013E02F89200039004A
:1059F00000F06AEC002901D0781A0419002E08D0B2
:105A0000A54B00220092AA89AB480021143B00F06C
:105A1000ECEC2000F8BD70B506000C0058D0022B4D
:105A200058D0032B0ED0052B52D1202025182081D1
:105A3000E878A9780002084317D12000FBF732F874
:105A4000012070BD2089002204199C48251F286070
:105A50004421300000F08CEBE078A178000208438C
:105A6000001D0204120C29004AE0FDF7DFFF0028A8
:105A700004D09348210000F004EC29E086492C0072
:105A8000183908690022401C08614421300000F0E8
:105A900070EB8148A9788088C007E8780AD00002B6
:105AA000084369792A790906091411434018FFF758
:105AB00078FF07E00002084369792A79B327CB29E8
:105AC0000100000050570000000200008DE0B264A9
:105AD00009060914114340180204120C2100022087
