:1000000010490B00011500011605011000011140F7
:10001000C107C105790C590B00C106020B00000194
:100020000800010900A9106B0A0090E6007410F0A6
:10003000120EE790E60B7401F000A4107B0A00009A
:100040000090E61274A2F000000090E61374E2FE45
:10005000108B0A00F000000090E614F00000009001
:10006000E615F00076109B0A00000090E60474800C
:10007000F00000007402F000008710AB0A0000746A
:1000800004F00000007406F00000007408F0FD1099
:10009000BB0A00000000E4F000000090E6187411B4
:1000A000F000005410CB0A000090E6907480F0003D
:1000B000000090E691F000003A10DB0A000090E6A4
:1000C000197409F0000000E490E622F000A310EBA0
:1000D0000A00000090E6237404F000000090E61A85
:1000E0007409ED10FB0A00F0000000E490E624F033
:1000F00000000090E625747E100B0B0040F000001D
:100100000090E61B7409F0000000E49038101B0B0F
:1001100000E626F000000090E6277440F0000000A2
:10012000533A102B0B00807F43B280E4F5B6F5B450
:1001300090E668E054FC000E3B0B00F0000000531A
:10014000E8FB0000001212BC22841014040090E6A8
:10015000F4E030E00AE5AA20E30575390180AE102D
:100160002404003790E6F4E030E20AE5AC30E5051F
:10017000753902D010340400802630070575392007
:10018000801E90E6F4E030E10F104404000AE5AC74
:1001900030E105753904800DE5AB20E105221054EE
:1001A00004007539088003753910E53924FE7003A1
:1001B0000205E7106404000224FE700302054524D2
:1001C000FC7003020585246210740400F8700302B9
:1001D000067524F0700302060F241F604F1084047C
:1001E00000030206AD90E6F3E0547FF000000090BB
:1001F000E62E10940400F074FFF090E6F174ECF039
:10020000E5BB30E7FB009C10A404000000E490E68E
:10021000D0F000000090E6D104F000F310B4040028
:10022000000075BB05000000E5BB30E7FB000000E7
:100230005110C4040090E6F3E0547FF000000090F9
:10024000E6F074FFF05310D4040090E6F174EEF081
:10025000E5BB30E7FB000000E4903910E40400E661
:10026000D0F000000090E6D104F000000075BBF76C
:1002700010F4040005000000E5BB30E7030206AD02
:1002800080F600000E100405000090E6F3E0547FB5
:10029000F000000090E6F074FF0210140500F090EA
:1002A000E6F174F2F0E5BB30E7FB00000090E810E7
:1002B000240500E6D0E510F000000090E6D1E5113D
:1002C000F00000FF103405000075BB07000000E5DA
:1002D000BB30E7030206AD809110440500F690E6BE
:1002E000F3E0547FF000000090E6F074FFCC10546F
:1002F0000500F090E6F174E4F0E5BB30E7FB0000A8
:100300000090B610640500E6D0E510F00000009003
:10031000E6D1E511F00000BF107405000075BB06C2
:10032000000000E5BB30E7030206AD8052108405F3
:1003300000F600000090E6497402F000000090E62C
:10034000F3E310940500E0547FF000000090E6F025
:1003500074FFF090E6F18410A4050074F4F0E5BB9E
:1003600030E7FB00000090E6F1E0F50110B4050075
:1003700008E5BB30E7FB00000090E6F2E0FF90E606
:10038000C010C40500F0E0F534EF30E1030206AD23
:1003900090E6F3E054D910D405007FF000000090FF
:1003A000E6F074FFF090E6F174EA1A10E40500F04C
:1003B000E5BB30E7FB000000E490E6D0F000004B26
:1003C00010F405000090E6D17420F0000000E4F580
:1003D000BB0000009810040600E5BB30E7FB0000FE
:1003E000000206ADE4F537F538421014060090140B
:1003F00087E0FFA3E0F535A3E0FEC313F5369D10BB
:10040000240600EF30E03930E104D2058002C20555
:10041000E535D36C103406009401400DE53514FD2C
:100420007A147B8AAF3612120D10440600047489C8
:100430002535F582E43414F583E0F50FD27A1054B3
:100440000600057A147B88FDAF361211E88010E4AF
:10045000F50F9B10640600D2057A147B8AAD35AF88
:1004600036121204C20780E41074060038300235D8
:10047000300632D3E5139400E5129400851084060B
:1004800000501FE5B120E10DE58054246424601A7A
:1004900043311094060080248015E5805424FFBF6A
:1004A000240D5380DB80230CA4060008E5131513EC
:1004B000700215120000008901B00600222705C451
:1004C0001200438080D322ED05C9120053807FD3F0
:1004D00022D902FE0C00D322FF08F60C0090E6BAE7
:1004E000E0F514D322E81090120090E740E514F0F4
:1004F000E490E68AF090E68B04F0E502A01200D3C7
:10050000225708B4120090E6BAE0F50ED3222A1062
:10051000A2120090E740E50EF0E490E68AF090E643
:100520008B04F0D902B21200D3224502D21200D3BA
:10053000222502D41200D3222302D61200D3222174
:100540001080000090E6B9E0120FAC00AC1000D2B1
:1005500012011C14C310900000016D20019D2101A7
:10056000EB22027724033B25030210A00000E130B8
:1005700003904003BF41000003FF00000090D7102C
:10058000B00000E6047480F00000007404F0000085
:100590000074069010C00000F00000007408F00025
:1005A0000000E4F000000002FE10D0000004019002
:1005B000E6F3E0547FF000000090E6BDE0FC10E0C0
:1005C000000090E6F0F090E6BCE090E6F1F0E5BBCC
:1005D00030E79A10F00000FB00000090E6F3E044E2
:1005E00080F000000090E69210000100BBE090E671
:1005F000F0F090E6BAE090E6F1F0000097101001FC
:100600000000E5BB30E7FB00000002040190E6F3C8
:10061000E0DD10200100547FF000000090E6BDE016
:1006200090E6F0F090E62D10300100BCE090E6F18D
:10063000F0E5BB30E7FB00000090E6A410400100AD
:10064000F1E0F509E5BB30E7FB90E6F2E090E7402A
:100650002F10500100F090E6F0E090E741F0E490B8
:10066000E68AF090E677106001008B7402F090E665
:10067000A0E04480F0C32290E6BADF10700100E0F1
:10068000F53490E6BEE0F535E490E68AF090E6EECB
:10069000108001008BF090E6A0E020E1F97AE77B82
:1006A00040AD35AF57109001003412120490E6A00F
:1006B000E04480F0C32290E6BA4410A00100E0F5C7
:1006C0003490E6BEE0F53590E6A0E020E1F91810A0
:1006D000B00100E4F536E536C39535501274402577
:1006E00036F582A010C00100E434E7F58374CDF044
:1006F000053680E77AE77B40C910D00100AD35AF01
:10070000341211E8E490E68AF090E68BE59510E06B
:10071000010035F090E6A0E04480F0C32290E6BAF4
:10072000E0F55610F001003490E6BEE0F53590E6B5
:10073000A0E020E1F9E4F5C41000020036E536C37C
:100740009535501274402536F582E43410101002AD
:1007500000E7F58374CDF0053680E7E4F53690E6E2
:10076000BB6C10200200E0601590E6BDE0FFAE36E5
:10077000053674C72EF5EA1030020082E43414F511
:1007800083EFF090E6BCE0FFAE3605BF10400200FC
:100790003674C72EF582E43414F583EFF07A147BB7
:1007A0000C10500200C7AD36AF341212047AE77B4A
:1007B00040AD35AF3408106002001211E8E490E655
:1007C0008AF090E68BE535F090E62E10700200A0DE
:1007D000E04480F0C322E490E68AF090E68BF0A03B
:1007E0001080020090E6A0E020E1F990E6BEE0F57E
:1007F0000F90E740AF10900200E030E02BE4F536B8
:10080000E536C3950F400302036A10A0020030745E
:10081000402536F582E434E7F583E0FF748747101E
:10082000B002002536F582E43414F583EFF0053686
:1008300080D890C610C00200E741E02402F535E4FC
:10084000F536E536C3953550CF10D002001E744002
:100850002536F582E434E7F583E0FF74872910E05C
:1008600002002536F582E43414F583EFF005368076
:10087000DB74AF10F00200402536F582E434E7F572
:1008800083E0FF90E741E0FE100003002F14901476
:1008900088F0E50F14F535E536C39535B41010032F
:1008A00000501E74412536F582E434E7F583E0FFFD
:1008B000741E10200300872536F582E43414F58376
:1008C000EFF0053680DB5B10300300D20790E6A026
:1008D000E04480F0C322300710E4909A10400300F7
:1008E000E740F090E68AF090E68B04F0802D90E7E8
:1008F0008D10500300407401F0F536E536D3950FA6
:10090000501E748725AD1060030036F582E4341460
:10091000F583E0FF74402536F582D710700300E4BC
:1009200034E7F583EFF0053680DBE490E68AF0BD2E
:1009300010800300E50F0490E68BF090E6A0E04401
:1009400080F0C322F51090030090E6BAE0547FF5E2
:1009500080A3E04480F5B23002E510A0030060E51A
:10096000805424FFBF240D2006067512807579106F
:10097000B003001300D206804BC206E4F512F51353
:100980008042907A10C00300E740E5B1F0A3E58013
:10099000F0A3E50AF0E490E6AC10D003008AF090F2
:1009A000E68B7403F090E6A0E04480F0C3CE10E044
:1009B00003002290E740E516F0A3E515F0E490E689
:1009C0008AF0E810F0030090E68B7402F090E6A045
:1009D000E04480F0C322C3441000040022E490E607
:1009E0008AF090E68B04F090E6A0E044C703100480
:1009F0000080F0C3B60113040022C610201200C00C
:100A0000E0C083C082D2015391EF90E65D7401ABE8
:100A100008301200F0D082D083D0E0323F10501264
:100A200000C0E0C083C0825391EF90E65D7404F093
:100A3000D08B0660120082D083D0E032D1106612D3
:100A400000C0E0C083C0825391EF90E65D7402F075
:100A5000D0770676120082D083D0E032BB10B71078
:100A600000C0E0C083C082852A26852B2785278287
:100A700085A510C710002683A37402F0852228855F
:100A80002329852982851210D710002883A3740793
:100A9000F05391EF90E65D7410F0D06606E7100019
:100AA00082D083D0E0324C10381200C0E0C083C046
:100AB00082D2045391EF90E65D74088908481200D1
:100AC000F0D082D083D0E0322710D20F00C0E0C037
:100AD00083C08290E680E030E74B852226E510E275
:100AE0000F00852327852782852683A37402F0853E
:100AF0002A28F410F20F00852B2985298285288366
:100B0000A37407F075100221100210007511000087
:100B1000000090E6247402F000000090C81012104B
:100B200000E625E4F000000090E6267402F00000E4
:100B300000ED1022100090E627E4F0000000539131
:100B4000EF90E65D74201308321000F0D082D0835D
:100B5000D0E0323F01D8120032E301D9120032E274
:100B600001DA120032E101DB120032E001DC120096
:100B700032DF01DD120032DE01DE120032DD01DF84
:100B8000120032DC01E0120032DB01E1120032DA45
:100B900001E2120032D901E3120032D801E412005E
:100BA00032D701E5120032D601E6120032D501E754
:100BB000120032D401E8120032D301E9120032D21D
:100BC00001EA120032D101EB120032D001EC120026
:100BD00032CF01ED120032CE01EE120032CD01EF24
:100BE000120032CC01F0120032CB01F1120032CAF5
:100BF00001F2120032C901F3120032C801F41200EE
:100C000032C701F5120032C601F6120032C501F7F3
:100C1000120032C401F8120032C301F9120032C2CC
:100C200001FA120032C110CA1100C0E0C083C082B4
:100C300090E6F574FFF000000053CF0EDA1100913A
:100C4000BFF5A2000000D082D083D0E03299107CA2
:100C50001200C0E05391BFE5A04480F50AE5B1441D
:100C600080F588048C12000DD0E0326F0AF60B007C
:100C700000010202030304040505D802650B00C14C
:100C800002CB10B80D00E4F533F532F531F530C282
:100C900004C200C203C29E10C80D0001120A6B7587
:100CA000240C752500752C0C752D12F310D80D0031
:100CB00075220C75231C752A0C752B4A752E0C7524
:100CC000FB10E80D002F78D2E843D82090E668E0CA
:100CD0004408F090E6EF10F80D005CE0443DF0D2DF
:100CE000AF90E680E020E105D2080710080E001260
:100CF000111F90E680E054F7F0538EF8C204E5032C
:100D000010180E00B154C0FFBFC002D2023001055E
:100D10001206B1C2F010280E00013004291212C4CC
:100D20005024C2041211A520005210380E00169053
:100D3000E682E030E704E020E1EF90E682E0F9109F
:100D4000480E0030E604E020E0E412114E1212C911
:100D50001204143402580E0080C751015A0E0022AA
:100D60007510B1060090E6B9E0700302078D1470AB
:100D700003020836243610C10600FE70030208CBB9
:100D800024FB70030207871470033A10D106000297
:100D9000078114700302077514700302077B245B3C
:100DA00010E10600056003020937120CFE40030241
:100DB000094390E63C10F10600BBE024FE602C14D1
:100DC000604724FD6016146031B910010700240645
:100DD0007066E52490E6B3F0E52590E6B4F0A21045
:100DE000110700020943E52C90E6B3F0E52D90E6EB
:100DF000B4F00232102107000943E52690E6B3F073
:100E0000E52790E6B4F00209271031070043E528F2
:100E100090E6B3F0E52990E6B4F0020943D9104119
:100E2000070090E6BAE0FF12117AAA06A9077B0133
:100E3000EA49ED105107004B600DEE90E6B3F0EF7C
:100E400090E6B4F0020943821061070090E6A0E04A
:100E50004401F002094390E6A0E04401D410710778
:100E600000F00209431212A20209431212B402094D
:100E7000430010810700120CF6020943121290027F
:100E800009431212D240CE10910700030209439089
:100E9000E6B8E0247F602B14603C24F710A1070023
:100EA00002600302082CA200E433FF25E0FFA20346
:100EB0004C10B10700E4334F90E740F0E4A3F0900A
:100EC000E68AF090E64E10C107008B7402F002092A
:100ED00043E490E740F0A3F090E65510D107008A74
:100EE000F090E68B7402F002094390E6BCE0548374
:100EF00010E107007EFF7E00E0D3948040067C0076
:100F00007D0180048210F107007C007D00EC4EFE24
:100F1000ED4F24F6F582740B3E3D10010800F58379
:100F2000E493FF3395E0FEEF24A1FFEE34E6981042
:100F30001108008F82F583E0540190E740F0E4A3AC
:100F4000F090E685102108008AF090E68B7402F09C
:100F500002094390E6A0E0445E1031080001F0026F
:100F600009431212D4400302094390E6B8C110416C
:100F70000800E024FE601D2402600302094390E69D
:100F8000BAE04110510800B40105C20002094390C3
:100F9000E6A0E04401F002A010610800094390E6D9
:100FA000BAE0705990E6BCE0547EFF7E01107108F3
:100FB0000000E0D3948040067C007D0180047C002A
:100FC0007DF31081080000EC4EFEED4F24F6F58213
:100FD000740B3EF583E4491091080093FF3395E0CC
:100FE000FEEF24A1FFEE34E68F82F55E10A108002B
:100FF00083E054FEF090E6BCE05480FF13131354DA
:101000003010B108001FFFE0540F2F90E683F0E08E
:101010004420F002097F10C108004390E6A0E0449C
:1010200001F080781212D65073907410D10800E647
:10103000B8E024FE60202402706790E6BAE0B4367F
:1010400010E108000104D200805C90E6BAE064027E
:10105000605490E6B410F10800A0E04401F0804B29
:1010600090E6BCE0547EFF7E001610010900E0D33C
:10107000948040067C007D0180047C007D0062102D
:10108000110900EC4EFEED4F24F6F582740B3EF58F
:1010900083E4932510210900FF3395E0FEEF24A19E
:1010A000FFEE34E68F82F583DD10310900E0440164
:1010B000F0800C120080500790E6A0E044F2094155
:1010C000090001F090E6A0E04480F012014A090016
:1010D000228A033300000212CEE804CE120053D855
:1010E000EF32D010670B006080140003013801015B
:1010F000010107000201004010770B000000000012
:10110000FAFAFBFBFBFBFBFB36092D2DFF10870BCF
:10111000002D2D123F0101380101010107020207D4
:10112000026110970B0000000000F9FBFBFBFBFBCA
:10113000FBFB09092D2D0C10A70B00002D363F03DA
:10114000013F0101010107000201004B10B70B0034
:1011500000000000FAFAFBFBFBFBFBFB36092D2D20
:10116000BF10C70B002D2D123F19023F023F010196
:101170000703020706BD10D70B0001000000FBFFAC
:10118000FBF9FBFBFBFB3F2D2D2D6D0EE70B002D1F
:101190002D363F471480E00000FB06E4118010E785
:1011A0000E0090E60174C2F090E6F574FFF0901422
:1011B00080E08C10F70E0090E6F3F0901481E09040
:1011C000E6C3F0901482E05E10070F0090E6C1F0D5
:1011D000901483E090E6C2F0901485E07B10170F26
:1011E0000090E6C0F0901486E090E6F4F075AF074A
:1011F00074A110270F0014F59A7400F59B759DE4F7
:10120000E4F59EFF90E63110370F007BE090E67C1E
:10121000F00FBF80F4E490E671F0F57B10470F000B
:10122000B490E672F0F5B600000090E6C4F000005D
:101230003905570F000090E6C5F06A015C0F0022E7
:101240007210000C0012010002FF00FF403B090475
:10125000A101000102A410100C0000010A06000206
:1012600000000040010009022E004710200C000180
:101270000100C0320904000004FF0000000705B4AB
:1012800010300C0002020002000705840200020078
:10129000070586028610400C000002000705880240
:1012A00000020009022E000101CF10500C0000C006
:1012B000320904000004FF0000000705020282104A
:1012C000600C00400000070584024000000705860E
:1012D0000240009E10700C000007058802400000CC
:1012E00004030904100350002710800C004C004533
:1012F00000580054004F005200300350000310907B
:101300000C006C006500780074006F007200200013
:1013100043005310A00C006F006E00760065007251
:10132000007400580020002E0EB00C00540056002F
:1013300034003000320055000000A10343000002D9
:101340000D00AB0353000002127C1A10000D0002C6
:1013500012200002126600021250000212380085AC
:1013600010100D000210B700020FD2000212D800B8
:101370000212D9004E10200D000212DA000212DB18
:10138000000212DC000212DD000510300D00021216
:10139000DE000212DF000212E0000212E100E5109E
:1013A000400D000212E2000212D9000212E3000214
:1013B00012E400D110500D000212E5000212E60006
:1013C0000212E7000212E800A910600D000212E903
:1013D000000212D9000212D9000212D900BF107007
:1013E0000D000212EA000212EB000212EC000212DF
:1013F000ED007510800D000212EE000212EF0002E7
:1014000012F0000212F1005510900D000212F200CD
:101410000212F3000212F4000212F5003510A00DC2
:10142000000212F6000212F7000212F8000212F98E
:10143000001508B00D000212FA000211CA00501087
:101440004E110090E682E030E004E020E60B90E6EA
:1014500082E030AC105E1100E119E030E71590E653
:1014600080E04401F07F147E5F0C6E1100001210CA
:101470003A90E680E054FEF022DF10A5110090E6DD
:1014800082E044C0F090E681F04387010000BC0494
:10149000B511000000002214101F1100300809903F
:1014A000E680E0440AF0800790E680E00E102F11FD
:1014B000004408F07FDC7E0512103A90E65D74FF70
:1014C000F0040F3F110090E65FF05391EF90E6803B
:1014D000E054F7F022D608BC1200E4F51CD2E9D2A1
:1014E000AF22D710BE0C00AD0790E678E020E6F9F9
:1014F000C2E990E678E044E810CE0C0080F0ED25DB
:10150000E090E679F090E678E030E0F9FE10DE0C4D
:101510000090E678E04440F090E678E020E6F9902C
:10152000E68108EE0C0078E030E1D6D2E922E21044
:10153000ED1000AC0790E678E020E6F9E51C70239A
:1015400090E678F110FD1000E04480F0EC25E0908A
:10155000E679F08D17AF03A980100D1100077518FB
:10156000018A19891AE4F51B751C01D3227C021D1E
:101570001100C322EB10801000AC0730050990E683
:1015800078E030E60680F7E51C0D1090100070FC46
:1015900090E678E04480F0EC25E0440190E6B61057
:1015A000A0100079F08D17AF03A9077518018A19EB
:1015B000891AE41907B01000F51B751C03D322A08B
:1015C000034B000002094B5C104B0900C0E0C083D4
:1015D000C082C085C084C086758600C0ED105B09DE
:1015E00000D075D000C000C001C002C003C006C05A
:1015F00007E4106B090090E678E030E206751C06FF
:10160000020A4D90E678B8107B0900E020E10CE575
:101610001C64026006751C07020A4DC1108B09008C
:10162000E51C24FE607214604924FE7003020A392E
:10163000D0109B090024FC7003020A4514700302B9
:101640000A4A240960FE10AB090003020A4DAB18D8
:10165000AA19A91AAF1B051B8F829C10BB09007524
:101660008300120F5D90E679F0E51BB5170830D3C3
:1016700010CB09000505751C05807BE51B651770FF
:1016800075751C0A8510DB0900807090E679E0AB67
:1016900018AA19A91AAE1B8E822B10EB09007583AC
:1016A00000120F8A751C02E5176401705390121026
:1016B000FB0900E678E04420F0804AE51724FEB5F7
:1016C0001B07900B100B0A00E678E04420F0E517AA
:1016D00014B51B0A90E678E091101B0A004440F014
:1016E000751C0090E679E0AB18AA19A91AAE102B68
:1016F0000A00AE1B8E82758300120F8A051B8014B0
:1017000090E615103B0A0078E04440F0751C00801C
:1017100008751C008003753D104B0A001C00539196
:10172000DFD007D006D003D002D001D0C9105B0AA9
:101730000000D0D0D086D084D085D082D083D0E0B5
:101740003265027A1100A907C3107C1100AE2EAFDA
:101750002F8F828E83A3E064037017AD0168108C15
:10176000110019ED7001228F828E83E07C002FFD25
:10177000EC3EE6089C1100FEAF0580DFE4FEFF5959
:1017800001A41100222810E81100121080E51C2489
:10179000FA600E146006240770F3C00CF81100D331
:1017A00022E4F51CD322E4F51CD3222210041200FB
:1017B0001210EDE51C24FA600E146006240770F385
:1017C000360C141200D322E4F51CD322E4F51CD30A
:1017D0002205103A10008E348F3590E600E0541840
:1017E0007012E53524019D104A1000FFE43534C322
:1017F00013F534EF13F535801590E614105A1000E8
:1018000000E05418FFBF100BE53525E0F535E53451
:10181000FF106A100033F534E5351535AE3470022B
:1018200015344E600566067A10001211B980EE225A
:101830000410B911007400F58690FDA57C05A3E5A0
:1018400082458370F94901C9110022030300000099
:10185000020E5B920C5B0E00787FE4F6D8FD75817A
:1018600039020EA204105D0F00BB010CE58229F5C0
:1018700082E5833AF583E0225049106D0F0006E9B6
:101880002582F8E622BBFE06E92582F8E222930DC6
:101890007D0F00E58229F582E5833AF583E4932202
:1018A000AD108A0F00F8BB010DE58229F582E583B2
:1018B0003AF583E8F09D109A0F00225006E9258240
:1018C000C8F622BBFE05E92582C84902AA0F00F22C
:1018D000223110AC0F00D083D082F8E493701274E0
:1018E0000193700DA3A3D410BC0F0093F87401935F
:1018F000F5828883E4737402936860E806CC0F0075
:10190000EFA3A3A380DFE810670E00020DB8E493F5
:10191000A3F8E493A34003F68001F2DC10770E00F5
:1019200008DFF48029E493A3F85407240CC8C333D8
:101930008C10870E00C4540F4420C8834004F45612
:10194000800146F6DF5B10970E00E4800B01020475
:101950000810204080900B49E47E9710A70E0001EC
:101960009360BCA3FF543F30E509541FFEE493503D
:1019700010B70E00A360010ECF54C025E060A84050
:10198000B8E493A31710C70E00FAE493A3F8E49306
:10199000A3C8C582C8CAC583CA4210D70E00F0A327
:1019A000C8C582C8CAC583CADFE9DEE780BEFA01BE
:0519B000F50B0000FF33
:00000001FF
