:100000001068030090E668E0FF74FFF0E0B40B04B2
:10001000EFF0D322000678030090E668EFF0C3000B
:10002000017E0300220010B50100907FE9E064A387
:1000300060030202C5A3E07508000010C50100F5C9
:1000400009A3E0FEE4EE4208907FEEE0750A0000AE
:1000500010D50100F50BA3E0FEE4EE420A907FE824
:10006000E06440700010E5010064E50B450A700390
:100070000202D6E4907FC5F0900010F501007FB435
:10008000E020E3F9907FC5E0750C00F50DE4001069
:10009000050200FCFDC3ED950DEC950C501F74C0DE
:1000A0002DF5820010150200E4347EF583E0FFE5B3
:1000B000092DF582E5083CF5001025020083EFF0DC
:1000C0000DBD00010C80D8E50D2509F5090010359E
:1000D0000200E50C3508F508C3E50B950DF50BE5B9
:1000E0000A9500104502000CF50A809C907FE8E01C
:1000F00064C060030202D60010550200E50B450AF9
:10010000607BC3E50B9440E50A9400500010650243
:100110000008850A0C850B0D8006750C00750D40D6
:10012000E40010750200FCFDC3ED950DEC950C503C
:100130001FE5092DF5820010850200E5083CF583D6
:10014000E0FF74002DF582E4347FF5001095020085
:1001500083EFF00DBD00010C80D8907FB5E50DF068
:100160000010A502002509F509E50C3508F508C3BE
:10017000E50B950DF50010B502000BE50A950CF5A1
:100180000A907FB4E030E29280F70010C502009040
:100190007FE9E0B4AC0AE4907F00F0907FB5040002
:1001A00008D50200F0907FB4E04402F00001DD02C7
:1001B0000022001080000090E6B9E064A360030212
:1001C0000198A3E07508000010900000F509A3E075
:1001D000FEE4EE420890E6BEE0750A000010A000C2
:1001E00000F50BA3E0FEE4EE420A90E6B8E06440BE
:1001F000700010B0000066E50B450A70030201AD07
:10020000E490E68AF0A30010C00000F090E6A0E0C1
:1002100020E1F990E68BE0750C00F50010D00000AD
:100220000DE4FCFDC3ED950DEC950C501F74402DB5
:100230000010E00000F582E434E7F583E0FFE50913
:100240002DF582E5080010F000003CF583EFF00D7D
:10025000BD00010C80D8E50D25090010000100F556
:1002600009E50C3508F508C3E50B950DF50BE50020
:10027000101001000A950CF50A809A90E6B8E06427
:10028000C0600302001020010001ADE50B450A70BB
:10029000030201ADC3E50B94400010300100E50AF4
:1002A00094005008850A0C850B0D8006750C001013
:1002B00040010000750D40E4FCFDC3ED950DEC958B
:1002C0000C501F0010500100E5092DF582E5083C97
:1002D000F583E0FF74402DF5001060010082E434E6
:1002E000E7F583EFF00DBD00010C80D8E40010703D
:1002F000010090E68AF0A3E50DF02509F509E50C6B
:1003000035080010800100F508C3E50B950DF50BCD
:10031000E50A950CF50A900010900100E6A0E03087
:10032000E18C80F790E6B9E0B4AC0E900010A0012B
:1003300000E7407401F0E490E68AF0A304F090E650
:10034000A00004B00100E04480F00001B4010022EC
:100350000010DE0200C2011203689200907F95E057
:1003600044C0F0D2E80010EE020030000890E65DD4
:1003700074FFF08006907FAB74FF0010FE0200F067
:1003800030000890E6687408F08007907FAFE000C6
:10039000100E03004401F030000890E65C7401F098
:1003A0008006907F00101E0300AE7401F0D2AF30C3
:1003B00001FD3000051200808000082E03000312AA
:1003C00001B5C20180EE00030300000203360010F5
:1003D000360300C0E0C083C082C085C084C086757B
:1003E0008600D20010460300015391EF30000890C0
:1003F000E65D7401F080069000105603007FAB7438
:1004000001F0D086D084D085D082D083D00002661F
:100410000300E03200034300000204000004000473
:100420000002033600000300000002037F000C7F7F
:100430000300787FE4F6D8FD7581200202DE00001B
:0404400000000100B7
:00000001FF
