:1000000010B80B00012C00012D05012900012A4028
:10001000C105C104AD0AC80B000224000001210083
:10002000012200B810090A0090E6007410F0120EC8
:100030002490E60B7401F000C910190A000000902A
:10004000E61274A2F000000090E61374E26010293A
:100050000A00F000000090E614F000000090E615A1
:10006000F000D810390A00000090E6047480F00017
:1000700000007402F00000E910490A00007404F066
:100080000000007406F00000007408F05F10590AC8
:1000900000000000E4F000000090E6187411F00089
:1000A00000B610690A000090E6907480F00000002D
:1000B00090E691F000009C10790A000090E6197417
:1000C00009F0000000E490E622F0000510890A0023
:1000D000000090E6237404F000000090E61A740912
:1000E0004F10990A00F0000000E490E624F00000B0
:1000F0000090E62574E010A90A0040F0000000908E
:10010000E61B7409F0000000E4909B10B90A00E6B9
:1001100026F000000090E6277440F0000000539D98
:1001200010C90A00807F43B280E4F5B6F5B490E6CA
:1001300068E054FC630ED90A00F000000053E8FBAD
:1001400000000012122B2278108E060090E6F4E0D8
:1001500030E00AE5AA20E305751F01804C109E06D9
:10016000003790E6F4E030E20AE5AC30E505751FB3
:10017000026E10AE06008026300505751F20801E19
:1001800090E6F4E030E1AF10BE06000AE5AC30E1E5
:1001900005751F04800DE5AB20E105C010CE0600FB
:1001A000751F088003751F10E51F24FE70030207EA
:1001B000B710DE06007524FE70030207B824FC7039
:1001C000030207F8248910EE0600E8700302088194
:1001D000241F60030208E590E6F31810FE0600E015
:1001E000547FF000000090E6F074FFF090E6F11903
:1001F000100E070074ECF0E5BB30E7FB000000E4F4
:1002000090E6D0F0BF101E070000000090E6D10479
:10021000F000000075BB0500005B102E070000E534
:10022000BB30E7FB00000090E6F3E0547FF0FD10E8
:100230003E070000000090E6F074FFF090E6F174D5
:10024000EEF0E544104E0700BB30E7FB000000E491
:1002500090E6D0F00000009024105E0700E6D10484
:10026000F000000075BB05000000E5BB30DB106E40
:100270000700E7030208E580F600000090E6F3E0DF
:10028000547F10107E0700F000000090E6F074FF2D
:10029000F090E6F174F2F0F5108E0700E5BB30E760
:1002A000FB00000090E6D0E529F0000065109E07F5
:1002B000000090E6D1E52AF000000075BB070000C1
:1002C00000CE10AE0700E5BB30E7030208E580F67C
:1002D00090E6F3E0547F0010BE0700F000000090AD
:1002E000E6F074FFF090E6F174E4F0C310CE07007E
:1002F000E5BB30E7FB00000090E6D0E529F0000008
:100300002510DE07000090E6D1E52AF00000007518
:10031000BB060000008F10EE0700E5BB30E70302CC
:1003200008E580F600000090E6491D10FE07007405
:1003300002F000000090E6F3E0547FF00000007946
:10034000100E080090E6F074FFF090E6F174F4F0FF
:10035000E5BB30E79B101E0800FB00000090E6F1B3
:10036000E0F521E5BB30E7FB00C0102E08000000DF
:1003700090E6F2E0FF90E6F0E0F51AEF30E11E10B3
:100380003E0800030208E590E6F3E0547FF0000029
:100390000090E636104E0800F074FFF090E6F1741D
:1003A000EAF0E5BB30E7FB00E0105E08000000E487
:1003B00090E6D0F000000090E6D17420F0A5106E19
:1003C0000800000000E4F5BB000000E5BB30E7FBDF
:1003D000000034107E0800008064E4F51DF51E90D6
:1003E0001487E0FFA3E0F5FB108E08001BA3E0FEDE
:1003F000C313F51CEF30E03930E104D2B8109E0889
:1004000000048002C204E51BD39401400DE51B14D7
:10041000FD3810AE08007A147B8AAF1C1211797473
:1004200089251BF582E4A810BE08003414F583E08A
:10043000F528D2047A147B88FDAF1C3E10CE08004C
:1004400012115D8010E4F528D2047A147B8AAD1B6A
:10045000D80ADE0800AF1C121179C205000000E2C4
:1004600001E8080022ED05FA0C00438080D322BD8C
:100470000533120053807FD3226F023C1200D32237
:10048000BB081B120090E6BAE0F52BD322A610EDB4
:10049000110090E740E52BF0E490E68AF090E68BBF
:1004A00004F07202FD1100D322FB0823120090E633
:1004B000BAE0F527D322A210FF110090E740E5270C
:1004C000F0E490E68AF090E68B04F064020F1200EC
:1004D000D322E8023E1200D322B902401200D322F6
:1004E000B702421200D322B51080000090E6B9E0B6
:1004F000120EE900AC1000D212011C1487109000FB
:1005000000016D20019D2101EB22027724033B2590
:10051000030210A00000C23003904003A04100007D
:1005200003E0000000903410B00000E6047480F096
:100530000000007404F000000074069010C0000079
:10054000F00000007408F0000000E4F00000000279
:10055000FE10D0000003E290E6F3E0547FF00000CC
:100560000090E6BDE01C10E0000090E6F0F090E6A0
:10057000BCE090E6F1F0E5BB30E79A10F00000FB3C
:1005800000000090E6F3E04480F000000090E69266
:1005900010000100BBE090E6F0F090E6BAE090E6D3
:1005A000F1F00000971010010000E5BB30E7FB0000
:1005B00000000203E290E6F3E0FD10200100547F0A
:1005C000F000000090E6BDE090E6F0F090E62D101F
:1005D000300100BCE090E6F1F0E5BB30E7FB000045
:1005E0000090E6A410400100F1E0F522E5BB30E701
:1005F000FB90E6F2E090E7401610500100F090E624
:10060000F0E090E741F0E490E68AF090E677106041
:1006100001008B7402F090E6A0E04480F0C32290C9
:10062000E6BADF10700100E0F51A90E6BEE0F51BB7
:10063000E490E68AF090E622108001008BF090E6CC
:10064000A0E020E1F97AE77B40AD1BAF711090018B
:10065000001A12117990E6A0E04480F0C32290E6DF
:10066000BAEA10A00100E0F51A90E6BEE0F51B9092
:10067000E6A0E020E1F94C10B00100E4F51CE51C17
:10068000C3951B50127440251CF5820810C0010050
:10069000E434E7F58374CDF0051C80E77AE77B400E
:1006A000E310D00100AD1BAF1A12115DE490E68A91
:1006B000F090E68BE55410E001001BF090E6A0E01E
:1006C0004480F0C32290E6BAE0F57010F001001A01
:1006D00090E6BEE0F51B90E6A0E020E1F9E4F5F835
:1006E000100002001CE51CC3951B50127440251C11
:1006F000F582E4347810100200E7F58374CDF0053C
:100700001C80E7E4F51C90E6BBA010200200E0602E
:100710001590E6BDE0FFAE1C051C74C72EF51E103B
:1007200030020082E43414F583EFF090E6BCE0FF81
:10073000AE1C05D9104002001C74C72EF582E434AB
:1007400014F583EFF07A147B2610500200C7AD1C1D
:10075000AF1A1211797AE77B40AD1BAF1AFC10601B
:10076000020012115DE490E68AF090E68BE51BF042
:1007700090E6D310700200A0E04480F0C322E49021
:10078000E68AF090E68BF0A01080020090E6A0E0F0
:1007900020E1F990E6BEE0F52890E740961090023F
:1007A00000E030E02BE4F51CE51CC3952840030273
:1007B000038510A00200307440251CF582E434E764
:1007C000F583E0FF74876110B00200251CF582E418
:1007D0003414F583EFF0051C80D890FA10C00200A5
:1007E000E741E02402F51BE4F51CE51CC3951B5012
:1007F0003710D002001E7440251CF582E434E7F562
:1008000083E0FF74874310E00200251CF582E43486
:1008100014F583EFF0051C80DB74E310F002004058
:10082000251CF582E434E7F583E0FF90E741E0180A
:10083000100003002F14901488F0E52814F51BE530
:100840001CC3951BE910100300501E7441251CF5B4
:1008500082E434E7F583E0FF743810200300872535
:100860001CF582E43414F583EFF0051C80DB8F1057
:10087000300300D20590E6A0E04480F0C3223005AA
:1008800010E4909E10400300E740F090E68AF0905C
:10089000E68B04F0802D90E78D105003004074012A
:1008A000F0F51CE51CD39528501E748725C81060F0
:1008B00003001CF582E43414F583E0FF7440251C2A
:1008C000F5820B10700300E434E7F583EFF0051CAC
:1008D00080DBE490E68AF0D710800300E5280490DE
:1008E000E68BF090E6A0E04480F0C322DC10900399
:1008F0000090E6BAE0547FF580A3E04480F5B28032
:10090000425510A0030090E740E526F0A3E580F0F3
:10091000A3E523F0E4909410B00300E68AF090E69B
:100920008B7403F090E6A0E04480F0CB10C003008D
:10093000C32290E740E52DF0A3E52CF0E490E68A91
:100940000710D00300F090E68B7402F090E6A0E070
:100950004480F0C3223710E00300C322E490E68A0B
:10096000F090E68B04F090E6A0E06904F003004408
:1009700080F0C39201F4030022E610E70A00C0E011
:10098000C083C082D2015391EF90E65D7401EC0800
:10099000F70A00F0D082D083D0E0328010AD110091
:1009A000C0E0C083C0825391EF90E65D7404F0D044
:1009B0002F06BD110082D083D0E0327510C3110024
:1009C000C0E0C083C0825391EF90E65D7402F0D026
:1009D0001B06D3110082D083D0E0325F102C1000B0
:1009E000C0E0C083C08285100C85110D850D828505
:1009F000B2103C10000C83A37402F085080E850928
:100A00000F850F828539104C10000E83A37407F0F8
:100A10005391EF90E65D7410F0D00B065C100082ED
:100A2000D083D0E032D710951100C0E0C083C082DF
:100A3000D2035391EF90E65D74082E08A51100F0E3
:100A4000D082D083D0E032CB100F0F00C0E0C08343
:100A5000C08290E680E030E74B85080CDC101F0F69
:100A60000085090D850D82850C83A37402F0851025
:100A70000E53102F0F0085110F850F82850E83A353
:100A80007407F075290233103F0F00752A0000002B
:100A90000090E6247402F00000009073104F0F00E5
:100AA000E625E4F000000090E6267402F000000065
:100AB000B1105F0F0090E627E4F00000005391EFC3
:100AC00090E65D7420D7086F0F00F0D082D083D0FD
:100AD000E0320301FF0A0032C401FF0C0032C20100
:100AE000441200327701451200327601461200327C
:100AF0007501471200327401481200327301491225
:100B0000003272014A12003271014B120032700140
:100B10004C1200326F014D1200326E014E12003243
:100B20006D014F1200326C01501200326B015112F4
:100B300000326A0152120032690153120032680118
:100B4000541200326701551200326601561200320B
:100B500065015712003264015812003263015912C4
:100B6000003262015A12003261015B1200326001F0
:100B70005C1200325F015D1200325E015E120032D3
:100B80005D015F1200325C01601200325B01611294
:100B900000325A01621200325901631200325801C8
:100BA0006412003257103F1100C0E0C083C0829031
:100BB000E6F574FFF0000000535A0E4F110091BF8C
:100BC000F5A2000000D082D083D0E0322410D911E9
:100BD00000C0E05391BFE5A04480F523E5B1448017
:100BE000F51304E9110026D0E032FA0A11120000D0
:100BF000010202030304040505B610610C00E4F5CC
:100C000019F518F517F516C203C200C202C260102A
:100C1000710C0001120A09750A0D750B0075120D91
:100C20007513121310810C0075080D75091C7510D1
:100C30000D75114A75140D75D210910C001578D2EE
:100C4000E843D82090E668E04408F090E66110A1FF
:100C50000C005CE0443DF0D2AF90E680E020E1057E
:100C6000D2066110B10C0012109490E680E054F7A7
:100C7000F0538EF8C203309E10C10C000105120320
:100C8000F5C201300329120CFA5024C2A610D10C6F
:100C9000000312111A20001690E682E030E704E00B
:100CA00020AA10E10C00E1EF90E682E030E604E0DB
:100CB00020E0E41210C39808F10C0012123312065F
:100CC0008E80C7B701F90C0022D810F5030090E61A
:100CD000B9E070030204D014700302057924751082
:100CE000050400FE700302060E24FB70030204CA12
:100CF00014700377101504000204C4147003020476
:100D0000B81470030204BE245910250400056003C2
:100D100002067A12123C400302068690E63610352F
:100D20000400BBE024FE602C14604724FD60161410
:100D30006031771045040024067065E50A90E6B33B
:100D4000F0E50B90E6B4F09610550400020686E537
:100D50001290E6B3F0E51390E6B4F002E5106504F6
:100D6000000686E50C90E6B3F0E50D90E6B4F002DF
:100D700006DD1075040086E50E90E6B3F0E50F90F1
:100D8000E6B4F0020686491085040090E6BAE0FF5A
:100D90001210EFAA06A9077B01EA49381095040052
:100DA000600DEE90E6B3F0EF90E6B4F002068690A8
:100DB000BC10A50400E6A0E04401F002068690E61F
:100DC000A0E04401F0F310B504000206861211FF02
:100DD000020686121223020686121210C5040012A1
:100DE0001B0206861211ED02068612123E400329EE
:100DF00010D5040002068690E6B8E0247F602B142C
:100E0000603C24027710E50400600302056FA20035
:100E1000E433FF25E0FFA202E4EA10F50400334FBB
:100E200090E740F0E4A3F090E68AF090E68B66103D
:100E30000505007402F0020686E490E740F0A3F096
:100E400090E68AD410150500F090E68B7402F0024B
:100E5000068690E6BCE0547E0D10250500FF7E005E
:100E6000E0D3948040067C007D0180047C421035F4
:100E70000500007D00EC4EFEED4F2411F58274124A
:100E80003EF5601045050083E493FF3395E0FEEFE7
:100E900024A1FFEE34E68FBD1055050082F583E0F6
:100EA000540190E740F0E4A3F090E68A491065050C
:100EB00000F090E68B7402F002068690E6A0E04413
:100EC000016610750500F00206861212404003020A
:100ED000068690E6B8E0B51085050024FE601D2466
:100EE00002600302068690E6BAE0B4EC10950500B5
:100EF0000105C20002068690E6A0E04401F0020669
:100F0000CD10A505008690E6BAE0705990E6BCE0E9
:100F1000547EFF7E008610B50500E0D39480400625
:100F20007C007D0180047C007D00B210C50500ECD2
:100F30004EFEED4F2411F58274123EF583E4935377
:100F400010D50500FF3395E0FEEF24A1FFEE34E657
:100F50008F82F5832D10E50500E054FEF090E6BC8D
:100F6000E05480FF131313541F5310F50500FFE0E6
:100F7000540F2F90E683F0E04420F0020686DA104A
:100F800005060090E6A0E04401F08078121242507D
:100F90007390E62310150600B8E024FE60202402BA
:100FA000706790E6BAE0B401D91025060004D200BB
:100FB000805C90E6BAE06402605490E6A0D31035FD
:100FC0000600E04401F0804B90E6BCE0547EFF7EDA
:100FD00000E09410450600D3948040067C007D011B
:100FE00080047C007D00EC15105506004EFEED4F90
:100FF0002411F58274123EF583E493FFAF10650669
:10100000003395E0FEEF24A1FFEE34E68F82F583F6
:10101000E0BB107506004401F0800C120080500700
:1010200090E6A0E044019008850600F090E6A0E07C
:101030004480F0D3018D0600224A033300000212DF
:10104000387E0438120053D8EF326610D20B00609D
:10105000801400030138010101010700020100D5DD
:1010600010E20B0000000000FAFAFBFBFBFBFBFBAD
:1010700036092D2D9410F20B002D2D123F01013851
:10108000010101010702020702F610020C00000034
:101090000000F9FBFBFBFBFBFBFB09092D2DA0105E
:1010A000120C00002D363F03013F01010101070032
:1010B000020100DF10220C0000000000FAFAFBFB26
:1010C000FBFBFBFB36092D2D5310320C002D2D128E
:1010D0003F19023F023F0101070302070651104278
:1010E0000C0001000000FBFFFBF9FBFBFBFB3F2DAD
:1010F0002D2D010E520C002D2D363F471480E0009F
:1011000000FB06E4111410240E0090E60174C2F0F6
:1011100090E6F574FFF0901480E04F10340E0090CC
:10112000E6F3F0901481E090E6C3F0901482E021A1
:1011300010440E0090E6C1F0901483E090E6C2F0F7
:10114000901485E03F10540E0090E6C0F090148695
:10115000E090E6F4F075AF07746510640E0014F5C6
:101160009A7400F59B759DE4E4F59EFF90E6F510FA
:10117000740E007BE090E67CF00FBF80F4E490E614
:1011800071F0F53F10840E00B490E672F0F5B600F1
:10119000000090E6C4F00000FD05940E000090E60B
:1011A000C5F02E01990E00223610000D001201002C
:1011B00002FF00FF40B10E0770080201024D10103F
:1011C0000D0000010A0600020000004001000902B3
:1011D0002E004610200D0001010080FA09040000D5
:1011E00004FF00000007052B10300D000202000272
:1011F0000007058402000200070586028510400DE5
:10120000000002000705880200020009022E00010A
:1012100001CE10500D000080FA0904000004FF0008
:10122000000007050202F910600D004000000705EC
:1012300084024000000705860240009D10700D00EA
:101240000007058802400000040309040803570052
:101250002710800D0049005300120354005600204F
:1012600000540055003F08900D004E00450052000C
:1012700000007603430000020B00AD0353000002A0
:1012800011D9BE10000B00020AE7000211C30002D0
:1012900011AD0002119500B410100B0002102C00CB
:1012A000020F0F00020AFF00020CFF005F10200B6C
:1012B00000021244000212450002124600021247C8
:1012C000005F10300B0002124800021249000212A7
:1012D0004A0002124B003F10400B0002124C000269
:1012E0000CFF0002124D0002124E007510500B0050
:1012F00002124F000212500002125100021252005C
:101300000310600B0002125300020CFF00020CFFDE
:1013100000020CFF00F710700B00021254000212C2
:1013200055000212560002125700CF10800B000227
:101330001258000212590002125A0002125B00AF4A
:1013400010900B0002125C0002125D0002125E009F
:1013500002125F008F10A00B0002126000021261E7
:101360000002126200021263006F08B00B0002124A
:10137000640002113F007310C3100090E682E03059
:10138000E004E020E60B90E682E0303810D3100055
:10139000E119E030E71590E680E04401F07F147E2B
:1013A000EB0CE3100000120F7790E680E054FEF0A3
:1013B000222F101A110090E682E044C0F090E681DE
:1013C000F0438701000047042A1100000000229F1B
:1013D0001094100030060990E680E0440AF080077F
:1013E00090E680E09C10A410004408F07FDC7E05AD
:1013F000120F7790E65D74FFF0540FB4100090E682
:101400005FF05391EF90E680E054F7F02262082BF2
:101410001200E4F533D2E9D2AF225110BD0F00AD76
:101420000790E678E020E6F9C2E990E678E044E645
:1014300010CD0F0080F0ED25E090E679F090E67891
:10144000E030E0F9FC10DD0F0090E678E04440F079
:1014500090E678E020E6F990E67F08ED0F0078E06E
:1014600030E1D6D2E922E010621000AC0790E678B5
:10147000E020E6F9E533702390E6786510721000FD
:10148000E04480F0EC25E090E679F08D2EAF03A9E2
:10149000F41082100007752F018A308931E4F5328B
:1014A000753301D3229502921000C3227710F50FF5
:1014B00000AC0730040990E678E030E60680F7E5F6
:1014C00033831005100070FC90E678E04480F0EC67
:1014D00025E0440190E6411015100079F08D2EAF03
:1014E00003A907752F018A308931E44807251000C8
:1014F000F532753303D322FD034B00000208E9BF28
:1015000010E90800C0E0C083C082C085C084C086E6
:10151000758600C05010F90800D075D000C000C01A
:1015200001C002C003C006C007471009090090E6C9
:1015300078E030E2067533060209EB90E678661033
:10154000190900E020E10CE53364026006753307F9
:101550000209EB5810290900E53324FE607214607B
:101560004924FE70030209D77E1039090024FC705B
:10157000030209E31470030209E8240960261049F4
:101580000900030209EBAB2FAA30A931AF320532B3
:101590008F82EE10590900758300120E9A90E67939
:1015A000F0E532B52E0830CB10690900040575331B
:1015B00005807BE532652E707575330A8C107909CC
:1015C00000807090E679E0AB2FAA30A931AE328E60
:1015D000823110890900758300120EC7753302E548
:1015E0002E64017053900A10990900E678E04420B7
:1015F000F0804AE52E24FEB53207903F10A909007D
:10160000E678E04420F0E52E14B5320A90E678E062
:10161000C610B909004440F075330090E679E0AB9C
:101620002FAA30A931B510C90900AE328E82758358
:1016300000120EC70532801490E60E10D90900780A
:10164000E04440F075330080087533008003757204
:1016500010E9090033005391DFD007D006D003D042
:1016600002D001D01510F9090000D0D0D086D08466
:10167000D085D082D083D0E032C802EF1000A90715
:101680004F10F11000AE14AF158F828E83A3E0646B
:10169000037017AD01281001110019ED7001228FA0
:1016A000828E83E07C002FFDEC3E7108111100FE5C
:1016B000AF0580DFE4FEFFE40119110022B3105DE5
:1016C0001100120FF5E53324FA600E1460062407AA
:1016D00070F3C00C6D1100D322E4F533D322E4F58E
:1016E00033D3227F10791100121062E53324FA609F
:1016F0000E146006240770F3360C891100D322E41F
:10170000F533D322E4F533D3226310770F008E1A1A
:101710008F1B90E600E054187012E51B2401AF10F7
:10172000870F00FFE4351AC313F51AEF13F51B807A
:101730001590E62610970F0000E05418FFBF100B1D
:10174000E51B25E0F51BE51A1110A70F0033F51A6C
:10175000E51B151BAE1A7002151A4E6005AC06B7D4
:101760000F0012112E80EE2253102E11007400F57E
:101770008690FDA57C05A3E582458370F9D4013EE2
:101780001100228E03000000020D98560C980D00E7
:10179000787FE4F6D8FD758133020DDF92109A0E42
:1017A00000BB010CE58229F582E5833AF583E0224E
:1017B000500D10AA0E0006E92582F8E622BBFE06AF
:1017C000E92582F8E222570DBA0E00E58229F5825A
:1017D000E5833AF583E493227110C70E00F8BB014C
:1017E0000DE58229F582E5833AF583E8F06110D7AB
:1017F0000E00225006E92582C8F622BBFE05E92527
:1018000082C80D02E70E00F222F510E90E00D08327
:10181000D082F8E4937012740193700DA3A3981012
:10182000F90E0093F8740193F5828883E4737402CF
:10183000936860AC06090F00EFA3A3A380DFAB1091
:10184000A40D00020C61E493A3F8E493A34003F613
:101850008001F2F810B40D0008DFF48029E493A3AE
:10186000F85407240CC8C3335010C40D00C4540FDF
:101870004420C8834004F456800146F6DF1F10D48C
:101880000D00E4800B0102040810204080900BB88A
:10189000E47EEC10E40D00019360BCA3FF543F30E4
:1018A000E509541FFEE4931410F40D00A360010E2B
:1018B000CF54C025E060A840B8E493A3DB10040E29
:1018C00000FAE493A3F8E493A3C8C582C8CAC58309
:1018D000CA0510140E00F0A3C8C582C8CAC583CAC1
:0D18E000DFE9DEE780BEBD01600C00009373
:00000001FF
